
/Users/nehan/pico/pico-apps/build/labs/lab07/lab07.elf:     file format elf32-littlearm

Sections:
Idx Name          Size      VMA       LMA       File off  Algn
  0 .boot2        00000100  10000000  10000000  00001000  2**0
                  CONTENTS, ALLOC, LOAD, READONLY, CODE
  1 .text         000043c8  10000100  10000100  00001100  2**3
                  CONTENTS, ALLOC, LOAD, READONLY, CODE
  2 .rodata       00001014  100044c8  100044c8  000054c8  2**3
                  CONTENTS, ALLOC, LOAD, READONLY, DATA
  3 .binary_info  00000028  100054dc  100054dc  000064dc  2**2
                  CONTENTS, ALLOC, LOAD, DATA
  4 .ram_vector_table 000000c0  20000000  20000000  00007288  2**2
                  CONTENTS
  5 .data         000001c8  200000c0  10005504  000070c0  2**4
                  CONTENTS, ALLOC, LOAD, READONLY, CODE
  6 .uninitialized_data 00000000  20000288  20000288  00007348  2**0
                  CONTENTS
  7 .scratch_x    00000000  20040000  20040000  00007348  2**0
                  CONTENTS
  8 .scratch_y    00000000  20041000  20041000  00007348  2**0
                  CONTENTS
  9 .bss          000003d0  20000288  20000288  00007288  2**3
                  ALLOC
 10 .heap         00000800  20000658  20000658  00007348  2**2
                  CONTENTS, READONLY
 11 .stack1_dummy 00000800  20040000  20040000  00007b48  2**2
                  CONTENTS
 12 .stack_dummy  00000800  20041000  20041000  00008360  2**5
                  CONTENTS, READONLY
 13 .ARM.attributes 00000028  00000000  00000000  00008b60  2**0
                  CONTENTS, READONLY
 14 .comment      00000049  00000000  00000000  00008b88  2**0
                  CONTENTS, READONLY
 15 .debug_info   0001602f  00000000  00000000  00008bd1  2**0
                  CONTENTS, READONLY, DEBUGGING, OCTETS
 16 .debug_abbrev 000045a1  00000000  00000000  0001ec00  2**0
                  CONTENTS, READONLY, DEBUGGING, OCTETS
 17 .debug_loc    0000ebb8  00000000  00000000  000231a1  2**0
                  CONTENTS, READONLY, DEBUGGING, OCTETS
 18 .debug_aranges 00000e58  00000000  00000000  00031d60  2**3
                  CONTENTS, READONLY, DEBUGGING, OCTETS
 19 .debug_ranges 00003248  00000000  00000000  00032bb8  2**3
                  CONTENTS, READONLY, DEBUGGING, OCTETS
 20 .debug_line   0000eda4  00000000  00000000  00035e00  2**0
                  CONTENTS, READONLY, DEBUGGING, OCTETS
 21 .debug_str    000038cc  00000000  00000000  00044ba4  2**0
                  CONTENTS, READONLY, DEBUGGING, OCTETS
 22 .debug_frame  000018dc  00000000  00000000  00048470  2**2
                  CONTENTS, READONLY, DEBUGGING, OCTETS

/Users/nehan/pico/pico-apps/build/labs/lab07/lab07.elf:     file format elf32-littlearm


Disassembly of section .boot2:

10000000 <__boot2_start__>:
10000000:	4b32b500 	.word	0x4b32b500
10000004:	60582021 	.word	0x60582021
10000008:	21026898 	.word	0x21026898
1000000c:	60984388 	.word	0x60984388
10000010:	611860d8 	.word	0x611860d8
10000014:	4b2e6158 	.word	0x4b2e6158
10000018:	60992100 	.word	0x60992100
1000001c:	61592102 	.word	0x61592102
10000020:	22f02101 	.word	0x22f02101
10000024:	492b5099 	.word	0x492b5099
10000028:	21016019 	.word	0x21016019
1000002c:	20356099 	.word	0x20356099
10000030:	f844f000 	.word	0xf844f000
10000034:	42902202 	.word	0x42902202
10000038:	2106d014 	.word	0x2106d014
1000003c:	f0006619 	.word	0xf0006619
10000040:	6e19f834 	.word	0x6e19f834
10000044:	66192101 	.word	0x66192101
10000048:	66182000 	.word	0x66182000
1000004c:	f000661a 	.word	0xf000661a
10000050:	6e19f82c 	.word	0x6e19f82c
10000054:	6e196e19 	.word	0x6e196e19
10000058:	f0002005 	.word	0xf0002005
1000005c:	2101f82f 	.word	0x2101f82f
10000060:	d1f94208 	.word	0xd1f94208
10000064:	60992100 	.word	0x60992100
10000068:	6019491b 	.word	0x6019491b
1000006c:	60592100 	.word	0x60592100
10000070:	481b491a 	.word	0x481b491a
10000074:	21016001 	.word	0x21016001
10000078:	21eb6099 	.word	0x21eb6099
1000007c:	21a06619 	.word	0x21a06619
10000080:	f0006619 	.word	0xf0006619
10000084:	2100f812 	.word	0x2100f812
10000088:	49166099 	.word	0x49166099
1000008c:	60014814 	.word	0x60014814
10000090:	60992101 	.word	0x60992101
10000094:	2800bc01 	.word	0x2800bc01
10000098:	4700d000 	.word	0x4700d000
1000009c:	49134812 	.word	0x49134812
100000a0:	c8036008 	.word	0xc8036008
100000a4:	8808f380 	.word	0x8808f380
100000a8:	b5034708 	.word	0xb5034708
100000ac:	20046a99 	.word	0x20046a99
100000b0:	d0fb4201 	.word	0xd0fb4201
100000b4:	42012001 	.word	0x42012001
100000b8:	bd03d1f8 	.word	0xbd03d1f8
100000bc:	6618b502 	.word	0x6618b502
100000c0:	f7ff6618 	.word	0xf7ff6618
100000c4:	6e18fff2 	.word	0x6e18fff2
100000c8:	bd026e18 	.word	0xbd026e18
100000cc:	40020000 	.word	0x40020000
100000d0:	18000000 	.word	0x18000000
100000d4:	00070000 	.word	0x00070000
100000d8:	005f0300 	.word	0x005f0300
100000dc:	00002221 	.word	0x00002221
100000e0:	180000f4 	.word	0x180000f4
100000e4:	a0002022 	.word	0xa0002022
100000e8:	10000100 	.word	0x10000100
100000ec:	e000ed08 	.word	0xe000ed08
	...
100000fc:	7a4eb274 	.word	0x7a4eb274

Disassembly of section .text:

10000100 <__VECTOR_TABLE>:
10000100:	20042000 	.word	0x20042000
10000104:	100001f7 	.word	0x100001f7
10000108:	100001c3 	.word	0x100001c3
1000010c:	100001c5 	.word	0x100001c5
10000110:	100001c1 	.word	0x100001c1
10000114:	100001c1 	.word	0x100001c1
10000118:	100001c1 	.word	0x100001c1
1000011c:	100001c1 	.word	0x100001c1
10000120:	100001c1 	.word	0x100001c1
10000124:	100001c1 	.word	0x100001c1
10000128:	100001c1 	.word	0x100001c1
1000012c:	100001c7 	.word	0x100001c7
10000130:	100001c1 	.word	0x100001c1
10000134:	100001c1 	.word	0x100001c1
10000138:	100001c9 	.word	0x100001c9
1000013c:	100001cb 	.word	0x100001cb
10000140:	100001cd 	.word	0x100001cd
10000144:	100001cd 	.word	0x100001cd
10000148:	100001cd 	.word	0x100001cd
1000014c:	100001cd 	.word	0x100001cd
10000150:	100001cd 	.word	0x100001cd
10000154:	100001cd 	.word	0x100001cd
10000158:	100001cd 	.word	0x100001cd
1000015c:	100001cd 	.word	0x100001cd
10000160:	100001cd 	.word	0x100001cd
10000164:	100001cd 	.word	0x100001cd
10000168:	100001cd 	.word	0x100001cd
1000016c:	100001cd 	.word	0x100001cd
10000170:	100001cd 	.word	0x100001cd
10000174:	100001cd 	.word	0x100001cd
10000178:	100001cd 	.word	0x100001cd
1000017c:	100001cd 	.word	0x100001cd
10000180:	100001cd 	.word	0x100001cd
10000184:	100001cd 	.word	0x100001cd
10000188:	100001cd 	.word	0x100001cd
1000018c:	100001cd 	.word	0x100001cd
10000190:	100001cd 	.word	0x100001cd
10000194:	100001cd 	.word	0x100001cd
10000198:	100001cd 	.word	0x100001cd
1000019c:	100001cd 	.word	0x100001cd
100001a0:	100001cd 	.word	0x100001cd
100001a4:	100001cd 	.word	0x100001cd
100001a8:	100001cd 	.word	0x100001cd
100001ac:	100001cd 	.word	0x100001cd
100001b0:	100001cd 	.word	0x100001cd
100001b4:	100001cd 	.word	0x100001cd
100001b8:	100001cd 	.word	0x100001cd
100001bc:	100001cd 	.word	0x100001cd

100001c0 <isr_invalid>:
100001c0:	be00      	bkpt	0x0000

100001c2 <isr_nmi>:
100001c2:	be00      	bkpt	0x0000

100001c4 <isr_hardfault>:
100001c4:	be00      	bkpt	0x0000

100001c6 <isr_svcall>:
100001c6:	be00      	bkpt	0x0000

100001c8 <isr_pendsv>:
100001c8:	be00      	bkpt	0x0000

100001ca <isr_systick>:
100001ca:	be00      	bkpt	0x0000

100001cc <__unhandled_user_irq>:
100001cc:	f000 f84b 	bl	10000266 <__get_current_exception>
100001d0:	3810      	subs	r0, #16

100001d2 <unhandled_user_irq_num_in_r0>:
100001d2:	be00      	bkpt	0x0000

100001d4 <binary_info_header>:
100001d4:	7188ebf2 	.word	0x7188ebf2
100001d8:	100054dc 	.word	0x100054dc
100001dc:	10005504 	.word	0x10005504
100001e0:	10000234 	.word	0x10000234
100001e4:	e71aa390 	.word	0xe71aa390

100001e8 <_entry_point>:
100001e8:	2000      	movs	r0, #0
100001ea:	4921      	ldr	r1, [pc, #132]	; (10000270 <__get_current_exception+0xa>)
100001ec:	6008      	str	r0, [r1, #0]
100001ee:	c806      	ldmia	r0!, {r1, r2}
100001f0:	f381 8808 	msr	MSP, r1
100001f4:	4710      	bx	r2

100001f6 <_reset_handler>:
100001f6:	481f      	ldr	r0, [pc, #124]	; (10000274 <__get_current_exception+0xe>)
100001f8:	6800      	ldr	r0, [r0, #0]
100001fa:	2800      	cmp	r0, #0
100001fc:	d12f      	bne.n	1000025e <hold_non_core0_in_bootrom>
100001fe:	a40d      	add	r4, pc, #52	; (adr r4, 10000234 <data_cpy_table>)
10000200:	cc0e      	ldmia	r4!, {r1, r2, r3}
10000202:	2900      	cmp	r1, #0
10000204:	d002      	beq.n	1000020c <_reset_handler+0x16>
10000206:	f000 f812 	bl	1000022e <data_cpy>
1000020a:	e7f9      	b.n	10000200 <_reset_handler+0xa>
1000020c:	491a      	ldr	r1, [pc, #104]	; (10000278 <__get_current_exception+0x12>)
1000020e:	4a1b      	ldr	r2, [pc, #108]	; (1000027c <__get_current_exception+0x16>)
10000210:	2000      	movs	r0, #0
10000212:	e000      	b.n	10000216 <bss_fill_test>

10000214 <bss_fill_loop>:
10000214:	c101      	stmia	r1!, {r0}

10000216 <bss_fill_test>:
10000216:	4291      	cmp	r1, r2
10000218:	d1fc      	bne.n	10000214 <bss_fill_loop>

1000021a <platform_entry>:
1000021a:	4919      	ldr	r1, [pc, #100]	; (10000280 <__get_current_exception+0x1a>)
1000021c:	4788      	blx	r1
1000021e:	4919      	ldr	r1, [pc, #100]	; (10000284 <__get_current_exception+0x1e>)
10000220:	4788      	blx	r1
10000222:	4919      	ldr	r1, [pc, #100]	; (10000288 <__get_current_exception+0x22>)
10000224:	4788      	blx	r1
10000226:	be00      	bkpt	0x0000
10000228:	e7fd      	b.n	10000226 <platform_entry+0xc>

1000022a <data_cpy_loop>:
1000022a:	c901      	ldmia	r1!, {r0}
1000022c:	c201      	stmia	r2!, {r0}

1000022e <data_cpy>:
1000022e:	429a      	cmp	r2, r3
10000230:	d3fb      	bcc.n	1000022a <data_cpy_loop>
10000232:	4770      	bx	lr

10000234 <data_cpy_table>:
10000234:	10005504 	.word	0x10005504
10000238:	200000c0 	.word	0x200000c0
1000023c:	20000288 	.word	0x20000288
10000240:	100056cc 	.word	0x100056cc
10000244:	20040000 	.word	0x20040000
10000248:	20040000 	.word	0x20040000
1000024c:	100056cc 	.word	0x100056cc
10000250:	20041000 	.word	0x20041000
10000254:	20041000 	.word	0x20041000
10000258:	00000000 	.word	0x00000000
1000025c:	4770      	bx	lr

1000025e <hold_non_core0_in_bootrom>:
1000025e:	480b      	ldr	r0, [pc, #44]	; (1000028c <__get_current_exception+0x26>)
10000260:	f002 fe8a 	bl	10002f78 <rom_func_lookup>
10000264:	4700      	bx	r0

10000266 <__get_current_exception>:
10000266:	f3ef 8005 	mrs	r0, IPSR
1000026a:	b2c0      	uxtb	r0, r0
1000026c:	4770      	bx	lr
1000026e:	0000      	.short	0x0000
10000270:	e000ed08 	.word	0xe000ed08
10000274:	d0000000 	.word	0xd0000000
10000278:	20000288 	.word	0x20000288
1000027c:	20000658 	.word	0x20000658
10000280:	100015a1 	.word	0x100015a1
10000284:	1000045d 	.word	0x1000045d
10000288:	1000155d 	.word	0x1000155d
1000028c:	00005657 	.word	0x00005657

10000290 <__bi_50>:
10000290:	50520006 5360b3ab 100053ac              ..RP..`S.S..

1000029c <__bi_38>:
1000029c:	50520006 02031c86 100053a4              ..RP.....S..

100002a8 <__bi_30>:
100002a8:	50520006 9da22254 100053bc              ..RPT"...S..

100002b4 <__bi_22>:
100002b4:	50520005 68f465de 100056cc              ..RP.e.h.V..

100002c0 <_init>:
100002c0:	b5f8      	push	{r3, r4, r5, r6, r7, lr}
100002c2:	46c0      	nop			; (mov r8, r8)

100002c4 <__do_global_dtors_aux>:
100002c4:	b510      	push	{r4, lr}
100002c6:	4c06      	ldr	r4, [pc, #24]	; (100002e0 <__do_global_dtors_aux+0x1c>)
100002c8:	7823      	ldrb	r3, [r4, #0]
100002ca:	2b00      	cmp	r3, #0
100002cc:	d107      	bne.n	100002de <__do_global_dtors_aux+0x1a>
100002ce:	4b05      	ldr	r3, [pc, #20]	; (100002e4 <__do_global_dtors_aux+0x20>)
100002d0:	2b00      	cmp	r3, #0
100002d2:	d002      	beq.n	100002da <__do_global_dtors_aux+0x16>
100002d4:	4804      	ldr	r0, [pc, #16]	; (100002e8 <__do_global_dtors_aux+0x24>)
100002d6:	e000      	b.n	100002da <__do_global_dtors_aux+0x16>
100002d8:	bf00      	nop
100002da:	2301      	movs	r3, #1
100002dc:	7023      	strb	r3, [r4, #0]
100002de:	bd10      	pop	{r4, pc}
100002e0:	20000388 	.word	0x20000388
100002e4:	00000000 	.word	0x00000000
100002e8:	100044c8 	.word	0x100044c8

100002ec <frame_dummy>:
100002ec:	4b04      	ldr	r3, [pc, #16]	; (10000300 <frame_dummy+0x14>)
100002ee:	b510      	push	{r4, lr}
100002f0:	2b00      	cmp	r3, #0
100002f2:	d003      	beq.n	100002fc <frame_dummy+0x10>
100002f4:	4903      	ldr	r1, [pc, #12]	; (10000304 <frame_dummy+0x18>)
100002f6:	4804      	ldr	r0, [pc, #16]	; (10000308 <frame_dummy+0x1c>)
100002f8:	e000      	b.n	100002fc <frame_dummy+0x10>
100002fa:	bf00      	nop
100002fc:	bd10      	pop	{r4, pc}
100002fe:	46c0      	nop			; (mov r8, r8)
10000300:	00000000 	.word	0x00000000
10000304:	2000038c 	.word	0x2000038c
10000308:	100044c8 	.word	0x100044c8

1000030c <single_precision>:
1000030c:	b5f8      	push	{r3, r4, r5, r6, r7, lr}
1000030e:	46ce      	mov	lr, r9
10000310:	4647      	mov	r7, r8
10000312:	b580      	push	{r7, lr}
10000314:	4681      	mov	r9, r0
10000316:	27fe      	movs	r7, #254	; 0xfe
10000318:	05bf      	lsls	r7, r7, #22
1000031a:	2480      	movs	r4, #128	; 0x80
1000031c:	05e4      	lsls	r4, r4, #23
1000031e:	1c3e      	adds	r6, r7, #0
10000320:	e01d      	b.n	1000035e <single_precision+0x52>
10000322:	1c21      	adds	r1, r4, #0
10000324:	1c20      	adds	r0, r4, #0
10000326:	f003 fce2 	bl	10003cee <__wrap___aeabi_fmul>
1000032a:	4680      	mov	r8, r0
1000032c:	2180      	movs	r1, #128	; 0x80
1000032e:	05c9      	lsls	r1, r1, #23
10000330:	1c38      	adds	r0, r7, #0
10000332:	f003 fcc1 	bl	10003cb8 <__wrap___aeabi_fadd>
10000336:	1c05      	adds	r5, r0, #0
10000338:	1c39      	adds	r1, r7, #0
1000033a:	f003 fcd8 	bl	10003cee <__wrap___aeabi_fmul>
1000033e:	1c01      	adds	r1, r0, #0
10000340:	4640      	mov	r0, r8
10000342:	f003 fcbe 	bl	10003cc2 <__wrap___aeabi_fdiv>
10000346:	1c01      	adds	r1, r0, #0
10000348:	1c30      	adds	r0, r6, #0
1000034a:	f003 fcd0 	bl	10003cee <__wrap___aeabi_fmul>
1000034e:	1c06      	adds	r6, r0, #0
10000350:	2180      	movs	r1, #128	; 0x80
10000352:	05c9      	lsls	r1, r1, #23
10000354:	1c20      	adds	r0, r4, #0
10000356:	f003 fcaf 	bl	10003cb8 <__wrap___aeabi_fadd>
1000035a:	1c04      	adds	r4, r0, #0
1000035c:	1c2f      	adds	r7, r5, #0
1000035e:	4648      	mov	r0, r9
10000360:	f003 fcfe 	bl	10003d60 <__wrap___aeabi_i2f>
10000364:	1c21      	adds	r1, r4, #0
10000366:	f003 fcf3 	bl	10003d50 <__wrap___aeabi_fcmpge>
1000036a:	2800      	cmp	r0, #0
1000036c:	d1d9      	bne.n	10000322 <single_precision+0x16>
1000036e:	1c31      	adds	r1, r6, #0
10000370:	1c30      	adds	r0, r6, #0
10000372:	f003 fca1 	bl	10003cb8 <__wrap___aeabi_fadd>
10000376:	bcc0      	pop	{r6, r7}
10000378:	46b9      	mov	r9, r7
1000037a:	46b0      	mov	r8, r6
1000037c:	bdf8      	pop	{r3, r4, r5, r6, r7, pc}

1000037e <core1_entry>:
1000037e:	b510      	push	{r4, lr}
10000380:	f003 ffb9 	bl	100042f6 <multicore_fifo_pop_blocking>
10000384:	0004      	movs	r4, r0
10000386:	f003 ffb6 	bl	100042f6 <multicore_fifo_pop_blocking>
1000038a:	47a0      	blx	r4
1000038c:	f003 ffa9 	bl	100042e2 <multicore_fifo_push_blocking>
10000390:	e7f6      	b.n	10000380 <core1_entry+0x2>
	...

10000394 <double_precision>:
10000394:	b5f0      	push	{r4, r5, r6, r7, lr}
10000396:	46c6      	mov	lr, r8
10000398:	b500      	push	{lr}
1000039a:	b084      	sub	sp, #16
1000039c:	4680      	mov	r8, r0
1000039e:	2600      	movs	r6, #0
100003a0:	4f22      	ldr	r7, [pc, #136]	; (1000042c <double_precision+0x98>)
100003a2:	2400      	movs	r4, #0
100003a4:	2580      	movs	r5, #128	; 0x80
100003a6:	05ed      	lsls	r5, r5, #23
100003a8:	9600      	str	r6, [sp, #0]
100003aa:	9701      	str	r7, [sp, #4]
100003ac:	e02b      	b.n	10000406 <double_precision+0x72>
100003ae:	0022      	movs	r2, r4
100003b0:	002b      	movs	r3, r5
100003b2:	0020      	movs	r0, r4
100003b4:	0029      	movs	r1, r5
100003b6:	f003 f8a6 	bl	10003506 <__wrap___aeabi_dmul>
100003ba:	9002      	str	r0, [sp, #8]
100003bc:	9103      	str	r1, [sp, #12]
100003be:	2200      	movs	r2, #0
100003c0:	2380      	movs	r3, #128	; 0x80
100003c2:	05db      	lsls	r3, r3, #23
100003c4:	0030      	movs	r0, r6
100003c6:	0039      	movs	r1, r7
100003c8:	f003 f876 	bl	100034b8 <__wrap___aeabi_dadd>
100003cc:	0032      	movs	r2, r6
100003ce:	003b      	movs	r3, r7
100003d0:	0006      	movs	r6, r0
100003d2:	000f      	movs	r7, r1
100003d4:	f003 f897 	bl	10003506 <__wrap___aeabi_dmul>
100003d8:	0002      	movs	r2, r0
100003da:	000b      	movs	r3, r1
100003dc:	9802      	ldr	r0, [sp, #8]
100003de:	9903      	ldr	r1, [sp, #12]
100003e0:	f003 f873 	bl	100034ca <__wrap___aeabi_ddiv>
100003e4:	0002      	movs	r2, r0
100003e6:	000b      	movs	r3, r1
100003e8:	9800      	ldr	r0, [sp, #0]
100003ea:	9901      	ldr	r1, [sp, #4]
100003ec:	f003 f88b 	bl	10003506 <__wrap___aeabi_dmul>
100003f0:	9000      	str	r0, [sp, #0]
100003f2:	9101      	str	r1, [sp, #4]
100003f4:	2200      	movs	r2, #0
100003f6:	2380      	movs	r3, #128	; 0x80
100003f8:	05db      	lsls	r3, r3, #23
100003fa:	0020      	movs	r0, r4
100003fc:	0029      	movs	r1, r5
100003fe:	f003 f85b 	bl	100034b8 <__wrap___aeabi_dadd>
10000402:	0004      	movs	r4, r0
10000404:	000d      	movs	r5, r1
10000406:	4640      	mov	r0, r8
10000408:	f003 f8ee 	bl	100035e8 <__wrap___aeabi_i2d>
1000040c:	0022      	movs	r2, r4
1000040e:	002b      	movs	r3, r5
10000410:	f003 f8ca 	bl	100035a8 <__wrap___aeabi_dcmpge>
10000414:	2800      	cmp	r0, #0
10000416:	d1ca      	bne.n	100003ae <double_precision+0x1a>
10000418:	9800      	ldr	r0, [sp, #0]
1000041a:	9901      	ldr	r1, [sp, #4]
1000041c:	0002      	movs	r2, r0
1000041e:	000b      	movs	r3, r1
10000420:	f003 f84a 	bl	100034b8 <__wrap___aeabi_dadd>
10000424:	b004      	add	sp, #16
10000426:	bc80      	pop	{r7}
10000428:	46b8      	mov	r8, r7
1000042a:	bdf0      	pop	{r4, r5, r6, r7, pc}
1000042c:	3ff00000 	.word	0x3ff00000

10000430 <get_xip_cache_en>:
10000430:	23a0      	movs	r3, #160	; 0xa0
10000432:	055b      	lsls	r3, r3, #21
10000434:	781b      	ldrb	r3, [r3, #0]
10000436:	2b01      	cmp	r3, #1
10000438:	d001      	beq.n	1000043e <get_xip_cache_en+0xe>
1000043a:	2000      	movs	r0, #0
1000043c:	4770      	bx	lr
1000043e:	2001      	movs	r0, #1
10000440:	e7fc      	b.n	1000043c <get_xip_cache_en+0xc>

10000442 <set_xip_cache_en>:
10000442:	23a0      	movs	r3, #160	; 0xa0
10000444:	055b      	lsls	r3, r3, #21
10000446:	7018      	strb	r0, [r3, #0]
10000448:	2001      	movs	r0, #1
1000044a:	4770      	bx	lr

1000044c <flush_xip_cache_en>:
1000044c:	4b02      	ldr	r3, [pc, #8]	; (10000458 <flush_xip_cache_en+0xc>)
1000044e:	2201      	movs	r2, #1
10000450:	701a      	strb	r2, [r3, #0]
10000452:	2001      	movs	r0, #1
10000454:	4770      	bx	lr
10000456:	46c0      	nop			; (mov r8, r8)
10000458:	14000004 	.word	0x14000004

1000045c <main>:
1000045c:	b5f0      	push	{r4, r5, r6, r7, lr}
1000045e:	46de      	mov	lr, fp
10000460:	4657      	mov	r7, sl
10000462:	464e      	mov	r6, r9
10000464:	4645      	mov	r5, r8
10000466:	b5e0      	push	{r5, r6, r7, lr}
10000468:	b083      	sub	sp, #12
1000046a:	f003 fe97 	bl	1000419c <stdio_init_all>
1000046e:	485f      	ldr	r0, [pc, #380]	; (100005ec <main+0x190>)
10000470:	f003 fe56 	bl	10004120 <__wrap_puts>
10000474:	2000      	movs	r0, #0
10000476:	f7ff ffe4 	bl	10000442 <set_xip_cache_en>
1000047a:	f7ff ffd9 	bl	10000430 <get_xip_cache_en>
1000047e:	0001      	movs	r1, r0
10000480:	4f5b      	ldr	r7, [pc, #364]	; (100005f0 <main+0x194>)
10000482:	0038      	movs	r0, r7
10000484:	f003 fe7e 	bl	10004184 <__wrap_printf>
10000488:	485a      	ldr	r0, [pc, #360]	; (100005f4 <main+0x198>)
1000048a:	f003 fe49 	bl	10004120 <__wrap_puts>
1000048e:	4c5a      	ldr	r4, [pc, #360]	; (100005f8 <main+0x19c>)
10000490:	6aa6      	ldr	r6, [r4, #40]	; 0x28
10000492:	6aa3      	ldr	r3, [r4, #40]	; 0x28
10000494:	469a      	mov	sl, r3
10000496:	4d59      	ldr	r5, [pc, #356]	; (100005fc <main+0x1a0>)
10000498:	0028      	movs	r0, r5
1000049a:	f7ff ff37 	bl	1000030c <single_precision>
1000049e:	6aa3      	ldr	r3, [r4, #40]	; 0x28
100004a0:	4699      	mov	r9, r3
100004a2:	6aa3      	ldr	r3, [r4, #40]	; 0x28
100004a4:	4698      	mov	r8, r3
100004a6:	0028      	movs	r0, r5
100004a8:	f7ff ff74 	bl	10000394 <double_precision>
100004ac:	6aa3      	ldr	r3, [r4, #40]	; 0x28
100004ae:	6aa2      	ldr	r2, [r4, #40]	; 0x28
100004b0:	1b96      	subs	r6, r2, r6
100004b2:	464a      	mov	r2, r9
100004b4:	4651      	mov	r1, sl
100004b6:	1a51      	subs	r1, r2, r1
100004b8:	4642      	mov	r2, r8
100004ba:	1a9b      	subs	r3, r3, r2
100004bc:	4698      	mov	r8, r3
100004be:	4b50      	ldr	r3, [pc, #320]	; (10000600 <main+0x1a4>)
100004c0:	469b      	mov	fp, r3
100004c2:	0018      	movs	r0, r3
100004c4:	f003 fe5e 	bl	10004184 <__wrap_printf>
100004c8:	4641      	mov	r1, r8
100004ca:	484e      	ldr	r0, [pc, #312]	; (10000604 <main+0x1a8>)
100004cc:	f003 fe5a 	bl	10004184 <__wrap_printf>
100004d0:	0031      	movs	r1, r6
100004d2:	484d      	ldr	r0, [pc, #308]	; (10000608 <main+0x1ac>)
100004d4:	f003 fe56 	bl	10004184 <__wrap_printf>
100004d8:	484c      	ldr	r0, [pc, #304]	; (1000060c <main+0x1b0>)
100004da:	f003 ff8b 	bl	100043f4 <multicore_launch_core1>
100004de:	6aa6      	ldr	r6, [r4, #40]	; 0x28
100004e0:	6aa3      	ldr	r3, [r4, #40]	; 0x28
100004e2:	469a      	mov	sl, r3
100004e4:	484a      	ldr	r0, [pc, #296]	; (10000610 <main+0x1b4>)
100004e6:	f003 fefc 	bl	100042e2 <multicore_fifo_push_blocking>
100004ea:	0028      	movs	r0, r5
100004ec:	f003 fef9 	bl	100042e2 <multicore_fifo_push_blocking>
100004f0:	6aa3      	ldr	r3, [r4, #40]	; 0x28
100004f2:	4698      	mov	r8, r3
100004f4:	0028      	movs	r0, r5
100004f6:	f7ff ff4d 	bl	10000394 <double_precision>
100004fa:	6aa3      	ldr	r3, [r4, #40]	; 0x28
100004fc:	4699      	mov	r9, r3
100004fe:	f003 fefa 	bl	100042f6 <multicore_fifo_pop_blocking>
10000502:	6aa1      	ldr	r1, [r4, #40]	; 0x28
10000504:	6aa3      	ldr	r3, [r4, #40]	; 0x28
10000506:	4652      	mov	r2, sl
10000508:	1a89      	subs	r1, r1, r2
1000050a:	464a      	mov	r2, r9
1000050c:	4640      	mov	r0, r8
1000050e:	1a12      	subs	r2, r2, r0
10000510:	4690      	mov	r8, r2
10000512:	1b9e      	subs	r6, r3, r6
10000514:	4b3f      	ldr	r3, [pc, #252]	; (10000614 <main+0x1b8>)
10000516:	469a      	mov	sl, r3
10000518:	0018      	movs	r0, r3
1000051a:	f003 fe33 	bl	10004184 <__wrap_printf>
1000051e:	4b3e      	ldr	r3, [pc, #248]	; (10000618 <main+0x1bc>)
10000520:	4699      	mov	r9, r3
10000522:	4641      	mov	r1, r8
10000524:	0018      	movs	r0, r3
10000526:	f003 fe2d 	bl	10004184 <__wrap_printf>
1000052a:	4b3c      	ldr	r3, [pc, #240]	; (1000061c <main+0x1c0>)
1000052c:	4698      	mov	r8, r3
1000052e:	0031      	movs	r1, r6
10000530:	0018      	movs	r0, r3
10000532:	f003 fe27 	bl	10004184 <__wrap_printf>
10000536:	2001      	movs	r0, #1
10000538:	f7ff ff83 	bl	10000442 <set_xip_cache_en>
1000053c:	f7ff ff78 	bl	10000430 <get_xip_cache_en>
10000540:	0001      	movs	r1, r0
10000542:	0038      	movs	r0, r7
10000544:	f003 fe1e 	bl	10004184 <__wrap_printf>
10000548:	4835      	ldr	r0, [pc, #212]	; (10000620 <main+0x1c4>)
1000054a:	f003 fde9 	bl	10004120 <__wrap_puts>
1000054e:	6aa6      	ldr	r6, [r4, #40]	; 0x28
10000550:	6aa3      	ldr	r3, [r4, #40]	; 0x28
10000552:	9301      	str	r3, [sp, #4]
10000554:	0028      	movs	r0, r5
10000556:	f7ff fed9 	bl	1000030c <single_precision>
1000055a:	6aa1      	ldr	r1, [r4, #40]	; 0x28
1000055c:	9100      	str	r1, [sp, #0]
1000055e:	6aa7      	ldr	r7, [r4, #40]	; 0x28
10000560:	0028      	movs	r0, r5
10000562:	f7ff ff17 	bl	10000394 <double_precision>
10000566:	6aa3      	ldr	r3, [r4, #40]	; 0x28
10000568:	6aa2      	ldr	r2, [r4, #40]	; 0x28
1000056a:	1b96      	subs	r6, r2, r6
1000056c:	9900      	ldr	r1, [sp, #0]
1000056e:	9a01      	ldr	r2, [sp, #4]
10000570:	1a89      	subs	r1, r1, r2
10000572:	1bdf      	subs	r7, r3, r7
10000574:	4658      	mov	r0, fp
10000576:	f003 fe05 	bl	10004184 <__wrap_printf>
1000057a:	0039      	movs	r1, r7
1000057c:	4821      	ldr	r0, [pc, #132]	; (10000604 <main+0x1a8>)
1000057e:	f003 fe01 	bl	10004184 <__wrap_printf>
10000582:	0031      	movs	r1, r6
10000584:	4820      	ldr	r0, [pc, #128]	; (10000608 <main+0x1ac>)
10000586:	f003 fdfd 	bl	10004184 <__wrap_printf>
1000058a:	f7ff ff5f 	bl	1000044c <flush_xip_cache_en>
1000058e:	f003 febd 	bl	1000430c <multicore_reset_core1>
10000592:	481e      	ldr	r0, [pc, #120]	; (1000060c <main+0x1b0>)
10000594:	f003 ff2e 	bl	100043f4 <multicore_launch_core1>
10000598:	6aa6      	ldr	r6, [r4, #40]	; 0x28
1000059a:	6aa7      	ldr	r7, [r4, #40]	; 0x28
1000059c:	481c      	ldr	r0, [pc, #112]	; (10000610 <main+0x1b4>)
1000059e:	f003 fea0 	bl	100042e2 <multicore_fifo_push_blocking>
100005a2:	0028      	movs	r0, r5
100005a4:	f003 fe9d 	bl	100042e2 <multicore_fifo_push_blocking>
100005a8:	6aa3      	ldr	r3, [r4, #40]	; 0x28
100005aa:	469b      	mov	fp, r3
100005ac:	0028      	movs	r0, r5
100005ae:	f7ff fef1 	bl	10000394 <double_precision>
100005b2:	6aa5      	ldr	r5, [r4, #40]	; 0x28
100005b4:	f003 fe9f 	bl	100042f6 <multicore_fifo_pop_blocking>
100005b8:	6aa1      	ldr	r1, [r4, #40]	; 0x28
100005ba:	6aa4      	ldr	r4, [r4, #40]	; 0x28
100005bc:	1bc9      	subs	r1, r1, r7
100005be:	465b      	mov	r3, fp
100005c0:	1aed      	subs	r5, r5, r3
100005c2:	1ba4      	subs	r4, r4, r6
100005c4:	4650      	mov	r0, sl
100005c6:	f003 fddd 	bl	10004184 <__wrap_printf>
100005ca:	0029      	movs	r1, r5
100005cc:	4648      	mov	r0, r9
100005ce:	f003 fdd9 	bl	10004184 <__wrap_printf>
100005d2:	0021      	movs	r1, r4
100005d4:	4640      	mov	r0, r8
100005d6:	f003 fdd5 	bl	10004184 <__wrap_printf>
100005da:	2000      	movs	r0, #0
100005dc:	b003      	add	sp, #12
100005de:	bcf0      	pop	{r4, r5, r6, r7}
100005e0:	46bb      	mov	fp, r7
100005e2:	46b2      	mov	sl, r6
100005e4:	46a9      	mov	r9, r5
100005e6:	46a0      	mov	r8, r4
100005e8:	bdf0      	pop	{r4, r5, r6, r7, pc}
100005ea:	46c0      	nop			; (mov r8, r8)
100005ec:	100044c8 	.word	0x100044c8
100005f0:	100044ec 	.word	0x100044ec
100005f4:	100044fc 	.word	0x100044fc
100005f8:	40054000 	.word	0x40054000
100005fc:	000186a0 	.word	0x000186a0
10000600:	10004510 	.word	0x10004510
10000604:	10004548 	.word	0x10004548
10000608:	10004580 	.word	0x10004580
1000060c:	1000037f 	.word	0x1000037f
10000610:	1000030d 	.word	0x1000030d
10000614:	100045b0 	.word	0x100045b0
10000618:	100045e8 	.word	0x100045e8
1000061c:	10004620 	.word	0x10004620
10000620:	10004640 	.word	0x10004640

10000624 <gpio_set_function>:
10000624:	b510      	push	{r4, lr}
10000626:	0083      	lsls	r3, r0, #2
10000628:	4a08      	ldr	r2, [pc, #32]	; (1000064c <gpio_set_function+0x28>)
1000062a:	4694      	mov	ip, r2
1000062c:	4463      	add	r3, ip
1000062e:	681c      	ldr	r4, [r3, #0]
10000630:	2240      	movs	r2, #64	; 0x40
10000632:	4062      	eors	r2, r4
10000634:	24c0      	movs	r4, #192	; 0xc0
10000636:	4014      	ands	r4, r2
10000638:	2280      	movs	r2, #128	; 0x80
1000063a:	0152      	lsls	r2, r2, #5
1000063c:	4313      	orrs	r3, r2
1000063e:	601c      	str	r4, [r3, #0]
10000640:	00c0      	lsls	r0, r0, #3
10000642:	4b03      	ldr	r3, [pc, #12]	; (10000650 <gpio_set_function+0x2c>)
10000644:	469c      	mov	ip, r3
10000646:	4460      	add	r0, ip
10000648:	6041      	str	r1, [r0, #4]
1000064a:	bd10      	pop	{r4, pc}
1000064c:	4001c004 	.word	0x4001c004
10000650:	40014000 	.word	0x40014000

10000654 <hw_claim_lock>:
10000654:	f3ef 8010 	mrs	r0, PRIMASK
10000658:	b672      	cpsid	i
1000065a:	4b03      	ldr	r3, [pc, #12]	; (10000668 <hw_claim_lock+0x14>)
1000065c:	681b      	ldr	r3, [r3, #0]
1000065e:	2b00      	cmp	r3, #0
10000660:	d0fb      	beq.n	1000065a <hw_claim_lock+0x6>
10000662:	f3bf 8f5f 	dmb	sy
10000666:	4770      	bx	lr
10000668:	d000012c 	.word	0xd000012c

1000066c <hw_claim_unlock>:
1000066c:	f3bf 8f5f 	dmb	sy
10000670:	4b02      	ldr	r3, [pc, #8]	; (1000067c <hw_claim_unlock+0x10>)
10000672:	2200      	movs	r2, #0
10000674:	601a      	str	r2, [r3, #0]
10000676:	f380 8810 	msr	PRIMASK, r0
1000067a:	4770      	bx	lr
1000067c:	d000012c 	.word	0xd000012c

10000680 <hw_claim_or_assert>:
10000680:	b5f8      	push	{r3, r4, r5, r6, r7, lr}
10000682:	0006      	movs	r6, r0
10000684:	000c      	movs	r4, r1
10000686:	0015      	movs	r5, r2
10000688:	f7ff ffe4 	bl	10000654 <hw_claim_lock>
1000068c:	08e3      	lsrs	r3, r4, #3
1000068e:	18f7      	adds	r7, r6, r3
10000690:	5cf1      	ldrb	r1, [r6, r3]
10000692:	2207      	movs	r2, #7
10000694:	4022      	ands	r2, r4
10000696:	2301      	movs	r3, #1
10000698:	4093      	lsls	r3, r2
1000069a:	420b      	tst	r3, r1
1000069c:	d105      	bne.n	100006aa <hw_claim_or_assert+0x2a>
1000069e:	b2db      	uxtb	r3, r3
100006a0:	430b      	orrs	r3, r1
100006a2:	703b      	strb	r3, [r7, #0]
100006a4:	f7ff ffe2 	bl	1000066c <hw_claim_unlock>
100006a8:	bdf8      	pop	{r3, r4, r5, r6, r7, pc}
100006aa:	0021      	movs	r1, r4
100006ac:	0028      	movs	r0, r5
100006ae:	f000 fff3 	bl	10001698 <panic>
	...

100006b4 <running_on_fpga>:
100006b4:	4b03      	ldr	r3, [pc, #12]	; (100006c4 <running_on_fpga+0x10>)
100006b6:	681b      	ldr	r3, [r3, #0]
100006b8:	2002      	movs	r0, #2
100006ba:	4018      	ands	r0, r3
100006bc:	1e43      	subs	r3, r0, #1
100006be:	4198      	sbcs	r0, r3
100006c0:	b2c0      	uxtb	r0, r0
100006c2:	4770      	bx	lr
100006c4:	4006c000 	.word	0x4006c000

100006c8 <spin_locks_reset>:
100006c8:	2300      	movs	r3, #0
100006ca:	e007      	b.n	100006dc <spin_locks_reset+0x14>
100006cc:	4a05      	ldr	r2, [pc, #20]	; (100006e4 <spin_locks_reset+0x1c>)
100006ce:	189a      	adds	r2, r3, r2
100006d0:	0092      	lsls	r2, r2, #2
100006d2:	f3bf 8f5f 	dmb	sy
100006d6:	2100      	movs	r1, #0
100006d8:	6011      	str	r1, [r2, #0]
100006da:	3301      	adds	r3, #1
100006dc:	2b1f      	cmp	r3, #31
100006de:	d9f5      	bls.n	100006cc <spin_locks_reset+0x4>
100006e0:	4770      	bx	lr
100006e2:	46c0      	nop			; (mov r8, r8)
100006e4:	34000040 	.word	0x34000040

100006e8 <next_striped_spin_lock_num>:
100006e8:	4a05      	ldr	r2, [pc, #20]	; (10000700 <next_striped_spin_lock_num+0x18>)
100006ea:	7810      	ldrb	r0, [r2, #0]
100006ec:	1c43      	adds	r3, r0, #1
100006ee:	b2db      	uxtb	r3, r3
100006f0:	7013      	strb	r3, [r2, #0]
100006f2:	2b17      	cmp	r3, #23
100006f4:	d902      	bls.n	100006fc <next_striped_spin_lock_num+0x14>
100006f6:	0013      	movs	r3, r2
100006f8:	2210      	movs	r2, #16
100006fa:	701a      	strb	r2, [r3, #0]
100006fc:	4770      	bx	lr
100006fe:	46c0      	nop			; (mov r8, r8)
10000700:	200001b0 	.word	0x200001b0

10000704 <uart_set_baudrate>:
10000704:	b570      	push	{r4, r5, r6, lr}
10000706:	0004      	movs	r4, r0
10000708:	000d      	movs	r5, r1
1000070a:	2006      	movs	r0, #6
1000070c:	f001 f8de 	bl	100018cc <clock_get_hz>
10000710:	00c0      	lsls	r0, r0, #3
10000712:	0029      	movs	r1, r5
10000714:	f002 fc84 	bl	10003020 <__wrap___aeabi_uidiv>
10000718:	09c6      	lsrs	r6, r0, #7
1000071a:	d008      	beq.n	1000072e <uart_set_baudrate+0x2a>
1000071c:	4b0e      	ldr	r3, [pc, #56]	; (10000758 <uart_set_baudrate+0x54>)
1000071e:	429e      	cmp	r6, r3
10000720:	d817      	bhi.n	10000752 <uart_set_baudrate+0x4e>
10000722:	237f      	movs	r3, #127	; 0x7f
10000724:	4018      	ands	r0, r3
10000726:	3001      	adds	r0, #1
10000728:	0035      	movs	r5, r6
1000072a:	0846      	lsrs	r6, r0, #1
1000072c:	e000      	b.n	10000730 <uart_set_baudrate+0x2c>
1000072e:	2501      	movs	r5, #1
10000730:	6265      	str	r5, [r4, #36]	; 0x24
10000732:	62a6      	str	r6, [r4, #40]	; 0x28
10000734:	342c      	adds	r4, #44	; 0x2c
10000736:	2080      	movs	r0, #128	; 0x80
10000738:	0180      	lsls	r0, r0, #6
1000073a:	4304      	orrs	r4, r0
1000073c:	2300      	movs	r3, #0
1000073e:	6023      	str	r3, [r4, #0]
10000740:	2006      	movs	r0, #6
10000742:	f001 f8c3 	bl	100018cc <clock_get_hz>
10000746:	0080      	lsls	r0, r0, #2
10000748:	01a9      	lsls	r1, r5, #6
1000074a:	1989      	adds	r1, r1, r6
1000074c:	f002 fc68 	bl	10003020 <__wrap___aeabi_uidiv>
10000750:	bd70      	pop	{r4, r5, r6, pc}
10000752:	2600      	movs	r6, #0
10000754:	4d01      	ldr	r5, [pc, #4]	; (1000075c <uart_set_baudrate+0x58>)
10000756:	e7eb      	b.n	10000730 <uart_set_baudrate+0x2c>
10000758:	0000fffe 	.word	0x0000fffe
1000075c:	0000ffff 	.word	0x0000ffff

10000760 <uart_set_translate_crlf>:
10000760:	2900      	cmp	r1, #0
10000762:	d009      	beq.n	10000778 <uart_set_translate_crlf+0x18>
10000764:	220a      	movs	r2, #10
10000766:	4b06      	ldr	r3, [pc, #24]	; (10000780 <uart_set_translate_crlf+0x20>)
10000768:	469c      	mov	ip, r3
1000076a:	4460      	add	r0, ip
1000076c:	4243      	negs	r3, r0
1000076e:	4158      	adcs	r0, r3
10000770:	0040      	lsls	r0, r0, #1
10000772:	4b04      	ldr	r3, [pc, #16]	; (10000784 <uart_set_translate_crlf+0x24>)
10000774:	52c2      	strh	r2, [r0, r3]
10000776:	4770      	bx	lr
10000778:	2280      	movs	r2, #128	; 0x80
1000077a:	0052      	lsls	r2, r2, #1
1000077c:	e7f3      	b.n	10000766 <uart_set_translate_crlf+0x6>
1000077e:	46c0      	nop			; (mov r8, r8)
10000780:	bffc8000 	.word	0xbffc8000
10000784:	2000064c 	.word	0x2000064c

10000788 <uart_init>:
10000788:	b570      	push	{r4, r5, r6, lr}
1000078a:	0005      	movs	r5, r0
1000078c:	000c      	movs	r4, r1
1000078e:	2006      	movs	r0, #6
10000790:	f001 f89c 	bl	100018cc <clock_get_hz>
10000794:	2800      	cmp	r0, #0
10000796:	d029      	beq.n	100007ec <uart_init+0x64>
10000798:	4b16      	ldr	r3, [pc, #88]	; (100007f4 <uart_init+0x6c>)
1000079a:	429d      	cmp	r5, r3
1000079c:	d027      	beq.n	100007ee <uart_init+0x66>
1000079e:	2280      	movs	r2, #128	; 0x80
100007a0:	03d2      	lsls	r2, r2, #15
100007a2:	4b15      	ldr	r3, [pc, #84]	; (100007f8 <uart_init+0x70>)
100007a4:	601a      	str	r2, [r3, #0]
100007a6:	4b15      	ldr	r3, [pc, #84]	; (100007fc <uart_init+0x74>)
100007a8:	601a      	str	r2, [r3, #0]
100007aa:	4b15      	ldr	r3, [pc, #84]	; (10000800 <uart_init+0x78>)
100007ac:	689b      	ldr	r3, [r3, #8]
100007ae:	0011      	movs	r1, r2
100007b0:	4399      	bics	r1, r3
100007b2:	d1fa      	bne.n	100007aa <uart_init+0x22>
100007b4:	2100      	movs	r1, #0
100007b6:	0028      	movs	r0, r5
100007b8:	f7ff ffd2 	bl	10000760 <uart_set_translate_crlf>
100007bc:	0021      	movs	r1, r4
100007be:	0028      	movs	r0, r5
100007c0:	f7ff ffa0 	bl	10000704 <uart_set_baudrate>
100007c4:	002c      	movs	r4, r5
100007c6:	342c      	adds	r4, #44	; 0x2c
100007c8:	6ae9      	ldr	r1, [r5, #44]	; 0x2c
100007ca:	2260      	movs	r2, #96	; 0x60
100007cc:	404a      	eors	r2, r1
100007ce:	216e      	movs	r1, #110	; 0x6e
100007d0:	4011      	ands	r1, r2
100007d2:	2280      	movs	r2, #128	; 0x80
100007d4:	0152      	lsls	r2, r2, #5
100007d6:	4322      	orrs	r2, r4
100007d8:	6011      	str	r1, [r2, #0]
100007da:	4b0a      	ldr	r3, [pc, #40]	; (10000804 <uart_init+0x7c>)
100007dc:	632b      	str	r3, [r5, #48]	; 0x30
100007de:	2380      	movs	r3, #128	; 0x80
100007e0:	019b      	lsls	r3, r3, #6
100007e2:	4323      	orrs	r3, r4
100007e4:	2210      	movs	r2, #16
100007e6:	601a      	str	r2, [r3, #0]
100007e8:	2303      	movs	r3, #3
100007ea:	64ab      	str	r3, [r5, #72]	; 0x48
100007ec:	bd70      	pop	{r4, r5, r6, pc}
100007ee:	2280      	movs	r2, #128	; 0x80
100007f0:	0412      	lsls	r2, r2, #16
100007f2:	e7d6      	b.n	100007a2 <uart_init+0x1a>
100007f4:	40038000 	.word	0x40038000
100007f8:	4000e000 	.word	0x4000e000
100007fc:	4000f000 	.word	0x4000f000
10000800:	4000c000 	.word	0x4000c000
10000804:	00000301 	.word	0x00000301

10000808 <alarm_pool_post_alloc_init>:
10000808:	b570      	push	{r4, r5, r6, lr}
1000080a:	0005      	movs	r5, r0
1000080c:	000c      	movs	r4, r1
1000080e:	0008      	movs	r0, r1
10000810:	f000 fb7a 	bl	10000f08 <hardware_alarm_claim>
10000814:	0020      	movs	r0, r4
10000816:	f000 fc4b 	bl	100010b0 <hardware_alarm_cancel>
1000081a:	4908      	ldr	r1, [pc, #32]	; (1000083c <alarm_pool_post_alloc_init+0x34>)
1000081c:	0020      	movs	r0, r4
1000081e:	f000 fb8b 	bl	10000f38 <hardware_alarm_set_callback>
10000822:	f7ff ff61 	bl	100006e8 <next_striped_spin_lock_num>
10000826:	4b06      	ldr	r3, [pc, #24]	; (10000840 <alarm_pool_post_alloc_init+0x38>)
10000828:	469c      	mov	ip, r3
1000082a:	4460      	add	r0, ip
1000082c:	0080      	lsls	r0, r0, #2
1000082e:	6068      	str	r0, [r5, #4]
10000830:	752c      	strb	r4, [r5, #20]
10000832:	00a4      	lsls	r4, r4, #2
10000834:	4b03      	ldr	r3, [pc, #12]	; (10000844 <alarm_pool_post_alloc_init+0x3c>)
10000836:	50e5      	str	r5, [r4, r3]
10000838:	bd70      	pop	{r4, r5, r6, pc}
1000083a:	46c0      	nop			; (mov r8, r8)
1000083c:	10000b1d 	.word	0x10000b1d
10000840:	34000040 	.word	0x34000040
10000844:	20000424 	.word	0x20000424

10000848 <timer_pool_entry_comparator>:
10000848:	b510      	push	{r4, lr}
1000084a:	2900      	cmp	r1, #0
1000084c:	d022      	beq.n	10000894 <timer_pool_entry_comparator+0x4c>
1000084e:	6803      	ldr	r3, [r0, #0]
10000850:	7b1b      	ldrb	r3, [r3, #12]
10000852:	4299      	cmp	r1, r3
10000854:	d81e      	bhi.n	10000894 <timer_pool_entry_comparator+0x4c>
10000856:	4b17      	ldr	r3, [pc, #92]	; (100008b4 <timer_pool_entry_comparator+0x6c>)
10000858:	469c      	mov	ip, r3
1000085a:	4461      	add	r1, ip
1000085c:	0109      	lsls	r1, r1, #4
1000085e:	6883      	ldr	r3, [r0, #8]
10000860:	469c      	mov	ip, r3
10000862:	4461      	add	r1, ip
10000864:	680c      	ldr	r4, [r1, #0]
10000866:	6849      	ldr	r1, [r1, #4]
10000868:	2a00      	cmp	r2, #0
1000086a:	d019      	beq.n	100008a0 <timer_pool_entry_comparator+0x58>
1000086c:	6803      	ldr	r3, [r0, #0]
1000086e:	7b1b      	ldrb	r3, [r3, #12]
10000870:	429a      	cmp	r2, r3
10000872:	d815      	bhi.n	100008a0 <timer_pool_entry_comparator+0x58>
10000874:	6883      	ldr	r3, [r0, #8]
10000876:	480f      	ldr	r0, [pc, #60]	; (100008b4 <timer_pool_entry_comparator+0x6c>)
10000878:	4684      	mov	ip, r0
1000087a:	4462      	add	r2, ip
1000087c:	0112      	lsls	r2, r2, #4
1000087e:	189a      	adds	r2, r3, r2
10000880:	6810      	ldr	r0, [r2, #0]
10000882:	6853      	ldr	r3, [r2, #4]
10000884:	0002      	movs	r2, r0
10000886:	2001      	movs	r0, #1
10000888:	428b      	cmp	r3, r1
1000088a:	d801      	bhi.n	10000890 <timer_pool_entry_comparator+0x48>
1000088c:	d00e      	beq.n	100008ac <timer_pool_entry_comparator+0x64>
1000088e:	2000      	movs	r0, #0
10000890:	b2c0      	uxtb	r0, r0
10000892:	bd10      	pop	{r4, pc}
10000894:	4b08      	ldr	r3, [pc, #32]	; (100008b8 <timer_pool_entry_comparator+0x70>)
10000896:	4a09      	ldr	r2, [pc, #36]	; (100008bc <timer_pool_entry_comparator+0x74>)
10000898:	213b      	movs	r1, #59	; 0x3b
1000089a:	4809      	ldr	r0, [pc, #36]	; (100008c0 <timer_pool_entry_comparator+0x78>)
1000089c:	f000 fe62 	bl	10001564 <__assert_func>
100008a0:	4b05      	ldr	r3, [pc, #20]	; (100008b8 <timer_pool_entry_comparator+0x70>)
100008a2:	4a06      	ldr	r2, [pc, #24]	; (100008bc <timer_pool_entry_comparator+0x74>)
100008a4:	213b      	movs	r1, #59	; 0x3b
100008a6:	4806      	ldr	r0, [pc, #24]	; (100008c0 <timer_pool_entry_comparator+0x78>)
100008a8:	f000 fe5c 	bl	10001564 <__assert_func>
100008ac:	42a2      	cmp	r2, r4
100008ae:	d8ef      	bhi.n	10000890 <timer_pool_entry_comparator+0x48>
100008b0:	e7ed      	b.n	1000088e <timer_pool_entry_comparator+0x46>
100008b2:	46c0      	nop			; (mov r8, r8)
100008b4:	0fffffff 	.word	0x0fffffff
100008b8:	1000469c 	.word	0x1000469c
100008bc:	100048ac 	.word	0x100048ac
100008c0:	10004664 	.word	0x10004664

100008c4 <ph_add_child_node>:
100008c4:	b510      	push	{r4, lr}
100008c6:	2900      	cmp	r1, #0
100008c8:	d01e      	beq.n	10000908 <ph_add_child_node+0x44>
100008ca:	7b03      	ldrb	r3, [r0, #12]
100008cc:	4299      	cmp	r1, r3
100008ce:	d81b      	bhi.n	10000908 <ph_add_child_node+0x44>
100008d0:	004b      	lsls	r3, r1, #1
100008d2:	185b      	adds	r3, r3, r1
100008d4:	3b03      	subs	r3, #3
100008d6:	6804      	ldr	r4, [r0, #0]
100008d8:	46a4      	mov	ip, r4
100008da:	4463      	add	r3, ip
100008dc:	2900      	cmp	r1, #0
100008de:	d019      	beq.n	10000914 <ph_add_child_node+0x50>
100008e0:	2a00      	cmp	r2, #0
100008e2:	d01d      	beq.n	10000920 <ph_add_child_node+0x5c>
100008e4:	4291      	cmp	r1, r2
100008e6:	d021      	beq.n	1000092c <ph_add_child_node+0x68>
100008e8:	2a00      	cmp	r2, #0
100008ea:	d025      	beq.n	10000938 <ph_add_child_node+0x74>
100008ec:	7b04      	ldrb	r4, [r0, #12]
100008ee:	42a2      	cmp	r2, r4
100008f0:	d822      	bhi.n	10000938 <ph_add_child_node+0x74>
100008f2:	6804      	ldr	r4, [r0, #0]
100008f4:	0050      	lsls	r0, r2, #1
100008f6:	1880      	adds	r0, r0, r2
100008f8:	3803      	subs	r0, #3
100008fa:	1820      	adds	r0, r4, r0
100008fc:	7081      	strb	r1, [r0, #2]
100008fe:	7819      	ldrb	r1, [r3, #0]
10000900:	2900      	cmp	r1, #0
10000902:	d11f      	bne.n	10000944 <ph_add_child_node+0x80>
10000904:	701a      	strb	r2, [r3, #0]
10000906:	bd10      	pop	{r4, pc}
10000908:	4b10      	ldr	r3, [pc, #64]	; (1000094c <ph_add_child_node+0x88>)
1000090a:	4a11      	ldr	r2, [pc, #68]	; (10000950 <ph_add_child_node+0x8c>)
1000090c:	2169      	movs	r1, #105	; 0x69
1000090e:	4811      	ldr	r0, [pc, #68]	; (10000954 <ph_add_child_node+0x90>)
10000910:	f000 fe28 	bl	10001564 <__assert_func>
10000914:	4b10      	ldr	r3, [pc, #64]	; (10000958 <ph_add_child_node+0x94>)
10000916:	4a11      	ldr	r2, [pc, #68]	; (1000095c <ph_add_child_node+0x98>)
10000918:	3170      	adds	r1, #112	; 0x70
1000091a:	480e      	ldr	r0, [pc, #56]	; (10000954 <ph_add_child_node+0x90>)
1000091c:	f000 fe22 	bl	10001564 <__assert_func>
10000920:	4b0f      	ldr	r3, [pc, #60]	; (10000960 <ph_add_child_node+0x9c>)
10000922:	4a0e      	ldr	r2, [pc, #56]	; (1000095c <ph_add_child_node+0x98>)
10000924:	2171      	movs	r1, #113	; 0x71
10000926:	480b      	ldr	r0, [pc, #44]	; (10000954 <ph_add_child_node+0x90>)
10000928:	f000 fe1c 	bl	10001564 <__assert_func>
1000092c:	4b0d      	ldr	r3, [pc, #52]	; (10000964 <ph_add_child_node+0xa0>)
1000092e:	4a0b      	ldr	r2, [pc, #44]	; (1000095c <ph_add_child_node+0x98>)
10000930:	2172      	movs	r1, #114	; 0x72
10000932:	4808      	ldr	r0, [pc, #32]	; (10000954 <ph_add_child_node+0x90>)
10000934:	f000 fe16 	bl	10001564 <__assert_func>
10000938:	4b04      	ldr	r3, [pc, #16]	; (1000094c <ph_add_child_node+0x88>)
1000093a:	4a05      	ldr	r2, [pc, #20]	; (10000950 <ph_add_child_node+0x8c>)
1000093c:	2169      	movs	r1, #105	; 0x69
1000093e:	4805      	ldr	r0, [pc, #20]	; (10000954 <ph_add_child_node+0x90>)
10000940:	f000 fe10 	bl	10001564 <__assert_func>
10000944:	7041      	strb	r1, [r0, #1]
10000946:	701a      	strb	r2, [r3, #0]
10000948:	e7dd      	b.n	10000906 <ph_add_child_node+0x42>
1000094a:	46c0      	nop			; (mov r8, r8)
1000094c:	100046d0 	.word	0x100046d0
10000950:	10004900 	.word	0x10004900
10000954:	100046ec 	.word	0x100046ec
10000958:	10004738 	.word	0x10004738
1000095c:	100048dc 	.word	0x100048dc
10000960:	10004744 	.word	0x10004744
10000964:	10004750 	.word	0x10004750

10000968 <ph_merge_nodes>:
10000968:	b570      	push	{r4, r5, r6, lr}
1000096a:	0006      	movs	r6, r0
1000096c:	000d      	movs	r5, r1
1000096e:	0014      	movs	r4, r2
10000970:	2900      	cmp	r1, #0
10000972:	d014      	beq.n	1000099e <ph_merge_nodes+0x36>
10000974:	2a00      	cmp	r2, #0
10000976:	d014      	beq.n	100009a2 <ph_merge_nodes+0x3a>
10000978:	6880      	ldr	r0, [r0, #8]
1000097a:	6873      	ldr	r3, [r6, #4]
1000097c:	4798      	blx	r3
1000097e:	2800      	cmp	r0, #0
10000980:	d006      	beq.n	10000990 <ph_merge_nodes+0x28>
10000982:	0022      	movs	r2, r4
10000984:	0029      	movs	r1, r5
10000986:	0030      	movs	r0, r6
10000988:	f7ff ff9c 	bl	100008c4 <ph_add_child_node>
1000098c:	0028      	movs	r0, r5
1000098e:	e007      	b.n	100009a0 <ph_merge_nodes+0x38>
10000990:	002a      	movs	r2, r5
10000992:	0021      	movs	r1, r4
10000994:	0030      	movs	r0, r6
10000996:	f7ff ff95 	bl	100008c4 <ph_add_child_node>
1000099a:	0020      	movs	r0, r4
1000099c:	e000      	b.n	100009a0 <ph_merge_nodes+0x38>
1000099e:	0010      	movs	r0, r2
100009a0:	bd70      	pop	{r4, r5, r6, pc}
100009a2:	0008      	movs	r0, r1
100009a4:	e7fc      	b.n	100009a0 <ph_merge_nodes+0x38>
	...

100009a8 <add_alarm_under_lock>:
100009a8:	b5f0      	push	{r4, r5, r6, r7, lr}
100009aa:	b083      	sub	sp, #12
100009ac:	0005      	movs	r5, r0
100009ae:	9200      	str	r2, [sp, #0]
100009b0:	9301      	str	r3, [sp, #4]
100009b2:	ab0a      	add	r3, sp, #40	; 0x28
100009b4:	781c      	ldrb	r4, [r3, #0]
100009b6:	ab0b      	add	r3, sp, #44	; 0x2c
100009b8:	781f      	ldrb	r7, [r3, #0]
100009ba:	2c00      	cmp	r4, #0
100009bc:	d026      	beq.n	10000a0c <add_alarm_under_lock+0x64>
100009be:	6803      	ldr	r3, [r0, #0]
100009c0:	7b5a      	ldrb	r2, [r3, #13]
100009c2:	4294      	cmp	r4, r2
100009c4:	d107      	bne.n	100009d6 <add_alarm_under_lock+0x2e>
100009c6:	2301      	movs	r3, #1
100009c8:	2b00      	cmp	r3, #0
100009ca:	d119      	bne.n	10000a00 <add_alarm_under_lock+0x58>
100009cc:	2c00      	cmp	r4, #0
100009ce:	d13b      	bne.n	10000a48 <add_alarm_under_lock+0xa0>
100009d0:	0020      	movs	r0, r4
100009d2:	b003      	add	sp, #12
100009d4:	bdf0      	pop	{r4, r5, r6, r7, pc}
100009d6:	2c00      	cmp	r4, #0
100009d8:	d00c      	beq.n	100009f4 <add_alarm_under_lock+0x4c>
100009da:	7b1a      	ldrb	r2, [r3, #12]
100009dc:	4294      	cmp	r4, r2
100009de:	d809      	bhi.n	100009f4 <add_alarm_under_lock+0x4c>
100009e0:	681a      	ldr	r2, [r3, #0]
100009e2:	0063      	lsls	r3, r4, #1
100009e4:	191b      	adds	r3, r3, r4
100009e6:	3b03      	subs	r3, #3
100009e8:	18d3      	adds	r3, r2, r3
100009ea:	789b      	ldrb	r3, [r3, #2]
100009ec:	2b00      	cmp	r3, #0
100009ee:	d0eb      	beq.n	100009c8 <add_alarm_under_lock+0x20>
100009f0:	2301      	movs	r3, #1
100009f2:	e7e9      	b.n	100009c8 <add_alarm_under_lock+0x20>
100009f4:	4b3e      	ldr	r3, [pc, #248]	; (10000af0 <add_alarm_under_lock+0x148>)
100009f6:	4a3f      	ldr	r2, [pc, #252]	; (10000af4 <add_alarm_under_lock+0x14c>)
100009f8:	2169      	movs	r1, #105	; 0x69
100009fa:	483f      	ldr	r0, [pc, #252]	; (10000af8 <add_alarm_under_lock+0x150>)
100009fc:	f000 fdb2 	bl	10001564 <__assert_func>
10000a00:	4b3e      	ldr	r3, [pc, #248]	; (10000afc <add_alarm_under_lock+0x154>)
10000a02:	4a3f      	ldr	r2, [pc, #252]	; (10000b00 <add_alarm_under_lock+0x158>)
10000a04:	2165      	movs	r1, #101	; 0x65
10000a06:	483f      	ldr	r0, [pc, #252]	; (10000b04 <add_alarm_under_lock+0x15c>)
10000a08:	f000 fdac 	bl	10001564 <__assert_func>
10000a0c:	6803      	ldr	r3, [r0, #0]
10000a0e:	7b9c      	ldrb	r4, [r3, #14]
10000a10:	2c00      	cmp	r4, #0
10000a12:	d0db      	beq.n	100009cc <add_alarm_under_lock+0x24>
10000a14:	d012      	beq.n	10000a3c <add_alarm_under_lock+0x94>
10000a16:	7b1a      	ldrb	r2, [r3, #12]
10000a18:	4294      	cmp	r4, r2
10000a1a:	d80f      	bhi.n	10000a3c <add_alarm_under_lock+0x94>
10000a1c:	0062      	lsls	r2, r4, #1
10000a1e:	1912      	adds	r2, r2, r4
10000a20:	3a03      	subs	r2, #3
10000a22:	6819      	ldr	r1, [r3, #0]
10000a24:	468c      	mov	ip, r1
10000a26:	4462      	add	r2, ip
10000a28:	7851      	ldrb	r1, [r2, #1]
10000a2a:	7399      	strb	r1, [r3, #14]
10000a2c:	2900      	cmp	r1, #0
10000a2e:	d100      	bne.n	10000a32 <add_alarm_under_lock+0x8a>
10000a30:	73d9      	strb	r1, [r3, #15]
10000a32:	2300      	movs	r3, #0
10000a34:	7093      	strb	r3, [r2, #2]
10000a36:	7053      	strb	r3, [r2, #1]
10000a38:	7013      	strb	r3, [r2, #0]
10000a3a:	e7c7      	b.n	100009cc <add_alarm_under_lock+0x24>
10000a3c:	4b2c      	ldr	r3, [pc, #176]	; (10000af0 <add_alarm_under_lock+0x148>)
10000a3e:	4a2d      	ldr	r2, [pc, #180]	; (10000af4 <add_alarm_under_lock+0x14c>)
10000a40:	2169      	movs	r1, #105	; 0x69
10000a42:	482d      	ldr	r0, [pc, #180]	; (10000af8 <add_alarm_under_lock+0x150>)
10000a44:	f000 fd8e 	bl	10001564 <__assert_func>
10000a48:	2c00      	cmp	r4, #0
10000a4a:	d03a      	beq.n	10000ac2 <add_alarm_under_lock+0x11a>
10000a4c:	682b      	ldr	r3, [r5, #0]
10000a4e:	7b1b      	ldrb	r3, [r3, #12]
10000a50:	429c      	cmp	r4, r3
10000a52:	d836      	bhi.n	10000ac2 <add_alarm_under_lock+0x11a>
10000a54:	4b2c      	ldr	r3, [pc, #176]	; (10000b08 <add_alarm_under_lock+0x160>)
10000a56:	18e3      	adds	r3, r4, r3
10000a58:	011b      	lsls	r3, r3, #4
10000a5a:	68aa      	ldr	r2, [r5, #8]
10000a5c:	4694      	mov	ip, r2
10000a5e:	4463      	add	r3, ip
10000a60:	9a00      	ldr	r2, [sp, #0]
10000a62:	601a      	str	r2, [r3, #0]
10000a64:	9a01      	ldr	r2, [sp, #4]
10000a66:	605a      	str	r2, [r3, #4]
10000a68:	9a08      	ldr	r2, [sp, #32]
10000a6a:	609a      	str	r2, [r3, #8]
10000a6c:	9a09      	ldr	r2, [sp, #36]	; 0x24
10000a6e:	60da      	str	r2, [r3, #12]
10000a70:	682e      	ldr	r6, [r5, #0]
10000a72:	2c00      	cmp	r4, #0
10000a74:	d02b      	beq.n	10000ace <add_alarm_under_lock+0x126>
10000a76:	d030      	beq.n	10000ada <add_alarm_under_lock+0x132>
10000a78:	7b33      	ldrb	r3, [r6, #12]
10000a7a:	429c      	cmp	r4, r3
10000a7c:	d82d      	bhi.n	10000ada <add_alarm_under_lock+0x132>
10000a7e:	0063      	lsls	r3, r4, #1
10000a80:	191b      	adds	r3, r3, r4
10000a82:	3b03      	subs	r3, #3
10000a84:	6832      	ldr	r2, [r6, #0]
10000a86:	4694      	mov	ip, r2
10000a88:	4463      	add	r3, ip
10000a8a:	2200      	movs	r2, #0
10000a8c:	709a      	strb	r2, [r3, #2]
10000a8e:	705a      	strb	r2, [r3, #1]
10000a90:	701a      	strb	r2, [r3, #0]
10000a92:	7b71      	ldrb	r1, [r6, #13]
10000a94:	0022      	movs	r2, r4
10000a96:	0030      	movs	r0, r6
10000a98:	f7ff ff66 	bl	10000968 <ph_merge_nodes>
10000a9c:	7370      	strb	r0, [r6, #13]
10000a9e:	4284      	cmp	r4, r0
10000aa0:	d000      	beq.n	10000aa4 <add_alarm_under_lock+0xfc>
10000aa2:	e795      	b.n	100009d0 <add_alarm_under_lock+0x28>
10000aa4:	7d28      	ldrb	r0, [r5, #20]
10000aa6:	9a00      	ldr	r2, [sp, #0]
10000aa8:	9b01      	ldr	r3, [sp, #4]
10000aaa:	f000 fa8d 	bl	10000fc8 <hardware_alarm_set_target>
10000aae:	1e06      	subs	r6, r0, #0
10000ab0:	d001      	beq.n	10000ab6 <add_alarm_under_lock+0x10e>
10000ab2:	2f00      	cmp	r7, #0
10000ab4:	d017      	beq.n	10000ae6 <add_alarm_under_lock+0x13e>
10000ab6:	9b0c      	ldr	r3, [sp, #48]	; 0x30
10000ab8:	2b00      	cmp	r3, #0
10000aba:	d100      	bne.n	10000abe <add_alarm_under_lock+0x116>
10000abc:	e788      	b.n	100009d0 <add_alarm_under_lock+0x28>
10000abe:	701e      	strb	r6, [r3, #0]
10000ac0:	e786      	b.n	100009d0 <add_alarm_under_lock+0x28>
10000ac2:	4b12      	ldr	r3, [pc, #72]	; (10000b0c <add_alarm_under_lock+0x164>)
10000ac4:	4a12      	ldr	r2, [pc, #72]	; (10000b10 <add_alarm_under_lock+0x168>)
10000ac6:	213b      	movs	r1, #59	; 0x3b
10000ac8:	480e      	ldr	r0, [pc, #56]	; (10000b04 <add_alarm_under_lock+0x15c>)
10000aca:	f000 fd4b 	bl	10001564 <__assert_func>
10000ace:	4b11      	ldr	r3, [pc, #68]	; (10000b14 <add_alarm_under_lock+0x16c>)
10000ad0:	4a11      	ldr	r2, [pc, #68]	; (10000b18 <add_alarm_under_lock+0x170>)
10000ad2:	21a6      	movs	r1, #166	; 0xa6
10000ad4:	4808      	ldr	r0, [pc, #32]	; (10000af8 <add_alarm_under_lock+0x150>)
10000ad6:	f000 fd45 	bl	10001564 <__assert_func>
10000ada:	4b05      	ldr	r3, [pc, #20]	; (10000af0 <add_alarm_under_lock+0x148>)
10000adc:	4a05      	ldr	r2, [pc, #20]	; (10000af4 <add_alarm_under_lock+0x14c>)
10000ade:	2169      	movs	r1, #105	; 0x69
10000ae0:	4805      	ldr	r0, [pc, #20]	; (10000af8 <add_alarm_under_lock+0x150>)
10000ae2:	f000 fd3f 	bl	10001564 <__assert_func>
10000ae6:	6828      	ldr	r0, [r5, #0]
10000ae8:	0021      	movs	r1, r4
10000aea:	f000 fcb9 	bl	10001460 <ph_remove_and_free_node>
10000aee:	e7e2      	b.n	10000ab6 <add_alarm_under_lock+0x10e>
10000af0:	100046d0 	.word	0x100046d0
10000af4:	10004900 	.word	0x10004900
10000af8:	100046ec 	.word	0x100046ec
10000afc:	10004768 	.word	0x10004768
10000b00:	1000490c 	.word	0x1000490c
10000b04:	10004664 	.word	0x10004664
10000b08:	0fffffff 	.word	0x0fffffff
10000b0c:	1000469c 	.word	0x1000469c
10000b10:	100048ac 	.word	0x100048ac
10000b14:	10004660 	.word	0x10004660
10000b18:	100048f0 	.word	0x100048f0

10000b1c <alarm_pool_alarm_callback>:
10000b1c:	b5f0      	push	{r4, r5, r6, r7, lr}
10000b1e:	46de      	mov	lr, fp
10000b20:	4657      	mov	r7, sl
10000b22:	464e      	mov	r6, r9
10000b24:	4645      	mov	r5, r8
10000b26:	b5e0      	push	{r5, r6, r7, lr}
10000b28:	b08b      	sub	sp, #44	; 0x2c
10000b2a:	9009      	str	r0, [sp, #36]	; 0x24
10000b2c:	2300      	movs	r3, #0
10000b2e:	9308      	str	r3, [sp, #32]
10000b30:	0082      	lsls	r2, r0, #2
10000b32:	4bb2      	ldr	r3, [pc, #712]	; (10000dfc <alarm_pool_alarm_callback+0x2e0>)
10000b34:	58d6      	ldr	r6, [r2, r3]
10000b36:	0037      	movs	r7, r6
10000b38:	e032      	b.n	10000ba0 <alarm_pool_alarm_callback+0x84>
10000b3a:	4bb1      	ldr	r3, [pc, #708]	; (10000e00 <alarm_pool_alarm_callback+0x2e4>)
10000b3c:	4ab1      	ldr	r2, [pc, #708]	; (10000e04 <alarm_pool_alarm_callback+0x2e8>)
10000b3e:	213f      	movs	r1, #63	; 0x3f
10000b40:	48b1      	ldr	r0, [pc, #708]	; (10000e08 <alarm_pool_alarm_callback+0x2ec>)
10000b42:	f000 fd0f 	bl	10001564 <__assert_func>
10000b46:	4bb1      	ldr	r3, [pc, #708]	; (10000e0c <alarm_pool_alarm_callback+0x2f0>)
10000b48:	4ab1      	ldr	r2, [pc, #708]	; (10000e10 <alarm_pool_alarm_callback+0x2f4>)
10000b4a:	213b      	movs	r1, #59	; 0x3b
10000b4c:	48b1      	ldr	r0, [pc, #708]	; (10000e14 <alarm_pool_alarm_callback+0x2f8>)
10000b4e:	f000 fd09 	bl	10001564 <__assert_func>
10000b52:	4bb1      	ldr	r3, [pc, #708]	; (10000e18 <alarm_pool_alarm_callback+0x2fc>)
10000b54:	4ab1      	ldr	r2, [pc, #708]	; (10000e1c <alarm_pool_alarm_callback+0x300>)
10000b56:	218c      	movs	r1, #140	; 0x8c
10000b58:	48ae      	ldr	r0, [pc, #696]	; (10000e14 <alarm_pool_alarm_callback+0x2f8>)
10000b5a:	f000 fd03 	bl	10001564 <__assert_func>
10000b5e:	4bb0      	ldr	r3, [pc, #704]	; (10000e20 <alarm_pool_alarm_callback+0x304>)
10000b60:	4aae      	ldr	r2, [pc, #696]	; (10000e1c <alarm_pool_alarm_callback+0x300>)
10000b62:	2190      	movs	r1, #144	; 0x90
10000b64:	48ab      	ldr	r0, [pc, #684]	; (10000e14 <alarm_pool_alarm_callback+0x2f8>)
10000b66:	f000 fcfd 	bl	10001564 <__assert_func>
10000b6a:	4ba8      	ldr	r3, [pc, #672]	; (10000e0c <alarm_pool_alarm_callback+0x2f0>)
10000b6c:	4aad      	ldr	r2, [pc, #692]	; (10000e24 <alarm_pool_alarm_callback+0x308>)
10000b6e:	2140      	movs	r1, #64	; 0x40
10000b70:	48a8      	ldr	r0, [pc, #672]	; (10000e14 <alarm_pool_alarm_callback+0x2f8>)
10000b72:	f000 fcf7 	bl	10001564 <__assert_func>
10000b76:	682a      	ldr	r2, [r5, #0]
10000b78:	686b      	ldr	r3, [r5, #4]
10000b7a:	9809      	ldr	r0, [sp, #36]	; 0x24
10000b7c:	f000 fa24 	bl	10000fc8 <hardware_alarm_set_target>
10000b80:	2300      	movs	r3, #0
10000b82:	469a      	mov	sl, r3
10000b84:	4698      	mov	r8, r3
10000b86:	687b      	ldr	r3, [r7, #4]
10000b88:	f3bf 8f5f 	dmb	sy
10000b8c:	2200      	movs	r2, #0
10000b8e:	601a      	str	r2, [r3, #0]
10000b90:	f386 8810 	msr	PRIMASK, r6
10000b94:	4643      	mov	r3, r8
10000b96:	2b00      	cmp	r3, #0
10000b98:	d151      	bne.n	10000c3e <alarm_pool_alarm_callback+0x122>
10000b9a:	2800      	cmp	r0, #0
10000b9c:	d100      	bne.n	10000ba0 <alarm_pool_alarm_callback+0x84>
10000b9e:	e126      	b.n	10000dee <alarm_pool_alarm_callback+0x2d2>
10000ba0:	f000 f9be 	bl	10000f20 <time_us_64>
10000ba4:	0002      	movs	r2, r0
10000ba6:	1e0b      	subs	r3, r1, #0
10000ba8:	dbc7      	blt.n	10000b3a <alarm_pool_alarm_callback+0x1e>
10000baa:	2000      	movs	r0, #0
10000bac:	2100      	movs	r1, #0
10000bae:	9006      	str	r0, [sp, #24]
10000bb0:	9107      	str	r1, [sp, #28]
10000bb2:	6878      	ldr	r0, [r7, #4]
10000bb4:	f3ef 8610 	mrs	r6, PRIMASK
10000bb8:	b672      	cpsid	i
10000bba:	6801      	ldr	r1, [r0, #0]
10000bbc:	2900      	cmp	r1, #0
10000bbe:	d0fc      	beq.n	10000bba <alarm_pool_alarm_callback+0x9e>
10000bc0:	f3bf 8f5f 	dmb	sy
10000bc4:	6839      	ldr	r1, [r7, #0]
10000bc6:	4688      	mov	r8, r1
10000bc8:	7b4c      	ldrb	r4, [r1, #13]
10000bca:	2c00      	cmp	r4, #0
10000bcc:	d032      	beq.n	10000c34 <alarm_pool_alarm_callback+0x118>
10000bce:	d0ba      	beq.n	10000b46 <alarm_pool_alarm_callback+0x2a>
10000bd0:	7b09      	ldrb	r1, [r1, #12]
10000bd2:	428c      	cmp	r4, r1
10000bd4:	d8b7      	bhi.n	10000b46 <alarm_pool_alarm_callback+0x2a>
10000bd6:	4994      	ldr	r1, [pc, #592]	; (10000e28 <alarm_pool_alarm_callback+0x30c>)
10000bd8:	1865      	adds	r5, r4, r1
10000bda:	012d      	lsls	r5, r5, #4
10000bdc:	68b9      	ldr	r1, [r7, #8]
10000bde:	468c      	mov	ip, r1
10000be0:	4465      	add	r5, ip
10000be2:	6828      	ldr	r0, [r5, #0]
10000be4:	6869      	ldr	r1, [r5, #4]
10000be6:	1a80      	subs	r0, r0, r2
10000be8:	4199      	sbcs	r1, r3
10000bea:	2900      	cmp	r1, #0
10000bec:	dcc3      	bgt.n	10000b76 <alarm_pool_alarm_callback+0x5a>
10000bee:	d101      	bne.n	10000bf4 <alarm_pool_alarm_callback+0xd8>
10000bf0:	2800      	cmp	r0, #0
10000bf2:	d1c0      	bne.n	10000b76 <alarm_pool_alarm_callback+0x5a>
10000bf4:	2100      	movs	r1, #0
10000bf6:	4640      	mov	r0, r8
10000bf8:	f000 fc28 	bl	1000144c <ph_remove_head>
10000bfc:	42a0      	cmp	r0, r4
10000bfe:	d1a8      	bne.n	10000b52 <alarm_pool_alarm_callback+0x36>
10000c00:	682a      	ldr	r2, [r5, #0]
10000c02:	686b      	ldr	r3, [r5, #4]
10000c04:	9206      	str	r2, [sp, #24]
10000c06:	9307      	str	r3, [sp, #28]
10000c08:	68ab      	ldr	r3, [r5, #8]
10000c0a:	4698      	mov	r8, r3
10000c0c:	68eb      	ldr	r3, [r5, #12]
10000c0e:	469a      	mov	sl, r3
10000c10:	4643      	mov	r3, r8
10000c12:	2b00      	cmp	r3, #0
10000c14:	d0a3      	beq.n	10000b5e <alarm_pool_alarm_callback+0x42>
10000c16:	2c00      	cmp	r4, #0
10000c18:	d0a7      	beq.n	10000b6a <alarm_pool_alarm_callback+0x4e>
10000c1a:	683b      	ldr	r3, [r7, #0]
10000c1c:	7b1b      	ldrb	r3, [r3, #12]
10000c1e:	429c      	cmp	r4, r3
10000c20:	d8a3      	bhi.n	10000b6a <alarm_pool_alarm_callback+0x4e>
10000c22:	1e63      	subs	r3, r4, #1
10000c24:	68fa      	ldr	r2, [r7, #12]
10000c26:	5cd3      	ldrb	r3, [r2, r3]
10000c28:	9308      	str	r3, [sp, #32]
10000c2a:	021b      	lsls	r3, r3, #8
10000c2c:	4318      	orrs	r0, r3
10000c2e:	6138      	str	r0, [r7, #16]
10000c30:	2000      	movs	r0, #0
10000c32:	e7a8      	b.n	10000b86 <alarm_pool_alarm_callback+0x6a>
10000c34:	2300      	movs	r3, #0
10000c36:	469a      	mov	sl, r3
10000c38:	4698      	mov	r8, r3
10000c3a:	2000      	movs	r0, #0
10000c3c:	e7a3      	b.n	10000b86 <alarm_pool_alarm_callback+0x6a>
10000c3e:	9b08      	ldr	r3, [sp, #32]
10000c40:	021b      	lsls	r3, r3, #8
10000c42:	4323      	orrs	r3, r4
10000c44:	4699      	mov	r9, r3
10000c46:	4651      	mov	r1, sl
10000c48:	0018      	movs	r0, r3
10000c4a:	47c0      	blx	r8
10000c4c:	0005      	movs	r5, r0
10000c4e:	000e      	movs	r6, r1
10000c50:	687a      	ldr	r2, [r7, #4]
10000c52:	f3ef 8b10 	mrs	fp, PRIMASK
10000c56:	b672      	cpsid	i
10000c58:	6813      	ldr	r3, [r2, #0]
10000c5a:	4259      	negs	r1, r3
10000c5c:	414b      	adcs	r3, r1
10000c5e:	b2d9      	uxtb	r1, r3
10000c60:	2b00      	cmp	r3, #0
10000c62:	d1f9      	bne.n	10000c58 <alarm_pool_alarm_callback+0x13c>
10000c64:	f3bf 8f5f 	dmb	sy
10000c68:	2e00      	cmp	r6, #0
10000c6a:	db26      	blt.n	10000cba <alarm_pool_alarm_callback+0x19e>
10000c6c:	2e00      	cmp	r6, #0
10000c6e:	dd52      	ble.n	10000d16 <alarm_pool_alarm_callback+0x1fa>
10000c70:	693b      	ldr	r3, [r7, #16]
10000c72:	2b00      	cmp	r3, #0
10000c74:	d053      	beq.n	10000d1e <alarm_pool_alarm_callback+0x202>
10000c76:	454b      	cmp	r3, r9
10000c78:	d172      	bne.n	10000d60 <alarm_pool_alarm_callback+0x244>
10000c7a:	f000 f951 	bl	10000f20 <time_us_64>
10000c7e:	0002      	movs	r2, r0
10000c80:	1e0b      	subs	r3, r1, #0
10000c82:	db73      	blt.n	10000d6c <alarm_pool_alarm_callback+0x250>
10000c84:	0001      	movs	r1, r0
10000c86:	0018      	movs	r0, r3
10000c88:	1952      	adds	r2, r2, r5
10000c8a:	4173      	adcs	r3, r6
10000c8c:	4298      	cmp	r0, r3
10000c8e:	d802      	bhi.n	10000c96 <alarm_pool_alarm_callback+0x17a>
10000c90:	d104      	bne.n	10000c9c <alarm_pool_alarm_callback+0x180>
10000c92:	4291      	cmp	r1, r2
10000c94:	d902      	bls.n	10000c9c <alarm_pool_alarm_callback+0x180>
10000c96:	2201      	movs	r2, #1
10000c98:	4252      	negs	r2, r2
10000c9a:	17d3      	asrs	r3, r2, #31
10000c9c:	2b00      	cmp	r3, #0
10000c9e:	db6b      	blt.n	10000d78 <alarm_pool_alarm_callback+0x25c>
10000ca0:	2100      	movs	r1, #0
10000ca2:	9104      	str	r1, [sp, #16]
10000ca4:	3101      	adds	r1, #1
10000ca6:	9103      	str	r1, [sp, #12]
10000ca8:	9402      	str	r4, [sp, #8]
10000caa:	4651      	mov	r1, sl
10000cac:	9101      	str	r1, [sp, #4]
10000cae:	4641      	mov	r1, r8
10000cb0:	9100      	str	r1, [sp, #0]
10000cb2:	0038      	movs	r0, r7
10000cb4:	f7ff fe78 	bl	100009a8 <add_alarm_under_lock>
10000cb8:	e049      	b.n	10000d4e <alarm_pool_alarm_callback+0x232>
10000cba:	693b      	ldr	r3, [r7, #16]
10000cbc:	2b00      	cmp	r3, #0
10000cbe:	d0d5      	beq.n	10000c6c <alarm_pool_alarm_callback+0x150>
10000cc0:	454b      	cmp	r3, r9
10000cc2:	d11c      	bne.n	10000cfe <alarm_pool_alarm_callback+0x1e2>
10000cc4:	9a06      	ldr	r2, [sp, #24]
10000cc6:	9b07      	ldr	r3, [sp, #28]
10000cc8:	0010      	movs	r0, r2
10000cca:	0019      	movs	r1, r3
10000ccc:	1b52      	subs	r2, r2, r5
10000cce:	41b3      	sbcs	r3, r6
10000cd0:	4299      	cmp	r1, r3
10000cd2:	d802      	bhi.n	10000cda <alarm_pool_alarm_callback+0x1be>
10000cd4:	d104      	bne.n	10000ce0 <alarm_pool_alarm_callback+0x1c4>
10000cd6:	4290      	cmp	r0, r2
10000cd8:	d902      	bls.n	10000ce0 <alarm_pool_alarm_callback+0x1c4>
10000cda:	2201      	movs	r2, #1
10000cdc:	4252      	negs	r2, r2
10000cde:	17d3      	asrs	r3, r2, #31
10000ce0:	2b00      	cmp	r3, #0
10000ce2:	db12      	blt.n	10000d0a <alarm_pool_alarm_callback+0x1ee>
10000ce4:	2100      	movs	r1, #0
10000ce6:	9104      	str	r1, [sp, #16]
10000ce8:	3101      	adds	r1, #1
10000cea:	9103      	str	r1, [sp, #12]
10000cec:	9402      	str	r4, [sp, #8]
10000cee:	4651      	mov	r1, sl
10000cf0:	9101      	str	r1, [sp, #4]
10000cf2:	4641      	mov	r1, r8
10000cf4:	9100      	str	r1, [sp, #0]
10000cf6:	0038      	movs	r0, r7
10000cf8:	f7ff fe56 	bl	100009a8 <add_alarm_under_lock>
10000cfc:	e027      	b.n	10000d4e <alarm_pool_alarm_callback+0x232>
10000cfe:	4b4b      	ldr	r3, [pc, #300]	; (10000e2c <alarm_pool_alarm_callback+0x310>)
10000d00:	4a46      	ldr	r2, [pc, #280]	; (10000e1c <alarm_pool_alarm_callback+0x300>)
10000d02:	219f      	movs	r1, #159	; 0x9f
10000d04:	4843      	ldr	r0, [pc, #268]	; (10000e14 <alarm_pool_alarm_callback+0x2f8>)
10000d06:	f000 fc2d 	bl	10001564 <__assert_func>
10000d0a:	4b3d      	ldr	r3, [pc, #244]	; (10000e00 <alarm_pool_alarm_callback+0x2e4>)
10000d0c:	4a3d      	ldr	r2, [pc, #244]	; (10000e04 <alarm_pool_alarm_callback+0x2e8>)
10000d0e:	213f      	movs	r1, #63	; 0x3f
10000d10:	483d      	ldr	r0, [pc, #244]	; (10000e08 <alarm_pool_alarm_callback+0x2ec>)
10000d12:	f000 fc27 	bl	10001564 <__assert_func>
10000d16:	2e00      	cmp	r6, #0
10000d18:	d101      	bne.n	10000d1e <alarm_pool_alarm_callback+0x202>
10000d1a:	2d00      	cmp	r5, #0
10000d1c:	d1a8      	bne.n	10000c70 <alarm_pool_alarm_callback+0x154>
10000d1e:	683a      	ldr	r2, [r7, #0]
10000d20:	2c00      	cmp	r4, #0
10000d22:	d045      	beq.n	10000db0 <alarm_pool_alarm_callback+0x294>
10000d24:	7b53      	ldrb	r3, [r2, #13]
10000d26:	429c      	cmp	r4, r3
10000d28:	d12c      	bne.n	10000d84 <alarm_pool_alarm_callback+0x268>
10000d2a:	2101      	movs	r1, #1
10000d2c:	2900      	cmp	r1, #0
10000d2e:	d13f      	bne.n	10000db0 <alarm_pool_alarm_callback+0x294>
10000d30:	7bd3      	ldrb	r3, [r2, #15]
10000d32:	2b00      	cmp	r3, #0
10000d34:	d142      	bne.n	10000dbc <alarm_pool_alarm_callback+0x2a0>
10000d36:	73d4      	strb	r4, [r2, #15]
10000d38:	2c00      	cmp	r4, #0
10000d3a:	d052      	beq.n	10000de2 <alarm_pool_alarm_callback+0x2c6>
10000d3c:	683b      	ldr	r3, [r7, #0]
10000d3e:	7b1b      	ldrb	r3, [r3, #12]
10000d40:	429c      	cmp	r4, r3
10000d42:	d84e      	bhi.n	10000de2 <alarm_pool_alarm_callback+0x2c6>
10000d44:	68fa      	ldr	r2, [r7, #12]
10000d46:	3c01      	subs	r4, #1
10000d48:	5d13      	ldrb	r3, [r2, r4]
10000d4a:	3301      	adds	r3, #1
10000d4c:	5513      	strb	r3, [r2, r4]
10000d4e:	2300      	movs	r3, #0
10000d50:	613b      	str	r3, [r7, #16]
10000d52:	687a      	ldr	r2, [r7, #4]
10000d54:	f3bf 8f5f 	dmb	sy
10000d58:	6013      	str	r3, [r2, #0]
10000d5a:	f38b 8810 	msr	PRIMASK, fp
10000d5e:	e71f      	b.n	10000ba0 <alarm_pool_alarm_callback+0x84>
10000d60:	4b32      	ldr	r3, [pc, #200]	; (10000e2c <alarm_pool_alarm_callback+0x310>)
10000d62:	4a2e      	ldr	r2, [pc, #184]	; (10000e1c <alarm_pool_alarm_callback+0x300>)
10000d64:	21a2      	movs	r1, #162	; 0xa2
10000d66:	482b      	ldr	r0, [pc, #172]	; (10000e14 <alarm_pool_alarm_callback+0x2f8>)
10000d68:	f000 fbfc 	bl	10001564 <__assert_func>
10000d6c:	4b24      	ldr	r3, [pc, #144]	; (10000e00 <alarm_pool_alarm_callback+0x2e4>)
10000d6e:	4a25      	ldr	r2, [pc, #148]	; (10000e04 <alarm_pool_alarm_callback+0x2e8>)
10000d70:	213f      	movs	r1, #63	; 0x3f
10000d72:	4825      	ldr	r0, [pc, #148]	; (10000e08 <alarm_pool_alarm_callback+0x2ec>)
10000d74:	f000 fbf6 	bl	10001564 <__assert_func>
10000d78:	4b21      	ldr	r3, [pc, #132]	; (10000e00 <alarm_pool_alarm_callback+0x2e4>)
10000d7a:	4a22      	ldr	r2, [pc, #136]	; (10000e04 <alarm_pool_alarm_callback+0x2e8>)
10000d7c:	213f      	movs	r1, #63	; 0x3f
10000d7e:	4822      	ldr	r0, [pc, #136]	; (10000e08 <alarm_pool_alarm_callback+0x2ec>)
10000d80:	f000 fbf0 	bl	10001564 <__assert_func>
10000d84:	2c00      	cmp	r4, #0
10000d86:	d00d      	beq.n	10000da4 <alarm_pool_alarm_callback+0x288>
10000d88:	7b13      	ldrb	r3, [r2, #12]
10000d8a:	429c      	cmp	r4, r3
10000d8c:	d80a      	bhi.n	10000da4 <alarm_pool_alarm_callback+0x288>
10000d8e:	0063      	lsls	r3, r4, #1
10000d90:	191b      	adds	r3, r3, r4
10000d92:	3b03      	subs	r3, #3
10000d94:	6810      	ldr	r0, [r2, #0]
10000d96:	4684      	mov	ip, r0
10000d98:	4463      	add	r3, ip
10000d9a:	789b      	ldrb	r3, [r3, #2]
10000d9c:	2b00      	cmp	r3, #0
10000d9e:	d0c5      	beq.n	10000d2c <alarm_pool_alarm_callback+0x210>
10000da0:	2101      	movs	r1, #1
10000da2:	e7c3      	b.n	10000d2c <alarm_pool_alarm_callback+0x210>
10000da4:	4b22      	ldr	r3, [pc, #136]	; (10000e30 <alarm_pool_alarm_callback+0x314>)
10000da6:	4a23      	ldr	r2, [pc, #140]	; (10000e34 <alarm_pool_alarm_callback+0x318>)
10000da8:	2169      	movs	r1, #105	; 0x69
10000daa:	4823      	ldr	r0, [pc, #140]	; (10000e38 <alarm_pool_alarm_callback+0x31c>)
10000dac:	f000 fbda 	bl	10001564 <__assert_func>
10000db0:	4b22      	ldr	r3, [pc, #136]	; (10000e3c <alarm_pool_alarm_callback+0x320>)
10000db2:	4a23      	ldr	r2, [pc, #140]	; (10000e40 <alarm_pool_alarm_callback+0x324>)
10000db4:	21f7      	movs	r1, #247	; 0xf7
10000db6:	4820      	ldr	r0, [pc, #128]	; (10000e38 <alarm_pool_alarm_callback+0x31c>)
10000db8:	f000 fbd4 	bl	10001564 <__assert_func>
10000dbc:	2b00      	cmp	r3, #0
10000dbe:	d00a      	beq.n	10000dd6 <alarm_pool_alarm_callback+0x2ba>
10000dc0:	7b11      	ldrb	r1, [r2, #12]
10000dc2:	428b      	cmp	r3, r1
10000dc4:	d807      	bhi.n	10000dd6 <alarm_pool_alarm_callback+0x2ba>
10000dc6:	0059      	lsls	r1, r3, #1
10000dc8:	18cb      	adds	r3, r1, r3
10000dca:	3b03      	subs	r3, #3
10000dcc:	6811      	ldr	r1, [r2, #0]
10000dce:	468c      	mov	ip, r1
10000dd0:	4463      	add	r3, ip
10000dd2:	705c      	strb	r4, [r3, #1]
10000dd4:	e7af      	b.n	10000d36 <alarm_pool_alarm_callback+0x21a>
10000dd6:	4b16      	ldr	r3, [pc, #88]	; (10000e30 <alarm_pool_alarm_callback+0x314>)
10000dd8:	4a16      	ldr	r2, [pc, #88]	; (10000e34 <alarm_pool_alarm_callback+0x318>)
10000dda:	2169      	movs	r1, #105	; 0x69
10000ddc:	4816      	ldr	r0, [pc, #88]	; (10000e38 <alarm_pool_alarm_callback+0x31c>)
10000dde:	f000 fbc1 	bl	10001564 <__assert_func>
10000de2:	4b0a      	ldr	r3, [pc, #40]	; (10000e0c <alarm_pool_alarm_callback+0x2f0>)
10000de4:	4a0f      	ldr	r2, [pc, #60]	; (10000e24 <alarm_pool_alarm_callback+0x308>)
10000de6:	2140      	movs	r1, #64	; 0x40
10000de8:	480a      	ldr	r0, [pc, #40]	; (10000e14 <alarm_pool_alarm_callback+0x2f8>)
10000dea:	f000 fbbb 	bl	10001564 <__assert_func>
10000dee:	b00b      	add	sp, #44	; 0x2c
10000df0:	bcf0      	pop	{r4, r5, r6, r7}
10000df2:	46bb      	mov	fp, r7
10000df4:	46b2      	mov	sl, r6
10000df6:	46a9      	mov	r9, r5
10000df8:	46a0      	mov	r8, r4
10000dfa:	bdf0      	pop	{r4, r5, r6, r7, pc}
10000dfc:	20000424 	.word	0x20000424
10000e00:	10004790 	.word	0x10004790
10000e04:	10004878 	.word	0x10004878
10000e08:	100047ac 	.word	0x100047ac
10000e0c:	1000469c 	.word	0x1000469c
10000e10:	100048ac 	.word	0x100048ac
10000e14:	10004664 	.word	0x10004664
10000e18:	100047f4 	.word	0x100047f4
10000e1c:	10004890 	.word	0x10004890
10000e20:	1000480c 	.word	0x1000480c
10000e24:	100048b8 	.word	0x100048b8
10000e28:	0fffffff 	.word	0x0fffffff
10000e2c:	10004818 	.word	0x10004818
10000e30:	100046d0 	.word	0x100046d0
10000e34:	10004900 	.word	0x10004900
10000e38:	100046ec 	.word	0x100046ec
10000e3c:	10004854 	.word	0x10004854
10000e40:	100048cc 	.word	0x100048cc

10000e44 <alarm_pool_init_default>:
10000e44:	b510      	push	{r4, lr}
10000e46:	4b0a      	ldr	r3, [pc, #40]	; (10000e70 <alarm_pool_init_default+0x2c>)
10000e48:	685b      	ldr	r3, [r3, #4]
10000e4a:	2b00      	cmp	r3, #0
10000e4c:	d004      	beq.n	10000e58 <alarm_pool_init_default+0x14>
10000e4e:	210a      	movs	r1, #10
10000e50:	4808      	ldr	r0, [pc, #32]	; (10000e74 <alarm_pool_init_default+0x30>)
10000e52:	f000 f94d 	bl	100010f0 <lock_init>
10000e56:	bd10      	pop	{r4, pc}
10000e58:	4c05      	ldr	r4, [pc, #20]	; (10000e70 <alarm_pool_init_default+0x2c>)
10000e5a:	0023      	movs	r3, r4
10000e5c:	4a06      	ldr	r2, [pc, #24]	; (10000e78 <alarm_pool_init_default+0x34>)
10000e5e:	2110      	movs	r1, #16
10000e60:	6820      	ldr	r0, [r4, #0]
10000e62:	f000 fa13 	bl	1000128c <ph_post_alloc_init>
10000e66:	2103      	movs	r1, #3
10000e68:	0020      	movs	r0, r4
10000e6a:	f7ff fccd 	bl	10000808 <alarm_pool_post_alloc_init>
10000e6e:	e7ee      	b.n	10000e4e <alarm_pool_init_default+0xa>
10000e70:	200001b4 	.word	0x200001b4
10000e74:	20000638 	.word	0x20000638
10000e78:	10000849 	.word	0x10000849

10000e7c <hardware_alarm_irq_handler>:
10000e7c:	b570      	push	{r4, r5, r6, lr}
10000e7e:	f3ef 8305 	mrs	r3, IPSR
10000e82:	203f      	movs	r0, #63	; 0x3f
10000e84:	4018      	ands	r0, r3
10000e86:	3810      	subs	r0, #16
10000e88:	f3ef 8c10 	mrs	ip, PRIMASK
10000e8c:	b672      	cpsid	i
10000e8e:	4b19      	ldr	r3, [pc, #100]	; (10000ef4 <hardware_alarm_irq_handler+0x78>)
10000e90:	681b      	ldr	r3, [r3, #0]
10000e92:	2b00      	cmp	r3, #0
10000e94:	d0fb      	beq.n	10000e8e <hardware_alarm_irq_handler+0x12>
10000e96:	f3bf 8f5f 	dmb	sy
10000e9a:	2301      	movs	r3, #1
10000e9c:	0019      	movs	r1, r3
10000e9e:	4081      	lsls	r1, r0
10000ea0:	4a15      	ldr	r2, [pc, #84]	; (10000ef8 <hardware_alarm_irq_handler+0x7c>)
10000ea2:	6351      	str	r1, [r2, #52]	; 0x34
10000ea4:	4a15      	ldr	r2, [pc, #84]	; (10000efc <hardware_alarm_irq_handler+0x80>)
10000ea6:	7812      	ldrb	r2, [r2, #0]
10000ea8:	0014      	movs	r4, r2
10000eaa:	40c4      	lsrs	r4, r0
10000eac:	4223      	tst	r3, r4
10000eae:	d014      	beq.n	10000eda <hardware_alarm_irq_handler+0x5e>
10000eb0:	4b11      	ldr	r3, [pc, #68]	; (10000ef8 <hardware_alarm_irq_handler+0x7c>)
10000eb2:	6a5c      	ldr	r4, [r3, #36]	; 0x24
10000eb4:	0083      	lsls	r3, r0, #2
10000eb6:	4d12      	ldr	r5, [pc, #72]	; (10000f00 <hardware_alarm_irq_handler+0x84>)
10000eb8:	595b      	ldr	r3, [r3, r5]
10000eba:	429c      	cmp	r4, r3
10000ebc:	d306      	bcc.n	10000ecc <hardware_alarm_irq_handler+0x50>
10000ebe:	0083      	lsls	r3, r0, #2
10000ec0:	4c10      	ldr	r4, [pc, #64]	; (10000f04 <hardware_alarm_irq_handler+0x88>)
10000ec2:	591b      	ldr	r3, [r3, r4]
10000ec4:	438a      	bics	r2, r1
10000ec6:	490d      	ldr	r1, [pc, #52]	; (10000efc <hardware_alarm_irq_handler+0x80>)
10000ec8:	700a      	strb	r2, [r1, #0]
10000eca:	e007      	b.n	10000edc <hardware_alarm_irq_handler+0x60>
10000ecc:	4a0a      	ldr	r2, [pc, #40]	; (10000ef8 <hardware_alarm_irq_handler+0x7c>)
10000ece:	1d03      	adds	r3, r0, #4
10000ed0:	009b      	lsls	r3, r3, #2
10000ed2:	5899      	ldr	r1, [r3, r2]
10000ed4:	5099      	str	r1, [r3, r2]
10000ed6:	2300      	movs	r3, #0
10000ed8:	e000      	b.n	10000edc <hardware_alarm_irq_handler+0x60>
10000eda:	2300      	movs	r3, #0
10000edc:	f3bf 8f5f 	dmb	sy
10000ee0:	4a04      	ldr	r2, [pc, #16]	; (10000ef4 <hardware_alarm_irq_handler+0x78>)
10000ee2:	2100      	movs	r1, #0
10000ee4:	6011      	str	r1, [r2, #0]
10000ee6:	f38c 8810 	msr	PRIMASK, ip
10000eea:	2b00      	cmp	r3, #0
10000eec:	d000      	beq.n	10000ef0 <hardware_alarm_irq_handler+0x74>
10000eee:	4798      	blx	r3
10000ef0:	bd70      	pop	{r4, r5, r6, pc}
10000ef2:	46c0      	nop			; (mov r8, r8)
10000ef4:	d0000128 	.word	0xd0000128
10000ef8:	40054000 	.word	0x40054000
10000efc:	20000656 	.word	0x20000656
10000f00:	2000063c 	.word	0x2000063c
10000f04:	200003a4 	.word	0x200003a4

10000f08 <hardware_alarm_claim>:
10000f08:	b510      	push	{r4, lr}
10000f0a:	0001      	movs	r1, r0
10000f0c:	4a02      	ldr	r2, [pc, #8]	; (10000f18 <hardware_alarm_claim+0x10>)
10000f0e:	4803      	ldr	r0, [pc, #12]	; (10000f1c <hardware_alarm_claim+0x14>)
10000f10:	f7ff fbb6 	bl	10000680 <hw_claim_or_assert>
10000f14:	bd10      	pop	{r4, pc}
10000f16:	46c0      	nop			; (mov r8, r8)
10000f18:	10004924 	.word	0x10004924
10000f1c:	20000654 	.word	0x20000654

10000f20 <time_us_64>:
10000f20:	4b04      	ldr	r3, [pc, #16]	; (10000f34 <time_us_64+0x14>)
10000f22:	6a5b      	ldr	r3, [r3, #36]	; 0x24
10000f24:	4a03      	ldr	r2, [pc, #12]	; (10000f34 <time_us_64+0x14>)
10000f26:	6a90      	ldr	r0, [r2, #40]	; 0x28
10000f28:	0019      	movs	r1, r3
10000f2a:	6a53      	ldr	r3, [r2, #36]	; 0x24
10000f2c:	4299      	cmp	r1, r3
10000f2e:	d1f9      	bne.n	10000f24 <time_us_64+0x4>
10000f30:	4770      	bx	lr
10000f32:	46c0      	nop			; (mov r8, r8)
10000f34:	40054000 	.word	0x40054000

10000f38 <hardware_alarm_set_callback>:
10000f38:	b570      	push	{r4, r5, r6, lr}
10000f3a:	0004      	movs	r4, r0
10000f3c:	000d      	movs	r5, r1
10000f3e:	f3ef 8610 	mrs	r6, PRIMASK
10000f42:	b672      	cpsid	i
10000f44:	4b1b      	ldr	r3, [pc, #108]	; (10000fb4 <hardware_alarm_set_callback+0x7c>)
10000f46:	681b      	ldr	r3, [r3, #0]
10000f48:	2b00      	cmp	r3, #0
10000f4a:	d0fb      	beq.n	10000f44 <hardware_alarm_set_callback+0xc>
10000f4c:	f3bf 8f5f 	dmb	sy
10000f50:	2d00      	cmp	r5, #0
10000f52:	d01c      	beq.n	10000f8e <hardware_alarm_set_callback+0x56>
10000f54:	0020      	movs	r0, r4
10000f56:	f000 fd31 	bl	100019bc <irq_get_vtable_handler>
10000f5a:	4b17      	ldr	r3, [pc, #92]	; (10000fb8 <hardware_alarm_set_callback+0x80>)
10000f5c:	4283      	cmp	r3, r0
10000f5e:	d00b      	beq.n	10000f78 <hardware_alarm_set_callback+0x40>
10000f60:	0019      	movs	r1, r3
10000f62:	0020      	movs	r0, r4
10000f64:	f000 fd32 	bl	100019cc <irq_set_exclusive_handler>
10000f68:	2101      	movs	r1, #1
10000f6a:	0020      	movs	r0, r4
10000f6c:	f000 fd1e 	bl	100019ac <irq_set_enabled>
10000f70:	2301      	movs	r3, #1
10000f72:	40a3      	lsls	r3, r4
10000f74:	4a11      	ldr	r2, [pc, #68]	; (10000fbc <hardware_alarm_set_callback+0x84>)
10000f76:	6013      	str	r3, [r2, #0]
10000f78:	00a4      	lsls	r4, r4, #2
10000f7a:	4b11      	ldr	r3, [pc, #68]	; (10000fc0 <hardware_alarm_set_callback+0x88>)
10000f7c:	50e5      	str	r5, [r4, r3]
10000f7e:	f3bf 8f5f 	dmb	sy
10000f82:	4b0c      	ldr	r3, [pc, #48]	; (10000fb4 <hardware_alarm_set_callback+0x7c>)
10000f84:	2200      	movs	r2, #0
10000f86:	601a      	str	r2, [r3, #0]
10000f88:	f386 8810 	msr	PRIMASK, r6
10000f8c:	bd70      	pop	{r4, r5, r6, pc}
10000f8e:	00a2      	lsls	r2, r4, #2
10000f90:	4b0b      	ldr	r3, [pc, #44]	; (10000fc0 <hardware_alarm_set_callback+0x88>)
10000f92:	2100      	movs	r1, #0
10000f94:	50d1      	str	r1, [r2, r3]
10000f96:	2201      	movs	r2, #1
10000f98:	40a2      	lsls	r2, r4
10000f9a:	490a      	ldr	r1, [pc, #40]	; (10000fc4 <hardware_alarm_set_callback+0x8c>)
10000f9c:	780b      	ldrb	r3, [r1, #0]
10000f9e:	4393      	bics	r3, r2
10000fa0:	700b      	strb	r3, [r1, #0]
10000fa2:	4905      	ldr	r1, [pc, #20]	; (10000fb8 <hardware_alarm_set_callback+0x80>)
10000fa4:	0020      	movs	r0, r4
10000fa6:	f000 fd3b 	bl	10001a20 <irq_remove_handler>
10000faa:	2100      	movs	r1, #0
10000fac:	0020      	movs	r0, r4
10000fae:	f000 fcfd 	bl	100019ac <irq_set_enabled>
10000fb2:	e7e4      	b.n	10000f7e <hardware_alarm_set_callback+0x46>
10000fb4:	d0000128 	.word	0xd0000128
10000fb8:	10000e7d 	.word	0x10000e7d
10000fbc:	40056038 	.word	0x40056038
10000fc0:	200003a4 	.word	0x200003a4
10000fc4:	20000656 	.word	0x20000656

10000fc8 <hardware_alarm_set_target>:
10000fc8:	b5f0      	push	{r4, r5, r6, r7, lr}
10000fca:	46de      	mov	lr, fp
10000fcc:	b500      	push	{lr}
10000fce:	b084      	sub	sp, #16
10000fd0:	0004      	movs	r4, r0
10000fd2:	0015      	movs	r5, r2
10000fd4:	9201      	str	r2, [sp, #4]
10000fd6:	001e      	movs	r6, r3
10000fd8:	9302      	str	r3, [sp, #8]
10000fda:	f7ff ffa1 	bl	10000f20 <time_us_64>
10000fde:	9503      	str	r5, [sp, #12]
10000fe0:	428e      	cmp	r6, r1
10000fe2:	d802      	bhi.n	10000fea <hardware_alarm_set_target+0x22>
10000fe4:	d14e      	bne.n	10001084 <hardware_alarm_set_target+0xbc>
10000fe6:	4285      	cmp	r5, r0
10000fe8:	d94c      	bls.n	10001084 <hardware_alarm_set_target+0xbc>
10000fea:	f3ef 8b10 	mrs	fp, PRIMASK
10000fee:	b672      	cpsid	i
10000ff0:	4b27      	ldr	r3, [pc, #156]	; (10001090 <hardware_alarm_set_target+0xc8>)
10000ff2:	681b      	ldr	r3, [r3, #0]
10000ff4:	2b00      	cmp	r3, #0
10000ff6:	d0fb      	beq.n	10000ff0 <hardware_alarm_set_target+0x28>
10000ff8:	f3bf 8f5f 	dmb	sy
10000ffc:	4a25      	ldr	r2, [pc, #148]	; (10001094 <hardware_alarm_set_target+0xcc>)
10000ffe:	7817      	ldrb	r7, [r2, #0]
10001000:	2501      	movs	r5, #1
10001002:	40a5      	lsls	r5, r4
10001004:	b2eb      	uxtb	r3, r5
10001006:	433b      	orrs	r3, r7
10001008:	7013      	strb	r3, [r2, #0]
1000100a:	4b23      	ldr	r3, [pc, #140]	; (10001098 <hardware_alarm_set_target+0xd0>)
1000100c:	635d      	str	r5, [r3, #52]	; 0x34
1000100e:	1d22      	adds	r2, r4, #4
10001010:	0092      	lsls	r2, r2, #2
10001012:	9901      	ldr	r1, [sp, #4]
10001014:	50d1      	str	r1, [r2, r3]
10001016:	00a2      	lsls	r2, r4, #2
10001018:	4920      	ldr	r1, [pc, #128]	; (1000109c <hardware_alarm_set_target+0xd4>)
1000101a:	9802      	ldr	r0, [sp, #8]
1000101c:	5050      	str	r0, [r2, r1]
1000101e:	6a1b      	ldr	r3, [r3, #32]
10001020:	422b      	tst	r3, r5
10001022:	d112      	bne.n	1000104a <hardware_alarm_set_target+0x82>
10001024:	4b1c      	ldr	r3, [pc, #112]	; (10001098 <hardware_alarm_set_target+0xd0>)
10001026:	6c1b      	ldr	r3, [r3, #64]	; 0x40
10001028:	422b      	tst	r3, r5
1000102a:	d008      	beq.n	1000103e <hardware_alarm_set_target+0x76>
1000102c:	2000      	movs	r0, #0
1000102e:	f3bf 8f5f 	dmb	sy
10001032:	4b17      	ldr	r3, [pc, #92]	; (10001090 <hardware_alarm_set_target+0xc8>)
10001034:	2200      	movs	r2, #0
10001036:	601a      	str	r2, [r3, #0]
10001038:	f38b 8810 	msr	PRIMASK, fp
1000103c:	e023      	b.n	10001086 <hardware_alarm_set_target+0xbe>
1000103e:	4b18      	ldr	r3, [pc, #96]	; (100010a0 <hardware_alarm_set_target+0xd8>)
10001040:	4a18      	ldr	r2, [pc, #96]	; (100010a4 <hardware_alarm_set_target+0xdc>)
10001042:	21c1      	movs	r1, #193	; 0xc1
10001044:	4818      	ldr	r0, [pc, #96]	; (100010a8 <hardware_alarm_set_target+0xe0>)
10001046:	f000 fa8d 	bl	10001564 <__assert_func>
1000104a:	f7ff ff69 	bl	10000f20 <time_us_64>
1000104e:	428e      	cmp	r6, r1
10001050:	d814      	bhi.n	1000107c <hardware_alarm_set_target+0xb4>
10001052:	d102      	bne.n	1000105a <hardware_alarm_set_target+0x92>
10001054:	9b03      	ldr	r3, [sp, #12]
10001056:	4283      	cmp	r3, r0
10001058:	d810      	bhi.n	1000107c <hardware_alarm_set_target+0xb4>
1000105a:	4b0e      	ldr	r3, [pc, #56]	; (10001094 <hardware_alarm_set_target+0xcc>)
1000105c:	781b      	ldrb	r3, [r3, #0]
1000105e:	42bb      	cmp	r3, r7
10001060:	d00e      	beq.n	10001080 <hardware_alarm_set_target+0xb8>
10001062:	4b0d      	ldr	r3, [pc, #52]	; (10001098 <hardware_alarm_set_target+0xd0>)
10001064:	621d      	str	r5, [r3, #32]
10001066:	635d      	str	r5, [r3, #52]	; 0x34
10001068:	201f      	movs	r0, #31
1000106a:	4004      	ands	r4, r0
1000106c:	2301      	movs	r3, #1
1000106e:	40a3      	lsls	r3, r4
10001070:	4a0e      	ldr	r2, [pc, #56]	; (100010ac <hardware_alarm_set_target+0xe4>)
10001072:	6013      	str	r3, [r2, #0]
10001074:	4b07      	ldr	r3, [pc, #28]	; (10001094 <hardware_alarm_set_target+0xcc>)
10001076:	701f      	strb	r7, [r3, #0]
10001078:	381e      	subs	r0, #30
1000107a:	e7d8      	b.n	1000102e <hardware_alarm_set_target+0x66>
1000107c:	2000      	movs	r0, #0
1000107e:	e7d6      	b.n	1000102e <hardware_alarm_set_target+0x66>
10001080:	2001      	movs	r0, #1
10001082:	e7d4      	b.n	1000102e <hardware_alarm_set_target+0x66>
10001084:	2001      	movs	r0, #1
10001086:	b004      	add	sp, #16
10001088:	bc80      	pop	{r7}
1000108a:	46bb      	mov	fp, r7
1000108c:	bdf0      	pop	{r4, r5, r6, r7, pc}
1000108e:	46c0      	nop			; (mov r8, r8)
10001090:	d0000128 	.word	0xd0000128
10001094:	20000656 	.word	0x20000656
10001098:	40054000 	.word	0x40054000
1000109c:	2000063c 	.word	0x2000063c
100010a0:	10004948 	.word	0x10004948
100010a4:	100049b0 	.word	0x100049b0
100010a8:	1000496c 	.word	0x1000496c
100010ac:	e000e280 	.word	0xe000e280

100010b0 <hardware_alarm_cancel>:
100010b0:	f3ef 8c10 	mrs	ip, PRIMASK
100010b4:	b672      	cpsid	i
100010b6:	4b0b      	ldr	r3, [pc, #44]	; (100010e4 <hardware_alarm_cancel+0x34>)
100010b8:	681b      	ldr	r3, [r3, #0]
100010ba:	2b00      	cmp	r3, #0
100010bc:	d0fb      	beq.n	100010b6 <hardware_alarm_cancel+0x6>
100010be:	f3bf 8f5f 	dmb	sy
100010c2:	2301      	movs	r3, #1
100010c4:	4083      	lsls	r3, r0
100010c6:	4a08      	ldr	r2, [pc, #32]	; (100010e8 <hardware_alarm_cancel+0x38>)
100010c8:	6213      	str	r3, [r2, #32]
100010ca:	4908      	ldr	r1, [pc, #32]	; (100010ec <hardware_alarm_cancel+0x3c>)
100010cc:	780a      	ldrb	r2, [r1, #0]
100010ce:	439a      	bics	r2, r3
100010d0:	700a      	strb	r2, [r1, #0]
100010d2:	f3bf 8f5f 	dmb	sy
100010d6:	4b03      	ldr	r3, [pc, #12]	; (100010e4 <hardware_alarm_cancel+0x34>)
100010d8:	2200      	movs	r2, #0
100010da:	601a      	str	r2, [r3, #0]
100010dc:	f38c 8810 	msr	PRIMASK, ip
100010e0:	4770      	bx	lr
100010e2:	46c0      	nop			; (mov r8, r8)
100010e4:	d0000128 	.word	0xd0000128
100010e8:	40054000 	.word	0x40054000
100010ec:	20000656 	.word	0x20000656

100010f0 <lock_init>:
100010f0:	4b02      	ldr	r3, [pc, #8]	; (100010fc <lock_init+0xc>)
100010f2:	469c      	mov	ip, r3
100010f4:	4461      	add	r1, ip
100010f6:	0089      	lsls	r1, r1, #2
100010f8:	6001      	str	r1, [r0, #0]
100010fa:	4770      	bx	lr
100010fc:	34000040 	.word	0x34000040

10001100 <mutex_init>:
10001100:	b510      	push	{r4, lr}
10001102:	0004      	movs	r4, r0
10001104:	f7ff faf0 	bl	100006e8 <next_striped_spin_lock_num>
10001108:	0001      	movs	r1, r0
1000110a:	0020      	movs	r0, r4
1000110c:	f7ff fff0 	bl	100010f0 <lock_init>
10001110:	23ff      	movs	r3, #255	; 0xff
10001112:	7123      	strb	r3, [r4, #4]
10001114:	f3bf 8f5f 	dmb	sy
10001118:	bd10      	pop	{r4, pc}

1000111a <recursive_mutex_init>:
1000111a:	b510      	push	{r4, lr}
1000111c:	0004      	movs	r4, r0
1000111e:	f7ff fae3 	bl	100006e8 <next_striped_spin_lock_num>
10001122:	0001      	movs	r1, r0
10001124:	0020      	movs	r0, r4
10001126:	f7ff ffe3 	bl	100010f0 <lock_init>
1000112a:	23ff      	movs	r3, #255	; 0xff
1000112c:	7123      	strb	r3, [r4, #4]
1000112e:	2300      	movs	r3, #0
10001130:	7163      	strb	r3, [r4, #5]
10001132:	f3bf 8f5f 	dmb	sy
10001136:	bd10      	pop	{r4, pc}

10001138 <ph_add_child_node>:
10001138:	b510      	push	{r4, lr}
1000113a:	2900      	cmp	r1, #0
1000113c:	d01e      	beq.n	1000117c <ph_add_child_node+0x44>
1000113e:	7b03      	ldrb	r3, [r0, #12]
10001140:	4299      	cmp	r1, r3
10001142:	d81b      	bhi.n	1000117c <ph_add_child_node+0x44>
10001144:	004b      	lsls	r3, r1, #1
10001146:	185b      	adds	r3, r3, r1
10001148:	3b03      	subs	r3, #3
1000114a:	6804      	ldr	r4, [r0, #0]
1000114c:	46a4      	mov	ip, r4
1000114e:	4463      	add	r3, ip
10001150:	2900      	cmp	r1, #0
10001152:	d019      	beq.n	10001188 <ph_add_child_node+0x50>
10001154:	2a00      	cmp	r2, #0
10001156:	d01d      	beq.n	10001194 <ph_add_child_node+0x5c>
10001158:	4291      	cmp	r1, r2
1000115a:	d021      	beq.n	100011a0 <ph_add_child_node+0x68>
1000115c:	2a00      	cmp	r2, #0
1000115e:	d025      	beq.n	100011ac <ph_add_child_node+0x74>
10001160:	7b04      	ldrb	r4, [r0, #12]
10001162:	42a2      	cmp	r2, r4
10001164:	d822      	bhi.n	100011ac <ph_add_child_node+0x74>
10001166:	6804      	ldr	r4, [r0, #0]
10001168:	0050      	lsls	r0, r2, #1
1000116a:	1880      	adds	r0, r0, r2
1000116c:	3803      	subs	r0, #3
1000116e:	1820      	adds	r0, r4, r0
10001170:	7081      	strb	r1, [r0, #2]
10001172:	7819      	ldrb	r1, [r3, #0]
10001174:	2900      	cmp	r1, #0
10001176:	d11f      	bne.n	100011b8 <ph_add_child_node+0x80>
10001178:	701a      	strb	r2, [r3, #0]
1000117a:	bd10      	pop	{r4, pc}
1000117c:	4b10      	ldr	r3, [pc, #64]	; (100011c0 <ph_add_child_node+0x88>)
1000117e:	4a11      	ldr	r2, [pc, #68]	; (100011c4 <ph_add_child_node+0x8c>)
10001180:	2169      	movs	r1, #105	; 0x69
10001182:	4811      	ldr	r0, [pc, #68]	; (100011c8 <ph_add_child_node+0x90>)
10001184:	f000 f9ee 	bl	10001564 <__assert_func>
10001188:	4b10      	ldr	r3, [pc, #64]	; (100011cc <ph_add_child_node+0x94>)
1000118a:	4a11      	ldr	r2, [pc, #68]	; (100011d0 <ph_add_child_node+0x98>)
1000118c:	3170      	adds	r1, #112	; 0x70
1000118e:	480e      	ldr	r0, [pc, #56]	; (100011c8 <ph_add_child_node+0x90>)
10001190:	f000 f9e8 	bl	10001564 <__assert_func>
10001194:	4b0f      	ldr	r3, [pc, #60]	; (100011d4 <ph_add_child_node+0x9c>)
10001196:	4a0e      	ldr	r2, [pc, #56]	; (100011d0 <ph_add_child_node+0x98>)
10001198:	2171      	movs	r1, #113	; 0x71
1000119a:	480b      	ldr	r0, [pc, #44]	; (100011c8 <ph_add_child_node+0x90>)
1000119c:	f000 f9e2 	bl	10001564 <__assert_func>
100011a0:	4b0d      	ldr	r3, [pc, #52]	; (100011d8 <ph_add_child_node+0xa0>)
100011a2:	4a0b      	ldr	r2, [pc, #44]	; (100011d0 <ph_add_child_node+0x98>)
100011a4:	2172      	movs	r1, #114	; 0x72
100011a6:	4808      	ldr	r0, [pc, #32]	; (100011c8 <ph_add_child_node+0x90>)
100011a8:	f000 f9dc 	bl	10001564 <__assert_func>
100011ac:	4b04      	ldr	r3, [pc, #16]	; (100011c0 <ph_add_child_node+0x88>)
100011ae:	4a05      	ldr	r2, [pc, #20]	; (100011c4 <ph_add_child_node+0x8c>)
100011b0:	2169      	movs	r1, #105	; 0x69
100011b2:	4805      	ldr	r0, [pc, #20]	; (100011c8 <ph_add_child_node+0x90>)
100011b4:	f000 f9d6 	bl	10001564 <__assert_func>
100011b8:	7041      	strb	r1, [r0, #1]
100011ba:	701a      	strb	r2, [r3, #0]
100011bc:	e7dd      	b.n	1000117a <ph_add_child_node+0x42>
100011be:	46c0      	nop			; (mov r8, r8)
100011c0:	100046d0 	.word	0x100046d0
100011c4:	10004b58 	.word	0x10004b58
100011c8:	100046ec 	.word	0x100046ec
100011cc:	10004738 	.word	0x10004738
100011d0:	10004b44 	.word	0x10004b44
100011d4:	10004744 	.word	0x10004744
100011d8:	10004750 	.word	0x10004750

100011dc <ph_merge_nodes>:
100011dc:	b570      	push	{r4, r5, r6, lr}
100011de:	0006      	movs	r6, r0
100011e0:	000d      	movs	r5, r1
100011e2:	0014      	movs	r4, r2
100011e4:	2900      	cmp	r1, #0
100011e6:	d014      	beq.n	10001212 <ph_merge_nodes+0x36>
100011e8:	2a00      	cmp	r2, #0
100011ea:	d014      	beq.n	10001216 <ph_merge_nodes+0x3a>
100011ec:	6880      	ldr	r0, [r0, #8]
100011ee:	6873      	ldr	r3, [r6, #4]
100011f0:	4798      	blx	r3
100011f2:	2800      	cmp	r0, #0
100011f4:	d006      	beq.n	10001204 <ph_merge_nodes+0x28>
100011f6:	0022      	movs	r2, r4
100011f8:	0029      	movs	r1, r5
100011fa:	0030      	movs	r0, r6
100011fc:	f7ff ff9c 	bl	10001138 <ph_add_child_node>
10001200:	0028      	movs	r0, r5
10001202:	e007      	b.n	10001214 <ph_merge_nodes+0x38>
10001204:	002a      	movs	r2, r5
10001206:	0021      	movs	r1, r4
10001208:	0030      	movs	r0, r6
1000120a:	f7ff ff95 	bl	10001138 <ph_add_child_node>
1000120e:	0020      	movs	r0, r4
10001210:	e000      	b.n	10001214 <ph_merge_nodes+0x38>
10001212:	0010      	movs	r0, r2
10001214:	bd70      	pop	{r4, r5, r6, pc}
10001216:	0008      	movs	r0, r1
10001218:	e7fc      	b.n	10001214 <ph_merge_nodes+0x38>
	...

1000121c <ph_clear>:
1000121c:	b510      	push	{r4, lr}
1000121e:	2300      	movs	r3, #0
10001220:	7343      	strb	r3, [r0, #13]
10001222:	3301      	adds	r3, #1
10001224:	7383      	strb	r3, [r0, #14]
10001226:	7b03      	ldrb	r3, [r0, #12]
10001228:	73c3      	strb	r3, [r0, #15]
1000122a:	2301      	movs	r3, #1
1000122c:	7b02      	ldrb	r2, [r0, #12]
1000122e:	429a      	cmp	r2, r3
10001230:	d914      	bls.n	1000125c <ph_clear+0x40>
10001232:	2b00      	cmp	r3, #0
10001234:	d00c      	beq.n	10001250 <ph_clear+0x34>
10001236:	7b02      	ldrb	r2, [r0, #12]
10001238:	4293      	cmp	r3, r2
1000123a:	d809      	bhi.n	10001250 <ph_clear+0x34>
1000123c:	005a      	lsls	r2, r3, #1
1000123e:	18d2      	adds	r2, r2, r3
10001240:	3a03      	subs	r2, #3
10001242:	6801      	ldr	r1, [r0, #0]
10001244:	468c      	mov	ip, r1
10001246:	4462      	add	r2, ip
10001248:	3301      	adds	r3, #1
1000124a:	b2db      	uxtb	r3, r3
1000124c:	7053      	strb	r3, [r2, #1]
1000124e:	e7ed      	b.n	1000122c <ph_clear+0x10>
10001250:	4b0b      	ldr	r3, [pc, #44]	; (10001280 <ph_clear+0x64>)
10001252:	4a0c      	ldr	r2, [pc, #48]	; (10001284 <ph_clear+0x68>)
10001254:	2169      	movs	r1, #105	; 0x69
10001256:	480c      	ldr	r0, [pc, #48]	; (10001288 <ph_clear+0x6c>)
10001258:	f000 f984 	bl	10001564 <__assert_func>
1000125c:	2a00      	cmp	r2, #0
1000125e:	d009      	beq.n	10001274 <ph_clear+0x58>
10001260:	4292      	cmp	r2, r2
10001262:	d807      	bhi.n	10001274 <ph_clear+0x58>
10001264:	6801      	ldr	r1, [r0, #0]
10001266:	0053      	lsls	r3, r2, #1
10001268:	189a      	adds	r2, r3, r2
1000126a:	3a03      	subs	r2, #3
1000126c:	188a      	adds	r2, r1, r2
1000126e:	2300      	movs	r3, #0
10001270:	7053      	strb	r3, [r2, #1]
10001272:	bd10      	pop	{r4, pc}
10001274:	4b02      	ldr	r3, [pc, #8]	; (10001280 <ph_clear+0x64>)
10001276:	4a03      	ldr	r2, [pc, #12]	; (10001284 <ph_clear+0x68>)
10001278:	2169      	movs	r1, #105	; 0x69
1000127a:	4803      	ldr	r0, [pc, #12]	; (10001288 <ph_clear+0x6c>)
1000127c:	f000 f972 	bl	10001564 <__assert_func>
10001280:	100046d0 	.word	0x100046d0
10001284:	10004b58 	.word	0x10004b58
10001288:	100046ec 	.word	0x100046ec

1000128c <ph_post_alloc_init>:
1000128c:	b510      	push	{r4, lr}
1000128e:	7301      	strb	r1, [r0, #12]
10001290:	6042      	str	r2, [r0, #4]
10001292:	6083      	str	r3, [r0, #8]
10001294:	f7ff ffc2 	bl	1000121c <ph_clear>
10001298:	bd10      	pop	{r4, pc}
	...

1000129c <ph_merge_two_pass>:
1000129c:	b570      	push	{r4, r5, r6, lr}
1000129e:	0004      	movs	r4, r0
100012a0:	1e08      	subs	r0, r1, #0
100012a2:	d100      	bne.n	100012a6 <ph_merge_two_pass+0xa>
100012a4:	bd70      	pop	{r4, r5, r6, pc}
100012a6:	2900      	cmp	r1, #0
100012a8:	d034      	beq.n	10001314 <ph_merge_two_pass+0x78>
100012aa:	7b23      	ldrb	r3, [r4, #12]
100012ac:	4299      	cmp	r1, r3
100012ae:	d831      	bhi.n	10001314 <ph_merge_two_pass+0x78>
100012b0:	004b      	lsls	r3, r1, #1
100012b2:	185b      	adds	r3, r3, r1
100012b4:	3b03      	subs	r3, #3
100012b6:	6822      	ldr	r2, [r4, #0]
100012b8:	4694      	mov	ip, r2
100012ba:	4463      	add	r3, ip
100012bc:	785a      	ldrb	r2, [r3, #1]
100012be:	2a00      	cmp	r2, #0
100012c0:	d0f0      	beq.n	100012a4 <ph_merge_two_pass+0x8>
100012c2:	d02d      	beq.n	10001320 <ph_merge_two_pass+0x84>
100012c4:	7b23      	ldrb	r3, [r4, #12]
100012c6:	429a      	cmp	r2, r3
100012c8:	d82a      	bhi.n	10001320 <ph_merge_two_pass+0x84>
100012ca:	0053      	lsls	r3, r2, #1
100012cc:	189b      	adds	r3, r3, r2
100012ce:	3b03      	subs	r3, #3
100012d0:	6821      	ldr	r1, [r4, #0]
100012d2:	468c      	mov	ip, r1
100012d4:	4463      	add	r3, ip
100012d6:	785d      	ldrb	r5, [r3, #1]
100012d8:	2100      	movs	r1, #0
100012da:	7059      	strb	r1, [r3, #1]
100012dc:	2800      	cmp	r0, #0
100012de:	d025      	beq.n	1000132c <ph_merge_two_pass+0x90>
100012e0:	7b23      	ldrb	r3, [r4, #12]
100012e2:	4298      	cmp	r0, r3
100012e4:	d822      	bhi.n	1000132c <ph_merge_two_pass+0x90>
100012e6:	0043      	lsls	r3, r0, #1
100012e8:	181b      	adds	r3, r3, r0
100012ea:	3b03      	subs	r3, #3
100012ec:	6821      	ldr	r1, [r4, #0]
100012ee:	468c      	mov	ip, r1
100012f0:	4463      	add	r3, ip
100012f2:	2100      	movs	r1, #0
100012f4:	7059      	strb	r1, [r3, #1]
100012f6:	0001      	movs	r1, r0
100012f8:	0020      	movs	r0, r4
100012fa:	f7ff ff6f 	bl	100011dc <ph_merge_nodes>
100012fe:	0006      	movs	r6, r0
10001300:	0029      	movs	r1, r5
10001302:	0020      	movs	r0, r4
10001304:	f7ff ffca 	bl	1000129c <ph_merge_two_pass>
10001308:	0002      	movs	r2, r0
1000130a:	0031      	movs	r1, r6
1000130c:	0020      	movs	r0, r4
1000130e:	f7ff ff65 	bl	100011dc <ph_merge_nodes>
10001312:	e7c7      	b.n	100012a4 <ph_merge_two_pass+0x8>
10001314:	4b08      	ldr	r3, [pc, #32]	; (10001338 <ph_merge_two_pass+0x9c>)
10001316:	4a09      	ldr	r2, [pc, #36]	; (1000133c <ph_merge_two_pass+0xa0>)
10001318:	2169      	movs	r1, #105	; 0x69
1000131a:	4809      	ldr	r0, [pc, #36]	; (10001340 <ph_merge_two_pass+0xa4>)
1000131c:	f000 f922 	bl	10001564 <__assert_func>
10001320:	4b05      	ldr	r3, [pc, #20]	; (10001338 <ph_merge_two_pass+0x9c>)
10001322:	4a06      	ldr	r2, [pc, #24]	; (1000133c <ph_merge_two_pass+0xa0>)
10001324:	2169      	movs	r1, #105	; 0x69
10001326:	4806      	ldr	r0, [pc, #24]	; (10001340 <ph_merge_two_pass+0xa4>)
10001328:	f000 f91c 	bl	10001564 <__assert_func>
1000132c:	4b02      	ldr	r3, [pc, #8]	; (10001338 <ph_merge_two_pass+0x9c>)
1000132e:	4a03      	ldr	r2, [pc, #12]	; (1000133c <ph_merge_two_pass+0xa0>)
10001330:	2169      	movs	r1, #105	; 0x69
10001332:	4803      	ldr	r0, [pc, #12]	; (10001340 <ph_merge_two_pass+0xa4>)
10001334:	f000 f916 	bl	10001564 <__assert_func>
10001338:	100046d0 	.word	0x100046d0
1000133c:	10004b58 	.word	0x10004b58
10001340:	100046ec 	.word	0x100046ec

10001344 <ph_remove_any_head>:
10001344:	b570      	push	{r4, r5, r6, lr}
10001346:	0005      	movs	r5, r0
10001348:	000c      	movs	r4, r1
1000134a:	0016      	movs	r6, r2
1000134c:	2900      	cmp	r1, #0
1000134e:	d028      	beq.n	100013a2 <ph_remove_any_head+0x5e>
10001350:	d02d      	beq.n	100013ae <ph_remove_any_head+0x6a>
10001352:	7b03      	ldrb	r3, [r0, #12]
10001354:	4299      	cmp	r1, r3
10001356:	d82a      	bhi.n	100013ae <ph_remove_any_head+0x6a>
10001358:	004b      	lsls	r3, r1, #1
1000135a:	185b      	adds	r3, r3, r1
1000135c:	3b03      	subs	r3, #3
1000135e:	6802      	ldr	r2, [r0, #0]
10001360:	4694      	mov	ip, r2
10001362:	4463      	add	r3, ip
10001364:	785a      	ldrb	r2, [r3, #1]
10001366:	2a00      	cmp	r2, #0
10001368:	d127      	bne.n	100013ba <ph_remove_any_head+0x76>
1000136a:	789a      	ldrb	r2, [r3, #2]
1000136c:	2a00      	cmp	r2, #0
1000136e:	d12a      	bne.n	100013c6 <ph_remove_any_head+0x82>
10001370:	7819      	ldrb	r1, [r3, #0]
10001372:	f7ff ff93 	bl	1000129c <ph_merge_two_pass>
10001376:	0003      	movs	r3, r0
10001378:	2e00      	cmp	r6, #0
1000137a:	d003      	beq.n	10001384 <ph_remove_any_head+0x40>
1000137c:	7bea      	ldrb	r2, [r5, #15]
1000137e:	2a00      	cmp	r2, #0
10001380:	d127      	bne.n	100013d2 <ph_remove_any_head+0x8e>
10001382:	73ec      	strb	r4, [r5, #15]
10001384:	2b00      	cmp	r3, #0
10001386:	d137      	bne.n	100013f8 <ph_remove_any_head+0xb4>
10001388:	2c00      	cmp	r4, #0
1000138a:	d049      	beq.n	10001420 <ph_remove_any_head+0xdc>
1000138c:	7b2b      	ldrb	r3, [r5, #12]
1000138e:	429c      	cmp	r4, r3
10001390:	d846      	bhi.n	10001420 <ph_remove_any_head+0xdc>
10001392:	682b      	ldr	r3, [r5, #0]
10001394:	0061      	lsls	r1, r4, #1
10001396:	190c      	adds	r4, r1, r4
10001398:	3c03      	subs	r4, #3
1000139a:	191c      	adds	r4, r3, r4
1000139c:	2300      	movs	r3, #0
1000139e:	7063      	strb	r3, [r4, #1]
100013a0:	bd70      	pop	{r4, r5, r6, pc}
100013a2:	4b22      	ldr	r3, [pc, #136]	; (1000142c <ph_remove_any_head+0xe8>)
100013a4:	4a22      	ldr	r2, [pc, #136]	; (10001430 <ph_remove_any_head+0xec>)
100013a6:	2138      	movs	r1, #56	; 0x38
100013a8:	4822      	ldr	r0, [pc, #136]	; (10001434 <ph_remove_any_head+0xf0>)
100013aa:	f000 f8db 	bl	10001564 <__assert_func>
100013ae:	4b22      	ldr	r3, [pc, #136]	; (10001438 <ph_remove_any_head+0xf4>)
100013b0:	4a22      	ldr	r2, [pc, #136]	; (1000143c <ph_remove_any_head+0xf8>)
100013b2:	2169      	movs	r1, #105	; 0x69
100013b4:	4822      	ldr	r0, [pc, #136]	; (10001440 <ph_remove_any_head+0xfc>)
100013b6:	f000 f8d5 	bl	10001564 <__assert_func>
100013ba:	4b22      	ldr	r3, [pc, #136]	; (10001444 <ph_remove_any_head+0x100>)
100013bc:	4a1c      	ldr	r2, [pc, #112]	; (10001430 <ph_remove_any_head+0xec>)
100013be:	213a      	movs	r1, #58	; 0x3a
100013c0:	481c      	ldr	r0, [pc, #112]	; (10001434 <ph_remove_any_head+0xf0>)
100013c2:	f000 f8cf 	bl	10001564 <__assert_func>
100013c6:	4b20      	ldr	r3, [pc, #128]	; (10001448 <ph_remove_any_head+0x104>)
100013c8:	4a19      	ldr	r2, [pc, #100]	; (10001430 <ph_remove_any_head+0xec>)
100013ca:	213b      	movs	r1, #59	; 0x3b
100013cc:	4819      	ldr	r0, [pc, #100]	; (10001434 <ph_remove_any_head+0xf0>)
100013ce:	f000 f8c9 	bl	10001564 <__assert_func>
100013d2:	2a00      	cmp	r2, #0
100013d4:	d00a      	beq.n	100013ec <ph_remove_any_head+0xa8>
100013d6:	7b29      	ldrb	r1, [r5, #12]
100013d8:	428a      	cmp	r2, r1
100013da:	d807      	bhi.n	100013ec <ph_remove_any_head+0xa8>
100013dc:	0051      	lsls	r1, r2, #1
100013de:	188a      	adds	r2, r1, r2
100013e0:	3a03      	subs	r2, #3
100013e2:	6829      	ldr	r1, [r5, #0]
100013e4:	468c      	mov	ip, r1
100013e6:	4462      	add	r2, ip
100013e8:	7054      	strb	r4, [r2, #1]
100013ea:	e7ca      	b.n	10001382 <ph_remove_any_head+0x3e>
100013ec:	4b12      	ldr	r3, [pc, #72]	; (10001438 <ph_remove_any_head+0xf4>)
100013ee:	4a13      	ldr	r2, [pc, #76]	; (1000143c <ph_remove_any_head+0xf8>)
100013f0:	2169      	movs	r1, #105	; 0x69
100013f2:	4813      	ldr	r0, [pc, #76]	; (10001440 <ph_remove_any_head+0xfc>)
100013f4:	f000 f8b6 	bl	10001564 <__assert_func>
100013f8:	2b00      	cmp	r3, #0
100013fa:	d00b      	beq.n	10001414 <ph_remove_any_head+0xd0>
100013fc:	7b2a      	ldrb	r2, [r5, #12]
100013fe:	4293      	cmp	r3, r2
10001400:	d808      	bhi.n	10001414 <ph_remove_any_head+0xd0>
10001402:	0043      	lsls	r3, r0, #1
10001404:	181b      	adds	r3, r3, r0
10001406:	3b03      	subs	r3, #3
10001408:	682a      	ldr	r2, [r5, #0]
1000140a:	4694      	mov	ip, r2
1000140c:	4463      	add	r3, ip
1000140e:	2200      	movs	r2, #0
10001410:	709a      	strb	r2, [r3, #2]
10001412:	e7b9      	b.n	10001388 <ph_remove_any_head+0x44>
10001414:	4b08      	ldr	r3, [pc, #32]	; (10001438 <ph_remove_any_head+0xf4>)
10001416:	4a09      	ldr	r2, [pc, #36]	; (1000143c <ph_remove_any_head+0xf8>)
10001418:	2169      	movs	r1, #105	; 0x69
1000141a:	4809      	ldr	r0, [pc, #36]	; (10001440 <ph_remove_any_head+0xfc>)
1000141c:	f000 f8a2 	bl	10001564 <__assert_func>
10001420:	4b05      	ldr	r3, [pc, #20]	; (10001438 <ph_remove_any_head+0xf4>)
10001422:	4a06      	ldr	r2, [pc, #24]	; (1000143c <ph_remove_any_head+0xf8>)
10001424:	2169      	movs	r1, #105	; 0x69
10001426:	4806      	ldr	r0, [pc, #24]	; (10001440 <ph_remove_any_head+0xfc>)
10001428:	f000 f89c 	bl	10001564 <__assert_func>
1000142c:	10004a64 	.word	0x10004a64
10001430:	10004b30 	.word	0x10004b30
10001434:	10004a6c 	.word	0x10004a6c
10001438:	100046d0 	.word	0x100046d0
1000143c:	10004b58 	.word	0x10004b58
10001440:	100046ec 	.word	0x100046ec
10001444:	10004aa4 	.word	0x10004aa4
10001448:	10004acc 	.word	0x10004acc

1000144c <ph_remove_head>:
1000144c:	b570      	push	{r4, r5, r6, lr}
1000144e:	0004      	movs	r4, r0
10001450:	000a      	movs	r2, r1
10001452:	7b45      	ldrb	r5, [r0, #13]
10001454:	0029      	movs	r1, r5
10001456:	f7ff ff75 	bl	10001344 <ph_remove_any_head>
1000145a:	7360      	strb	r0, [r4, #13]
1000145c:	0028      	movs	r0, r5
1000145e:	bd70      	pop	{r4, r5, r6, pc}

10001460 <ph_remove_and_free_node>:
10001460:	b570      	push	{r4, r5, r6, lr}
10001462:	0004      	movs	r4, r0
10001464:	2900      	cmp	r1, #0
10001466:	d067      	beq.n	10001538 <ph_remove_and_free_node+0xd8>
10001468:	7b43      	ldrb	r3, [r0, #13]
1000146a:	428b      	cmp	r3, r1
1000146c:	d00e      	beq.n	1000148c <ph_remove_and_free_node+0x2c>
1000146e:	2900      	cmp	r1, #0
10001470:	d011      	beq.n	10001496 <ph_remove_and_free_node+0x36>
10001472:	7b03      	ldrb	r3, [r0, #12]
10001474:	4299      	cmp	r1, r3
10001476:	d80e      	bhi.n	10001496 <ph_remove_and_free_node+0x36>
10001478:	004b      	lsls	r3, r1, #1
1000147a:	185b      	adds	r3, r3, r1
1000147c:	3b03      	subs	r3, #3
1000147e:	6802      	ldr	r2, [r0, #0]
10001480:	18d0      	adds	r0, r2, r3
10001482:	7883      	ldrb	r3, [r0, #2]
10001484:	2b00      	cmp	r3, #0
10001486:	d10c      	bne.n	100014a2 <ph_remove_and_free_node+0x42>
10001488:	2000      	movs	r0, #0
1000148a:	e056      	b.n	1000153a <ph_remove_and_free_node+0xda>
1000148c:	2101      	movs	r1, #1
1000148e:	f7ff ffdd 	bl	1000144c <ph_remove_head>
10001492:	2001      	movs	r0, #1
10001494:	e051      	b.n	1000153a <ph_remove_and_free_node+0xda>
10001496:	4b29      	ldr	r3, [pc, #164]	; (1000153c <ph_remove_and_free_node+0xdc>)
10001498:	4a29      	ldr	r2, [pc, #164]	; (10001540 <ph_remove_and_free_node+0xe0>)
1000149a:	2169      	movs	r1, #105	; 0x69
1000149c:	4829      	ldr	r0, [pc, #164]	; (10001544 <ph_remove_and_free_node+0xe4>)
1000149e:	f000 f861 	bl	10001564 <__assert_func>
100014a2:	2b00      	cmp	r3, #0
100014a4:	d020      	beq.n	100014e8 <ph_remove_and_free_node+0x88>
100014a6:	7b22      	ldrb	r2, [r4, #12]
100014a8:	4293      	cmp	r3, r2
100014aa:	d81d      	bhi.n	100014e8 <ph_remove_and_free_node+0x88>
100014ac:	005a      	lsls	r2, r3, #1
100014ae:	18d3      	adds	r3, r2, r3
100014b0:	3b03      	subs	r3, #3
100014b2:	6822      	ldr	r2, [r4, #0]
100014b4:	18d2      	adds	r2, r2, r3
100014b6:	6825      	ldr	r5, [r4, #0]
100014b8:	5ceb      	ldrb	r3, [r5, r3]
100014ba:	428b      	cmp	r3, r1
100014bc:	d01a      	beq.n	100014f4 <ph_remove_and_free_node+0x94>
100014be:	2b00      	cmp	r3, #0
100014c0:	d01b      	beq.n	100014fa <ph_remove_and_free_node+0x9a>
100014c2:	7b22      	ldrb	r2, [r4, #12]
100014c4:	4293      	cmp	r3, r2
100014c6:	d818      	bhi.n	100014fa <ph_remove_and_free_node+0x9a>
100014c8:	005a      	lsls	r2, r3, #1
100014ca:	18d3      	adds	r3, r2, r3
100014cc:	3b03      	subs	r3, #3
100014ce:	6822      	ldr	r2, [r4, #0]
100014d0:	18d2      	adds	r2, r2, r3
100014d2:	7853      	ldrb	r3, [r2, #1]
100014d4:	428b      	cmp	r3, r1
100014d6:	d016      	beq.n	10001506 <ph_remove_and_free_node+0xa6>
100014d8:	2b00      	cmp	r3, #0
100014da:	d1f0      	bne.n	100014be <ph_remove_and_free_node+0x5e>
100014dc:	4b1a      	ldr	r3, [pc, #104]	; (10001548 <ph_remove_and_free_node+0xe8>)
100014de:	4a1b      	ldr	r2, [pc, #108]	; (1000154c <ph_remove_and_free_node+0xec>)
100014e0:	2167      	movs	r1, #103	; 0x67
100014e2:	481b      	ldr	r0, [pc, #108]	; (10001550 <ph_remove_and_free_node+0xf0>)
100014e4:	f000 f83e 	bl	10001564 <__assert_func>
100014e8:	4b14      	ldr	r3, [pc, #80]	; (1000153c <ph_remove_and_free_node+0xdc>)
100014ea:	4a15      	ldr	r2, [pc, #84]	; (10001540 <ph_remove_and_free_node+0xe0>)
100014ec:	2169      	movs	r1, #105	; 0x69
100014ee:	4815      	ldr	r0, [pc, #84]	; (10001544 <ph_remove_and_free_node+0xe4>)
100014f0:	f000 f838 	bl	10001564 <__assert_func>
100014f4:	7843      	ldrb	r3, [r0, #1]
100014f6:	7013      	strb	r3, [r2, #0]
100014f8:	e007      	b.n	1000150a <ph_remove_and_free_node+0xaa>
100014fa:	4b10      	ldr	r3, [pc, #64]	; (1000153c <ph_remove_and_free_node+0xdc>)
100014fc:	4a10      	ldr	r2, [pc, #64]	; (10001540 <ph_remove_and_free_node+0xe0>)
100014fe:	2169      	movs	r1, #105	; 0x69
10001500:	4810      	ldr	r0, [pc, #64]	; (10001544 <ph_remove_and_free_node+0xe4>)
10001502:	f000 f82f 	bl	10001564 <__assert_func>
10001506:	7843      	ldrb	r3, [r0, #1]
10001508:	7053      	strb	r3, [r2, #1]
1000150a:	2300      	movs	r3, #0
1000150c:	7083      	strb	r3, [r0, #2]
1000150e:	7043      	strb	r3, [r0, #1]
10001510:	2201      	movs	r2, #1
10001512:	0020      	movs	r0, r4
10001514:	f7ff ff16 	bl	10001344 <ph_remove_any_head>
10001518:	0002      	movs	r2, r0
1000151a:	7b61      	ldrb	r1, [r4, #13]
1000151c:	4281      	cmp	r1, r0
1000151e:	d005      	beq.n	1000152c <ph_remove_and_free_node+0xcc>
10001520:	0020      	movs	r0, r4
10001522:	f7ff fe5b 	bl	100011dc <ph_merge_nodes>
10001526:	7360      	strb	r0, [r4, #13]
10001528:	2001      	movs	r0, #1
1000152a:	e006      	b.n	1000153a <ph_remove_and_free_node+0xda>
1000152c:	4b09      	ldr	r3, [pc, #36]	; (10001554 <ph_remove_and_free_node+0xf4>)
1000152e:	4a07      	ldr	r2, [pc, #28]	; (1000154c <ph_remove_and_free_node+0xec>)
10001530:	216d      	movs	r1, #109	; 0x6d
10001532:	4807      	ldr	r0, [pc, #28]	; (10001550 <ph_remove_and_free_node+0xf0>)
10001534:	f000 f816 	bl	10001564 <__assert_func>
10001538:	2000      	movs	r0, #0
1000153a:	bd70      	pop	{r4, r5, r6, pc}
1000153c:	100046d0 	.word	0x100046d0
10001540:	10004b58 	.word	0x10004b58
10001544:	100046ec 	.word	0x100046ec
10001548:	10004af0 	.word	0x10004af0
1000154c:	10004b18 	.word	0x10004b18
10001550:	10004a6c 	.word	0x10004a6c
10001554:	10004af8 	.word	0x10004af8

10001558 <_exit>:
10001558:	be00      	bkpt	0x0000
1000155a:	e7fd      	b.n	10001558 <_exit>

1000155c <exit>:
1000155c:	b510      	push	{r4, lr}
1000155e:	f7ff fffb 	bl	10001558 <_exit>
	...

10001564 <__assert_func>:
10001564:	b510      	push	{r4, lr}
10001566:	b082      	sub	sp, #8
10001568:	000c      	movs	r4, r1
1000156a:	0019      	movs	r1, r3
1000156c:	2a00      	cmp	r2, #0
1000156e:	d00c      	beq.n	1000158a <__assert_func+0x26>
10001570:	4b08      	ldr	r3, [pc, #32]	; (10001594 <__assert_func+0x30>)
10001572:	2a00      	cmp	r2, #0
10001574:	d00b      	beq.n	1000158e <__assert_func+0x2a>
10001576:	9201      	str	r2, [sp, #4]
10001578:	9300      	str	r3, [sp, #0]
1000157a:	0023      	movs	r3, r4
1000157c:	0002      	movs	r2, r0
1000157e:	4806      	ldr	r0, [pc, #24]	; (10001598 <__assert_func+0x34>)
10001580:	f002 fe00 	bl	10004184 <__wrap_printf>
10001584:	2001      	movs	r0, #1
10001586:	f7ff ffe7 	bl	10001558 <_exit>
1000158a:	4b04      	ldr	r3, [pc, #16]	; (1000159c <__assert_func+0x38>)
1000158c:	e7f1      	b.n	10001572 <__assert_func+0xe>
1000158e:	4a03      	ldr	r2, [pc, #12]	; (1000159c <__assert_func+0x38>)
10001590:	e7f1      	b.n	10001576 <__assert_func+0x12>
10001592:	46c0      	nop			; (mov r8, r8)
10001594:	10004b64 	.word	0x10004b64
10001598:	10004b74 	.word	0x10004b74
1000159c:	100045ac 	.word	0x100045ac

100015a0 <runtime_init>:
100015a0:	b570      	push	{r4, r5, r6, lr}
100015a2:	4b2b      	ldr	r3, [pc, #172]	; (10001650 <runtime_init+0xb0>)
100015a4:	4a2b      	ldr	r2, [pc, #172]	; (10001654 <runtime_init+0xb4>)
100015a6:	601a      	str	r2, [r3, #0]
100015a8:	4b2b      	ldr	r3, [pc, #172]	; (10001658 <runtime_init+0xb8>)
100015aa:	4a2c      	ldr	r2, [pc, #176]	; (1000165c <runtime_init+0xbc>)
100015ac:	601a      	str	r2, [r3, #0]
100015ae:	4b2c      	ldr	r3, [pc, #176]	; (10001660 <runtime_init+0xc0>)
100015b0:	689a      	ldr	r2, [r3, #8]
100015b2:	4b2a      	ldr	r3, [pc, #168]	; (1000165c <runtime_init+0xbc>)
100015b4:	4393      	bics	r3, r2
100015b6:	d1fa      	bne.n	100015ae <runtime_init+0xe>
100015b8:	4c2a      	ldr	r4, [pc, #168]	; (10001664 <runtime_init+0xc4>)
100015ba:	e001      	b.n	100015c0 <runtime_init+0x20>
100015bc:	cc08      	ldmia	r4!, {r3}
100015be:	4798      	blx	r3
100015c0:	4b29      	ldr	r3, [pc, #164]	; (10001668 <runtime_init+0xc8>)
100015c2:	429c      	cmp	r4, r3
100015c4:	d3fa      	bcc.n	100015bc <runtime_init+0x1c>
100015c6:	f000 f901 	bl	100017cc <clocks_init>
100015ca:	4b23      	ldr	r3, [pc, #140]	; (10001658 <runtime_init+0xb8>)
100015cc:	4a27      	ldr	r2, [pc, #156]	; (1000166c <runtime_init+0xcc>)
100015ce:	601a      	str	r2, [r3, #0]
100015d0:	4b23      	ldr	r3, [pc, #140]	; (10001660 <runtime_init+0xc0>)
100015d2:	689b      	ldr	r3, [r3, #8]
100015d4:	43db      	mvns	r3, r3
100015d6:	01db      	lsls	r3, r3, #7
100015d8:	d1fa      	bne.n	100015d0 <runtime_init+0x30>
100015da:	4b25      	ldr	r3, [pc, #148]	; (10001670 <runtime_init+0xd0>)
100015dc:	2240      	movs	r2, #64	; 0x40
100015de:	679a      	str	r2, [r3, #120]	; 0x78
100015e0:	675a      	str	r2, [r3, #116]	; 0x74
100015e2:	671a      	str	r2, [r3, #112]	; 0x70
100015e4:	66da      	str	r2, [r3, #108]	; 0x6c
100015e6:	4c23      	ldr	r4, [pc, #140]	; (10001674 <runtime_init+0xd4>)
100015e8:	e009      	b.n	100015fe <runtime_init+0x5e>
100015ea:	4b23      	ldr	r3, [pc, #140]	; (10001678 <runtime_init+0xd8>)
100015ec:	4a23      	ldr	r2, [pc, #140]	; (1000167c <runtime_init+0xdc>)
100015ee:	2183      	movs	r1, #131	; 0x83
100015f0:	4823      	ldr	r0, [pc, #140]	; (10001680 <runtime_init+0xe0>)
100015f2:	f7ff ffb7 	bl	10001564 <__assert_func>
100015f6:	0020      	movs	r0, r4
100015f8:	f7ff fd82 	bl	10001100 <mutex_init>
100015fc:	3408      	adds	r4, #8
100015fe:	4b21      	ldr	r3, [pc, #132]	; (10001684 <runtime_init+0xe4>)
10001600:	429c      	cmp	r4, r3
10001602:	d209      	bcs.n	10001618 <runtime_init+0x78>
10001604:	6823      	ldr	r3, [r4, #0]
10001606:	2b00      	cmp	r3, #0
10001608:	d0f5      	beq.n	100015f6 <runtime_init+0x56>
1000160a:	2b01      	cmp	r3, #1
1000160c:	d1ed      	bne.n	100015ea <runtime_init+0x4a>
1000160e:	0020      	movs	r0, r4
10001610:	f7ff fd83 	bl	1000111a <recursive_mutex_init>
10001614:	3408      	adds	r4, #8
10001616:	e7f2      	b.n	100015fe <runtime_init+0x5e>
10001618:	4c1b      	ldr	r4, [pc, #108]	; (10001688 <runtime_init+0xe8>)
1000161a:	68a1      	ldr	r1, [r4, #8]
1000161c:	4d1b      	ldr	r5, [pc, #108]	; (1000168c <runtime_init+0xec>)
1000161e:	22c0      	movs	r2, #192	; 0xc0
10001620:	0028      	movs	r0, r5
10001622:	f002 fc65 	bl	10003ef0 <__wrap___aeabi_memcpy>
10001626:	60a5      	str	r5, [r4, #8]
10001628:	f7fe fe1d 	bl	10000266 <__get_current_exception>
1000162c:	2800      	cmp	r0, #0
1000162e:	d000      	beq.n	10001632 <runtime_init+0x92>
10001630:	be00      	bkpt	0x0000
10001632:	f7ff f849 	bl	100006c8 <spin_locks_reset>
10001636:	f000 fb41 	bl	10001cbc <irq_init_priorities>
1000163a:	f7ff fc03 	bl	10000e44 <alarm_pool_init_default>
1000163e:	4c14      	ldr	r4, [pc, #80]	; (10001690 <runtime_init+0xf0>)
10001640:	e001      	b.n	10001646 <runtime_init+0xa6>
10001642:	cc08      	ldmia	r4!, {r3}
10001644:	4798      	blx	r3
10001646:	4b13      	ldr	r3, [pc, #76]	; (10001694 <runtime_init+0xf4>)
10001648:	429c      	cmp	r4, r3
1000164a:	d3fa      	bcc.n	10001642 <runtime_init+0xa2>
1000164c:	bd70      	pop	{r4, r5, r6, pc}
1000164e:	46c0      	nop			; (mov r8, r8)
10001650:	4000e000 	.word	0x4000e000
10001654:	fefbcdbf 	.word	0xfefbcdbf
10001658:	4000f000 	.word	0x4000f000
1000165c:	003c7ffe 	.word	0x003c7ffe
10001660:	4000c000 	.word	0x4000c000
10001664:	20000274 	.word	0x20000274
10001668:	20000284 	.word	0x20000284
1000166c:	01ffffff 	.word	0x01ffffff
10001670:	4001f000 	.word	0x4001f000
10001674:	20000264 	.word	0x20000264
10001678:	10004ba4 	.word	0x10004ba4
1000167c:	10004c1c 	.word	0x10004c1c
10001680:	10004bc4 	.word	0x10004bc4
10001684:	20000274 	.word	0x20000274
10001688:	e000ed00 	.word	0xe000ed00
1000168c:	20000000 	.word	0x20000000
10001690:	20000284 	.word	0x20000284
10001694:	20000288 	.word	0x20000288

10001698 <panic>:
10001698:	b40f      	push	{r0, r1, r2, r3}
1000169a:	b500      	push	{lr}
1000169c:	b083      	sub	sp, #12
1000169e:	4808      	ldr	r0, [pc, #32]	; (100016c0 <panic+0x28>)
100016a0:	f002 fd3e 	bl	10004120 <__wrap_puts>
100016a4:	9b04      	ldr	r3, [sp, #16]
100016a6:	2b00      	cmp	r3, #0
100016a8:	d007      	beq.n	100016ba <panic+0x22>
100016aa:	a905      	add	r1, sp, #20
100016ac:	9101      	str	r1, [sp, #4]
100016ae:	0018      	movs	r0, r3
100016b0:	f002 fd46 	bl	10004140 <__wrap_vprintf>
100016b4:	4803      	ldr	r0, [pc, #12]	; (100016c4 <panic+0x2c>)
100016b6:	f002 fd33 	bl	10004120 <__wrap_puts>
100016ba:	2001      	movs	r0, #1
100016bc:	f7ff ff4c 	bl	10001558 <_exit>
100016c0:	10004c08 	.word	0x10004c08
100016c4:	10004c18 	.word	0x10004c18

100016c8 <clock_configure>:
100016c8:	b5f8      	push	{r3, r4, r5, r6, r7, lr}
100016ca:	46de      	mov	lr, fp
100016cc:	4657      	mov	r7, sl
100016ce:	464e      	mov	r6, r9
100016d0:	4645      	mov	r5, r8
100016d2:	b5e0      	push	{r5, r6, r7, lr}
100016d4:	0005      	movs	r5, r0
100016d6:	000f      	movs	r7, r1
100016d8:	4692      	mov	sl, r2
100016da:	9a0a      	ldr	r2, [sp, #40]	; 0x28
100016dc:	4293      	cmp	r3, r2
100016de:	d34e      	bcc.n	1000177e <clock_configure+0xb6>
100016e0:	0e1a      	lsrs	r2, r3, #24
100016e2:	4691      	mov	r9, r2
100016e4:	021e      	lsls	r6, r3, #8
100016e6:	9a0a      	ldr	r2, [sp, #40]	; 0x28
100016e8:	2300      	movs	r3, #0
100016ea:	0030      	movs	r0, r6
100016ec:	4649      	mov	r1, r9
100016ee:	f001 fcd9 	bl	100030a4 <__wrap___aeabi_uldivmod>
100016f2:	4680      	mov	r8, r0
100016f4:	006c      	lsls	r4, r5, #1
100016f6:	1964      	adds	r4, r4, r5
100016f8:	00a4      	lsls	r4, r4, #2
100016fa:	4b2f      	ldr	r3, [pc, #188]	; (100017b8 <clock_configure+0xf0>)
100016fc:	469c      	mov	ip, r3
100016fe:	4464      	add	r4, ip
10001700:	6863      	ldr	r3, [r4, #4]
10001702:	4283      	cmp	r3, r0
10001704:	d200      	bcs.n	10001708 <clock_configure+0x40>
10001706:	6060      	str	r0, [r4, #4]
10001708:	1f2b      	subs	r3, r5, #4
1000170a:	b2db      	uxtb	r3, r3
1000170c:	469b      	mov	fp, r3
1000170e:	2b01      	cmp	r3, #1
10001710:	d93b      	bls.n	1000178a <clock_configure+0xc2>
10001712:	23c0      	movs	r3, #192	; 0xc0
10001714:	019b      	lsls	r3, r3, #6
10001716:	4323      	orrs	r3, r4
10001718:	2280      	movs	r2, #128	; 0x80
1000171a:	0112      	lsls	r2, r2, #4
1000171c:	601a      	str	r2, [r3, #0]
1000171e:	00ab      	lsls	r3, r5, #2
10001720:	4a26      	ldr	r2, [pc, #152]	; (100017bc <clock_configure+0xf4>)
10001722:	5899      	ldr	r1, [r3, r2]
10001724:	2900      	cmp	r1, #0
10001726:	d005      	beq.n	10001734 <clock_configure+0x6c>
10001728:	6950      	ldr	r0, [r2, #20]
1000172a:	f001 fc79 	bl	10003020 <__wrap___aeabi_uidiv>
1000172e:	3001      	adds	r0, #1
10001730:	3801      	subs	r0, #1
10001732:	d1fd      	bne.n	10001730 <clock_configure+0x68>
10001734:	4653      	mov	r3, sl
10001736:	015a      	lsls	r2, r3, #5
10001738:	6823      	ldr	r3, [r4, #0]
1000173a:	405a      	eors	r2, r3
1000173c:	23e0      	movs	r3, #224	; 0xe0
1000173e:	401a      	ands	r2, r3
10001740:	2380      	movs	r3, #128	; 0x80
10001742:	015b      	lsls	r3, r3, #5
10001744:	4323      	orrs	r3, r4
10001746:	601a      	str	r2, [r3, #0]
10001748:	465a      	mov	r2, fp
1000174a:	2a01      	cmp	r2, #1
1000174c:	d928      	bls.n	100017a0 <clock_configure+0xd8>
1000174e:	2380      	movs	r3, #128	; 0x80
10001750:	019b      	lsls	r3, r3, #6
10001752:	4323      	orrs	r3, r4
10001754:	2280      	movs	r2, #128	; 0x80
10001756:	0112      	lsls	r2, r2, #4
10001758:	601a      	str	r2, [r3, #0]
1000175a:	4643      	mov	r3, r8
1000175c:	6063      	str	r3, [r4, #4]
1000175e:	4642      	mov	r2, r8
10001760:	2300      	movs	r3, #0
10001762:	0030      	movs	r0, r6
10001764:	4649      	mov	r1, r9
10001766:	f001 fc9d 	bl	100030a4 <__wrap___aeabi_uldivmod>
1000176a:	00ad      	lsls	r5, r5, #2
1000176c:	4b13      	ldr	r3, [pc, #76]	; (100017bc <clock_configure+0xf4>)
1000176e:	5158      	str	r0, [r3, r5]
10001770:	2001      	movs	r0, #1
10001772:	bcf0      	pop	{r4, r5, r6, r7}
10001774:	46bb      	mov	fp, r7
10001776:	46b2      	mov	sl, r6
10001778:	46a9      	mov	r9, r5
1000177a:	46a0      	mov	r8, r4
1000177c:	bdf8      	pop	{r3, r4, r5, r6, r7, pc}
1000177e:	4b10      	ldr	r3, [pc, #64]	; (100017c0 <clock_configure+0xf8>)
10001780:	4a10      	ldr	r2, [pc, #64]	; (100017c4 <clock_configure+0xfc>)
10001782:	212d      	movs	r1, #45	; 0x2d
10001784:	4810      	ldr	r0, [pc, #64]	; (100017c8 <clock_configure+0x100>)
10001786:	f7ff feed 	bl	10001564 <__assert_func>
1000178a:	2f01      	cmp	r7, #1
1000178c:	d1c1      	bne.n	10001712 <clock_configure+0x4a>
1000178e:	23c0      	movs	r3, #192	; 0xc0
10001790:	019b      	lsls	r3, r3, #6
10001792:	4323      	orrs	r3, r4
10001794:	2203      	movs	r2, #3
10001796:	601a      	str	r2, [r3, #0]
10001798:	68a3      	ldr	r3, [r4, #8]
1000179a:	07db      	lsls	r3, r3, #31
1000179c:	d5fc      	bpl.n	10001798 <clock_configure+0xd0>
1000179e:	e7c9      	b.n	10001734 <clock_configure+0x6c>
100017a0:	6821      	ldr	r1, [r4, #0]
100017a2:	4079      	eors	r1, r7
100017a4:	2203      	movs	r2, #3
100017a6:	400a      	ands	r2, r1
100017a8:	601a      	str	r2, [r3, #0]
100017aa:	68a2      	ldr	r2, [r4, #8]
100017ac:	2301      	movs	r3, #1
100017ae:	40bb      	lsls	r3, r7
100017b0:	4213      	tst	r3, r2
100017b2:	d0fa      	beq.n	100017aa <clock_configure+0xe2>
100017b4:	e7cb      	b.n	1000174e <clock_configure+0x86>
100017b6:	46c0      	nop			; (mov r8, r8)
100017b8:	40008000 	.word	0x40008000
100017bc:	200003b4 	.word	0x200003b4
100017c0:	10004c2c 	.word	0x10004c2c
100017c4:	10004c84 	.word	0x10004c84
100017c8:	10004c40 	.word	0x10004c40

100017cc <clocks_init>:
100017cc:	b530      	push	{r4, r5, lr}
100017ce:	b083      	sub	sp, #12
100017d0:	200c      	movs	r0, #12
100017d2:	f000 fb0d 	bl	10001df0 <watchdog_start_tick>
100017d6:	f7fe ff6d 	bl	100006b4 <running_on_fpga>
100017da:	2800      	cmp	r0, #0
100017dc:	d00d      	beq.n	100017fa <clocks_init+0x2e>
100017de:	2300      	movs	r3, #0
100017e0:	e004      	b.n	100017ec <clocks_init+0x20>
100017e2:	0099      	lsls	r1, r3, #2
100017e4:	4a2d      	ldr	r2, [pc, #180]	; (1000189c <clocks_init+0xd0>)
100017e6:	482e      	ldr	r0, [pc, #184]	; (100018a0 <clocks_init+0xd4>)
100017e8:	5088      	str	r0, [r1, r2]
100017ea:	3301      	adds	r3, #1
100017ec:	2b09      	cmp	r3, #9
100017ee:	d9f8      	bls.n	100017e2 <clocks_init+0x16>
100017f0:	4b2a      	ldr	r3, [pc, #168]	; (1000189c <clocks_init+0xd0>)
100017f2:	4a2c      	ldr	r2, [pc, #176]	; (100018a4 <clocks_init+0xd8>)
100017f4:	625a      	str	r2, [r3, #36]	; 0x24
100017f6:	b003      	add	sp, #12
100017f8:	bd30      	pop	{r4, r5, pc}
100017fa:	4b2b      	ldr	r3, [pc, #172]	; (100018a8 <clocks_init+0xdc>)
100017fc:	2200      	movs	r2, #0
100017fe:	679a      	str	r2, [r3, #120]	; 0x78
10001800:	f000 fafe 	bl	10001e00 <xosc_init>
10001804:	4b29      	ldr	r3, [pc, #164]	; (100018ac <clocks_init+0xe0>)
10001806:	2201      	movs	r2, #1
10001808:	601a      	str	r2, [r3, #0]
1000180a:	4b27      	ldr	r3, [pc, #156]	; (100018a8 <clocks_init+0xdc>)
1000180c:	6c5b      	ldr	r3, [r3, #68]	; 0x44
1000180e:	2b01      	cmp	r3, #1
10001810:	d1fb      	bne.n	1000180a <clocks_init+0x3e>
10001812:	4b27      	ldr	r3, [pc, #156]	; (100018b0 <clocks_init+0xe4>)
10001814:	2203      	movs	r2, #3
10001816:	601a      	str	r2, [r3, #0]
10001818:	4b23      	ldr	r3, [pc, #140]	; (100018a8 <clocks_init+0xdc>)
1000181a:	6b9b      	ldr	r3, [r3, #56]	; 0x38
1000181c:	2b01      	cmp	r3, #1
1000181e:	d1fb      	bne.n	10001818 <clocks_init+0x4c>
10001820:	2402      	movs	r4, #2
10001822:	9400      	str	r4, [sp, #0]
10001824:	3305      	adds	r3, #5
10001826:	4a23      	ldr	r2, [pc, #140]	; (100018b4 <clocks_init+0xe8>)
10001828:	2101      	movs	r1, #1
1000182a:	4823      	ldr	r0, [pc, #140]	; (100018b8 <clocks_init+0xec>)
1000182c:	f000 fa54 	bl	10001cd8 <pll_init>
10001830:	9400      	str	r4, [sp, #0]
10001832:	2305      	movs	r3, #5
10001834:	4a21      	ldr	r2, [pc, #132]	; (100018bc <clocks_init+0xf0>)
10001836:	2101      	movs	r1, #1
10001838:	4821      	ldr	r0, [pc, #132]	; (100018c0 <clocks_init+0xf4>)
1000183a:	f000 fa4d 	bl	10001cd8 <pll_init>
1000183e:	4b21      	ldr	r3, [pc, #132]	; (100018c4 <clocks_init+0xf8>)
10001840:	9300      	str	r3, [sp, #0]
10001842:	2200      	movs	r2, #0
10001844:	2102      	movs	r1, #2
10001846:	2004      	movs	r0, #4
10001848:	f7ff ff3e 	bl	100016c8 <clock_configure>
1000184c:	4d1e      	ldr	r5, [pc, #120]	; (100018c8 <clocks_init+0xfc>)
1000184e:	9500      	str	r5, [sp, #0]
10001850:	002b      	movs	r3, r5
10001852:	2200      	movs	r2, #0
10001854:	2101      	movs	r1, #1
10001856:	2005      	movs	r0, #5
10001858:	f7ff ff36 	bl	100016c8 <clock_configure>
1000185c:	4c10      	ldr	r4, [pc, #64]	; (100018a0 <clocks_init+0xd4>)
1000185e:	9400      	str	r4, [sp, #0]
10001860:	0023      	movs	r3, r4
10001862:	2200      	movs	r2, #0
10001864:	2100      	movs	r1, #0
10001866:	2007      	movs	r0, #7
10001868:	f7ff ff2e 	bl	100016c8 <clock_configure>
1000186c:	9400      	str	r4, [sp, #0]
1000186e:	0023      	movs	r3, r4
10001870:	2200      	movs	r2, #0
10001872:	2100      	movs	r1, #0
10001874:	2008      	movs	r0, #8
10001876:	f7ff ff27 	bl	100016c8 <clock_configure>
1000187a:	4b0a      	ldr	r3, [pc, #40]	; (100018a4 <clocks_init+0xd8>)
1000187c:	9300      	str	r3, [sp, #0]
1000187e:	0023      	movs	r3, r4
10001880:	2200      	movs	r2, #0
10001882:	2100      	movs	r1, #0
10001884:	2009      	movs	r0, #9
10001886:	f7ff ff1f 	bl	100016c8 <clock_configure>
1000188a:	9500      	str	r5, [sp, #0]
1000188c:	002b      	movs	r3, r5
1000188e:	2200      	movs	r2, #0
10001890:	2100      	movs	r1, #0
10001892:	2006      	movs	r0, #6
10001894:	f7ff ff18 	bl	100016c8 <clock_configure>
10001898:	e7ad      	b.n	100017f6 <clocks_init+0x2a>
1000189a:	46c0      	nop			; (mov r8, r8)
1000189c:	200003b4 	.word	0x200003b4
100018a0:	02dc6c00 	.word	0x02dc6c00
100018a4:	0000b71b 	.word	0x0000b71b
100018a8:	40008000 	.word	0x40008000
100018ac:	4000b03c 	.word	0x4000b03c
100018b0:	4000b030 	.word	0x4000b030
100018b4:	59682f00 	.word	0x59682f00
100018b8:	40028000 	.word	0x40028000
100018bc:	1c9c3800 	.word	0x1c9c3800
100018c0:	4002c000 	.word	0x4002c000
100018c4:	00b71b00 	.word	0x00b71b00
100018c8:	07735940 	.word	0x07735940

100018cc <clock_get_hz>:
100018cc:	0080      	lsls	r0, r0, #2
100018ce:	4b01      	ldr	r3, [pc, #4]	; (100018d4 <clock_get_hz+0x8>)
100018d0:	58c0      	ldr	r0, [r0, r3]
100018d2:	4770      	bx	lr
100018d4:	200003b4 	.word	0x200003b4

100018d8 <set_raw_irq_handler_and_unlock>:
100018d8:	4b07      	ldr	r3, [pc, #28]	; (100018f8 <set_raw_irq_handler_and_unlock+0x20>)
100018da:	689b      	ldr	r3, [r3, #8]
100018dc:	3010      	adds	r0, #16
100018de:	0080      	lsls	r0, r0, #2
100018e0:	5019      	str	r1, [r3, r0]
100018e2:	f3bf 8f5f 	dmb	sy
100018e6:	f3bf 8f5f 	dmb	sy
100018ea:	4b04      	ldr	r3, [pc, #16]	; (100018fc <set_raw_irq_handler_and_unlock+0x24>)
100018ec:	2100      	movs	r1, #0
100018ee:	6019      	str	r1, [r3, #0]
100018f0:	f382 8810 	msr	PRIMASK, r2
100018f4:	4770      	bx	lr
100018f6:	46c0      	nop			; (mov r8, r8)
100018f8:	e000ed00 	.word	0xe000ed00
100018fc:	d0000124 	.word	0xd0000124

10001900 <make_branch>:
10001900:	b510      	push	{r4, lr}
10001902:	1a09      	subs	r1, r1, r0
10001904:	3904      	subs	r1, #4
10001906:	0848      	lsrs	r0, r1, #1
10001908:	0b09      	lsrs	r1, r1, #12
1000190a:	d105      	bne.n	10001918 <make_branch+0x18>
1000190c:	0540      	lsls	r0, r0, #21
1000190e:	0d40      	lsrs	r0, r0, #21
10001910:	4b04      	ldr	r3, [pc, #16]	; (10001924 <make_branch+0x24>)
10001912:	4318      	orrs	r0, r3
10001914:	b280      	uxth	r0, r0
10001916:	bd10      	pop	{r4, pc}
10001918:	4b03      	ldr	r3, [pc, #12]	; (10001928 <make_branch+0x28>)
1000191a:	4a04      	ldr	r2, [pc, #16]	; (1000192c <make_branch+0x2c>)
1000191c:	218b      	movs	r1, #139	; 0x8b
1000191e:	4804      	ldr	r0, [pc, #16]	; (10001930 <make_branch+0x30>)
10001920:	f7ff fe20 	bl	10001564 <__assert_func>
10001924:	ffffe000 	.word	0xffffe000
10001928:	10004c94 	.word	0x10004c94
1000192c:	10004ea0 	.word	0x10004ea0
10001930:	10004ca4 	.word	0x10004ca4

10001934 <insert_branch_and_link>:
10001934:	b510      	push	{r4, lr}
10001936:	1a09      	subs	r1, r1, r0
10001938:	3904      	subs	r1, #4
1000193a:	084c      	lsrs	r4, r1, #1
1000193c:	0b09      	lsrs	r1, r1, #12
1000193e:	d108      	bne.n	10001952 <insert_branch_and_link+0x1e>
10001940:	0549      	lsls	r1, r1, #21
10001942:	0d49      	lsrs	r1, r1, #21
10001944:	4a06      	ldr	r2, [pc, #24]	; (10001960 <insert_branch_and_link+0x2c>)
10001946:	4311      	orrs	r1, r2
10001948:	8001      	strh	r1, [r0, #0]
1000194a:	4b06      	ldr	r3, [pc, #24]	; (10001964 <insert_branch_and_link+0x30>)
1000194c:	4323      	orrs	r3, r4
1000194e:	8043      	strh	r3, [r0, #2]
10001950:	bd10      	pop	{r4, pc}
10001952:	4b05      	ldr	r3, [pc, #20]	; (10001968 <insert_branch_and_link+0x34>)
10001954:	4a05      	ldr	r2, [pc, #20]	; (1000196c <insert_branch_and_link+0x38>)
10001956:	2193      	movs	r1, #147	; 0x93
10001958:	4805      	ldr	r0, [pc, #20]	; (10001970 <insert_branch_and_link+0x3c>)
1000195a:	f7ff fe03 	bl	10001564 <__assert_func>
1000195e:	46c0      	nop			; (mov r8, r8)
10001960:	fffff000 	.word	0xfffff000
10001964:	fffff800 	.word	0xfffff800
10001968:	10004c94 	.word	0x10004c94
1000196c:	10004e74 	.word	0x10004e74
10001970:	10004ca4 	.word	0x10004ca4

10001974 <irq_is_enabled>:
10001974:	2301      	movs	r3, #1
10001976:	4083      	lsls	r3, r0
10001978:	4a03      	ldr	r2, [pc, #12]	; (10001988 <irq_is_enabled+0x14>)
1000197a:	6810      	ldr	r0, [r2, #0]
1000197c:	4018      	ands	r0, r3
1000197e:	1e43      	subs	r3, r0, #1
10001980:	4198      	sbcs	r0, r3
10001982:	b2c0      	uxtb	r0, r0
10001984:	4770      	bx	lr
10001986:	46c0      	nop			; (mov r8, r8)
10001988:	e000e100 	.word	0xe000e100

1000198c <irq_set_mask_enabled>:
1000198c:	2900      	cmp	r1, #0
1000198e:	d004      	beq.n	1000199a <irq_set_mask_enabled+0xe>
10001990:	4b03      	ldr	r3, [pc, #12]	; (100019a0 <irq_set_mask_enabled+0x14>)
10001992:	6018      	str	r0, [r3, #0]
10001994:	4b03      	ldr	r3, [pc, #12]	; (100019a4 <irq_set_mask_enabled+0x18>)
10001996:	6018      	str	r0, [r3, #0]
10001998:	4770      	bx	lr
1000199a:	4b03      	ldr	r3, [pc, #12]	; (100019a8 <irq_set_mask_enabled+0x1c>)
1000199c:	6018      	str	r0, [r3, #0]
1000199e:	e7fb      	b.n	10001998 <irq_set_mask_enabled+0xc>
100019a0:	e000e280 	.word	0xe000e280
100019a4:	e000e100 	.word	0xe000e100
100019a8:	e000e180 	.word	0xe000e180

100019ac <irq_set_enabled>:
100019ac:	b510      	push	{r4, lr}
100019ae:	2301      	movs	r3, #1
100019b0:	4083      	lsls	r3, r0
100019b2:	0018      	movs	r0, r3
100019b4:	f7ff ffea 	bl	1000198c <irq_set_mask_enabled>
100019b8:	bd10      	pop	{r4, pc}
	...

100019bc <irq_get_vtable_handler>:
100019bc:	4b02      	ldr	r3, [pc, #8]	; (100019c8 <irq_get_vtable_handler+0xc>)
100019be:	689b      	ldr	r3, [r3, #8]
100019c0:	3010      	adds	r0, #16
100019c2:	0080      	lsls	r0, r0, #2
100019c4:	58c0      	ldr	r0, [r0, r3]
100019c6:	4770      	bx	lr
100019c8:	e000ed00 	.word	0xe000ed00

100019cc <irq_set_exclusive_handler>:
100019cc:	b570      	push	{r4, r5, r6, lr}
100019ce:	0004      	movs	r4, r0
100019d0:	000d      	movs	r5, r1
100019d2:	f3ef 8610 	mrs	r6, PRIMASK
100019d6:	b672      	cpsid	i
100019d8:	4b0c      	ldr	r3, [pc, #48]	; (10001a0c <irq_set_exclusive_handler+0x40>)
100019da:	681b      	ldr	r3, [r3, #0]
100019dc:	2b00      	cmp	r3, #0
100019de:	d0fb      	beq.n	100019d8 <irq_set_exclusive_handler+0xc>
100019e0:	f3bf 8f5f 	dmb	sy
100019e4:	0020      	movs	r0, r4
100019e6:	f7ff ffe9 	bl	100019bc <irq_get_vtable_handler>
100019ea:	4b09      	ldr	r3, [pc, #36]	; (10001a10 <irq_set_exclusive_handler+0x44>)
100019ec:	4298      	cmp	r0, r3
100019ee:	d001      	beq.n	100019f4 <irq_set_exclusive_handler+0x28>
100019f0:	42a8      	cmp	r0, r5
100019f2:	d105      	bne.n	10001a00 <irq_set_exclusive_handler+0x34>
100019f4:	0032      	movs	r2, r6
100019f6:	0029      	movs	r1, r5
100019f8:	0020      	movs	r0, r4
100019fa:	f7ff ff6d 	bl	100018d8 <set_raw_irq_handler_and_unlock>
100019fe:	bd70      	pop	{r4, r5, r6, pc}
10001a00:	4b04      	ldr	r3, [pc, #16]	; (10001a14 <irq_set_exclusive_handler+0x48>)
10001a02:	4a05      	ldr	r2, [pc, #20]	; (10001a18 <irq_set_exclusive_handler+0x4c>)
10001a04:	216e      	movs	r1, #110	; 0x6e
10001a06:	4805      	ldr	r0, [pc, #20]	; (10001a1c <irq_set_exclusive_handler+0x50>)
10001a08:	f7ff fdac 	bl	10001564 <__assert_func>
10001a0c:	d0000124 	.word	0xd0000124
10001a10:	100001cd 	.word	0x100001cd
10001a14:	10004ce4 	.word	0x10004ce4
10001a18:	10004ebc 	.word	0x10004ebc
10001a1c:	10004ca4 	.word	0x10004ca4

10001a20 <irq_remove_handler>:
10001a20:	b5f0      	push	{r4, r5, r6, r7, lr}
10001a22:	46ce      	mov	lr, r9
10001a24:	4647      	mov	r7, r8
10001a26:	b580      	push	{r7, lr}
10001a28:	b083      	sub	sp, #12
10001a2a:	0006      	movs	r6, r0
10001a2c:	000d      	movs	r5, r1
10001a2e:	f3ef 8810 	mrs	r8, PRIMASK
10001a32:	b672      	cpsid	i
10001a34:	4b57      	ldr	r3, [pc, #348]	; (10001b94 <irq_remove_handler+0x174>)
10001a36:	681b      	ldr	r3, [r3, #0]
10001a38:	2b00      	cmp	r3, #0
10001a3a:	d0fb      	beq.n	10001a34 <irq_remove_handler+0x14>
10001a3c:	f3bf 8f5f 	dmb	sy
10001a40:	4b55      	ldr	r3, [pc, #340]	; (10001b98 <irq_remove_handler+0x178>)
10001a42:	689a      	ldr	r2, [r3, #8]
10001a44:	0034      	movs	r4, r6
10001a46:	3410      	adds	r4, #16
10001a48:	00a3      	lsls	r3, r4, #2
10001a4a:	58d7      	ldr	r7, [r2, r3]
10001a4c:	4b53      	ldr	r3, [pc, #332]	; (10001b9c <irq_remove_handler+0x17c>)
10001a4e:	429f      	cmp	r7, r3
10001a50:	d007      	beq.n	10001a62 <irq_remove_handler+0x42>
10001a52:	42af      	cmp	r7, r5
10001a54:	d100      	bne.n	10001a58 <irq_remove_handler+0x38>
10001a56:	e09b      	b.n	10001b90 <irq_remove_handler+0x170>
10001a58:	9701      	str	r7, [sp, #4]
10001a5a:	4b51      	ldr	r3, [pc, #324]	; (10001ba0 <irq_remove_handler+0x180>)
10001a5c:	1afb      	subs	r3, r7, r3
10001a5e:	2b2f      	cmp	r3, #47	; 0x2f
10001a60:	d909      	bls.n	10001a76 <irq_remove_handler+0x56>
10001a62:	4642      	mov	r2, r8
10001a64:	0039      	movs	r1, r7
10001a66:	0030      	movs	r0, r6
10001a68:	f7ff ff36 	bl	100018d8 <set_raw_irq_handler_and_unlock>
10001a6c:	b003      	add	sp, #12
10001a6e:	bcc0      	pop	{r6, r7}
10001a70:	46b9      	mov	r9, r7
10001a72:	46b0      	mov	r8, r6
10001a74:	bdf0      	pop	{r4, r5, r6, r7, pc}
10001a76:	0030      	movs	r0, r6
10001a78:	f7ff ff7c 	bl	10001974 <irq_is_enabled>
10001a7c:	4681      	mov	r9, r0
10001a7e:	2100      	movs	r1, #0
10001a80:	0030      	movs	r0, r6
10001a82:	f7ff ff93 	bl	100019ac <irq_set_enabled>
10001a86:	f3bf 8f5f 	dmb	sy
10001a8a:	f7fe fbec 	bl	10000266 <__get_current_exception>
10001a8e:	2800      	cmp	r0, #0
10001a90:	d001      	beq.n	10001a96 <irq_remove_handler+0x76>
10001a92:	4284      	cmp	r4, r0
10001a94:	d119      	bne.n	10001aca <irq_remove_handler+0xaa>
10001a96:	2301      	movs	r3, #1
10001a98:	9c01      	ldr	r4, [sp, #4]
10001a9a:	439c      	bics	r4, r3
10001a9c:	4941      	ldr	r1, [pc, #260]	; (10001ba4 <irq_remove_handler+0x184>)
10001a9e:	0023      	movs	r3, r4
10001aa0:	4a3f      	ldr	r2, [pc, #252]	; (10001ba0 <irq_remove_handler+0x180>)
10001aa2:	1a9b      	subs	r3, r3, r2
10001aa4:	415b      	adcs	r3, r3
10001aa6:	4359      	muls	r1, r3
10001aa8:	0d09      	lsrs	r1, r1, #20
10001aaa:	b249      	sxtb	r1, r1
10001aac:	2200      	movs	r2, #0
10001aae:	68a3      	ldr	r3, [r4, #8]
10001ab0:	42ab      	cmp	r3, r5
10001ab2:	d012      	beq.n	10001ada <irq_remove_handler+0xba>
10001ab4:	2206      	movs	r2, #6
10001ab6:	56a2      	ldrsb	r2, [r4, r2]
10001ab8:	2a00      	cmp	r2, #0
10001aba:	db0d      	blt.n	10001ad8 <irq_remove_handler+0xb8>
10001abc:	0053      	lsls	r3, r2, #1
10001abe:	189b      	adds	r3, r3, r2
10001ac0:	009b      	lsls	r3, r3, #2
10001ac2:	0022      	movs	r2, r4
10001ac4:	4c36      	ldr	r4, [pc, #216]	; (10001ba0 <irq_remove_handler+0x180>)
10001ac6:	18e4      	adds	r4, r4, r3
10001ac8:	e7f1      	b.n	10001aae <irq_remove_handler+0x8e>
10001aca:	211e      	movs	r1, #30
10001acc:	4b36      	ldr	r3, [pc, #216]	; (10001ba8 <irq_remove_handler+0x188>)
10001ace:	4a37      	ldr	r2, [pc, #220]	; (10001bac <irq_remove_handler+0x18c>)
10001ad0:	31ff      	adds	r1, #255	; 0xff
10001ad2:	4837      	ldr	r0, [pc, #220]	; (10001bb0 <irq_remove_handler+0x190>)
10001ad4:	f7ff fd46 	bl	10001564 <__assert_func>
10001ad8:	0022      	movs	r2, r4
10001ada:	42ab      	cmp	r3, r5
10001adc:	d151      	bne.n	10001b82 <irq_remove_handler+0x162>
10001ade:	2506      	movs	r5, #6
10001ae0:	5765      	ldrsb	r5, [r4, r5]
10001ae2:	2d00      	cmp	r5, #0
10001ae4:	db39      	blt.n	10001b5a <irq_remove_handler+0x13a>
10001ae6:	006b      	lsls	r3, r5, #1
10001ae8:	195b      	adds	r3, r3, r5
10001aea:	009a      	lsls	r2, r3, #2
10001aec:	4b2c      	ldr	r3, [pc, #176]	; (10001ba0 <irq_remove_handler+0x180>)
10001aee:	189b      	adds	r3, r3, r2
10001af0:	689a      	ldr	r2, [r3, #8]
10001af2:	60a2      	str	r2, [r4, #8]
10001af4:	79da      	ldrb	r2, [r3, #7]
10001af6:	71e2      	strb	r2, [r4, #7]
10001af8:	2206      	movs	r2, #6
10001afa:	569a      	ldrsb	r2, [r3, r2]
10001afc:	71a2      	strb	r2, [r4, #6]
10001afe:	799b      	ldrb	r3, [r3, #6]
10001b00:	b25b      	sxtb	r3, r3
10001b02:	2b00      	cmp	r3, #0
10001b04:	da10      	bge.n	10001b28 <irq_remove_handler+0x108>
10001b06:	20bd      	movs	r0, #189	; 0xbd
10001b08:	0200      	lsls	r0, r0, #8
10001b0a:	80a0      	strh	r0, [r4, #4]
10001b0c:	006b      	lsls	r3, r5, #1
10001b0e:	195b      	adds	r3, r3, r5
10001b10:	009b      	lsls	r3, r3, #2
10001b12:	4a23      	ldr	r2, [pc, #140]	; (10001ba0 <irq_remove_handler+0x180>)
10001b14:	18d3      	adds	r3, r2, r3
10001b16:	4a27      	ldr	r2, [pc, #156]	; (10001bb4 <irq_remove_handler+0x194>)
10001b18:	7811      	ldrb	r1, [r2, #0]
10001b1a:	7199      	strb	r1, [r3, #6]
10001b1c:	7015      	strb	r5, [r2, #0]
10001b1e:	4649      	mov	r1, r9
10001b20:	0030      	movs	r0, r6
10001b22:	f7ff ff43 	bl	100019ac <irq_set_enabled>
10001b26:	e79c      	b.n	10001a62 <irq_remove_handler+0x42>
10001b28:	1d20      	adds	r0, r4, #4
10001b2a:	006b      	lsls	r3, r5, #1
10001b2c:	195b      	adds	r3, r3, r5
10001b2e:	009b      	lsls	r3, r3, #2
10001b30:	4a1b      	ldr	r2, [pc, #108]	; (10001ba0 <irq_remove_handler+0x180>)
10001b32:	189b      	adds	r3, r3, r2
10001b34:	1d1a      	adds	r2, r3, #4
10001b36:	889b      	ldrh	r3, [r3, #4]
10001b38:	0ad9      	lsrs	r1, r3, #11
10001b3a:	291c      	cmp	r1, #28
10001b3c:	d107      	bne.n	10001b4e <irq_remove_handler+0x12e>
10001b3e:	055b      	lsls	r3, r3, #21
10001b40:	155b      	asrs	r3, r3, #21
10001b42:	3302      	adds	r3, #2
10001b44:	0059      	lsls	r1, r3, #1
10001b46:	1851      	adds	r1, r2, r1
10001b48:	f7ff feda 	bl	10001900 <make_branch>
10001b4c:	e7dd      	b.n	10001b0a <irq_remove_handler+0xea>
10001b4e:	4b1a      	ldr	r3, [pc, #104]	; (10001bb8 <irq_remove_handler+0x198>)
10001b50:	4a1a      	ldr	r2, [pc, #104]	; (10001bbc <irq_remove_handler+0x19c>)
10001b52:	2199      	movs	r1, #153	; 0x99
10001b54:	4816      	ldr	r0, [pc, #88]	; (10001bb0 <irq_remove_handler+0x190>)
10001b56:	f7ff fd05 	bl	10001564 <__assert_func>
10001b5a:	2800      	cmp	r0, #0
10001b5c:	d10c      	bne.n	10001b78 <irq_remove_handler+0x158>
10001b5e:	2a00      	cmp	r2, #0
10001b60:	d008      	beq.n	10001b74 <irq_remove_handler+0x154>
10001b62:	23ff      	movs	r3, #255	; 0xff
10001b64:	7193      	strb	r3, [r2, #6]
10001b66:	4b16      	ldr	r3, [pc, #88]	; (10001bc0 <irq_remove_handler+0x1a0>)
10001b68:	8093      	strh	r3, [r2, #4]
10001b6a:	4b12      	ldr	r3, [pc, #72]	; (10001bb4 <irq_remove_handler+0x194>)
10001b6c:	781a      	ldrb	r2, [r3, #0]
10001b6e:	71a2      	strb	r2, [r4, #6]
10001b70:	7019      	strb	r1, [r3, #0]
10001b72:	e7d4      	b.n	10001b1e <irq_remove_handler+0xfe>
10001b74:	4f09      	ldr	r7, [pc, #36]	; (10001b9c <irq_remove_handler+0x17c>)
10001b76:	e7f8      	b.n	10001b6a <irq_remove_handler+0x14a>
10001b78:	1d20      	adds	r0, r4, #4
10001b7a:	4912      	ldr	r1, [pc, #72]	; (10001bc4 <irq_remove_handler+0x1a4>)
10001b7c:	f7ff feda 	bl	10001934 <insert_branch_and_link>
10001b80:	e7cd      	b.n	10001b1e <irq_remove_handler+0xfe>
10001b82:	21a9      	movs	r1, #169	; 0xa9
10001b84:	4b10      	ldr	r3, [pc, #64]	; (10001bc8 <irq_remove_handler+0x1a8>)
10001b86:	4a09      	ldr	r2, [pc, #36]	; (10001bac <irq_remove_handler+0x18c>)
10001b88:	0049      	lsls	r1, r1, #1
10001b8a:	4809      	ldr	r0, [pc, #36]	; (10001bb0 <irq_remove_handler+0x190>)
10001b8c:	f7ff fcea 	bl	10001564 <__assert_func>
10001b90:	4f02      	ldr	r7, [pc, #8]	; (10001b9c <irq_remove_handler+0x17c>)
10001b92:	e766      	b.n	10001a62 <irq_remove_handler+0x42>
10001b94:	d0000124 	.word	0xd0000124
10001b98:	e000ed00 	.word	0xe000ed00
10001b9c:	100001cd 	.word	0x100001cd
10001ba0:	200001dc 	.word	0x200001dc
10001ba4:	0000aaaa 	.word	0x0000aaaa
10001ba8:	10004df8 	.word	0x10004df8
10001bac:	10004e8c 	.word	0x10004e8c
10001bb0:	10004ca4 	.word	0x10004ca4
10001bb4:	20000655 	.word	0x20000655
10001bb8:	10004de0 	.word	0x10004de0
10001bbc:	10004eac 	.word	0x10004eac
10001bc0:	ffffbd00 	.word	0xffffbd00
10001bc4:	20000216 	.word	0x20000216
10001bc8:	10004e1c 	.word	0x10004e1c

10001bcc <irq_add_tail_to_free_list>:
10001bcc:	b570      	push	{r4, r5, r6, lr}
10001bce:	0004      	movs	r4, r0
10001bd0:	2601      	movs	r6, #1
10001bd2:	4306      	orrs	r6, r0
10001bd4:	4b2d      	ldr	r3, [pc, #180]	; (10001c8c <irq_add_tail_to_free_list+0xc0>)
10001bd6:	1af3      	subs	r3, r6, r3
10001bd8:	2b2f      	cmp	r3, #47	; 0x2f
10001bda:	d828      	bhi.n	10001c2e <irq_add_tail_to_free_list+0x62>
10001bdc:	f7fe fb43 	bl	10000266 <__get_current_exception>
10001be0:	2800      	cmp	r0, #0
10001be2:	d02b      	beq.n	10001c3c <irq_add_tail_to_free_list+0x70>
10001be4:	f3ef 8c10 	mrs	ip, PRIMASK
10001be8:	b672      	cpsid	i
10001bea:	4b29      	ldr	r3, [pc, #164]	; (10001c90 <irq_add_tail_to_free_list+0xc4>)
10001bec:	681b      	ldr	r3, [r3, #0]
10001bee:	2b00      	cmp	r3, #0
10001bf0:	d0fb      	beq.n	10001bea <irq_add_tail_to_free_list+0x1e>
10001bf2:	f3bf 8f5f 	dmb	sy
10001bf6:	4d27      	ldr	r5, [pc, #156]	; (10001c94 <irq_add_tail_to_free_list+0xc8>)
10001bf8:	0022      	movs	r2, r4
10001bfa:	4924      	ldr	r1, [pc, #144]	; (10001c8c <irq_add_tail_to_free_list+0xc0>)
10001bfc:	1a52      	subs	r2, r2, r1
10001bfe:	4152      	adcs	r2, r2
10001c00:	4355      	muls	r5, r2
10001c02:	0d2d      	lsrs	r5, r5, #20
10001c04:	b26d      	sxtb	r5, r5
10001c06:	4b24      	ldr	r3, [pc, #144]	; (10001c98 <irq_add_tail_to_free_list+0xcc>)
10001c08:	689b      	ldr	r3, [r3, #8]
10001c0a:	0080      	lsls	r0, r0, #2
10001c0c:	581b      	ldr	r3, [r3, r0]
10001c0e:	42b3      	cmp	r3, r6
10001c10:	d01b      	beq.n	10001c4a <irq_add_tail_to_free_list+0x7e>
10001c12:	2200      	movs	r2, #0
10001c14:	2a03      	cmp	r2, #3
10001c16:	d832      	bhi.n	10001c7e <irq_add_tail_to_free_list+0xb2>
10001c18:	0053      	lsls	r3, r2, #1
10001c1a:	189b      	adds	r3, r3, r2
10001c1c:	009b      	lsls	r3, r3, #2
10001c1e:	491b      	ldr	r1, [pc, #108]	; (10001c8c <irq_add_tail_to_free_list+0xc0>)
10001c20:	18cb      	adds	r3, r1, r3
10001c22:	799b      	ldrb	r3, [r3, #6]
10001c24:	b25b      	sxtb	r3, r3
10001c26:	42ab      	cmp	r3, r5
10001c28:	d01f      	beq.n	10001c6a <irq_add_tail_to_free_list+0x9e>
10001c2a:	3201      	adds	r2, #1
10001c2c:	e7f2      	b.n	10001c14 <irq_add_tail_to_free_list+0x48>
10001c2e:	2178      	movs	r1, #120	; 0x78
10001c30:	4b1a      	ldr	r3, [pc, #104]	; (10001c9c <irq_add_tail_to_free_list+0xd0>)
10001c32:	4a1b      	ldr	r2, [pc, #108]	; (10001ca0 <irq_add_tail_to_free_list+0xd4>)
10001c34:	31ff      	adds	r1, #255	; 0xff
10001c36:	481b      	ldr	r0, [pc, #108]	; (10001ca4 <irq_add_tail_to_free_list+0xd8>)
10001c38:	f7ff fc94 	bl	10001564 <__assert_func>
10001c3c:	21bd      	movs	r1, #189	; 0xbd
10001c3e:	4b1a      	ldr	r3, [pc, #104]	; (10001ca8 <irq_add_tail_to_free_list+0xdc>)
10001c40:	4a17      	ldr	r2, [pc, #92]	; (10001ca0 <irq_add_tail_to_free_list+0xd4>)
10001c42:	0049      	lsls	r1, r1, #1
10001c44:	4817      	ldr	r0, [pc, #92]	; (10001ca4 <irq_add_tail_to_free_list+0xd8>)
10001c46:	f7ff fc8d 	bl	10001564 <__assert_func>
10001c4a:	4b13      	ldr	r3, [pc, #76]	; (10001c98 <irq_add_tail_to_free_list+0xcc>)
10001c4c:	689b      	ldr	r3, [r3, #8]
10001c4e:	4a17      	ldr	r2, [pc, #92]	; (10001cac <irq_add_tail_to_free_list+0xe0>)
10001c50:	501a      	str	r2, [r3, r0]
10001c52:	4b17      	ldr	r3, [pc, #92]	; (10001cb0 <irq_add_tail_to_free_list+0xe4>)
10001c54:	781a      	ldrb	r2, [r3, #0]
10001c56:	71a2      	strb	r2, [r4, #6]
10001c58:	701d      	strb	r5, [r3, #0]
10001c5a:	f3bf 8f5f 	dmb	sy
10001c5e:	4b0c      	ldr	r3, [pc, #48]	; (10001c90 <irq_add_tail_to_free_list+0xc4>)
10001c60:	2200      	movs	r2, #0
10001c62:	601a      	str	r2, [r3, #0]
10001c64:	f38c 8810 	msr	PRIMASK, ip
10001c68:	bd70      	pop	{r4, r5, r6, pc}
10001c6a:	0008      	movs	r0, r1
10001c6c:	0053      	lsls	r3, r2, #1
10001c6e:	1899      	adds	r1, r3, r2
10001c70:	0089      	lsls	r1, r1, #2
10001c72:	1841      	adds	r1, r0, r1
10001c74:	26ff      	movs	r6, #255	; 0xff
10001c76:	718e      	strb	r6, [r1, #6]
10001c78:	4a0e      	ldr	r2, [pc, #56]	; (10001cb4 <irq_add_tail_to_free_list+0xe8>)
10001c7a:	808a      	strh	r2, [r1, #4]
10001c7c:	e7e9      	b.n	10001c52 <irq_add_tail_to_free_list+0x86>
10001c7e:	218c      	movs	r1, #140	; 0x8c
10001c80:	4b0d      	ldr	r3, [pc, #52]	; (10001cb8 <irq_add_tail_to_free_list+0xec>)
10001c82:	4a07      	ldr	r2, [pc, #28]	; (10001ca0 <irq_add_tail_to_free_list+0xd4>)
10001c84:	31ff      	adds	r1, #255	; 0xff
10001c86:	4807      	ldr	r0, [pc, #28]	; (10001ca4 <irq_add_tail_to_free_list+0xd8>)
10001c88:	f7ff fc6c 	bl	10001564 <__assert_func>
10001c8c:	200001dc 	.word	0x200001dc
10001c90:	d0000124 	.word	0xd0000124
10001c94:	0000aaaa 	.word	0x0000aaaa
10001c98:	e000ed00 	.word	0xe000ed00
10001c9c:	10004e24 	.word	0x10004e24
10001ca0:	10004e58 	.word	0x10004e58
10001ca4:	10004ca4 	.word	0x10004ca4
10001ca8:	10004e4c 	.word	0x10004e4c
10001cac:	100001cd 	.word	0x100001cd
10001cb0:	20000655 	.word	0x20000655
10001cb4:	ffffbd00 	.word	0xffffbd00
10001cb8:	10004af0 	.word	0x10004af0

10001cbc <irq_init_priorities>:
10001cbc:	2200      	movs	r2, #0
10001cbe:	4b04      	ldr	r3, [pc, #16]	; (10001cd0 <irq_init_priorities+0x14>)
10001cc0:	e002      	b.n	10001cc8 <irq_init_priorities+0xc>
10001cc2:	4904      	ldr	r1, [pc, #16]	; (10001cd4 <irq_init_priorities+0x18>)
10001cc4:	c302      	stmia	r3!, {r1}
10001cc6:	3201      	adds	r2, #1
10001cc8:	2a07      	cmp	r2, #7
10001cca:	d9fa      	bls.n	10001cc2 <irq_init_priorities+0x6>
10001ccc:	4770      	bx	lr
10001cce:	46c0      	nop			; (mov r8, r8)
10001cd0:	e000e400 	.word	0xe000e400
10001cd4:	80808080 	.word	0x80808080

10001cd8 <pll_init>:
10001cd8:	b5f0      	push	{r4, r5, r6, r7, lr}
10001cda:	46ce      	mov	lr, r9
10001cdc:	b500      	push	{lr}
10001cde:	0004      	movs	r4, r0
10001ce0:	000e      	movs	r6, r1
10001ce2:	4691      	mov	r9, r2
10001ce4:	001f      	movs	r7, r3
10001ce6:	200c      	movs	r0, #12
10001ce8:	f001 f99a 	bl	10003020 <__wrap___aeabi_uidiv>
10001cec:	0005      	movs	r5, r0
10001cee:	0143      	lsls	r3, r0, #5
10001cf0:	1a1b      	subs	r3, r3, r0
10001cf2:	0199      	lsls	r1, r3, #6
10001cf4:	1ac9      	subs	r1, r1, r3
10001cf6:	00c9      	lsls	r1, r1, #3
10001cf8:	1809      	adds	r1, r1, r0
10001cfa:	0189      	lsls	r1, r1, #6
10001cfc:	4648      	mov	r0, r9
10001cfe:	f001 f98f 	bl	10003020 <__wrap___aeabi_uidiv>
10001d02:	0002      	movs	r2, r0
10001d04:	3a10      	subs	r2, #16
10001d06:	2398      	movs	r3, #152	; 0x98
10001d08:	005b      	lsls	r3, r3, #1
10001d0a:	429a      	cmp	r2, r3
10001d0c:	d833      	bhi.n	10001d76 <pll_init+0x9e>
10001d0e:	1e7b      	subs	r3, r7, #1
10001d10:	2b06      	cmp	r3, #6
10001d12:	d836      	bhi.n	10001d82 <pll_init+0xaa>
10001d14:	9b06      	ldr	r3, [sp, #24]
10001d16:	3b01      	subs	r3, #1
10001d18:	2b06      	cmp	r3, #6
10001d1a:	d832      	bhi.n	10001d82 <pll_init+0xaa>
10001d1c:	9b06      	ldr	r3, [sp, #24]
10001d1e:	429f      	cmp	r7, r3
10001d20:	d335      	bcc.n	10001d8e <pll_init+0xb6>
10001d22:	464b      	mov	r3, r9
10001d24:	091a      	lsrs	r2, r3, #4
10001d26:	42aa      	cmp	r2, r5
10001d28:	d337      	bcc.n	10001d9a <pll_init+0xc2>
10001d2a:	043f      	lsls	r7, r7, #16
10001d2c:	9b06      	ldr	r3, [sp, #24]
10001d2e:	031d      	lsls	r5, r3, #12
10001d30:	432f      	orrs	r7, r5
10001d32:	6823      	ldr	r3, [r4, #0]
10001d34:	2b00      	cmp	r3, #0
10001d36:	db36      	blt.n	10001da6 <pll_init+0xce>
10001d38:	4b23      	ldr	r3, [pc, #140]	; (10001dc8 <pll_init+0xf0>)
10001d3a:	429c      	cmp	r4, r3
10001d3c:	d041      	beq.n	10001dc2 <pll_init+0xea>
10001d3e:	2280      	movs	r2, #128	; 0x80
10001d40:	0152      	lsls	r2, r2, #5
10001d42:	4b22      	ldr	r3, [pc, #136]	; (10001dcc <pll_init+0xf4>)
10001d44:	601a      	str	r2, [r3, #0]
10001d46:	4b22      	ldr	r3, [pc, #136]	; (10001dd0 <pll_init+0xf8>)
10001d48:	601a      	str	r2, [r3, #0]
10001d4a:	4b22      	ldr	r3, [pc, #136]	; (10001dd4 <pll_init+0xfc>)
10001d4c:	689b      	ldr	r3, [r3, #8]
10001d4e:	0011      	movs	r1, r2
10001d50:	4399      	bics	r1, r3
10001d52:	d1fa      	bne.n	10001d4a <pll_init+0x72>
10001d54:	6026      	str	r6, [r4, #0]
10001d56:	60a0      	str	r0, [r4, #8]
10001d58:	1d23      	adds	r3, r4, #4
10001d5a:	22c0      	movs	r2, #192	; 0xc0
10001d5c:	0192      	lsls	r2, r2, #6
10001d5e:	431a      	orrs	r2, r3
10001d60:	2321      	movs	r3, #33	; 0x21
10001d62:	6013      	str	r3, [r2, #0]
10001d64:	6823      	ldr	r3, [r4, #0]
10001d66:	2b00      	cmp	r3, #0
10001d68:	dafc      	bge.n	10001d64 <pll_init+0x8c>
10001d6a:	60e7      	str	r7, [r4, #12]
10001d6c:	2308      	movs	r3, #8
10001d6e:	6013      	str	r3, [r2, #0]
10001d70:	bc80      	pop	{r7}
10001d72:	46b9      	mov	r9, r7
10001d74:	bdf0      	pop	{r4, r5, r6, r7, pc}
10001d76:	4b18      	ldr	r3, [pc, #96]	; (10001dd8 <pll_init+0x100>)
10001d78:	4a18      	ldr	r2, [pc, #96]	; (10001ddc <pll_init+0x104>)
10001d7a:	2116      	movs	r1, #22
10001d7c:	4818      	ldr	r0, [pc, #96]	; (10001de0 <pll_init+0x108>)
10001d7e:	f7ff fbf1 	bl	10001564 <__assert_func>
10001d82:	4b18      	ldr	r3, [pc, #96]	; (10001de4 <pll_init+0x10c>)
10001d84:	4a15      	ldr	r2, [pc, #84]	; (10001ddc <pll_init+0x104>)
10001d86:	2119      	movs	r1, #25
10001d88:	4815      	ldr	r0, [pc, #84]	; (10001de0 <pll_init+0x108>)
10001d8a:	f7ff fbeb 	bl	10001564 <__assert_func>
10001d8e:	4b16      	ldr	r3, [pc, #88]	; (10001de8 <pll_init+0x110>)
10001d90:	4a12      	ldr	r2, [pc, #72]	; (10001ddc <pll_init+0x104>)
10001d92:	211f      	movs	r1, #31
10001d94:	4812      	ldr	r0, [pc, #72]	; (10001de0 <pll_init+0x108>)
10001d96:	f7ff fbe5 	bl	10001564 <__assert_func>
10001d9a:	4b14      	ldr	r3, [pc, #80]	; (10001dec <pll_init+0x114>)
10001d9c:	4a0f      	ldr	r2, [pc, #60]	; (10001ddc <pll_init+0x104>)
10001d9e:	2122      	movs	r1, #34	; 0x22
10001da0:	480f      	ldr	r0, [pc, #60]	; (10001de0 <pll_init+0x108>)
10001da2:	f7ff fbdf 	bl	10001564 <__assert_func>
10001da6:	6822      	ldr	r2, [r4, #0]
10001da8:	233f      	movs	r3, #63	; 0x3f
10001daa:	4013      	ands	r3, r2
10001dac:	42b3      	cmp	r3, r6
10001dae:	d1c3      	bne.n	10001d38 <pll_init+0x60>
10001db0:	68a3      	ldr	r3, [r4, #8]
10001db2:	051b      	lsls	r3, r3, #20
10001db4:	0d1b      	lsrs	r3, r3, #20
10001db6:	4283      	cmp	r3, r0
10001db8:	d1be      	bne.n	10001d38 <pll_init+0x60>
10001dba:	68e3      	ldr	r3, [r4, #12]
10001dbc:	2f00      	cmp	r7, #0
10001dbe:	d1bb      	bne.n	10001d38 <pll_init+0x60>
10001dc0:	e7d6      	b.n	10001d70 <pll_init+0x98>
10001dc2:	2280      	movs	r2, #128	; 0x80
10001dc4:	0192      	lsls	r2, r2, #6
10001dc6:	e7bc      	b.n	10001d42 <pll_init+0x6a>
10001dc8:	4002c000 	.word	0x4002c000
10001dcc:	4000e000 	.word	0x4000e000
10001dd0:	4000f000 	.word	0x4000f000
10001dd4:	4000c000 	.word	0x4000c000
10001dd8:	10004ed8 	.word	0x10004ed8
10001ddc:	10004fb4 	.word	0x10004fb4
10001de0:	10004ef4 	.word	0x10004ef4
10001de4:	10004f34 	.word	0x10004f34
10001de8:	10004f80 	.word	0x10004f80
10001dec:	10004f98 	.word	0x10004f98

10001df0 <watchdog_start_tick>:
10001df0:	2380      	movs	r3, #128	; 0x80
10001df2:	009b      	lsls	r3, r3, #2
10001df4:	4303      	orrs	r3, r0
10001df6:	4a01      	ldr	r2, [pc, #4]	; (10001dfc <watchdog_start_tick+0xc>)
10001df8:	62d3      	str	r3, [r2, #44]	; 0x2c
10001dfa:	4770      	bx	lr
10001dfc:	40058000 	.word	0x40058000

10001e00 <xosc_init>:
10001e00:	4b06      	ldr	r3, [pc, #24]	; (10001e1c <xosc_init+0x1c>)
10001e02:	22aa      	movs	r2, #170	; 0xaa
10001e04:	0112      	lsls	r2, r2, #4
10001e06:	601a      	str	r2, [r3, #0]
10001e08:	222f      	movs	r2, #47	; 0x2f
10001e0a:	60da      	str	r2, [r3, #12]
10001e0c:	4b04      	ldr	r3, [pc, #16]	; (10001e20 <xosc_init+0x20>)
10001e0e:	4a05      	ldr	r2, [pc, #20]	; (10001e24 <xosc_init+0x24>)
10001e10:	601a      	str	r2, [r3, #0]
10001e12:	4b02      	ldr	r3, [pc, #8]	; (10001e1c <xosc_init+0x1c>)
10001e14:	685b      	ldr	r3, [r3, #4]
10001e16:	2b00      	cmp	r3, #0
10001e18:	dafb      	bge.n	10001e12 <xosc_init+0x12>
10001e1a:	4770      	bx	lr
10001e1c:	40024000 	.word	0x40024000
10001e20:	40026000 	.word	0x40026000
10001e24:	00fab000 	.word	0x00fab000

10001e28 <_out_null>:
10001e28:	4770      	bx	lr

10001e2a <_out_fct>:
10001e2a:	b510      	push	{r4, lr}
10001e2c:	2800      	cmp	r0, #0
10001e2e:	d002      	beq.n	10001e36 <_out_fct+0xc>
10001e30:	680b      	ldr	r3, [r1, #0]
10001e32:	6849      	ldr	r1, [r1, #4]
10001e34:	4798      	blx	r3
10001e36:	bd10      	pop	{r4, pc}

10001e38 <_atoi>:
10001e38:	0001      	movs	r1, r0
10001e3a:	2000      	movs	r0, #0
10001e3c:	e007      	b.n	10001e4e <_atoi+0x16>
10001e3e:	0083      	lsls	r3, r0, #2
10001e40:	181b      	adds	r3, r3, r0
10001e42:	005b      	lsls	r3, r3, #1
10001e44:	1c50      	adds	r0, r2, #1
10001e46:	6008      	str	r0, [r1, #0]
10001e48:	7810      	ldrb	r0, [r2, #0]
10001e4a:	18c0      	adds	r0, r0, r3
10001e4c:	3830      	subs	r0, #48	; 0x30
10001e4e:	680a      	ldr	r2, [r1, #0]
10001e50:	7813      	ldrb	r3, [r2, #0]
10001e52:	3b30      	subs	r3, #48	; 0x30
10001e54:	b2db      	uxtb	r3, r3
10001e56:	2b09      	cmp	r3, #9
10001e58:	d9f1      	bls.n	10001e3e <_atoi+0x6>
10001e5a:	4770      	bx	lr

10001e5c <_out_rev>:
10001e5c:	b5f0      	push	{r4, r5, r6, r7, lr}
10001e5e:	46de      	mov	lr, fp
10001e60:	4657      	mov	r7, sl
10001e62:	464e      	mov	r6, r9
10001e64:	4645      	mov	r5, r8
10001e66:	b5e0      	push	{r5, r6, r7, lr}
10001e68:	b083      	sub	sp, #12
10001e6a:	4693      	mov	fp, r2
10001e6c:	001f      	movs	r7, r3
10001e6e:	9b0c      	ldr	r3, [sp, #48]	; 0x30
10001e70:	469a      	mov	sl, r3
10001e72:	9c0d      	ldr	r4, [sp, #52]	; 0x34
10001e74:	9b0e      	ldr	r3, [sp, #56]	; 0x38
10001e76:	4699      	mov	r9, r3
10001e78:	9b0f      	ldr	r3, [sp, #60]	; 0x3c
10001e7a:	079b      	lsls	r3, r3, #30
10001e7c:	d003      	beq.n	10001e86 <_out_rev+0x2a>
10001e7e:	46b8      	mov	r8, r7
10001e80:	000f      	movs	r7, r1
10001e82:	0006      	movs	r6, r0
10001e84:	e022      	b.n	10001ecc <_out_rev+0x70>
10001e86:	9201      	str	r2, [sp, #4]
10001e88:	46a3      	mov	fp, r4
10001e8a:	4688      	mov	r8, r1
10001e8c:	464e      	mov	r6, r9
10001e8e:	46b9      	mov	r9, r7
10001e90:	0007      	movs	r7, r0
10001e92:	42b4      	cmp	r4, r6
10001e94:	d207      	bcs.n	10001ea6 <_out_rev+0x4a>
10001e96:	1c55      	adds	r5, r2, #1
10001e98:	464b      	mov	r3, r9
10001e9a:	4641      	mov	r1, r8
10001e9c:	2020      	movs	r0, #32
10001e9e:	47b8      	blx	r7
10001ea0:	3401      	adds	r4, #1
10001ea2:	002a      	movs	r2, r5
10001ea4:	e7f5      	b.n	10001e92 <_out_rev+0x36>
10001ea6:	003d      	movs	r5, r7
10001ea8:	464f      	mov	r7, r9
10001eaa:	465c      	mov	r4, fp
10001eac:	9b01      	ldr	r3, [sp, #4]
10001eae:	469b      	mov	fp, r3
10001eb0:	46b1      	mov	r9, r6
10001eb2:	4646      	mov	r6, r8
10001eb4:	46b8      	mov	r8, r7
10001eb6:	0037      	movs	r7, r6
10001eb8:	002e      	movs	r6, r5
10001eba:	e007      	b.n	10001ecc <_out_rev+0x70>
10001ebc:	3c01      	subs	r4, #1
10001ebe:	1c55      	adds	r5, r2, #1
10001ec0:	4653      	mov	r3, sl
10001ec2:	5d18      	ldrb	r0, [r3, r4]
10001ec4:	4643      	mov	r3, r8
10001ec6:	0039      	movs	r1, r7
10001ec8:	47b0      	blx	r6
10001eca:	002a      	movs	r2, r5
10001ecc:	2c00      	cmp	r4, #0
10001ece:	d1f5      	bne.n	10001ebc <_out_rev+0x60>
10001ed0:	0035      	movs	r5, r6
10001ed2:	003e      	movs	r6, r7
10001ed4:	4647      	mov	r7, r8
10001ed6:	9b0f      	ldr	r3, [sp, #60]	; 0x3c
10001ed8:	079b      	lsls	r3, r3, #30
10001eda:	d407      	bmi.n	10001eec <_out_rev+0x90>
10001edc:	0010      	movs	r0, r2
10001ede:	b003      	add	sp, #12
10001ee0:	bcf0      	pop	{r4, r5, r6, r7}
10001ee2:	46bb      	mov	fp, r7
10001ee4:	46b2      	mov	sl, r6
10001ee6:	46a9      	mov	r9, r5
10001ee8:	46a0      	mov	r8, r4
10001eea:	bdf0      	pop	{r4, r5, r6, r7, pc}
10001eec:	46b0      	mov	r8, r6
10001eee:	464e      	mov	r6, r9
10001ef0:	46b9      	mov	r9, r7
10001ef2:	002f      	movs	r7, r5
10001ef4:	465d      	mov	r5, fp
10001ef6:	1b53      	subs	r3, r2, r5
10001ef8:	42b3      	cmp	r3, r6
10001efa:	d2ef      	bcs.n	10001edc <_out_rev+0x80>
10001efc:	1c54      	adds	r4, r2, #1
10001efe:	464b      	mov	r3, r9
10001f00:	4641      	mov	r1, r8
10001f02:	2020      	movs	r0, #32
10001f04:	47b8      	blx	r7
10001f06:	0022      	movs	r2, r4
10001f08:	e7f5      	b.n	10001ef6 <_out_rev+0x9a>

10001f0a <_ntoa_format>:
10001f0a:	b5f0      	push	{r4, r5, r6, r7, lr}
10001f0c:	46ce      	mov	lr, r9
10001f0e:	4647      	mov	r7, r8
10001f10:	b580      	push	{r7, lr}
10001f12:	b085      	sub	sp, #20
10001f14:	4694      	mov	ip, r2
10001f16:	4698      	mov	r8, r3
10001f18:	9d0c      	ldr	r5, [sp, #48]	; 0x30
10001f1a:	9c0d      	ldr	r4, [sp, #52]	; 0x34
10001f1c:	ab0e      	add	r3, sp, #56	; 0x38
10001f1e:	781b      	ldrb	r3, [r3, #0]
10001f20:	4699      	mov	r9, r3
10001f22:	9a10      	ldr	r2, [sp, #64]	; 0x40
10001f24:	9b11      	ldr	r3, [sp, #68]	; 0x44
10001f26:	9e12      	ldr	r6, [sp, #72]	; 0x48
10001f28:	07b7      	lsls	r7, r6, #30
10001f2a:	d41c      	bmi.n	10001f66 <_ntoa_format+0x5c>
10001f2c:	2b00      	cmp	r3, #0
10001f2e:	d00c      	beq.n	10001f4a <_ntoa_format+0x40>
10001f30:	07f7      	lsls	r7, r6, #31
10001f32:	d50a      	bpl.n	10001f4a <_ntoa_format+0x40>
10001f34:	464f      	mov	r7, r9
10001f36:	2f00      	cmp	r7, #0
10001f38:	d102      	bne.n	10001f40 <_ntoa_format+0x36>
10001f3a:	370c      	adds	r7, #12
10001f3c:	4237      	tst	r7, r6
10001f3e:	d004      	beq.n	10001f4a <_ntoa_format+0x40>
10001f40:	3b01      	subs	r3, #1
10001f42:	e002      	b.n	10001f4a <_ntoa_format+0x40>
10001f44:	2730      	movs	r7, #48	; 0x30
10001f46:	552f      	strb	r7, [r5, r4]
10001f48:	3401      	adds	r4, #1
10001f4a:	4294      	cmp	r4, r2
10001f4c:	d201      	bcs.n	10001f52 <_ntoa_format+0x48>
10001f4e:	2c1f      	cmp	r4, #31
10001f50:	d9f8      	bls.n	10001f44 <_ntoa_format+0x3a>
10001f52:	07f7      	lsls	r7, r6, #31
10001f54:	d507      	bpl.n	10001f66 <_ntoa_format+0x5c>
10001f56:	429c      	cmp	r4, r3
10001f58:	d205      	bcs.n	10001f66 <_ntoa_format+0x5c>
10001f5a:	2c1f      	cmp	r4, #31
10001f5c:	d803      	bhi.n	10001f66 <_ntoa_format+0x5c>
10001f5e:	2730      	movs	r7, #48	; 0x30
10001f60:	552f      	strb	r7, [r5, r4]
10001f62:	3401      	adds	r4, #1
10001f64:	e7f5      	b.n	10001f52 <_ntoa_format+0x48>
10001f66:	06f7      	lsls	r7, r6, #27
10001f68:	d515      	bpl.n	10001f96 <_ntoa_format+0x8c>
10001f6a:	0577      	lsls	r7, r6, #21
10001f6c:	d405      	bmi.n	10001f7a <_ntoa_format+0x70>
10001f6e:	2c00      	cmp	r4, #0
10001f70:	d003      	beq.n	10001f7a <_ntoa_format+0x70>
10001f72:	4294      	cmp	r4, r2
10001f74:	d024      	beq.n	10001fc0 <_ntoa_format+0xb6>
10001f76:	429c      	cmp	r4, r3
10001f78:	d022      	beq.n	10001fc0 <_ntoa_format+0xb6>
10001f7a:	9a0f      	ldr	r2, [sp, #60]	; 0x3c
10001f7c:	2a10      	cmp	r2, #16
10001f7e:	d02b      	beq.n	10001fd8 <_ntoa_format+0xce>
10001f80:	9a0f      	ldr	r2, [sp, #60]	; 0x3c
10001f82:	2a10      	cmp	r2, #16
10001f84:	d030      	beq.n	10001fe8 <_ntoa_format+0xde>
10001f86:	9a0f      	ldr	r2, [sp, #60]	; 0x3c
10001f88:	2a02      	cmp	r2, #2
10001f8a:	d035      	beq.n	10001ff8 <_ntoa_format+0xee>
10001f8c:	2c1f      	cmp	r4, #31
10001f8e:	d802      	bhi.n	10001f96 <_ntoa_format+0x8c>
10001f90:	2230      	movs	r2, #48	; 0x30
10001f92:	552a      	strb	r2, [r5, r4]
10001f94:	3401      	adds	r4, #1
10001f96:	2c1f      	cmp	r4, #31
10001f98:	d805      	bhi.n	10001fa6 <_ntoa_format+0x9c>
10001f9a:	464a      	mov	r2, r9
10001f9c:	2a00      	cmp	r2, #0
10001f9e:	d031      	beq.n	10002004 <_ntoa_format+0xfa>
10001fa0:	222d      	movs	r2, #45	; 0x2d
10001fa2:	552a      	strb	r2, [r5, r4]
10001fa4:	3401      	adds	r4, #1
10001fa6:	9603      	str	r6, [sp, #12]
10001fa8:	9302      	str	r3, [sp, #8]
10001faa:	9401      	str	r4, [sp, #4]
10001fac:	9500      	str	r5, [sp, #0]
10001fae:	4643      	mov	r3, r8
10001fb0:	4662      	mov	r2, ip
10001fb2:	f7ff ff53 	bl	10001e5c <_out_rev>
10001fb6:	b005      	add	sp, #20
10001fb8:	bcc0      	pop	{r6, r7}
10001fba:	46b9      	mov	r9, r7
10001fbc:	46b0      	mov	r8, r6
10001fbe:	bdf0      	pop	{r4, r5, r6, r7, pc}
10001fc0:	1e62      	subs	r2, r4, #1
10001fc2:	2c01      	cmp	r4, #1
10001fc4:	d006      	beq.n	10001fd4 <_ntoa_format+0xca>
10001fc6:	9f0f      	ldr	r7, [sp, #60]	; 0x3c
10001fc8:	2f10      	cmp	r7, #16
10001fca:	d001      	beq.n	10001fd0 <_ntoa_format+0xc6>
10001fcc:	0014      	movs	r4, r2
10001fce:	e7d4      	b.n	10001f7a <_ntoa_format+0x70>
10001fd0:	3c02      	subs	r4, #2
10001fd2:	e7d2      	b.n	10001f7a <_ntoa_format+0x70>
10001fd4:	0014      	movs	r4, r2
10001fd6:	e7d0      	b.n	10001f7a <_ntoa_format+0x70>
10001fd8:	06b2      	lsls	r2, r6, #26
10001fda:	d4d1      	bmi.n	10001f80 <_ntoa_format+0x76>
10001fdc:	2c1f      	cmp	r4, #31
10001fde:	d8cf      	bhi.n	10001f80 <_ntoa_format+0x76>
10001fe0:	2278      	movs	r2, #120	; 0x78
10001fe2:	552a      	strb	r2, [r5, r4]
10001fe4:	3401      	adds	r4, #1
10001fe6:	e7d1      	b.n	10001f8c <_ntoa_format+0x82>
10001fe8:	06b2      	lsls	r2, r6, #26
10001fea:	d5cc      	bpl.n	10001f86 <_ntoa_format+0x7c>
10001fec:	2c1f      	cmp	r4, #31
10001fee:	d8ca      	bhi.n	10001f86 <_ntoa_format+0x7c>
10001ff0:	2258      	movs	r2, #88	; 0x58
10001ff2:	552a      	strb	r2, [r5, r4]
10001ff4:	3401      	adds	r4, #1
10001ff6:	e7c9      	b.n	10001f8c <_ntoa_format+0x82>
10001ff8:	2c1f      	cmp	r4, #31
10001ffa:	d8c7      	bhi.n	10001f8c <_ntoa_format+0x82>
10001ffc:	3260      	adds	r2, #96	; 0x60
10001ffe:	552a      	strb	r2, [r5, r4]
10002000:	3401      	adds	r4, #1
10002002:	e7c3      	b.n	10001f8c <_ntoa_format+0x82>
10002004:	0772      	lsls	r2, r6, #29
10002006:	d503      	bpl.n	10002010 <_ntoa_format+0x106>
10002008:	222b      	movs	r2, #43	; 0x2b
1000200a:	552a      	strb	r2, [r5, r4]
1000200c:	3401      	adds	r4, #1
1000200e:	e7ca      	b.n	10001fa6 <_ntoa_format+0x9c>
10002010:	0732      	lsls	r2, r6, #28
10002012:	d5c8      	bpl.n	10001fa6 <_ntoa_format+0x9c>
10002014:	2220      	movs	r2, #32
10002016:	552a      	strb	r2, [r5, r4]
10002018:	3401      	adds	r4, #1
1000201a:	e7c4      	b.n	10001fa6 <_ntoa_format+0x9c>

1000201c <_ntoa_long>:
1000201c:	b5f0      	push	{r4, r5, r6, r7, lr}
1000201e:	46de      	mov	lr, fp
10002020:	4657      	mov	r7, sl
10002022:	464e      	mov	r6, r9
10002024:	4645      	mov	r5, r8
10002026:	b5e0      	push	{r5, r6, r7, lr}
10002028:	b093      	sub	sp, #76	; 0x4c
1000202a:	4681      	mov	r9, r0
1000202c:	468a      	mov	sl, r1
1000202e:	9208      	str	r2, [sp, #32]
10002030:	9309      	str	r3, [sp, #36]	; 0x24
10002032:	ab1c      	add	r3, sp, #112	; 0x70
10002034:	cb10      	ldmia	r3!, {r4}
10002036:	781b      	ldrb	r3, [r3, #0]
10002038:	469b      	mov	fp, r3
1000203a:	9d1e      	ldr	r5, [sp, #120]	; 0x78
1000203c:	9b21      	ldr	r3, [sp, #132]	; 0x84
1000203e:	4698      	mov	r8, r3
10002040:	2c00      	cmp	r4, #0
10002042:	d103      	bne.n	1000204c <_ntoa_long+0x30>
10002044:	2310      	movs	r3, #16
10002046:	4642      	mov	r2, r8
10002048:	439a      	bics	r2, r3
1000204a:	4690      	mov	r8, r2
1000204c:	2380      	movs	r3, #128	; 0x80
1000204e:	00db      	lsls	r3, r3, #3
10002050:	4646      	mov	r6, r8
10002052:	401e      	ands	r6, r3
10002054:	4642      	mov	r2, r8
10002056:	421a      	tst	r2, r3
10002058:	d012      	beq.n	10002080 <_ntoa_long+0x64>
1000205a:	2c00      	cmp	r4, #0
1000205c:	d022      	beq.n	100020a4 <_ntoa_long+0x88>
1000205e:	2600      	movs	r6, #0
10002060:	e00e      	b.n	10002080 <_ntoa_long+0x64>
10002062:	3330      	adds	r3, #48	; 0x30
10002064:	b2d9      	uxtb	r1, r3
10002066:	1c77      	adds	r7, r6, #1
10002068:	ab0a      	add	r3, sp, #40	; 0x28
1000206a:	5599      	strb	r1, [r3, r6]
1000206c:	0029      	movs	r1, r5
1000206e:	0020      	movs	r0, r4
10002070:	f000 ffd6 	bl	10003020 <__wrap___aeabi_uidiv>
10002074:	42ac      	cmp	r4, r5
10002076:	d316      	bcc.n	100020a6 <_ntoa_long+0x8a>
10002078:	2f1f      	cmp	r7, #31
1000207a:	d814      	bhi.n	100020a6 <_ntoa_long+0x8a>
1000207c:	003e      	movs	r6, r7
1000207e:	0004      	movs	r4, r0
10002080:	0029      	movs	r1, r5
10002082:	0020      	movs	r0, r4
10002084:	f000 ffcc 	bl	10003020 <__wrap___aeabi_uidiv>
10002088:	b2cb      	uxtb	r3, r1
1000208a:	2b09      	cmp	r3, #9
1000208c:	d9e9      	bls.n	10002062 <_ntoa_long+0x46>
1000208e:	4642      	mov	r2, r8
10002090:	0692      	lsls	r2, r2, #26
10002092:	d505      	bpl.n	100020a0 <_ntoa_long+0x84>
10002094:	2141      	movs	r1, #65	; 0x41
10002096:	18c9      	adds	r1, r1, r3
10002098:	b2c9      	uxtb	r1, r1
1000209a:	390a      	subs	r1, #10
1000209c:	b2c9      	uxtb	r1, r1
1000209e:	e7e2      	b.n	10002066 <_ntoa_long+0x4a>
100020a0:	2161      	movs	r1, #97	; 0x61
100020a2:	e7f8      	b.n	10002096 <_ntoa_long+0x7a>
100020a4:	0027      	movs	r7, r4
100020a6:	4643      	mov	r3, r8
100020a8:	9306      	str	r3, [sp, #24]
100020aa:	9b20      	ldr	r3, [sp, #128]	; 0x80
100020ac:	9305      	str	r3, [sp, #20]
100020ae:	9b1f      	ldr	r3, [sp, #124]	; 0x7c
100020b0:	9304      	str	r3, [sp, #16]
100020b2:	9503      	str	r5, [sp, #12]
100020b4:	465b      	mov	r3, fp
100020b6:	9302      	str	r3, [sp, #8]
100020b8:	9701      	str	r7, [sp, #4]
100020ba:	ab0a      	add	r3, sp, #40	; 0x28
100020bc:	9300      	str	r3, [sp, #0]
100020be:	9b09      	ldr	r3, [sp, #36]	; 0x24
100020c0:	9a08      	ldr	r2, [sp, #32]
100020c2:	4651      	mov	r1, sl
100020c4:	4648      	mov	r0, r9
100020c6:	f7ff ff20 	bl	10001f0a <_ntoa_format>
100020ca:	b013      	add	sp, #76	; 0x4c
100020cc:	bcf0      	pop	{r4, r5, r6, r7}
100020ce:	46bb      	mov	fp, r7
100020d0:	46b2      	mov	sl, r6
100020d2:	46a9      	mov	r9, r5
100020d4:	46a0      	mov	r8, r4
100020d6:	bdf0      	pop	{r4, r5, r6, r7, pc}

100020d8 <_ntoa_long_long>:
100020d8:	b5f0      	push	{r4, r5, r6, r7, lr}
100020da:	46de      	mov	lr, fp
100020dc:	4657      	mov	r7, sl
100020de:	464e      	mov	r6, r9
100020e0:	4645      	mov	r5, r8
100020e2:	b5e0      	push	{r5, r6, r7, lr}
100020e4:	b095      	sub	sp, #84	; 0x54
100020e6:	9008      	str	r0, [sp, #32]
100020e8:	9109      	str	r1, [sp, #36]	; 0x24
100020ea:	920a      	str	r2, [sp, #40]	; 0x28
100020ec:	930b      	str	r3, [sp, #44]	; 0x2c
100020ee:	9e1e      	ldr	r6, [sp, #120]	; 0x78
100020f0:	9c1f      	ldr	r4, [sp, #124]	; 0x7c
100020f2:	ab20      	add	r3, sp, #128	; 0x80
100020f4:	781b      	ldrb	r3, [r3, #0]
100020f6:	469b      	mov	fp, r3
100020f8:	9b22      	ldr	r3, [sp, #136]	; 0x88
100020fa:	4699      	mov	r9, r3
100020fc:	9d23      	ldr	r5, [sp, #140]	; 0x8c
100020fe:	9b26      	ldr	r3, [sp, #152]	; 0x98
10002100:	469a      	mov	sl, r3
10002102:	0033      	movs	r3, r6
10002104:	4323      	orrs	r3, r4
10002106:	d103      	bne.n	10002110 <_ntoa_long_long+0x38>
10002108:	3310      	adds	r3, #16
1000210a:	4652      	mov	r2, sl
1000210c:	439a      	bics	r2, r3
1000210e:	4692      	mov	sl, r2
10002110:	2380      	movs	r3, #128	; 0x80
10002112:	00db      	lsls	r3, r3, #3
10002114:	4657      	mov	r7, sl
10002116:	401f      	ands	r7, r3
10002118:	4652      	mov	r2, sl
1000211a:	421a      	tst	r2, r3
1000211c:	d019      	beq.n	10002152 <_ntoa_long_long+0x7a>
1000211e:	0033      	movs	r3, r6
10002120:	4323      	orrs	r3, r4
10002122:	d02d      	beq.n	10002180 <_ntoa_long_long+0xa8>
10002124:	2700      	movs	r7, #0
10002126:	e014      	b.n	10002152 <_ntoa_long_long+0x7a>
10002128:	3330      	adds	r3, #48	; 0x30
1000212a:	b2da      	uxtb	r2, r3
1000212c:	1c7b      	adds	r3, r7, #1
1000212e:	4698      	mov	r8, r3
10002130:	ab0c      	add	r3, sp, #48	; 0x30
10002132:	55da      	strb	r2, [r3, r7]
10002134:	464a      	mov	r2, r9
10002136:	002b      	movs	r3, r5
10002138:	0030      	movs	r0, r6
1000213a:	0021      	movs	r1, r4
1000213c:	f000 ffb2 	bl	100030a4 <__wrap___aeabi_uldivmod>
10002140:	42a5      	cmp	r5, r4
10002142:	d81f      	bhi.n	10002184 <_ntoa_long_long+0xac>
10002144:	d019      	beq.n	1000217a <_ntoa_long_long+0xa2>
10002146:	4643      	mov	r3, r8
10002148:	2b1f      	cmp	r3, #31
1000214a:	d81b      	bhi.n	10002184 <_ntoa_long_long+0xac>
1000214c:	4647      	mov	r7, r8
1000214e:	0006      	movs	r6, r0
10002150:	000c      	movs	r4, r1
10002152:	464a      	mov	r2, r9
10002154:	002b      	movs	r3, r5
10002156:	0030      	movs	r0, r6
10002158:	0021      	movs	r1, r4
1000215a:	f000 ffa3 	bl	100030a4 <__wrap___aeabi_uldivmod>
1000215e:	b2d3      	uxtb	r3, r2
10002160:	2b09      	cmp	r3, #9
10002162:	d9e1      	bls.n	10002128 <_ntoa_long_long+0x50>
10002164:	4652      	mov	r2, sl
10002166:	0692      	lsls	r2, r2, #26
10002168:	d505      	bpl.n	10002176 <_ntoa_long_long+0x9e>
1000216a:	2241      	movs	r2, #65	; 0x41
1000216c:	18d2      	adds	r2, r2, r3
1000216e:	b2d2      	uxtb	r2, r2
10002170:	3a0a      	subs	r2, #10
10002172:	b2d2      	uxtb	r2, r2
10002174:	e7da      	b.n	1000212c <_ntoa_long_long+0x54>
10002176:	2261      	movs	r2, #97	; 0x61
10002178:	e7f8      	b.n	1000216c <_ntoa_long_long+0x94>
1000217a:	45b1      	cmp	r9, r6
1000217c:	d9e3      	bls.n	10002146 <_ntoa_long_long+0x6e>
1000217e:	e001      	b.n	10002184 <_ntoa_long_long+0xac>
10002180:	2300      	movs	r3, #0
10002182:	4698      	mov	r8, r3
10002184:	4653      	mov	r3, sl
10002186:	9306      	str	r3, [sp, #24]
10002188:	9b25      	ldr	r3, [sp, #148]	; 0x94
1000218a:	9305      	str	r3, [sp, #20]
1000218c:	9b24      	ldr	r3, [sp, #144]	; 0x90
1000218e:	9304      	str	r3, [sp, #16]
10002190:	464b      	mov	r3, r9
10002192:	9303      	str	r3, [sp, #12]
10002194:	465b      	mov	r3, fp
10002196:	9302      	str	r3, [sp, #8]
10002198:	4643      	mov	r3, r8
1000219a:	9301      	str	r3, [sp, #4]
1000219c:	ab0c      	add	r3, sp, #48	; 0x30
1000219e:	9300      	str	r3, [sp, #0]
100021a0:	9b0b      	ldr	r3, [sp, #44]	; 0x2c
100021a2:	9a0a      	ldr	r2, [sp, #40]	; 0x28
100021a4:	9909      	ldr	r1, [sp, #36]	; 0x24
100021a6:	9808      	ldr	r0, [sp, #32]
100021a8:	f7ff feaf 	bl	10001f0a <_ntoa_format>
100021ac:	b015      	add	sp, #84	; 0x54
100021ae:	bcf0      	pop	{r4, r5, r6, r7}
100021b0:	46bb      	mov	fp, r7
100021b2:	46b2      	mov	sl, r6
100021b4:	46a9      	mov	r9, r5
100021b6:	46a0      	mov	r8, r4
100021b8:	bdf0      	pop	{r4, r5, r6, r7, pc}
	...

100021bc <_etoa>:
100021bc:	b5f0      	push	{r4, r5, r6, r7, lr}
100021be:	46de      	mov	lr, fp
100021c0:	4657      	mov	r7, sl
100021c2:	464e      	mov	r6, r9
100021c4:	4645      	mov	r5, r8
100021c6:	b5e0      	push	{r5, r6, r7, lr}
100021c8:	b091      	sub	sp, #68	; 0x44
100021ca:	4683      	mov	fp, r0
100021cc:	468a      	mov	sl, r1
100021ce:	920c      	str	r2, [sp, #48]	; 0x30
100021d0:	4698      	mov	r8, r3
100021d2:	9c1a      	ldr	r4, [sp, #104]	; 0x68
100021d4:	9408      	str	r4, [sp, #32]
100021d6:	9d1b      	ldr	r5, [sp, #108]	; 0x6c
100021d8:	9509      	str	r5, [sp, #36]	; 0x24
100021da:	0022      	movs	r2, r4
100021dc:	002b      	movs	r3, r5
100021de:	0020      	movs	r0, r4
100021e0:	0029      	movs	r1, r5
100021e2:	f001 f9ee 	bl	100035c2 <__wrap___aeabi_dcmpun>
100021e6:	2800      	cmp	r0, #0
100021e8:	d000      	beq.n	100021ec <_etoa+0x30>
100021ea:	e0e5      	b.n	100023b8 <_etoa+0x1fc>
100021ec:	2201      	movs	r2, #1
100021ee:	4252      	negs	r2, r2
100021f0:	4bd7      	ldr	r3, [pc, #860]	; (10002550 <_etoa+0x394>)
100021f2:	0020      	movs	r0, r4
100021f4:	0029      	movs	r1, r5
100021f6:	f001 f9df 	bl	100035b8 <__wrap___aeabi_dcmpgt>
100021fa:	2800      	cmp	r0, #0
100021fc:	d000      	beq.n	10002200 <_etoa+0x44>
100021fe:	e0db      	b.n	100023b8 <_etoa+0x1fc>
10002200:	2201      	movs	r2, #1
10002202:	4252      	negs	r2, r2
10002204:	4bd3      	ldr	r3, [pc, #844]	; (10002554 <_etoa+0x398>)
10002206:	0020      	movs	r0, r4
10002208:	0029      	movs	r1, r5
1000220a:	f001 f9bf 	bl	1000358c <__wrap___aeabi_dcmplt>
1000220e:	2800      	cmp	r0, #0
10002210:	d000      	beq.n	10002214 <_etoa+0x58>
10002212:	e0d1      	b.n	100023b8 <_etoa+0x1fc>
10002214:	2200      	movs	r2, #0
10002216:	2300      	movs	r3, #0
10002218:	9e08      	ldr	r6, [sp, #32]
1000221a:	0030      	movs	r0, r6
1000221c:	9d09      	ldr	r5, [sp, #36]	; 0x24
1000221e:	0029      	movs	r1, r5
10002220:	f001 f9b4 	bl	1000358c <__wrap___aeabi_dcmplt>
10002224:	2800      	cmp	r0, #0
10002226:	d000      	beq.n	1000222a <_etoa+0x6e>
10002228:	e0dd      	b.n	100023e6 <_etoa+0x22a>
1000222a:	9808      	ldr	r0, [sp, #32]
1000222c:	9909      	ldr	r1, [sp, #36]	; 0x24
1000222e:	9006      	str	r0, [sp, #24]
10002230:	9107      	str	r1, [sp, #28]
10002232:	2380      	movs	r3, #128	; 0x80
10002234:	00db      	lsls	r3, r3, #3
10002236:	9a1e      	ldr	r2, [sp, #120]	; 0x78
10002238:	401a      	ands	r2, r3
1000223a:	920d      	str	r2, [sp, #52]	; 0x34
1000223c:	9a1e      	ldr	r2, [sp, #120]	; 0x78
1000223e:	421a      	tst	r2, r3
10002240:	d101      	bne.n	10002246 <_etoa+0x8a>
10002242:	2306      	movs	r3, #6
10002244:	931c      	str	r3, [sp, #112]	; 0x70
10002246:	9806      	ldr	r0, [sp, #24]
10002248:	9907      	ldr	r1, [sp, #28]
1000224a:	0004      	movs	r4, r0
1000224c:	000d      	movs	r5, r1
1000224e:	000a      	movs	r2, r1
10002250:	0006      	movs	r6, r0
10002252:	4302      	orrs	r2, r0
10002254:	d100      	bne.n	10002258 <_etoa+0x9c>
10002256:	e0d1      	b.n	100023fc <_etoa+0x240>
10002258:	0d08      	lsrs	r0, r1, #20
1000225a:	0540      	lsls	r0, r0, #21
1000225c:	0d40      	lsrs	r0, r0, #21
1000225e:	4cbe      	ldr	r4, [pc, #760]	; (10002558 <_etoa+0x39c>)
10002260:	46a4      	mov	ip, r4
10002262:	4460      	add	r0, ip
10002264:	030a      	lsls	r2, r1, #12
10002266:	0b12      	lsrs	r2, r2, #12
10002268:	4bbc      	ldr	r3, [pc, #752]	; (1000255c <_etoa+0x3a0>)
1000226a:	4313      	orrs	r3, r2
1000226c:	001f      	movs	r7, r3
1000226e:	f001 f9bb 	bl	100035e8 <__wrap___aeabi_i2d>
10002272:	4abb      	ldr	r2, [pc, #748]	; (10002560 <_etoa+0x3a4>)
10002274:	4bbb      	ldr	r3, [pc, #748]	; (10002564 <_etoa+0x3a8>)
10002276:	f001 f946 	bl	10003506 <__wrap___aeabi_dmul>
1000227a:	4abb      	ldr	r2, [pc, #748]	; (10002568 <_etoa+0x3ac>)
1000227c:	4bbb      	ldr	r3, [pc, #748]	; (1000256c <_etoa+0x3b0>)
1000227e:	f001 f91b 	bl	100034b8 <__wrap___aeabi_dadd>
10002282:	0004      	movs	r4, r0
10002284:	000d      	movs	r5, r1
10002286:	2200      	movs	r2, #0
10002288:	4bb9      	ldr	r3, [pc, #740]	; (10002570 <_etoa+0x3b4>)
1000228a:	0030      	movs	r0, r6
1000228c:	0039      	movs	r1, r7
1000228e:	f001 f90a 	bl	100034a6 <__wrap___aeabi_dsub>
10002292:	4ab8      	ldr	r2, [pc, #736]	; (10002574 <_etoa+0x3b8>)
10002294:	4bb8      	ldr	r3, [pc, #736]	; (10002578 <_etoa+0x3bc>)
10002296:	f001 f936 	bl	10003506 <__wrap___aeabi_dmul>
1000229a:	0002      	movs	r2, r0
1000229c:	000b      	movs	r3, r1
1000229e:	0020      	movs	r0, r4
100022a0:	0029      	movs	r1, r5
100022a2:	f001 f909 	bl	100034b8 <__wrap___aeabi_dadd>
100022a6:	f001 f9b7 	bl	10003618 <__wrap___aeabi_d2iz>
100022aa:	4681      	mov	r9, r0
100022ac:	f001 f99c 	bl	100035e8 <__wrap___aeabi_i2d>
100022b0:	0004      	movs	r4, r0
100022b2:	000d      	movs	r5, r1
100022b4:	4ab1      	ldr	r2, [pc, #708]	; (1000257c <_etoa+0x3c0>)
100022b6:	4bb2      	ldr	r3, [pc, #712]	; (10002580 <_etoa+0x3c4>)
100022b8:	f001 f925 	bl	10003506 <__wrap___aeabi_dmul>
100022bc:	2200      	movs	r2, #0
100022be:	4bb1      	ldr	r3, [pc, #708]	; (10002584 <_etoa+0x3c8>)
100022c0:	f001 f8fa 	bl	100034b8 <__wrap___aeabi_dadd>
100022c4:	f001 f9a8 	bl	10003618 <__wrap___aeabi_d2iz>
100022c8:	0006      	movs	r6, r0
100022ca:	4aaf      	ldr	r2, [pc, #700]	; (10002588 <_etoa+0x3cc>)
100022cc:	4baf      	ldr	r3, [pc, #700]	; (1000258c <_etoa+0x3d0>)
100022ce:	0020      	movs	r0, r4
100022d0:	0029      	movs	r1, r5
100022d2:	f001 f918 	bl	10003506 <__wrap___aeabi_dmul>
100022d6:	0004      	movs	r4, r0
100022d8:	000d      	movs	r5, r1
100022da:	0030      	movs	r0, r6
100022dc:	f001 f984 	bl	100035e8 <__wrap___aeabi_i2d>
100022e0:	4aab      	ldr	r2, [pc, #684]	; (10002590 <_etoa+0x3d4>)
100022e2:	4bac      	ldr	r3, [pc, #688]	; (10002594 <_etoa+0x3d8>)
100022e4:	f001 f90f 	bl	10003506 <__wrap___aeabi_dmul>
100022e8:	0002      	movs	r2, r0
100022ea:	000b      	movs	r3, r1
100022ec:	0020      	movs	r0, r4
100022ee:	0029      	movs	r1, r5
100022f0:	f001 f8d9 	bl	100034a6 <__wrap___aeabi_dsub>
100022f4:	0004      	movs	r4, r0
100022f6:	000d      	movs	r5, r1
100022f8:	0002      	movs	r2, r0
100022fa:	000b      	movs	r3, r1
100022fc:	f001 f903 	bl	10003506 <__wrap___aeabi_dmul>
10002300:	900a      	str	r0, [sp, #40]	; 0x28
10002302:	910b      	str	r1, [sp, #44]	; 0x2c
10002304:	4ba4      	ldr	r3, [pc, #656]	; (10002598 <_etoa+0x3dc>)
10002306:	18f3      	adds	r3, r6, r3
10002308:	2600      	movs	r6, #0
1000230a:	051f      	lsls	r7, r3, #20
1000230c:	0022      	movs	r2, r4
1000230e:	002b      	movs	r3, r5
10002310:	0020      	movs	r0, r4
10002312:	0029      	movs	r1, r5
10002314:	f001 f8d0 	bl	100034b8 <__wrap___aeabi_dadd>
10002318:	900e      	str	r0, [sp, #56]	; 0x38
1000231a:	910f      	str	r1, [sp, #60]	; 0x3c
1000231c:	0022      	movs	r2, r4
1000231e:	002b      	movs	r3, r5
10002320:	2000      	movs	r0, #0
10002322:	2180      	movs	r1, #128	; 0x80
10002324:	05c9      	lsls	r1, r1, #23
10002326:	f001 f8be 	bl	100034a6 <__wrap___aeabi_dsub>
1000232a:	0004      	movs	r4, r0
1000232c:	000d      	movs	r5, r1
1000232e:	2200      	movs	r2, #0
10002330:	4b9a      	ldr	r3, [pc, #616]	; (1000259c <_etoa+0x3e0>)
10002332:	980a      	ldr	r0, [sp, #40]	; 0x28
10002334:	990b      	ldr	r1, [sp, #44]	; 0x2c
10002336:	f001 f8c8 	bl	100034ca <__wrap___aeabi_ddiv>
1000233a:	2200      	movs	r2, #0
1000233c:	4b98      	ldr	r3, [pc, #608]	; (100025a0 <_etoa+0x3e4>)
1000233e:	f001 f8bb 	bl	100034b8 <__wrap___aeabi_dadd>
10002342:	0002      	movs	r2, r0
10002344:	000b      	movs	r3, r1
10002346:	980a      	ldr	r0, [sp, #40]	; 0x28
10002348:	990b      	ldr	r1, [sp, #44]	; 0x2c
1000234a:	f001 f8be 	bl	100034ca <__wrap___aeabi_ddiv>
1000234e:	2200      	movs	r2, #0
10002350:	4b94      	ldr	r3, [pc, #592]	; (100025a4 <_etoa+0x3e8>)
10002352:	f001 f8b1 	bl	100034b8 <__wrap___aeabi_dadd>
10002356:	0002      	movs	r2, r0
10002358:	000b      	movs	r3, r1
1000235a:	980a      	ldr	r0, [sp, #40]	; 0x28
1000235c:	990b      	ldr	r1, [sp, #44]	; 0x2c
1000235e:	f001 f8b4 	bl	100034ca <__wrap___aeabi_ddiv>
10002362:	0002      	movs	r2, r0
10002364:	000b      	movs	r3, r1
10002366:	0020      	movs	r0, r4
10002368:	0029      	movs	r1, r5
1000236a:	f001 f8a5 	bl	100034b8 <__wrap___aeabi_dadd>
1000236e:	0002      	movs	r2, r0
10002370:	000b      	movs	r3, r1
10002372:	980e      	ldr	r0, [sp, #56]	; 0x38
10002374:	990f      	ldr	r1, [sp, #60]	; 0x3c
10002376:	f001 f8a8 	bl	100034ca <__wrap___aeabi_ddiv>
1000237a:	2200      	movs	r2, #0
1000237c:	4b77      	ldr	r3, [pc, #476]	; (1000255c <_etoa+0x3a0>)
1000237e:	f001 f89b 	bl	100034b8 <__wrap___aeabi_dadd>
10002382:	0032      	movs	r2, r6
10002384:	003b      	movs	r3, r7
10002386:	f001 f8be 	bl	10003506 <__wrap___aeabi_dmul>
1000238a:	0006      	movs	r6, r0
1000238c:	000f      	movs	r7, r1
1000238e:	0004      	movs	r4, r0
10002390:	000d      	movs	r5, r1
10002392:	9a06      	ldr	r2, [sp, #24]
10002394:	9b07      	ldr	r3, [sp, #28]
10002396:	f001 f90f 	bl	100035b8 <__wrap___aeabi_dcmpgt>
1000239a:	2800      	cmp	r0, #0
1000239c:	d030      	beq.n	10002400 <_etoa+0x244>
1000239e:	2301      	movs	r3, #1
100023a0:	425b      	negs	r3, r3
100023a2:	469c      	mov	ip, r3
100023a4:	44e1      	add	r9, ip
100023a6:	2200      	movs	r2, #0
100023a8:	4b7d      	ldr	r3, [pc, #500]	; (100025a0 <_etoa+0x3e4>)
100023aa:	0030      	movs	r0, r6
100023ac:	0039      	movs	r1, r7
100023ae:	f001 f88c 	bl	100034ca <__wrap___aeabi_ddiv>
100023b2:	0004      	movs	r4, r0
100023b4:	000d      	movs	r5, r1
100023b6:	e023      	b.n	10002400 <_etoa+0x244>
100023b8:	9b1e      	ldr	r3, [sp, #120]	; 0x78
100023ba:	9304      	str	r3, [sp, #16]
100023bc:	9b1d      	ldr	r3, [sp, #116]	; 0x74
100023be:	9303      	str	r3, [sp, #12]
100023c0:	9b1c      	ldr	r3, [sp, #112]	; 0x70
100023c2:	9302      	str	r3, [sp, #8]
100023c4:	9a08      	ldr	r2, [sp, #32]
100023c6:	9b09      	ldr	r3, [sp, #36]	; 0x24
100023c8:	9200      	str	r2, [sp, #0]
100023ca:	9301      	str	r3, [sp, #4]
100023cc:	4643      	mov	r3, r8
100023ce:	9a0c      	ldr	r2, [sp, #48]	; 0x30
100023d0:	4651      	mov	r1, sl
100023d2:	4658      	mov	r0, fp
100023d4:	f000 f8fc 	bl	100025d0 <_ftoa>
100023d8:	b011      	add	sp, #68	; 0x44
100023da:	bcf0      	pop	{r4, r5, r6, r7}
100023dc:	46bb      	mov	fp, r7
100023de:	46b2      	mov	sl, r6
100023e0:	46a9      	mov	r9, r5
100023e2:	46a0      	mov	r8, r4
100023e4:	bdf0      	pop	{r4, r5, r6, r7, pc}
100023e6:	2300      	movs	r3, #0
100023e8:	2400      	movs	r4, #0
100023ea:	9306      	str	r3, [sp, #24]
100023ec:	9407      	str	r4, [sp, #28]
100023ee:	9606      	str	r6, [sp, #24]
100023f0:	2380      	movs	r3, #128	; 0x80
100023f2:	061b      	lsls	r3, r3, #24
100023f4:	469c      	mov	ip, r3
100023f6:	4465      	add	r5, ip
100023f8:	9507      	str	r5, [sp, #28]
100023fa:	e71a      	b.n	10002232 <_etoa+0x76>
100023fc:	2300      	movs	r3, #0
100023fe:	4699      	mov	r9, r3
10002400:	464b      	mov	r3, r9
10002402:	3363      	adds	r3, #99	; 0x63
10002404:	2bc6      	cmp	r3, #198	; 0xc6
10002406:	d81e      	bhi.n	10002446 <_etoa+0x28a>
10002408:	2604      	movs	r6, #4
1000240a:	9b1e      	ldr	r3, [sp, #120]	; 0x78
1000240c:	051b      	lsls	r3, r3, #20
1000240e:	d526      	bpl.n	1000245e <_etoa+0x2a2>
10002410:	002b      	movs	r3, r5
10002412:	4323      	orrs	r3, r4
10002414:	d00f      	beq.n	10002436 <_etoa+0x27a>
10002416:	4a64      	ldr	r2, [pc, #400]	; (100025a8 <_etoa+0x3ec>)
10002418:	4b64      	ldr	r3, [pc, #400]	; (100025ac <_etoa+0x3f0>)
1000241a:	9806      	ldr	r0, [sp, #24]
1000241c:	9907      	ldr	r1, [sp, #28]
1000241e:	f001 f8c3 	bl	100035a8 <__wrap___aeabi_dcmpge>
10002422:	2800      	cmp	r0, #0
10002424:	d079      	beq.n	1000251a <_etoa+0x35e>
10002426:	2200      	movs	r2, #0
10002428:	4b61      	ldr	r3, [pc, #388]	; (100025b0 <_etoa+0x3f4>)
1000242a:	9806      	ldr	r0, [sp, #24]
1000242c:	9907      	ldr	r1, [sp, #28]
1000242e:	f001 f8ad 	bl	1000358c <__wrap___aeabi_dcmplt>
10002432:	2800      	cmp	r0, #0
10002434:	d071      	beq.n	1000251a <_etoa+0x35e>
10002436:	9b1c      	ldr	r3, [sp, #112]	; 0x70
10002438:	454b      	cmp	r3, r9
1000243a:	dd06      	ble.n	1000244a <_etoa+0x28e>
1000243c:	464a      	mov	r2, r9
1000243e:	1a98      	subs	r0, r3, r2
10002440:	1e43      	subs	r3, r0, #1
10002442:	931c      	str	r3, [sp, #112]	; 0x70
10002444:	e003      	b.n	1000244e <_etoa+0x292>
10002446:	2605      	movs	r6, #5
10002448:	e7df      	b.n	1000240a <_etoa+0x24e>
1000244a:	2300      	movs	r3, #0
1000244c:	931c      	str	r3, [sp, #112]	; 0x70
1000244e:	2380      	movs	r3, #128	; 0x80
10002450:	00db      	lsls	r3, r3, #3
10002452:	9a1e      	ldr	r2, [sp, #120]	; 0x78
10002454:	431a      	orrs	r2, r3
10002456:	921e      	str	r2, [sp, #120]	; 0x78
10002458:	2600      	movs	r6, #0
1000245a:	2300      	movs	r3, #0
1000245c:	4699      	mov	r9, r3
1000245e:	9b1d      	ldr	r3, [sp, #116]	; 0x74
10002460:	429e      	cmp	r6, r3
10002462:	d264      	bcs.n	1000252e <_etoa+0x372>
10002464:	1b9f      	subs	r7, r3, r6
10002466:	2302      	movs	r3, #2
10002468:	9a1e      	ldr	r2, [sp, #120]	; 0x78
1000246a:	401a      	ands	r2, r3
1000246c:	920a      	str	r2, [sp, #40]	; 0x28
1000246e:	9a1e      	ldr	r2, [sp, #120]	; 0x78
10002470:	4213      	tst	r3, r2
10002472:	d002      	beq.n	1000247a <_etoa+0x2be>
10002474:	2e00      	cmp	r6, #0
10002476:	d000      	beq.n	1000247a <_etoa+0x2be>
10002478:	2700      	movs	r7, #0
1000247a:	464b      	mov	r3, r9
1000247c:	2b00      	cmp	r3, #0
1000247e:	d007      	beq.n	10002490 <_etoa+0x2d4>
10002480:	0022      	movs	r2, r4
10002482:	002b      	movs	r3, r5
10002484:	9806      	ldr	r0, [sp, #24]
10002486:	9907      	ldr	r1, [sp, #28]
10002488:	f001 f81f 	bl	100034ca <__wrap___aeabi_ddiv>
1000248c:	9006      	str	r0, [sp, #24]
1000248e:	9107      	str	r1, [sp, #28]
10002490:	2200      	movs	r2, #0
10002492:	2300      	movs	r3, #0
10002494:	9808      	ldr	r0, [sp, #32]
10002496:	9909      	ldr	r1, [sp, #36]	; 0x24
10002498:	f001 f878 	bl	1000358c <__wrap___aeabi_dcmplt>
1000249c:	2800      	cmp	r0, #0
1000249e:	d148      	bne.n	10002532 <_etoa+0x376>
100024a0:	4b44      	ldr	r3, [pc, #272]	; (100025b4 <_etoa+0x3f8>)
100024a2:	9a1e      	ldr	r2, [sp, #120]	; 0x78
100024a4:	4013      	ands	r3, r2
100024a6:	9304      	str	r3, [sp, #16]
100024a8:	9703      	str	r7, [sp, #12]
100024aa:	9b1c      	ldr	r3, [sp, #112]	; 0x70
100024ac:	9302      	str	r3, [sp, #8]
100024ae:	9b06      	ldr	r3, [sp, #24]
100024b0:	9c07      	ldr	r4, [sp, #28]
100024b2:	9300      	str	r3, [sp, #0]
100024b4:	9401      	str	r4, [sp, #4]
100024b6:	4643      	mov	r3, r8
100024b8:	9a0c      	ldr	r2, [sp, #48]	; 0x30
100024ba:	4651      	mov	r1, sl
100024bc:	4658      	mov	r0, fp
100024be:	f000 f887 	bl	100025d0 <_ftoa>
100024c2:	2e00      	cmp	r6, #0
100024c4:	d100      	bne.n	100024c8 <_etoa+0x30c>
100024c6:	e787      	b.n	100023d8 <_etoa+0x21c>
100024c8:	9b1e      	ldr	r3, [sp, #120]	; 0x78
100024ca:	069b      	lsls	r3, r3, #26
100024cc:	d53d      	bpl.n	1000254a <_etoa+0x38e>
100024ce:	2545      	movs	r5, #69	; 0x45
100024d0:	1c44      	adds	r4, r0, #1
100024d2:	4643      	mov	r3, r8
100024d4:	0002      	movs	r2, r0
100024d6:	4651      	mov	r1, sl
100024d8:	0028      	movs	r0, r5
100024da:	47d8      	blx	fp
100024dc:	464b      	mov	r3, r9
100024de:	17da      	asrs	r2, r3, #31
100024e0:	189b      	adds	r3, r3, r2
100024e2:	4053      	eors	r3, r2
100024e4:	2205      	movs	r2, #5
100024e6:	9205      	str	r2, [sp, #20]
100024e8:	3e01      	subs	r6, #1
100024ea:	9604      	str	r6, [sp, #16]
100024ec:	2200      	movs	r2, #0
100024ee:	9203      	str	r2, [sp, #12]
100024f0:	320a      	adds	r2, #10
100024f2:	9202      	str	r2, [sp, #8]
100024f4:	464a      	mov	r2, r9
100024f6:	0fd0      	lsrs	r0, r2, #31
100024f8:	9001      	str	r0, [sp, #4]
100024fa:	9300      	str	r3, [sp, #0]
100024fc:	4643      	mov	r3, r8
100024fe:	0022      	movs	r2, r4
10002500:	4651      	mov	r1, sl
10002502:	4658      	mov	r0, fp
10002504:	f7ff fd8a 	bl	1000201c <_ntoa_long>
10002508:	9b0a      	ldr	r3, [sp, #40]	; 0x28
1000250a:	2b00      	cmp	r3, #0
1000250c:	d100      	bne.n	10002510 <_etoa+0x354>
1000250e:	e763      	b.n	100023d8 <_etoa+0x21c>
10002510:	0002      	movs	r2, r0
10002512:	465f      	mov	r7, fp
10002514:	9e0c      	ldr	r6, [sp, #48]	; 0x30
10002516:	9d1d      	ldr	r5, [sp, #116]	; 0x74
10002518:	e054      	b.n	100025c4 <_etoa+0x408>
1000251a:	9b1c      	ldr	r3, [sp, #112]	; 0x70
1000251c:	2b00      	cmp	r3, #0
1000251e:	d09e      	beq.n	1000245e <_etoa+0x2a2>
10002520:	9b0d      	ldr	r3, [sp, #52]	; 0x34
10002522:	2b00      	cmp	r3, #0
10002524:	d09b      	beq.n	1000245e <_etoa+0x2a2>
10002526:	9b1c      	ldr	r3, [sp, #112]	; 0x70
10002528:	3b01      	subs	r3, #1
1000252a:	931c      	str	r3, [sp, #112]	; 0x70
1000252c:	e797      	b.n	1000245e <_etoa+0x2a2>
1000252e:	2700      	movs	r7, #0
10002530:	e799      	b.n	10002466 <_etoa+0x2aa>
10002532:	9c06      	ldr	r4, [sp, #24]
10002534:	9d07      	ldr	r5, [sp, #28]
10002536:	0022      	movs	r2, r4
10002538:	0029      	movs	r1, r5
1000253a:	2080      	movs	r0, #128	; 0x80
1000253c:	0600      	lsls	r0, r0, #24
1000253e:	4684      	mov	ip, r0
10002540:	4461      	add	r1, ip
10002542:	000b      	movs	r3, r1
10002544:	9206      	str	r2, [sp, #24]
10002546:	9307      	str	r3, [sp, #28]
10002548:	e7aa      	b.n	100024a0 <_etoa+0x2e4>
1000254a:	2565      	movs	r5, #101	; 0x65
1000254c:	e7c0      	b.n	100024d0 <_etoa+0x314>
1000254e:	46c0      	nop			; (mov r8, r8)
10002550:	7fefffff 	.word	0x7fefffff
10002554:	ffefffff 	.word	0xffefffff
10002558:	fffffc01 	.word	0xfffffc01
1000255c:	3ff00000 	.word	0x3ff00000
10002560:	509f79fb 	.word	0x509f79fb
10002564:	3fd34413 	.word	0x3fd34413
10002568:	8b60c8b3 	.word	0x8b60c8b3
1000256c:	3fc68a28 	.word	0x3fc68a28
10002570:	3ff80000 	.word	0x3ff80000
10002574:	636f4361 	.word	0x636f4361
10002578:	3fd287a7 	.word	0x3fd287a7
1000257c:	0979a371 	.word	0x0979a371
10002580:	400a934f 	.word	0x400a934f
10002584:	3fe00000 	.word	0x3fe00000
10002588:	bbb55516 	.word	0xbbb55516
1000258c:	40026bb1 	.word	0x40026bb1
10002590:	fefa39ef 	.word	0xfefa39ef
10002594:	3fe62e42 	.word	0x3fe62e42
10002598:	000003ff 	.word	0x000003ff
1000259c:	402c0000 	.word	0x402c0000
100025a0:	40240000 	.word	0x40240000
100025a4:	40180000 	.word	0x40180000
100025a8:	eb1c432d 	.word	0xeb1c432d
100025ac:	3f1a36e2 	.word	0x3f1a36e2
100025b0:	412e8480 	.word	0x412e8480
100025b4:	fffff7ff 	.word	0xfffff7ff
100025b8:	1c54      	adds	r4, r2, #1
100025ba:	4643      	mov	r3, r8
100025bc:	4651      	mov	r1, sl
100025be:	2020      	movs	r0, #32
100025c0:	47b8      	blx	r7
100025c2:	0022      	movs	r2, r4
100025c4:	1b93      	subs	r3, r2, r6
100025c6:	42ab      	cmp	r3, r5
100025c8:	d3f6      	bcc.n	100025b8 <_etoa+0x3fc>
100025ca:	0010      	movs	r0, r2
100025cc:	e704      	b.n	100023d8 <_etoa+0x21c>
100025ce:	46c0      	nop			; (mov r8, r8)

100025d0 <_ftoa>:
100025d0:	b5f0      	push	{r4, r5, r6, r7, lr}
100025d2:	46de      	mov	lr, fp
100025d4:	4657      	mov	r7, sl
100025d6:	464e      	mov	r6, r9
100025d8:	4645      	mov	r5, r8
100025da:	b5e0      	push	{r5, r6, r7, lr}
100025dc:	b095      	sub	sp, #84	; 0x54
100025de:	9006      	str	r0, [sp, #24]
100025e0:	9107      	str	r1, [sp, #28]
100025e2:	4693      	mov	fp, r2
100025e4:	4699      	mov	r9, r3
100025e6:	9f20      	ldr	r7, [sp, #128]	; 0x80
100025e8:	9a1e      	ldr	r2, [sp, #120]	; 0x78
100025ea:	9b1f      	ldr	r3, [sp, #124]	; 0x7c
100025ec:	0010      	movs	r0, r2
100025ee:	0019      	movs	r1, r3
100025f0:	f000 ffe7 	bl	100035c2 <__wrap___aeabi_dcmpun>
100025f4:	2800      	cmp	r0, #0
100025f6:	d131      	bne.n	1000265c <_ftoa+0x8c>
100025f8:	2201      	movs	r2, #1
100025fa:	4252      	negs	r2, r2
100025fc:	4bbf      	ldr	r3, [pc, #764]	; (100028fc <_ftoa+0x32c>)
100025fe:	981e      	ldr	r0, [sp, #120]	; 0x78
10002600:	991f      	ldr	r1, [sp, #124]	; 0x7c
10002602:	f000 ffc3 	bl	1000358c <__wrap___aeabi_dcmplt>
10002606:	2800      	cmp	r0, #0
10002608:	d137      	bne.n	1000267a <_ftoa+0xaa>
1000260a:	2201      	movs	r2, #1
1000260c:	4252      	negs	r2, r2
1000260e:	4bbc      	ldr	r3, [pc, #752]	; (10002900 <_ftoa+0x330>)
10002610:	981e      	ldr	r0, [sp, #120]	; 0x78
10002612:	991f      	ldr	r1, [sp, #124]	; 0x7c
10002614:	f000 ffd0 	bl	100035b8 <__wrap___aeabi_dcmpgt>
10002618:	2800      	cmp	r0, #0
1000261a:	d13d      	bne.n	10002698 <_ftoa+0xc8>
1000261c:	2200      	movs	r2, #0
1000261e:	4bb9      	ldr	r3, [pc, #740]	; (10002904 <_ftoa+0x334>)
10002620:	981e      	ldr	r0, [sp, #120]	; 0x78
10002622:	991f      	ldr	r1, [sp, #124]	; 0x7c
10002624:	f000 ffc8 	bl	100035b8 <__wrap___aeabi_dcmpgt>
10002628:	2800      	cmp	r0, #0
1000262a:	d150      	bne.n	100026ce <_ftoa+0xfe>
1000262c:	2200      	movs	r2, #0
1000262e:	4bb6      	ldr	r3, [pc, #728]	; (10002908 <_ftoa+0x338>)
10002630:	981e      	ldr	r0, [sp, #120]	; 0x78
10002632:	991f      	ldr	r1, [sp, #124]	; 0x7c
10002634:	f000 ffaa 	bl	1000358c <__wrap___aeabi_dcmplt>
10002638:	2800      	cmp	r0, #0
1000263a:	d148      	bne.n	100026ce <_ftoa+0xfe>
1000263c:	2200      	movs	r2, #0
1000263e:	2300      	movs	r3, #0
10002640:	981e      	ldr	r0, [sp, #120]	; 0x78
10002642:	991f      	ldr	r1, [sp, #124]	; 0x7c
10002644:	f000 ffa2 	bl	1000358c <__wrap___aeabi_dcmplt>
10002648:	2800      	cmp	r0, #0
1000264a:	d150      	bne.n	100026ee <_ftoa+0x11e>
1000264c:	2300      	movs	r3, #0
1000264e:	4698      	mov	r8, r3
10002650:	9b22      	ldr	r3, [sp, #136]	; 0x88
10002652:	055b      	lsls	r3, r3, #21
10002654:	d400      	bmi.n	10002658 <_ftoa+0x88>
10002656:	e0b6      	b.n	100027c6 <_ftoa+0x1f6>
10002658:	2400      	movs	r4, #0
1000265a:	e058      	b.n	1000270e <_ftoa+0x13e>
1000265c:	9b22      	ldr	r3, [sp, #136]	; 0x88
1000265e:	9303      	str	r3, [sp, #12]
10002660:	9b21      	ldr	r3, [sp, #132]	; 0x84
10002662:	9302      	str	r3, [sp, #8]
10002664:	2303      	movs	r3, #3
10002666:	9301      	str	r3, [sp, #4]
10002668:	4ba8      	ldr	r3, [pc, #672]	; (1000290c <_ftoa+0x33c>)
1000266a:	9300      	str	r3, [sp, #0]
1000266c:	464b      	mov	r3, r9
1000266e:	465a      	mov	r2, fp
10002670:	9907      	ldr	r1, [sp, #28]
10002672:	9806      	ldr	r0, [sp, #24]
10002674:	f7ff fbf2 	bl	10001e5c <_out_rev>
10002678:	e10e      	b.n	10002898 <_ftoa+0x2c8>
1000267a:	9b22      	ldr	r3, [sp, #136]	; 0x88
1000267c:	9303      	str	r3, [sp, #12]
1000267e:	9b21      	ldr	r3, [sp, #132]	; 0x84
10002680:	9302      	str	r3, [sp, #8]
10002682:	2304      	movs	r3, #4
10002684:	9301      	str	r3, [sp, #4]
10002686:	4ba2      	ldr	r3, [pc, #648]	; (10002910 <_ftoa+0x340>)
10002688:	9300      	str	r3, [sp, #0]
1000268a:	464b      	mov	r3, r9
1000268c:	465a      	mov	r2, fp
1000268e:	9907      	ldr	r1, [sp, #28]
10002690:	9806      	ldr	r0, [sp, #24]
10002692:	f7ff fbe3 	bl	10001e5c <_out_rev>
10002696:	e0ff      	b.n	10002898 <_ftoa+0x2c8>
10002698:	2304      	movs	r3, #4
1000269a:	9a22      	ldr	r2, [sp, #136]	; 0x88
1000269c:	401a      	ands	r2, r3
1000269e:	9922      	ldr	r1, [sp, #136]	; 0x88
100026a0:	420b      	tst	r3, r1
100026a2:	d010      	beq.n	100026c6 <_ftoa+0xf6>
100026a4:	4b9b      	ldr	r3, [pc, #620]	; (10002914 <_ftoa+0x344>)
100026a6:	2a00      	cmp	r2, #0
100026a8:	d00f      	beq.n	100026ca <_ftoa+0xfa>
100026aa:	2204      	movs	r2, #4
100026ac:	9922      	ldr	r1, [sp, #136]	; 0x88
100026ae:	9103      	str	r1, [sp, #12]
100026b0:	9921      	ldr	r1, [sp, #132]	; 0x84
100026b2:	9102      	str	r1, [sp, #8]
100026b4:	9201      	str	r2, [sp, #4]
100026b6:	9300      	str	r3, [sp, #0]
100026b8:	464b      	mov	r3, r9
100026ba:	465a      	mov	r2, fp
100026bc:	9907      	ldr	r1, [sp, #28]
100026be:	9806      	ldr	r0, [sp, #24]
100026c0:	f7ff fbcc 	bl	10001e5c <_out_rev>
100026c4:	e0e8      	b.n	10002898 <_ftoa+0x2c8>
100026c6:	4b94      	ldr	r3, [pc, #592]	; (10002918 <_ftoa+0x348>)
100026c8:	e7ed      	b.n	100026a6 <_ftoa+0xd6>
100026ca:	2203      	movs	r2, #3
100026cc:	e7ee      	b.n	100026ac <_ftoa+0xdc>
100026ce:	9b22      	ldr	r3, [sp, #136]	; 0x88
100026d0:	9304      	str	r3, [sp, #16]
100026d2:	9b21      	ldr	r3, [sp, #132]	; 0x84
100026d4:	9303      	str	r3, [sp, #12]
100026d6:	9702      	str	r7, [sp, #8]
100026d8:	9b1e      	ldr	r3, [sp, #120]	; 0x78
100026da:	9c1f      	ldr	r4, [sp, #124]	; 0x7c
100026dc:	9300      	str	r3, [sp, #0]
100026de:	9401      	str	r4, [sp, #4]
100026e0:	464b      	mov	r3, r9
100026e2:	465a      	mov	r2, fp
100026e4:	9907      	ldr	r1, [sp, #28]
100026e6:	9806      	ldr	r0, [sp, #24]
100026e8:	f7ff fd68 	bl	100021bc <_etoa>
100026ec:	e0d4      	b.n	10002898 <_ftoa+0x2c8>
100026ee:	9a1e      	ldr	r2, [sp, #120]	; 0x78
100026f0:	9b1f      	ldr	r3, [sp, #124]	; 0x7c
100026f2:	2000      	movs	r0, #0
100026f4:	2100      	movs	r1, #0
100026f6:	f000 fed6 	bl	100034a6 <__wrap___aeabi_dsub>
100026fa:	901e      	str	r0, [sp, #120]	; 0x78
100026fc:	911f      	str	r1, [sp, #124]	; 0x7c
100026fe:	2301      	movs	r3, #1
10002700:	4698      	mov	r8, r3
10002702:	e7a5      	b.n	10002650 <_ftoa+0x80>
10002704:	ab0c      	add	r3, sp, #48	; 0x30
10002706:	2230      	movs	r2, #48	; 0x30
10002708:	551a      	strb	r2, [r3, r4]
1000270a:	3f01      	subs	r7, #1
1000270c:	3401      	adds	r4, #1
1000270e:	2c1f      	cmp	r4, #31
10002710:	d801      	bhi.n	10002716 <_ftoa+0x146>
10002712:	2f09      	cmp	r7, #9
10002714:	d8f6      	bhi.n	10002704 <_ftoa+0x134>
10002716:	981e      	ldr	r0, [sp, #120]	; 0x78
10002718:	991f      	ldr	r1, [sp, #124]	; 0x7c
1000271a:	f000 ff7d 	bl	10003618 <__wrap___aeabi_d2iz>
1000271e:	0005      	movs	r5, r0
10002720:	f000 ff62 	bl	100035e8 <__wrap___aeabi_i2d>
10002724:	0002      	movs	r2, r0
10002726:	000b      	movs	r3, r1
10002728:	981e      	ldr	r0, [sp, #120]	; 0x78
1000272a:	991f      	ldr	r1, [sp, #124]	; 0x7c
1000272c:	f000 febb 	bl	100034a6 <__wrap___aeabi_dsub>
10002730:	00fa      	lsls	r2, r7, #3
10002732:	4b7a      	ldr	r3, [pc, #488]	; (1000291c <_ftoa+0x34c>)
10002734:	189b      	adds	r3, r3, r2
10002736:	681a      	ldr	r2, [r3, #0]
10002738:	685b      	ldr	r3, [r3, #4]
1000273a:	920a      	str	r2, [sp, #40]	; 0x28
1000273c:	930b      	str	r3, [sp, #44]	; 0x2c
1000273e:	f000 fee2 	bl	10003506 <__wrap___aeabi_dmul>
10002742:	9008      	str	r0, [sp, #32]
10002744:	9109      	str	r1, [sp, #36]	; 0x24
10002746:	f000 ff8b 	bl	10003660 <__wrap___aeabi_d2uiz>
1000274a:	0006      	movs	r6, r0
1000274c:	f000 ff48 	bl	100035e0 <__wrap___aeabi_ui2d>
10002750:	0002      	movs	r2, r0
10002752:	000b      	movs	r3, r1
10002754:	9808      	ldr	r0, [sp, #32]
10002756:	9909      	ldr	r1, [sp, #36]	; 0x24
10002758:	f000 fea5 	bl	100034a6 <__wrap___aeabi_dsub>
1000275c:	9008      	str	r0, [sp, #32]
1000275e:	9109      	str	r1, [sp, #36]	; 0x24
10002760:	2200      	movs	r2, #0
10002762:	4b6f      	ldr	r3, [pc, #444]	; (10002920 <_ftoa+0x350>)
10002764:	f000 ff28 	bl	100035b8 <__wrap___aeabi_dcmpgt>
10002768:	2800      	cmp	r0, #0
1000276a:	d02e      	beq.n	100027ca <_ftoa+0x1fa>
1000276c:	3601      	adds	r6, #1
1000276e:	0030      	movs	r0, r6
10002770:	f000 ff36 	bl	100035e0 <__wrap___aeabi_ui2d>
10002774:	0002      	movs	r2, r0
10002776:	000b      	movs	r3, r1
10002778:	980a      	ldr	r0, [sp, #40]	; 0x28
1000277a:	990b      	ldr	r1, [sp, #44]	; 0x2c
1000277c:	f000 ff0c 	bl	10003598 <__wrap___aeabi_dcmple>
10002780:	2800      	cmp	r0, #0
10002782:	d001      	beq.n	10002788 <_ftoa+0x1b8>
10002784:	3501      	adds	r5, #1
10002786:	2600      	movs	r6, #0
10002788:	2f00      	cmp	r7, #0
1000278a:	d12c      	bne.n	100027e6 <_ftoa+0x216>
1000278c:	0028      	movs	r0, r5
1000278e:	f000 ff2b 	bl	100035e8 <__wrap___aeabi_i2d>
10002792:	0002      	movs	r2, r0
10002794:	000b      	movs	r3, r1
10002796:	981e      	ldr	r0, [sp, #120]	; 0x78
10002798:	991f      	ldr	r1, [sp, #124]	; 0x7c
1000279a:	f000 fe84 	bl	100034a6 <__wrap___aeabi_dsub>
1000279e:	0006      	movs	r6, r0
100027a0:	000f      	movs	r7, r1
100027a2:	2200      	movs	r2, #0
100027a4:	4b5e      	ldr	r3, [pc, #376]	; (10002920 <_ftoa+0x350>)
100027a6:	f000 fef1 	bl	1000358c <__wrap___aeabi_dcmplt>
100027aa:	2800      	cmp	r0, #0
100027ac:	d146      	bne.n	1000283c <_ftoa+0x26c>
100027ae:	2200      	movs	r2, #0
100027b0:	4b5b      	ldr	r3, [pc, #364]	; (10002920 <_ftoa+0x350>)
100027b2:	0030      	movs	r0, r6
100027b4:	0039      	movs	r1, r7
100027b6:	f000 feff 	bl	100035b8 <__wrap___aeabi_dcmpgt>
100027ba:	2800      	cmp	r0, #0
100027bc:	d13e      	bne.n	1000283c <_ftoa+0x26c>
100027be:	07eb      	lsls	r3, r5, #31
100027c0:	d53c      	bpl.n	1000283c <_ftoa+0x26c>
100027c2:	3501      	adds	r5, #1
100027c4:	e03a      	b.n	1000283c <_ftoa+0x26c>
100027c6:	2706      	movs	r7, #6
100027c8:	e746      	b.n	10002658 <_ftoa+0x88>
100027ca:	2200      	movs	r2, #0
100027cc:	4b54      	ldr	r3, [pc, #336]	; (10002920 <_ftoa+0x350>)
100027ce:	9808      	ldr	r0, [sp, #32]
100027d0:	9909      	ldr	r1, [sp, #36]	; 0x24
100027d2:	f000 fedb 	bl	1000358c <__wrap___aeabi_dcmplt>
100027d6:	2800      	cmp	r0, #0
100027d8:	d1d6      	bne.n	10002788 <_ftoa+0x1b8>
100027da:	2e00      	cmp	r6, #0
100027dc:	d001      	beq.n	100027e2 <_ftoa+0x212>
100027de:	07f3      	lsls	r3, r6, #31
100027e0:	d5d2      	bpl.n	10002788 <_ftoa+0x1b8>
100027e2:	3601      	adds	r6, #1
100027e4:	e7d0      	b.n	10002788 <_ftoa+0x1b8>
100027e6:	46aa      	mov	sl, r5
100027e8:	2c1f      	cmp	r4, #31
100027ea:	d811      	bhi.n	10002810 <_ftoa+0x240>
100027ec:	3f01      	subs	r7, #1
100027ee:	210a      	movs	r1, #10
100027f0:	0030      	movs	r0, r6
100027f2:	f000 fc15 	bl	10003020 <__wrap___aeabi_uidiv>
100027f6:	1c65      	adds	r5, r4, #1
100027f8:	3130      	adds	r1, #48	; 0x30
100027fa:	ab0c      	add	r3, sp, #48	; 0x30
100027fc:	5519      	strb	r1, [r3, r4]
100027fe:	210a      	movs	r1, #10
10002800:	0030      	movs	r0, r6
10002802:	f000 fc0d 	bl	10003020 <__wrap___aeabi_uidiv>
10002806:	2e09      	cmp	r6, #9
10002808:	d90e      	bls.n	10002828 <_ftoa+0x258>
1000280a:	0006      	movs	r6, r0
1000280c:	002c      	movs	r4, r5
1000280e:	e7eb      	b.n	100027e8 <_ftoa+0x218>
10002810:	4655      	mov	r5, sl
10002812:	2c1f      	cmp	r4, #31
10002814:	d80c      	bhi.n	10002830 <_ftoa+0x260>
10002816:	1e7b      	subs	r3, r7, #1
10002818:	2f00      	cmp	r7, #0
1000281a:	d009      	beq.n	10002830 <_ftoa+0x260>
1000281c:	aa0c      	add	r2, sp, #48	; 0x30
1000281e:	2130      	movs	r1, #48	; 0x30
10002820:	5511      	strb	r1, [r2, r4]
10002822:	001f      	movs	r7, r3
10002824:	3401      	adds	r4, #1
10002826:	e7f4      	b.n	10002812 <_ftoa+0x242>
10002828:	002b      	movs	r3, r5
1000282a:	4655      	mov	r5, sl
1000282c:	001c      	movs	r4, r3
1000282e:	e7f0      	b.n	10002812 <_ftoa+0x242>
10002830:	2c1f      	cmp	r4, #31
10002832:	d803      	bhi.n	1000283c <_ftoa+0x26c>
10002834:	ab0c      	add	r3, sp, #48	; 0x30
10002836:	222e      	movs	r2, #46	; 0x2e
10002838:	551a      	strb	r2, [r3, r4]
1000283a:	3401      	adds	r4, #1
1000283c:	2c1f      	cmp	r4, #31
1000283e:	d810      	bhi.n	10002862 <_ftoa+0x292>
10002840:	210a      	movs	r1, #10
10002842:	0028      	movs	r0, r5
10002844:	f000 fbc4 	bl	10002fd0 <__wrap___aeabi_idiv>
10002848:	1c66      	adds	r6, r4, #1
1000284a:	3130      	adds	r1, #48	; 0x30
1000284c:	ab0c      	add	r3, sp, #48	; 0x30
1000284e:	5519      	strb	r1, [r3, r4]
10002850:	210a      	movs	r1, #10
10002852:	0028      	movs	r0, r5
10002854:	f000 fbbc 	bl	10002fd0 <__wrap___aeabi_idiv>
10002858:	1e05      	subs	r5, r0, #0
1000285a:	d001      	beq.n	10002860 <_ftoa+0x290>
1000285c:	0034      	movs	r4, r6
1000285e:	e7ed      	b.n	1000283c <_ftoa+0x26c>
10002860:	0034      	movs	r4, r6
10002862:	2303      	movs	r3, #3
10002864:	9a22      	ldr	r2, [sp, #136]	; 0x88
10002866:	4013      	ands	r3, r2
10002868:	2b01      	cmp	r3, #1
1000286a:	d01c      	beq.n	100028a6 <_ftoa+0x2d6>
1000286c:	2c1f      	cmp	r4, #31
1000286e:	d806      	bhi.n	1000287e <_ftoa+0x2ae>
10002870:	4643      	mov	r3, r8
10002872:	2b00      	cmp	r3, #0
10002874:	d032      	beq.n	100028dc <_ftoa+0x30c>
10002876:	ab0c      	add	r3, sp, #48	; 0x30
10002878:	222d      	movs	r2, #45	; 0x2d
1000287a:	551a      	strb	r2, [r3, r4]
1000287c:	3401      	adds	r4, #1
1000287e:	9b22      	ldr	r3, [sp, #136]	; 0x88
10002880:	9303      	str	r3, [sp, #12]
10002882:	9b21      	ldr	r3, [sp, #132]	; 0x84
10002884:	9302      	str	r3, [sp, #8]
10002886:	9401      	str	r4, [sp, #4]
10002888:	ab0c      	add	r3, sp, #48	; 0x30
1000288a:	9300      	str	r3, [sp, #0]
1000288c:	464b      	mov	r3, r9
1000288e:	465a      	mov	r2, fp
10002890:	9907      	ldr	r1, [sp, #28]
10002892:	9806      	ldr	r0, [sp, #24]
10002894:	f7ff fae2 	bl	10001e5c <_out_rev>
10002898:	b015      	add	sp, #84	; 0x54
1000289a:	bcf0      	pop	{r4, r5, r6, r7}
1000289c:	46bb      	mov	fp, r7
1000289e:	46b2      	mov	sl, r6
100028a0:	46a9      	mov	r9, r5
100028a2:	46a0      	mov	r8, r4
100028a4:	bdf0      	pop	{r4, r5, r6, r7, pc}
100028a6:	9b21      	ldr	r3, [sp, #132]	; 0x84
100028a8:	2b00      	cmp	r3, #0
100028aa:	d013      	beq.n	100028d4 <_ftoa+0x304>
100028ac:	4643      	mov	r3, r8
100028ae:	2b00      	cmp	r3, #0
100028b0:	d102      	bne.n	100028b8 <_ftoa+0x2e8>
100028b2:	330c      	adds	r3, #12
100028b4:	4213      	tst	r3, r2
100028b6:	d00f      	beq.n	100028d8 <_ftoa+0x308>
100028b8:	9b21      	ldr	r3, [sp, #132]	; 0x84
100028ba:	3b01      	subs	r3, #1
100028bc:	9321      	str	r3, [sp, #132]	; 0x84
100028be:	0019      	movs	r1, r3
100028c0:	e003      	b.n	100028ca <_ftoa+0x2fa>
