
/Users/nehan/pico/pico-apps/build/labs/lab06/lab06.elf:     file format elf32-littlearm

Sections:
Idx Name          Size      VMA       LMA       File off  Algn
  0 .boot2        00000100  10000000  10000000  00001000  2**0
                  CONTENTS, ALLOC, LOAD, READONLY, CODE
  1 .text         00004288  10000100  10000100  00001100  2**3
                  CONTENTS, ALLOC, LOAD, READONLY, CODE
  2 .rodata       00000fdc  10004388  10004388  00005388  2**3
                  CONTENTS, ALLOC, LOAD, READONLY, DATA
  3 .binary_info  00000028  10005364  10005364  00006364  2**2
                  CONTENTS, ALLOC, LOAD, DATA
  4 .ram_vector_table 000000c0  20000000  20000000  00007288  2**2
                  CONTENTS
  5 .data         000001c8  200000c0  1000538c  000070c0  2**4
                  CONTENTS, ALLOC, LOAD, READONLY, CODE
  6 .uninitialized_data 00000000  20000288  20000288  00007348  2**0
                  CONTENTS
  7 .scratch_x    00000000  20040000  20040000  00007348  2**0
                  CONTENTS
  8 .scratch_y    00000000  20041000  20041000  00007348  2**0
                  CONTENTS
  9 .bss          000003d0  20000288  20000288  00007288  2**3
                  ALLOC
 10 .heap         00000800  20000658  20000658  00007348  2**2
                  CONTENTS, READONLY
 11 .stack1_dummy 00000800  20040000  20040000  00007b48  2**2
                  CONTENTS
 12 .stack_dummy  00000800  20041000  20041000  00008360  2**5
                  CONTENTS, READONLY
 13 .ARM.attributes 00000028  00000000  00000000  00008b60  2**0
                  CONTENTS, READONLY
 14 .comment      00000049  00000000  00000000  00008b88  2**0
                  CONTENTS, READONLY
 15 .debug_info   00015c9d  00000000  00000000  00008bd1  2**0
                  CONTENTS, READONLY, DEBUGGING, OCTETS
 16 .debug_abbrev 00004590  00000000  00000000  0001e86e  2**0
                  CONTENTS, READONLY, DEBUGGING, OCTETS
 17 .debug_loc    0000e9dc  00000000  00000000  00022dfe  2**0
                  CONTENTS, READONLY, DEBUGGING, OCTETS
 18 .debug_aranges 00000e40  00000000  00000000  000317e0  2**3
                  CONTENTS, READONLY, DEBUGGING, OCTETS
 19 .debug_ranges 00003230  00000000  00000000  00032620  2**3
                  CONTENTS, READONLY, DEBUGGING, OCTETS
 20 .debug_line   0000eb90  00000000  00000000  00035850  2**0
                  CONTENTS, READONLY, DEBUGGING, OCTETS
 21 .debug_str    00003878  00000000  00000000  000443e0  2**0
                  CONTENTS, READONLY, DEBUGGING, OCTETS
 22 .debug_frame  000018a8  00000000  00000000  00047c58  2**2
                  CONTENTS, READONLY, DEBUGGING, OCTETS

/Users/nehan/pico/pico-apps/build/labs/lab06/lab06.elf:     file format elf32-littlearm


Disassembly of section .boot2:

10000000 <__boot2_start__>:
10000000:	4b32b500 	.word	0x4b32b500
10000004:	60582021 	.word	0x60582021
10000008:	21026898 	.word	0x21026898
1000000c:	60984388 	.word	0x60984388
10000010:	611860d8 	.word	0x611860d8
10000014:	4b2e6158 	.word	0x4b2e6158
10000018:	60992100 	.word	0x60992100
1000001c:	61592102 	.word	0x61592102
10000020:	22f02101 	.word	0x22f02101
10000024:	492b5099 	.word	0x492b5099
10000028:	21016019 	.word	0x21016019
1000002c:	20356099 	.word	0x20356099
10000030:	f844f000 	.word	0xf844f000
10000034:	42902202 	.word	0x42902202
10000038:	2106d014 	.word	0x2106d014
1000003c:	f0006619 	.word	0xf0006619
10000040:	6e19f834 	.word	0x6e19f834
10000044:	66192101 	.word	0x66192101
10000048:	66182000 	.word	0x66182000
1000004c:	f000661a 	.word	0xf000661a
10000050:	6e19f82c 	.word	0x6e19f82c
10000054:	6e196e19 	.word	0x6e196e19
10000058:	f0002005 	.word	0xf0002005
1000005c:	2101f82f 	.word	0x2101f82f
10000060:	d1f94208 	.word	0xd1f94208
10000064:	60992100 	.word	0x60992100
10000068:	6019491b 	.word	0x6019491b
1000006c:	60592100 	.word	0x60592100
10000070:	481b491a 	.word	0x481b491a
10000074:	21016001 	.word	0x21016001
10000078:	21eb6099 	.word	0x21eb6099
1000007c:	21a06619 	.word	0x21a06619
10000080:	f0006619 	.word	0xf0006619
10000084:	2100f812 	.word	0x2100f812
10000088:	49166099 	.word	0x49166099
1000008c:	60014814 	.word	0x60014814
10000090:	60992101 	.word	0x60992101
10000094:	2800bc01 	.word	0x2800bc01
10000098:	4700d000 	.word	0x4700d000
1000009c:	49134812 	.word	0x49134812
100000a0:	c8036008 	.word	0xc8036008
100000a4:	8808f380 	.word	0x8808f380
100000a8:	b5034708 	.word	0xb5034708
100000ac:	20046a99 	.word	0x20046a99
100000b0:	d0fb4201 	.word	0xd0fb4201
100000b4:	42012001 	.word	0x42012001
100000b8:	bd03d1f8 	.word	0xbd03d1f8
100000bc:	6618b502 	.word	0x6618b502
100000c0:	f7ff6618 	.word	0xf7ff6618
100000c4:	6e18fff2 	.word	0x6e18fff2
100000c8:	bd026e18 	.word	0xbd026e18
100000cc:	40020000 	.word	0x40020000
100000d0:	18000000 	.word	0x18000000
100000d4:	00070000 	.word	0x00070000
100000d8:	005f0300 	.word	0x005f0300
100000dc:	00002221 	.word	0x00002221
100000e0:	180000f4 	.word	0x180000f4
100000e4:	a0002022 	.word	0xa0002022
100000e8:	10000100 	.word	0x10000100
100000ec:	e000ed08 	.word	0xe000ed08
	...
100000fc:	7a4eb274 	.word	0x7a4eb274

Disassembly of section .text:

10000100 <__VECTOR_TABLE>:
10000100:	20042000 	.word	0x20042000
10000104:	100001f7 	.word	0x100001f7
10000108:	100001c3 	.word	0x100001c3
1000010c:	100001c5 	.word	0x100001c5
10000110:	100001c1 	.word	0x100001c1
10000114:	100001c1 	.word	0x100001c1
10000118:	100001c1 	.word	0x100001c1
1000011c:	100001c1 	.word	0x100001c1
10000120:	100001c1 	.word	0x100001c1
10000124:	100001c1 	.word	0x100001c1
10000128:	100001c1 	.word	0x100001c1
1000012c:	100001c7 	.word	0x100001c7
10000130:	100001c1 	.word	0x100001c1
10000134:	100001c1 	.word	0x100001c1
10000138:	100001c9 	.word	0x100001c9
1000013c:	100001cb 	.word	0x100001cb
10000140:	100001cd 	.word	0x100001cd
10000144:	100001cd 	.word	0x100001cd
10000148:	100001cd 	.word	0x100001cd
1000014c:	100001cd 	.word	0x100001cd
10000150:	100001cd 	.word	0x100001cd
10000154:	100001cd 	.word	0x100001cd
10000158:	100001cd 	.word	0x100001cd
1000015c:	100001cd 	.word	0x100001cd
10000160:	100001cd 	.word	0x100001cd
10000164:	100001cd 	.word	0x100001cd
10000168:	100001cd 	.word	0x100001cd
1000016c:	100001cd 	.word	0x100001cd
10000170:	100001cd 	.word	0x100001cd
10000174:	100001cd 	.word	0x100001cd
10000178:	100001cd 	.word	0x100001cd
1000017c:	100001cd 	.word	0x100001cd
10000180:	100001cd 	.word	0x100001cd
10000184:	100001cd 	.word	0x100001cd
10000188:	100001cd 	.word	0x100001cd
1000018c:	100001cd 	.word	0x100001cd
10000190:	100001cd 	.word	0x100001cd
10000194:	100001cd 	.word	0x100001cd
10000198:	100001cd 	.word	0x100001cd
1000019c:	100001cd 	.word	0x100001cd
100001a0:	100001cd 	.word	0x100001cd
100001a4:	100001cd 	.word	0x100001cd
100001a8:	100001cd 	.word	0x100001cd
100001ac:	100001cd 	.word	0x100001cd
100001b0:	100001cd 	.word	0x100001cd
100001b4:	100001cd 	.word	0x100001cd
100001b8:	100001cd 	.word	0x100001cd
100001bc:	100001cd 	.word	0x100001cd

100001c0 <isr_invalid>:
100001c0:	be00      	bkpt	0x0000

100001c2 <isr_nmi>:
100001c2:	be00      	bkpt	0x0000

100001c4 <isr_hardfault>:
100001c4:	be00      	bkpt	0x0000

100001c6 <isr_svcall>:
100001c6:	be00      	bkpt	0x0000

100001c8 <isr_pendsv>:
100001c8:	be00      	bkpt	0x0000

100001ca <isr_systick>:
100001ca:	be00      	bkpt	0x0000

100001cc <__unhandled_user_irq>:
100001cc:	f000 f84b 	bl	10000266 <__get_current_exception>
100001d0:	3810      	subs	r0, #16

100001d2 <unhandled_user_irq_num_in_r0>:
100001d2:	be00      	bkpt	0x0000

100001d4 <binary_info_header>:
100001d4:	7188ebf2 	.word	0x7188ebf2
100001d8:	10005364 	.word	0x10005364
100001dc:	1000538c 	.word	0x1000538c
100001e0:	10000234 	.word	0x10000234
100001e4:	e71aa390 	.word	0xe71aa390

100001e8 <_entry_point>:
100001e8:	2000      	movs	r0, #0
100001ea:	4921      	ldr	r1, [pc, #132]	; (10000270 <__get_current_exception+0xa>)
100001ec:	6008      	str	r0, [r1, #0]
100001ee:	c806      	ldmia	r0!, {r1, r2}
100001f0:	f381 8808 	msr	MSP, r1
100001f4:	4710      	bx	r2

100001f6 <_reset_handler>:
100001f6:	481f      	ldr	r0, [pc, #124]	; (10000274 <__get_current_exception+0xe>)
100001f8:	6800      	ldr	r0, [r0, #0]
100001fa:	2800      	cmp	r0, #0
100001fc:	d12f      	bne.n	1000025e <hold_non_core0_in_bootrom>
100001fe:	a40d      	add	r4, pc, #52	; (adr r4, 10000234 <data_cpy_table>)
10000200:	cc0e      	ldmia	r4!, {r1, r2, r3}
10000202:	2900      	cmp	r1, #0
10000204:	d002      	beq.n	1000020c <_reset_handler+0x16>
10000206:	f000 f812 	bl	1000022e <data_cpy>
1000020a:	e7f9      	b.n	10000200 <_reset_handler+0xa>
1000020c:	491a      	ldr	r1, [pc, #104]	; (10000278 <__get_current_exception+0x12>)
1000020e:	4a1b      	ldr	r2, [pc, #108]	; (1000027c <__get_current_exception+0x16>)
10000210:	2000      	movs	r0, #0
10000212:	e000      	b.n	10000216 <bss_fill_test>

10000214 <bss_fill_loop>:
10000214:	c101      	stmia	r1!, {r0}

10000216 <bss_fill_test>:
10000216:	4291      	cmp	r1, r2
10000218:	d1fc      	bne.n	10000214 <bss_fill_loop>

1000021a <platform_entry>:
1000021a:	4919      	ldr	r1, [pc, #100]	; (10000280 <__get_current_exception+0x1a>)
1000021c:	4788      	blx	r1
1000021e:	4919      	ldr	r1, [pc, #100]	; (10000284 <__get_current_exception+0x1e>)
10000220:	4788      	blx	r1
10000222:	4919      	ldr	r1, [pc, #100]	; (10000288 <__get_current_exception+0x22>)
10000224:	4788      	blx	r1
10000226:	be00      	bkpt	0x0000
10000228:	e7fd      	b.n	10000226 <platform_entry+0xc>

1000022a <data_cpy_loop>:
1000022a:	c901      	ldmia	r1!, {r0}
1000022c:	c201      	stmia	r2!, {r0}

1000022e <data_cpy>:
1000022e:	429a      	cmp	r2, r3
10000230:	d3fb      	bcc.n	1000022a <data_cpy_loop>
10000232:	4770      	bx	lr

10000234 <data_cpy_table>:
10000234:	1000538c 	.word	0x1000538c
10000238:	200000c0 	.word	0x200000c0
1000023c:	20000288 	.word	0x20000288
10000240:	10005554 	.word	0x10005554
10000244:	20040000 	.word	0x20040000
10000248:	20040000 	.word	0x20040000
1000024c:	10005554 	.word	0x10005554
10000250:	20041000 	.word	0x20041000
10000254:	20041000 	.word	0x20041000
10000258:	00000000 	.word	0x00000000
1000025c:	4770      	bx	lr

1000025e <hold_non_core0_in_bootrom>:
1000025e:	480b      	ldr	r0, [pc, #44]	; (1000028c <__get_current_exception+0x26>)
10000260:	f002 fdfc 	bl	10002e5c <rom_func_lookup>
10000264:	4700      	bx	r0

10000266 <__get_current_exception>:
10000266:	f3ef 8005 	mrs	r0, IPSR
1000026a:	b2c0      	uxtb	r0, r0
1000026c:	4770      	bx	lr
1000026e:	0000      	.short	0x0000
10000270:	e000ed08 	.word	0xe000ed08
10000274:	d0000000 	.word	0xd0000000
10000278:	20000288 	.word	0x20000288
1000027c:	20000658 	.word	0x20000658
10000280:	10001485 	.word	0x10001485
10000284:	10000431 	.word	0x10000431
10000288:	10001441 	.word	0x10001441
1000028c:	00005657 	.word	0x00005657

10000290 <__bi_50>:
10000290:	50520006 5360b3ab 10005234              ..RP..`S4R..

1000029c <__bi_38>:
1000029c:	50520006 02031c86 1000522c              ..RP....,R..

100002a8 <__bi_30>:
100002a8:	50520006 9da22254 10005244              ..RPT"..DR..

100002b4 <__bi_22>:
100002b4:	50520005 68f465de 10005554              ..RP.e.hTU..

100002c0 <_init>:
100002c0:	b5f8      	push	{r3, r4, r5, r6, r7, lr}
100002c2:	46c0      	nop			; (mov r8, r8)

100002c4 <__do_global_dtors_aux>:
100002c4:	b510      	push	{r4, lr}
100002c6:	4c06      	ldr	r4, [pc, #24]	; (100002e0 <__do_global_dtors_aux+0x1c>)
100002c8:	7823      	ldrb	r3, [r4, #0]
100002ca:	2b00      	cmp	r3, #0
100002cc:	d107      	bne.n	100002de <__do_global_dtors_aux+0x1a>
100002ce:	4b05      	ldr	r3, [pc, #20]	; (100002e4 <__do_global_dtors_aux+0x20>)
100002d0:	2b00      	cmp	r3, #0
100002d2:	d002      	beq.n	100002da <__do_global_dtors_aux+0x16>
100002d4:	4804      	ldr	r0, [pc, #16]	; (100002e8 <__do_global_dtors_aux+0x24>)
100002d6:	e000      	b.n	100002da <__do_global_dtors_aux+0x16>
100002d8:	bf00      	nop
100002da:	2301      	movs	r3, #1
100002dc:	7023      	strb	r3, [r4, #0]
100002de:	bd10      	pop	{r4, pc}
100002e0:	20000388 	.word	0x20000388
100002e4:	00000000 	.word	0x00000000
100002e8:	10004388 	.word	0x10004388

100002ec <frame_dummy>:
100002ec:	4b04      	ldr	r3, [pc, #16]	; (10000300 <frame_dummy+0x14>)
100002ee:	b510      	push	{r4, lr}
100002f0:	2b00      	cmp	r3, #0
100002f2:	d003      	beq.n	100002fc <frame_dummy+0x10>
100002f4:	4903      	ldr	r1, [pc, #12]	; (10000304 <frame_dummy+0x18>)
100002f6:	4804      	ldr	r0, [pc, #16]	; (10000308 <frame_dummy+0x1c>)
100002f8:	e000      	b.n	100002fc <frame_dummy+0x10>
100002fa:	bf00      	nop
100002fc:	bd10      	pop	{r4, pc}
100002fe:	46c0      	nop			; (mov r8, r8)
10000300:	00000000 	.word	0x00000000
10000304:	2000038c 	.word	0x2000038c
10000308:	10004388 	.word	0x10004388

1000030c <single_precision>:
1000030c:	b5f8      	push	{r3, r4, r5, r6, r7, lr}
1000030e:	46ce      	mov	lr, r9
10000310:	4647      	mov	r7, r8
10000312:	b580      	push	{r7, lr}
10000314:	4681      	mov	r9, r0
10000316:	27fe      	movs	r7, #254	; 0xfe
10000318:	05bf      	lsls	r7, r7, #22
1000031a:	2480      	movs	r4, #128	; 0x80
1000031c:	05e4      	lsls	r4, r4, #23
1000031e:	1c3e      	adds	r6, r7, #0
10000320:	e01d      	b.n	1000035e <single_precision+0x52>
10000322:	1c21      	adds	r1, r4, #0
10000324:	1c20      	adds	r0, r4, #0
10000326:	f003 fc54 	bl	10003bd2 <__wrap___aeabi_fmul>
1000032a:	4680      	mov	r8, r0
1000032c:	2180      	movs	r1, #128	; 0x80
1000032e:	05c9      	lsls	r1, r1, #23
10000330:	1c38      	adds	r0, r7, #0
10000332:	f003 fc33 	bl	10003b9c <__wrap___aeabi_fadd>
10000336:	1c05      	adds	r5, r0, #0
10000338:	1c39      	adds	r1, r7, #0
1000033a:	f003 fc4a 	bl	10003bd2 <__wrap___aeabi_fmul>
1000033e:	1c01      	adds	r1, r0, #0
10000340:	4640      	mov	r0, r8
10000342:	f003 fc30 	bl	10003ba6 <__wrap___aeabi_fdiv>
10000346:	1c01      	adds	r1, r0, #0
10000348:	1c30      	adds	r0, r6, #0
1000034a:	f003 fc42 	bl	10003bd2 <__wrap___aeabi_fmul>
1000034e:	1c06      	adds	r6, r0, #0
10000350:	2180      	movs	r1, #128	; 0x80
10000352:	05c9      	lsls	r1, r1, #23
10000354:	1c20      	adds	r0, r4, #0
10000356:	f003 fc21 	bl	10003b9c <__wrap___aeabi_fadd>
1000035a:	1c04      	adds	r4, r0, #0
1000035c:	1c2f      	adds	r7, r5, #0
1000035e:	4648      	mov	r0, r9
10000360:	f003 fc70 	bl	10003c44 <__wrap___aeabi_i2f>
10000364:	1c21      	adds	r1, r4, #0
10000366:	f003 fc65 	bl	10003c34 <__wrap___aeabi_fcmpge>
1000036a:	2800      	cmp	r0, #0
1000036c:	d1d9      	bne.n	10000322 <single_precision+0x16>
1000036e:	1c31      	adds	r1, r6, #0
10000370:	1c30      	adds	r0, r6, #0
10000372:	f003 fc13 	bl	10003b9c <__wrap___aeabi_fadd>
10000376:	bcc0      	pop	{r6, r7}
10000378:	46b9      	mov	r9, r7
1000037a:	46b0      	mov	r8, r6
1000037c:	bdf8      	pop	{r3, r4, r5, r6, r7, pc}

1000037e <core1_entry>:
1000037e:	b510      	push	{r4, lr}
10000380:	f003 ff2b 	bl	100041da <multicore_fifo_pop_blocking>
10000384:	0004      	movs	r4, r0
10000386:	f003 ff28 	bl	100041da <multicore_fifo_pop_blocking>
1000038a:	47a0      	blx	r4
1000038c:	f003 ff1b 	bl	100041c6 <multicore_fifo_push_blocking>
10000390:	e7f6      	b.n	10000380 <core1_entry+0x2>
	...

10000394 <double_precision>:
10000394:	b5f0      	push	{r4, r5, r6, r7, lr}
10000396:	46c6      	mov	lr, r8
10000398:	b500      	push	{lr}
1000039a:	b084      	sub	sp, #16
1000039c:	4680      	mov	r8, r0
1000039e:	2600      	movs	r6, #0
100003a0:	4f22      	ldr	r7, [pc, #136]	; (1000042c <double_precision+0x98>)
100003a2:	2400      	movs	r4, #0
100003a4:	2580      	movs	r5, #128	; 0x80
100003a6:	05ed      	lsls	r5, r5, #23
100003a8:	9600      	str	r6, [sp, #0]
100003aa:	9701      	str	r7, [sp, #4]
100003ac:	e02b      	b.n	10000406 <double_precision+0x72>
100003ae:	0022      	movs	r2, r4
100003b0:	002b      	movs	r3, r5
100003b2:	0020      	movs	r0, r4
100003b4:	0029      	movs	r1, r5
100003b6:	f003 f818 	bl	100033ea <__wrap___aeabi_dmul>
100003ba:	9002      	str	r0, [sp, #8]
100003bc:	9103      	str	r1, [sp, #12]
100003be:	2200      	movs	r2, #0
100003c0:	2380      	movs	r3, #128	; 0x80
100003c2:	05db      	lsls	r3, r3, #23
100003c4:	0030      	movs	r0, r6
100003c6:	0039      	movs	r1, r7
100003c8:	f002 ffe8 	bl	1000339c <__wrap___aeabi_dadd>
100003cc:	0032      	movs	r2, r6
100003ce:	003b      	movs	r3, r7
100003d0:	0006      	movs	r6, r0
100003d2:	000f      	movs	r7, r1
100003d4:	f003 f809 	bl	100033ea <__wrap___aeabi_dmul>
100003d8:	0002      	movs	r2, r0
100003da:	000b      	movs	r3, r1
100003dc:	9802      	ldr	r0, [sp, #8]
100003de:	9903      	ldr	r1, [sp, #12]
100003e0:	f002 ffe5 	bl	100033ae <__wrap___aeabi_ddiv>
100003e4:	0002      	movs	r2, r0
100003e6:	000b      	movs	r3, r1
100003e8:	9800      	ldr	r0, [sp, #0]
100003ea:	9901      	ldr	r1, [sp, #4]
100003ec:	f002 fffd 	bl	100033ea <__wrap___aeabi_dmul>
100003f0:	9000      	str	r0, [sp, #0]
100003f2:	9101      	str	r1, [sp, #4]
100003f4:	2200      	movs	r2, #0
100003f6:	2380      	movs	r3, #128	; 0x80
100003f8:	05db      	lsls	r3, r3, #23
100003fa:	0020      	movs	r0, r4
100003fc:	0029      	movs	r1, r5
100003fe:	f002 ffcd 	bl	1000339c <__wrap___aeabi_dadd>
10000402:	0004      	movs	r4, r0
10000404:	000d      	movs	r5, r1
10000406:	4640      	mov	r0, r8
10000408:	f003 f860 	bl	100034cc <__wrap___aeabi_i2d>
1000040c:	0022      	movs	r2, r4
1000040e:	002b      	movs	r3, r5
10000410:	f003 f83c 	bl	1000348c <__wrap___aeabi_dcmpge>
10000414:	2800      	cmp	r0, #0
10000416:	d1ca      	bne.n	100003ae <double_precision+0x1a>
10000418:	9800      	ldr	r0, [sp, #0]
1000041a:	9901      	ldr	r1, [sp, #4]
1000041c:	0002      	movs	r2, r0
1000041e:	000b      	movs	r3, r1
10000420:	f002 ffbc 	bl	1000339c <__wrap___aeabi_dadd>
10000424:	b004      	add	sp, #16
10000426:	bc80      	pop	{r7}
10000428:	46b8      	mov	r8, r7
1000042a:	bdf0      	pop	{r4, r5, r6, r7, pc}
1000042c:	3ff00000 	.word	0x3ff00000

10000430 <main>:
10000430:	b5f0      	push	{r4, r5, r6, r7, lr}
10000432:	46d6      	mov	lr, sl
10000434:	464f      	mov	r7, r9
10000436:	4646      	mov	r6, r8
10000438:	b5c0      	push	{r6, r7, lr}
1000043a:	f003 fe21 	bl	10004080 <stdio_init_all>
1000043e:	4827      	ldr	r0, [pc, #156]	; (100004dc <main+0xac>)
10000440:	f003 fde0 	bl	10004004 <__wrap_puts>
10000444:	4c26      	ldr	r4, [pc, #152]	; (100004e0 <main+0xb0>)
10000446:	6aa6      	ldr	r6, [r4, #40]	; 0x28
10000448:	6aa3      	ldr	r3, [r4, #40]	; 0x28
1000044a:	469a      	mov	sl, r3
1000044c:	4d25      	ldr	r5, [pc, #148]	; (100004e4 <main+0xb4>)
1000044e:	0028      	movs	r0, r5
10000450:	f7ff ff5c 	bl	1000030c <single_precision>
10000454:	6aa3      	ldr	r3, [r4, #40]	; 0x28
10000456:	4698      	mov	r8, r3
10000458:	6aa3      	ldr	r3, [r4, #40]	; 0x28
1000045a:	4699      	mov	r9, r3
1000045c:	0028      	movs	r0, r5
1000045e:	f7ff ff99 	bl	10000394 <double_precision>
10000462:	6aa7      	ldr	r7, [r4, #40]	; 0x28
10000464:	6aa3      	ldr	r3, [r4, #40]	; 0x28
10000466:	1b9e      	subs	r6, r3, r6
10000468:	4643      	mov	r3, r8
1000046a:	4652      	mov	r2, sl
1000046c:	1a99      	subs	r1, r3, r2
1000046e:	464b      	mov	r3, r9
10000470:	1aff      	subs	r7, r7, r3
10000472:	481d      	ldr	r0, [pc, #116]	; (100004e8 <main+0xb8>)
10000474:	f003 fdf8 	bl	10004068 <__wrap_printf>
10000478:	0039      	movs	r1, r7
1000047a:	481c      	ldr	r0, [pc, #112]	; (100004ec <main+0xbc>)
1000047c:	f003 fdf4 	bl	10004068 <__wrap_printf>
10000480:	0031      	movs	r1, r6
10000482:	481b      	ldr	r0, [pc, #108]	; (100004f0 <main+0xc0>)
10000484:	f003 fdf0 	bl	10004068 <__wrap_printf>
10000488:	481a      	ldr	r0, [pc, #104]	; (100004f4 <main+0xc4>)
1000048a:	f003 ff11 	bl	100042b0 <multicore_launch_core1>
1000048e:	6aa6      	ldr	r6, [r4, #40]	; 0x28
10000490:	6aa3      	ldr	r3, [r4, #40]	; 0x28
10000492:	4698      	mov	r8, r3
10000494:	4818      	ldr	r0, [pc, #96]	; (100004f8 <main+0xc8>)
10000496:	f003 fe96 	bl	100041c6 <multicore_fifo_push_blocking>
1000049a:	0028      	movs	r0, r5
1000049c:	f003 fe93 	bl	100041c6 <multicore_fifo_push_blocking>
100004a0:	6aa7      	ldr	r7, [r4, #40]	; 0x28
100004a2:	0028      	movs	r0, r5
100004a4:	f7ff ff76 	bl	10000394 <double_precision>
100004a8:	6aa5      	ldr	r5, [r4, #40]	; 0x28
100004aa:	f003 fe96 	bl	100041da <multicore_fifo_pop_blocking>
100004ae:	6aa1      	ldr	r1, [r4, #40]	; 0x28
100004b0:	6aa4      	ldr	r4, [r4, #40]	; 0x28
100004b2:	4643      	mov	r3, r8
100004b4:	1ac9      	subs	r1, r1, r3
100004b6:	1bed      	subs	r5, r5, r7
100004b8:	1ba4      	subs	r4, r4, r6
100004ba:	4810      	ldr	r0, [pc, #64]	; (100004fc <main+0xcc>)
100004bc:	f003 fdd4 	bl	10004068 <__wrap_printf>
100004c0:	0029      	movs	r1, r5
100004c2:	480f      	ldr	r0, [pc, #60]	; (10000500 <main+0xd0>)
100004c4:	f003 fdd0 	bl	10004068 <__wrap_printf>
100004c8:	0021      	movs	r1, r4
100004ca:	480e      	ldr	r0, [pc, #56]	; (10000504 <main+0xd4>)
100004cc:	f003 fdcc 	bl	10004068 <__wrap_printf>
100004d0:	2000      	movs	r0, #0
100004d2:	bce0      	pop	{r5, r6, r7}
100004d4:	46ba      	mov	sl, r7
100004d6:	46b1      	mov	r9, r6
100004d8:	46a8      	mov	r8, r5
100004da:	bdf0      	pop	{r4, r5, r6, r7, pc}
100004dc:	10004388 	.word	0x10004388
100004e0:	40054000 	.word	0x40054000
100004e4:	000186a0 	.word	0x000186a0
100004e8:	100043ac 	.word	0x100043ac
100004ec:	100043e4 	.word	0x100043e4
100004f0:	1000441c 	.word	0x1000441c
100004f4:	1000037f 	.word	0x1000037f
100004f8:	1000030d 	.word	0x1000030d
100004fc:	1000444c 	.word	0x1000444c
10000500:	10004484 	.word	0x10004484
10000504:	100044bc 	.word	0x100044bc

10000508 <gpio_set_function>:
10000508:	b510      	push	{r4, lr}
1000050a:	0083      	lsls	r3, r0, #2
1000050c:	4a08      	ldr	r2, [pc, #32]	; (10000530 <gpio_set_function+0x28>)
1000050e:	4694      	mov	ip, r2
10000510:	4463      	add	r3, ip
10000512:	681c      	ldr	r4, [r3, #0]
10000514:	2240      	movs	r2, #64	; 0x40
10000516:	4062      	eors	r2, r4
10000518:	24c0      	movs	r4, #192	; 0xc0
1000051a:	4014      	ands	r4, r2
1000051c:	2280      	movs	r2, #128	; 0x80
1000051e:	0152      	lsls	r2, r2, #5
10000520:	4313      	orrs	r3, r2
10000522:	601c      	str	r4, [r3, #0]
10000524:	00c0      	lsls	r0, r0, #3
10000526:	4b03      	ldr	r3, [pc, #12]	; (10000534 <gpio_set_function+0x2c>)
10000528:	469c      	mov	ip, r3
1000052a:	4460      	add	r0, ip
1000052c:	6041      	str	r1, [r0, #4]
1000052e:	bd10      	pop	{r4, pc}
10000530:	4001c004 	.word	0x4001c004
10000534:	40014000 	.word	0x40014000

10000538 <hw_claim_lock>:
10000538:	f3ef 8010 	mrs	r0, PRIMASK
1000053c:	b672      	cpsid	i
1000053e:	4b03      	ldr	r3, [pc, #12]	; (1000054c <hw_claim_lock+0x14>)
10000540:	681b      	ldr	r3, [r3, #0]
10000542:	2b00      	cmp	r3, #0
10000544:	d0fb      	beq.n	1000053e <hw_claim_lock+0x6>
10000546:	f3bf 8f5f 	dmb	sy
1000054a:	4770      	bx	lr
1000054c:	d000012c 	.word	0xd000012c

10000550 <hw_claim_unlock>:
10000550:	f3bf 8f5f 	dmb	sy
10000554:	4b02      	ldr	r3, [pc, #8]	; (10000560 <hw_claim_unlock+0x10>)
10000556:	2200      	movs	r2, #0
10000558:	601a      	str	r2, [r3, #0]
1000055a:	f380 8810 	msr	PRIMASK, r0
1000055e:	4770      	bx	lr
10000560:	d000012c 	.word	0xd000012c

10000564 <hw_claim_or_assert>:
10000564:	b5f8      	push	{r3, r4, r5, r6, r7, lr}
10000566:	0006      	movs	r6, r0
10000568:	000c      	movs	r4, r1
1000056a:	0015      	movs	r5, r2
1000056c:	f7ff ffe4 	bl	10000538 <hw_claim_lock>
10000570:	08e3      	lsrs	r3, r4, #3
10000572:	18f7      	adds	r7, r6, r3
10000574:	5cf1      	ldrb	r1, [r6, r3]
10000576:	2207      	movs	r2, #7
10000578:	4022      	ands	r2, r4
1000057a:	2301      	movs	r3, #1
1000057c:	4093      	lsls	r3, r2
1000057e:	420b      	tst	r3, r1
10000580:	d105      	bne.n	1000058e <hw_claim_or_assert+0x2a>
10000582:	b2db      	uxtb	r3, r3
10000584:	430b      	orrs	r3, r1
10000586:	703b      	strb	r3, [r7, #0]
10000588:	f7ff ffe2 	bl	10000550 <hw_claim_unlock>
1000058c:	bdf8      	pop	{r3, r4, r5, r6, r7, pc}
1000058e:	0021      	movs	r1, r4
10000590:	0028      	movs	r0, r5
10000592:	f000 fff3 	bl	1000157c <panic>
	...

10000598 <running_on_fpga>:
10000598:	4b03      	ldr	r3, [pc, #12]	; (100005a8 <running_on_fpga+0x10>)
1000059a:	681b      	ldr	r3, [r3, #0]
1000059c:	2002      	movs	r0, #2
1000059e:	4018      	ands	r0, r3
100005a0:	1e43      	subs	r3, r0, #1
100005a2:	4198      	sbcs	r0, r3
100005a4:	b2c0      	uxtb	r0, r0
100005a6:	4770      	bx	lr
100005a8:	4006c000 	.word	0x4006c000

100005ac <spin_locks_reset>:
100005ac:	2300      	movs	r3, #0
100005ae:	e007      	b.n	100005c0 <spin_locks_reset+0x14>
100005b0:	4a05      	ldr	r2, [pc, #20]	; (100005c8 <spin_locks_reset+0x1c>)
100005b2:	189a      	adds	r2, r3, r2
100005b4:	0092      	lsls	r2, r2, #2
100005b6:	f3bf 8f5f 	dmb	sy
100005ba:	2100      	movs	r1, #0
100005bc:	6011      	str	r1, [r2, #0]
100005be:	3301      	adds	r3, #1
100005c0:	2b1f      	cmp	r3, #31
100005c2:	d9f5      	bls.n	100005b0 <spin_locks_reset+0x4>
100005c4:	4770      	bx	lr
100005c6:	46c0      	nop			; (mov r8, r8)
100005c8:	34000040 	.word	0x34000040

100005cc <next_striped_spin_lock_num>:
100005cc:	4a05      	ldr	r2, [pc, #20]	; (100005e4 <next_striped_spin_lock_num+0x18>)
100005ce:	7810      	ldrb	r0, [r2, #0]
100005d0:	1c43      	adds	r3, r0, #1
100005d2:	b2db      	uxtb	r3, r3
100005d4:	7013      	strb	r3, [r2, #0]
100005d6:	2b17      	cmp	r3, #23
100005d8:	d902      	bls.n	100005e0 <next_striped_spin_lock_num+0x14>
100005da:	0013      	movs	r3, r2
100005dc:	2210      	movs	r2, #16
100005de:	701a      	strb	r2, [r3, #0]
100005e0:	4770      	bx	lr
100005e2:	46c0      	nop			; (mov r8, r8)
100005e4:	200001b0 	.word	0x200001b0

100005e8 <uart_set_baudrate>:
100005e8:	b570      	push	{r4, r5, r6, lr}
100005ea:	0004      	movs	r4, r0
100005ec:	000d      	movs	r5, r1
100005ee:	2006      	movs	r0, #6
100005f0:	f001 f8de 	bl	100017b0 <clock_get_hz>
100005f4:	00c0      	lsls	r0, r0, #3
100005f6:	0029      	movs	r1, r5
100005f8:	f002 fc84 	bl	10002f04 <__wrap___aeabi_uidiv>
100005fc:	09c6      	lsrs	r6, r0, #7
100005fe:	d008      	beq.n	10000612 <uart_set_baudrate+0x2a>
10000600:	4b0e      	ldr	r3, [pc, #56]	; (1000063c <uart_set_baudrate+0x54>)
10000602:	429e      	cmp	r6, r3
10000604:	d817      	bhi.n	10000636 <uart_set_baudrate+0x4e>
10000606:	237f      	movs	r3, #127	; 0x7f
10000608:	4018      	ands	r0, r3
1000060a:	3001      	adds	r0, #1
1000060c:	0035      	movs	r5, r6
1000060e:	0846      	lsrs	r6, r0, #1
10000610:	e000      	b.n	10000614 <uart_set_baudrate+0x2c>
10000612:	2501      	movs	r5, #1
10000614:	6265      	str	r5, [r4, #36]	; 0x24
10000616:	62a6      	str	r6, [r4, #40]	; 0x28
10000618:	342c      	adds	r4, #44	; 0x2c
1000061a:	2080      	movs	r0, #128	; 0x80
1000061c:	0180      	lsls	r0, r0, #6
1000061e:	4304      	orrs	r4, r0
10000620:	2300      	movs	r3, #0
10000622:	6023      	str	r3, [r4, #0]
10000624:	2006      	movs	r0, #6
10000626:	f001 f8c3 	bl	100017b0 <clock_get_hz>
1000062a:	0080      	lsls	r0, r0, #2
1000062c:	01a9      	lsls	r1, r5, #6
1000062e:	1989      	adds	r1, r1, r6
10000630:	f002 fc68 	bl	10002f04 <__wrap___aeabi_uidiv>
10000634:	bd70      	pop	{r4, r5, r6, pc}
10000636:	2600      	movs	r6, #0
10000638:	4d01      	ldr	r5, [pc, #4]	; (10000640 <uart_set_baudrate+0x58>)
1000063a:	e7eb      	b.n	10000614 <uart_set_baudrate+0x2c>
1000063c:	0000fffe 	.word	0x0000fffe
10000640:	0000ffff 	.word	0x0000ffff

10000644 <uart_set_translate_crlf>:
10000644:	2900      	cmp	r1, #0
10000646:	d009      	beq.n	1000065c <uart_set_translate_crlf+0x18>
10000648:	220a      	movs	r2, #10
1000064a:	4b06      	ldr	r3, [pc, #24]	; (10000664 <uart_set_translate_crlf+0x20>)
1000064c:	469c      	mov	ip, r3
1000064e:	4460      	add	r0, ip
10000650:	4243      	negs	r3, r0
10000652:	4158      	adcs	r0, r3
10000654:	0040      	lsls	r0, r0, #1
10000656:	4b04      	ldr	r3, [pc, #16]	; (10000668 <uart_set_translate_crlf+0x24>)
10000658:	52c2      	strh	r2, [r0, r3]
1000065a:	4770      	bx	lr
1000065c:	2280      	movs	r2, #128	; 0x80
1000065e:	0052      	lsls	r2, r2, #1
10000660:	e7f3      	b.n	1000064a <uart_set_translate_crlf+0x6>
10000662:	46c0      	nop			; (mov r8, r8)
10000664:	bffc8000 	.word	0xbffc8000
10000668:	2000064c 	.word	0x2000064c

1000066c <uart_init>:
1000066c:	b570      	push	{r4, r5, r6, lr}
1000066e:	0005      	movs	r5, r0
10000670:	000c      	movs	r4, r1
10000672:	2006      	movs	r0, #6
10000674:	f001 f89c 	bl	100017b0 <clock_get_hz>
10000678:	2800      	cmp	r0, #0
1000067a:	d029      	beq.n	100006d0 <uart_init+0x64>
1000067c:	4b16      	ldr	r3, [pc, #88]	; (100006d8 <uart_init+0x6c>)
1000067e:	429d      	cmp	r5, r3
10000680:	d027      	beq.n	100006d2 <uart_init+0x66>
10000682:	2280      	movs	r2, #128	; 0x80
10000684:	03d2      	lsls	r2, r2, #15
10000686:	4b15      	ldr	r3, [pc, #84]	; (100006dc <uart_init+0x70>)
10000688:	601a      	str	r2, [r3, #0]
1000068a:	4b15      	ldr	r3, [pc, #84]	; (100006e0 <uart_init+0x74>)
1000068c:	601a      	str	r2, [r3, #0]
1000068e:	4b15      	ldr	r3, [pc, #84]	; (100006e4 <uart_init+0x78>)
10000690:	689b      	ldr	r3, [r3, #8]
10000692:	0011      	movs	r1, r2
10000694:	4399      	bics	r1, r3
10000696:	d1fa      	bne.n	1000068e <uart_init+0x22>
10000698:	2100      	movs	r1, #0
1000069a:	0028      	movs	r0, r5
1000069c:	f7ff ffd2 	bl	10000644 <uart_set_translate_crlf>
100006a0:	0021      	movs	r1, r4
100006a2:	0028      	movs	r0, r5
100006a4:	f7ff ffa0 	bl	100005e8 <uart_set_baudrate>
100006a8:	002c      	movs	r4, r5
100006aa:	342c      	adds	r4, #44	; 0x2c
100006ac:	6ae9      	ldr	r1, [r5, #44]	; 0x2c
100006ae:	2260      	movs	r2, #96	; 0x60
100006b0:	404a      	eors	r2, r1
100006b2:	216e      	movs	r1, #110	; 0x6e
100006b4:	4011      	ands	r1, r2
100006b6:	2280      	movs	r2, #128	; 0x80
100006b8:	0152      	lsls	r2, r2, #5
100006ba:	4322      	orrs	r2, r4
100006bc:	6011      	str	r1, [r2, #0]
100006be:	4b0a      	ldr	r3, [pc, #40]	; (100006e8 <uart_init+0x7c>)
100006c0:	632b      	str	r3, [r5, #48]	; 0x30
100006c2:	2380      	movs	r3, #128	; 0x80
100006c4:	019b      	lsls	r3, r3, #6
100006c6:	4323      	orrs	r3, r4
100006c8:	2210      	movs	r2, #16
100006ca:	601a      	str	r2, [r3, #0]
100006cc:	2303      	movs	r3, #3
100006ce:	64ab      	str	r3, [r5, #72]	; 0x48
100006d0:	bd70      	pop	{r4, r5, r6, pc}
100006d2:	2280      	movs	r2, #128	; 0x80
100006d4:	0412      	lsls	r2, r2, #16
100006d6:	e7d6      	b.n	10000686 <uart_init+0x1a>
100006d8:	40038000 	.word	0x40038000
100006dc:	4000e000 	.word	0x4000e000
100006e0:	4000f000 	.word	0x4000f000
100006e4:	4000c000 	.word	0x4000c000
100006e8:	00000301 	.word	0x00000301

100006ec <alarm_pool_post_alloc_init>:
100006ec:	b570      	push	{r4, r5, r6, lr}
100006ee:	0005      	movs	r5, r0
100006f0:	000c      	movs	r4, r1
100006f2:	0008      	movs	r0, r1
100006f4:	f000 fb7a 	bl	10000dec <hardware_alarm_claim>
100006f8:	0020      	movs	r0, r4
100006fa:	f000 fc4b 	bl	10000f94 <hardware_alarm_cancel>
100006fe:	4908      	ldr	r1, [pc, #32]	; (10000720 <alarm_pool_post_alloc_init+0x34>)
10000700:	0020      	movs	r0, r4
10000702:	f000 fb8b 	bl	10000e1c <hardware_alarm_set_callback>
10000706:	f7ff ff61 	bl	100005cc <next_striped_spin_lock_num>
1000070a:	4b06      	ldr	r3, [pc, #24]	; (10000724 <alarm_pool_post_alloc_init+0x38>)
1000070c:	469c      	mov	ip, r3
1000070e:	4460      	add	r0, ip
10000710:	0080      	lsls	r0, r0, #2
10000712:	6068      	str	r0, [r5, #4]
10000714:	752c      	strb	r4, [r5, #20]
10000716:	00a4      	lsls	r4, r4, #2
10000718:	4b03      	ldr	r3, [pc, #12]	; (10000728 <alarm_pool_post_alloc_init+0x3c>)
1000071a:	50e5      	str	r5, [r4, r3]
1000071c:	bd70      	pop	{r4, r5, r6, pc}
1000071e:	46c0      	nop			; (mov r8, r8)
10000720:	10000a01 	.word	0x10000a01
10000724:	34000040 	.word	0x34000040
10000728:	20000424 	.word	0x20000424

1000072c <timer_pool_entry_comparator>:
1000072c:	b510      	push	{r4, lr}
1000072e:	2900      	cmp	r1, #0
10000730:	d022      	beq.n	10000778 <timer_pool_entry_comparator+0x4c>
10000732:	6803      	ldr	r3, [r0, #0]
10000734:	7b1b      	ldrb	r3, [r3, #12]
10000736:	4299      	cmp	r1, r3
10000738:	d81e      	bhi.n	10000778 <timer_pool_entry_comparator+0x4c>
1000073a:	4b17      	ldr	r3, [pc, #92]	; (10000798 <timer_pool_entry_comparator+0x6c>)
1000073c:	469c      	mov	ip, r3
1000073e:	4461      	add	r1, ip
10000740:	0109      	lsls	r1, r1, #4
10000742:	6883      	ldr	r3, [r0, #8]
10000744:	469c      	mov	ip, r3
10000746:	4461      	add	r1, ip
10000748:	680c      	ldr	r4, [r1, #0]
1000074a:	6849      	ldr	r1, [r1, #4]
1000074c:	2a00      	cmp	r2, #0
1000074e:	d019      	beq.n	10000784 <timer_pool_entry_comparator+0x58>
10000750:	6803      	ldr	r3, [r0, #0]
10000752:	7b1b      	ldrb	r3, [r3, #12]
10000754:	429a      	cmp	r2, r3
10000756:	d815      	bhi.n	10000784 <timer_pool_entry_comparator+0x58>
10000758:	6883      	ldr	r3, [r0, #8]
1000075a:	480f      	ldr	r0, [pc, #60]	; (10000798 <timer_pool_entry_comparator+0x6c>)
1000075c:	4684      	mov	ip, r0
1000075e:	4462      	add	r2, ip
10000760:	0112      	lsls	r2, r2, #4
10000762:	189a      	adds	r2, r3, r2
10000764:	6810      	ldr	r0, [r2, #0]
10000766:	6853      	ldr	r3, [r2, #4]
10000768:	0002      	movs	r2, r0
1000076a:	2001      	movs	r0, #1
1000076c:	428b      	cmp	r3, r1
1000076e:	d801      	bhi.n	10000774 <timer_pool_entry_comparator+0x48>
10000770:	d00e      	beq.n	10000790 <timer_pool_entry_comparator+0x64>
10000772:	2000      	movs	r0, #0
10000774:	b2c0      	uxtb	r0, r0
10000776:	bd10      	pop	{r4, pc}
10000778:	4b08      	ldr	r3, [pc, #32]	; (1000079c <timer_pool_entry_comparator+0x70>)
1000077a:	4a09      	ldr	r2, [pc, #36]	; (100007a0 <timer_pool_entry_comparator+0x74>)
1000077c:	213b      	movs	r1, #59	; 0x3b
1000077e:	4809      	ldr	r0, [pc, #36]	; (100007a4 <timer_pool_entry_comparator+0x78>)
10000780:	f000 fe62 	bl	10001448 <__assert_func>
10000784:	4b05      	ldr	r3, [pc, #20]	; (1000079c <timer_pool_entry_comparator+0x70>)
10000786:	4a06      	ldr	r2, [pc, #24]	; (100007a0 <timer_pool_entry_comparator+0x74>)
10000788:	213b      	movs	r1, #59	; 0x3b
1000078a:	4806      	ldr	r0, [pc, #24]	; (100007a4 <timer_pool_entry_comparator+0x78>)
1000078c:	f000 fe5c 	bl	10001448 <__assert_func>
10000790:	42a2      	cmp	r2, r4
10000792:	d8ef      	bhi.n	10000774 <timer_pool_entry_comparator+0x48>
10000794:	e7ed      	b.n	10000772 <timer_pool_entry_comparator+0x46>
10000796:	46c0      	nop			; (mov r8, r8)
10000798:	0fffffff 	.word	0x0fffffff
1000079c:	10004524 	.word	0x10004524
100007a0:	10004734 	.word	0x10004734
100007a4:	100044ec 	.word	0x100044ec

100007a8 <ph_add_child_node>:
100007a8:	b510      	push	{r4, lr}
100007aa:	2900      	cmp	r1, #0
100007ac:	d01e      	beq.n	100007ec <ph_add_child_node+0x44>
100007ae:	7b03      	ldrb	r3, [r0, #12]
100007b0:	4299      	cmp	r1, r3
100007b2:	d81b      	bhi.n	100007ec <ph_add_child_node+0x44>
100007b4:	004b      	lsls	r3, r1, #1
100007b6:	185b      	adds	r3, r3, r1
100007b8:	3b03      	subs	r3, #3
100007ba:	6804      	ldr	r4, [r0, #0]
100007bc:	46a4      	mov	ip, r4
100007be:	4463      	add	r3, ip
100007c0:	2900      	cmp	r1, #0
100007c2:	d019      	beq.n	100007f8 <ph_add_child_node+0x50>
100007c4:	2a00      	cmp	r2, #0
100007c6:	d01d      	beq.n	10000804 <ph_add_child_node+0x5c>
100007c8:	4291      	cmp	r1, r2
100007ca:	d021      	beq.n	10000810 <ph_add_child_node+0x68>
100007cc:	2a00      	cmp	r2, #0
100007ce:	d025      	beq.n	1000081c <ph_add_child_node+0x74>
100007d0:	7b04      	ldrb	r4, [r0, #12]
100007d2:	42a2      	cmp	r2, r4
100007d4:	d822      	bhi.n	1000081c <ph_add_child_node+0x74>
100007d6:	6804      	ldr	r4, [r0, #0]
100007d8:	0050      	lsls	r0, r2, #1
100007da:	1880      	adds	r0, r0, r2
100007dc:	3803      	subs	r0, #3
100007de:	1820      	adds	r0, r4, r0
100007e0:	7081      	strb	r1, [r0, #2]
100007e2:	7819      	ldrb	r1, [r3, #0]
100007e4:	2900      	cmp	r1, #0
100007e6:	d11f      	bne.n	10000828 <ph_add_child_node+0x80>
100007e8:	701a      	strb	r2, [r3, #0]
100007ea:	bd10      	pop	{r4, pc}
100007ec:	4b10      	ldr	r3, [pc, #64]	; (10000830 <ph_add_child_node+0x88>)
100007ee:	4a11      	ldr	r2, [pc, #68]	; (10000834 <ph_add_child_node+0x8c>)
100007f0:	2169      	movs	r1, #105	; 0x69
100007f2:	4811      	ldr	r0, [pc, #68]	; (10000838 <ph_add_child_node+0x90>)
100007f4:	f000 fe28 	bl	10001448 <__assert_func>
100007f8:	4b10      	ldr	r3, [pc, #64]	; (1000083c <ph_add_child_node+0x94>)
100007fa:	4a11      	ldr	r2, [pc, #68]	; (10000840 <ph_add_child_node+0x98>)
100007fc:	3170      	adds	r1, #112	; 0x70
100007fe:	480e      	ldr	r0, [pc, #56]	; (10000838 <ph_add_child_node+0x90>)
10000800:	f000 fe22 	bl	10001448 <__assert_func>
10000804:	4b0f      	ldr	r3, [pc, #60]	; (10000844 <ph_add_child_node+0x9c>)
10000806:	4a0e      	ldr	r2, [pc, #56]	; (10000840 <ph_add_child_node+0x98>)
10000808:	2171      	movs	r1, #113	; 0x71
1000080a:	480b      	ldr	r0, [pc, #44]	; (10000838 <ph_add_child_node+0x90>)
1000080c:	f000 fe1c 	bl	10001448 <__assert_func>
10000810:	4b0d      	ldr	r3, [pc, #52]	; (10000848 <ph_add_child_node+0xa0>)
10000812:	4a0b      	ldr	r2, [pc, #44]	; (10000840 <ph_add_child_node+0x98>)
10000814:	2172      	movs	r1, #114	; 0x72
10000816:	4808      	ldr	r0, [pc, #32]	; (10000838 <ph_add_child_node+0x90>)
10000818:	f000 fe16 	bl	10001448 <__assert_func>
1000081c:	4b04      	ldr	r3, [pc, #16]	; (10000830 <ph_add_child_node+0x88>)
1000081e:	4a05      	ldr	r2, [pc, #20]	; (10000834 <ph_add_child_node+0x8c>)
10000820:	2169      	movs	r1, #105	; 0x69
10000822:	4805      	ldr	r0, [pc, #20]	; (10000838 <ph_add_child_node+0x90>)
10000824:	f000 fe10 	bl	10001448 <__assert_func>
10000828:	7041      	strb	r1, [r0, #1]
1000082a:	701a      	strb	r2, [r3, #0]
1000082c:	e7dd      	b.n	100007ea <ph_add_child_node+0x42>
1000082e:	46c0      	nop			; (mov r8, r8)
10000830:	10004558 	.word	0x10004558
10000834:	10004788 	.word	0x10004788
10000838:	10004574 	.word	0x10004574
1000083c:	100045c0 	.word	0x100045c0
10000840:	10004764 	.word	0x10004764
10000844:	100045cc 	.word	0x100045cc
10000848:	100045d8 	.word	0x100045d8

1000084c <ph_merge_nodes>:
1000084c:	b570      	push	{r4, r5, r6, lr}
1000084e:	0006      	movs	r6, r0
10000850:	000d      	movs	r5, r1
10000852:	0014      	movs	r4, r2
10000854:	2900      	cmp	r1, #0
10000856:	d014      	beq.n	10000882 <ph_merge_nodes+0x36>
10000858:	2a00      	cmp	r2, #0
1000085a:	d014      	beq.n	10000886 <ph_merge_nodes+0x3a>
1000085c:	6880      	ldr	r0, [r0, #8]
1000085e:	6873      	ldr	r3, [r6, #4]
10000860:	4798      	blx	r3
10000862:	2800      	cmp	r0, #0
10000864:	d006      	beq.n	10000874 <ph_merge_nodes+0x28>
10000866:	0022      	movs	r2, r4
10000868:	0029      	movs	r1, r5
1000086a:	0030      	movs	r0, r6
1000086c:	f7ff ff9c 	bl	100007a8 <ph_add_child_node>
10000870:	0028      	movs	r0, r5
10000872:	e007      	b.n	10000884 <ph_merge_nodes+0x38>
10000874:	002a      	movs	r2, r5
10000876:	0021      	movs	r1, r4
10000878:	0030      	movs	r0, r6
1000087a:	f7ff ff95 	bl	100007a8 <ph_add_child_node>
1000087e:	0020      	movs	r0, r4
10000880:	e000      	b.n	10000884 <ph_merge_nodes+0x38>
10000882:	0010      	movs	r0, r2
10000884:	bd70      	pop	{r4, r5, r6, pc}
10000886:	0008      	movs	r0, r1
10000888:	e7fc      	b.n	10000884 <ph_merge_nodes+0x38>
	...

1000088c <add_alarm_under_lock>:
1000088c:	b5f0      	push	{r4, r5, r6, r7, lr}
1000088e:	b083      	sub	sp, #12
10000890:	0005      	movs	r5, r0
10000892:	9200      	str	r2, [sp, #0]
10000894:	9301      	str	r3, [sp, #4]
10000896:	ab0a      	add	r3, sp, #40	; 0x28
10000898:	781c      	ldrb	r4, [r3, #0]
1000089a:	ab0b      	add	r3, sp, #44	; 0x2c
1000089c:	781f      	ldrb	r7, [r3, #0]
1000089e:	2c00      	cmp	r4, #0
100008a0:	d026      	beq.n	100008f0 <add_alarm_under_lock+0x64>
100008a2:	6803      	ldr	r3, [r0, #0]
100008a4:	7b5a      	ldrb	r2, [r3, #13]
100008a6:	4294      	cmp	r4, r2
100008a8:	d107      	bne.n	100008ba <add_alarm_under_lock+0x2e>
100008aa:	2301      	movs	r3, #1
100008ac:	2b00      	cmp	r3, #0
100008ae:	d119      	bne.n	100008e4 <add_alarm_under_lock+0x58>
100008b0:	2c00      	cmp	r4, #0
100008b2:	d13b      	bne.n	1000092c <add_alarm_under_lock+0xa0>
100008b4:	0020      	movs	r0, r4
100008b6:	b003      	add	sp, #12
100008b8:	bdf0      	pop	{r4, r5, r6, r7, pc}
100008ba:	2c00      	cmp	r4, #0
100008bc:	d00c      	beq.n	100008d8 <add_alarm_under_lock+0x4c>
100008be:	7b1a      	ldrb	r2, [r3, #12]
100008c0:	4294      	cmp	r4, r2
100008c2:	d809      	bhi.n	100008d8 <add_alarm_under_lock+0x4c>
100008c4:	681a      	ldr	r2, [r3, #0]
100008c6:	0063      	lsls	r3, r4, #1
100008c8:	191b      	adds	r3, r3, r4
100008ca:	3b03      	subs	r3, #3
100008cc:	18d3      	adds	r3, r2, r3
100008ce:	789b      	ldrb	r3, [r3, #2]
100008d0:	2b00      	cmp	r3, #0
100008d2:	d0eb      	beq.n	100008ac <add_alarm_under_lock+0x20>
100008d4:	2301      	movs	r3, #1
100008d6:	e7e9      	b.n	100008ac <add_alarm_under_lock+0x20>
100008d8:	4b3e      	ldr	r3, [pc, #248]	; (100009d4 <add_alarm_under_lock+0x148>)
100008da:	4a3f      	ldr	r2, [pc, #252]	; (100009d8 <add_alarm_under_lock+0x14c>)
100008dc:	2169      	movs	r1, #105	; 0x69
100008de:	483f      	ldr	r0, [pc, #252]	; (100009dc <add_alarm_under_lock+0x150>)
100008e0:	f000 fdb2 	bl	10001448 <__assert_func>
100008e4:	4b3e      	ldr	r3, [pc, #248]	; (100009e0 <add_alarm_under_lock+0x154>)
100008e6:	4a3f      	ldr	r2, [pc, #252]	; (100009e4 <add_alarm_under_lock+0x158>)
100008e8:	2165      	movs	r1, #101	; 0x65
100008ea:	483f      	ldr	r0, [pc, #252]	; (100009e8 <add_alarm_under_lock+0x15c>)
100008ec:	f000 fdac 	bl	10001448 <__assert_func>
100008f0:	6803      	ldr	r3, [r0, #0]
100008f2:	7b9c      	ldrb	r4, [r3, #14]
100008f4:	2c00      	cmp	r4, #0
100008f6:	d0db      	beq.n	100008b0 <add_alarm_under_lock+0x24>
100008f8:	d012      	beq.n	10000920 <add_alarm_under_lock+0x94>
100008fa:	7b1a      	ldrb	r2, [r3, #12]
100008fc:	4294      	cmp	r4, r2
100008fe:	d80f      	bhi.n	10000920 <add_alarm_under_lock+0x94>
10000900:	0062      	lsls	r2, r4, #1
10000902:	1912      	adds	r2, r2, r4
10000904:	3a03      	subs	r2, #3
10000906:	6819      	ldr	r1, [r3, #0]
10000908:	468c      	mov	ip, r1
1000090a:	4462      	add	r2, ip
1000090c:	7851      	ldrb	r1, [r2, #1]
1000090e:	7399      	strb	r1, [r3, #14]
10000910:	2900      	cmp	r1, #0
10000912:	d100      	bne.n	10000916 <add_alarm_under_lock+0x8a>
10000914:	73d9      	strb	r1, [r3, #15]
10000916:	2300      	movs	r3, #0
10000918:	7093      	strb	r3, [r2, #2]
1000091a:	7053      	strb	r3, [r2, #1]
1000091c:	7013      	strb	r3, [r2, #0]
1000091e:	e7c7      	b.n	100008b0 <add_alarm_under_lock+0x24>
10000920:	4b2c      	ldr	r3, [pc, #176]	; (100009d4 <add_alarm_under_lock+0x148>)
10000922:	4a2d      	ldr	r2, [pc, #180]	; (100009d8 <add_alarm_under_lock+0x14c>)
10000924:	2169      	movs	r1, #105	; 0x69
10000926:	482d      	ldr	r0, [pc, #180]	; (100009dc <add_alarm_under_lock+0x150>)
10000928:	f000 fd8e 	bl	10001448 <__assert_func>
1000092c:	2c00      	cmp	r4, #0
1000092e:	d03a      	beq.n	100009a6 <add_alarm_under_lock+0x11a>
10000930:	682b      	ldr	r3, [r5, #0]
10000932:	7b1b      	ldrb	r3, [r3, #12]
10000934:	429c      	cmp	r4, r3
10000936:	d836      	bhi.n	100009a6 <add_alarm_under_lock+0x11a>
10000938:	4b2c      	ldr	r3, [pc, #176]	; (100009ec <add_alarm_under_lock+0x160>)
1000093a:	18e3      	adds	r3, r4, r3
1000093c:	011b      	lsls	r3, r3, #4
1000093e:	68aa      	ldr	r2, [r5, #8]
10000940:	4694      	mov	ip, r2
10000942:	4463      	add	r3, ip
10000944:	9a00      	ldr	r2, [sp, #0]
10000946:	601a      	str	r2, [r3, #0]
10000948:	9a01      	ldr	r2, [sp, #4]
1000094a:	605a      	str	r2, [r3, #4]
1000094c:	9a08      	ldr	r2, [sp, #32]
1000094e:	609a      	str	r2, [r3, #8]
10000950:	9a09      	ldr	r2, [sp, #36]	; 0x24
10000952:	60da      	str	r2, [r3, #12]
10000954:	682e      	ldr	r6, [r5, #0]
10000956:	2c00      	cmp	r4, #0
10000958:	d02b      	beq.n	100009b2 <add_alarm_under_lock+0x126>
1000095a:	d030      	beq.n	100009be <add_alarm_under_lock+0x132>
1000095c:	7b33      	ldrb	r3, [r6, #12]
1000095e:	429c      	cmp	r4, r3
10000960:	d82d      	bhi.n	100009be <add_alarm_under_lock+0x132>
10000962:	0063      	lsls	r3, r4, #1
10000964:	191b      	adds	r3, r3, r4
10000966:	3b03      	subs	r3, #3
10000968:	6832      	ldr	r2, [r6, #0]
1000096a:	4694      	mov	ip, r2
1000096c:	4463      	add	r3, ip
1000096e:	2200      	movs	r2, #0
10000970:	709a      	strb	r2, [r3, #2]
10000972:	705a      	strb	r2, [r3, #1]
10000974:	701a      	strb	r2, [r3, #0]
10000976:	7b71      	ldrb	r1, [r6, #13]
10000978:	0022      	movs	r2, r4
1000097a:	0030      	movs	r0, r6
1000097c:	f7ff ff66 	bl	1000084c <ph_merge_nodes>
10000980:	7370      	strb	r0, [r6, #13]
10000982:	4284      	cmp	r4, r0
10000984:	d000      	beq.n	10000988 <add_alarm_under_lock+0xfc>
10000986:	e795      	b.n	100008b4 <add_alarm_under_lock+0x28>
10000988:	7d28      	ldrb	r0, [r5, #20]
1000098a:	9a00      	ldr	r2, [sp, #0]
1000098c:	9b01      	ldr	r3, [sp, #4]
1000098e:	f000 fa8d 	bl	10000eac <hardware_alarm_set_target>
10000992:	1e06      	subs	r6, r0, #0
10000994:	d001      	beq.n	1000099a <add_alarm_under_lock+0x10e>
10000996:	2f00      	cmp	r7, #0
10000998:	d017      	beq.n	100009ca <add_alarm_under_lock+0x13e>
1000099a:	9b0c      	ldr	r3, [sp, #48]	; 0x30
1000099c:	2b00      	cmp	r3, #0
1000099e:	d100      	bne.n	100009a2 <add_alarm_under_lock+0x116>
100009a0:	e788      	b.n	100008b4 <add_alarm_under_lock+0x28>
100009a2:	701e      	strb	r6, [r3, #0]
100009a4:	e786      	b.n	100008b4 <add_alarm_under_lock+0x28>
100009a6:	4b12      	ldr	r3, [pc, #72]	; (100009f0 <add_alarm_under_lock+0x164>)
100009a8:	4a12      	ldr	r2, [pc, #72]	; (100009f4 <add_alarm_under_lock+0x168>)
100009aa:	213b      	movs	r1, #59	; 0x3b
100009ac:	480e      	ldr	r0, [pc, #56]	; (100009e8 <add_alarm_under_lock+0x15c>)
100009ae:	f000 fd4b 	bl	10001448 <__assert_func>
100009b2:	4b11      	ldr	r3, [pc, #68]	; (100009f8 <add_alarm_under_lock+0x16c>)
100009b4:	4a11      	ldr	r2, [pc, #68]	; (100009fc <add_alarm_under_lock+0x170>)
100009b6:	21a6      	movs	r1, #166	; 0xa6
100009b8:	4808      	ldr	r0, [pc, #32]	; (100009dc <add_alarm_under_lock+0x150>)
100009ba:	f000 fd45 	bl	10001448 <__assert_func>
100009be:	4b05      	ldr	r3, [pc, #20]	; (100009d4 <add_alarm_under_lock+0x148>)
100009c0:	4a05      	ldr	r2, [pc, #20]	; (100009d8 <add_alarm_under_lock+0x14c>)
100009c2:	2169      	movs	r1, #105	; 0x69
100009c4:	4805      	ldr	r0, [pc, #20]	; (100009dc <add_alarm_under_lock+0x150>)
100009c6:	f000 fd3f 	bl	10001448 <__assert_func>
100009ca:	6828      	ldr	r0, [r5, #0]
100009cc:	0021      	movs	r1, r4
100009ce:	f000 fcb9 	bl	10001344 <ph_remove_and_free_node>
100009d2:	e7e2      	b.n	1000099a <add_alarm_under_lock+0x10e>
100009d4:	10004558 	.word	0x10004558
100009d8:	10004788 	.word	0x10004788
100009dc:	10004574 	.word	0x10004574
100009e0:	100045f0 	.word	0x100045f0
100009e4:	10004794 	.word	0x10004794
100009e8:	100044ec 	.word	0x100044ec
100009ec:	0fffffff 	.word	0x0fffffff
100009f0:	10004524 	.word	0x10004524
100009f4:	10004734 	.word	0x10004734
100009f8:	100044e8 	.word	0x100044e8
100009fc:	10004778 	.word	0x10004778

10000a00 <alarm_pool_alarm_callback>:
10000a00:	b5f0      	push	{r4, r5, r6, r7, lr}
10000a02:	46de      	mov	lr, fp
10000a04:	4657      	mov	r7, sl
10000a06:	464e      	mov	r6, r9
10000a08:	4645      	mov	r5, r8
10000a0a:	b5e0      	push	{r5, r6, r7, lr}
10000a0c:	b08b      	sub	sp, #44	; 0x2c
10000a0e:	9009      	str	r0, [sp, #36]	; 0x24
10000a10:	2300      	movs	r3, #0
10000a12:	9308      	str	r3, [sp, #32]
10000a14:	0082      	lsls	r2, r0, #2
10000a16:	4bb2      	ldr	r3, [pc, #712]	; (10000ce0 <alarm_pool_alarm_callback+0x2e0>)
10000a18:	58d6      	ldr	r6, [r2, r3]
10000a1a:	0037      	movs	r7, r6
10000a1c:	e032      	b.n	10000a84 <alarm_pool_alarm_callback+0x84>
10000a1e:	4bb1      	ldr	r3, [pc, #708]	; (10000ce4 <alarm_pool_alarm_callback+0x2e4>)
10000a20:	4ab1      	ldr	r2, [pc, #708]	; (10000ce8 <alarm_pool_alarm_callback+0x2e8>)
10000a22:	213f      	movs	r1, #63	; 0x3f
10000a24:	48b1      	ldr	r0, [pc, #708]	; (10000cec <alarm_pool_alarm_callback+0x2ec>)
10000a26:	f000 fd0f 	bl	10001448 <__assert_func>
10000a2a:	4bb1      	ldr	r3, [pc, #708]	; (10000cf0 <alarm_pool_alarm_callback+0x2f0>)
10000a2c:	4ab1      	ldr	r2, [pc, #708]	; (10000cf4 <alarm_pool_alarm_callback+0x2f4>)
10000a2e:	213b      	movs	r1, #59	; 0x3b
10000a30:	48b1      	ldr	r0, [pc, #708]	; (10000cf8 <alarm_pool_alarm_callback+0x2f8>)
10000a32:	f000 fd09 	bl	10001448 <__assert_func>
10000a36:	4bb1      	ldr	r3, [pc, #708]	; (10000cfc <alarm_pool_alarm_callback+0x2fc>)
10000a38:	4ab1      	ldr	r2, [pc, #708]	; (10000d00 <alarm_pool_alarm_callback+0x300>)
10000a3a:	218c      	movs	r1, #140	; 0x8c
10000a3c:	48ae      	ldr	r0, [pc, #696]	; (10000cf8 <alarm_pool_alarm_callback+0x2f8>)
10000a3e:	f000 fd03 	bl	10001448 <__assert_func>
10000a42:	4bb0      	ldr	r3, [pc, #704]	; (10000d04 <alarm_pool_alarm_callback+0x304>)
10000a44:	4aae      	ldr	r2, [pc, #696]	; (10000d00 <alarm_pool_alarm_callback+0x300>)
10000a46:	2190      	movs	r1, #144	; 0x90
10000a48:	48ab      	ldr	r0, [pc, #684]	; (10000cf8 <alarm_pool_alarm_callback+0x2f8>)
10000a4a:	f000 fcfd 	bl	10001448 <__assert_func>
10000a4e:	4ba8      	ldr	r3, [pc, #672]	; (10000cf0 <alarm_pool_alarm_callback+0x2f0>)
10000a50:	4aad      	ldr	r2, [pc, #692]	; (10000d08 <alarm_pool_alarm_callback+0x308>)
10000a52:	2140      	movs	r1, #64	; 0x40
10000a54:	48a8      	ldr	r0, [pc, #672]	; (10000cf8 <alarm_pool_alarm_callback+0x2f8>)
10000a56:	f000 fcf7 	bl	10001448 <__assert_func>
10000a5a:	682a      	ldr	r2, [r5, #0]
10000a5c:	686b      	ldr	r3, [r5, #4]
10000a5e:	9809      	ldr	r0, [sp, #36]	; 0x24
10000a60:	f000 fa24 	bl	10000eac <hardware_alarm_set_target>
10000a64:	2300      	movs	r3, #0
10000a66:	469a      	mov	sl, r3
10000a68:	4698      	mov	r8, r3
10000a6a:	687b      	ldr	r3, [r7, #4]
10000a6c:	f3bf 8f5f 	dmb	sy
10000a70:	2200      	movs	r2, #0
10000a72:	601a      	str	r2, [r3, #0]
10000a74:	f386 8810 	msr	PRIMASK, r6
10000a78:	4643      	mov	r3, r8
10000a7a:	2b00      	cmp	r3, #0
10000a7c:	d151      	bne.n	10000b22 <alarm_pool_alarm_callback+0x122>
10000a7e:	2800      	cmp	r0, #0
10000a80:	d100      	bne.n	10000a84 <alarm_pool_alarm_callback+0x84>
10000a82:	e126      	b.n	10000cd2 <alarm_pool_alarm_callback+0x2d2>
10000a84:	f000 f9be 	bl	10000e04 <time_us_64>
10000a88:	0002      	movs	r2, r0
10000a8a:	1e0b      	subs	r3, r1, #0
10000a8c:	dbc7      	blt.n	10000a1e <alarm_pool_alarm_callback+0x1e>
10000a8e:	2000      	movs	r0, #0
10000a90:	2100      	movs	r1, #0
10000a92:	9006      	str	r0, [sp, #24]
10000a94:	9107      	str	r1, [sp, #28]
10000a96:	6878      	ldr	r0, [r7, #4]
10000a98:	f3ef 8610 	mrs	r6, PRIMASK
10000a9c:	b672      	cpsid	i
10000a9e:	6801      	ldr	r1, [r0, #0]
10000aa0:	2900      	cmp	r1, #0
10000aa2:	d0fc      	beq.n	10000a9e <alarm_pool_alarm_callback+0x9e>
10000aa4:	f3bf 8f5f 	dmb	sy
10000aa8:	6839      	ldr	r1, [r7, #0]
10000aaa:	4688      	mov	r8, r1
10000aac:	7b4c      	ldrb	r4, [r1, #13]
10000aae:	2c00      	cmp	r4, #0
10000ab0:	d032      	beq.n	10000b18 <alarm_pool_alarm_callback+0x118>
10000ab2:	d0ba      	beq.n	10000a2a <alarm_pool_alarm_callback+0x2a>
10000ab4:	7b09      	ldrb	r1, [r1, #12]
10000ab6:	428c      	cmp	r4, r1
10000ab8:	d8b7      	bhi.n	10000a2a <alarm_pool_alarm_callback+0x2a>
10000aba:	4994      	ldr	r1, [pc, #592]	; (10000d0c <alarm_pool_alarm_callback+0x30c>)
10000abc:	1865      	adds	r5, r4, r1
10000abe:	012d      	lsls	r5, r5, #4
10000ac0:	68b9      	ldr	r1, [r7, #8]
10000ac2:	468c      	mov	ip, r1
10000ac4:	4465      	add	r5, ip
10000ac6:	6828      	ldr	r0, [r5, #0]
10000ac8:	6869      	ldr	r1, [r5, #4]
10000aca:	1a80      	subs	r0, r0, r2
10000acc:	4199      	sbcs	r1, r3
10000ace:	2900      	cmp	r1, #0
10000ad0:	dcc3      	bgt.n	10000a5a <alarm_pool_alarm_callback+0x5a>
10000ad2:	d101      	bne.n	10000ad8 <alarm_pool_alarm_callback+0xd8>
10000ad4:	2800      	cmp	r0, #0
10000ad6:	d1c0      	bne.n	10000a5a <alarm_pool_alarm_callback+0x5a>
10000ad8:	2100      	movs	r1, #0
10000ada:	4640      	mov	r0, r8
10000adc:	f000 fc28 	bl	10001330 <ph_remove_head>
10000ae0:	42a0      	cmp	r0, r4
10000ae2:	d1a8      	bne.n	10000a36 <alarm_pool_alarm_callback+0x36>
10000ae4:	682a      	ldr	r2, [r5, #0]
10000ae6:	686b      	ldr	r3, [r5, #4]
10000ae8:	9206      	str	r2, [sp, #24]
10000aea:	9307      	str	r3, [sp, #28]
10000aec:	68ab      	ldr	r3, [r5, #8]
10000aee:	4698      	mov	r8, r3
10000af0:	68eb      	ldr	r3, [r5, #12]
10000af2:	469a      	mov	sl, r3
10000af4:	4643      	mov	r3, r8
10000af6:	2b00      	cmp	r3, #0
10000af8:	d0a3      	beq.n	10000a42 <alarm_pool_alarm_callback+0x42>
10000afa:	2c00      	cmp	r4, #0
10000afc:	d0a7      	beq.n	10000a4e <alarm_pool_alarm_callback+0x4e>
10000afe:	683b      	ldr	r3, [r7, #0]
10000b00:	7b1b      	ldrb	r3, [r3, #12]
10000b02:	429c      	cmp	r4, r3
10000b04:	d8a3      	bhi.n	10000a4e <alarm_pool_alarm_callback+0x4e>
10000b06:	1e63      	subs	r3, r4, #1
10000b08:	68fa      	ldr	r2, [r7, #12]
10000b0a:	5cd3      	ldrb	r3, [r2, r3]
10000b0c:	9308      	str	r3, [sp, #32]
10000b0e:	021b      	lsls	r3, r3, #8
10000b10:	4318      	orrs	r0, r3
10000b12:	6138      	str	r0, [r7, #16]
10000b14:	2000      	movs	r0, #0
10000b16:	e7a8      	b.n	10000a6a <alarm_pool_alarm_callback+0x6a>
10000b18:	2300      	movs	r3, #0
10000b1a:	469a      	mov	sl, r3
10000b1c:	4698      	mov	r8, r3
10000b1e:	2000      	movs	r0, #0
10000b20:	e7a3      	b.n	10000a6a <alarm_pool_alarm_callback+0x6a>
10000b22:	9b08      	ldr	r3, [sp, #32]
10000b24:	021b      	lsls	r3, r3, #8
10000b26:	4323      	orrs	r3, r4
10000b28:	4699      	mov	r9, r3
10000b2a:	4651      	mov	r1, sl
10000b2c:	0018      	movs	r0, r3
10000b2e:	47c0      	blx	r8
10000b30:	0005      	movs	r5, r0
10000b32:	000e      	movs	r6, r1
10000b34:	687a      	ldr	r2, [r7, #4]
10000b36:	f3ef 8b10 	mrs	fp, PRIMASK
10000b3a:	b672      	cpsid	i
10000b3c:	6813      	ldr	r3, [r2, #0]
10000b3e:	4259      	negs	r1, r3
10000b40:	414b      	adcs	r3, r1
10000b42:	b2d9      	uxtb	r1, r3
10000b44:	2b00      	cmp	r3, #0
10000b46:	d1f9      	bne.n	10000b3c <alarm_pool_alarm_callback+0x13c>
10000b48:	f3bf 8f5f 	dmb	sy
10000b4c:	2e00      	cmp	r6, #0
10000b4e:	db26      	blt.n	10000b9e <alarm_pool_alarm_callback+0x19e>
10000b50:	2e00      	cmp	r6, #0
10000b52:	dd52      	ble.n	10000bfa <alarm_pool_alarm_callback+0x1fa>
10000b54:	693b      	ldr	r3, [r7, #16]
10000b56:	2b00      	cmp	r3, #0
10000b58:	d053      	beq.n	10000c02 <alarm_pool_alarm_callback+0x202>
10000b5a:	454b      	cmp	r3, r9
10000b5c:	d172      	bne.n	10000c44 <alarm_pool_alarm_callback+0x244>
10000b5e:	f000 f951 	bl	10000e04 <time_us_64>
10000b62:	0002      	movs	r2, r0
10000b64:	1e0b      	subs	r3, r1, #0
10000b66:	db73      	blt.n	10000c50 <alarm_pool_alarm_callback+0x250>
10000b68:	0001      	movs	r1, r0
10000b6a:	0018      	movs	r0, r3
10000b6c:	1952      	adds	r2, r2, r5
10000b6e:	4173      	adcs	r3, r6
10000b70:	4298      	cmp	r0, r3
10000b72:	d802      	bhi.n	10000b7a <alarm_pool_alarm_callback+0x17a>
10000b74:	d104      	bne.n	10000b80 <alarm_pool_alarm_callback+0x180>
10000b76:	4291      	cmp	r1, r2
10000b78:	d902      	bls.n	10000b80 <alarm_pool_alarm_callback+0x180>
10000b7a:	2201      	movs	r2, #1
10000b7c:	4252      	negs	r2, r2
10000b7e:	17d3      	asrs	r3, r2, #31
10000b80:	2b00      	cmp	r3, #0
10000b82:	db6b      	blt.n	10000c5c <alarm_pool_alarm_callback+0x25c>
10000b84:	2100      	movs	r1, #0
10000b86:	9104      	str	r1, [sp, #16]
10000b88:	3101      	adds	r1, #1
10000b8a:	9103      	str	r1, [sp, #12]
10000b8c:	9402      	str	r4, [sp, #8]
10000b8e:	4651      	mov	r1, sl
10000b90:	9101      	str	r1, [sp, #4]
10000b92:	4641      	mov	r1, r8
10000b94:	9100      	str	r1, [sp, #0]
10000b96:	0038      	movs	r0, r7
10000b98:	f7ff fe78 	bl	1000088c <add_alarm_under_lock>
10000b9c:	e049      	b.n	10000c32 <alarm_pool_alarm_callback+0x232>
10000b9e:	693b      	ldr	r3, [r7, #16]
10000ba0:	2b00      	cmp	r3, #0
10000ba2:	d0d5      	beq.n	10000b50 <alarm_pool_alarm_callback+0x150>
10000ba4:	454b      	cmp	r3, r9
10000ba6:	d11c      	bne.n	10000be2 <alarm_pool_alarm_callback+0x1e2>
10000ba8:	9a06      	ldr	r2, [sp, #24]
10000baa:	9b07      	ldr	r3, [sp, #28]
10000bac:	0010      	movs	r0, r2
10000bae:	0019      	movs	r1, r3
10000bb0:	1b52      	subs	r2, r2, r5
10000bb2:	41b3      	sbcs	r3, r6
10000bb4:	4299      	cmp	r1, r3
10000bb6:	d802      	bhi.n	10000bbe <alarm_pool_alarm_callback+0x1be>
10000bb8:	d104      	bne.n	10000bc4 <alarm_pool_alarm_callback+0x1c4>
10000bba:	4290      	cmp	r0, r2
10000bbc:	d902      	bls.n	10000bc4 <alarm_pool_alarm_callback+0x1c4>
10000bbe:	2201      	movs	r2, #1
10000bc0:	4252      	negs	r2, r2
10000bc2:	17d3      	asrs	r3, r2, #31
10000bc4:	2b00      	cmp	r3, #0
10000bc6:	db12      	blt.n	10000bee <alarm_pool_alarm_callback+0x1ee>
10000bc8:	2100      	movs	r1, #0
10000bca:	9104      	str	r1, [sp, #16]
10000bcc:	3101      	adds	r1, #1
10000bce:	9103      	str	r1, [sp, #12]
10000bd0:	9402      	str	r4, [sp, #8]
10000bd2:	4651      	mov	r1, sl
10000bd4:	9101      	str	r1, [sp, #4]
10000bd6:	4641      	mov	r1, r8
10000bd8:	9100      	str	r1, [sp, #0]
10000bda:	0038      	movs	r0, r7
10000bdc:	f7ff fe56 	bl	1000088c <add_alarm_under_lock>
10000be0:	e027      	b.n	10000c32 <alarm_pool_alarm_callback+0x232>
10000be2:	4b4b      	ldr	r3, [pc, #300]	; (10000d10 <alarm_pool_alarm_callback+0x310>)
10000be4:	4a46      	ldr	r2, [pc, #280]	; (10000d00 <alarm_pool_alarm_callback+0x300>)
10000be6:	219f      	movs	r1, #159	; 0x9f
10000be8:	4843      	ldr	r0, [pc, #268]	; (10000cf8 <alarm_pool_alarm_callback+0x2f8>)
10000bea:	f000 fc2d 	bl	10001448 <__assert_func>
10000bee:	4b3d      	ldr	r3, [pc, #244]	; (10000ce4 <alarm_pool_alarm_callback+0x2e4>)
10000bf0:	4a3d      	ldr	r2, [pc, #244]	; (10000ce8 <alarm_pool_alarm_callback+0x2e8>)
10000bf2:	213f      	movs	r1, #63	; 0x3f
10000bf4:	483d      	ldr	r0, [pc, #244]	; (10000cec <alarm_pool_alarm_callback+0x2ec>)
10000bf6:	f000 fc27 	bl	10001448 <__assert_func>
10000bfa:	2e00      	cmp	r6, #0
10000bfc:	d101      	bne.n	10000c02 <alarm_pool_alarm_callback+0x202>
10000bfe:	2d00      	cmp	r5, #0
10000c00:	d1a8      	bne.n	10000b54 <alarm_pool_alarm_callback+0x154>
10000c02:	683a      	ldr	r2, [r7, #0]
10000c04:	2c00      	cmp	r4, #0
10000c06:	d045      	beq.n	10000c94 <alarm_pool_alarm_callback+0x294>
10000c08:	7b53      	ldrb	r3, [r2, #13]
10000c0a:	429c      	cmp	r4, r3
10000c0c:	d12c      	bne.n	10000c68 <alarm_pool_alarm_callback+0x268>
10000c0e:	2101      	movs	r1, #1
10000c10:	2900      	cmp	r1, #0
10000c12:	d13f      	bne.n	10000c94 <alarm_pool_alarm_callback+0x294>
10000c14:	7bd3      	ldrb	r3, [r2, #15]
10000c16:	2b00      	cmp	r3, #0
10000c18:	d142      	bne.n	10000ca0 <alarm_pool_alarm_callback+0x2a0>
10000c1a:	73d4      	strb	r4, [r2, #15]
10000c1c:	2c00      	cmp	r4, #0
10000c1e:	d052      	beq.n	10000cc6 <alarm_pool_alarm_callback+0x2c6>
10000c20:	683b      	ldr	r3, [r7, #0]
10000c22:	7b1b      	ldrb	r3, [r3, #12]
10000c24:	429c      	cmp	r4, r3
10000c26:	d84e      	bhi.n	10000cc6 <alarm_pool_alarm_callback+0x2c6>
10000c28:	68fa      	ldr	r2, [r7, #12]
10000c2a:	3c01      	subs	r4, #1
10000c2c:	5d13      	ldrb	r3, [r2, r4]
10000c2e:	3301      	adds	r3, #1
10000c30:	5513      	strb	r3, [r2, r4]
10000c32:	2300      	movs	r3, #0
10000c34:	613b      	str	r3, [r7, #16]
10000c36:	687a      	ldr	r2, [r7, #4]
10000c38:	f3bf 8f5f 	dmb	sy
10000c3c:	6013      	str	r3, [r2, #0]
10000c3e:	f38b 8810 	msr	PRIMASK, fp
10000c42:	e71f      	b.n	10000a84 <alarm_pool_alarm_callback+0x84>
10000c44:	4b32      	ldr	r3, [pc, #200]	; (10000d10 <alarm_pool_alarm_callback+0x310>)
10000c46:	4a2e      	ldr	r2, [pc, #184]	; (10000d00 <alarm_pool_alarm_callback+0x300>)
10000c48:	21a2      	movs	r1, #162	; 0xa2
10000c4a:	482b      	ldr	r0, [pc, #172]	; (10000cf8 <alarm_pool_alarm_callback+0x2f8>)
10000c4c:	f000 fbfc 	bl	10001448 <__assert_func>
10000c50:	4b24      	ldr	r3, [pc, #144]	; (10000ce4 <alarm_pool_alarm_callback+0x2e4>)
10000c52:	4a25      	ldr	r2, [pc, #148]	; (10000ce8 <alarm_pool_alarm_callback+0x2e8>)
10000c54:	213f      	movs	r1, #63	; 0x3f
10000c56:	4825      	ldr	r0, [pc, #148]	; (10000cec <alarm_pool_alarm_callback+0x2ec>)
10000c58:	f000 fbf6 	bl	10001448 <__assert_func>
10000c5c:	4b21      	ldr	r3, [pc, #132]	; (10000ce4 <alarm_pool_alarm_callback+0x2e4>)
10000c5e:	4a22      	ldr	r2, [pc, #136]	; (10000ce8 <alarm_pool_alarm_callback+0x2e8>)
10000c60:	213f      	movs	r1, #63	; 0x3f
10000c62:	4822      	ldr	r0, [pc, #136]	; (10000cec <alarm_pool_alarm_callback+0x2ec>)
10000c64:	f000 fbf0 	bl	10001448 <__assert_func>
10000c68:	2c00      	cmp	r4, #0
10000c6a:	d00d      	beq.n	10000c88 <alarm_pool_alarm_callback+0x288>
10000c6c:	7b13      	ldrb	r3, [r2, #12]
10000c6e:	429c      	cmp	r4, r3
10000c70:	d80a      	bhi.n	10000c88 <alarm_pool_alarm_callback+0x288>
10000c72:	0063      	lsls	r3, r4, #1
10000c74:	191b      	adds	r3, r3, r4
10000c76:	3b03      	subs	r3, #3
10000c78:	6810      	ldr	r0, [r2, #0]
10000c7a:	4684      	mov	ip, r0
10000c7c:	4463      	add	r3, ip
10000c7e:	789b      	ldrb	r3, [r3, #2]
10000c80:	2b00      	cmp	r3, #0
10000c82:	d0c5      	beq.n	10000c10 <alarm_pool_alarm_callback+0x210>
10000c84:	2101      	movs	r1, #1
10000c86:	e7c3      	b.n	10000c10 <alarm_pool_alarm_callback+0x210>
10000c88:	4b22      	ldr	r3, [pc, #136]	; (10000d14 <alarm_pool_alarm_callback+0x314>)
10000c8a:	4a23      	ldr	r2, [pc, #140]	; (10000d18 <alarm_pool_alarm_callback+0x318>)
10000c8c:	2169      	movs	r1, #105	; 0x69
10000c8e:	4823      	ldr	r0, [pc, #140]	; (10000d1c <alarm_pool_alarm_callback+0x31c>)
10000c90:	f000 fbda 	bl	10001448 <__assert_func>
10000c94:	4b22      	ldr	r3, [pc, #136]	; (10000d20 <alarm_pool_alarm_callback+0x320>)
10000c96:	4a23      	ldr	r2, [pc, #140]	; (10000d24 <alarm_pool_alarm_callback+0x324>)
10000c98:	21f7      	movs	r1, #247	; 0xf7
10000c9a:	4820      	ldr	r0, [pc, #128]	; (10000d1c <alarm_pool_alarm_callback+0x31c>)
10000c9c:	f000 fbd4 	bl	10001448 <__assert_func>
10000ca0:	2b00      	cmp	r3, #0
10000ca2:	d00a      	beq.n	10000cba <alarm_pool_alarm_callback+0x2ba>
10000ca4:	7b11      	ldrb	r1, [r2, #12]
10000ca6:	428b      	cmp	r3, r1
10000ca8:	d807      	bhi.n	10000cba <alarm_pool_alarm_callback+0x2ba>
10000caa:	0059      	lsls	r1, r3, #1
10000cac:	18cb      	adds	r3, r1, r3
10000cae:	3b03      	subs	r3, #3
10000cb0:	6811      	ldr	r1, [r2, #0]
10000cb2:	468c      	mov	ip, r1
10000cb4:	4463      	add	r3, ip
10000cb6:	705c      	strb	r4, [r3, #1]
10000cb8:	e7af      	b.n	10000c1a <alarm_pool_alarm_callback+0x21a>
10000cba:	4b16      	ldr	r3, [pc, #88]	; (10000d14 <alarm_pool_alarm_callback+0x314>)
10000cbc:	4a16      	ldr	r2, [pc, #88]	; (10000d18 <alarm_pool_alarm_callback+0x318>)
10000cbe:	2169      	movs	r1, #105	; 0x69
10000cc0:	4816      	ldr	r0, [pc, #88]	; (10000d1c <alarm_pool_alarm_callback+0x31c>)
10000cc2:	f000 fbc1 	bl	10001448 <__assert_func>
10000cc6:	4b0a      	ldr	r3, [pc, #40]	; (10000cf0 <alarm_pool_alarm_callback+0x2f0>)
10000cc8:	4a0f      	ldr	r2, [pc, #60]	; (10000d08 <alarm_pool_alarm_callback+0x308>)
10000cca:	2140      	movs	r1, #64	; 0x40
10000ccc:	480a      	ldr	r0, [pc, #40]	; (10000cf8 <alarm_pool_alarm_callback+0x2f8>)
10000cce:	f000 fbbb 	bl	10001448 <__assert_func>
10000cd2:	b00b      	add	sp, #44	; 0x2c
10000cd4:	bcf0      	pop	{r4, r5, r6, r7}
10000cd6:	46bb      	mov	fp, r7
10000cd8:	46b2      	mov	sl, r6
10000cda:	46a9      	mov	r9, r5
10000cdc:	46a0      	mov	r8, r4
10000cde:	bdf0      	pop	{r4, r5, r6, r7, pc}
10000ce0:	20000424 	.word	0x20000424
10000ce4:	10004618 	.word	0x10004618
10000ce8:	10004700 	.word	0x10004700
10000cec:	10004634 	.word	0x10004634
10000cf0:	10004524 	.word	0x10004524
10000cf4:	10004734 	.word	0x10004734
10000cf8:	100044ec 	.word	0x100044ec
10000cfc:	1000467c 	.word	0x1000467c
10000d00:	10004718 	.word	0x10004718
10000d04:	10004694 	.word	0x10004694
10000d08:	10004740 	.word	0x10004740
10000d0c:	0fffffff 	.word	0x0fffffff
10000d10:	100046a0 	.word	0x100046a0
10000d14:	10004558 	.word	0x10004558
10000d18:	10004788 	.word	0x10004788
10000d1c:	10004574 	.word	0x10004574
10000d20:	100046dc 	.word	0x100046dc
10000d24:	10004754 	.word	0x10004754

10000d28 <alarm_pool_init_default>:
10000d28:	b510      	push	{r4, lr}
10000d2a:	4b0a      	ldr	r3, [pc, #40]	; (10000d54 <alarm_pool_init_default+0x2c>)
10000d2c:	685b      	ldr	r3, [r3, #4]
10000d2e:	2b00      	cmp	r3, #0
10000d30:	d004      	beq.n	10000d3c <alarm_pool_init_default+0x14>
10000d32:	210a      	movs	r1, #10
10000d34:	4808      	ldr	r0, [pc, #32]	; (10000d58 <alarm_pool_init_default+0x30>)
10000d36:	f000 f94d 	bl	10000fd4 <lock_init>
10000d3a:	bd10      	pop	{r4, pc}
10000d3c:	4c05      	ldr	r4, [pc, #20]	; (10000d54 <alarm_pool_init_default+0x2c>)
10000d3e:	0023      	movs	r3, r4
10000d40:	4a06      	ldr	r2, [pc, #24]	; (10000d5c <alarm_pool_init_default+0x34>)
10000d42:	2110      	movs	r1, #16
10000d44:	6820      	ldr	r0, [r4, #0]
10000d46:	f000 fa13 	bl	10001170 <ph_post_alloc_init>
10000d4a:	2103      	movs	r1, #3
10000d4c:	0020      	movs	r0, r4
10000d4e:	f7ff fccd 	bl	100006ec <alarm_pool_post_alloc_init>
10000d52:	e7ee      	b.n	10000d32 <alarm_pool_init_default+0xa>
10000d54:	200001b4 	.word	0x200001b4
10000d58:	20000638 	.word	0x20000638
10000d5c:	1000072d 	.word	0x1000072d

10000d60 <hardware_alarm_irq_handler>:
10000d60:	b570      	push	{r4, r5, r6, lr}
10000d62:	f3ef 8305 	mrs	r3, IPSR
10000d66:	203f      	movs	r0, #63	; 0x3f
10000d68:	4018      	ands	r0, r3
10000d6a:	3810      	subs	r0, #16
10000d6c:	f3ef 8c10 	mrs	ip, PRIMASK
10000d70:	b672      	cpsid	i
10000d72:	4b19      	ldr	r3, [pc, #100]	; (10000dd8 <hardware_alarm_irq_handler+0x78>)
10000d74:	681b      	ldr	r3, [r3, #0]
10000d76:	2b00      	cmp	r3, #0
10000d78:	d0fb      	beq.n	10000d72 <hardware_alarm_irq_handler+0x12>
10000d7a:	f3bf 8f5f 	dmb	sy
10000d7e:	2301      	movs	r3, #1
10000d80:	0019      	movs	r1, r3
10000d82:	4081      	lsls	r1, r0
10000d84:	4a15      	ldr	r2, [pc, #84]	; (10000ddc <hardware_alarm_irq_handler+0x7c>)
10000d86:	6351      	str	r1, [r2, #52]	; 0x34
10000d88:	4a15      	ldr	r2, [pc, #84]	; (10000de0 <hardware_alarm_irq_handler+0x80>)
10000d8a:	7812      	ldrb	r2, [r2, #0]
10000d8c:	0014      	movs	r4, r2
10000d8e:	40c4      	lsrs	r4, r0
10000d90:	4223      	tst	r3, r4
10000d92:	d014      	beq.n	10000dbe <hardware_alarm_irq_handler+0x5e>
10000d94:	4b11      	ldr	r3, [pc, #68]	; (10000ddc <hardware_alarm_irq_handler+0x7c>)
10000d96:	6a5c      	ldr	r4, [r3, #36]	; 0x24
10000d98:	0083      	lsls	r3, r0, #2
10000d9a:	4d12      	ldr	r5, [pc, #72]	; (10000de4 <hardware_alarm_irq_handler+0x84>)
10000d9c:	595b      	ldr	r3, [r3, r5]
10000d9e:	429c      	cmp	r4, r3
10000da0:	d306      	bcc.n	10000db0 <hardware_alarm_irq_handler+0x50>
10000da2:	0083      	lsls	r3, r0, #2
10000da4:	4c10      	ldr	r4, [pc, #64]	; (10000de8 <hardware_alarm_irq_handler+0x88>)
10000da6:	591b      	ldr	r3, [r3, r4]
10000da8:	438a      	bics	r2, r1
10000daa:	490d      	ldr	r1, [pc, #52]	; (10000de0 <hardware_alarm_irq_handler+0x80>)
10000dac:	700a      	strb	r2, [r1, #0]
10000dae:	e007      	b.n	10000dc0 <hardware_alarm_irq_handler+0x60>
10000db0:	4a0a      	ldr	r2, [pc, #40]	; (10000ddc <hardware_alarm_irq_handler+0x7c>)
10000db2:	1d03      	adds	r3, r0, #4
10000db4:	009b      	lsls	r3, r3, #2
10000db6:	5899      	ldr	r1, [r3, r2]
10000db8:	5099      	str	r1, [r3, r2]
10000dba:	2300      	movs	r3, #0
10000dbc:	e000      	b.n	10000dc0 <hardware_alarm_irq_handler+0x60>
10000dbe:	2300      	movs	r3, #0
10000dc0:	f3bf 8f5f 	dmb	sy
10000dc4:	4a04      	ldr	r2, [pc, #16]	; (10000dd8 <hardware_alarm_irq_handler+0x78>)
10000dc6:	2100      	movs	r1, #0
10000dc8:	6011      	str	r1, [r2, #0]
10000dca:	f38c 8810 	msr	PRIMASK, ip
10000dce:	2b00      	cmp	r3, #0
10000dd0:	d000      	beq.n	10000dd4 <hardware_alarm_irq_handler+0x74>
10000dd2:	4798      	blx	r3
10000dd4:	bd70      	pop	{r4, r5, r6, pc}
10000dd6:	46c0      	nop			; (mov r8, r8)
10000dd8:	d0000128 	.word	0xd0000128
10000ddc:	40054000 	.word	0x40054000
10000de0:	20000656 	.word	0x20000656
10000de4:	2000063c 	.word	0x2000063c
10000de8:	200003a4 	.word	0x200003a4

10000dec <hardware_alarm_claim>:
10000dec:	b510      	push	{r4, lr}
10000dee:	0001      	movs	r1, r0
10000df0:	4a02      	ldr	r2, [pc, #8]	; (10000dfc <hardware_alarm_claim+0x10>)
10000df2:	4803      	ldr	r0, [pc, #12]	; (10000e00 <hardware_alarm_claim+0x14>)
10000df4:	f7ff fbb6 	bl	10000564 <hw_claim_or_assert>
10000df8:	bd10      	pop	{r4, pc}
10000dfa:	46c0      	nop			; (mov r8, r8)
10000dfc:	100047ac 	.word	0x100047ac
10000e00:	20000654 	.word	0x20000654

10000e04 <time_us_64>:
10000e04:	4b04      	ldr	r3, [pc, #16]	; (10000e18 <time_us_64+0x14>)
10000e06:	6a5b      	ldr	r3, [r3, #36]	; 0x24
10000e08:	4a03      	ldr	r2, [pc, #12]	; (10000e18 <time_us_64+0x14>)
10000e0a:	6a90      	ldr	r0, [r2, #40]	; 0x28
10000e0c:	0019      	movs	r1, r3
10000e0e:	6a53      	ldr	r3, [r2, #36]	; 0x24
10000e10:	4299      	cmp	r1, r3
10000e12:	d1f9      	bne.n	10000e08 <time_us_64+0x4>
10000e14:	4770      	bx	lr
10000e16:	46c0      	nop			; (mov r8, r8)
10000e18:	40054000 	.word	0x40054000

10000e1c <hardware_alarm_set_callback>:
10000e1c:	b570      	push	{r4, r5, r6, lr}
10000e1e:	0004      	movs	r4, r0
10000e20:	000d      	movs	r5, r1
10000e22:	f3ef 8610 	mrs	r6, PRIMASK
10000e26:	b672      	cpsid	i
10000e28:	4b1b      	ldr	r3, [pc, #108]	; (10000e98 <hardware_alarm_set_callback+0x7c>)
10000e2a:	681b      	ldr	r3, [r3, #0]
10000e2c:	2b00      	cmp	r3, #0
10000e2e:	d0fb      	beq.n	10000e28 <hardware_alarm_set_callback+0xc>
10000e30:	f3bf 8f5f 	dmb	sy
10000e34:	2d00      	cmp	r5, #0
10000e36:	d01c      	beq.n	10000e72 <hardware_alarm_set_callback+0x56>
10000e38:	0020      	movs	r0, r4
10000e3a:	f000 fd31 	bl	100018a0 <irq_get_vtable_handler>
10000e3e:	4b17      	ldr	r3, [pc, #92]	; (10000e9c <hardware_alarm_set_callback+0x80>)
10000e40:	4283      	cmp	r3, r0
10000e42:	d00b      	beq.n	10000e5c <hardware_alarm_set_callback+0x40>
10000e44:	0019      	movs	r1, r3
10000e46:	0020      	movs	r0, r4
10000e48:	f000 fd32 	bl	100018b0 <irq_set_exclusive_handler>
10000e4c:	2101      	movs	r1, #1
10000e4e:	0020      	movs	r0, r4
10000e50:	f000 fd1e 	bl	10001890 <irq_set_enabled>
10000e54:	2301      	movs	r3, #1
10000e56:	40a3      	lsls	r3, r4
10000e58:	4a11      	ldr	r2, [pc, #68]	; (10000ea0 <hardware_alarm_set_callback+0x84>)
10000e5a:	6013      	str	r3, [r2, #0]
10000e5c:	00a4      	lsls	r4, r4, #2
10000e5e:	4b11      	ldr	r3, [pc, #68]	; (10000ea4 <hardware_alarm_set_callback+0x88>)
10000e60:	50e5      	str	r5, [r4, r3]
10000e62:	f3bf 8f5f 	dmb	sy
10000e66:	4b0c      	ldr	r3, [pc, #48]	; (10000e98 <hardware_alarm_set_callback+0x7c>)
10000e68:	2200      	movs	r2, #0
10000e6a:	601a      	str	r2, [r3, #0]
10000e6c:	f386 8810 	msr	PRIMASK, r6
10000e70:	bd70      	pop	{r4, r5, r6, pc}
10000e72:	00a2      	lsls	r2, r4, #2
10000e74:	4b0b      	ldr	r3, [pc, #44]	; (10000ea4 <hardware_alarm_set_callback+0x88>)
10000e76:	2100      	movs	r1, #0
10000e78:	50d1      	str	r1, [r2, r3]
10000e7a:	2201      	movs	r2, #1
10000e7c:	40a2      	lsls	r2, r4
10000e7e:	490a      	ldr	r1, [pc, #40]	; (10000ea8 <hardware_alarm_set_callback+0x8c>)
10000e80:	780b      	ldrb	r3, [r1, #0]
10000e82:	4393      	bics	r3, r2
10000e84:	700b      	strb	r3, [r1, #0]
10000e86:	4905      	ldr	r1, [pc, #20]	; (10000e9c <hardware_alarm_set_callback+0x80>)
10000e88:	0020      	movs	r0, r4
10000e8a:	f000 fd3b 	bl	10001904 <irq_remove_handler>
10000e8e:	2100      	movs	r1, #0
10000e90:	0020      	movs	r0, r4
10000e92:	f000 fcfd 	bl	10001890 <irq_set_enabled>
10000e96:	e7e4      	b.n	10000e62 <hardware_alarm_set_callback+0x46>
10000e98:	d0000128 	.word	0xd0000128
10000e9c:	10000d61 	.word	0x10000d61
10000ea0:	40056038 	.word	0x40056038
10000ea4:	200003a4 	.word	0x200003a4
10000ea8:	20000656 	.word	0x20000656

10000eac <hardware_alarm_set_target>:
10000eac:	b5f0      	push	{r4, r5, r6, r7, lr}
10000eae:	46de      	mov	lr, fp
10000eb0:	b500      	push	{lr}
10000eb2:	b084      	sub	sp, #16
10000eb4:	0004      	movs	r4, r0
10000eb6:	0015      	movs	r5, r2
10000eb8:	9201      	str	r2, [sp, #4]
10000eba:	001e      	movs	r6, r3
10000ebc:	9302      	str	r3, [sp, #8]
10000ebe:	f7ff ffa1 	bl	10000e04 <time_us_64>
10000ec2:	9503      	str	r5, [sp, #12]
10000ec4:	428e      	cmp	r6, r1
10000ec6:	d802      	bhi.n	10000ece <hardware_alarm_set_target+0x22>
10000ec8:	d14e      	bne.n	10000f68 <hardware_alarm_set_target+0xbc>
10000eca:	4285      	cmp	r5, r0
10000ecc:	d94c      	bls.n	10000f68 <hardware_alarm_set_target+0xbc>
10000ece:	f3ef 8b10 	mrs	fp, PRIMASK
10000ed2:	b672      	cpsid	i
10000ed4:	4b27      	ldr	r3, [pc, #156]	; (10000f74 <hardware_alarm_set_target+0xc8>)
10000ed6:	681b      	ldr	r3, [r3, #0]
10000ed8:	2b00      	cmp	r3, #0
10000eda:	d0fb      	beq.n	10000ed4 <hardware_alarm_set_target+0x28>
10000edc:	f3bf 8f5f 	dmb	sy
10000ee0:	4a25      	ldr	r2, [pc, #148]	; (10000f78 <hardware_alarm_set_target+0xcc>)
10000ee2:	7817      	ldrb	r7, [r2, #0]
10000ee4:	2501      	movs	r5, #1
10000ee6:	40a5      	lsls	r5, r4
10000ee8:	b2eb      	uxtb	r3, r5
10000eea:	433b      	orrs	r3, r7
10000eec:	7013      	strb	r3, [r2, #0]
10000eee:	4b23      	ldr	r3, [pc, #140]	; (10000f7c <hardware_alarm_set_target+0xd0>)
10000ef0:	635d      	str	r5, [r3, #52]	; 0x34
10000ef2:	1d22      	adds	r2, r4, #4
10000ef4:	0092      	lsls	r2, r2, #2
10000ef6:	9901      	ldr	r1, [sp, #4]
10000ef8:	50d1      	str	r1, [r2, r3]
10000efa:	00a2      	lsls	r2, r4, #2
10000efc:	4920      	ldr	r1, [pc, #128]	; (10000f80 <hardware_alarm_set_target+0xd4>)
10000efe:	9802      	ldr	r0, [sp, #8]
10000f00:	5050      	str	r0, [r2, r1]
10000f02:	6a1b      	ldr	r3, [r3, #32]
10000f04:	422b      	tst	r3, r5
10000f06:	d112      	bne.n	10000f2e <hardware_alarm_set_target+0x82>
10000f08:	4b1c      	ldr	r3, [pc, #112]	; (10000f7c <hardware_alarm_set_target+0xd0>)
10000f0a:	6c1b      	ldr	r3, [r3, #64]	; 0x40
10000f0c:	422b      	tst	r3, r5
10000f0e:	d008      	beq.n	10000f22 <hardware_alarm_set_target+0x76>
10000f10:	2000      	movs	r0, #0
10000f12:	f3bf 8f5f 	dmb	sy
10000f16:	4b17      	ldr	r3, [pc, #92]	; (10000f74 <hardware_alarm_set_target+0xc8>)
10000f18:	2200      	movs	r2, #0
10000f1a:	601a      	str	r2, [r3, #0]
10000f1c:	f38b 8810 	msr	PRIMASK, fp
10000f20:	e023      	b.n	10000f6a <hardware_alarm_set_target+0xbe>
10000f22:	4b18      	ldr	r3, [pc, #96]	; (10000f84 <hardware_alarm_set_target+0xd8>)
10000f24:	4a18      	ldr	r2, [pc, #96]	; (10000f88 <hardware_alarm_set_target+0xdc>)
10000f26:	21c1      	movs	r1, #193	; 0xc1
10000f28:	4818      	ldr	r0, [pc, #96]	; (10000f8c <hardware_alarm_set_target+0xe0>)
10000f2a:	f000 fa8d 	bl	10001448 <__assert_func>
10000f2e:	f7ff ff69 	bl	10000e04 <time_us_64>
10000f32:	428e      	cmp	r6, r1
10000f34:	d814      	bhi.n	10000f60 <hardware_alarm_set_target+0xb4>
10000f36:	d102      	bne.n	10000f3e <hardware_alarm_set_target+0x92>
10000f38:	9b03      	ldr	r3, [sp, #12]
10000f3a:	4283      	cmp	r3, r0
10000f3c:	d810      	bhi.n	10000f60 <hardware_alarm_set_target+0xb4>
10000f3e:	4b0e      	ldr	r3, [pc, #56]	; (10000f78 <hardware_alarm_set_target+0xcc>)
10000f40:	781b      	ldrb	r3, [r3, #0]
10000f42:	42bb      	cmp	r3, r7
10000f44:	d00e      	beq.n	10000f64 <hardware_alarm_set_target+0xb8>
10000f46:	4b0d      	ldr	r3, [pc, #52]	; (10000f7c <hardware_alarm_set_target+0xd0>)
10000f48:	621d      	str	r5, [r3, #32]
10000f4a:	635d      	str	r5, [r3, #52]	; 0x34
10000f4c:	201f      	movs	r0, #31
10000f4e:	4004      	ands	r4, r0
10000f50:	2301      	movs	r3, #1
10000f52:	40a3      	lsls	r3, r4
10000f54:	4a0e      	ldr	r2, [pc, #56]	; (10000f90 <hardware_alarm_set_target+0xe4>)
10000f56:	6013      	str	r3, [r2, #0]
10000f58:	4b07      	ldr	r3, [pc, #28]	; (10000f78 <hardware_alarm_set_target+0xcc>)
10000f5a:	701f      	strb	r7, [r3, #0]
10000f5c:	381e      	subs	r0, #30
10000f5e:	e7d8      	b.n	10000f12 <hardware_alarm_set_target+0x66>
10000f60:	2000      	movs	r0, #0
10000f62:	e7d6      	b.n	10000f12 <hardware_alarm_set_target+0x66>
10000f64:	2001      	movs	r0, #1
10000f66:	e7d4      	b.n	10000f12 <hardware_alarm_set_target+0x66>
10000f68:	2001      	movs	r0, #1
10000f6a:	b004      	add	sp, #16
10000f6c:	bc80      	pop	{r7}
10000f6e:	46bb      	mov	fp, r7
10000f70:	bdf0      	pop	{r4, r5, r6, r7, pc}
10000f72:	46c0      	nop			; (mov r8, r8)
10000f74:	d0000128 	.word	0xd0000128
10000f78:	20000656 	.word	0x20000656
10000f7c:	40054000 	.word	0x40054000
10000f80:	2000063c 	.word	0x2000063c
10000f84:	100047d0 	.word	0x100047d0
10000f88:	10004838 	.word	0x10004838
10000f8c:	100047f4 	.word	0x100047f4
10000f90:	e000e280 	.word	0xe000e280

10000f94 <hardware_alarm_cancel>:
10000f94:	f3ef 8c10 	mrs	ip, PRIMASK
10000f98:	b672      	cpsid	i
10000f9a:	4b0b      	ldr	r3, [pc, #44]	; (10000fc8 <hardware_alarm_cancel+0x34>)
10000f9c:	681b      	ldr	r3, [r3, #0]
10000f9e:	2b00      	cmp	r3, #0
10000fa0:	d0fb      	beq.n	10000f9a <hardware_alarm_cancel+0x6>
10000fa2:	f3bf 8f5f 	dmb	sy
10000fa6:	2301      	movs	r3, #1
10000fa8:	4083      	lsls	r3, r0
10000faa:	4a08      	ldr	r2, [pc, #32]	; (10000fcc <hardware_alarm_cancel+0x38>)
10000fac:	6213      	str	r3, [r2, #32]
10000fae:	4908      	ldr	r1, [pc, #32]	; (10000fd0 <hardware_alarm_cancel+0x3c>)
10000fb0:	780a      	ldrb	r2, [r1, #0]
10000fb2:	439a      	bics	r2, r3
10000fb4:	700a      	strb	r2, [r1, #0]
10000fb6:	f3bf 8f5f 	dmb	sy
10000fba:	4b03      	ldr	r3, [pc, #12]	; (10000fc8 <hardware_alarm_cancel+0x34>)
10000fbc:	2200      	movs	r2, #0
10000fbe:	601a      	str	r2, [r3, #0]
10000fc0:	f38c 8810 	msr	PRIMASK, ip
10000fc4:	4770      	bx	lr
10000fc6:	46c0      	nop			; (mov r8, r8)
10000fc8:	d0000128 	.word	0xd0000128
10000fcc:	40054000 	.word	0x40054000
10000fd0:	20000656 	.word	0x20000656

10000fd4 <lock_init>:
10000fd4:	4b02      	ldr	r3, [pc, #8]	; (10000fe0 <lock_init+0xc>)
10000fd6:	469c      	mov	ip, r3
10000fd8:	4461      	add	r1, ip
10000fda:	0089      	lsls	r1, r1, #2
10000fdc:	6001      	str	r1, [r0, #0]
10000fde:	4770      	bx	lr
10000fe0:	34000040 	.word	0x34000040

10000fe4 <mutex_init>:
10000fe4:	b510      	push	{r4, lr}
10000fe6:	0004      	movs	r4, r0
10000fe8:	f7ff faf0 	bl	100005cc <next_striped_spin_lock_num>
10000fec:	0001      	movs	r1, r0
10000fee:	0020      	movs	r0, r4
10000ff0:	f7ff fff0 	bl	10000fd4 <lock_init>
10000ff4:	23ff      	movs	r3, #255	; 0xff
10000ff6:	7123      	strb	r3, [r4, #4]
10000ff8:	f3bf 8f5f 	dmb	sy
10000ffc:	bd10      	pop	{r4, pc}

10000ffe <recursive_mutex_init>:
10000ffe:	b510      	push	{r4, lr}
10001000:	0004      	movs	r4, r0
10001002:	f7ff fae3 	bl	100005cc <next_striped_spin_lock_num>
10001006:	0001      	movs	r1, r0
10001008:	0020      	movs	r0, r4
1000100a:	f7ff ffe3 	bl	10000fd4 <lock_init>
1000100e:	23ff      	movs	r3, #255	; 0xff
10001010:	7123      	strb	r3, [r4, #4]
10001012:	2300      	movs	r3, #0
10001014:	7163      	strb	r3, [r4, #5]
10001016:	f3bf 8f5f 	dmb	sy
1000101a:	bd10      	pop	{r4, pc}

1000101c <ph_add_child_node>:
1000101c:	b510      	push	{r4, lr}
1000101e:	2900      	cmp	r1, #0
10001020:	d01e      	beq.n	10001060 <ph_add_child_node+0x44>
10001022:	7b03      	ldrb	r3, [r0, #12]
10001024:	4299      	cmp	r1, r3
10001026:	d81b      	bhi.n	10001060 <ph_add_child_node+0x44>
10001028:	004b      	lsls	r3, r1, #1
1000102a:	185b      	adds	r3, r3, r1
1000102c:	3b03      	subs	r3, #3
1000102e:	6804      	ldr	r4, [r0, #0]
10001030:	46a4      	mov	ip, r4
10001032:	4463      	add	r3, ip
10001034:	2900      	cmp	r1, #0
10001036:	d019      	beq.n	1000106c <ph_add_child_node+0x50>
10001038:	2a00      	cmp	r2, #0
1000103a:	d01d      	beq.n	10001078 <ph_add_child_node+0x5c>
1000103c:	4291      	cmp	r1, r2
1000103e:	d021      	beq.n	10001084 <ph_add_child_node+0x68>
10001040:	2a00      	cmp	r2, #0
10001042:	d025      	beq.n	10001090 <ph_add_child_node+0x74>
10001044:	7b04      	ldrb	r4, [r0, #12]
10001046:	42a2      	cmp	r2, r4
10001048:	d822      	bhi.n	10001090 <ph_add_child_node+0x74>
1000104a:	6804      	ldr	r4, [r0, #0]
1000104c:	0050      	lsls	r0, r2, #1
1000104e:	1880      	adds	r0, r0, r2
10001050:	3803      	subs	r0, #3
10001052:	1820      	adds	r0, r4, r0
10001054:	7081      	strb	r1, [r0, #2]
10001056:	7819      	ldrb	r1, [r3, #0]
10001058:	2900      	cmp	r1, #0
1000105a:	d11f      	bne.n	1000109c <ph_add_child_node+0x80>
1000105c:	701a      	strb	r2, [r3, #0]
1000105e:	bd10      	pop	{r4, pc}
10001060:	4b10      	ldr	r3, [pc, #64]	; (100010a4 <ph_add_child_node+0x88>)
10001062:	4a11      	ldr	r2, [pc, #68]	; (100010a8 <ph_add_child_node+0x8c>)
10001064:	2169      	movs	r1, #105	; 0x69
10001066:	4811      	ldr	r0, [pc, #68]	; (100010ac <ph_add_child_node+0x90>)
10001068:	f000 f9ee 	bl	10001448 <__assert_func>
1000106c:	4b10      	ldr	r3, [pc, #64]	; (100010b0 <ph_add_child_node+0x94>)
1000106e:	4a11      	ldr	r2, [pc, #68]	; (100010b4 <ph_add_child_node+0x98>)
10001070:	3170      	adds	r1, #112	; 0x70
10001072:	480e      	ldr	r0, [pc, #56]	; (100010ac <ph_add_child_node+0x90>)
10001074:	f000 f9e8 	bl	10001448 <__assert_func>
10001078:	4b0f      	ldr	r3, [pc, #60]	; (100010b8 <ph_add_child_node+0x9c>)
1000107a:	4a0e      	ldr	r2, [pc, #56]	; (100010b4 <ph_add_child_node+0x98>)
1000107c:	2171      	movs	r1, #113	; 0x71
1000107e:	480b      	ldr	r0, [pc, #44]	; (100010ac <ph_add_child_node+0x90>)
10001080:	f000 f9e2 	bl	10001448 <__assert_func>
10001084:	4b0d      	ldr	r3, [pc, #52]	; (100010bc <ph_add_child_node+0xa0>)
10001086:	4a0b      	ldr	r2, [pc, #44]	; (100010b4 <ph_add_child_node+0x98>)
10001088:	2172      	movs	r1, #114	; 0x72
1000108a:	4808      	ldr	r0, [pc, #32]	; (100010ac <ph_add_child_node+0x90>)
1000108c:	f000 f9dc 	bl	10001448 <__assert_func>
10001090:	4b04      	ldr	r3, [pc, #16]	; (100010a4 <ph_add_child_node+0x88>)
10001092:	4a05      	ldr	r2, [pc, #20]	; (100010a8 <ph_add_child_node+0x8c>)
10001094:	2169      	movs	r1, #105	; 0x69
10001096:	4805      	ldr	r0, [pc, #20]	; (100010ac <ph_add_child_node+0x90>)
10001098:	f000 f9d6 	bl	10001448 <__assert_func>
1000109c:	7041      	strb	r1, [r0, #1]
1000109e:	701a      	strb	r2, [r3, #0]
100010a0:	e7dd      	b.n	1000105e <ph_add_child_node+0x42>
100010a2:	46c0      	nop			; (mov r8, r8)
100010a4:	10004558 	.word	0x10004558
100010a8:	100049e0 	.word	0x100049e0
100010ac:	10004574 	.word	0x10004574
100010b0:	100045c0 	.word	0x100045c0
100010b4:	100049cc 	.word	0x100049cc
100010b8:	100045cc 	.word	0x100045cc
100010bc:	100045d8 	.word	0x100045d8

100010c0 <ph_merge_nodes>:
100010c0:	b570      	push	{r4, r5, r6, lr}
100010c2:	0006      	movs	r6, r0
100010c4:	000d      	movs	r5, r1
100010c6:	0014      	movs	r4, r2
100010c8:	2900      	cmp	r1, #0
100010ca:	d014      	beq.n	100010f6 <ph_merge_nodes+0x36>
100010cc:	2a00      	cmp	r2, #0
100010ce:	d014      	beq.n	100010fa <ph_merge_nodes+0x3a>
100010d0:	6880      	ldr	r0, [r0, #8]
100010d2:	6873      	ldr	r3, [r6, #4]
100010d4:	4798      	blx	r3
100010d6:	2800      	cmp	r0, #0
100010d8:	d006      	beq.n	100010e8 <ph_merge_nodes+0x28>
100010da:	0022      	movs	r2, r4
100010dc:	0029      	movs	r1, r5
100010de:	0030      	movs	r0, r6
100010e0:	f7ff ff9c 	bl	1000101c <ph_add_child_node>
100010e4:	0028      	movs	r0, r5
100010e6:	e007      	b.n	100010f8 <ph_merge_nodes+0x38>
100010e8:	002a      	movs	r2, r5
100010ea:	0021      	movs	r1, r4
100010ec:	0030      	movs	r0, r6
100010ee:	f7ff ff95 	bl	1000101c <ph_add_child_node>
100010f2:	0020      	movs	r0, r4
100010f4:	e000      	b.n	100010f8 <ph_merge_nodes+0x38>
100010f6:	0010      	movs	r0, r2
100010f8:	bd70      	pop	{r4, r5, r6, pc}
100010fa:	0008      	movs	r0, r1
100010fc:	e7fc      	b.n	100010f8 <ph_merge_nodes+0x38>
	...

10001100 <ph_clear>:
10001100:	b510      	push	{r4, lr}
10001102:	2300      	movs	r3, #0
10001104:	7343      	strb	r3, [r0, #13]
10001106:	3301      	adds	r3, #1
10001108:	7383      	strb	r3, [r0, #14]
1000110a:	7b03      	ldrb	r3, [r0, #12]
1000110c:	73c3      	strb	r3, [r0, #15]
1000110e:	2301      	movs	r3, #1
10001110:	7b02      	ldrb	r2, [r0, #12]
10001112:	429a      	cmp	r2, r3
10001114:	d914      	bls.n	10001140 <ph_clear+0x40>
10001116:	2b00      	cmp	r3, #0
10001118:	d00c      	beq.n	10001134 <ph_clear+0x34>
1000111a:	7b02      	ldrb	r2, [r0, #12]
1000111c:	4293      	cmp	r3, r2
1000111e:	d809      	bhi.n	10001134 <ph_clear+0x34>
10001120:	005a      	lsls	r2, r3, #1
10001122:	18d2      	adds	r2, r2, r3
10001124:	3a03      	subs	r2, #3
10001126:	6801      	ldr	r1, [r0, #0]
10001128:	468c      	mov	ip, r1
1000112a:	4462      	add	r2, ip
1000112c:	3301      	adds	r3, #1
1000112e:	b2db      	uxtb	r3, r3
10001130:	7053      	strb	r3, [r2, #1]
10001132:	e7ed      	b.n	10001110 <ph_clear+0x10>
10001134:	4b0b      	ldr	r3, [pc, #44]	; (10001164 <ph_clear+0x64>)
10001136:	4a0c      	ldr	r2, [pc, #48]	; (10001168 <ph_clear+0x68>)
10001138:	2169      	movs	r1, #105	; 0x69
1000113a:	480c      	ldr	r0, [pc, #48]	; (1000116c <ph_clear+0x6c>)
1000113c:	f000 f984 	bl	10001448 <__assert_func>
10001140:	2a00      	cmp	r2, #0
10001142:	d009      	beq.n	10001158 <ph_clear+0x58>
10001144:	4292      	cmp	r2, r2
10001146:	d807      	bhi.n	10001158 <ph_clear+0x58>
10001148:	6801      	ldr	r1, [r0, #0]
1000114a:	0053      	lsls	r3, r2, #1
1000114c:	189a      	adds	r2, r3, r2
1000114e:	3a03      	subs	r2, #3
10001150:	188a      	adds	r2, r1, r2
10001152:	2300      	movs	r3, #0
10001154:	7053      	strb	r3, [r2, #1]
10001156:	bd10      	pop	{r4, pc}
10001158:	4b02      	ldr	r3, [pc, #8]	; (10001164 <ph_clear+0x64>)
1000115a:	4a03      	ldr	r2, [pc, #12]	; (10001168 <ph_clear+0x68>)
1000115c:	2169      	movs	r1, #105	; 0x69
1000115e:	4803      	ldr	r0, [pc, #12]	; (1000116c <ph_clear+0x6c>)
10001160:	f000 f972 	bl	10001448 <__assert_func>
10001164:	10004558 	.word	0x10004558
10001168:	100049e0 	.word	0x100049e0
1000116c:	10004574 	.word	0x10004574

10001170 <ph_post_alloc_init>:
10001170:	b510      	push	{r4, lr}
10001172:	7301      	strb	r1, [r0, #12]
10001174:	6042      	str	r2, [r0, #4]
10001176:	6083      	str	r3, [r0, #8]
10001178:	f7ff ffc2 	bl	10001100 <ph_clear>
1000117c:	bd10      	pop	{r4, pc}
	...

10001180 <ph_merge_two_pass>:
10001180:	b570      	push	{r4, r5, r6, lr}
10001182:	0004      	movs	r4, r0
10001184:	1e08      	subs	r0, r1, #0
10001186:	d100      	bne.n	1000118a <ph_merge_two_pass+0xa>
10001188:	bd70      	pop	{r4, r5, r6, pc}
1000118a:	2900      	cmp	r1, #0
1000118c:	d034      	beq.n	100011f8 <ph_merge_two_pass+0x78>
1000118e:	7b23      	ldrb	r3, [r4, #12]
10001190:	4299      	cmp	r1, r3
10001192:	d831      	bhi.n	100011f8 <ph_merge_two_pass+0x78>
10001194:	004b      	lsls	r3, r1, #1
10001196:	185b      	adds	r3, r3, r1
10001198:	3b03      	subs	r3, #3
1000119a:	6822      	ldr	r2, [r4, #0]
1000119c:	4694      	mov	ip, r2
1000119e:	4463      	add	r3, ip
100011a0:	785a      	ldrb	r2, [r3, #1]
100011a2:	2a00      	cmp	r2, #0
100011a4:	d0f0      	beq.n	10001188 <ph_merge_two_pass+0x8>
100011a6:	d02d      	beq.n	10001204 <ph_merge_two_pass+0x84>
100011a8:	7b23      	ldrb	r3, [r4, #12]
100011aa:	429a      	cmp	r2, r3
100011ac:	d82a      	bhi.n	10001204 <ph_merge_two_pass+0x84>
100011ae:	0053      	lsls	r3, r2, #1
100011b0:	189b      	adds	r3, r3, r2
100011b2:	3b03      	subs	r3, #3
100011b4:	6821      	ldr	r1, [r4, #0]
100011b6:	468c      	mov	ip, r1
100011b8:	4463      	add	r3, ip
100011ba:	785d      	ldrb	r5, [r3, #1]
100011bc:	2100      	movs	r1, #0
100011be:	7059      	strb	r1, [r3, #1]
100011c0:	2800      	cmp	r0, #0
100011c2:	d025      	beq.n	10001210 <ph_merge_two_pass+0x90>
100011c4:	7b23      	ldrb	r3, [r4, #12]
100011c6:	4298      	cmp	r0, r3
100011c8:	d822      	bhi.n	10001210 <ph_merge_two_pass+0x90>
100011ca:	0043      	lsls	r3, r0, #1
100011cc:	181b      	adds	r3, r3, r0
100011ce:	3b03      	subs	r3, #3
100011d0:	6821      	ldr	r1, [r4, #0]
100011d2:	468c      	mov	ip, r1
100011d4:	4463      	add	r3, ip
100011d6:	2100      	movs	r1, #0
100011d8:	7059      	strb	r1, [r3, #1]
100011da:	0001      	movs	r1, r0
100011dc:	0020      	movs	r0, r4
100011de:	f7ff ff6f 	bl	100010c0 <ph_merge_nodes>
100011e2:	0006      	movs	r6, r0
100011e4:	0029      	movs	r1, r5
100011e6:	0020      	movs	r0, r4
100011e8:	f7ff ffca 	bl	10001180 <ph_merge_two_pass>
100011ec:	0002      	movs	r2, r0
100011ee:	0031      	movs	r1, r6
100011f0:	0020      	movs	r0, r4
100011f2:	f7ff ff65 	bl	100010c0 <ph_merge_nodes>
100011f6:	e7c7      	b.n	10001188 <ph_merge_two_pass+0x8>
100011f8:	4b08      	ldr	r3, [pc, #32]	; (1000121c <ph_merge_two_pass+0x9c>)
100011fa:	4a09      	ldr	r2, [pc, #36]	; (10001220 <ph_merge_two_pass+0xa0>)
100011fc:	2169      	movs	r1, #105	; 0x69
100011fe:	4809      	ldr	r0, [pc, #36]	; (10001224 <ph_merge_two_pass+0xa4>)
10001200:	f000 f922 	bl	10001448 <__assert_func>
10001204:	4b05      	ldr	r3, [pc, #20]	; (1000121c <ph_merge_two_pass+0x9c>)
10001206:	4a06      	ldr	r2, [pc, #24]	; (10001220 <ph_merge_two_pass+0xa0>)
10001208:	2169      	movs	r1, #105	; 0x69
1000120a:	4806      	ldr	r0, [pc, #24]	; (10001224 <ph_merge_two_pass+0xa4>)
1000120c:	f000 f91c 	bl	10001448 <__assert_func>
10001210:	4b02      	ldr	r3, [pc, #8]	; (1000121c <ph_merge_two_pass+0x9c>)
10001212:	4a03      	ldr	r2, [pc, #12]	; (10001220 <ph_merge_two_pass+0xa0>)
10001214:	2169      	movs	r1, #105	; 0x69
10001216:	4803      	ldr	r0, [pc, #12]	; (10001224 <ph_merge_two_pass+0xa4>)
10001218:	f000 f916 	bl	10001448 <__assert_func>
1000121c:	10004558 	.word	0x10004558
10001220:	100049e0 	.word	0x100049e0
10001224:	10004574 	.word	0x10004574

10001228 <ph_remove_any_head>:
10001228:	b570      	push	{r4, r5, r6, lr}
1000122a:	0005      	movs	r5, r0
1000122c:	000c      	movs	r4, r1
1000122e:	0016      	movs	r6, r2
10001230:	2900      	cmp	r1, #0
10001232:	d028      	beq.n	10001286 <ph_remove_any_head+0x5e>
10001234:	d02d      	beq.n	10001292 <ph_remove_any_head+0x6a>
10001236:	7b03      	ldrb	r3, [r0, #12]
10001238:	4299      	cmp	r1, r3
1000123a:	d82a      	bhi.n	10001292 <ph_remove_any_head+0x6a>
1000123c:	004b      	lsls	r3, r1, #1
1000123e:	185b      	adds	r3, r3, r1
10001240:	3b03      	subs	r3, #3
10001242:	6802      	ldr	r2, [r0, #0]
10001244:	4694      	mov	ip, r2
10001246:	4463      	add	r3, ip
10001248:	785a      	ldrb	r2, [r3, #1]
1000124a:	2a00      	cmp	r2, #0
1000124c:	d127      	bne.n	1000129e <ph_remove_any_head+0x76>
1000124e:	789a      	ldrb	r2, [r3, #2]
10001250:	2a00      	cmp	r2, #0
10001252:	d12a      	bne.n	100012aa <ph_remove_any_head+0x82>
10001254:	7819      	ldrb	r1, [r3, #0]
10001256:	f7ff ff93 	bl	10001180 <ph_merge_two_pass>
1000125a:	0003      	movs	r3, r0
1000125c:	2e00      	cmp	r6, #0
1000125e:	d003      	beq.n	10001268 <ph_remove_any_head+0x40>
10001260:	7bea      	ldrb	r2, [r5, #15]
10001262:	2a00      	cmp	r2, #0
10001264:	d127      	bne.n	100012b6 <ph_remove_any_head+0x8e>
10001266:	73ec      	strb	r4, [r5, #15]
10001268:	2b00      	cmp	r3, #0
1000126a:	d137      	bne.n	100012dc <ph_remove_any_head+0xb4>
1000126c:	2c00      	cmp	r4, #0
1000126e:	d049      	beq.n	10001304 <ph_remove_any_head+0xdc>
10001270:	7b2b      	ldrb	r3, [r5, #12]
10001272:	429c      	cmp	r4, r3
10001274:	d846      	bhi.n	10001304 <ph_remove_any_head+0xdc>
10001276:	682b      	ldr	r3, [r5, #0]
10001278:	0061      	lsls	r1, r4, #1
1000127a:	190c      	adds	r4, r1, r4
1000127c:	3c03      	subs	r4, #3
1000127e:	191c      	adds	r4, r3, r4
10001280:	2300      	movs	r3, #0
10001282:	7063      	strb	r3, [r4, #1]
10001284:	bd70      	pop	{r4, r5, r6, pc}
10001286:	4b22      	ldr	r3, [pc, #136]	; (10001310 <ph_remove_any_head+0xe8>)
10001288:	4a22      	ldr	r2, [pc, #136]	; (10001314 <ph_remove_any_head+0xec>)
1000128a:	2138      	movs	r1, #56	; 0x38
1000128c:	4822      	ldr	r0, [pc, #136]	; (10001318 <ph_remove_any_head+0xf0>)
1000128e:	f000 f8db 	bl	10001448 <__assert_func>
10001292:	4b22      	ldr	r3, [pc, #136]	; (1000131c <ph_remove_any_head+0xf4>)
10001294:	4a22      	ldr	r2, [pc, #136]	; (10001320 <ph_remove_any_head+0xf8>)
10001296:	2169      	movs	r1, #105	; 0x69
10001298:	4822      	ldr	r0, [pc, #136]	; (10001324 <ph_remove_any_head+0xfc>)
1000129a:	f000 f8d5 	bl	10001448 <__assert_func>
1000129e:	4b22      	ldr	r3, [pc, #136]	; (10001328 <ph_remove_any_head+0x100>)
100012a0:	4a1c      	ldr	r2, [pc, #112]	; (10001314 <ph_remove_any_head+0xec>)
100012a2:	213a      	movs	r1, #58	; 0x3a
100012a4:	481c      	ldr	r0, [pc, #112]	; (10001318 <ph_remove_any_head+0xf0>)
100012a6:	f000 f8cf 	bl	10001448 <__assert_func>
100012aa:	4b20      	ldr	r3, [pc, #128]	; (1000132c <ph_remove_any_head+0x104>)
100012ac:	4a19      	ldr	r2, [pc, #100]	; (10001314 <ph_remove_any_head+0xec>)
100012ae:	213b      	movs	r1, #59	; 0x3b
100012b0:	4819      	ldr	r0, [pc, #100]	; (10001318 <ph_remove_any_head+0xf0>)
100012b2:	f000 f8c9 	bl	10001448 <__assert_func>
100012b6:	2a00      	cmp	r2, #0
100012b8:	d00a      	beq.n	100012d0 <ph_remove_any_head+0xa8>
100012ba:	7b29      	ldrb	r1, [r5, #12]
100012bc:	428a      	cmp	r2, r1
100012be:	d807      	bhi.n	100012d0 <ph_remove_any_head+0xa8>
100012c0:	0051      	lsls	r1, r2, #1
100012c2:	188a      	adds	r2, r1, r2
100012c4:	3a03      	subs	r2, #3
100012c6:	6829      	ldr	r1, [r5, #0]
100012c8:	468c      	mov	ip, r1
100012ca:	4462      	add	r2, ip
100012cc:	7054      	strb	r4, [r2, #1]
100012ce:	e7ca      	b.n	10001266 <ph_remove_any_head+0x3e>
100012d0:	4b12      	ldr	r3, [pc, #72]	; (1000131c <ph_remove_any_head+0xf4>)
100012d2:	4a13      	ldr	r2, [pc, #76]	; (10001320 <ph_remove_any_head+0xf8>)
100012d4:	2169      	movs	r1, #105	; 0x69
100012d6:	4813      	ldr	r0, [pc, #76]	; (10001324 <ph_remove_any_head+0xfc>)
100012d8:	f000 f8b6 	bl	10001448 <__assert_func>
100012dc:	2b00      	cmp	r3, #0
100012de:	d00b      	beq.n	100012f8 <ph_remove_any_head+0xd0>
100012e0:	7b2a      	ldrb	r2, [r5, #12]
100012e2:	4293      	cmp	r3, r2
100012e4:	d808      	bhi.n	100012f8 <ph_remove_any_head+0xd0>
100012e6:	0043      	lsls	r3, r0, #1
100012e8:	181b      	adds	r3, r3, r0
100012ea:	3b03      	subs	r3, #3
100012ec:	682a      	ldr	r2, [r5, #0]
100012ee:	4694      	mov	ip, r2
100012f0:	4463      	add	r3, ip
100012f2:	2200      	movs	r2, #0
100012f4:	709a      	strb	r2, [r3, #2]
100012f6:	e7b9      	b.n	1000126c <ph_remove_any_head+0x44>
100012f8:	4b08      	ldr	r3, [pc, #32]	; (1000131c <ph_remove_any_head+0xf4>)
100012fa:	4a09      	ldr	r2, [pc, #36]	; (10001320 <ph_remove_any_head+0xf8>)
100012fc:	2169      	movs	r1, #105	; 0x69
100012fe:	4809      	ldr	r0, [pc, #36]	; (10001324 <ph_remove_any_head+0xfc>)
10001300:	f000 f8a2 	bl	10001448 <__assert_func>
10001304:	4b05      	ldr	r3, [pc, #20]	; (1000131c <ph_remove_any_head+0xf4>)
10001306:	4a06      	ldr	r2, [pc, #24]	; (10001320 <ph_remove_any_head+0xf8>)
10001308:	2169      	movs	r1, #105	; 0x69
1000130a:	4806      	ldr	r0, [pc, #24]	; (10001324 <ph_remove_any_head+0xfc>)
1000130c:	f000 f89c 	bl	10001448 <__assert_func>
10001310:	100048ec 	.word	0x100048ec
10001314:	100049b8 	.word	0x100049b8
10001318:	100048f4 	.word	0x100048f4
1000131c:	10004558 	.word	0x10004558
10001320:	100049e0 	.word	0x100049e0
10001324:	10004574 	.word	0x10004574
10001328:	1000492c 	.word	0x1000492c
1000132c:	10004954 	.word	0x10004954

10001330 <ph_remove_head>:
10001330:	b570      	push	{r4, r5, r6, lr}
10001332:	0004      	movs	r4, r0
10001334:	000a      	movs	r2, r1
10001336:	7b45      	ldrb	r5, [r0, #13]
10001338:	0029      	movs	r1, r5
1000133a:	f7ff ff75 	bl	10001228 <ph_remove_any_head>
1000133e:	7360      	strb	r0, [r4, #13]
10001340:	0028      	movs	r0, r5
10001342:	bd70      	pop	{r4, r5, r6, pc}

10001344 <ph_remove_and_free_node>:
10001344:	b570      	push	{r4, r5, r6, lr}
10001346:	0004      	movs	r4, r0
10001348:	2900      	cmp	r1, #0
1000134a:	d067      	beq.n	1000141c <ph_remove_and_free_node+0xd8>
1000134c:	7b43      	ldrb	r3, [r0, #13]
1000134e:	428b      	cmp	r3, r1
10001350:	d00e      	beq.n	10001370 <ph_remove_and_free_node+0x2c>
10001352:	2900      	cmp	r1, #0
10001354:	d011      	beq.n	1000137a <ph_remove_and_free_node+0x36>
10001356:	7b03      	ldrb	r3, [r0, #12]
10001358:	4299      	cmp	r1, r3
1000135a:	d80e      	bhi.n	1000137a <ph_remove_and_free_node+0x36>
1000135c:	004b      	lsls	r3, r1, #1
1000135e:	185b      	adds	r3, r3, r1
10001360:	3b03      	subs	r3, #3
10001362:	6802      	ldr	r2, [r0, #0]
10001364:	18d0      	adds	r0, r2, r3
10001366:	7883      	ldrb	r3, [r0, #2]
10001368:	2b00      	cmp	r3, #0
1000136a:	d10c      	bne.n	10001386 <ph_remove_and_free_node+0x42>
1000136c:	2000      	movs	r0, #0
1000136e:	e056      	b.n	1000141e <ph_remove_and_free_node+0xda>
10001370:	2101      	movs	r1, #1
10001372:	f7ff ffdd 	bl	10001330 <ph_remove_head>
10001376:	2001      	movs	r0, #1
10001378:	e051      	b.n	1000141e <ph_remove_and_free_node+0xda>
1000137a:	4b29      	ldr	r3, [pc, #164]	; (10001420 <ph_remove_and_free_node+0xdc>)
1000137c:	4a29      	ldr	r2, [pc, #164]	; (10001424 <ph_remove_and_free_node+0xe0>)
1000137e:	2169      	movs	r1, #105	; 0x69
10001380:	4829      	ldr	r0, [pc, #164]	; (10001428 <ph_remove_and_free_node+0xe4>)
10001382:	f000 f861 	bl	10001448 <__assert_func>
10001386:	2b00      	cmp	r3, #0
10001388:	d020      	beq.n	100013cc <ph_remove_and_free_node+0x88>
1000138a:	7b22      	ldrb	r2, [r4, #12]
1000138c:	4293      	cmp	r3, r2
1000138e:	d81d      	bhi.n	100013cc <ph_remove_and_free_node+0x88>
10001390:	005a      	lsls	r2, r3, #1
10001392:	18d3      	adds	r3, r2, r3
10001394:	3b03      	subs	r3, #3
10001396:	6822      	ldr	r2, [r4, #0]
10001398:	18d2      	adds	r2, r2, r3
1000139a:	6825      	ldr	r5, [r4, #0]
1000139c:	5ceb      	ldrb	r3, [r5, r3]
1000139e:	428b      	cmp	r3, r1
100013a0:	d01a      	beq.n	100013d8 <ph_remove_and_free_node+0x94>
100013a2:	2b00      	cmp	r3, #0
100013a4:	d01b      	beq.n	100013de <ph_remove_and_free_node+0x9a>
100013a6:	7b22      	ldrb	r2, [r4, #12]
100013a8:	4293      	cmp	r3, r2
100013aa:	d818      	bhi.n	100013de <ph_remove_and_free_node+0x9a>
100013ac:	005a      	lsls	r2, r3, #1
100013ae:	18d3      	adds	r3, r2, r3
100013b0:	3b03      	subs	r3, #3
100013b2:	6822      	ldr	r2, [r4, #0]
100013b4:	18d2      	adds	r2, r2, r3
100013b6:	7853      	ldrb	r3, [r2, #1]
100013b8:	428b      	cmp	r3, r1
100013ba:	d016      	beq.n	100013ea <ph_remove_and_free_node+0xa6>
100013bc:	2b00      	cmp	r3, #0
100013be:	d1f0      	bne.n	100013a2 <ph_remove_and_free_node+0x5e>
100013c0:	4b1a      	ldr	r3, [pc, #104]	; (1000142c <ph_remove_and_free_node+0xe8>)
100013c2:	4a1b      	ldr	r2, [pc, #108]	; (10001430 <ph_remove_and_free_node+0xec>)
100013c4:	2167      	movs	r1, #103	; 0x67
100013c6:	481b      	ldr	r0, [pc, #108]	; (10001434 <ph_remove_and_free_node+0xf0>)
100013c8:	f000 f83e 	bl	10001448 <__assert_func>
100013cc:	4b14      	ldr	r3, [pc, #80]	; (10001420 <ph_remove_and_free_node+0xdc>)
100013ce:	4a15      	ldr	r2, [pc, #84]	; (10001424 <ph_remove_and_free_node+0xe0>)
100013d0:	2169      	movs	r1, #105	; 0x69
100013d2:	4815      	ldr	r0, [pc, #84]	; (10001428 <ph_remove_and_free_node+0xe4>)
100013d4:	f000 f838 	bl	10001448 <__assert_func>
100013d8:	7843      	ldrb	r3, [r0, #1]
100013da:	7013      	strb	r3, [r2, #0]
100013dc:	e007      	b.n	100013ee <ph_remove_and_free_node+0xaa>
100013de:	4b10      	ldr	r3, [pc, #64]	; (10001420 <ph_remove_and_free_node+0xdc>)
100013e0:	4a10      	ldr	r2, [pc, #64]	; (10001424 <ph_remove_and_free_node+0xe0>)
100013e2:	2169      	movs	r1, #105	; 0x69
100013e4:	4810      	ldr	r0, [pc, #64]	; (10001428 <ph_remove_and_free_node+0xe4>)
100013e6:	f000 f82f 	bl	10001448 <__assert_func>
100013ea:	7843      	ldrb	r3, [r0, #1]
100013ec:	7053      	strb	r3, [r2, #1]
100013ee:	2300      	movs	r3, #0
100013f0:	7083      	strb	r3, [r0, #2]
100013f2:	7043      	strb	r3, [r0, #1]
100013f4:	2201      	movs	r2, #1
100013f6:	0020      	movs	r0, r4
100013f8:	f7ff ff16 	bl	10001228 <ph_remove_any_head>
100013fc:	0002      	movs	r2, r0
100013fe:	7b61      	ldrb	r1, [r4, #13]
10001400:	4281      	cmp	r1, r0
10001402:	d005      	beq.n	10001410 <ph_remove_and_free_node+0xcc>
10001404:	0020      	movs	r0, r4
10001406:	f7ff fe5b 	bl	100010c0 <ph_merge_nodes>
1000140a:	7360      	strb	r0, [r4, #13]
1000140c:	2001      	movs	r0, #1
1000140e:	e006      	b.n	1000141e <ph_remove_and_free_node+0xda>
10001410:	4b09      	ldr	r3, [pc, #36]	; (10001438 <ph_remove_and_free_node+0xf4>)
10001412:	4a07      	ldr	r2, [pc, #28]	; (10001430 <ph_remove_and_free_node+0xec>)
10001414:	216d      	movs	r1, #109	; 0x6d
10001416:	4807      	ldr	r0, [pc, #28]	; (10001434 <ph_remove_and_free_node+0xf0>)
10001418:	f000 f816 	bl	10001448 <__assert_func>
1000141c:	2000      	movs	r0, #0
1000141e:	bd70      	pop	{r4, r5, r6, pc}
10001420:	10004558 	.word	0x10004558
10001424:	100049e0 	.word	0x100049e0
10001428:	10004574 	.word	0x10004574
1000142c:	10004978 	.word	0x10004978
10001430:	100049a0 	.word	0x100049a0
10001434:	100048f4 	.word	0x100048f4
10001438:	10004980 	.word	0x10004980

1000143c <_exit>:
1000143c:	be00      	bkpt	0x0000
1000143e:	e7fd      	b.n	1000143c <_exit>

10001440 <exit>:
10001440:	b510      	push	{r4, lr}
10001442:	f7ff fffb 	bl	1000143c <_exit>
	...

10001448 <__assert_func>:
10001448:	b510      	push	{r4, lr}
1000144a:	b082      	sub	sp, #8
1000144c:	000c      	movs	r4, r1
1000144e:	0019      	movs	r1, r3
10001450:	2a00      	cmp	r2, #0
10001452:	d00c      	beq.n	1000146e <__assert_func+0x26>
10001454:	4b08      	ldr	r3, [pc, #32]	; (10001478 <__assert_func+0x30>)
10001456:	2a00      	cmp	r2, #0
10001458:	d00b      	beq.n	10001472 <__assert_func+0x2a>
1000145a:	9201      	str	r2, [sp, #4]
1000145c:	9300      	str	r3, [sp, #0]
1000145e:	0023      	movs	r3, r4
10001460:	0002      	movs	r2, r0
10001462:	4806      	ldr	r0, [pc, #24]	; (1000147c <__assert_func+0x34>)
10001464:	f002 fe00 	bl	10004068 <__wrap_printf>
10001468:	2001      	movs	r0, #1
1000146a:	f7ff ffe7 	bl	1000143c <_exit>
1000146e:	4b04      	ldr	r3, [pc, #16]	; (10001480 <__assert_func+0x38>)
10001470:	e7f1      	b.n	10001456 <__assert_func+0xe>
10001472:	4a03      	ldr	r2, [pc, #12]	; (10001480 <__assert_func+0x38>)
10001474:	e7f1      	b.n	1000145a <__assert_func+0x12>
10001476:	46c0      	nop			; (mov r8, r8)
10001478:	100049ec 	.word	0x100049ec
1000147c:	100049fc 	.word	0x100049fc
10001480:	10004448 	.word	0x10004448

10001484 <runtime_init>:
10001484:	b570      	push	{r4, r5, r6, lr}
10001486:	4b2b      	ldr	r3, [pc, #172]	; (10001534 <runtime_init+0xb0>)
10001488:	4a2b      	ldr	r2, [pc, #172]	; (10001538 <runtime_init+0xb4>)
1000148a:	601a      	str	r2, [r3, #0]
1000148c:	4b2b      	ldr	r3, [pc, #172]	; (1000153c <runtime_init+0xb8>)
1000148e:	4a2c      	ldr	r2, [pc, #176]	; (10001540 <runtime_init+0xbc>)
10001490:	601a      	str	r2, [r3, #0]
10001492:	4b2c      	ldr	r3, [pc, #176]	; (10001544 <runtime_init+0xc0>)
10001494:	689a      	ldr	r2, [r3, #8]
10001496:	4b2a      	ldr	r3, [pc, #168]	; (10001540 <runtime_init+0xbc>)
10001498:	4393      	bics	r3, r2
1000149a:	d1fa      	bne.n	10001492 <runtime_init+0xe>
1000149c:	4c2a      	ldr	r4, [pc, #168]	; (10001548 <runtime_init+0xc4>)
1000149e:	e001      	b.n	100014a4 <runtime_init+0x20>
100014a0:	cc08      	ldmia	r4!, {r3}
100014a2:	4798      	blx	r3
100014a4:	4b29      	ldr	r3, [pc, #164]	; (1000154c <runtime_init+0xc8>)
100014a6:	429c      	cmp	r4, r3
100014a8:	d3fa      	bcc.n	100014a0 <runtime_init+0x1c>
100014aa:	f000 f901 	bl	100016b0 <clocks_init>
100014ae:	4b23      	ldr	r3, [pc, #140]	; (1000153c <runtime_init+0xb8>)
100014b0:	4a27      	ldr	r2, [pc, #156]	; (10001550 <runtime_init+0xcc>)
100014b2:	601a      	str	r2, [r3, #0]
100014b4:	4b23      	ldr	r3, [pc, #140]	; (10001544 <runtime_init+0xc0>)
100014b6:	689b      	ldr	r3, [r3, #8]
100014b8:	43db      	mvns	r3, r3
100014ba:	01db      	lsls	r3, r3, #7
100014bc:	d1fa      	bne.n	100014b4 <runtime_init+0x30>
100014be:	4b25      	ldr	r3, [pc, #148]	; (10001554 <runtime_init+0xd0>)
100014c0:	2240      	movs	r2, #64	; 0x40
100014c2:	679a      	str	r2, [r3, #120]	; 0x78
100014c4:	675a      	str	r2, [r3, #116]	; 0x74
100014c6:	671a      	str	r2, [r3, #112]	; 0x70
100014c8:	66da      	str	r2, [r3, #108]	; 0x6c
100014ca:	4c23      	ldr	r4, [pc, #140]	; (10001558 <runtime_init+0xd4>)
100014cc:	e009      	b.n	100014e2 <runtime_init+0x5e>
100014ce:	4b23      	ldr	r3, [pc, #140]	; (1000155c <runtime_init+0xd8>)
100014d0:	4a23      	ldr	r2, [pc, #140]	; (10001560 <runtime_init+0xdc>)
100014d2:	2183      	movs	r1, #131	; 0x83
100014d4:	4823      	ldr	r0, [pc, #140]	; (10001564 <runtime_init+0xe0>)
100014d6:	f7ff ffb7 	bl	10001448 <__assert_func>
100014da:	0020      	movs	r0, r4
100014dc:	f7ff fd82 	bl	10000fe4 <mutex_init>
100014e0:	3408      	adds	r4, #8
100014e2:	4b21      	ldr	r3, [pc, #132]	; (10001568 <runtime_init+0xe4>)
100014e4:	429c      	cmp	r4, r3
100014e6:	d209      	bcs.n	100014fc <runtime_init+0x78>
100014e8:	6823      	ldr	r3, [r4, #0]
100014ea:	2b00      	cmp	r3, #0
100014ec:	d0f5      	beq.n	100014da <runtime_init+0x56>
100014ee:	2b01      	cmp	r3, #1
100014f0:	d1ed      	bne.n	100014ce <runtime_init+0x4a>
100014f2:	0020      	movs	r0, r4
100014f4:	f7ff fd83 	bl	10000ffe <recursive_mutex_init>
100014f8:	3408      	adds	r4, #8
100014fa:	e7f2      	b.n	100014e2 <runtime_init+0x5e>
100014fc:	4c1b      	ldr	r4, [pc, #108]	; (1000156c <runtime_init+0xe8>)
100014fe:	68a1      	ldr	r1, [r4, #8]
10001500:	4d1b      	ldr	r5, [pc, #108]	; (10001570 <runtime_init+0xec>)
10001502:	22c0      	movs	r2, #192	; 0xc0
10001504:	0028      	movs	r0, r5
10001506:	f002 fc65 	bl	10003dd4 <__wrap___aeabi_memcpy>
1000150a:	60a5      	str	r5, [r4, #8]
1000150c:	f7fe feab 	bl	10000266 <__get_current_exception>
10001510:	2800      	cmp	r0, #0
10001512:	d000      	beq.n	10001516 <runtime_init+0x92>
10001514:	be00      	bkpt	0x0000
10001516:	f7ff f849 	bl	100005ac <spin_locks_reset>
1000151a:	f000 fb41 	bl	10001ba0 <irq_init_priorities>
1000151e:	f7ff fc03 	bl	10000d28 <alarm_pool_init_default>
10001522:	4c14      	ldr	r4, [pc, #80]	; (10001574 <runtime_init+0xf0>)
10001524:	e001      	b.n	1000152a <runtime_init+0xa6>
10001526:	cc08      	ldmia	r4!, {r3}
10001528:	4798      	blx	r3
1000152a:	4b13      	ldr	r3, [pc, #76]	; (10001578 <runtime_init+0xf4>)
1000152c:	429c      	cmp	r4, r3
1000152e:	d3fa      	bcc.n	10001526 <runtime_init+0xa2>
10001530:	bd70      	pop	{r4, r5, r6, pc}
10001532:	46c0      	nop			; (mov r8, r8)
10001534:	4000e000 	.word	0x4000e000
10001538:	fefbcdbf 	.word	0xfefbcdbf
1000153c:	4000f000 	.word	0x4000f000
10001540:	003c7ffe 	.word	0x003c7ffe
10001544:	4000c000 	.word	0x4000c000
10001548:	20000274 	.word	0x20000274
1000154c:	20000284 	.word	0x20000284
10001550:	01ffffff 	.word	0x01ffffff
10001554:	4001f000 	.word	0x4001f000
10001558:	20000264 	.word	0x20000264
1000155c:	10004a2c 	.word	0x10004a2c
10001560:	10004aa4 	.word	0x10004aa4
10001564:	10004a4c 	.word	0x10004a4c
10001568:	20000274 	.word	0x20000274
1000156c:	e000ed00 	.word	0xe000ed00
10001570:	20000000 	.word	0x20000000
10001574:	20000284 	.word	0x20000284
10001578:	20000288 	.word	0x20000288

1000157c <panic>:
1000157c:	b40f      	push	{r0, r1, r2, r3}
1000157e:	b500      	push	{lr}
10001580:	b083      	sub	sp, #12
10001582:	4808      	ldr	r0, [pc, #32]	; (100015a4 <panic+0x28>)
10001584:	f002 fd3e 	bl	10004004 <__wrap_puts>
10001588:	9b04      	ldr	r3, [sp, #16]
1000158a:	2b00      	cmp	r3, #0
1000158c:	d007      	beq.n	1000159e <panic+0x22>
1000158e:	a905      	add	r1, sp, #20
10001590:	9101      	str	r1, [sp, #4]
10001592:	0018      	movs	r0, r3
10001594:	f002 fd46 	bl	10004024 <__wrap_vprintf>
10001598:	4803      	ldr	r0, [pc, #12]	; (100015a8 <panic+0x2c>)
1000159a:	f002 fd33 	bl	10004004 <__wrap_puts>
1000159e:	2001      	movs	r0, #1
100015a0:	f7ff ff4c 	bl	1000143c <_exit>
100015a4:	10004a90 	.word	0x10004a90
100015a8:	10004aa0 	.word	0x10004aa0

100015ac <clock_configure>:
100015ac:	b5f8      	push	{r3, r4, r5, r6, r7, lr}
100015ae:	46de      	mov	lr, fp
100015b0:	4657      	mov	r7, sl
100015b2:	464e      	mov	r6, r9
100015b4:	4645      	mov	r5, r8
100015b6:	b5e0      	push	{r5, r6, r7, lr}
100015b8:	0005      	movs	r5, r0
100015ba:	000f      	movs	r7, r1
100015bc:	4692      	mov	sl, r2
100015be:	9a0a      	ldr	r2, [sp, #40]	; 0x28
100015c0:	4293      	cmp	r3, r2
100015c2:	d34e      	bcc.n	10001662 <clock_configure+0xb6>
100015c4:	0e1a      	lsrs	r2, r3, #24
100015c6:	4691      	mov	r9, r2
100015c8:	021e      	lsls	r6, r3, #8
100015ca:	9a0a      	ldr	r2, [sp, #40]	; 0x28
100015cc:	2300      	movs	r3, #0
100015ce:	0030      	movs	r0, r6
100015d0:	4649      	mov	r1, r9
100015d2:	f001 fcd9 	bl	10002f88 <__wrap___aeabi_uldivmod>
100015d6:	4680      	mov	r8, r0
100015d8:	006c      	lsls	r4, r5, #1
100015da:	1964      	adds	r4, r4, r5
100015dc:	00a4      	lsls	r4, r4, #2
100015de:	4b2f      	ldr	r3, [pc, #188]	; (1000169c <clock_configure+0xf0>)
100015e0:	469c      	mov	ip, r3
100015e2:	4464      	add	r4, ip
100015e4:	6863      	ldr	r3, [r4, #4]
100015e6:	4283      	cmp	r3, r0
100015e8:	d200      	bcs.n	100015ec <clock_configure+0x40>
100015ea:	6060      	str	r0, [r4, #4]
100015ec:	1f2b      	subs	r3, r5, #4
100015ee:	b2db      	uxtb	r3, r3
100015f0:	469b      	mov	fp, r3
100015f2:	2b01      	cmp	r3, #1
100015f4:	d93b      	bls.n	1000166e <clock_configure+0xc2>
100015f6:	23c0      	movs	r3, #192	; 0xc0
100015f8:	019b      	lsls	r3, r3, #6
100015fa:	4323      	orrs	r3, r4
100015fc:	2280      	movs	r2, #128	; 0x80
100015fe:	0112      	lsls	r2, r2, #4
10001600:	601a      	str	r2, [r3, #0]
10001602:	00ab      	lsls	r3, r5, #2
10001604:	4a26      	ldr	r2, [pc, #152]	; (100016a0 <clock_configure+0xf4>)
10001606:	5899      	ldr	r1, [r3, r2]
10001608:	2900      	cmp	r1, #0
1000160a:	d005      	beq.n	10001618 <clock_configure+0x6c>
1000160c:	6950      	ldr	r0, [r2, #20]
1000160e:	f001 fc79 	bl	10002f04 <__wrap___aeabi_uidiv>
10001612:	3001      	adds	r0, #1
10001614:	3801      	subs	r0, #1
10001616:	d1fd      	bne.n	10001614 <clock_configure+0x68>
10001618:	4653      	mov	r3, sl
1000161a:	015a      	lsls	r2, r3, #5
1000161c:	6823      	ldr	r3, [r4, #0]
1000161e:	405a      	eors	r2, r3
10001620:	23e0      	movs	r3, #224	; 0xe0
10001622:	401a      	ands	r2, r3
10001624:	2380      	movs	r3, #128	; 0x80
10001626:	015b      	lsls	r3, r3, #5
10001628:	4323      	orrs	r3, r4
1000162a:	601a      	str	r2, [r3, #0]
1000162c:	465a      	mov	r2, fp
1000162e:	2a01      	cmp	r2, #1
10001630:	d928      	bls.n	10001684 <clock_configure+0xd8>
10001632:	2380      	movs	r3, #128	; 0x80
10001634:	019b      	lsls	r3, r3, #6
10001636:	4323      	orrs	r3, r4
10001638:	2280      	movs	r2, #128	; 0x80
1000163a:	0112      	lsls	r2, r2, #4
1000163c:	601a      	str	r2, [r3, #0]
1000163e:	4643      	mov	r3, r8
10001640:	6063      	str	r3, [r4, #4]
10001642:	4642      	mov	r2, r8
10001644:	2300      	movs	r3, #0
10001646:	0030      	movs	r0, r6
10001648:	4649      	mov	r1, r9
1000164a:	f001 fc9d 	bl	10002f88 <__wrap___aeabi_uldivmod>
1000164e:	00ad      	lsls	r5, r5, #2
10001650:	4b13      	ldr	r3, [pc, #76]	; (100016a0 <clock_configure+0xf4>)
10001652:	5158      	str	r0, [r3, r5]
10001654:	2001      	movs	r0, #1
10001656:	bcf0      	pop	{r4, r5, r6, r7}
10001658:	46bb      	mov	fp, r7
1000165a:	46b2      	mov	sl, r6
1000165c:	46a9      	mov	r9, r5
1000165e:	46a0      	mov	r8, r4
10001660:	bdf8      	pop	{r3, r4, r5, r6, r7, pc}
10001662:	4b10      	ldr	r3, [pc, #64]	; (100016a4 <clock_configure+0xf8>)
10001664:	4a10      	ldr	r2, [pc, #64]	; (100016a8 <clock_configure+0xfc>)
10001666:	212d      	movs	r1, #45	; 0x2d
10001668:	4810      	ldr	r0, [pc, #64]	; (100016ac <clock_configure+0x100>)
1000166a:	f7ff feed 	bl	10001448 <__assert_func>
1000166e:	2f01      	cmp	r7, #1
10001670:	d1c1      	bne.n	100015f6 <clock_configure+0x4a>
10001672:	23c0      	movs	r3, #192	; 0xc0
10001674:	019b      	lsls	r3, r3, #6
10001676:	4323      	orrs	r3, r4
10001678:	2203      	movs	r2, #3
1000167a:	601a      	str	r2, [r3, #0]
1000167c:	68a3      	ldr	r3, [r4, #8]
1000167e:	07db      	lsls	r3, r3, #31
10001680:	d5fc      	bpl.n	1000167c <clock_configure+0xd0>
10001682:	e7c9      	b.n	10001618 <clock_configure+0x6c>
10001684:	6821      	ldr	r1, [r4, #0]
10001686:	4079      	eors	r1, r7
10001688:	2203      	movs	r2, #3
1000168a:	400a      	ands	r2, r1
1000168c:	601a      	str	r2, [r3, #0]
1000168e:	68a2      	ldr	r2, [r4, #8]
10001690:	2301      	movs	r3, #1
10001692:	40bb      	lsls	r3, r7
10001694:	4213      	tst	r3, r2
10001696:	d0fa      	beq.n	1000168e <clock_configure+0xe2>
10001698:	e7cb      	b.n	10001632 <clock_configure+0x86>
1000169a:	46c0      	nop			; (mov r8, r8)
1000169c:	40008000 	.word	0x40008000
100016a0:	200003b4 	.word	0x200003b4
100016a4:	10004ab4 	.word	0x10004ab4
100016a8:	10004b0c 	.word	0x10004b0c
100016ac:	10004ac8 	.word	0x10004ac8

100016b0 <clocks_init>:
100016b0:	b530      	push	{r4, r5, lr}
100016b2:	b083      	sub	sp, #12
100016b4:	200c      	movs	r0, #12
100016b6:	f000 fb0d 	bl	10001cd4 <watchdog_start_tick>
100016ba:	f7fe ff6d 	bl	10000598 <running_on_fpga>
100016be:	2800      	cmp	r0, #0
100016c0:	d00d      	beq.n	100016de <clocks_init+0x2e>
100016c2:	2300      	movs	r3, #0
100016c4:	e004      	b.n	100016d0 <clocks_init+0x20>
100016c6:	0099      	lsls	r1, r3, #2
100016c8:	4a2d      	ldr	r2, [pc, #180]	; (10001780 <clocks_init+0xd0>)
100016ca:	482e      	ldr	r0, [pc, #184]	; (10001784 <clocks_init+0xd4>)
100016cc:	5088      	str	r0, [r1, r2]
100016ce:	3301      	adds	r3, #1
100016d0:	2b09      	cmp	r3, #9
100016d2:	d9f8      	bls.n	100016c6 <clocks_init+0x16>
100016d4:	4b2a      	ldr	r3, [pc, #168]	; (10001780 <clocks_init+0xd0>)
100016d6:	4a2c      	ldr	r2, [pc, #176]	; (10001788 <clocks_init+0xd8>)
100016d8:	625a      	str	r2, [r3, #36]	; 0x24
100016da:	b003      	add	sp, #12
100016dc:	bd30      	pop	{r4, r5, pc}
100016de:	4b2b      	ldr	r3, [pc, #172]	; (1000178c <clocks_init+0xdc>)
100016e0:	2200      	movs	r2, #0
100016e2:	679a      	str	r2, [r3, #120]	; 0x78
100016e4:	f000 fafe 	bl	10001ce4 <xosc_init>
100016e8:	4b29      	ldr	r3, [pc, #164]	; (10001790 <clocks_init+0xe0>)
100016ea:	2201      	movs	r2, #1
100016ec:	601a      	str	r2, [r3, #0]
100016ee:	4b27      	ldr	r3, [pc, #156]	; (1000178c <clocks_init+0xdc>)
100016f0:	6c5b      	ldr	r3, [r3, #68]	; 0x44
100016f2:	2b01      	cmp	r3, #1
100016f4:	d1fb      	bne.n	100016ee <clocks_init+0x3e>
100016f6:	4b27      	ldr	r3, [pc, #156]	; (10001794 <clocks_init+0xe4>)
100016f8:	2203      	movs	r2, #3
100016fa:	601a      	str	r2, [r3, #0]
100016fc:	4b23      	ldr	r3, [pc, #140]	; (1000178c <clocks_init+0xdc>)
100016fe:	6b9b      	ldr	r3, [r3, #56]	; 0x38
10001700:	2b01      	cmp	r3, #1
10001702:	d1fb      	bne.n	100016fc <clocks_init+0x4c>
10001704:	2402      	movs	r4, #2
10001706:	9400      	str	r4, [sp, #0]
10001708:	3305      	adds	r3, #5
1000170a:	4a23      	ldr	r2, [pc, #140]	; (10001798 <clocks_init+0xe8>)
1000170c:	2101      	movs	r1, #1
1000170e:	4823      	ldr	r0, [pc, #140]	; (1000179c <clocks_init+0xec>)
10001710:	f000 fa54 	bl	10001bbc <pll_init>
10001714:	9400      	str	r4, [sp, #0]
10001716:	2305      	movs	r3, #5
10001718:	4a21      	ldr	r2, [pc, #132]	; (100017a0 <clocks_init+0xf0>)
1000171a:	2101      	movs	r1, #1
1000171c:	4821      	ldr	r0, [pc, #132]	; (100017a4 <clocks_init+0xf4>)
1000171e:	f000 fa4d 	bl	10001bbc <pll_init>
10001722:	4b21      	ldr	r3, [pc, #132]	; (100017a8 <clocks_init+0xf8>)
10001724:	9300      	str	r3, [sp, #0]
10001726:	2200      	movs	r2, #0
10001728:	2102      	movs	r1, #2
1000172a:	2004      	movs	r0, #4
1000172c:	f7ff ff3e 	bl	100015ac <clock_configure>
10001730:	4d1e      	ldr	r5, [pc, #120]	; (100017ac <clocks_init+0xfc>)
10001732:	9500      	str	r5, [sp, #0]
10001734:	002b      	movs	r3, r5
10001736:	2200      	movs	r2, #0
10001738:	2101      	movs	r1, #1
1000173a:	2005      	movs	r0, #5
1000173c:	f7ff ff36 	bl	100015ac <clock_configure>
10001740:	4c10      	ldr	r4, [pc, #64]	; (10001784 <clocks_init+0xd4>)
10001742:	9400      	str	r4, [sp, #0]
10001744:	0023      	movs	r3, r4
10001746:	2200      	movs	r2, #0
10001748:	2100      	movs	r1, #0
1000174a:	2007      	movs	r0, #7
1000174c:	f7ff ff2e 	bl	100015ac <clock_configure>
10001750:	9400      	str	r4, [sp, #0]
10001752:	0023      	movs	r3, r4
10001754:	2200      	movs	r2, #0
10001756:	2100      	movs	r1, #0
10001758:	2008      	movs	r0, #8
1000175a:	f7ff ff27 	bl	100015ac <clock_configure>
1000175e:	4b0a      	ldr	r3, [pc, #40]	; (10001788 <clocks_init+0xd8>)
10001760:	9300      	str	r3, [sp, #0]
10001762:	0023      	movs	r3, r4
10001764:	2200      	movs	r2, #0
10001766:	2100      	movs	r1, #0
10001768:	2009      	movs	r0, #9
1000176a:	f7ff ff1f 	bl	100015ac <clock_configure>
1000176e:	9500      	str	r5, [sp, #0]
10001770:	002b      	movs	r3, r5
10001772:	2200      	movs	r2, #0
10001774:	2100      	movs	r1, #0
10001776:	2006      	movs	r0, #6
10001778:	f7ff ff18 	bl	100015ac <clock_configure>
1000177c:	e7ad      	b.n	100016da <clocks_init+0x2a>
1000177e:	46c0      	nop			; (mov r8, r8)
10001780:	200003b4 	.word	0x200003b4
10001784:	02dc6c00 	.word	0x02dc6c00
10001788:	0000b71b 	.word	0x0000b71b
1000178c:	40008000 	.word	0x40008000
10001790:	4000b03c 	.word	0x4000b03c
10001794:	4000b030 	.word	0x4000b030
10001798:	59682f00 	.word	0x59682f00
1000179c:	40028000 	.word	0x40028000
100017a0:	1c9c3800 	.word	0x1c9c3800
100017a4:	4002c000 	.word	0x4002c000
100017a8:	00b71b00 	.word	0x00b71b00
100017ac:	07735940 	.word	0x07735940

100017b0 <clock_get_hz>:
100017b0:	0080      	lsls	r0, r0, #2
100017b2:	4b01      	ldr	r3, [pc, #4]	; (100017b8 <clock_get_hz+0x8>)
100017b4:	58c0      	ldr	r0, [r0, r3]
100017b6:	4770      	bx	lr
100017b8:	200003b4 	.word	0x200003b4

100017bc <set_raw_irq_handler_and_unlock>:
100017bc:	4b07      	ldr	r3, [pc, #28]	; (100017dc <set_raw_irq_handler_and_unlock+0x20>)
100017be:	689b      	ldr	r3, [r3, #8]
100017c0:	3010      	adds	r0, #16
100017c2:	0080      	lsls	r0, r0, #2
100017c4:	5019      	str	r1, [r3, r0]
100017c6:	f3bf 8f5f 	dmb	sy
100017ca:	f3bf 8f5f 	dmb	sy
100017ce:	4b04      	ldr	r3, [pc, #16]	; (100017e0 <set_raw_irq_handler_and_unlock+0x24>)
100017d0:	2100      	movs	r1, #0
100017d2:	6019      	str	r1, [r3, #0]
100017d4:	f382 8810 	msr	PRIMASK, r2
100017d8:	4770      	bx	lr
100017da:	46c0      	nop			; (mov r8, r8)
100017dc:	e000ed00 	.word	0xe000ed00
100017e0:	d0000124 	.word	0xd0000124

100017e4 <make_branch>:
100017e4:	b510      	push	{r4, lr}
100017e6:	1a09      	subs	r1, r1, r0
100017e8:	3904      	subs	r1, #4
100017ea:	0848      	lsrs	r0, r1, #1
100017ec:	0b09      	lsrs	r1, r1, #12
100017ee:	d105      	bne.n	100017fc <make_branch+0x18>
100017f0:	0540      	lsls	r0, r0, #21
100017f2:	0d40      	lsrs	r0, r0, #21
100017f4:	4b04      	ldr	r3, [pc, #16]	; (10001808 <make_branch+0x24>)
100017f6:	4318      	orrs	r0, r3
100017f8:	b280      	uxth	r0, r0
100017fa:	bd10      	pop	{r4, pc}
100017fc:	4b03      	ldr	r3, [pc, #12]	; (1000180c <make_branch+0x28>)
100017fe:	4a04      	ldr	r2, [pc, #16]	; (10001810 <make_branch+0x2c>)
10001800:	218b      	movs	r1, #139	; 0x8b
10001802:	4804      	ldr	r0, [pc, #16]	; (10001814 <make_branch+0x30>)
10001804:	f7ff fe20 	bl	10001448 <__assert_func>
10001808:	ffffe000 	.word	0xffffe000
1000180c:	10004b1c 	.word	0x10004b1c
10001810:	10004d28 	.word	0x10004d28
10001814:	10004b2c 	.word	0x10004b2c

10001818 <insert_branch_and_link>:
10001818:	b510      	push	{r4, lr}
1000181a:	1a09      	subs	r1, r1, r0
1000181c:	3904      	subs	r1, #4
1000181e:	084c      	lsrs	r4, r1, #1
10001820:	0b09      	lsrs	r1, r1, #12
10001822:	d108      	bne.n	10001836 <insert_branch_and_link+0x1e>
10001824:	0549      	lsls	r1, r1, #21
10001826:	0d49      	lsrs	r1, r1, #21
10001828:	4a06      	ldr	r2, [pc, #24]	; (10001844 <insert_branch_and_link+0x2c>)
1000182a:	4311      	orrs	r1, r2
1000182c:	8001      	strh	r1, [r0, #0]
1000182e:	4b06      	ldr	r3, [pc, #24]	; (10001848 <insert_branch_and_link+0x30>)
10001830:	4323      	orrs	r3, r4
10001832:	8043      	strh	r3, [r0, #2]
10001834:	bd10      	pop	{r4, pc}
10001836:	4b05      	ldr	r3, [pc, #20]	; (1000184c <insert_branch_and_link+0x34>)
10001838:	4a05      	ldr	r2, [pc, #20]	; (10001850 <insert_branch_and_link+0x38>)
1000183a:	2193      	movs	r1, #147	; 0x93
1000183c:	4805      	ldr	r0, [pc, #20]	; (10001854 <insert_branch_and_link+0x3c>)
1000183e:	f7ff fe03 	bl	10001448 <__assert_func>
10001842:	46c0      	nop			; (mov r8, r8)
10001844:	fffff000 	.word	0xfffff000
10001848:	fffff800 	.word	0xfffff800
1000184c:	10004b1c 	.word	0x10004b1c
10001850:	10004cfc 	.word	0x10004cfc
10001854:	10004b2c 	.word	0x10004b2c

10001858 <irq_is_enabled>:
10001858:	2301      	movs	r3, #1
1000185a:	4083      	lsls	r3, r0
1000185c:	4a03      	ldr	r2, [pc, #12]	; (1000186c <irq_is_enabled+0x14>)
1000185e:	6810      	ldr	r0, [r2, #0]
10001860:	4018      	ands	r0, r3
10001862:	1e43      	subs	r3, r0, #1
10001864:	4198      	sbcs	r0, r3
10001866:	b2c0      	uxtb	r0, r0
10001868:	4770      	bx	lr
1000186a:	46c0      	nop			; (mov r8, r8)
1000186c:	e000e100 	.word	0xe000e100

10001870 <irq_set_mask_enabled>:
10001870:	2900      	cmp	r1, #0
10001872:	d004      	beq.n	1000187e <irq_set_mask_enabled+0xe>
10001874:	4b03      	ldr	r3, [pc, #12]	; (10001884 <irq_set_mask_enabled+0x14>)
10001876:	6018      	str	r0, [r3, #0]
10001878:	4b03      	ldr	r3, [pc, #12]	; (10001888 <irq_set_mask_enabled+0x18>)
1000187a:	6018      	str	r0, [r3, #0]
1000187c:	4770      	bx	lr
1000187e:	4b03      	ldr	r3, [pc, #12]	; (1000188c <irq_set_mask_enabled+0x1c>)
10001880:	6018      	str	r0, [r3, #0]
10001882:	e7fb      	b.n	1000187c <irq_set_mask_enabled+0xc>
10001884:	e000e280 	.word	0xe000e280
10001888:	e000e100 	.word	0xe000e100
1000188c:	e000e180 	.word	0xe000e180

10001890 <irq_set_enabled>:
10001890:	b510      	push	{r4, lr}
10001892:	2301      	movs	r3, #1
10001894:	4083      	lsls	r3, r0
10001896:	0018      	movs	r0, r3
10001898:	f7ff ffea 	bl	10001870 <irq_set_mask_enabled>
1000189c:	bd10      	pop	{r4, pc}
	...

100018a0 <irq_get_vtable_handler>:
100018a0:	4b02      	ldr	r3, [pc, #8]	; (100018ac <irq_get_vtable_handler+0xc>)
100018a2:	689b      	ldr	r3, [r3, #8]
100018a4:	3010      	adds	r0, #16
100018a6:	0080      	lsls	r0, r0, #2
100018a8:	58c0      	ldr	r0, [r0, r3]
100018aa:	4770      	bx	lr
100018ac:	e000ed00 	.word	0xe000ed00

100018b0 <irq_set_exclusive_handler>:
100018b0:	b570      	push	{r4, r5, r6, lr}
100018b2:	0004      	movs	r4, r0
100018b4:	000d      	movs	r5, r1
100018b6:	f3ef 8610 	mrs	r6, PRIMASK
100018ba:	b672      	cpsid	i
100018bc:	4b0c      	ldr	r3, [pc, #48]	; (100018f0 <irq_set_exclusive_handler+0x40>)
100018be:	681b      	ldr	r3, [r3, #0]
100018c0:	2b00      	cmp	r3, #0
100018c2:	d0fb      	beq.n	100018bc <irq_set_exclusive_handler+0xc>
100018c4:	f3bf 8f5f 	dmb	sy
100018c8:	0020      	movs	r0, r4
100018ca:	f7ff ffe9 	bl	100018a0 <irq_get_vtable_handler>
100018ce:	4b09      	ldr	r3, [pc, #36]	; (100018f4 <irq_set_exclusive_handler+0x44>)
100018d0:	4298      	cmp	r0, r3
100018d2:	d001      	beq.n	100018d8 <irq_set_exclusive_handler+0x28>
100018d4:	42a8      	cmp	r0, r5
100018d6:	d105      	bne.n	100018e4 <irq_set_exclusive_handler+0x34>
100018d8:	0032      	movs	r2, r6
100018da:	0029      	movs	r1, r5
100018dc:	0020      	movs	r0, r4
100018de:	f7ff ff6d 	bl	100017bc <set_raw_irq_handler_and_unlock>
100018e2:	bd70      	pop	{r4, r5, r6, pc}
100018e4:	4b04      	ldr	r3, [pc, #16]	; (100018f8 <irq_set_exclusive_handler+0x48>)
100018e6:	4a05      	ldr	r2, [pc, #20]	; (100018fc <irq_set_exclusive_handler+0x4c>)
100018e8:	216e      	movs	r1, #110	; 0x6e
100018ea:	4805      	ldr	r0, [pc, #20]	; (10001900 <irq_set_exclusive_handler+0x50>)
100018ec:	f7ff fdac 	bl	10001448 <__assert_func>
100018f0:	d0000124 	.word	0xd0000124
100018f4:	100001cd 	.word	0x100001cd
100018f8:	10004b6c 	.word	0x10004b6c
100018fc:	10004d44 	.word	0x10004d44
10001900:	10004b2c 	.word	0x10004b2c

10001904 <irq_remove_handler>:
10001904:	b5f0      	push	{r4, r5, r6, r7, lr}
10001906:	46ce      	mov	lr, r9
10001908:	4647      	mov	r7, r8
1000190a:	b580      	push	{r7, lr}
1000190c:	b083      	sub	sp, #12
1000190e:	0006      	movs	r6, r0
10001910:	000d      	movs	r5, r1
10001912:	f3ef 8810 	mrs	r8, PRIMASK
10001916:	b672      	cpsid	i
10001918:	4b57      	ldr	r3, [pc, #348]	; (10001a78 <irq_remove_handler+0x174>)
1000191a:	681b      	ldr	r3, [r3, #0]
1000191c:	2b00      	cmp	r3, #0
1000191e:	d0fb      	beq.n	10001918 <irq_remove_handler+0x14>
10001920:	f3bf 8f5f 	dmb	sy
10001924:	4b55      	ldr	r3, [pc, #340]	; (10001a7c <irq_remove_handler+0x178>)
10001926:	689a      	ldr	r2, [r3, #8]
10001928:	0034      	movs	r4, r6
1000192a:	3410      	adds	r4, #16
1000192c:	00a3      	lsls	r3, r4, #2
1000192e:	58d7      	ldr	r7, [r2, r3]
10001930:	4b53      	ldr	r3, [pc, #332]	; (10001a80 <irq_remove_handler+0x17c>)
10001932:	429f      	cmp	r7, r3
10001934:	d007      	beq.n	10001946 <irq_remove_handler+0x42>
10001936:	42af      	cmp	r7, r5
10001938:	d100      	bne.n	1000193c <irq_remove_handler+0x38>
1000193a:	e09b      	b.n	10001a74 <irq_remove_handler+0x170>
1000193c:	9701      	str	r7, [sp, #4]
1000193e:	4b51      	ldr	r3, [pc, #324]	; (10001a84 <irq_remove_handler+0x180>)
10001940:	1afb      	subs	r3, r7, r3
10001942:	2b2f      	cmp	r3, #47	; 0x2f
10001944:	d909      	bls.n	1000195a <irq_remove_handler+0x56>
10001946:	4642      	mov	r2, r8
10001948:	0039      	movs	r1, r7
1000194a:	0030      	movs	r0, r6
1000194c:	f7ff ff36 	bl	100017bc <set_raw_irq_handler_and_unlock>
10001950:	b003      	add	sp, #12
10001952:	bcc0      	pop	{r6, r7}
10001954:	46b9      	mov	r9, r7
10001956:	46b0      	mov	r8, r6
10001958:	bdf0      	pop	{r4, r5, r6, r7, pc}
1000195a:	0030      	movs	r0, r6
1000195c:	f7ff ff7c 	bl	10001858 <irq_is_enabled>
10001960:	4681      	mov	r9, r0
10001962:	2100      	movs	r1, #0
10001964:	0030      	movs	r0, r6
10001966:	f7ff ff93 	bl	10001890 <irq_set_enabled>
1000196a:	f3bf 8f5f 	dmb	sy
1000196e:	f7fe fc7a 	bl	10000266 <__get_current_exception>
10001972:	2800      	cmp	r0, #0
10001974:	d001      	beq.n	1000197a <irq_remove_handler+0x76>
10001976:	4284      	cmp	r4, r0
10001978:	d119      	bne.n	100019ae <irq_remove_handler+0xaa>
1000197a:	2301      	movs	r3, #1
1000197c:	9c01      	ldr	r4, [sp, #4]
1000197e:	439c      	bics	r4, r3
10001980:	4941      	ldr	r1, [pc, #260]	; (10001a88 <irq_remove_handler+0x184>)
10001982:	0023      	movs	r3, r4
10001984:	4a3f      	ldr	r2, [pc, #252]	; (10001a84 <irq_remove_handler+0x180>)
10001986:	1a9b      	subs	r3, r3, r2
10001988:	415b      	adcs	r3, r3
1000198a:	4359      	muls	r1, r3
1000198c:	0d09      	lsrs	r1, r1, #20
1000198e:	b249      	sxtb	r1, r1
10001990:	2200      	movs	r2, #0
10001992:	68a3      	ldr	r3, [r4, #8]
10001994:	42ab      	cmp	r3, r5
10001996:	d012      	beq.n	100019be <irq_remove_handler+0xba>
10001998:	2206      	movs	r2, #6
1000199a:	56a2      	ldrsb	r2, [r4, r2]
1000199c:	2a00      	cmp	r2, #0
1000199e:	db0d      	blt.n	100019bc <irq_remove_handler+0xb8>
100019a0:	0053      	lsls	r3, r2, #1
100019a2:	189b      	adds	r3, r3, r2
100019a4:	009b      	lsls	r3, r3, #2
100019a6:	0022      	movs	r2, r4
100019a8:	4c36      	ldr	r4, [pc, #216]	; (10001a84 <irq_remove_handler+0x180>)
100019aa:	18e4      	adds	r4, r4, r3
100019ac:	e7f1      	b.n	10001992 <irq_remove_handler+0x8e>
100019ae:	211e      	movs	r1, #30
100019b0:	4b36      	ldr	r3, [pc, #216]	; (10001a8c <irq_remove_handler+0x188>)
100019b2:	4a37      	ldr	r2, [pc, #220]	; (10001a90 <irq_remove_handler+0x18c>)
100019b4:	31ff      	adds	r1, #255	; 0xff
100019b6:	4837      	ldr	r0, [pc, #220]	; (10001a94 <irq_remove_handler+0x190>)
100019b8:	f7ff fd46 	bl	10001448 <__assert_func>
100019bc:	0022      	movs	r2, r4
100019be:	42ab      	cmp	r3, r5
100019c0:	d151      	bne.n	10001a66 <irq_remove_handler+0x162>
100019c2:	2506      	movs	r5, #6
100019c4:	5765      	ldrsb	r5, [r4, r5]
100019c6:	2d00      	cmp	r5, #0
100019c8:	db39      	blt.n	10001a3e <irq_remove_handler+0x13a>
100019ca:	006b      	lsls	r3, r5, #1
100019cc:	195b      	adds	r3, r3, r5
100019ce:	009a      	lsls	r2, r3, #2
100019d0:	4b2c      	ldr	r3, [pc, #176]	; (10001a84 <irq_remove_handler+0x180>)
100019d2:	189b      	adds	r3, r3, r2
100019d4:	689a      	ldr	r2, [r3, #8]
100019d6:	60a2      	str	r2, [r4, #8]
100019d8:	79da      	ldrb	r2, [r3, #7]
100019da:	71e2      	strb	r2, [r4, #7]
100019dc:	2206      	movs	r2, #6
100019de:	569a      	ldrsb	r2, [r3, r2]
100019e0:	71a2      	strb	r2, [r4, #6]
100019e2:	799b      	ldrb	r3, [r3, #6]
100019e4:	b25b      	sxtb	r3, r3
100019e6:	2b00      	cmp	r3, #0
100019e8:	da10      	bge.n	10001a0c <irq_remove_handler+0x108>
100019ea:	20bd      	movs	r0, #189	; 0xbd
100019ec:	0200      	lsls	r0, r0, #8
100019ee:	80a0      	strh	r0, [r4, #4]
100019f0:	006b      	lsls	r3, r5, #1
100019f2:	195b      	adds	r3, r3, r5
100019f4:	009b      	lsls	r3, r3, #2
100019f6:	4a23      	ldr	r2, [pc, #140]	; (10001a84 <irq_remove_handler+0x180>)
100019f8:	18d3      	adds	r3, r2, r3
100019fa:	4a27      	ldr	r2, [pc, #156]	; (10001a98 <irq_remove_handler+0x194>)
100019fc:	7811      	ldrb	r1, [r2, #0]
100019fe:	7199      	strb	r1, [r3, #6]
10001a00:	7015      	strb	r5, [r2, #0]
10001a02:	4649      	mov	r1, r9
10001a04:	0030      	movs	r0, r6
10001a06:	f7ff ff43 	bl	10001890 <irq_set_enabled>
10001a0a:	e79c      	b.n	10001946 <irq_remove_handler+0x42>
10001a0c:	1d20      	adds	r0, r4, #4
10001a0e:	006b      	lsls	r3, r5, #1
10001a10:	195b      	adds	r3, r3, r5
10001a12:	009b      	lsls	r3, r3, #2
10001a14:	4a1b      	ldr	r2, [pc, #108]	; (10001a84 <irq_remove_handler+0x180>)
10001a16:	189b      	adds	r3, r3, r2
10001a18:	1d1a      	adds	r2, r3, #4
10001a1a:	889b      	ldrh	r3, [r3, #4]
10001a1c:	0ad9      	lsrs	r1, r3, #11
10001a1e:	291c      	cmp	r1, #28
10001a20:	d107      	bne.n	10001a32 <irq_remove_handler+0x12e>
10001a22:	055b      	lsls	r3, r3, #21
10001a24:	155b      	asrs	r3, r3, #21
10001a26:	3302      	adds	r3, #2
10001a28:	0059      	lsls	r1, r3, #1
10001a2a:	1851      	adds	r1, r2, r1
10001a2c:	f7ff feda 	bl	100017e4 <make_branch>
10001a30:	e7dd      	b.n	100019ee <irq_remove_handler+0xea>
10001a32:	4b1a      	ldr	r3, [pc, #104]	; (10001a9c <irq_remove_handler+0x198>)
10001a34:	4a1a      	ldr	r2, [pc, #104]	; (10001aa0 <irq_remove_handler+0x19c>)
10001a36:	2199      	movs	r1, #153	; 0x99
10001a38:	4816      	ldr	r0, [pc, #88]	; (10001a94 <irq_remove_handler+0x190>)
10001a3a:	f7ff fd05 	bl	10001448 <__assert_func>
10001a3e:	2800      	cmp	r0, #0
10001a40:	d10c      	bne.n	10001a5c <irq_remove_handler+0x158>
10001a42:	2a00      	cmp	r2, #0
10001a44:	d008      	beq.n	10001a58 <irq_remove_handler+0x154>
10001a46:	23ff      	movs	r3, #255	; 0xff
10001a48:	7193      	strb	r3, [r2, #6]
10001a4a:	4b16      	ldr	r3, [pc, #88]	; (10001aa4 <irq_remove_handler+0x1a0>)
10001a4c:	8093      	strh	r3, [r2, #4]
10001a4e:	4b12      	ldr	r3, [pc, #72]	; (10001a98 <irq_remove_handler+0x194>)
10001a50:	781a      	ldrb	r2, [r3, #0]
10001a52:	71a2      	strb	r2, [r4, #6]
10001a54:	7019      	strb	r1, [r3, #0]
10001a56:	e7d4      	b.n	10001a02 <irq_remove_handler+0xfe>
10001a58:	4f09      	ldr	r7, [pc, #36]	; (10001a80 <irq_remove_handler+0x17c>)
10001a5a:	e7f8      	b.n	10001a4e <irq_remove_handler+0x14a>
10001a5c:	1d20      	adds	r0, r4, #4
10001a5e:	4912      	ldr	r1, [pc, #72]	; (10001aa8 <irq_remove_handler+0x1a4>)
10001a60:	f7ff feda 	bl	10001818 <insert_branch_and_link>
10001a64:	e7cd      	b.n	10001a02 <irq_remove_handler+0xfe>
10001a66:	21a9      	movs	r1, #169	; 0xa9
10001a68:	4b10      	ldr	r3, [pc, #64]	; (10001aac <irq_remove_handler+0x1a8>)
10001a6a:	4a09      	ldr	r2, [pc, #36]	; (10001a90 <irq_remove_handler+0x18c>)
10001a6c:	0049      	lsls	r1, r1, #1
10001a6e:	4809      	ldr	r0, [pc, #36]	; (10001a94 <irq_remove_handler+0x190>)
10001a70:	f7ff fcea 	bl	10001448 <__assert_func>
10001a74:	4f02      	ldr	r7, [pc, #8]	; (10001a80 <irq_remove_handler+0x17c>)
10001a76:	e766      	b.n	10001946 <irq_remove_handler+0x42>
10001a78:	d0000124 	.word	0xd0000124
10001a7c:	e000ed00 	.word	0xe000ed00
10001a80:	100001cd 	.word	0x100001cd
10001a84:	200001dc 	.word	0x200001dc
10001a88:	0000aaaa 	.word	0x0000aaaa
10001a8c:	10004c80 	.word	0x10004c80
10001a90:	10004d14 	.word	0x10004d14
10001a94:	10004b2c 	.word	0x10004b2c
10001a98:	20000655 	.word	0x20000655
10001a9c:	10004c68 	.word	0x10004c68
10001aa0:	10004d34 	.word	0x10004d34
10001aa4:	ffffbd00 	.word	0xffffbd00
10001aa8:	20000216 	.word	0x20000216
10001aac:	10004ca4 	.word	0x10004ca4

10001ab0 <irq_add_tail_to_free_list>:
10001ab0:	b570      	push	{r4, r5, r6, lr}
10001ab2:	0004      	movs	r4, r0
10001ab4:	2601      	movs	r6, #1
10001ab6:	4306      	orrs	r6, r0
10001ab8:	4b2d      	ldr	r3, [pc, #180]	; (10001b70 <irq_add_tail_to_free_list+0xc0>)
10001aba:	1af3      	subs	r3, r6, r3
10001abc:	2b2f      	cmp	r3, #47	; 0x2f
10001abe:	d828      	bhi.n	10001b12 <irq_add_tail_to_free_list+0x62>
10001ac0:	f7fe fbd1 	bl	10000266 <__get_current_exception>
10001ac4:	2800      	cmp	r0, #0
10001ac6:	d02b      	beq.n	10001b20 <irq_add_tail_to_free_list+0x70>
10001ac8:	f3ef 8c10 	mrs	ip, PRIMASK
10001acc:	b672      	cpsid	i
10001ace:	4b29      	ldr	r3, [pc, #164]	; (10001b74 <irq_add_tail_to_free_list+0xc4>)
10001ad0:	681b      	ldr	r3, [r3, #0]
10001ad2:	2b00      	cmp	r3, #0
10001ad4:	d0fb      	beq.n	10001ace <irq_add_tail_to_free_list+0x1e>
10001ad6:	f3bf 8f5f 	dmb	sy
10001ada:	4d27      	ldr	r5, [pc, #156]	; (10001b78 <irq_add_tail_to_free_list+0xc8>)
10001adc:	0022      	movs	r2, r4
10001ade:	4924      	ldr	r1, [pc, #144]	; (10001b70 <irq_add_tail_to_free_list+0xc0>)
10001ae0:	1a52      	subs	r2, r2, r1
10001ae2:	4152      	adcs	r2, r2
10001ae4:	4355      	muls	r5, r2
10001ae6:	0d2d      	lsrs	r5, r5, #20
10001ae8:	b26d      	sxtb	r5, r5
10001aea:	4b24      	ldr	r3, [pc, #144]	; (10001b7c <irq_add_tail_to_free_list+0xcc>)
10001aec:	689b      	ldr	r3, [r3, #8]
10001aee:	0080      	lsls	r0, r0, #2
10001af0:	581b      	ldr	r3, [r3, r0]
10001af2:	42b3      	cmp	r3, r6
10001af4:	d01b      	beq.n	10001b2e <irq_add_tail_to_free_list+0x7e>
10001af6:	2200      	movs	r2, #0
10001af8:	2a03      	cmp	r2, #3
10001afa:	d832      	bhi.n	10001b62 <irq_add_tail_to_free_list+0xb2>
10001afc:	0053      	lsls	r3, r2, #1
10001afe:	189b      	adds	r3, r3, r2
10001b00:	009b      	lsls	r3, r3, #2
10001b02:	491b      	ldr	r1, [pc, #108]	; (10001b70 <irq_add_tail_to_free_list+0xc0>)
10001b04:	18cb      	adds	r3, r1, r3
10001b06:	799b      	ldrb	r3, [r3, #6]
10001b08:	b25b      	sxtb	r3, r3
10001b0a:	42ab      	cmp	r3, r5
10001b0c:	d01f      	beq.n	10001b4e <irq_add_tail_to_free_list+0x9e>
10001b0e:	3201      	adds	r2, #1
10001b10:	e7f2      	b.n	10001af8 <irq_add_tail_to_free_list+0x48>
10001b12:	2178      	movs	r1, #120	; 0x78
10001b14:	4b1a      	ldr	r3, [pc, #104]	; (10001b80 <irq_add_tail_to_free_list+0xd0>)
10001b16:	4a1b      	ldr	r2, [pc, #108]	; (10001b84 <irq_add_tail_to_free_list+0xd4>)
10001b18:	31ff      	adds	r1, #255	; 0xff
10001b1a:	481b      	ldr	r0, [pc, #108]	; (10001b88 <irq_add_tail_to_free_list+0xd8>)
10001b1c:	f7ff fc94 	bl	10001448 <__assert_func>
10001b20:	21bd      	movs	r1, #189	; 0xbd
10001b22:	4b1a      	ldr	r3, [pc, #104]	; (10001b8c <irq_add_tail_to_free_list+0xdc>)
10001b24:	4a17      	ldr	r2, [pc, #92]	; (10001b84 <irq_add_tail_to_free_list+0xd4>)
10001b26:	0049      	lsls	r1, r1, #1
10001b28:	4817      	ldr	r0, [pc, #92]	; (10001b88 <irq_add_tail_to_free_list+0xd8>)
10001b2a:	f7ff fc8d 	bl	10001448 <__assert_func>
10001b2e:	4b13      	ldr	r3, [pc, #76]	; (10001b7c <irq_add_tail_to_free_list+0xcc>)
10001b30:	689b      	ldr	r3, [r3, #8]
10001b32:	4a17      	ldr	r2, [pc, #92]	; (10001b90 <irq_add_tail_to_free_list+0xe0>)
10001b34:	501a      	str	r2, [r3, r0]
10001b36:	4b17      	ldr	r3, [pc, #92]	; (10001b94 <irq_add_tail_to_free_list+0xe4>)
10001b38:	781a      	ldrb	r2, [r3, #0]
10001b3a:	71a2      	strb	r2, [r4, #6]
10001b3c:	701d      	strb	r5, [r3, #0]
10001b3e:	f3bf 8f5f 	dmb	sy
10001b42:	4b0c      	ldr	r3, [pc, #48]	; (10001b74 <irq_add_tail_to_free_list+0xc4>)
10001b44:	2200      	movs	r2, #0
10001b46:	601a      	str	r2, [r3, #0]
10001b48:	f38c 8810 	msr	PRIMASK, ip
10001b4c:	bd70      	pop	{r4, r5, r6, pc}
10001b4e:	0008      	movs	r0, r1
10001b50:	0053      	lsls	r3, r2, #1
10001b52:	1899      	adds	r1, r3, r2
10001b54:	0089      	lsls	r1, r1, #2
10001b56:	1841      	adds	r1, r0, r1
10001b58:	26ff      	movs	r6, #255	; 0xff
10001b5a:	718e      	strb	r6, [r1, #6]
10001b5c:	4a0e      	ldr	r2, [pc, #56]	; (10001b98 <irq_add_tail_to_free_list+0xe8>)
10001b5e:	808a      	strh	r2, [r1, #4]
10001b60:	e7e9      	b.n	10001b36 <irq_add_tail_to_free_list+0x86>
10001b62:	218c      	movs	r1, #140	; 0x8c
10001b64:	4b0d      	ldr	r3, [pc, #52]	; (10001b9c <irq_add_tail_to_free_list+0xec>)
10001b66:	4a07      	ldr	r2, [pc, #28]	; (10001b84 <irq_add_tail_to_free_list+0xd4>)
10001b68:	31ff      	adds	r1, #255	; 0xff
10001b6a:	4807      	ldr	r0, [pc, #28]	; (10001b88 <irq_add_tail_to_free_list+0xd8>)
10001b6c:	f7ff fc6c 	bl	10001448 <__assert_func>
10001b70:	200001dc 	.word	0x200001dc
10001b74:	d0000124 	.word	0xd0000124
10001b78:	0000aaaa 	.word	0x0000aaaa
10001b7c:	e000ed00 	.word	0xe000ed00
10001b80:	10004cac 	.word	0x10004cac
10001b84:	10004ce0 	.word	0x10004ce0
10001b88:	10004b2c 	.word	0x10004b2c
10001b8c:	10004cd4 	.word	0x10004cd4
10001b90:	100001cd 	.word	0x100001cd
10001b94:	20000655 	.word	0x20000655
10001b98:	ffffbd00 	.word	0xffffbd00
10001b9c:	10004978 	.word	0x10004978

10001ba0 <irq_init_priorities>:
10001ba0:	2200      	movs	r2, #0
10001ba2:	4b04      	ldr	r3, [pc, #16]	; (10001bb4 <irq_init_priorities+0x14>)
10001ba4:	e002      	b.n	10001bac <irq_init_priorities+0xc>
10001ba6:	4904      	ldr	r1, [pc, #16]	; (10001bb8 <irq_init_priorities+0x18>)
10001ba8:	c302      	stmia	r3!, {r1}
10001baa:	3201      	adds	r2, #1
10001bac:	2a07      	cmp	r2, #7
10001bae:	d9fa      	bls.n	10001ba6 <irq_init_priorities+0x6>
10001bb0:	4770      	bx	lr
10001bb2:	46c0      	nop			; (mov r8, r8)
10001bb4:	e000e400 	.word	0xe000e400
10001bb8:	80808080 	.word	0x80808080

10001bbc <pll_init>:
10001bbc:	b5f0      	push	{r4, r5, r6, r7, lr}
10001bbe:	46ce      	mov	lr, r9
10001bc0:	b500      	push	{lr}
10001bc2:	0004      	movs	r4, r0
10001bc4:	000e      	movs	r6, r1
10001bc6:	4691      	mov	r9, r2
10001bc8:	001f      	movs	r7, r3
10001bca:	200c      	movs	r0, #12
10001bcc:	f001 f99a 	bl	10002f04 <__wrap___aeabi_uidiv>
10001bd0:	0005      	movs	r5, r0
10001bd2:	0143      	lsls	r3, r0, #5
10001bd4:	1a1b      	subs	r3, r3, r0
10001bd6:	0199      	lsls	r1, r3, #6
10001bd8:	1ac9      	subs	r1, r1, r3
10001bda:	00c9      	lsls	r1, r1, #3
10001bdc:	1809      	adds	r1, r1, r0
10001bde:	0189      	lsls	r1, r1, #6
10001be0:	4648      	mov	r0, r9
10001be2:	f001 f98f 	bl	10002f04 <__wrap___aeabi_uidiv>
10001be6:	0002      	movs	r2, r0
10001be8:	3a10      	subs	r2, #16
10001bea:	2398      	movs	r3, #152	; 0x98
10001bec:	005b      	lsls	r3, r3, #1
10001bee:	429a      	cmp	r2, r3
10001bf0:	d833      	bhi.n	10001c5a <pll_init+0x9e>
10001bf2:	1e7b      	subs	r3, r7, #1
10001bf4:	2b06      	cmp	r3, #6
10001bf6:	d836      	bhi.n	10001c66 <pll_init+0xaa>
10001bf8:	9b06      	ldr	r3, [sp, #24]
10001bfa:	3b01      	subs	r3, #1
10001bfc:	2b06      	cmp	r3, #6
10001bfe:	d832      	bhi.n	10001c66 <pll_init+0xaa>
10001c00:	9b06      	ldr	r3, [sp, #24]
10001c02:	429f      	cmp	r7, r3
10001c04:	d335      	bcc.n	10001c72 <pll_init+0xb6>
10001c06:	464b      	mov	r3, r9
10001c08:	091a      	lsrs	r2, r3, #4
10001c0a:	42aa      	cmp	r2, r5
10001c0c:	d337      	bcc.n	10001c7e <pll_init+0xc2>
10001c0e:	043f      	lsls	r7, r7, #16
10001c10:	9b06      	ldr	r3, [sp, #24]
10001c12:	031d      	lsls	r5, r3, #12
10001c14:	432f      	orrs	r7, r5
10001c16:	6823      	ldr	r3, [r4, #0]
10001c18:	2b00      	cmp	r3, #0
10001c1a:	db36      	blt.n	10001c8a <pll_init+0xce>
10001c1c:	4b23      	ldr	r3, [pc, #140]	; (10001cac <pll_init+0xf0>)
10001c1e:	429c      	cmp	r4, r3
10001c20:	d041      	beq.n	10001ca6 <pll_init+0xea>
10001c22:	2280      	movs	r2, #128	; 0x80
10001c24:	0152      	lsls	r2, r2, #5
10001c26:	4b22      	ldr	r3, [pc, #136]	; (10001cb0 <pll_init+0xf4>)
10001c28:	601a      	str	r2, [r3, #0]
10001c2a:	4b22      	ldr	r3, [pc, #136]	; (10001cb4 <pll_init+0xf8>)
10001c2c:	601a      	str	r2, [r3, #0]
10001c2e:	4b22      	ldr	r3, [pc, #136]	; (10001cb8 <pll_init+0xfc>)
10001c30:	689b      	ldr	r3, [r3, #8]
10001c32:	0011      	movs	r1, r2
10001c34:	4399      	bics	r1, r3
10001c36:	d1fa      	bne.n	10001c2e <pll_init+0x72>
10001c38:	6026      	str	r6, [r4, #0]
10001c3a:	60a0      	str	r0, [r4, #8]
10001c3c:	1d23      	adds	r3, r4, #4
10001c3e:	22c0      	movs	r2, #192	; 0xc0
10001c40:	0192      	lsls	r2, r2, #6
10001c42:	431a      	orrs	r2, r3
10001c44:	2321      	movs	r3, #33	; 0x21
10001c46:	6013      	str	r3, [r2, #0]
10001c48:	6823      	ldr	r3, [r4, #0]
10001c4a:	2b00      	cmp	r3, #0
10001c4c:	dafc      	bge.n	10001c48 <pll_init+0x8c>
10001c4e:	60e7      	str	r7, [r4, #12]
10001c50:	2308      	movs	r3, #8
10001c52:	6013      	str	r3, [r2, #0]
10001c54:	bc80      	pop	{r7}
10001c56:	46b9      	mov	r9, r7
10001c58:	bdf0      	pop	{r4, r5, r6, r7, pc}
10001c5a:	4b18      	ldr	r3, [pc, #96]	; (10001cbc <pll_init+0x100>)
10001c5c:	4a18      	ldr	r2, [pc, #96]	; (10001cc0 <pll_init+0x104>)
10001c5e:	2116      	movs	r1, #22
10001c60:	4818      	ldr	r0, [pc, #96]	; (10001cc4 <pll_init+0x108>)
10001c62:	f7ff fbf1 	bl	10001448 <__assert_func>
10001c66:	4b18      	ldr	r3, [pc, #96]	; (10001cc8 <pll_init+0x10c>)
10001c68:	4a15      	ldr	r2, [pc, #84]	; (10001cc0 <pll_init+0x104>)
10001c6a:	2119      	movs	r1, #25
10001c6c:	4815      	ldr	r0, [pc, #84]	; (10001cc4 <pll_init+0x108>)
10001c6e:	f7ff fbeb 	bl	10001448 <__assert_func>
10001c72:	4b16      	ldr	r3, [pc, #88]	; (10001ccc <pll_init+0x110>)
10001c74:	4a12      	ldr	r2, [pc, #72]	; (10001cc0 <pll_init+0x104>)
10001c76:	211f      	movs	r1, #31
10001c78:	4812      	ldr	r0, [pc, #72]	; (10001cc4 <pll_init+0x108>)
10001c7a:	f7ff fbe5 	bl	10001448 <__assert_func>
10001c7e:	4b14      	ldr	r3, [pc, #80]	; (10001cd0 <pll_init+0x114>)
10001c80:	4a0f      	ldr	r2, [pc, #60]	; (10001cc0 <pll_init+0x104>)
10001c82:	2122      	movs	r1, #34	; 0x22
10001c84:	480f      	ldr	r0, [pc, #60]	; (10001cc4 <pll_init+0x108>)
10001c86:	f7ff fbdf 	bl	10001448 <__assert_func>
10001c8a:	6822      	ldr	r2, [r4, #0]
10001c8c:	233f      	movs	r3, #63	; 0x3f
10001c8e:	4013      	ands	r3, r2
10001c90:	42b3      	cmp	r3, r6
10001c92:	d1c3      	bne.n	10001c1c <pll_init+0x60>
10001c94:	68a3      	ldr	r3, [r4, #8]
10001c96:	051b      	lsls	r3, r3, #20
10001c98:	0d1b      	lsrs	r3, r3, #20
10001c9a:	4283      	cmp	r3, r0
10001c9c:	d1be      	bne.n	10001c1c <pll_init+0x60>
10001c9e:	68e3      	ldr	r3, [r4, #12]
10001ca0:	2f00      	cmp	r7, #0
10001ca2:	d1bb      	bne.n	10001c1c <pll_init+0x60>
10001ca4:	e7d6      	b.n	10001c54 <pll_init+0x98>
10001ca6:	2280      	movs	r2, #128	; 0x80
10001ca8:	0192      	lsls	r2, r2, #6
10001caa:	e7bc      	b.n	10001c26 <pll_init+0x6a>
10001cac:	4002c000 	.word	0x4002c000
10001cb0:	4000e000 	.word	0x4000e000
10001cb4:	4000f000 	.word	0x4000f000
10001cb8:	4000c000 	.word	0x4000c000
10001cbc:	10004d60 	.word	0x10004d60
10001cc0:	10004e3c 	.word	0x10004e3c
10001cc4:	10004d7c 	.word	0x10004d7c
10001cc8:	10004dbc 	.word	0x10004dbc
10001ccc:	10004e08 	.word	0x10004e08
10001cd0:	10004e20 	.word	0x10004e20

10001cd4 <watchdog_start_tick>:
10001cd4:	2380      	movs	r3, #128	; 0x80
10001cd6:	009b      	lsls	r3, r3, #2
10001cd8:	4303      	orrs	r3, r0
10001cda:	4a01      	ldr	r2, [pc, #4]	; (10001ce0 <watchdog_start_tick+0xc>)
10001cdc:	62d3      	str	r3, [r2, #44]	; 0x2c
10001cde:	4770      	bx	lr
10001ce0:	40058000 	.word	0x40058000

10001ce4 <xosc_init>:
10001ce4:	4b06      	ldr	r3, [pc, #24]	; (10001d00 <xosc_init+0x1c>)
10001ce6:	22aa      	movs	r2, #170	; 0xaa
10001ce8:	0112      	lsls	r2, r2, #4
10001cea:	601a      	str	r2, [r3, #0]
10001cec:	222f      	movs	r2, #47	; 0x2f
10001cee:	60da      	str	r2, [r3, #12]
10001cf0:	4b04      	ldr	r3, [pc, #16]	; (10001d04 <xosc_init+0x20>)
10001cf2:	4a05      	ldr	r2, [pc, #20]	; (10001d08 <xosc_init+0x24>)
10001cf4:	601a      	str	r2, [r3, #0]
10001cf6:	4b02      	ldr	r3, [pc, #8]	; (10001d00 <xosc_init+0x1c>)
10001cf8:	685b      	ldr	r3, [r3, #4]
10001cfa:	2b00      	cmp	r3, #0
10001cfc:	dafb      	bge.n	10001cf6 <xosc_init+0x12>
10001cfe:	4770      	bx	lr
10001d00:	40024000 	.word	0x40024000
10001d04:	40026000 	.word	0x40026000
10001d08:	00fab000 	.word	0x00fab000

10001d0c <_out_null>:
10001d0c:	4770      	bx	lr

10001d0e <_out_fct>:
10001d0e:	b510      	push	{r4, lr}
10001d10:	2800      	cmp	r0, #0
10001d12:	d002      	beq.n	10001d1a <_out_fct+0xc>
10001d14:	680b      	ldr	r3, [r1, #0]
10001d16:	6849      	ldr	r1, [r1, #4]
10001d18:	4798      	blx	r3
10001d1a:	bd10      	pop	{r4, pc}

10001d1c <_atoi>:
10001d1c:	0001      	movs	r1, r0
10001d1e:	2000      	movs	r0, #0
10001d20:	e007      	b.n	10001d32 <_atoi+0x16>
10001d22:	0083      	lsls	r3, r0, #2
10001d24:	181b      	adds	r3, r3, r0
10001d26:	005b      	lsls	r3, r3, #1
10001d28:	1c50      	adds	r0, r2, #1
10001d2a:	6008      	str	r0, [r1, #0]
10001d2c:	7810      	ldrb	r0, [r2, #0]
10001d2e:	18c0      	adds	r0, r0, r3
10001d30:	3830      	subs	r0, #48	; 0x30
10001d32:	680a      	ldr	r2, [r1, #0]
10001d34:	7813      	ldrb	r3, [r2, #0]
10001d36:	3b30      	subs	r3, #48	; 0x30
10001d38:	b2db      	uxtb	r3, r3
10001d3a:	2b09      	cmp	r3, #9
10001d3c:	d9f1      	bls.n	10001d22 <_atoi+0x6>
10001d3e:	4770      	bx	lr

10001d40 <_out_rev>:
10001d40:	b5f0      	push	{r4, r5, r6, r7, lr}
10001d42:	46de      	mov	lr, fp
10001d44:	4657      	mov	r7, sl
10001d46:	464e      	mov	r6, r9
10001d48:	4645      	mov	r5, r8
10001d4a:	b5e0      	push	{r5, r6, r7, lr}
10001d4c:	b083      	sub	sp, #12
10001d4e:	4693      	mov	fp, r2
10001d50:	001f      	movs	r7, r3
10001d52:	9b0c      	ldr	r3, [sp, #48]	; 0x30
10001d54:	469a      	mov	sl, r3
10001d56:	9c0d      	ldr	r4, [sp, #52]	; 0x34
10001d58:	9b0e      	ldr	r3, [sp, #56]	; 0x38
10001d5a:	4699      	mov	r9, r3
10001d5c:	9b0f      	ldr	r3, [sp, #60]	; 0x3c
10001d5e:	079b      	lsls	r3, r3, #30
10001d60:	d003      	beq.n	10001d6a <_out_rev+0x2a>
10001d62:	46b8      	mov	r8, r7
10001d64:	000f      	movs	r7, r1
10001d66:	0006      	movs	r6, r0
10001d68:	e022      	b.n	10001db0 <_out_rev+0x70>
10001d6a:	9201      	str	r2, [sp, #4]
10001d6c:	46a3      	mov	fp, r4
10001d6e:	4688      	mov	r8, r1
10001d70:	464e      	mov	r6, r9
10001d72:	46b9      	mov	r9, r7
10001d74:	0007      	movs	r7, r0
10001d76:	42b4      	cmp	r4, r6
10001d78:	d207      	bcs.n	10001d8a <_out_rev+0x4a>
10001d7a:	1c55      	adds	r5, r2, #1
10001d7c:	464b      	mov	r3, r9
10001d7e:	4641      	mov	r1, r8
10001d80:	2020      	movs	r0, #32
10001d82:	47b8      	blx	r7
10001d84:	3401      	adds	r4, #1
10001d86:	002a      	movs	r2, r5
10001d88:	e7f5      	b.n	10001d76 <_out_rev+0x36>
10001d8a:	003d      	movs	r5, r7
10001d8c:	464f      	mov	r7, r9
10001d8e:	465c      	mov	r4, fp
10001d90:	9b01      	ldr	r3, [sp, #4]
10001d92:	469b      	mov	fp, r3
10001d94:	46b1      	mov	r9, r6
10001d96:	4646      	mov	r6, r8
10001d98:	46b8      	mov	r8, r7
10001d9a:	0037      	movs	r7, r6
10001d9c:	002e      	movs	r6, r5
10001d9e:	e007      	b.n	10001db0 <_out_rev+0x70>
10001da0:	3c01      	subs	r4, #1
10001da2:	1c55      	adds	r5, r2, #1
10001da4:	4653      	mov	r3, sl
10001da6:	5d18      	ldrb	r0, [r3, r4]
10001da8:	4643      	mov	r3, r8
10001daa:	0039      	movs	r1, r7
10001dac:	47b0      	blx	r6
10001dae:	002a      	movs	r2, r5
10001db0:	2c00      	cmp	r4, #0
10001db2:	d1f5      	bne.n	10001da0 <_out_rev+0x60>
10001db4:	0035      	movs	r5, r6
10001db6:	003e      	movs	r6, r7
10001db8:	4647      	mov	r7, r8
10001dba:	9b0f      	ldr	r3, [sp, #60]	; 0x3c
10001dbc:	079b      	lsls	r3, r3, #30
10001dbe:	d407      	bmi.n	10001dd0 <_out_rev+0x90>
10001dc0:	0010      	movs	r0, r2
10001dc2:	b003      	add	sp, #12
10001dc4:	bcf0      	pop	{r4, r5, r6, r7}
10001dc6:	46bb      	mov	fp, r7
10001dc8:	46b2      	mov	sl, r6
10001dca:	46a9      	mov	r9, r5
10001dcc:	46a0      	mov	r8, r4
10001dce:	bdf0      	pop	{r4, r5, r6, r7, pc}
10001dd0:	46b0      	mov	r8, r6
10001dd2:	464e      	mov	r6, r9
10001dd4:	46b9      	mov	r9, r7
10001dd6:	002f      	movs	r7, r5
10001dd8:	465d      	mov	r5, fp
10001dda:	1b53      	subs	r3, r2, r5
10001ddc:	42b3      	cmp	r3, r6
10001dde:	d2ef      	bcs.n	10001dc0 <_out_rev+0x80>
10001de0:	1c54      	adds	r4, r2, #1
10001de2:	464b      	mov	r3, r9
10001de4:	4641      	mov	r1, r8
10001de6:	2020      	movs	r0, #32
10001de8:	47b8      	blx	r7
10001dea:	0022      	movs	r2, r4
10001dec:	e7f5      	b.n	10001dda <_out_rev+0x9a>

10001dee <_ntoa_format>:
10001dee:	b5f0      	push	{r4, r5, r6, r7, lr}
10001df0:	46ce      	mov	lr, r9
10001df2:	4647      	mov	r7, r8
10001df4:	b580      	push	{r7, lr}
10001df6:	b085      	sub	sp, #20
10001df8:	4694      	mov	ip, r2
10001dfa:	4698      	mov	r8, r3
10001dfc:	9d0c      	ldr	r5, [sp, #48]	; 0x30
10001dfe:	9c0d      	ldr	r4, [sp, #52]	; 0x34
10001e00:	ab0e      	add	r3, sp, #56	; 0x38
10001e02:	781b      	ldrb	r3, [r3, #0]
10001e04:	4699      	mov	r9, r3
10001e06:	9a10      	ldr	r2, [sp, #64]	; 0x40
10001e08:	9b11      	ldr	r3, [sp, #68]	; 0x44
10001e0a:	9e12      	ldr	r6, [sp, #72]	; 0x48
10001e0c:	07b7      	lsls	r7, r6, #30
10001e0e:	d41c      	bmi.n	10001e4a <_ntoa_format+0x5c>
10001e10:	2b00      	cmp	r3, #0
10001e12:	d00c      	beq.n	10001e2e <_ntoa_format+0x40>
10001e14:	07f7      	lsls	r7, r6, #31
10001e16:	d50a      	bpl.n	10001e2e <_ntoa_format+0x40>
10001e18:	464f      	mov	r7, r9
10001e1a:	2f00      	cmp	r7, #0
10001e1c:	d102      	bne.n	10001e24 <_ntoa_format+0x36>
10001e1e:	370c      	adds	r7, #12
10001e20:	4237      	tst	r7, r6
10001e22:	d004      	beq.n	10001e2e <_ntoa_format+0x40>
10001e24:	3b01      	subs	r3, #1
10001e26:	e002      	b.n	10001e2e <_ntoa_format+0x40>
10001e28:	2730      	movs	r7, #48	; 0x30
10001e2a:	552f      	strb	r7, [r5, r4]
10001e2c:	3401      	adds	r4, #1
10001e2e:	4294      	cmp	r4, r2
10001e30:	d201      	bcs.n	10001e36 <_ntoa_format+0x48>
10001e32:	2c1f      	cmp	r4, #31
10001e34:	d9f8      	bls.n	10001e28 <_ntoa_format+0x3a>
10001e36:	07f7      	lsls	r7, r6, #31
10001e38:	d507      	bpl.n	10001e4a <_ntoa_format+0x5c>
10001e3a:	429c      	cmp	r4, r3
10001e3c:	d205      	bcs.n	10001e4a <_ntoa_format+0x5c>
10001e3e:	2c1f      	cmp	r4, #31
10001e40:	d803      	bhi.n	10001e4a <_ntoa_format+0x5c>
10001e42:	2730      	movs	r7, #48	; 0x30
10001e44:	552f      	strb	r7, [r5, r4]
10001e46:	3401      	adds	r4, #1
10001e48:	e7f5      	b.n	10001e36 <_ntoa_format+0x48>
10001e4a:	06f7      	lsls	r7, r6, #27
10001e4c:	d515      	bpl.n	10001e7a <_ntoa_format+0x8c>
10001e4e:	0577      	lsls	r7, r6, #21
10001e50:	d405      	bmi.n	10001e5e <_ntoa_format+0x70>
10001e52:	2c00      	cmp	r4, #0
10001e54:	d003      	beq.n	10001e5e <_ntoa_format+0x70>
10001e56:	4294      	cmp	r4, r2
10001e58:	d024      	beq.n	10001ea4 <_ntoa_format+0xb6>
10001e5a:	429c      	cmp	r4, r3
10001e5c:	d022      	beq.n	10001ea4 <_ntoa_format+0xb6>
10001e5e:	9a0f      	ldr	r2, [sp, #60]	; 0x3c
10001e60:	2a10      	cmp	r2, #16
10001e62:	d02b      	beq.n	10001ebc <_ntoa_format+0xce>
10001e64:	9a0f      	ldr	r2, [sp, #60]	; 0x3c
10001e66:	2a10      	cmp	r2, #16
10001e68:	d030      	beq.n	10001ecc <_ntoa_format+0xde>
10001e6a:	9a0f      	ldr	r2, [sp, #60]	; 0x3c
10001e6c:	2a02      	cmp	r2, #2
10001e6e:	d035      	beq.n	10001edc <_ntoa_format+0xee>
10001e70:	2c1f      	cmp	r4, #31
10001e72:	d802      	bhi.n	10001e7a <_ntoa_format+0x8c>
10001e74:	2230      	movs	r2, #48	; 0x30
10001e76:	552a      	strb	r2, [r5, r4]
10001e78:	3401      	adds	r4, #1
10001e7a:	2c1f      	cmp	r4, #31
10001e7c:	d805      	bhi.n	10001e8a <_ntoa_format+0x9c>
10001e7e:	464a      	mov	r2, r9
10001e80:	2a00      	cmp	r2, #0
10001e82:	d031      	beq.n	10001ee8 <_ntoa_format+0xfa>
10001e84:	222d      	movs	r2, #45	; 0x2d
10001e86:	552a      	strb	r2, [r5, r4]
10001e88:	3401      	adds	r4, #1
10001e8a:	9603      	str	r6, [sp, #12]
10001e8c:	9302      	str	r3, [sp, #8]
10001e8e:	9401      	str	r4, [sp, #4]
10001e90:	9500      	str	r5, [sp, #0]
10001e92:	4643      	mov	r3, r8
10001e94:	4662      	mov	r2, ip
10001e96:	f7ff ff53 	bl	10001d40 <_out_rev>
10001e9a:	b005      	add	sp, #20
10001e9c:	bcc0      	pop	{r6, r7}
10001e9e:	46b9      	mov	r9, r7
10001ea0:	46b0      	mov	r8, r6
10001ea2:	bdf0      	pop	{r4, r5, r6, r7, pc}
10001ea4:	1e62      	subs	r2, r4, #1
10001ea6:	2c01      	cmp	r4, #1
10001ea8:	d006      	beq.n	10001eb8 <_ntoa_format+0xca>
10001eaa:	9f0f      	ldr	r7, [sp, #60]	; 0x3c
10001eac:	2f10      	cmp	r7, #16
10001eae:	d001      	beq.n	10001eb4 <_ntoa_format+0xc6>
10001eb0:	0014      	movs	r4, r2
10001eb2:	e7d4      	b.n	10001e5e <_ntoa_format+0x70>
10001eb4:	3c02      	subs	r4, #2
10001eb6:	e7d2      	b.n	10001e5e <_ntoa_format+0x70>
10001eb8:	0014      	movs	r4, r2
10001eba:	e7d0      	b.n	10001e5e <_ntoa_format+0x70>
10001ebc:	06b2      	lsls	r2, r6, #26
10001ebe:	d4d1      	bmi.n	10001e64 <_ntoa_format+0x76>
10001ec0:	2c1f      	cmp	r4, #31
10001ec2:	d8cf      	bhi.n	10001e64 <_ntoa_format+0x76>
10001ec4:	2278      	movs	r2, #120	; 0x78
10001ec6:	552a      	strb	r2, [r5, r4]
10001ec8:	3401      	adds	r4, #1
10001eca:	e7d1      	b.n	10001e70 <_ntoa_format+0x82>
10001ecc:	06b2      	lsls	r2, r6, #26
10001ece:	d5cc      	bpl.n	10001e6a <_ntoa_format+0x7c>
10001ed0:	2c1f      	cmp	r4, #31
10001ed2:	d8ca      	bhi.n	10001e6a <_ntoa_format+0x7c>
10001ed4:	2258      	movs	r2, #88	; 0x58
10001ed6:	552a      	strb	r2, [r5, r4]
10001ed8:	3401      	adds	r4, #1
10001eda:	e7c9      	b.n	10001e70 <_ntoa_format+0x82>
10001edc:	2c1f      	cmp	r4, #31
10001ede:	d8c7      	bhi.n	10001e70 <_ntoa_format+0x82>
10001ee0:	3260      	adds	r2, #96	; 0x60
10001ee2:	552a      	strb	r2, [r5, r4]
10001ee4:	3401      	adds	r4, #1
10001ee6:	e7c3      	b.n	10001e70 <_ntoa_format+0x82>
10001ee8:	0772      	lsls	r2, r6, #29
10001eea:	d503      	bpl.n	10001ef4 <_ntoa_format+0x106>
10001eec:	222b      	movs	r2, #43	; 0x2b
10001eee:	552a      	strb	r2, [r5, r4]
10001ef0:	3401      	adds	r4, #1
10001ef2:	e7ca      	b.n	10001e8a <_ntoa_format+0x9c>
10001ef4:	0732      	lsls	r2, r6, #28
10001ef6:	d5c8      	bpl.n	10001e8a <_ntoa_format+0x9c>
10001ef8:	2220      	movs	r2, #32
10001efa:	552a      	strb	r2, [r5, r4]
10001efc:	3401      	adds	r4, #1
10001efe:	e7c4      	b.n	10001e8a <_ntoa_format+0x9c>

10001f00 <_ntoa_long>:
10001f00:	b5f0      	push	{r4, r5, r6, r7, lr}
10001f02:	46de      	mov	lr, fp
10001f04:	4657      	mov	r7, sl
10001f06:	464e      	mov	r6, r9
10001f08:	4645      	mov	r5, r8
10001f0a:	b5e0      	push	{r5, r6, r7, lr}
10001f0c:	b093      	sub	sp, #76	; 0x4c
10001f0e:	4681      	mov	r9, r0
10001f10:	468a      	mov	sl, r1
10001f12:	9208      	str	r2, [sp, #32]
10001f14:	9309      	str	r3, [sp, #36]	; 0x24
10001f16:	ab1c      	add	r3, sp, #112	; 0x70
10001f18:	cb10      	ldmia	r3!, {r4}
10001f1a:	781b      	ldrb	r3, [r3, #0]
10001f1c:	469b      	mov	fp, r3
10001f1e:	9d1e      	ldr	r5, [sp, #120]	; 0x78
10001f20:	9b21      	ldr	r3, [sp, #132]	; 0x84
10001f22:	4698      	mov	r8, r3
10001f24:	2c00      	cmp	r4, #0
10001f26:	d103      	bne.n	10001f30 <_ntoa_long+0x30>
10001f28:	2310      	movs	r3, #16
10001f2a:	4642      	mov	r2, r8
10001f2c:	439a      	bics	r2, r3
10001f2e:	4690      	mov	r8, r2
10001f30:	2380      	movs	r3, #128	; 0x80
10001f32:	00db      	lsls	r3, r3, #3
10001f34:	4646      	mov	r6, r8
10001f36:	401e      	ands	r6, r3
10001f38:	4642      	mov	r2, r8
10001f3a:	421a      	tst	r2, r3
10001f3c:	d012      	beq.n	10001f64 <_ntoa_long+0x64>
10001f3e:	2c00      	cmp	r4, #0
10001f40:	d022      	beq.n	10001f88 <_ntoa_long+0x88>
10001f42:	2600      	movs	r6, #0
10001f44:	e00e      	b.n	10001f64 <_ntoa_long+0x64>
10001f46:	3330      	adds	r3, #48	; 0x30
10001f48:	b2d9      	uxtb	r1, r3
10001f4a:	1c77      	adds	r7, r6, #1
10001f4c:	ab0a      	add	r3, sp, #40	; 0x28
10001f4e:	5599      	strb	r1, [r3, r6]
10001f50:	0029      	movs	r1, r5
10001f52:	0020      	movs	r0, r4
10001f54:	f000 ffd6 	bl	10002f04 <__wrap___aeabi_uidiv>
10001f58:	42ac      	cmp	r4, r5
10001f5a:	d316      	bcc.n	10001f8a <_ntoa_long+0x8a>
10001f5c:	2f1f      	cmp	r7, #31
10001f5e:	d814      	bhi.n	10001f8a <_ntoa_long+0x8a>
10001f60:	003e      	movs	r6, r7
10001f62:	0004      	movs	r4, r0
10001f64:	0029      	movs	r1, r5
10001f66:	0020      	movs	r0, r4
10001f68:	f000 ffcc 	bl	10002f04 <__wrap___aeabi_uidiv>
10001f6c:	b2cb      	uxtb	r3, r1
10001f6e:	2b09      	cmp	r3, #9
10001f70:	d9e9      	bls.n	10001f46 <_ntoa_long+0x46>
10001f72:	4642      	mov	r2, r8
10001f74:	0692      	lsls	r2, r2, #26
10001f76:	d505      	bpl.n	10001f84 <_ntoa_long+0x84>
10001f78:	2141      	movs	r1, #65	; 0x41
10001f7a:	18c9      	adds	r1, r1, r3
10001f7c:	b2c9      	uxtb	r1, r1
10001f7e:	390a      	subs	r1, #10
10001f80:	b2c9      	uxtb	r1, r1
10001f82:	e7e2      	b.n	10001f4a <_ntoa_long+0x4a>
10001f84:	2161      	movs	r1, #97	; 0x61
10001f86:	e7f8      	b.n	10001f7a <_ntoa_long+0x7a>
10001f88:	0027      	movs	r7, r4
10001f8a:	4643      	mov	r3, r8
10001f8c:	9306      	str	r3, [sp, #24]
10001f8e:	9b20      	ldr	r3, [sp, #128]	; 0x80
10001f90:	9305      	str	r3, [sp, #20]
10001f92:	9b1f      	ldr	r3, [sp, #124]	; 0x7c
10001f94:	9304      	str	r3, [sp, #16]
10001f96:	9503      	str	r5, [sp, #12]
10001f98:	465b      	mov	r3, fp
10001f9a:	9302      	str	r3, [sp, #8]
10001f9c:	9701      	str	r7, [sp, #4]
10001f9e:	ab0a      	add	r3, sp, #40	; 0x28
10001fa0:	9300      	str	r3, [sp, #0]
10001fa2:	9b09      	ldr	r3, [sp, #36]	; 0x24
10001fa4:	9a08      	ldr	r2, [sp, #32]
10001fa6:	4651      	mov	r1, sl
10001fa8:	4648      	mov	r0, r9
10001faa:	f7ff ff20 	bl	10001dee <_ntoa_format>
10001fae:	b013      	add	sp, #76	; 0x4c
10001fb0:	bcf0      	pop	{r4, r5, r6, r7}
10001fb2:	46bb      	mov	fp, r7
10001fb4:	46b2      	mov	sl, r6
10001fb6:	46a9      	mov	r9, r5
10001fb8:	46a0      	mov	r8, r4
10001fba:	bdf0      	pop	{r4, r5, r6, r7, pc}

10001fbc <_ntoa_long_long>:
10001fbc:	b5f0      	push	{r4, r5, r6, r7, lr}
10001fbe:	46de      	mov	lr, fp
10001fc0:	4657      	mov	r7, sl
10001fc2:	464e      	mov	r6, r9
10001fc4:	4645      	mov	r5, r8
10001fc6:	b5e0      	push	{r5, r6, r7, lr}
10001fc8:	b095      	sub	sp, #84	; 0x54
10001fca:	9008      	str	r0, [sp, #32]
10001fcc:	9109      	str	r1, [sp, #36]	; 0x24
10001fce:	920a      	str	r2, [sp, #40]	; 0x28
10001fd0:	930b      	str	r3, [sp, #44]	; 0x2c
10001fd2:	9e1e      	ldr	r6, [sp, #120]	; 0x78
10001fd4:	9c1f      	ldr	r4, [sp, #124]	; 0x7c
10001fd6:	ab20      	add	r3, sp, #128	; 0x80
10001fd8:	781b      	ldrb	r3, [r3, #0]
10001fda:	469b      	mov	fp, r3
10001fdc:	9b22      	ldr	r3, [sp, #136]	; 0x88
10001fde:	4699      	mov	r9, r3
10001fe0:	9d23      	ldr	r5, [sp, #140]	; 0x8c
10001fe2:	9b26      	ldr	r3, [sp, #152]	; 0x98
10001fe4:	469a      	mov	sl, r3
10001fe6:	0033      	movs	r3, r6
10001fe8:	4323      	orrs	r3, r4
10001fea:	d103      	bne.n	10001ff4 <_ntoa_long_long+0x38>
10001fec:	3310      	adds	r3, #16
10001fee:	4652      	mov	r2, sl
10001ff0:	439a      	bics	r2, r3
10001ff2:	4692      	mov	sl, r2
10001ff4:	2380      	movs	r3, #128	; 0x80
10001ff6:	00db      	lsls	r3, r3, #3
10001ff8:	4657      	mov	r7, sl
10001ffa:	401f      	ands	r7, r3
10001ffc:	4652      	mov	r2, sl
10001ffe:	421a      	tst	r2, r3
10002000:	d019      	beq.n	10002036 <_ntoa_long_long+0x7a>
10002002:	0033      	movs	r3, r6
10002004:	4323      	orrs	r3, r4
10002006:	d02d      	beq.n	10002064 <_ntoa_long_long+0xa8>
10002008:	2700      	movs	r7, #0
1000200a:	e014      	b.n	10002036 <_ntoa_long_long+0x7a>
1000200c:	3330      	adds	r3, #48	; 0x30
1000200e:	b2da      	uxtb	r2, r3
10002010:	1c7b      	adds	r3, r7, #1
10002012:	4698      	mov	r8, r3
10002014:	ab0c      	add	r3, sp, #48	; 0x30
10002016:	55da      	strb	r2, [r3, r7]
10002018:	464a      	mov	r2, r9
1000201a:	002b      	movs	r3, r5
1000201c:	0030      	movs	r0, r6
1000201e:	0021      	movs	r1, r4
10002020:	f000 ffb2 	bl	10002f88 <__wrap___aeabi_uldivmod>
10002024:	42a5      	cmp	r5, r4
10002026:	d81f      	bhi.n	10002068 <_ntoa_long_long+0xac>
10002028:	d019      	beq.n	1000205e <_ntoa_long_long+0xa2>
1000202a:	4643      	mov	r3, r8
1000202c:	2b1f      	cmp	r3, #31
1000202e:	d81b      	bhi.n	10002068 <_ntoa_long_long+0xac>
10002030:	4647      	mov	r7, r8
10002032:	0006      	movs	r6, r0
10002034:	000c      	movs	r4, r1
10002036:	464a      	mov	r2, r9
10002038:	002b      	movs	r3, r5
1000203a:	0030      	movs	r0, r6
1000203c:	0021      	movs	r1, r4
1000203e:	f000 ffa3 	bl	10002f88 <__wrap___aeabi_uldivmod>
10002042:	b2d3      	uxtb	r3, r2
10002044:	2b09      	cmp	r3, #9
10002046:	d9e1      	bls.n	1000200c <_ntoa_long_long+0x50>
10002048:	4652      	mov	r2, sl
1000204a:	0692      	lsls	r2, r2, #26
1000204c:	d505      	bpl.n	1000205a <_ntoa_long_long+0x9e>
1000204e:	2241      	movs	r2, #65	; 0x41
10002050:	18d2      	adds	r2, r2, r3
10002052:	b2d2      	uxtb	r2, r2
10002054:	3a0a      	subs	r2, #10
10002056:	b2d2      	uxtb	r2, r2
10002058:	e7da      	b.n	10002010 <_ntoa_long_long+0x54>
1000205a:	2261      	movs	r2, #97	; 0x61
1000205c:	e7f8      	b.n	10002050 <_ntoa_long_long+0x94>
1000205e:	45b1      	cmp	r9, r6
10002060:	d9e3      	bls.n	1000202a <_ntoa_long_long+0x6e>
10002062:	e001      	b.n	10002068 <_ntoa_long_long+0xac>
10002064:	2300      	movs	r3, #0
10002066:	4698      	mov	r8, r3
10002068:	4653      	mov	r3, sl
1000206a:	9306      	str	r3, [sp, #24]
1000206c:	9b25      	ldr	r3, [sp, #148]	; 0x94
1000206e:	9305      	str	r3, [sp, #20]
10002070:	9b24      	ldr	r3, [sp, #144]	; 0x90
10002072:	9304      	str	r3, [sp, #16]
10002074:	464b      	mov	r3, r9
10002076:	9303      	str	r3, [sp, #12]
10002078:	465b      	mov	r3, fp
1000207a:	9302      	str	r3, [sp, #8]
1000207c:	4643      	mov	r3, r8
1000207e:	9301      	str	r3, [sp, #4]
10002080:	ab0c      	add	r3, sp, #48	; 0x30
10002082:	9300      	str	r3, [sp, #0]
10002084:	9b0b      	ldr	r3, [sp, #44]	; 0x2c
10002086:	9a0a      	ldr	r2, [sp, #40]	; 0x28
10002088:	9909      	ldr	r1, [sp, #36]	; 0x24
1000208a:	9808      	ldr	r0, [sp, #32]
1000208c:	f7ff feaf 	bl	10001dee <_ntoa_format>
10002090:	b015      	add	sp, #84	; 0x54
10002092:	bcf0      	pop	{r4, r5, r6, r7}
10002094:	46bb      	mov	fp, r7
10002096:	46b2      	mov	sl, r6
10002098:	46a9      	mov	r9, r5
1000209a:	46a0      	mov	r8, r4
1000209c:	bdf0      	pop	{r4, r5, r6, r7, pc}
	...

100020a0 <_etoa>:
100020a0:	b5f0      	push	{r4, r5, r6, r7, lr}
100020a2:	46de      	mov	lr, fp
100020a4:	4657      	mov	r7, sl
100020a6:	464e      	mov	r6, r9
100020a8:	4645      	mov	r5, r8
100020aa:	b5e0      	push	{r5, r6, r7, lr}
100020ac:	b091      	sub	sp, #68	; 0x44
100020ae:	4683      	mov	fp, r0
100020b0:	468a      	mov	sl, r1
100020b2:	920c      	str	r2, [sp, #48]	; 0x30
100020b4:	4698      	mov	r8, r3
100020b6:	9c1a      	ldr	r4, [sp, #104]	; 0x68
100020b8:	9408      	str	r4, [sp, #32]
100020ba:	9d1b      	ldr	r5, [sp, #108]	; 0x6c
100020bc:	9509      	str	r5, [sp, #36]	; 0x24
100020be:	0022      	movs	r2, r4
100020c0:	002b      	movs	r3, r5
100020c2:	0020      	movs	r0, r4
100020c4:	0029      	movs	r1, r5
100020c6:	f001 f9ee 	bl	100034a6 <__wrap___aeabi_dcmpun>
100020ca:	2800      	cmp	r0, #0
100020cc:	d000      	beq.n	100020d0 <_etoa+0x30>
100020ce:	e0e5      	b.n	1000229c <_etoa+0x1fc>
100020d0:	2201      	movs	r2, #1
100020d2:	4252      	negs	r2, r2
100020d4:	4bd7      	ldr	r3, [pc, #860]	; (10002434 <_etoa+0x394>)
100020d6:	0020      	movs	r0, r4
100020d8:	0029      	movs	r1, r5
100020da:	f001 f9df 	bl	1000349c <__wrap___aeabi_dcmpgt>
100020de:	2800      	cmp	r0, #0
100020e0:	d000      	beq.n	100020e4 <_etoa+0x44>
100020e2:	e0db      	b.n	1000229c <_etoa+0x1fc>
100020e4:	2201      	movs	r2, #1
100020e6:	4252      	negs	r2, r2
100020e8:	4bd3      	ldr	r3, [pc, #844]	; (10002438 <_etoa+0x398>)
100020ea:	0020      	movs	r0, r4
100020ec:	0029      	movs	r1, r5
100020ee:	f001 f9bf 	bl	10003470 <__wrap___aeabi_dcmplt>
100020f2:	2800      	cmp	r0, #0
100020f4:	d000      	beq.n	100020f8 <_etoa+0x58>
100020f6:	e0d1      	b.n	1000229c <_etoa+0x1fc>
100020f8:	2200      	movs	r2, #0
100020fa:	2300      	movs	r3, #0
100020fc:	9e08      	ldr	r6, [sp, #32]
100020fe:	0030      	movs	r0, r6
10002100:	9d09      	ldr	r5, [sp, #36]	; 0x24
10002102:	0029      	movs	r1, r5
10002104:	f001 f9b4 	bl	10003470 <__wrap___aeabi_dcmplt>
10002108:	2800      	cmp	r0, #0
1000210a:	d000      	beq.n	1000210e <_etoa+0x6e>
1000210c:	e0dd      	b.n	100022ca <_etoa+0x22a>
1000210e:	9808      	ldr	r0, [sp, #32]
10002110:	9909      	ldr	r1, [sp, #36]	; 0x24
10002112:	9006      	str	r0, [sp, #24]
10002114:	9107      	str	r1, [sp, #28]
10002116:	2380      	movs	r3, #128	; 0x80
10002118:	00db      	lsls	r3, r3, #3
1000211a:	9a1e      	ldr	r2, [sp, #120]	; 0x78
1000211c:	401a      	ands	r2, r3
1000211e:	920d      	str	r2, [sp, #52]	; 0x34
10002120:	9a1e      	ldr	r2, [sp, #120]	; 0x78
10002122:	421a      	tst	r2, r3
10002124:	d101      	bne.n	1000212a <_etoa+0x8a>
10002126:	2306      	movs	r3, #6
10002128:	931c      	str	r3, [sp, #112]	; 0x70
1000212a:	9806      	ldr	r0, [sp, #24]
1000212c:	9907      	ldr	r1, [sp, #28]
1000212e:	0004      	movs	r4, r0
10002130:	000d      	movs	r5, r1
10002132:	000a      	movs	r2, r1
10002134:	0006      	movs	r6, r0
10002136:	4302      	orrs	r2, r0
10002138:	d100      	bne.n	1000213c <_etoa+0x9c>
1000213a:	e0d1      	b.n	100022e0 <_etoa+0x240>
1000213c:	0d08      	lsrs	r0, r1, #20
1000213e:	0540      	lsls	r0, r0, #21
10002140:	0d40      	lsrs	r0, r0, #21
10002142:	4cbe      	ldr	r4, [pc, #760]	; (1000243c <_etoa+0x39c>)
10002144:	46a4      	mov	ip, r4
10002146:	4460      	add	r0, ip
10002148:	030a      	lsls	r2, r1, #12
1000214a:	0b12      	lsrs	r2, r2, #12
1000214c:	4bbc      	ldr	r3, [pc, #752]	; (10002440 <_etoa+0x3a0>)
1000214e:	4313      	orrs	r3, r2
10002150:	001f      	movs	r7, r3
10002152:	f001 f9bb 	bl	100034cc <__wrap___aeabi_i2d>
10002156:	4abb      	ldr	r2, [pc, #748]	; (10002444 <_etoa+0x3a4>)
10002158:	4bbb      	ldr	r3, [pc, #748]	; (10002448 <_etoa+0x3a8>)
1000215a:	f001 f946 	bl	100033ea <__wrap___aeabi_dmul>
1000215e:	4abb      	ldr	r2, [pc, #748]	; (1000244c <_etoa+0x3ac>)
10002160:	4bbb      	ldr	r3, [pc, #748]	; (10002450 <_etoa+0x3b0>)
10002162:	f001 f91b 	bl	1000339c <__wrap___aeabi_dadd>
10002166:	0004      	movs	r4, r0
10002168:	000d      	movs	r5, r1
1000216a:	2200      	movs	r2, #0
1000216c:	4bb9      	ldr	r3, [pc, #740]	; (10002454 <_etoa+0x3b4>)
1000216e:	0030      	movs	r0, r6
10002170:	0039      	movs	r1, r7
10002172:	f001 f90a 	bl	1000338a <__wrap___aeabi_dsub>
10002176:	4ab8      	ldr	r2, [pc, #736]	; (10002458 <_etoa+0x3b8>)
10002178:	4bb8      	ldr	r3, [pc, #736]	; (1000245c <_etoa+0x3bc>)
1000217a:	f001 f936 	bl	100033ea <__wrap___aeabi_dmul>
1000217e:	0002      	movs	r2, r0
10002180:	000b      	movs	r3, r1
10002182:	0020      	movs	r0, r4
10002184:	0029      	movs	r1, r5
10002186:	f001 f909 	bl	1000339c <__wrap___aeabi_dadd>
1000218a:	f001 f9b7 	bl	100034fc <__wrap___aeabi_d2iz>
1000218e:	4681      	mov	r9, r0
10002190:	f001 f99c 	bl	100034cc <__wrap___aeabi_i2d>
10002194:	0004      	movs	r4, r0
10002196:	000d      	movs	r5, r1
10002198:	4ab1      	ldr	r2, [pc, #708]	; (10002460 <_etoa+0x3c0>)
1000219a:	4bb2      	ldr	r3, [pc, #712]	; (10002464 <_etoa+0x3c4>)
1000219c:	f001 f925 	bl	100033ea <__wrap___aeabi_dmul>
100021a0:	2200      	movs	r2, #0
100021a2:	4bb1      	ldr	r3, [pc, #708]	; (10002468 <_etoa+0x3c8>)
100021a4:	f001 f8fa 	bl	1000339c <__wrap___aeabi_dadd>
100021a8:	f001 f9a8 	bl	100034fc <__wrap___aeabi_d2iz>
100021ac:	0006      	movs	r6, r0
100021ae:	4aaf      	ldr	r2, [pc, #700]	; (1000246c <_etoa+0x3cc>)
100021b0:	4baf      	ldr	r3, [pc, #700]	; (10002470 <_etoa+0x3d0>)
100021b2:	0020      	movs	r0, r4
100021b4:	0029      	movs	r1, r5
100021b6:	f001 f918 	bl	100033ea <__wrap___aeabi_dmul>
100021ba:	0004      	movs	r4, r0
100021bc:	000d      	movs	r5, r1
100021be:	0030      	movs	r0, r6
100021c0:	f001 f984 	bl	100034cc <__wrap___aeabi_i2d>
100021c4:	4aab      	ldr	r2, [pc, #684]	; (10002474 <_etoa+0x3d4>)
100021c6:	4bac      	ldr	r3, [pc, #688]	; (10002478 <_etoa+0x3d8>)
100021c8:	f001 f90f 	bl	100033ea <__wrap___aeabi_dmul>
100021cc:	0002      	movs	r2, r0
100021ce:	000b      	movs	r3, r1
100021d0:	0020      	movs	r0, r4
100021d2:	0029      	movs	r1, r5
100021d4:	f001 f8d9 	bl	1000338a <__wrap___aeabi_dsub>
100021d8:	0004      	movs	r4, r0
100021da:	000d      	movs	r5, r1
100021dc:	0002      	movs	r2, r0
100021de:	000b      	movs	r3, r1
100021e0:	f001 f903 	bl	100033ea <__wrap___aeabi_dmul>
100021e4:	900a      	str	r0, [sp, #40]	; 0x28
100021e6:	910b      	str	r1, [sp, #44]	; 0x2c
100021e8:	4ba4      	ldr	r3, [pc, #656]	; (1000247c <_etoa+0x3dc>)
100021ea:	18f3      	adds	r3, r6, r3
100021ec:	2600      	movs	r6, #0
100021ee:	051f      	lsls	r7, r3, #20
100021f0:	0022      	movs	r2, r4
100021f2:	002b      	movs	r3, r5
100021f4:	0020      	movs	r0, r4
100021f6:	0029      	movs	r1, r5
100021f8:	f001 f8d0 	bl	1000339c <__wrap___aeabi_dadd>
100021fc:	900e      	str	r0, [sp, #56]	; 0x38
100021fe:	910f      	str	r1, [sp, #60]	; 0x3c
10002200:	0022      	movs	r2, r4
10002202:	002b      	movs	r3, r5
10002204:	2000      	movs	r0, #0
10002206:	2180      	movs	r1, #128	; 0x80
10002208:	05c9      	lsls	r1, r1, #23
1000220a:	f001 f8be 	bl	1000338a <__wrap___aeabi_dsub>
1000220e:	0004      	movs	r4, r0
10002210:	000d      	movs	r5, r1
10002212:	2200      	movs	r2, #0
10002214:	4b9a      	ldr	r3, [pc, #616]	; (10002480 <_etoa+0x3e0>)
10002216:	980a      	ldr	r0, [sp, #40]	; 0x28
10002218:	990b      	ldr	r1, [sp, #44]	; 0x2c
1000221a:	f001 f8c8 	bl	100033ae <__wrap___aeabi_ddiv>
1000221e:	2200      	movs	r2, #0
10002220:	4b98      	ldr	r3, [pc, #608]	; (10002484 <_etoa+0x3e4>)
10002222:	f001 f8bb 	bl	1000339c <__wrap___aeabi_dadd>
10002226:	0002      	movs	r2, r0
10002228:	000b      	movs	r3, r1
1000222a:	980a      	ldr	r0, [sp, #40]	; 0x28
1000222c:	990b      	ldr	r1, [sp, #44]	; 0x2c
1000222e:	f001 f8be 	bl	100033ae <__wrap___aeabi_ddiv>
10002232:	2200      	movs	r2, #0
10002234:	4b94      	ldr	r3, [pc, #592]	; (10002488 <_etoa+0x3e8>)
10002236:	f001 f8b1 	bl	1000339c <__wrap___aeabi_dadd>
1000223a:	0002      	movs	r2, r0
1000223c:	000b      	movs	r3, r1
1000223e:	980a      	ldr	r0, [sp, #40]	; 0x28
10002240:	990b      	ldr	r1, [sp, #44]	; 0x2c
10002242:	f001 f8b4 	bl	100033ae <__wrap___aeabi_ddiv>
10002246:	0002      	movs	r2, r0
10002248:	000b      	movs	r3, r1
1000224a:	0020      	movs	r0, r4
1000224c:	0029      	movs	r1, r5
1000224e:	f001 f8a5 	bl	1000339c <__wrap___aeabi_dadd>
10002252:	0002      	movs	r2, r0
10002254:	000b      	movs	r3, r1
10002256:	980e      	ldr	r0, [sp, #56]	; 0x38
10002258:	990f      	ldr	r1, [sp, #60]	; 0x3c
1000225a:	f001 f8a8 	bl	100033ae <__wrap___aeabi_ddiv>
1000225e:	2200      	movs	r2, #0
10002260:	4b77      	ldr	r3, [pc, #476]	; (10002440 <_etoa+0x3a0>)
10002262:	f001 f89b 	bl	1000339c <__wrap___aeabi_dadd>
10002266:	0032      	movs	r2, r6
10002268:	003b      	movs	r3, r7
1000226a:	f001 f8be 	bl	100033ea <__wrap___aeabi_dmul>
1000226e:	0006      	movs	r6, r0
10002270:	000f      	movs	r7, r1
10002272:	0004      	movs	r4, r0
10002274:	000d      	movs	r5, r1
10002276:	9a06      	ldr	r2, [sp, #24]
10002278:	9b07      	ldr	r3, [sp, #28]
1000227a:	f001 f90f 	bl	1000349c <__wrap___aeabi_dcmpgt>
1000227e:	2800      	cmp	r0, #0
10002280:	d030      	beq.n	100022e4 <_etoa+0x244>
10002282:	2301      	movs	r3, #1
10002284:	425b      	negs	r3, r3
10002286:	469c      	mov	ip, r3
10002288:	44e1      	add	r9, ip
1000228a:	2200      	movs	r2, #0
1000228c:	4b7d      	ldr	r3, [pc, #500]	; (10002484 <_etoa+0x3e4>)
1000228e:	0030      	movs	r0, r6
10002290:	0039      	movs	r1, r7
10002292:	f001 f88c 	bl	100033ae <__wrap___aeabi_ddiv>
10002296:	0004      	movs	r4, r0
10002298:	000d      	movs	r5, r1
1000229a:	e023      	b.n	100022e4 <_etoa+0x244>
1000229c:	9b1e      	ldr	r3, [sp, #120]	; 0x78
1000229e:	9304      	str	r3, [sp, #16]
100022a0:	9b1d      	ldr	r3, [sp, #116]	; 0x74
100022a2:	9303      	str	r3, [sp, #12]
100022a4:	9b1c      	ldr	r3, [sp, #112]	; 0x70
100022a6:	9302      	str	r3, [sp, #8]
100022a8:	9a08      	ldr	r2, [sp, #32]
100022aa:	9b09      	ldr	r3, [sp, #36]	; 0x24
100022ac:	9200      	str	r2, [sp, #0]
100022ae:	9301      	str	r3, [sp, #4]
100022b0:	4643      	mov	r3, r8
100022b2:	9a0c      	ldr	r2, [sp, #48]	; 0x30
100022b4:	4651      	mov	r1, sl
100022b6:	4658      	mov	r0, fp
100022b8:	f000 f8fc 	bl	100024b4 <_ftoa>
100022bc:	b011      	add	sp, #68	; 0x44
100022be:	bcf0      	pop	{r4, r5, r6, r7}
100022c0:	46bb      	mov	fp, r7
100022c2:	46b2      	mov	sl, r6
100022c4:	46a9      	mov	r9, r5
100022c6:	46a0      	mov	r8, r4
100022c8:	bdf0      	pop	{r4, r5, r6, r7, pc}
100022ca:	2300      	movs	r3, #0
100022cc:	2400      	movs	r4, #0
100022ce:	9306      	str	r3, [sp, #24]
100022d0:	9407      	str	r4, [sp, #28]
100022d2:	9606      	str	r6, [sp, #24]
100022d4:	2380      	movs	r3, #128	; 0x80
100022d6:	061b      	lsls	r3, r3, #24
100022d8:	469c      	mov	ip, r3
100022da:	4465      	add	r5, ip
100022dc:	9507      	str	r5, [sp, #28]
100022de:	e71a      	b.n	10002116 <_etoa+0x76>
100022e0:	2300      	movs	r3, #0
100022e2:	4699      	mov	r9, r3
100022e4:	464b      	mov	r3, r9
100022e6:	3363      	adds	r3, #99	; 0x63
100022e8:	2bc6      	cmp	r3, #198	; 0xc6
100022ea:	d81e      	bhi.n	1000232a <_etoa+0x28a>
100022ec:	2604      	movs	r6, #4
100022ee:	9b1e      	ldr	r3, [sp, #120]	; 0x78
100022f0:	051b      	lsls	r3, r3, #20
100022f2:	d526      	bpl.n	10002342 <_etoa+0x2a2>
100022f4:	002b      	movs	r3, r5
100022f6:	4323      	orrs	r3, r4
100022f8:	d00f      	beq.n	1000231a <_etoa+0x27a>
100022fa:	4a64      	ldr	r2, [pc, #400]	; (1000248c <_etoa+0x3ec>)
100022fc:	4b64      	ldr	r3, [pc, #400]	; (10002490 <_etoa+0x3f0>)
100022fe:	9806      	ldr	r0, [sp, #24]
10002300:	9907      	ldr	r1, [sp, #28]
10002302:	f001 f8c3 	bl	1000348c <__wrap___aeabi_dcmpge>
10002306:	2800      	cmp	r0, #0
10002308:	d079      	beq.n	100023fe <_etoa+0x35e>
1000230a:	2200      	movs	r2, #0
1000230c:	4b61      	ldr	r3, [pc, #388]	; (10002494 <_etoa+0x3f4>)
1000230e:	9806      	ldr	r0, [sp, #24]
10002310:	9907      	ldr	r1, [sp, #28]
10002312:	f001 f8ad 	bl	10003470 <__wrap___aeabi_dcmplt>
10002316:	2800      	cmp	r0, #0
10002318:	d071      	beq.n	100023fe <_etoa+0x35e>
1000231a:	9b1c      	ldr	r3, [sp, #112]	; 0x70
1000231c:	454b      	cmp	r3, r9
1000231e:	dd06      	ble.n	1000232e <_etoa+0x28e>
10002320:	464a      	mov	r2, r9
10002322:	1a98      	subs	r0, r3, r2
10002324:	1e43      	subs	r3, r0, #1
10002326:	931c      	str	r3, [sp, #112]	; 0x70
10002328:	e003      	b.n	10002332 <_etoa+0x292>
1000232a:	2605      	movs	r6, #5
1000232c:	e7df      	b.n	100022ee <_etoa+0x24e>
1000232e:	2300      	movs	r3, #0
10002330:	931c      	str	r3, [sp, #112]	; 0x70
10002332:	2380      	movs	r3, #128	; 0x80
10002334:	00db      	lsls	r3, r3, #3
10002336:	9a1e      	ldr	r2, [sp, #120]	; 0x78
10002338:	431a      	orrs	r2, r3
1000233a:	921e      	str	r2, [sp, #120]	; 0x78
1000233c:	2600      	movs	r6, #0
1000233e:	2300      	movs	r3, #0
10002340:	4699      	mov	r9, r3
10002342:	9b1d      	ldr	r3, [sp, #116]	; 0x74
10002344:	429e      	cmp	r6, r3
10002346:	d264      	bcs.n	10002412 <_etoa+0x372>
10002348:	1b9f      	subs	r7, r3, r6
1000234a:	2302      	movs	r3, #2
1000234c:	9a1e      	ldr	r2, [sp, #120]	; 0x78
1000234e:	401a      	ands	r2, r3
10002350:	920a      	str	r2, [sp, #40]	; 0x28
10002352:	9a1e      	ldr	r2, [sp, #120]	; 0x78
10002354:	4213      	tst	r3, r2
10002356:	d002      	beq.n	1000235e <_etoa+0x2be>
10002358:	2e00      	cmp	r6, #0
1000235a:	d000      	beq.n	1000235e <_etoa+0x2be>
1000235c:	2700      	movs	r7, #0
1000235e:	464b      	mov	r3, r9
10002360:	2b00      	cmp	r3, #0
10002362:	d007      	beq.n	10002374 <_etoa+0x2d4>
10002364:	0022      	movs	r2, r4
10002366:	002b      	movs	r3, r5
10002368:	9806      	ldr	r0, [sp, #24]
1000236a:	9907      	ldr	r1, [sp, #28]
1000236c:	f001 f81f 	bl	100033ae <__wrap___aeabi_ddiv>
10002370:	9006      	str	r0, [sp, #24]
10002372:	9107      	str	r1, [sp, #28]
10002374:	2200      	movs	r2, #0
10002376:	2300      	movs	r3, #0
10002378:	9808      	ldr	r0, [sp, #32]
1000237a:	9909      	ldr	r1, [sp, #36]	; 0x24
1000237c:	f001 f878 	bl	10003470 <__wrap___aeabi_dcmplt>
10002380:	2800      	cmp	r0, #0
10002382:	d148      	bne.n	10002416 <_etoa+0x376>
10002384:	4b44      	ldr	r3, [pc, #272]	; (10002498 <_etoa+0x3f8>)
10002386:	9a1e      	ldr	r2, [sp, #120]	; 0x78
10002388:	4013      	ands	r3, r2
1000238a:	9304      	str	r3, [sp, #16]
1000238c:	9703      	str	r7, [sp, #12]
1000238e:	9b1c      	ldr	r3, [sp, #112]	; 0x70
10002390:	9302      	str	r3, [sp, #8]
10002392:	9b06      	ldr	r3, [sp, #24]
10002394:	9c07      	ldr	r4, [sp, #28]
10002396:	9300      	str	r3, [sp, #0]
10002398:	9401      	str	r4, [sp, #4]
1000239a:	4643      	mov	r3, r8
1000239c:	9a0c      	ldr	r2, [sp, #48]	; 0x30
1000239e:	4651      	mov	r1, sl
100023a0:	4658      	mov	r0, fp
100023a2:	f000 f887 	bl	100024b4 <_ftoa>
100023a6:	2e00      	cmp	r6, #0
100023a8:	d100      	bne.n	100023ac <_etoa+0x30c>
100023aa:	e787      	b.n	100022bc <_etoa+0x21c>
100023ac:	9b1e      	ldr	r3, [sp, #120]	; 0x78
100023ae:	069b      	lsls	r3, r3, #26
100023b0:	d53d      	bpl.n	1000242e <_etoa+0x38e>
100023b2:	2545      	movs	r5, #69	; 0x45
100023b4:	1c44      	adds	r4, r0, #1
100023b6:	4643      	mov	r3, r8
100023b8:	0002      	movs	r2, r0
100023ba:	4651      	mov	r1, sl
100023bc:	0028      	movs	r0, r5
100023be:	47d8      	blx	fp
100023c0:	464b      	mov	r3, r9
100023c2:	17da      	asrs	r2, r3, #31
100023c4:	189b      	adds	r3, r3, r2
100023c6:	4053      	eors	r3, r2
100023c8:	2205      	movs	r2, #5
100023ca:	9205      	str	r2, [sp, #20]
100023cc:	3e01      	subs	r6, #1
100023ce:	9604      	str	r6, [sp, #16]
100023d0:	2200      	movs	r2, #0
100023d2:	9203      	str	r2, [sp, #12]
100023d4:	320a      	adds	r2, #10
100023d6:	9202      	str	r2, [sp, #8]
100023d8:	464a      	mov	r2, r9
100023da:	0fd0      	lsrs	r0, r2, #31
100023dc:	9001      	str	r0, [sp, #4]
100023de:	9300      	str	r3, [sp, #0]
100023e0:	4643      	mov	r3, r8
100023e2:	0022      	movs	r2, r4
100023e4:	4651      	mov	r1, sl
100023e6:	4658      	mov	r0, fp
100023e8:	f7ff fd8a 	bl	10001f00 <_ntoa_long>
100023ec:	9b0a      	ldr	r3, [sp, #40]	; 0x28
100023ee:	2b00      	cmp	r3, #0
100023f0:	d100      	bne.n	100023f4 <_etoa+0x354>
100023f2:	e763      	b.n	100022bc <_etoa+0x21c>
100023f4:	0002      	movs	r2, r0
100023f6:	465f      	mov	r7, fp
100023f8:	9e0c      	ldr	r6, [sp, #48]	; 0x30
100023fa:	9d1d      	ldr	r5, [sp, #116]	; 0x74
100023fc:	e054      	b.n	100024a8 <_etoa+0x408>
100023fe:	9b1c      	ldr	r3, [sp, #112]	; 0x70
10002400:	2b00      	cmp	r3, #0
10002402:	d09e      	beq.n	10002342 <_etoa+0x2a2>
10002404:	9b0d      	ldr	r3, [sp, #52]	; 0x34
10002406:	2b00      	cmp	r3, #0
10002408:	d09b      	beq.n	10002342 <_etoa+0x2a2>
1000240a:	9b1c      	ldr	r3, [sp, #112]	; 0x70
1000240c:	3b01      	subs	r3, #1
1000240e:	931c      	str	r3, [sp, #112]	; 0x70
10002410:	e797      	b.n	10002342 <_etoa+0x2a2>
10002412:	2700      	movs	r7, #0
10002414:	e799      	b.n	1000234a <_etoa+0x2aa>
10002416:	9c06      	ldr	r4, [sp, #24]
10002418:	9d07      	ldr	r5, [sp, #28]
1000241a:	0022      	movs	r2, r4
1000241c:	0029      	movs	r1, r5
1000241e:	2080      	movs	r0, #128	; 0x80
10002420:	0600      	lsls	r0, r0, #24
10002422:	4684      	mov	ip, r0
10002424:	4461      	add	r1, ip
10002426:	000b      	movs	r3, r1
10002428:	9206      	str	r2, [sp, #24]
1000242a:	9307      	str	r3, [sp, #28]
1000242c:	e7aa      	b.n	10002384 <_etoa+0x2e4>
1000242e:	2565      	movs	r5, #101	; 0x65
10002430:	e7c0      	b.n	100023b4 <_etoa+0x314>
10002432:	46c0      	nop			; (mov r8, r8)
10002434:	7fefffff 	.word	0x7fefffff
10002438:	ffefffff 	.word	0xffefffff
1000243c:	fffffc01 	.word	0xfffffc01
10002440:	3ff00000 	.word	0x3ff00000
10002444:	509f79fb 	.word	0x509f79fb
10002448:	3fd34413 	.word	0x3fd34413
1000244c:	8b60c8b3 	.word	0x8b60c8b3
10002450:	3fc68a28 	.word	0x3fc68a28
10002454:	3ff80000 	.word	0x3ff80000
10002458:	636f4361 	.word	0x636f4361
1000245c:	3fd287a7 	.word	0x3fd287a7
10002460:	0979a371 	.word	0x0979a371
10002464:	400a934f 	.word	0x400a934f
10002468:	3fe00000 	.word	0x3fe00000
1000246c:	bbb55516 	.word	0xbbb55516
10002470:	40026bb1 	.word	0x40026bb1
10002474:	fefa39ef 	.word	0xfefa39ef
10002478:	3fe62e42 	.word	0x3fe62e42
1000247c:	000003ff 	.word	0x000003ff
10002480:	402c0000 	.word	0x402c0000
10002484:	40240000 	.word	0x40240000
10002488:	40180000 	.word	0x40180000
1000248c:	eb1c432d 	.word	0xeb1c432d
10002490:	3f1a36e2 	.word	0x3f1a36e2
10002494:	412e8480 	.word	0x412e8480
10002498:	fffff7ff 	.word	0xfffff7ff
1000249c:	1c54      	adds	r4, r2, #1
1000249e:	4643      	mov	r3, r8
100024a0:	4651      	mov	r1, sl
100024a2:	2020      	movs	r0, #32
100024a4:	47b8      	blx	r7
100024a6:	0022      	movs	r2, r4
100024a8:	1b93      	subs	r3, r2, r6
100024aa:	42ab      	cmp	r3, r5
100024ac:	d3f6      	bcc.n	1000249c <_etoa+0x3fc>
100024ae:	0010      	movs	r0, r2
100024b0:	e704      	b.n	100022bc <_etoa+0x21c>
100024b2:	46c0      	nop			; (mov r8, r8)

100024b4 <_ftoa>:
100024b4:	b5f0      	push	{r4, r5, r6, r7, lr}
100024b6:	46de      	mov	lr, fp
100024b8:	4657      	mov	r7, sl
100024ba:	464e      	mov	r6, r9
100024bc:	4645      	mov	r5, r8
100024be:	b5e0      	push	{r5, r6, r7, lr}
100024c0:	b095      	sub	sp, #84	; 0x54
100024c2:	9006      	str	r0, [sp, #24]
100024c4:	9107      	str	r1, [sp, #28]
100024c6:	4693      	mov	fp, r2
100024c8:	4699      	mov	r9, r3
100024ca:	9f20      	ldr	r7, [sp, #128]	; 0x80
100024cc:	9a1e      	ldr	r2, [sp, #120]	; 0x78
100024ce:	9b1f      	ldr	r3, [sp, #124]	; 0x7c
100024d0:	0010      	movs	r0, r2
100024d2:	0019      	movs	r1, r3
100024d4:	f000 ffe7 	bl	100034a6 <__wrap___aeabi_dcmpun>
100024d8:	2800      	cmp	r0, #0
100024da:	d131      	bne.n	10002540 <_ftoa+0x8c>
100024dc:	2201      	movs	r2, #1
100024de:	4252      	negs	r2, r2
100024e0:	4bbf      	ldr	r3, [pc, #764]	; (100027e0 <_ftoa+0x32c>)
100024e2:	981e      	ldr	r0, [sp, #120]	; 0x78
100024e4:	991f      	ldr	r1, [sp, #124]	; 0x7c
100024e6:	f000 ffc3 	bl	10003470 <__wrap___aeabi_dcmplt>
100024ea:	2800      	cmp	r0, #0
100024ec:	d137      	bne.n	1000255e <_ftoa+0xaa>
100024ee:	2201      	movs	r2, #1
100024f0:	4252      	negs	r2, r2
100024f2:	4bbc      	ldr	r3, [pc, #752]	; (100027e4 <_ftoa+0x330>)
100024f4:	981e      	ldr	r0, [sp, #120]	; 0x78
100024f6:	991f      	ldr	r1, [sp, #124]	; 0x7c
100024f8:	f000 ffd0 	bl	1000349c <__wrap___aeabi_dcmpgt>
100024fc:	2800      	cmp	r0, #0
100024fe:	d13d      	bne.n	1000257c <_ftoa+0xc8>
10002500:	2200      	movs	r2, #0
10002502:	4bb9      	ldr	r3, [pc, #740]	; (100027e8 <_ftoa+0x334>)
10002504:	981e      	ldr	r0, [sp, #120]	; 0x78
10002506:	991f      	ldr	r1, [sp, #124]	; 0x7c
10002508:	f000 ffc8 	bl	1000349c <__wrap___aeabi_dcmpgt>
1000250c:	2800      	cmp	r0, #0
1000250e:	d150      	bne.n	100025b2 <_ftoa+0xfe>
10002510:	2200      	movs	r2, #0
10002512:	4bb6      	ldr	r3, [pc, #728]	; (100027ec <_ftoa+0x338>)
10002514:	981e      	ldr	r0, [sp, #120]	; 0x78
10002516:	991f      	ldr	r1, [sp, #124]	; 0x7c
10002518:	f000 ffaa 	bl	10003470 <__wrap___aeabi_dcmplt>
1000251c:	2800      	cmp	r0, #0
1000251e:	d148      	bne.n	100025b2 <_ftoa+0xfe>
10002520:	2200      	movs	r2, #0
10002522:	2300      	movs	r3, #0
10002524:	981e      	ldr	r0, [sp, #120]	; 0x78
10002526:	991f      	ldr	r1, [sp, #124]	; 0x7c
10002528:	f000 ffa2 	bl	10003470 <__wrap___aeabi_dcmplt>
1000252c:	2800      	cmp	r0, #0
1000252e:	d150      	bne.n	100025d2 <_ftoa+0x11e>
10002530:	2300      	movs	r3, #0
10002532:	4698      	mov	r8, r3
10002534:	9b22      	ldr	r3, [sp, #136]	; 0x88
10002536:	055b      	lsls	r3, r3, #21
10002538:	d400      	bmi.n	1000253c <_ftoa+0x88>
1000253a:	e0b6      	b.n	100026aa <_ftoa+0x1f6>
1000253c:	2400      	movs	r4, #0
1000253e:	e058      	b.n	100025f2 <_ftoa+0x13e>
10002540:	9b22      	ldr	r3, [sp, #136]	; 0x88
10002542:	9303      	str	r3, [sp, #12]
10002544:	9b21      	ldr	r3, [sp, #132]	; 0x84
10002546:	9302      	str	r3, [sp, #8]
10002548:	2303      	movs	r3, #3
1000254a:	9301      	str	r3, [sp, #4]
1000254c:	4ba8      	ldr	r3, [pc, #672]	; (100027f0 <_ftoa+0x33c>)
1000254e:	9300      	str	r3, [sp, #0]
10002550:	464b      	mov	r3, r9
10002552:	465a      	mov	r2, fp
10002554:	9907      	ldr	r1, [sp, #28]
10002556:	9806      	ldr	r0, [sp, #24]
10002558:	f7ff fbf2 	bl	10001d40 <_out_rev>
1000255c:	e10e      	b.n	1000277c <_ftoa+0x2c8>
1000255e:	9b22      	ldr	r3, [sp, #136]	; 0x88
10002560:	9303      	str	r3, [sp, #12]
10002562:	9b21      	ldr	r3, [sp, #132]	; 0x84
10002564:	9302      	str	r3, [sp, #8]
10002566:	2304      	movs	r3, #4
10002568:	9301      	str	r3, [sp, #4]
1000256a:	4ba2      	ldr	r3, [pc, #648]	; (100027f4 <_ftoa+0x340>)
1000256c:	9300      	str	r3, [sp, #0]
1000256e:	464b      	mov	r3, r9
10002570:	465a      	mov	r2, fp
10002572:	9907      	ldr	r1, [sp, #28]
10002574:	9806      	ldr	r0, [sp, #24]
10002576:	f7ff fbe3 	bl	10001d40 <_out_rev>
1000257a:	e0ff      	b.n	1000277c <_ftoa+0x2c8>
1000257c:	2304      	movs	r3, #4
1000257e:	9a22      	ldr	r2, [sp, #136]	; 0x88
10002580:	401a      	ands	r2, r3
10002582:	9922      	ldr	r1, [sp, #136]	; 0x88
10002584:	420b      	tst	r3, r1
10002586:	d010      	beq.n	100025aa <_ftoa+0xf6>
10002588:	4b9b      	ldr	r3, [pc, #620]	; (100027f8 <_ftoa+0x344>)
1000258a:	2a00      	cmp	r2, #0
1000258c:	d00f      	beq.n	100025ae <_ftoa+0xfa>
1000258e:	2204      	movs	r2, #4
10002590:	9922      	ldr	r1, [sp, #136]	; 0x88
10002592:	9103      	str	r1, [sp, #12]
10002594:	9921      	ldr	r1, [sp, #132]	; 0x84
10002596:	9102      	str	r1, [sp, #8]
10002598:	9201      	str	r2, [sp, #4]
1000259a:	9300      	str	r3, [sp, #0]
1000259c:	464b      	mov	r3, r9
1000259e:	465a      	mov	r2, fp
100025a0:	9907      	ldr	r1, [sp, #28]
100025a2:	9806      	ldr	r0, [sp, #24]
100025a4:	f7ff fbcc 	bl	10001d40 <_out_rev>
100025a8:	e0e8      	b.n	1000277c <_ftoa+0x2c8>
100025aa:	4b94      	ldr	r3, [pc, #592]	; (100027fc <_ftoa+0x348>)
100025ac:	e7ed      	b.n	1000258a <_ftoa+0xd6>
100025ae:	2203      	movs	r2, #3
100025b0:	e7ee      	b.n	10002590 <_ftoa+0xdc>
100025b2:	9b22      	ldr	r3, [sp, #136]	; 0x88
100025b4:	9304      	str	r3, [sp, #16]
100025b6:	9b21      	ldr	r3, [sp, #132]	; 0x84
100025b8:	9303      	str	r3, [sp, #12]
100025ba:	9702      	str	r7, [sp, #8]
100025bc:	9b1e      	ldr	r3, [sp, #120]	; 0x78
100025be:	9c1f      	ldr	r4, [sp, #124]	; 0x7c
100025c0:	9300      	str	r3, [sp, #0]
100025c2:	9401      	str	r4, [sp, #4]
100025c4:	464b      	mov	r3, r9
100025c6:	465a      	mov	r2, fp
100025c8:	9907      	ldr	r1, [sp, #28]
100025ca:	9806      	ldr	r0, [sp, #24]
100025cc:	f7ff fd68 	bl	100020a0 <_etoa>
100025d0:	e0d4      	b.n	1000277c <_ftoa+0x2c8>
100025d2:	9a1e      	ldr	r2, [sp, #120]	; 0x78
100025d4:	9b1f      	ldr	r3, [sp, #124]	; 0x7c
100025d6:	2000      	movs	r0, #0
100025d8:	2100      	movs	r1, #0
100025da:	f000 fed6 	bl	1000338a <__wrap___aeabi_dsub>
100025de:	901e      	str	r0, [sp, #120]	; 0x78
100025e0:	911f      	str	r1, [sp, #124]	; 0x7c
100025e2:	2301      	movs	r3, #1
100025e4:	4698      	mov	r8, r3
100025e6:	e7a5      	b.n	10002534 <_ftoa+0x80>
100025e8:	ab0c      	add	r3, sp, #48	; 0x30
100025ea:	2230      	movs	r2, #48	; 0x30
100025ec:	551a      	strb	r2, [r3, r4]
100025ee:	3f01      	subs	r7, #1
100025f0:	3401      	adds	r4, #1
100025f2:	2c1f      	cmp	r4, #31
100025f4:	d801      	bhi.n	100025fa <_ftoa+0x146>
100025f6:	2f09      	cmp	r7, #9
100025f8:	d8f6      	bhi.n	100025e8 <_ftoa+0x134>
100025fa:	981e      	ldr	r0, [sp, #120]	; 0x78
100025fc:	991f      	ldr	r1, [sp, #124]	; 0x7c
100025fe:	f000 ff7d 	bl	100034fc <__wrap___aeabi_d2iz>
10002602:	0005      	movs	r5, r0
10002604:	f000 ff62 	bl	100034cc <__wrap___aeabi_i2d>
10002608:	0002      	movs	r2, r0
1000260a:	000b      	movs	r3, r1
1000260c:	981e      	ldr	r0, [sp, #120]	; 0x78
1000260e:	991f      	ldr	r1, [sp, #124]	; 0x7c
10002610:	f000 febb 	bl	1000338a <__wrap___aeabi_dsub>
10002614:	00fa      	lsls	r2, r7, #3
10002616:	4b7a      	ldr	r3, [pc, #488]	; (10002800 <_ftoa+0x34c>)
10002618:	189b      	adds	r3, r3, r2
1000261a:	681a      	ldr	r2, [r3, #0]
1000261c:	685b      	ldr	r3, [r3, #4]
1000261e:	920a      	str	r2, [sp, #40]	; 0x28
10002620:	930b      	str	r3, [sp, #44]	; 0x2c
10002622:	f000 fee2 	bl	100033ea <__wrap___aeabi_dmul>
10002626:	9008      	str	r0, [sp, #32]
10002628:	9109      	str	r1, [sp, #36]	; 0x24
1000262a:	f000 ff8b 	bl	10003544 <__wrap___aeabi_d2uiz>
1000262e:	0006      	movs	r6, r0
10002630:	f000 ff48 	bl	100034c4 <__wrap___aeabi_ui2d>
10002634:	0002      	movs	r2, r0
10002636:	000b      	movs	r3, r1
10002638:	9808      	ldr	r0, [sp, #32]
1000263a:	9909      	ldr	r1, [sp, #36]	; 0x24
1000263c:	f000 fea5 	bl	1000338a <__wrap___aeabi_dsub>
10002640:	9008      	str	r0, [sp, #32]
10002642:	9109      	str	r1, [sp, #36]	; 0x24
10002644:	2200      	movs	r2, #0
10002646:	4b6f      	ldr	r3, [pc, #444]	; (10002804 <_ftoa+0x350>)
10002648:	f000 ff28 	bl	1000349c <__wrap___aeabi_dcmpgt>
1000264c:	2800      	cmp	r0, #0
1000264e:	d02e      	beq.n	100026ae <_ftoa+0x1fa>
10002650:	3601      	adds	r6, #1
10002652:	0030      	movs	r0, r6
10002654:	f000 ff36 	bl	100034c4 <__wrap___aeabi_ui2d>
10002658:	0002      	movs	r2, r0
1000265a:	000b      	movs	r3, r1
1000265c:	980a      	ldr	r0, [sp, #40]	; 0x28
1000265e:	990b      	ldr	r1, [sp, #44]	; 0x2c
10002660:	f000 ff0c 	bl	1000347c <__wrap___aeabi_dcmple>
10002664:	2800      	cmp	r0, #0
10002666:	d001      	beq.n	1000266c <_ftoa+0x1b8>
10002668:	3501      	adds	r5, #1
1000266a:	2600      	movs	r6, #0
1000266c:	2f00      	cmp	r7, #0
1000266e:	d12c      	bne.n	100026ca <_ftoa+0x216>
10002670:	0028      	movs	r0, r5
10002672:	f000 ff2b 	bl	100034cc <__wrap___aeabi_i2d>
10002676:	0002      	movs	r2, r0
10002678:	000b      	movs	r3, r1
1000267a:	981e      	ldr	r0, [sp, #120]	; 0x78
1000267c:	991f      	ldr	r1, [sp, #124]	; 0x7c
1000267e:	f000 fe84 	bl	1000338a <__wrap___aeabi_dsub>
10002682:	0006      	movs	r6, r0
10002684:	000f      	movs	r7, r1
10002686:	2200      	movs	r2, #0
10002688:	4b5e      	ldr	r3, [pc, #376]	; (10002804 <_ftoa+0x350>)
1000268a:	f000 fef1 	bl	10003470 <__wrap___aeabi_dcmplt>
1000268e:	2800      	cmp	r0, #0
10002690:	d146      	bne.n	10002720 <_ftoa+0x26c>
10002692:	2200      	movs	r2, #0
10002694:	4b5b      	ldr	r3, [pc, #364]	; (10002804 <_ftoa+0x350>)
10002696:	0030      	movs	r0, r6
10002698:	0039      	movs	r1, r7
1000269a:	f000 feff 	bl	1000349c <__wrap___aeabi_dcmpgt>
1000269e:	2800      	cmp	r0, #0
100026a0:	d13e      	bne.n	10002720 <_ftoa+0x26c>
100026a2:	07eb      	lsls	r3, r5, #31
100026a4:	d53c      	bpl.n	10002720 <_ftoa+0x26c>
100026a6:	3501      	adds	r5, #1
100026a8:	e03a      	b.n	10002720 <_ftoa+0x26c>
100026aa:	2706      	movs	r7, #6
100026ac:	e746      	b.n	1000253c <_ftoa+0x88>
100026ae:	2200      	movs	r2, #0
100026b0:	4b54      	ldr	r3, [pc, #336]	; (10002804 <_ftoa+0x350>)
100026b2:	9808      	ldr	r0, [sp, #32]
100026b4:	9909      	ldr	r1, [sp, #36]	; 0x24
100026b6:	f000 fedb 	bl	10003470 <__wrap___aeabi_dcmplt>
100026ba:	2800      	cmp	r0, #0
100026bc:	d1d6      	bne.n	1000266c <_ftoa+0x1b8>
100026be:	2e00      	cmp	r6, #0
100026c0:	d001      	beq.n	100026c6 <_ftoa+0x212>
100026c2:	07f3      	lsls	r3, r6, #31
100026c4:	d5d2      	bpl.n	1000266c <_ftoa+0x1b8>
100026c6:	3601      	adds	r6, #1
100026c8:	e7d0      	b.n	1000266c <_ftoa+0x1b8>
100026ca:	46aa      	mov	sl, r5
100026cc:	2c1f      	cmp	r4, #31
100026ce:	d811      	bhi.n	100026f4 <_ftoa+0x240>
100026d0:	3f01      	subs	r7, #1
100026d2:	210a      	movs	r1, #10
100026d4:	0030      	movs	r0, r6
100026d6:	f000 fc15 	bl	10002f04 <__wrap___aeabi_uidiv>
100026da:	1c65      	adds	r5, r4, #1
100026dc:	3130      	adds	r1, #48	; 0x30
100026de:	ab0c      	add	r3, sp, #48	; 0x30
100026e0:	5519      	strb	r1, [r3, r4]
100026e2:	210a      	movs	r1, #10
100026e4:	0030      	movs	r0, r6
100026e6:	f000 fc0d 	bl	10002f04 <__wrap___aeabi_uidiv>
100026ea:	2e09      	cmp	r6, #9
100026ec:	d90e      	bls.n	1000270c <_ftoa+0x258>
100026ee:	0006      	movs	r6, r0
100026f0:	002c      	movs	r4, r5
100026f2:	e7eb      	b.n	100026cc <_ftoa+0x218>
100026f4:	4655      	mov	r5, sl
100026f6:	2c1f      	cmp	r4, #31
100026f8:	d80c      	bhi.n	10002714 <_ftoa+0x260>
100026fa:	1e7b      	subs	r3, r7, #1
100026fc:	2f00      	cmp	r7, #0
100026fe:	d009      	beq.n	10002714 <_ftoa+0x260>
10002700:	aa0c      	add	r2, sp, #48	; 0x30
10002702:	2130      	movs	r1, #48	; 0x30
10002704:	5511      	strb	r1, [r2, r4]
10002706:	001f      	movs	r7, r3
10002708:	3401      	adds	r4, #1
1000270a:	e7f4      	b.n	100026f6 <_ftoa+0x242>
1000270c:	002b      	movs	r3, r5
1000270e:	4655      	mov	r5, sl
10002710:	001c      	movs	r4, r3
10002712:	e7f0      	b.n	100026f6 <_ftoa+0x242>
10002714:	2c1f      	cmp	r4, #31
10002716:	d803      	bhi.n	10002720 <_ftoa+0x26c>
10002718:	ab0c      	add	r3, sp, #48	; 0x30
1000271a:	222e      	movs	r2, #46	; 0x2e
1000271c:	551a      	strb	r2, [r3, r4]
1000271e:	3401      	adds	r4, #1
10002720:	2c1f      	cmp	r4, #31
10002722:	d810      	bhi.n	10002746 <_ftoa+0x292>
10002724:	210a      	movs	r1, #10
10002726:	0028      	movs	r0, r5
10002728:	f000 fbc4 	bl	10002eb4 <__wrap___aeabi_idiv>
1000272c:	1c66      	adds	r6, r4, #1
1000272e:	3130      	adds	r1, #48	; 0x30
10002730:	ab0c      	add	r3, sp, #48	; 0x30
10002732:	5519      	strb	r1, [r3, r4]
10002734:	210a      	movs	r1, #10
10002736:	0028      	movs	r0, r5
10002738:	f000 fbbc 	bl	10002eb4 <__wrap___aeabi_idiv>
1000273c:	1e05      	subs	r5, r0, #0
1000273e:	d001      	beq.n	10002744 <_ftoa+0x290>
10002740:	0034      	movs	r4, r6
10002742:	e7ed      	b.n	10002720 <_ftoa+0x26c>
10002744:	0034      	movs	r4, r6
10002746:	2303      	movs	r3, #3
10002748:	9a22      	ldr	r2, [sp, #136]	; 0x88
1000274a:	4013      	ands	r3, r2
1000274c:	2b01      	cmp	r3, #1
1000274e:	d01c      	beq.n	1000278a <_ftoa+0x2d6>
10002750:	2c1f      	cmp	r4, #31
10002752:	d806      	bhi.n	10002762 <_ftoa+0x2ae>
10002754:	4643      	mov	r3, r8
10002756:	2b00      	cmp	r3, #0
10002758:	d032      	beq.n	100027c0 <_ftoa+0x30c>
1000275a:	ab0c      	add	r3, sp, #48	; 0x30
1000275c:	222d      	movs	r2, #45	; 0x2d
1000275e:	551a      	strb	r2, [r3, r4]
10002760:	3401      	adds	r4, #1
10002762:	9b22      	ldr	r3, [sp, #136]	; 0x88
10002764:	9303      	str	r3, [sp, #12]
10002766:	9b21      	ldr	r3, [sp, #132]	; 0x84
10002768:	9302      	str	r3, [sp, #8]
1000276a:	9401      	str	r4, [sp, #4]
1000276c:	ab0c      	add	r3, sp, #48	; 0x30
1000276e:	9300      	str	r3, [sp, #0]
10002770:	464b      	mov	r3, r9
10002772:	465a      	mov	r2, fp
10002774:	9907      	ldr	r1, [sp, #28]
10002776:	9806      	ldr	r0, [sp, #24]
10002778:	f7ff fae2 	bl	10001d40 <_out_rev>
1000277c:	b015      	add	sp, #84	; 0x54
1000277e:	bcf0      	pop	{r4, r5, r6, r7}
10002780:	46bb      	mov	fp, r7
10002782:	46b2      	mov	sl, r6
10002784:	46a9      	mov	r9, r5
10002786:	46a0      	mov	r8, r4
10002788:	bdf0      	pop	{r4, r5, r6, r7, pc}
1000278a:	9b21      	ldr	r3, [sp, #132]	; 0x84
1000278c:	2b00      	cmp	r3, #0
1000278e:	d013      	beq.n	100027b8 <_ftoa+0x304>
10002790:	4643      	mov	r3, r8
10002792:	2b00      	cmp	r3, #0
10002794:	d102      	bne.n	1000279c <_ftoa+0x2e8>
10002796:	330c      	adds	r3, #12
10002798:	4213      	tst	r3, r2
1000279a:	d00f      	beq.n	100027bc <_ftoa+0x308>
1000279c:	9b21      	ldr	r3, [sp, #132]	; 0x84
1000279e:	3b01      	subs	r3, #1
100027a0:	9321      	str	r3, [sp, #132]	; 0x84
100027a2:	0019      	movs	r1, r3
100027a4:	e003      	b.n	100027ae <_ftoa+0x2fa>
100027a6:	ab0c      	add	r3, sp, #48	; 0x30
100027a8:	2230      	movs	r2, #48	; 0x30
100027aa:	551a      	strb	r2, [r3, r4]
100027ac:	3401      	adds	r4, #1
100027ae:	428c      	cmp	r4, r1
100027b0:	d2ce      	bcs.n	10002750 <_ftoa+0x29c>
100027b2:	2c1f      	cmp	r4, #31
100027b4:	d9f7      	bls.n	100027a6 <_ftoa+0x2f2>
100027b6:	e7cb      	b.n	10002750 <_ftoa+0x29c>
100027b8:	9921      	ldr	r1, [sp, #132]	; 0x84
100027ba:	e7f8      	b.n	100027ae <_ftoa+0x2fa>
100027bc:	9921      	ldr	r1, [sp, #132]	; 0x84
100027be:	e7f6      	b.n	100027ae <_ftoa+0x2fa>
100027c0:	9b22      	ldr	r3, [sp, #136]	; 0x88
100027c2:	075b      	lsls	r3, r3, #29
100027c4:	d504      	bpl.n	100027d0 <_ftoa+0x31c>
100027c6:	ab0c      	add	r3, sp, #48	; 0x30
100027c8:	222b      	movs	r2, #43	; 0x2b
100027ca:	551a      	strb	r2, [r3, r4]
100027cc:	3401      	adds	r4, #1
100027ce:	e7c8      	b.n	10002762 <_ftoa+0x2ae>
100027d0:	9b22      	ldr	r3, [sp, #136]	; 0x88
100027d2:	071b      	lsls	r3, r3, #28
100027d4:	d5c5      	bpl.n	10002762 <_ftoa+0x2ae>
100027d6:	ab0c      	add	r3, sp, #48	; 0x30
100027d8:	2220      	movs	r2, #32
100027da:	551a      	strb	r2, [r3, r4]
100027dc:	3401      	adds	r4, #1
100027de:	e7c0      	b.n	10002762 <_ftoa+0x2ae>
100027e0:	ffefffff 	.word	0xffefffff
100027e4:	7fefffff 	.word	0x7fefffff
100027e8:	41cdcd65 	.word	0x41cdcd65
100027ec:	c1cdcd65 	.word	0xc1cdcd65
100027f0:	10004e54 	.word	0x10004e54
100027f4:	10004e58 	.word	0x10004e58
100027f8:	10004e4c 	.word	0x10004e4c
100027fc:	10004e48 	.word	0x10004e48
10002800:	10005040 	.word	0x10005040
10002804:	3fe00000 	.word	0x3fe00000

10002808 <_vsnprintf>:
10002808:	b5f0      	push	{r4, r5, r6, r7, lr}
1000280a:	46de      	mov	lr, fp
1000280c:	4657      	mov	r7, sl
1000280e:	464e      	mov	r6, r9
10002810:	4645      	mov	r5, r8
10002812:	b5e0      	push	{r5, r6, r7, lr}
10002814:	b093      	sub	sp, #76	; 0x4c
10002816:	4682      	mov	sl, r0
10002818:	468b      	mov	fp, r1
1000281a:	4690      	mov	r8, r2
1000281c:	9311      	str	r3, [sp, #68]	; 0x44
1000281e:	2900      	cmp	r1, #0
10002820:	d100      	bne.n	10002824 <_vsnprintf+0x1c>
10002822:	e2eb      	b.n	10002dfc <_vsnprintf+0x5f4>
10002824:	2700      	movs	r7, #0
10002826:	4655      	mov	r5, sl
10002828:	9b11      	ldr	r3, [sp, #68]	; 0x44
1000282a:	7818      	ldrb	r0, [r3, #0]
1000282c:	2800      	cmp	r0, #0
1000282e:	d100      	bne.n	10002832 <_vsnprintf+0x2a>
10002830:	e2e7      	b.n	10002e02 <_vsnprintf+0x5fa>
10002832:	2825      	cmp	r0, #37	; 0x25
10002834:	d009      	beq.n	1000284a <_vsnprintf+0x42>
10002836:	1c7c      	adds	r4, r7, #1
10002838:	4643      	mov	r3, r8
1000283a:	003a      	movs	r2, r7
1000283c:	4659      	mov	r1, fp
1000283e:	47a8      	blx	r5
10002840:	9b11      	ldr	r3, [sp, #68]	; 0x44
10002842:	3301      	adds	r3, #1
10002844:	9311      	str	r3, [sp, #68]	; 0x44
10002846:	0027      	movs	r7, r4
10002848:	e7ee      	b.n	10002828 <_vsnprintf+0x20>
1000284a:	3301      	adds	r3, #1
1000284c:	9311      	str	r3, [sp, #68]	; 0x44
1000284e:	2400      	movs	r4, #0
10002850:	9a11      	ldr	r2, [sp, #68]	; 0x44
10002852:	7811      	ldrb	r1, [r2, #0]
10002854:	000b      	movs	r3, r1
10002856:	3b20      	subs	r3, #32
10002858:	b2d8      	uxtb	r0, r3
1000285a:	2810      	cmp	r0, #16
1000285c:	d803      	bhi.n	10002866 <_vsnprintf+0x5e>
1000285e:	0083      	lsls	r3, r0, #2
10002860:	48d0      	ldr	r0, [pc, #832]	; (10002ba4 <_vsnprintf+0x39c>)
10002862:	58c3      	ldr	r3, [r0, r3]
10002864:	469f      	mov	pc, r3
10002866:	000b      	movs	r3, r1
10002868:	3b30      	subs	r3, #48	; 0x30
1000286a:	b2db      	uxtb	r3, r3
1000286c:	2b09      	cmp	r3, #9
1000286e:	d92c      	bls.n	100028ca <_vsnprintf+0xc2>
10002870:	292a      	cmp	r1, #42	; 0x2a
10002872:	d02f      	beq.n	100028d4 <_vsnprintf+0xcc>
10002874:	2300      	movs	r3, #0
10002876:	930a      	str	r3, [sp, #40]	; 0x28
10002878:	9b11      	ldr	r3, [sp, #68]	; 0x44
1000287a:	781a      	ldrb	r2, [r3, #0]
1000287c:	2a2e      	cmp	r2, #46	; 0x2e
1000287e:	d039      	beq.n	100028f4 <_vsnprintf+0xec>
10002880:	2300      	movs	r3, #0
10002882:	469a      	mov	sl, r3
10002884:	9a11      	ldr	r2, [sp, #68]	; 0x44
10002886:	7813      	ldrb	r3, [r2, #0]
10002888:	3b68      	subs	r3, #104	; 0x68
1000288a:	b2d9      	uxtb	r1, r3
1000288c:	2912      	cmp	r1, #18
1000288e:	d876      	bhi.n	1000297e <_vsnprintf+0x176>
10002890:	008b      	lsls	r3, r1, #2
10002892:	49c5      	ldr	r1, [pc, #788]	; (10002ba8 <_vsnprintf+0x3a0>)
10002894:	58cb      	ldr	r3, [r1, r3]
10002896:	469f      	mov	pc, r3
10002898:	2301      	movs	r3, #1
1000289a:	431c      	orrs	r4, r3
1000289c:	3201      	adds	r2, #1
1000289e:	9211      	str	r2, [sp, #68]	; 0x44
100028a0:	e7d6      	b.n	10002850 <_vsnprintf+0x48>
100028a2:	2302      	movs	r3, #2
100028a4:	431c      	orrs	r4, r3
100028a6:	3201      	adds	r2, #1
100028a8:	9211      	str	r2, [sp, #68]	; 0x44
100028aa:	e7d1      	b.n	10002850 <_vsnprintf+0x48>
100028ac:	2304      	movs	r3, #4
