
/Users/nehan/pico/pico-apps/build/labs/lab04/lab04.elf:     file format elf32-littlearm

Sections:
Idx Name          Size      VMA       LMA       File off  Algn
  0 .boot2        00000100  10000000  10000000  00001000  2**0
                  CONTENTS, ALLOC, LOAD, READONLY, CODE
  1 .text         00004028  10000100  10000100  00001100  2**4
                  CONTENTS, ALLOC, LOAD, READONLY, CODE
  2 .rodata       00000e3c  10004128  10004128  00005128  2**3
                  CONTENTS, ALLOC, LOAD, READONLY, DATA
  3 .binary_info  00000020  10004f64  10004f64  00005f64  2**2
                  CONTENTS, ALLOC, LOAD, DATA
  4 .ram_vector_table 000000c0  20000000  20000000  0000626c  2**2
                  CONTENTS
  5 .data         000001ac  200000c0  10004f84  000060c0  2**4
                  CONTENTS, ALLOC, LOAD, READONLY, CODE
  6 .uninitialized_data 00000000  2000026c  2000026c  0000632c  2**0
                  CONTENTS
  7 .scratch_x    00000000  20040000  20040000  0000632c  2**0
                  CONTENTS
  8 .scratch_y    00000000  20041000  20041000  0000632c  2**0
                  CONTENTS
  9 .bss          000003c8  20000270  20000270  00006270  2**3
                  ALLOC
 10 .heap         00000800  20000638  20000638  0000632c  2**2
                  CONTENTS, READONLY
 11 .stack_dummy  00000800  20041000  20041000  00006b40  2**5
                  CONTENTS, READONLY
 12 .ARM.attributes 00000028  00000000  00000000  00007340  2**0
                  CONTENTS, READONLY
 13 .comment      00000049  00000000  00000000  00007368  2**0
                  CONTENTS, READONLY
 14 .debug_info   000122de  00000000  00000000  000073b1  2**0
                  CONTENTS, READONLY, DEBUGGING, OCTETS
 15 .debug_abbrev 00003995  00000000  00000000  0001968f  2**0
                  CONTENTS, READONLY, DEBUGGING, OCTETS
 16 .debug_loc    0000cbd1  00000000  00000000  0001d024  2**0
                  CONTENTS, READONLY, DEBUGGING, OCTETS
 17 .debug_aranges 00000d18  00000000  00000000  00029bf8  2**3
                  CONTENTS, READONLY, DEBUGGING, OCTETS
 18 .debug_ranges 00002bd0  00000000  00000000  0002a910  2**3
                  CONTENTS, READONLY, DEBUGGING, OCTETS
 19 .debug_line   0000c76b  00000000  00000000  0002d4e0  2**0
                  CONTENTS, READONLY, DEBUGGING, OCTETS
 20 .debug_str    00002ec9  00000000  00000000  00039c4b  2**0
                  CONTENTS, READONLY, DEBUGGING, OCTETS
 21 .debug_frame  000014e0  00000000  00000000  0003cb14  2**2
                  CONTENTS, READONLY, DEBUGGING, OCTETS

/Users/nehan/pico/pico-apps/build/labs/lab04/lab04.elf:     file format elf32-littlearm


Disassembly of section .boot2:

10000000 <__boot2_start__>:
10000000:	4b32b500 	.word	0x4b32b500
10000004:	60582021 	.word	0x60582021
10000008:	21026898 	.word	0x21026898
1000000c:	60984388 	.word	0x60984388
10000010:	611860d8 	.word	0x611860d8
10000014:	4b2e6158 	.word	0x4b2e6158
10000018:	60992100 	.word	0x60992100
1000001c:	61592102 	.word	0x61592102
10000020:	22f02101 	.word	0x22f02101
10000024:	492b5099 	.word	0x492b5099
10000028:	21016019 	.word	0x21016019
1000002c:	20356099 	.word	0x20356099
10000030:	f844f000 	.word	0xf844f000
10000034:	42902202 	.word	0x42902202
10000038:	2106d014 	.word	0x2106d014
1000003c:	f0006619 	.word	0xf0006619
10000040:	6e19f834 	.word	0x6e19f834
10000044:	66192101 	.word	0x66192101
10000048:	66182000 	.word	0x66182000
1000004c:	f000661a 	.word	0xf000661a
10000050:	6e19f82c 	.word	0x6e19f82c
10000054:	6e196e19 	.word	0x6e196e19
10000058:	f0002005 	.word	0xf0002005
1000005c:	2101f82f 	.word	0x2101f82f
10000060:	d1f94208 	.word	0xd1f94208
10000064:	60992100 	.word	0x60992100
10000068:	6019491b 	.word	0x6019491b
1000006c:	60592100 	.word	0x60592100
10000070:	481b491a 	.word	0x481b491a
10000074:	21016001 	.word	0x21016001
10000078:	21eb6099 	.word	0x21eb6099
1000007c:	21a06619 	.word	0x21a06619
10000080:	f0006619 	.word	0xf0006619
10000084:	2100f812 	.word	0x2100f812
10000088:	49166099 	.word	0x49166099
1000008c:	60014814 	.word	0x60014814
10000090:	60992101 	.word	0x60992101
10000094:	2800bc01 	.word	0x2800bc01
10000098:	4700d000 	.word	0x4700d000
1000009c:	49134812 	.word	0x49134812
100000a0:	c8036008 	.word	0xc8036008
100000a4:	8808f380 	.word	0x8808f380
100000a8:	b5034708 	.word	0xb5034708
100000ac:	20046a99 	.word	0x20046a99
100000b0:	d0fb4201 	.word	0xd0fb4201
100000b4:	42012001 	.word	0x42012001
100000b8:	bd03d1f8 	.word	0xbd03d1f8
100000bc:	6618b502 	.word	0x6618b502
100000c0:	f7ff6618 	.word	0xf7ff6618
100000c4:	6e18fff2 	.word	0x6e18fff2
100000c8:	bd026e18 	.word	0xbd026e18
100000cc:	40020000 	.word	0x40020000
100000d0:	18000000 	.word	0x18000000
100000d4:	00070000 	.word	0x00070000
100000d8:	005f0300 	.word	0x005f0300
100000dc:	00002221 	.word	0x00002221
100000e0:	180000f4 	.word	0x180000f4
100000e4:	a0002022 	.word	0xa0002022
100000e8:	10000100 	.word	0x10000100
100000ec:	e000ed08 	.word	0xe000ed08
	...
100000fc:	7a4eb274 	.word	0x7a4eb274

Disassembly of section .text:

10000100 <__VECTOR_TABLE>:
10000100:	20042000 	.word	0x20042000
10000104:	100001f7 	.word	0x100001f7
10000108:	100001c3 	.word	0x100001c3
1000010c:	100001c5 	.word	0x100001c5
10000110:	100001c1 	.word	0x100001c1
10000114:	100001c1 	.word	0x100001c1
10000118:	100001c1 	.word	0x100001c1
1000011c:	100001c1 	.word	0x100001c1
10000120:	100001c1 	.word	0x100001c1
10000124:	100001c1 	.word	0x100001c1
10000128:	100001c1 	.word	0x100001c1
1000012c:	100001c7 	.word	0x100001c7
10000130:	100001c1 	.word	0x100001c1
10000134:	100001c1 	.word	0x100001c1
10000138:	100001c9 	.word	0x100001c9
1000013c:	100001cb 	.word	0x100001cb
10000140:	100001cd 	.word	0x100001cd
10000144:	100001cd 	.word	0x100001cd
10000148:	100001cd 	.word	0x100001cd
1000014c:	100001cd 	.word	0x100001cd
10000150:	100001cd 	.word	0x100001cd
10000154:	100001cd 	.word	0x100001cd
10000158:	100001cd 	.word	0x100001cd
1000015c:	100001cd 	.word	0x100001cd
10000160:	100001cd 	.word	0x100001cd
10000164:	100001cd 	.word	0x100001cd
10000168:	100001cd 	.word	0x100001cd
1000016c:	100001cd 	.word	0x100001cd
10000170:	100001cd 	.word	0x100001cd
10000174:	100001cd 	.word	0x100001cd
10000178:	100001cd 	.word	0x100001cd
1000017c:	100001cd 	.word	0x100001cd
10000180:	100001cd 	.word	0x100001cd
10000184:	100001cd 	.word	0x100001cd
10000188:	100001cd 	.word	0x100001cd
1000018c:	100001cd 	.word	0x100001cd
10000190:	100001cd 	.word	0x100001cd
10000194:	100001cd 	.word	0x100001cd
10000198:	100001cd 	.word	0x100001cd
1000019c:	100001cd 	.word	0x100001cd
100001a0:	100001cd 	.word	0x100001cd
100001a4:	100001cd 	.word	0x100001cd
100001a8:	100001cd 	.word	0x100001cd
100001ac:	100001cd 	.word	0x100001cd
100001b0:	100001cd 	.word	0x100001cd
100001b4:	100001cd 	.word	0x100001cd
100001b8:	100001cd 	.word	0x100001cd
100001bc:	100001cd 	.word	0x100001cd

100001c0 <isr_invalid>:
100001c0:	be00      	bkpt	0x0000

100001c2 <isr_nmi>:
100001c2:	be00      	bkpt	0x0000

100001c4 <isr_hardfault>:
100001c4:	be00      	bkpt	0x0000

100001c6 <isr_svcall>:
100001c6:	be00      	bkpt	0x0000

100001c8 <isr_pendsv>:
100001c8:	be00      	bkpt	0x0000

100001ca <isr_systick>:
100001ca:	be00      	bkpt	0x0000

100001cc <__unhandled_user_irq>:
100001cc:	f000 f84b 	bl	10000266 <__get_current_exception>
100001d0:	3810      	subs	r0, #16

100001d2 <unhandled_user_irq_num_in_r0>:
100001d2:	be00      	bkpt	0x0000

100001d4 <binary_info_header>:
100001d4:	7188ebf2 	.word	0x7188ebf2
100001d8:	10004f64 	.word	0x10004f64
100001dc:	10004f84 	.word	0x10004f84
100001e0:	10000234 	.word	0x10000234
100001e4:	e71aa390 	.word	0xe71aa390

100001e8 <_entry_point>:
100001e8:	2000      	movs	r0, #0
100001ea:	4921      	ldr	r1, [pc, #132]	; (10000270 <__get_current_exception+0xa>)
100001ec:	6008      	str	r0, [r1, #0]
100001ee:	c806      	ldmia	r0!, {r1, r2}
100001f0:	f381 8808 	msr	MSP, r1
100001f4:	4710      	bx	r2

100001f6 <_reset_handler>:
100001f6:	481f      	ldr	r0, [pc, #124]	; (10000274 <__get_current_exception+0xe>)
100001f8:	6800      	ldr	r0, [r0, #0]
100001fa:	2800      	cmp	r0, #0
100001fc:	d12f      	bne.n	1000025e <hold_non_core0_in_bootrom>
100001fe:	a40d      	add	r4, pc, #52	; (adr r4, 10000234 <data_cpy_table>)
10000200:	cc0e      	ldmia	r4!, {r1, r2, r3}
10000202:	2900      	cmp	r1, #0
10000204:	d002      	beq.n	1000020c <_reset_handler+0x16>
10000206:	f000 f812 	bl	1000022e <data_cpy>
1000020a:	e7f9      	b.n	10000200 <_reset_handler+0xa>
1000020c:	491a      	ldr	r1, [pc, #104]	; (10000278 <__get_current_exception+0x12>)
1000020e:	4a1b      	ldr	r2, [pc, #108]	; (1000027c <__get_current_exception+0x16>)
10000210:	2000      	movs	r0, #0
10000212:	e000      	b.n	10000216 <bss_fill_test>

10000214 <bss_fill_loop>:
10000214:	c101      	stmia	r1!, {r0}

10000216 <bss_fill_test>:
10000216:	4291      	cmp	r1, r2
10000218:	d1fc      	bne.n	10000214 <bss_fill_loop>

1000021a <platform_entry>:
1000021a:	4919      	ldr	r1, [pc, #100]	; (10000280 <__get_current_exception+0x1a>)
1000021c:	4788      	blx	r1
1000021e:	4919      	ldr	r1, [pc, #100]	; (10000284 <__get_current_exception+0x1e>)
10000220:	4788      	blx	r1
10000222:	4919      	ldr	r1, [pc, #100]	; (10000288 <__get_current_exception+0x22>)
10000224:	4788      	blx	r1
10000226:	be00      	bkpt	0x0000
10000228:	e7fd      	b.n	10000226 <platform_entry+0xc>

1000022a <data_cpy_loop>:
1000022a:	c901      	ldmia	r1!, {r0}
1000022c:	c201      	stmia	r2!, {r0}

1000022e <data_cpy>:
1000022e:	429a      	cmp	r2, r3
10000230:	d3fb      	bcc.n	1000022a <data_cpy_loop>
10000232:	4770      	bx	lr

10000234 <data_cpy_table>:
10000234:	10004f84 	.word	0x10004f84
10000238:	200000c0 	.word	0x200000c0
1000023c:	2000026c 	.word	0x2000026c
10000240:	10005130 	.word	0x10005130
10000244:	20040000 	.word	0x20040000
10000248:	20040000 	.word	0x20040000
1000024c:	10005130 	.word	0x10005130
10000250:	20041000 	.word	0x20041000
10000254:	20041000 	.word	0x20041000
10000258:	00000000 	.word	0x00000000
1000025c:	4770      	bx	lr

1000025e <hold_non_core0_in_bootrom>:
1000025e:	480b      	ldr	r0, [pc, #44]	; (1000028c <__get_current_exception+0x26>)
10000260:	f002 fe76 	bl	10002f50 <rom_func_lookup>
10000264:	4700      	bx	r0

10000266 <__get_current_exception>:
10000266:	f3ef 8005 	mrs	r0, IPSR
1000026a:	b2c0      	uxtb	r0, r0
1000026c:	4770      	bx	lr
1000026e:	0000      	.short	0x0000
10000270:	e000ed08 	.word	0xe000ed08
10000274:	d0000000 	.word	0xd0000000
10000278:	20000270 	.word	0x20000270
1000027c:	20000638 	.word	0x20000638
10000280:	10001585 	.word	0x10001585
10000284:	10000353 	.word	0x10000353
10000288:	10001541 	.word	0x10001541
1000028c:	00005657 	.word	0x00005657

10000290 <__bi_50>:
10000290:	50520006 5360b3ab 10004f14              ..RP..`S.O..

1000029c <__bi_38>:
1000029c:	50520006 02031c86 10004f0c              ..RP.....O..

100002a8 <__bi_30>:
100002a8:	50520006 9da22254 10004f24              ..RPT"..$O..

100002b4 <__bi_22>:
100002b4:	50520005 68f465de 10005130              ..RP.e.h0Q..

100002c0 <_init>:
100002c0:	b5f8      	push	{r3, r4, r5, r6, r7, lr}
100002c2:	46c0      	nop			; (mov r8, r8)

100002c4 <__do_global_dtors_aux>:
100002c4:	b510      	push	{r4, lr}
100002c6:	4c06      	ldr	r4, [pc, #24]	; (100002e0 <__do_global_dtors_aux+0x1c>)
100002c8:	7823      	ldrb	r3, [r4, #0]
100002ca:	2b00      	cmp	r3, #0
100002cc:	d107      	bne.n	100002de <__do_global_dtors_aux+0x1a>
100002ce:	4b05      	ldr	r3, [pc, #20]	; (100002e4 <__do_global_dtors_aux+0x20>)
100002d0:	2b00      	cmp	r3, #0
100002d2:	d002      	beq.n	100002da <__do_global_dtors_aux+0x16>
100002d4:	4804      	ldr	r0, [pc, #16]	; (100002e8 <__do_global_dtors_aux+0x24>)
100002d6:	e000      	b.n	100002da <__do_global_dtors_aux+0x16>
100002d8:	bf00      	nop
100002da:	2301      	movs	r3, #1
100002dc:	7023      	strb	r3, [r4, #0]
100002de:	bd10      	pop	{r4, pc}
100002e0:	20000370 	.word	0x20000370
100002e4:	00000000 	.word	0x00000000
100002e8:	10004128 	.word	0x10004128

100002ec <frame_dummy>:
100002ec:	4b04      	ldr	r3, [pc, #16]	; (10000300 <frame_dummy+0x14>)
100002ee:	b510      	push	{r4, lr}
100002f0:	2b00      	cmp	r3, #0
100002f2:	d003      	beq.n	100002fc <frame_dummy+0x10>
100002f4:	4903      	ldr	r1, [pc, #12]	; (10000304 <frame_dummy+0x18>)
100002f6:	4804      	ldr	r0, [pc, #16]	; (10000308 <frame_dummy+0x1c>)
100002f8:	e000      	b.n	100002fc <frame_dummy+0x10>
100002fa:	bf00      	nop
100002fc:	bd10      	pop	{r4, pc}
100002fe:	46c0      	nop			; (mov r8, r8)
10000300:	00000000 	.word	0x00000000
10000304:	20000374 	.word	0x20000374
10000308:	10004128 	.word	0x10004128

1000030c <asm_gpio_init>:
1000030c:	b510      	push	{r4, lr}
1000030e:	f000 f85b 	bl	100003c8 <gpio_init>
10000312:	bd10      	pop	{r4, pc}

10000314 <asm_gpio_set_dir>:
10000314:	2301      	movs	r3, #1
10000316:	4083      	lsls	r3, r0
10000318:	2900      	cmp	r1, #0
1000031a:	d003      	beq.n	10000324 <asm_gpio_set_dir+0x10>
1000031c:	22d0      	movs	r2, #208	; 0xd0
1000031e:	0612      	lsls	r2, r2, #24
10000320:	6253      	str	r3, [r2, #36]	; 0x24
10000322:	4770      	bx	lr
10000324:	22d0      	movs	r2, #208	; 0xd0
10000326:	0612      	lsls	r2, r2, #24
10000328:	6293      	str	r3, [r2, #40]	; 0x28
1000032a:	e7fa      	b.n	10000322 <asm_gpio_set_dir+0xe>

1000032c <asm_gpio_get>:
1000032c:	23d0      	movs	r3, #208	; 0xd0
1000032e:	061b      	lsls	r3, r3, #24
10000330:	685b      	ldr	r3, [r3, #4]
10000332:	40c3      	lsrs	r3, r0
10000334:	2001      	movs	r0, #1
10000336:	4018      	ands	r0, r3
10000338:	4770      	bx	lr

1000033a <asm_gpio_put>:
1000033a:	2301      	movs	r3, #1
1000033c:	4083      	lsls	r3, r0
1000033e:	2900      	cmp	r1, #0
10000340:	d003      	beq.n	1000034a <asm_gpio_put+0x10>
10000342:	22d0      	movs	r2, #208	; 0xd0
10000344:	0612      	lsls	r2, r2, #24
10000346:	6153      	str	r3, [r2, #20]
10000348:	4770      	bx	lr
1000034a:	22d0      	movs	r2, #208	; 0xd0
1000034c:	0612      	lsls	r2, r2, #24
1000034e:	6193      	str	r3, [r2, #24]
10000350:	e7fa      	b.n	10000348 <asm_gpio_put+0xe>

10000352 <main>:
10000352:	b510      	push	{r4, lr}
10000354:	f000 f804 	bl	10000360 <main_asm>
10000358:	2000      	movs	r0, #0
1000035a:	bd10      	pop	{r4, pc}
1000035c:	0000      	movs	r0, r0
	...

10000360 <main_asm>:
10000360:	2019      	movs	r0, #25
10000362:	f7ff ffd3 	bl	1000030c <asm_gpio_init>
10000366:	2019      	movs	r0, #25
10000368:	2101      	movs	r1, #1
1000036a:	f7ff ffd3 	bl	10000314 <asm_gpio_set_dir>

1000036e <loop>:
1000036e:	4809      	ldr	r0, [pc, #36]	; (10000394 <led_set_state+0x8>)
10000370:	f000 fd58 	bl	10000e24 <sleep_ms>
10000374:	f000 f801 	bl	1000037a <sub_toggle>
10000378:	e7f9      	b.n	1000036e <loop>

1000037a <sub_toggle>:
1000037a:	b500      	push	{lr}
1000037c:	2019      	movs	r0, #25
1000037e:	f7ff ffd5 	bl	1000032c <asm_gpio_get>
10000382:	2800      	cmp	r0, #0
10000384:	d001      	beq.n	1000038a <led_set_on>

10000386 <led_set_off>:
10000386:	2100      	movs	r1, #0
10000388:	e000      	b.n	1000038c <led_set_state>

1000038a <led_set_on>:
1000038a:	2101      	movs	r1, #1

1000038c <led_set_state>:
1000038c:	2019      	movs	r0, #25
1000038e:	f7ff ffd4 	bl	1000033a <asm_gpio_put>
10000392:	bd00      	pop	{pc}
10000394:	000001f4 	.word	0x000001f4

10000398 <gpio_set_function>:
10000398:	b510      	push	{r4, lr}
1000039a:	0083      	lsls	r3, r0, #2
1000039c:	4a08      	ldr	r2, [pc, #32]	; (100003c0 <gpio_set_function+0x28>)
1000039e:	4694      	mov	ip, r2
100003a0:	4463      	add	r3, ip
100003a2:	681c      	ldr	r4, [r3, #0]
100003a4:	2240      	movs	r2, #64	; 0x40
100003a6:	4062      	eors	r2, r4
100003a8:	24c0      	movs	r4, #192	; 0xc0
100003aa:	4014      	ands	r4, r2
100003ac:	2280      	movs	r2, #128	; 0x80
100003ae:	0152      	lsls	r2, r2, #5
100003b0:	4313      	orrs	r3, r2
100003b2:	601c      	str	r4, [r3, #0]
100003b4:	00c0      	lsls	r0, r0, #3
100003b6:	4b03      	ldr	r3, [pc, #12]	; (100003c4 <gpio_set_function+0x2c>)
100003b8:	469c      	mov	ip, r3
100003ba:	4460      	add	r0, ip
100003bc:	6041      	str	r1, [r0, #4]
100003be:	bd10      	pop	{r4, pc}
100003c0:	4001c004 	.word	0x4001c004
100003c4:	40014000 	.word	0x40014000

100003c8 <gpio_init>:
100003c8:	b510      	push	{r4, lr}
100003ca:	2301      	movs	r3, #1
100003cc:	4083      	lsls	r3, r0
100003ce:	22d0      	movs	r2, #208	; 0xd0
100003d0:	0612      	lsls	r2, r2, #24
100003d2:	6293      	str	r3, [r2, #40]	; 0x28
100003d4:	6193      	str	r3, [r2, #24]
100003d6:	2105      	movs	r1, #5
100003d8:	f7ff ffde 	bl	10000398 <gpio_set_function>
100003dc:	bd10      	pop	{r4, pc}
	...

100003e0 <hw_claim_lock>:
100003e0:	f3ef 8010 	mrs	r0, PRIMASK
100003e4:	b672      	cpsid	i
100003e6:	4b03      	ldr	r3, [pc, #12]	; (100003f4 <hw_claim_lock+0x14>)
100003e8:	681b      	ldr	r3, [r3, #0]
100003ea:	2b00      	cmp	r3, #0
100003ec:	d0fb      	beq.n	100003e6 <hw_claim_lock+0x6>
100003ee:	f3bf 8f5f 	dmb	sy
100003f2:	4770      	bx	lr
100003f4:	d000012c 	.word	0xd000012c

100003f8 <hw_claim_unlock>:
100003f8:	f3bf 8f5f 	dmb	sy
100003fc:	4b02      	ldr	r3, [pc, #8]	; (10000408 <hw_claim_unlock+0x10>)
100003fe:	2200      	movs	r2, #0
10000400:	601a      	str	r2, [r3, #0]
10000402:	f380 8810 	msr	PRIMASK, r0
10000406:	4770      	bx	lr
10000408:	d000012c 	.word	0xd000012c

1000040c <hw_claim_or_assert>:
1000040c:	b5f8      	push	{r3, r4, r5, r6, r7, lr}
1000040e:	0006      	movs	r6, r0
10000410:	000c      	movs	r4, r1
10000412:	0015      	movs	r5, r2
10000414:	f7ff ffe4 	bl	100003e0 <hw_claim_lock>
10000418:	08e3      	lsrs	r3, r4, #3
1000041a:	18f7      	adds	r7, r6, r3
1000041c:	5cf1      	ldrb	r1, [r6, r3]
1000041e:	2207      	movs	r2, #7
10000420:	4022      	ands	r2, r4
10000422:	2301      	movs	r3, #1
10000424:	4093      	lsls	r3, r2
10000426:	420b      	tst	r3, r1
10000428:	d105      	bne.n	10000436 <hw_claim_or_assert+0x2a>
1000042a:	b2db      	uxtb	r3, r3
1000042c:	430b      	orrs	r3, r1
1000042e:	703b      	strb	r3, [r7, #0]
10000430:	f7ff ffe2 	bl	100003f8 <hw_claim_unlock>
10000434:	bdf8      	pop	{r3, r4, r5, r6, r7, pc}
10000436:	0021      	movs	r1, r4
10000438:	0028      	movs	r0, r5
1000043a:	f001 f91f 	bl	1000167c <panic>
	...

10000440 <running_on_fpga>:
10000440:	4b03      	ldr	r3, [pc, #12]	; (10000450 <running_on_fpga+0x10>)
10000442:	681b      	ldr	r3, [r3, #0]
10000444:	2002      	movs	r0, #2
10000446:	4018      	ands	r0, r3
10000448:	1e43      	subs	r3, r0, #1
1000044a:	4198      	sbcs	r0, r3
1000044c:	b2c0      	uxtb	r0, r0
1000044e:	4770      	bx	lr
10000450:	4006c000 	.word	0x4006c000

10000454 <spin_locks_reset>:
10000454:	2300      	movs	r3, #0
10000456:	e007      	b.n	10000468 <spin_locks_reset+0x14>
10000458:	4a05      	ldr	r2, [pc, #20]	; (10000470 <spin_locks_reset+0x1c>)
1000045a:	189a      	adds	r2, r3, r2
1000045c:	0092      	lsls	r2, r2, #2
1000045e:	f3bf 8f5f 	dmb	sy
10000462:	2100      	movs	r1, #0
10000464:	6011      	str	r1, [r2, #0]
10000466:	3301      	adds	r3, #1
10000468:	2b1f      	cmp	r3, #31
1000046a:	d9f5      	bls.n	10000458 <spin_locks_reset+0x4>
1000046c:	4770      	bx	lr
1000046e:	46c0      	nop			; (mov r8, r8)
10000470:	34000040 	.word	0x34000040

10000474 <next_striped_spin_lock_num>:
10000474:	4a05      	ldr	r2, [pc, #20]	; (1000048c <next_striped_spin_lock_num+0x18>)
10000476:	7810      	ldrb	r0, [r2, #0]
10000478:	1c43      	adds	r3, r0, #1
1000047a:	b2db      	uxtb	r3, r3
1000047c:	7013      	strb	r3, [r2, #0]
1000047e:	2b17      	cmp	r3, #23
10000480:	d902      	bls.n	10000488 <next_striped_spin_lock_num+0x14>
10000482:	0013      	movs	r3, r2
10000484:	2210      	movs	r2, #16
10000486:	701a      	strb	r2, [r3, #0]
10000488:	4770      	bx	lr
1000048a:	46c0      	nop			; (mov r8, r8)
1000048c:	200001b0 	.word	0x200001b0

10000490 <alarm_pool_post_alloc_init>:
10000490:	b570      	push	{r4, r5, r6, lr}
10000492:	0005      	movs	r5, r0
10000494:	000c      	movs	r4, r1
10000496:	0008      	movs	r0, r1
10000498:	f000 fd14 	bl	10000ec4 <hardware_alarm_claim>
1000049c:	0020      	movs	r0, r4
1000049e:	f000 fdf9 	bl	10001094 <hardware_alarm_cancel>
100004a2:	4908      	ldr	r1, [pc, #32]	; (100004c4 <alarm_pool_post_alloc_init+0x34>)
100004a4:	0020      	movs	r0, r4
100004a6:	f000 fd39 	bl	10000f1c <hardware_alarm_set_callback>
100004aa:	f7ff ffe3 	bl	10000474 <next_striped_spin_lock_num>
100004ae:	4b06      	ldr	r3, [pc, #24]	; (100004c8 <alarm_pool_post_alloc_init+0x38>)
100004b0:	469c      	mov	ip, r3
100004b2:	4460      	add	r0, ip
100004b4:	0080      	lsls	r0, r0, #2
100004b6:	6068      	str	r0, [r5, #4]
100004b8:	752c      	strb	r4, [r5, #20]
100004ba:	00a4      	lsls	r4, r4, #2
100004bc:	4b03      	ldr	r3, [pc, #12]	; (100004cc <alarm_pool_post_alloc_init+0x3c>)
100004be:	50e5      	str	r5, [r4, r3]
100004c0:	bd70      	pop	{r4, r5, r6, pc}
100004c2:	46c0      	nop			; (mov r8, r8)
100004c4:	100007d5 	.word	0x100007d5
100004c8:	34000040 	.word	0x34000040
100004cc:	2000040c 	.word	0x2000040c

100004d0 <sleep_until_callback>:
100004d0:	4b0a      	ldr	r3, [pc, #40]	; (100004fc <sleep_until_callback+0x2c>)
100004d2:	681a      	ldr	r2, [r3, #0]
100004d4:	f3ef 8110 	mrs	r1, PRIMASK
100004d8:	b672      	cpsid	i
100004da:	6813      	ldr	r3, [r2, #0]
100004dc:	2b00      	cmp	r3, #0
100004de:	d0fc      	beq.n	100004da <sleep_until_callback+0xa>
100004e0:	f3bf 8f5f 	dmb	sy
100004e4:	4b05      	ldr	r3, [pc, #20]	; (100004fc <sleep_until_callback+0x2c>)
100004e6:	681b      	ldr	r3, [r3, #0]
100004e8:	f3bf 8f5f 	dmb	sy
100004ec:	2200      	movs	r2, #0
100004ee:	601a      	str	r2, [r3, #0]
100004f0:	f381 8810 	msr	PRIMASK, r1
100004f4:	bf40      	sev
100004f6:	2000      	movs	r0, #0
100004f8:	2100      	movs	r1, #0
100004fa:	4770      	bx	lr
100004fc:	20000620 	.word	0x20000620

10000500 <timer_pool_entry_comparator>:
10000500:	b510      	push	{r4, lr}
10000502:	2900      	cmp	r1, #0
10000504:	d022      	beq.n	1000054c <timer_pool_entry_comparator+0x4c>
10000506:	6803      	ldr	r3, [r0, #0]
10000508:	7b1b      	ldrb	r3, [r3, #12]
1000050a:	4299      	cmp	r1, r3
1000050c:	d81e      	bhi.n	1000054c <timer_pool_entry_comparator+0x4c>
1000050e:	4b17      	ldr	r3, [pc, #92]	; (1000056c <timer_pool_entry_comparator+0x6c>)
10000510:	469c      	mov	ip, r3
10000512:	4461      	add	r1, ip
10000514:	0109      	lsls	r1, r1, #4
10000516:	6883      	ldr	r3, [r0, #8]
10000518:	469c      	mov	ip, r3
1000051a:	4461      	add	r1, ip
1000051c:	680c      	ldr	r4, [r1, #0]
1000051e:	6849      	ldr	r1, [r1, #4]
10000520:	2a00      	cmp	r2, #0
10000522:	d019      	beq.n	10000558 <timer_pool_entry_comparator+0x58>
10000524:	6803      	ldr	r3, [r0, #0]
10000526:	7b1b      	ldrb	r3, [r3, #12]
10000528:	429a      	cmp	r2, r3
1000052a:	d815      	bhi.n	10000558 <timer_pool_entry_comparator+0x58>
1000052c:	6883      	ldr	r3, [r0, #8]
1000052e:	480f      	ldr	r0, [pc, #60]	; (1000056c <timer_pool_entry_comparator+0x6c>)
10000530:	4684      	mov	ip, r0
10000532:	4462      	add	r2, ip
10000534:	0112      	lsls	r2, r2, #4
10000536:	189a      	adds	r2, r3, r2
10000538:	6810      	ldr	r0, [r2, #0]
1000053a:	6853      	ldr	r3, [r2, #4]
1000053c:	0002      	movs	r2, r0
1000053e:	2001      	movs	r0, #1
10000540:	428b      	cmp	r3, r1
10000542:	d801      	bhi.n	10000548 <timer_pool_entry_comparator+0x48>
10000544:	d00e      	beq.n	10000564 <timer_pool_entry_comparator+0x64>
10000546:	2000      	movs	r0, #0
10000548:	b2c0      	uxtb	r0, r0
1000054a:	bd10      	pop	{r4, pc}
1000054c:	4b08      	ldr	r3, [pc, #32]	; (10000570 <timer_pool_entry_comparator+0x70>)
1000054e:	4a09      	ldr	r2, [pc, #36]	; (10000574 <timer_pool_entry_comparator+0x74>)
10000550:	213b      	movs	r1, #59	; 0x3b
10000552:	4809      	ldr	r0, [pc, #36]	; (10000578 <timer_pool_entry_comparator+0x78>)
10000554:	f000 fff8 	bl	10001548 <__assert_func>
10000558:	4b05      	ldr	r3, [pc, #20]	; (10000570 <timer_pool_entry_comparator+0x70>)
1000055a:	4a06      	ldr	r2, [pc, #24]	; (10000574 <timer_pool_entry_comparator+0x74>)
1000055c:	213b      	movs	r1, #59	; 0x3b
1000055e:	4806      	ldr	r0, [pc, #24]	; (10000578 <timer_pool_entry_comparator+0x78>)
10000560:	f000 fff2 	bl	10001548 <__assert_func>
10000564:	42a2      	cmp	r2, r4
10000566:	d8ef      	bhi.n	10000548 <timer_pool_entry_comparator+0x48>
10000568:	e7ed      	b.n	10000546 <timer_pool_entry_comparator+0x46>
1000056a:	46c0      	nop			; (mov r8, r8)
1000056c:	0fffffff 	.word	0x0fffffff
10000570:	10004174 	.word	0x10004174
10000574:	100043f8 	.word	0x100043f8
10000578:	1000413c 	.word	0x1000413c

1000057c <ph_add_child_node>:
1000057c:	b510      	push	{r4, lr}
1000057e:	2900      	cmp	r1, #0
10000580:	d01e      	beq.n	100005c0 <ph_add_child_node+0x44>
10000582:	7b03      	ldrb	r3, [r0, #12]
10000584:	4299      	cmp	r1, r3
10000586:	d81b      	bhi.n	100005c0 <ph_add_child_node+0x44>
10000588:	004b      	lsls	r3, r1, #1
1000058a:	185b      	adds	r3, r3, r1
1000058c:	3b03      	subs	r3, #3
1000058e:	6804      	ldr	r4, [r0, #0]
10000590:	46a4      	mov	ip, r4
10000592:	4463      	add	r3, ip
10000594:	2900      	cmp	r1, #0
10000596:	d019      	beq.n	100005cc <ph_add_child_node+0x50>
10000598:	2a00      	cmp	r2, #0
1000059a:	d01d      	beq.n	100005d8 <ph_add_child_node+0x5c>
1000059c:	4291      	cmp	r1, r2
1000059e:	d021      	beq.n	100005e4 <ph_add_child_node+0x68>
100005a0:	2a00      	cmp	r2, #0
100005a2:	d025      	beq.n	100005f0 <ph_add_child_node+0x74>
100005a4:	7b04      	ldrb	r4, [r0, #12]
100005a6:	42a2      	cmp	r2, r4
100005a8:	d822      	bhi.n	100005f0 <ph_add_child_node+0x74>
100005aa:	6804      	ldr	r4, [r0, #0]
100005ac:	0050      	lsls	r0, r2, #1
100005ae:	1880      	adds	r0, r0, r2
100005b0:	3803      	subs	r0, #3
100005b2:	1820      	adds	r0, r4, r0
100005b4:	7081      	strb	r1, [r0, #2]
100005b6:	7819      	ldrb	r1, [r3, #0]
100005b8:	2900      	cmp	r1, #0
100005ba:	d11f      	bne.n	100005fc <ph_add_child_node+0x80>
100005bc:	701a      	strb	r2, [r3, #0]
100005be:	bd10      	pop	{r4, pc}
100005c0:	4b10      	ldr	r3, [pc, #64]	; (10000604 <ph_add_child_node+0x88>)
100005c2:	4a11      	ldr	r2, [pc, #68]	; (10000608 <ph_add_child_node+0x8c>)
100005c4:	2169      	movs	r1, #105	; 0x69
100005c6:	4811      	ldr	r0, [pc, #68]	; (1000060c <ph_add_child_node+0x90>)
100005c8:	f000 ffbe 	bl	10001548 <__assert_func>
100005cc:	4b10      	ldr	r3, [pc, #64]	; (10000610 <ph_add_child_node+0x94>)
100005ce:	4a11      	ldr	r2, [pc, #68]	; (10000614 <ph_add_child_node+0x98>)
100005d0:	3170      	adds	r1, #112	; 0x70
100005d2:	480e      	ldr	r0, [pc, #56]	; (1000060c <ph_add_child_node+0x90>)
100005d4:	f000 ffb8 	bl	10001548 <__assert_func>
100005d8:	4b0f      	ldr	r3, [pc, #60]	; (10000618 <ph_add_child_node+0x9c>)
100005da:	4a0e      	ldr	r2, [pc, #56]	; (10000614 <ph_add_child_node+0x98>)
100005dc:	2171      	movs	r1, #113	; 0x71
100005de:	480b      	ldr	r0, [pc, #44]	; (1000060c <ph_add_child_node+0x90>)
100005e0:	f000 ffb2 	bl	10001548 <__assert_func>
100005e4:	4b0d      	ldr	r3, [pc, #52]	; (1000061c <ph_add_child_node+0xa0>)
100005e6:	4a0b      	ldr	r2, [pc, #44]	; (10000614 <ph_add_child_node+0x98>)
100005e8:	2172      	movs	r1, #114	; 0x72
100005ea:	4808      	ldr	r0, [pc, #32]	; (1000060c <ph_add_child_node+0x90>)
100005ec:	f000 ffac 	bl	10001548 <__assert_func>
100005f0:	4b04      	ldr	r3, [pc, #16]	; (10000604 <ph_add_child_node+0x88>)
100005f2:	4a05      	ldr	r2, [pc, #20]	; (10000608 <ph_add_child_node+0x8c>)
100005f4:	2169      	movs	r1, #105	; 0x69
100005f6:	4805      	ldr	r0, [pc, #20]	; (1000060c <ph_add_child_node+0x90>)
100005f8:	f000 ffa6 	bl	10001548 <__assert_func>
100005fc:	7041      	strb	r1, [r0, #1]
100005fe:	701a      	strb	r2, [r3, #0]
10000600:	e7dd      	b.n	100005be <ph_add_child_node+0x42>
10000602:	46c0      	nop			; (mov r8, r8)
10000604:	100041a8 	.word	0x100041a8
10000608:	10004464 	.word	0x10004464
1000060c:	100041c4 	.word	0x100041c4
10000610:	10004210 	.word	0x10004210
10000614:	10004440 	.word	0x10004440
10000618:	1000421c 	.word	0x1000421c
1000061c:	10004228 	.word	0x10004228

10000620 <ph_merge_nodes>:
10000620:	b570      	push	{r4, r5, r6, lr}
10000622:	0006      	movs	r6, r0
10000624:	000d      	movs	r5, r1
10000626:	0014      	movs	r4, r2
10000628:	2900      	cmp	r1, #0
1000062a:	d014      	beq.n	10000656 <ph_merge_nodes+0x36>
1000062c:	2a00      	cmp	r2, #0
1000062e:	d014      	beq.n	1000065a <ph_merge_nodes+0x3a>
10000630:	6880      	ldr	r0, [r0, #8]
10000632:	6873      	ldr	r3, [r6, #4]
10000634:	4798      	blx	r3
10000636:	2800      	cmp	r0, #0
10000638:	d006      	beq.n	10000648 <ph_merge_nodes+0x28>
1000063a:	0022      	movs	r2, r4
1000063c:	0029      	movs	r1, r5
1000063e:	0030      	movs	r0, r6
10000640:	f7ff ff9c 	bl	1000057c <ph_add_child_node>
10000644:	0028      	movs	r0, r5
10000646:	e007      	b.n	10000658 <ph_merge_nodes+0x38>
10000648:	002a      	movs	r2, r5
1000064a:	0021      	movs	r1, r4
1000064c:	0030      	movs	r0, r6
1000064e:	f7ff ff95 	bl	1000057c <ph_add_child_node>
10000652:	0020      	movs	r0, r4
10000654:	e000      	b.n	10000658 <ph_merge_nodes+0x38>
10000656:	0010      	movs	r0, r2
10000658:	bd70      	pop	{r4, r5, r6, pc}
1000065a:	0008      	movs	r0, r1
1000065c:	e7fc      	b.n	10000658 <ph_merge_nodes+0x38>
	...

10000660 <add_alarm_under_lock>:
10000660:	b5f0      	push	{r4, r5, r6, r7, lr}
10000662:	b083      	sub	sp, #12
10000664:	0005      	movs	r5, r0
10000666:	9200      	str	r2, [sp, #0]
10000668:	9301      	str	r3, [sp, #4]
1000066a:	ab0a      	add	r3, sp, #40	; 0x28
1000066c:	781c      	ldrb	r4, [r3, #0]
1000066e:	ab0b      	add	r3, sp, #44	; 0x2c
10000670:	781f      	ldrb	r7, [r3, #0]
10000672:	2c00      	cmp	r4, #0
10000674:	d026      	beq.n	100006c4 <add_alarm_under_lock+0x64>
10000676:	6803      	ldr	r3, [r0, #0]
10000678:	7b5a      	ldrb	r2, [r3, #13]
1000067a:	4294      	cmp	r4, r2
1000067c:	d107      	bne.n	1000068e <add_alarm_under_lock+0x2e>
1000067e:	2301      	movs	r3, #1
10000680:	2b00      	cmp	r3, #0
10000682:	d119      	bne.n	100006b8 <add_alarm_under_lock+0x58>
10000684:	2c00      	cmp	r4, #0
10000686:	d13b      	bne.n	10000700 <add_alarm_under_lock+0xa0>
10000688:	0020      	movs	r0, r4
1000068a:	b003      	add	sp, #12
1000068c:	bdf0      	pop	{r4, r5, r6, r7, pc}
1000068e:	2c00      	cmp	r4, #0
10000690:	d00c      	beq.n	100006ac <add_alarm_under_lock+0x4c>
10000692:	7b1a      	ldrb	r2, [r3, #12]
10000694:	4294      	cmp	r4, r2
10000696:	d809      	bhi.n	100006ac <add_alarm_under_lock+0x4c>
10000698:	681a      	ldr	r2, [r3, #0]
1000069a:	0063      	lsls	r3, r4, #1
1000069c:	191b      	adds	r3, r3, r4
1000069e:	3b03      	subs	r3, #3
100006a0:	18d3      	adds	r3, r2, r3
100006a2:	789b      	ldrb	r3, [r3, #2]
100006a4:	2b00      	cmp	r3, #0
100006a6:	d0eb      	beq.n	10000680 <add_alarm_under_lock+0x20>
100006a8:	2301      	movs	r3, #1
100006aa:	e7e9      	b.n	10000680 <add_alarm_under_lock+0x20>
100006ac:	4b3e      	ldr	r3, [pc, #248]	; (100007a8 <add_alarm_under_lock+0x148>)
100006ae:	4a3f      	ldr	r2, [pc, #252]	; (100007ac <add_alarm_under_lock+0x14c>)
100006b0:	2169      	movs	r1, #105	; 0x69
100006b2:	483f      	ldr	r0, [pc, #252]	; (100007b0 <add_alarm_under_lock+0x150>)
100006b4:	f000 ff48 	bl	10001548 <__assert_func>
100006b8:	4b3e      	ldr	r3, [pc, #248]	; (100007b4 <add_alarm_under_lock+0x154>)
100006ba:	4a3f      	ldr	r2, [pc, #252]	; (100007b8 <add_alarm_under_lock+0x158>)
100006bc:	2165      	movs	r1, #101	; 0x65
100006be:	483f      	ldr	r0, [pc, #252]	; (100007bc <add_alarm_under_lock+0x15c>)
100006c0:	f000 ff42 	bl	10001548 <__assert_func>
100006c4:	6803      	ldr	r3, [r0, #0]
100006c6:	7b9c      	ldrb	r4, [r3, #14]
100006c8:	2c00      	cmp	r4, #0
100006ca:	d0db      	beq.n	10000684 <add_alarm_under_lock+0x24>
100006cc:	d012      	beq.n	100006f4 <add_alarm_under_lock+0x94>
100006ce:	7b1a      	ldrb	r2, [r3, #12]
100006d0:	4294      	cmp	r4, r2
100006d2:	d80f      	bhi.n	100006f4 <add_alarm_under_lock+0x94>
100006d4:	0062      	lsls	r2, r4, #1
100006d6:	1912      	adds	r2, r2, r4
100006d8:	3a03      	subs	r2, #3
100006da:	6819      	ldr	r1, [r3, #0]
100006dc:	468c      	mov	ip, r1
100006de:	4462      	add	r2, ip
100006e0:	7851      	ldrb	r1, [r2, #1]
100006e2:	7399      	strb	r1, [r3, #14]
100006e4:	2900      	cmp	r1, #0
100006e6:	d100      	bne.n	100006ea <add_alarm_under_lock+0x8a>
100006e8:	73d9      	strb	r1, [r3, #15]
100006ea:	2300      	movs	r3, #0
100006ec:	7093      	strb	r3, [r2, #2]
100006ee:	7053      	strb	r3, [r2, #1]
100006f0:	7013      	strb	r3, [r2, #0]
100006f2:	e7c7      	b.n	10000684 <add_alarm_under_lock+0x24>
100006f4:	4b2c      	ldr	r3, [pc, #176]	; (100007a8 <add_alarm_under_lock+0x148>)
100006f6:	4a2d      	ldr	r2, [pc, #180]	; (100007ac <add_alarm_under_lock+0x14c>)
100006f8:	2169      	movs	r1, #105	; 0x69
100006fa:	482d      	ldr	r0, [pc, #180]	; (100007b0 <add_alarm_under_lock+0x150>)
100006fc:	f000 ff24 	bl	10001548 <__assert_func>
10000700:	2c00      	cmp	r4, #0
10000702:	d03a      	beq.n	1000077a <add_alarm_under_lock+0x11a>
10000704:	682b      	ldr	r3, [r5, #0]
10000706:	7b1b      	ldrb	r3, [r3, #12]
10000708:	429c      	cmp	r4, r3
1000070a:	d836      	bhi.n	1000077a <add_alarm_under_lock+0x11a>
1000070c:	4b2c      	ldr	r3, [pc, #176]	; (100007c0 <add_alarm_under_lock+0x160>)
1000070e:	18e3      	adds	r3, r4, r3
10000710:	011b      	lsls	r3, r3, #4
10000712:	68aa      	ldr	r2, [r5, #8]
10000714:	4694      	mov	ip, r2
10000716:	4463      	add	r3, ip
10000718:	9a00      	ldr	r2, [sp, #0]
1000071a:	601a      	str	r2, [r3, #0]
1000071c:	9a01      	ldr	r2, [sp, #4]
1000071e:	605a      	str	r2, [r3, #4]
10000720:	9a08      	ldr	r2, [sp, #32]
10000722:	609a      	str	r2, [r3, #8]
10000724:	9a09      	ldr	r2, [sp, #36]	; 0x24
10000726:	60da      	str	r2, [r3, #12]
10000728:	682e      	ldr	r6, [r5, #0]
1000072a:	2c00      	cmp	r4, #0
1000072c:	d02b      	beq.n	10000786 <add_alarm_under_lock+0x126>
1000072e:	d030      	beq.n	10000792 <add_alarm_under_lock+0x132>
10000730:	7b33      	ldrb	r3, [r6, #12]
10000732:	429c      	cmp	r4, r3
10000734:	d82d      	bhi.n	10000792 <add_alarm_under_lock+0x132>
10000736:	0063      	lsls	r3, r4, #1
10000738:	191b      	adds	r3, r3, r4
1000073a:	3b03      	subs	r3, #3
1000073c:	6832      	ldr	r2, [r6, #0]
1000073e:	4694      	mov	ip, r2
10000740:	4463      	add	r3, ip
10000742:	2200      	movs	r2, #0
10000744:	709a      	strb	r2, [r3, #2]
10000746:	705a      	strb	r2, [r3, #1]
10000748:	701a      	strb	r2, [r3, #0]
1000074a:	7b71      	ldrb	r1, [r6, #13]
1000074c:	0022      	movs	r2, r4
1000074e:	0030      	movs	r0, r6
10000750:	f7ff ff66 	bl	10000620 <ph_merge_nodes>
10000754:	7370      	strb	r0, [r6, #13]
10000756:	4284      	cmp	r4, r0
10000758:	d000      	beq.n	1000075c <add_alarm_under_lock+0xfc>
1000075a:	e795      	b.n	10000688 <add_alarm_under_lock+0x28>
1000075c:	7d28      	ldrb	r0, [r5, #20]
1000075e:	9a00      	ldr	r2, [sp, #0]
10000760:	9b01      	ldr	r3, [sp, #4]
10000762:	f000 fc23 	bl	10000fac <hardware_alarm_set_target>
10000766:	1e06      	subs	r6, r0, #0
10000768:	d001      	beq.n	1000076e <add_alarm_under_lock+0x10e>
1000076a:	2f00      	cmp	r7, #0
1000076c:	d017      	beq.n	1000079e <add_alarm_under_lock+0x13e>
1000076e:	9b0c      	ldr	r3, [sp, #48]	; 0x30
10000770:	2b00      	cmp	r3, #0
10000772:	d100      	bne.n	10000776 <add_alarm_under_lock+0x116>
10000774:	e788      	b.n	10000688 <add_alarm_under_lock+0x28>
10000776:	701e      	strb	r6, [r3, #0]
10000778:	e786      	b.n	10000688 <add_alarm_under_lock+0x28>
1000077a:	4b12      	ldr	r3, [pc, #72]	; (100007c4 <add_alarm_under_lock+0x164>)
1000077c:	4a12      	ldr	r2, [pc, #72]	; (100007c8 <add_alarm_under_lock+0x168>)
1000077e:	213b      	movs	r1, #59	; 0x3b
10000780:	480e      	ldr	r0, [pc, #56]	; (100007bc <add_alarm_under_lock+0x15c>)
10000782:	f000 fee1 	bl	10001548 <__assert_func>
10000786:	4b11      	ldr	r3, [pc, #68]	; (100007cc <add_alarm_under_lock+0x16c>)
10000788:	4a11      	ldr	r2, [pc, #68]	; (100007d0 <add_alarm_under_lock+0x170>)
1000078a:	21a6      	movs	r1, #166	; 0xa6
1000078c:	4808      	ldr	r0, [pc, #32]	; (100007b0 <add_alarm_under_lock+0x150>)
1000078e:	f000 fedb 	bl	10001548 <__assert_func>
10000792:	4b05      	ldr	r3, [pc, #20]	; (100007a8 <add_alarm_under_lock+0x148>)
10000794:	4a05      	ldr	r2, [pc, #20]	; (100007ac <add_alarm_under_lock+0x14c>)
10000796:	2169      	movs	r1, #105	; 0x69
10000798:	4805      	ldr	r0, [pc, #20]	; (100007b0 <add_alarm_under_lock+0x150>)
1000079a:	f000 fed5 	bl	10001548 <__assert_func>
1000079e:	6828      	ldr	r0, [r5, #0]
100007a0:	0021      	movs	r1, r4
100007a2:	f000 fe4f 	bl	10001444 <ph_remove_and_free_node>
100007a6:	e7e2      	b.n	1000076e <add_alarm_under_lock+0x10e>
100007a8:	100041a8 	.word	0x100041a8
100007ac:	10004464 	.word	0x10004464
100007b0:	100041c4 	.word	0x100041c4
100007b4:	10004240 	.word	0x10004240
100007b8:	10004470 	.word	0x10004470
100007bc:	1000413c 	.word	0x1000413c
100007c0:	0fffffff 	.word	0x0fffffff
100007c4:	10004174 	.word	0x10004174
100007c8:	100043f8 	.word	0x100043f8
100007cc:	10004138 	.word	0x10004138
100007d0:	10004454 	.word	0x10004454

100007d4 <alarm_pool_alarm_callback>:
100007d4:	b5f0      	push	{r4, r5, r6, r7, lr}
100007d6:	46de      	mov	lr, fp
100007d8:	4657      	mov	r7, sl
100007da:	464e      	mov	r6, r9
100007dc:	4645      	mov	r5, r8
100007de:	b5e0      	push	{r5, r6, r7, lr}
100007e0:	b08b      	sub	sp, #44	; 0x2c
100007e2:	9009      	str	r0, [sp, #36]	; 0x24
100007e4:	2300      	movs	r3, #0
100007e6:	9308      	str	r3, [sp, #32]
100007e8:	0082      	lsls	r2, r0, #2
100007ea:	4bb2      	ldr	r3, [pc, #712]	; (10000ab4 <alarm_pool_alarm_callback+0x2e0>)
100007ec:	58d6      	ldr	r6, [r2, r3]
100007ee:	0037      	movs	r7, r6
100007f0:	e032      	b.n	10000858 <alarm_pool_alarm_callback+0x84>
100007f2:	4bb1      	ldr	r3, [pc, #708]	; (10000ab8 <alarm_pool_alarm_callback+0x2e4>)
100007f4:	4ab1      	ldr	r2, [pc, #708]	; (10000abc <alarm_pool_alarm_callback+0x2e8>)
100007f6:	213f      	movs	r1, #63	; 0x3f
100007f8:	48b1      	ldr	r0, [pc, #708]	; (10000ac0 <alarm_pool_alarm_callback+0x2ec>)
100007fa:	f000 fea5 	bl	10001548 <__assert_func>
100007fe:	4bb1      	ldr	r3, [pc, #708]	; (10000ac4 <alarm_pool_alarm_callback+0x2f0>)
10000800:	4ab1      	ldr	r2, [pc, #708]	; (10000ac8 <alarm_pool_alarm_callback+0x2f4>)
10000802:	213b      	movs	r1, #59	; 0x3b
10000804:	48b1      	ldr	r0, [pc, #708]	; (10000acc <alarm_pool_alarm_callback+0x2f8>)
10000806:	f000 fe9f 	bl	10001548 <__assert_func>
1000080a:	4bb1      	ldr	r3, [pc, #708]	; (10000ad0 <alarm_pool_alarm_callback+0x2fc>)
1000080c:	4ab1      	ldr	r2, [pc, #708]	; (10000ad4 <alarm_pool_alarm_callback+0x300>)
1000080e:	218c      	movs	r1, #140	; 0x8c
10000810:	48ae      	ldr	r0, [pc, #696]	; (10000acc <alarm_pool_alarm_callback+0x2f8>)
10000812:	f000 fe99 	bl	10001548 <__assert_func>
10000816:	4bb0      	ldr	r3, [pc, #704]	; (10000ad8 <alarm_pool_alarm_callback+0x304>)
10000818:	4aae      	ldr	r2, [pc, #696]	; (10000ad4 <alarm_pool_alarm_callback+0x300>)
1000081a:	2190      	movs	r1, #144	; 0x90
1000081c:	48ab      	ldr	r0, [pc, #684]	; (10000acc <alarm_pool_alarm_callback+0x2f8>)
1000081e:	f000 fe93 	bl	10001548 <__assert_func>
10000822:	4ba8      	ldr	r3, [pc, #672]	; (10000ac4 <alarm_pool_alarm_callback+0x2f0>)
10000824:	4aad      	ldr	r2, [pc, #692]	; (10000adc <alarm_pool_alarm_callback+0x308>)
10000826:	2140      	movs	r1, #64	; 0x40
10000828:	48a8      	ldr	r0, [pc, #672]	; (10000acc <alarm_pool_alarm_callback+0x2f8>)
1000082a:	f000 fe8d 	bl	10001548 <__assert_func>
1000082e:	682a      	ldr	r2, [r5, #0]
10000830:	686b      	ldr	r3, [r5, #4]
10000832:	9809      	ldr	r0, [sp, #36]	; 0x24
10000834:	f000 fbba 	bl	10000fac <hardware_alarm_set_target>
10000838:	2300      	movs	r3, #0
1000083a:	469a      	mov	sl, r3
1000083c:	4698      	mov	r8, r3
1000083e:	687b      	ldr	r3, [r7, #4]
10000840:	f3bf 8f5f 	dmb	sy
10000844:	2200      	movs	r2, #0
10000846:	601a      	str	r2, [r3, #0]
10000848:	f386 8810 	msr	PRIMASK, r6
1000084c:	4643      	mov	r3, r8
1000084e:	2b00      	cmp	r3, #0
10000850:	d151      	bne.n	100008f6 <alarm_pool_alarm_callback+0x122>
10000852:	2800      	cmp	r0, #0
10000854:	d100      	bne.n	10000858 <alarm_pool_alarm_callback+0x84>
10000856:	e126      	b.n	10000aa6 <alarm_pool_alarm_callback+0x2d2>
10000858:	f000 fb40 	bl	10000edc <time_us_64>
1000085c:	0002      	movs	r2, r0
1000085e:	1e0b      	subs	r3, r1, #0
10000860:	dbc7      	blt.n	100007f2 <alarm_pool_alarm_callback+0x1e>
10000862:	2000      	movs	r0, #0
10000864:	2100      	movs	r1, #0
10000866:	9006      	str	r0, [sp, #24]
10000868:	9107      	str	r1, [sp, #28]
1000086a:	6878      	ldr	r0, [r7, #4]
1000086c:	f3ef 8610 	mrs	r6, PRIMASK
10000870:	b672      	cpsid	i
10000872:	6801      	ldr	r1, [r0, #0]
10000874:	2900      	cmp	r1, #0
10000876:	d0fc      	beq.n	10000872 <alarm_pool_alarm_callback+0x9e>
10000878:	f3bf 8f5f 	dmb	sy
1000087c:	6839      	ldr	r1, [r7, #0]
1000087e:	4688      	mov	r8, r1
10000880:	7b4c      	ldrb	r4, [r1, #13]
10000882:	2c00      	cmp	r4, #0
10000884:	d032      	beq.n	100008ec <alarm_pool_alarm_callback+0x118>
10000886:	d0ba      	beq.n	100007fe <alarm_pool_alarm_callback+0x2a>
10000888:	7b09      	ldrb	r1, [r1, #12]
1000088a:	428c      	cmp	r4, r1
1000088c:	d8b7      	bhi.n	100007fe <alarm_pool_alarm_callback+0x2a>
1000088e:	4994      	ldr	r1, [pc, #592]	; (10000ae0 <alarm_pool_alarm_callback+0x30c>)
10000890:	1865      	adds	r5, r4, r1
10000892:	012d      	lsls	r5, r5, #4
10000894:	68b9      	ldr	r1, [r7, #8]
10000896:	468c      	mov	ip, r1
10000898:	4465      	add	r5, ip
1000089a:	6828      	ldr	r0, [r5, #0]
1000089c:	6869      	ldr	r1, [r5, #4]
1000089e:	1a80      	subs	r0, r0, r2
100008a0:	4199      	sbcs	r1, r3
100008a2:	2900      	cmp	r1, #0
100008a4:	dcc3      	bgt.n	1000082e <alarm_pool_alarm_callback+0x5a>
100008a6:	d101      	bne.n	100008ac <alarm_pool_alarm_callback+0xd8>
100008a8:	2800      	cmp	r0, #0
100008aa:	d1c0      	bne.n	1000082e <alarm_pool_alarm_callback+0x5a>
100008ac:	2100      	movs	r1, #0
100008ae:	4640      	mov	r0, r8
100008b0:	f000 fdbe 	bl	10001430 <ph_remove_head>
100008b4:	42a0      	cmp	r0, r4
100008b6:	d1a8      	bne.n	1000080a <alarm_pool_alarm_callback+0x36>
100008b8:	682a      	ldr	r2, [r5, #0]
100008ba:	686b      	ldr	r3, [r5, #4]
100008bc:	9206      	str	r2, [sp, #24]
100008be:	9307      	str	r3, [sp, #28]
100008c0:	68ab      	ldr	r3, [r5, #8]
100008c2:	4698      	mov	r8, r3
100008c4:	68eb      	ldr	r3, [r5, #12]
100008c6:	469a      	mov	sl, r3
100008c8:	4643      	mov	r3, r8
100008ca:	2b00      	cmp	r3, #0
100008cc:	d0a3      	beq.n	10000816 <alarm_pool_alarm_callback+0x42>
100008ce:	2c00      	cmp	r4, #0
100008d0:	d0a7      	beq.n	10000822 <alarm_pool_alarm_callback+0x4e>
100008d2:	683b      	ldr	r3, [r7, #0]
100008d4:	7b1b      	ldrb	r3, [r3, #12]
100008d6:	429c      	cmp	r4, r3
100008d8:	d8a3      	bhi.n	10000822 <alarm_pool_alarm_callback+0x4e>
100008da:	1e63      	subs	r3, r4, #1
100008dc:	68fa      	ldr	r2, [r7, #12]
100008de:	5cd3      	ldrb	r3, [r2, r3]
100008e0:	9308      	str	r3, [sp, #32]
100008e2:	021b      	lsls	r3, r3, #8
100008e4:	4318      	orrs	r0, r3
100008e6:	6138      	str	r0, [r7, #16]
100008e8:	2000      	movs	r0, #0
100008ea:	e7a8      	b.n	1000083e <alarm_pool_alarm_callback+0x6a>
100008ec:	2300      	movs	r3, #0
100008ee:	469a      	mov	sl, r3
100008f0:	4698      	mov	r8, r3
100008f2:	2000      	movs	r0, #0
100008f4:	e7a3      	b.n	1000083e <alarm_pool_alarm_callback+0x6a>
100008f6:	9b08      	ldr	r3, [sp, #32]
100008f8:	021b      	lsls	r3, r3, #8
100008fa:	4323      	orrs	r3, r4
100008fc:	4699      	mov	r9, r3
100008fe:	4651      	mov	r1, sl
10000900:	0018      	movs	r0, r3
10000902:	47c0      	blx	r8
10000904:	0005      	movs	r5, r0
10000906:	000e      	movs	r6, r1
10000908:	687a      	ldr	r2, [r7, #4]
1000090a:	f3ef 8b10 	mrs	fp, PRIMASK
1000090e:	b672      	cpsid	i
10000910:	6813      	ldr	r3, [r2, #0]
10000912:	4259      	negs	r1, r3
10000914:	414b      	adcs	r3, r1
10000916:	b2d9      	uxtb	r1, r3
10000918:	2b00      	cmp	r3, #0
1000091a:	d1f9      	bne.n	10000910 <alarm_pool_alarm_callback+0x13c>
1000091c:	f3bf 8f5f 	dmb	sy
10000920:	2e00      	cmp	r6, #0
10000922:	db26      	blt.n	10000972 <alarm_pool_alarm_callback+0x19e>
10000924:	2e00      	cmp	r6, #0
10000926:	dd52      	ble.n	100009ce <alarm_pool_alarm_callback+0x1fa>
10000928:	693b      	ldr	r3, [r7, #16]
1000092a:	2b00      	cmp	r3, #0
1000092c:	d053      	beq.n	100009d6 <alarm_pool_alarm_callback+0x202>
1000092e:	454b      	cmp	r3, r9
10000930:	d172      	bne.n	10000a18 <alarm_pool_alarm_callback+0x244>
10000932:	f000 fad3 	bl	10000edc <time_us_64>
10000936:	0002      	movs	r2, r0
10000938:	1e0b      	subs	r3, r1, #0
1000093a:	db73      	blt.n	10000a24 <alarm_pool_alarm_callback+0x250>
1000093c:	0001      	movs	r1, r0
1000093e:	0018      	movs	r0, r3
10000940:	1952      	adds	r2, r2, r5
10000942:	4173      	adcs	r3, r6
10000944:	4298      	cmp	r0, r3
10000946:	d802      	bhi.n	1000094e <alarm_pool_alarm_callback+0x17a>
10000948:	d104      	bne.n	10000954 <alarm_pool_alarm_callback+0x180>
1000094a:	4291      	cmp	r1, r2
1000094c:	d902      	bls.n	10000954 <alarm_pool_alarm_callback+0x180>
1000094e:	2201      	movs	r2, #1
10000950:	4252      	negs	r2, r2
10000952:	17d3      	asrs	r3, r2, #31
10000954:	2b00      	cmp	r3, #0
10000956:	db6b      	blt.n	10000a30 <alarm_pool_alarm_callback+0x25c>
10000958:	2100      	movs	r1, #0
1000095a:	9104      	str	r1, [sp, #16]
1000095c:	3101      	adds	r1, #1
1000095e:	9103      	str	r1, [sp, #12]
10000960:	9402      	str	r4, [sp, #8]
10000962:	4651      	mov	r1, sl
10000964:	9101      	str	r1, [sp, #4]
10000966:	4641      	mov	r1, r8
10000968:	9100      	str	r1, [sp, #0]
1000096a:	0038      	movs	r0, r7
1000096c:	f7ff fe78 	bl	10000660 <add_alarm_under_lock>
10000970:	e049      	b.n	10000a06 <alarm_pool_alarm_callback+0x232>
10000972:	693b      	ldr	r3, [r7, #16]
10000974:	2b00      	cmp	r3, #0
10000976:	d0d5      	beq.n	10000924 <alarm_pool_alarm_callback+0x150>
10000978:	454b      	cmp	r3, r9
1000097a:	d11c      	bne.n	100009b6 <alarm_pool_alarm_callback+0x1e2>
1000097c:	9a06      	ldr	r2, [sp, #24]
1000097e:	9b07      	ldr	r3, [sp, #28]
10000980:	0010      	movs	r0, r2
10000982:	0019      	movs	r1, r3
10000984:	1b52      	subs	r2, r2, r5
10000986:	41b3      	sbcs	r3, r6
10000988:	4299      	cmp	r1, r3
1000098a:	d802      	bhi.n	10000992 <alarm_pool_alarm_callback+0x1be>
1000098c:	d104      	bne.n	10000998 <alarm_pool_alarm_callback+0x1c4>
1000098e:	4290      	cmp	r0, r2
10000990:	d902      	bls.n	10000998 <alarm_pool_alarm_callback+0x1c4>
10000992:	2201      	movs	r2, #1
10000994:	4252      	negs	r2, r2
10000996:	17d3      	asrs	r3, r2, #31
10000998:	2b00      	cmp	r3, #0
1000099a:	db12      	blt.n	100009c2 <alarm_pool_alarm_callback+0x1ee>
1000099c:	2100      	movs	r1, #0
1000099e:	9104      	str	r1, [sp, #16]
100009a0:	3101      	adds	r1, #1
100009a2:	9103      	str	r1, [sp, #12]
100009a4:	9402      	str	r4, [sp, #8]
100009a6:	4651      	mov	r1, sl
100009a8:	9101      	str	r1, [sp, #4]
100009aa:	4641      	mov	r1, r8
100009ac:	9100      	str	r1, [sp, #0]
100009ae:	0038      	movs	r0, r7
100009b0:	f7ff fe56 	bl	10000660 <add_alarm_under_lock>
100009b4:	e027      	b.n	10000a06 <alarm_pool_alarm_callback+0x232>
100009b6:	4b4b      	ldr	r3, [pc, #300]	; (10000ae4 <alarm_pool_alarm_callback+0x310>)
100009b8:	4a46      	ldr	r2, [pc, #280]	; (10000ad4 <alarm_pool_alarm_callback+0x300>)
100009ba:	219f      	movs	r1, #159	; 0x9f
100009bc:	4843      	ldr	r0, [pc, #268]	; (10000acc <alarm_pool_alarm_callback+0x2f8>)
100009be:	f000 fdc3 	bl	10001548 <__assert_func>
100009c2:	4b3d      	ldr	r3, [pc, #244]	; (10000ab8 <alarm_pool_alarm_callback+0x2e4>)
100009c4:	4a3d      	ldr	r2, [pc, #244]	; (10000abc <alarm_pool_alarm_callback+0x2e8>)
100009c6:	213f      	movs	r1, #63	; 0x3f
100009c8:	483d      	ldr	r0, [pc, #244]	; (10000ac0 <alarm_pool_alarm_callback+0x2ec>)
100009ca:	f000 fdbd 	bl	10001548 <__assert_func>
100009ce:	2e00      	cmp	r6, #0
100009d0:	d101      	bne.n	100009d6 <alarm_pool_alarm_callback+0x202>
100009d2:	2d00      	cmp	r5, #0
100009d4:	d1a8      	bne.n	10000928 <alarm_pool_alarm_callback+0x154>
100009d6:	683a      	ldr	r2, [r7, #0]
100009d8:	2c00      	cmp	r4, #0
100009da:	d045      	beq.n	10000a68 <alarm_pool_alarm_callback+0x294>
100009dc:	7b53      	ldrb	r3, [r2, #13]
100009de:	429c      	cmp	r4, r3
100009e0:	d12c      	bne.n	10000a3c <alarm_pool_alarm_callback+0x268>
100009e2:	2101      	movs	r1, #1
100009e4:	2900      	cmp	r1, #0
100009e6:	d13f      	bne.n	10000a68 <alarm_pool_alarm_callback+0x294>
100009e8:	7bd3      	ldrb	r3, [r2, #15]
100009ea:	2b00      	cmp	r3, #0
100009ec:	d142      	bne.n	10000a74 <alarm_pool_alarm_callback+0x2a0>
100009ee:	73d4      	strb	r4, [r2, #15]
100009f0:	2c00      	cmp	r4, #0
100009f2:	d052      	beq.n	10000a9a <alarm_pool_alarm_callback+0x2c6>
100009f4:	683b      	ldr	r3, [r7, #0]
100009f6:	7b1b      	ldrb	r3, [r3, #12]
100009f8:	429c      	cmp	r4, r3
100009fa:	d84e      	bhi.n	10000a9a <alarm_pool_alarm_callback+0x2c6>
100009fc:	68fa      	ldr	r2, [r7, #12]
100009fe:	3c01      	subs	r4, #1
10000a00:	5d13      	ldrb	r3, [r2, r4]
10000a02:	3301      	adds	r3, #1
10000a04:	5513      	strb	r3, [r2, r4]
10000a06:	2300      	movs	r3, #0
10000a08:	613b      	str	r3, [r7, #16]
10000a0a:	687a      	ldr	r2, [r7, #4]
10000a0c:	f3bf 8f5f 	dmb	sy
10000a10:	6013      	str	r3, [r2, #0]
10000a12:	f38b 8810 	msr	PRIMASK, fp
10000a16:	e71f      	b.n	10000858 <alarm_pool_alarm_callback+0x84>
10000a18:	4b32      	ldr	r3, [pc, #200]	; (10000ae4 <alarm_pool_alarm_callback+0x310>)
10000a1a:	4a2e      	ldr	r2, [pc, #184]	; (10000ad4 <alarm_pool_alarm_callback+0x300>)
10000a1c:	21a2      	movs	r1, #162	; 0xa2
10000a1e:	482b      	ldr	r0, [pc, #172]	; (10000acc <alarm_pool_alarm_callback+0x2f8>)
10000a20:	f000 fd92 	bl	10001548 <__assert_func>
10000a24:	4b24      	ldr	r3, [pc, #144]	; (10000ab8 <alarm_pool_alarm_callback+0x2e4>)
10000a26:	4a25      	ldr	r2, [pc, #148]	; (10000abc <alarm_pool_alarm_callback+0x2e8>)
10000a28:	213f      	movs	r1, #63	; 0x3f
10000a2a:	4825      	ldr	r0, [pc, #148]	; (10000ac0 <alarm_pool_alarm_callback+0x2ec>)
10000a2c:	f000 fd8c 	bl	10001548 <__assert_func>
10000a30:	4b21      	ldr	r3, [pc, #132]	; (10000ab8 <alarm_pool_alarm_callback+0x2e4>)
10000a32:	4a22      	ldr	r2, [pc, #136]	; (10000abc <alarm_pool_alarm_callback+0x2e8>)
10000a34:	213f      	movs	r1, #63	; 0x3f
10000a36:	4822      	ldr	r0, [pc, #136]	; (10000ac0 <alarm_pool_alarm_callback+0x2ec>)
10000a38:	f000 fd86 	bl	10001548 <__assert_func>
10000a3c:	2c00      	cmp	r4, #0
10000a3e:	d00d      	beq.n	10000a5c <alarm_pool_alarm_callback+0x288>
10000a40:	7b13      	ldrb	r3, [r2, #12]
10000a42:	429c      	cmp	r4, r3
10000a44:	d80a      	bhi.n	10000a5c <alarm_pool_alarm_callback+0x288>
10000a46:	0063      	lsls	r3, r4, #1
10000a48:	191b      	adds	r3, r3, r4
10000a4a:	3b03      	subs	r3, #3
10000a4c:	6810      	ldr	r0, [r2, #0]
10000a4e:	4684      	mov	ip, r0
10000a50:	4463      	add	r3, ip
10000a52:	789b      	ldrb	r3, [r3, #2]
10000a54:	2b00      	cmp	r3, #0
10000a56:	d0c5      	beq.n	100009e4 <alarm_pool_alarm_callback+0x210>
10000a58:	2101      	movs	r1, #1
10000a5a:	e7c3      	b.n	100009e4 <alarm_pool_alarm_callback+0x210>
10000a5c:	4b22      	ldr	r3, [pc, #136]	; (10000ae8 <alarm_pool_alarm_callback+0x314>)
10000a5e:	4a23      	ldr	r2, [pc, #140]	; (10000aec <alarm_pool_alarm_callback+0x318>)
10000a60:	2169      	movs	r1, #105	; 0x69
10000a62:	4823      	ldr	r0, [pc, #140]	; (10000af0 <alarm_pool_alarm_callback+0x31c>)
10000a64:	f000 fd70 	bl	10001548 <__assert_func>
10000a68:	4b22      	ldr	r3, [pc, #136]	; (10000af4 <alarm_pool_alarm_callback+0x320>)
10000a6a:	4a23      	ldr	r2, [pc, #140]	; (10000af8 <alarm_pool_alarm_callback+0x324>)
10000a6c:	21f7      	movs	r1, #247	; 0xf7
10000a6e:	4820      	ldr	r0, [pc, #128]	; (10000af0 <alarm_pool_alarm_callback+0x31c>)
10000a70:	f000 fd6a 	bl	10001548 <__assert_func>
10000a74:	2b00      	cmp	r3, #0
10000a76:	d00a      	beq.n	10000a8e <alarm_pool_alarm_callback+0x2ba>
10000a78:	7b11      	ldrb	r1, [r2, #12]
10000a7a:	428b      	cmp	r3, r1
10000a7c:	d807      	bhi.n	10000a8e <alarm_pool_alarm_callback+0x2ba>
10000a7e:	0059      	lsls	r1, r3, #1
10000a80:	18cb      	adds	r3, r1, r3
10000a82:	3b03      	subs	r3, #3
10000a84:	6811      	ldr	r1, [r2, #0]
10000a86:	468c      	mov	ip, r1
10000a88:	4463      	add	r3, ip
10000a8a:	705c      	strb	r4, [r3, #1]
10000a8c:	e7af      	b.n	100009ee <alarm_pool_alarm_callback+0x21a>
10000a8e:	4b16      	ldr	r3, [pc, #88]	; (10000ae8 <alarm_pool_alarm_callback+0x314>)
10000a90:	4a16      	ldr	r2, [pc, #88]	; (10000aec <alarm_pool_alarm_callback+0x318>)
10000a92:	2169      	movs	r1, #105	; 0x69
10000a94:	4816      	ldr	r0, [pc, #88]	; (10000af0 <alarm_pool_alarm_callback+0x31c>)
10000a96:	f000 fd57 	bl	10001548 <__assert_func>
10000a9a:	4b0a      	ldr	r3, [pc, #40]	; (10000ac4 <alarm_pool_alarm_callback+0x2f0>)
10000a9c:	4a0f      	ldr	r2, [pc, #60]	; (10000adc <alarm_pool_alarm_callback+0x308>)
10000a9e:	2140      	movs	r1, #64	; 0x40
10000aa0:	480a      	ldr	r0, [pc, #40]	; (10000acc <alarm_pool_alarm_callback+0x2f8>)
10000aa2:	f000 fd51 	bl	10001548 <__assert_func>
10000aa6:	b00b      	add	sp, #44	; 0x2c
10000aa8:	bcf0      	pop	{r4, r5, r6, r7}
10000aaa:	46bb      	mov	fp, r7
10000aac:	46b2      	mov	sl, r6
10000aae:	46a9      	mov	r9, r5
10000ab0:	46a0      	mov	r8, r4
10000ab2:	bdf0      	pop	{r4, r5, r6, r7, pc}
10000ab4:	2000040c 	.word	0x2000040c
10000ab8:	10004268 	.word	0x10004268
10000abc:	100043c4 	.word	0x100043c4
10000ac0:	10004284 	.word	0x10004284
10000ac4:	10004174 	.word	0x10004174
10000ac8:	100043f8 	.word	0x100043f8
10000acc:	1000413c 	.word	0x1000413c
10000ad0:	100042cc 	.word	0x100042cc
10000ad4:	100043dc 	.word	0x100043dc
10000ad8:	100042e4 	.word	0x100042e4
10000adc:	1000441c 	.word	0x1000441c
10000ae0:	0fffffff 	.word	0x0fffffff
10000ae4:	100042f0 	.word	0x100042f0
10000ae8:	100041a8 	.word	0x100041a8
10000aec:	10004464 	.word	0x10004464
10000af0:	100041c4 	.word	0x100041c4
10000af4:	1000432c 	.word	0x1000432c
10000af8:	10004430 	.word	0x10004430

10000afc <alarm_pool_init_default>:
10000afc:	b510      	push	{r4, lr}
10000afe:	4b0a      	ldr	r3, [pc, #40]	; (10000b28 <alarm_pool_init_default+0x2c>)
10000b00:	685b      	ldr	r3, [r3, #4]
10000b02:	2b00      	cmp	r3, #0
10000b04:	d004      	beq.n	10000b10 <alarm_pool_init_default+0x14>
10000b06:	210a      	movs	r1, #10
10000b08:	4808      	ldr	r0, [pc, #32]	; (10000b2c <alarm_pool_init_default+0x30>)
10000b0a:	f000 fae3 	bl	100010d4 <lock_init>
10000b0e:	bd10      	pop	{r4, pc}
10000b10:	4c05      	ldr	r4, [pc, #20]	; (10000b28 <alarm_pool_init_default+0x2c>)
10000b12:	0023      	movs	r3, r4
10000b14:	4a06      	ldr	r2, [pc, #24]	; (10000b30 <alarm_pool_init_default+0x34>)
10000b16:	2110      	movs	r1, #16
10000b18:	6820      	ldr	r0, [r4, #0]
10000b1a:	f000 fba9 	bl	10001270 <ph_post_alloc_init>
10000b1e:	2103      	movs	r1, #3
10000b20:	0020      	movs	r0, r4
10000b22:	f7ff fcb5 	bl	10000490 <alarm_pool_post_alloc_init>
10000b26:	e7ee      	b.n	10000b06 <alarm_pool_init_default+0xa>
10000b28:	200001b4 	.word	0x200001b4
10000b2c:	20000620 	.word	0x20000620
10000b30:	10000501 	.word	0x10000501

10000b34 <alarm_pool_get_default>:
10000b34:	b510      	push	{r4, lr}
10000b36:	4b06      	ldr	r3, [pc, #24]	; (10000b50 <alarm_pool_get_default+0x1c>)
10000b38:	685b      	ldr	r3, [r3, #4]
10000b3a:	2b00      	cmp	r3, #0
10000b3c:	d001      	beq.n	10000b42 <alarm_pool_get_default+0xe>
10000b3e:	4804      	ldr	r0, [pc, #16]	; (10000b50 <alarm_pool_get_default+0x1c>)
10000b40:	bd10      	pop	{r4, pc}
10000b42:	4b04      	ldr	r3, [pc, #16]	; (10000b54 <alarm_pool_get_default+0x20>)
10000b44:	4a04      	ldr	r2, [pc, #16]	; (10000b58 <alarm_pool_get_default+0x24>)
10000b46:	215c      	movs	r1, #92	; 0x5c
10000b48:	4804      	ldr	r0, [pc, #16]	; (10000b5c <alarm_pool_get_default+0x28>)
10000b4a:	f000 fcfd 	bl	10001548 <__assert_func>
10000b4e:	46c0      	nop			; (mov r8, r8)
10000b50:	200001b4 	.word	0x200001b4
10000b54:	10004350 	.word	0x10004350
10000b58:	10004404 	.word	0x10004404
10000b5c:	1000413c 	.word	0x1000413c

10000b60 <alarm_pool_add_alarm_at>:
10000b60:	b5f0      	push	{r4, r5, r6, r7, lr}
10000b62:	46de      	mov	lr, fp
10000b64:	4657      	mov	r7, sl
10000b66:	464e      	mov	r6, r9
10000b68:	4645      	mov	r5, r8
10000b6a:	b5e0      	push	{r5, r6, r7, lr}
10000b6c:	b08b      	sub	sp, #44	; 0x2c
10000b6e:	4680      	mov	r8, r0
10000b70:	0016      	movs	r6, r2
10000b72:	001f      	movs	r7, r3
10000b74:	9b14      	ldr	r3, [sp, #80]	; 0x50
10000b76:	469a      	mov	sl, r3
10000b78:	9b15      	ldr	r3, [sp, #84]	; 0x54
10000b7a:	4699      	mov	r9, r3
10000b7c:	ab16      	add	r3, sp, #88	; 0x58
10000b7e:	781b      	ldrb	r3, [r3, #0]
10000b80:	469b      	mov	fp, r3
10000b82:	231f      	movs	r3, #31
10000b84:	aa02      	add	r2, sp, #8
10000b86:	4694      	mov	ip, r2
10000b88:	4463      	add	r3, ip
10000b8a:	2200      	movs	r2, #0
10000b8c:	701a      	strb	r2, [r3, #0]
10000b8e:	e032      	b.n	10000bf6 <alarm_pool_add_alarm_at+0x96>
10000b90:	2800      	cmp	r0, #0
10000b92:	d009      	beq.n	10000ba8 <alarm_pool_add_alarm_at+0x48>
10000b94:	4642      	mov	r2, r8
10000b96:	6812      	ldr	r2, [r2, #0]
10000b98:	7b12      	ldrb	r2, [r2, #12]
10000b9a:	4290      	cmp	r0, r2
10000b9c:	d804      	bhi.n	10000ba8 <alarm_pool_add_alarm_at+0x48>
10000b9e:	1e42      	subs	r2, r0, #1
10000ba0:	4641      	mov	r1, r8
10000ba2:	68c9      	ldr	r1, [r1, #12]
10000ba4:	5c8a      	ldrb	r2, [r1, r2]
10000ba6:	e048      	b.n	10000c3a <alarm_pool_add_alarm_at+0xda>
10000ba8:	4b43      	ldr	r3, [pc, #268]	; (10000cb8 <alarm_pool_add_alarm_at+0x158>)
10000baa:	4a44      	ldr	r2, [pc, #272]	; (10000cbc <alarm_pool_add_alarm_at+0x15c>)
10000bac:	2140      	movs	r1, #64	; 0x40
10000bae:	4844      	ldr	r0, [pc, #272]	; (10000cc0 <alarm_pool_add_alarm_at+0x160>)
10000bb0:	f000 fcca 	bl	10001548 <__assert_func>
10000bb4:	9807      	ldr	r0, [sp, #28]
10000bb6:	2b00      	cmp	r3, #0
10000bb8:	d075      	beq.n	10000ca6 <alarm_pool_add_alarm_at+0x146>
10000bba:	465b      	mov	r3, fp
10000bbc:	2b00      	cmp	r3, #0
10000bbe:	d072      	beq.n	10000ca6 <alarm_pool_add_alarm_at+0x146>
10000bc0:	4649      	mov	r1, r9
10000bc2:	47d0      	blx	sl
10000bc4:	0004      	movs	r4, r0
10000bc6:	000d      	movs	r5, r1
10000bc8:	0003      	movs	r3, r0
10000bca:	430b      	orrs	r3, r1
10000bcc:	d100      	bne.n	10000bd0 <alarm_pool_add_alarm_at+0x70>
10000bce:	e071      	b.n	10000cb4 <alarm_pool_add_alarm_at+0x154>
10000bd0:	2900      	cmp	r1, #0
10000bd2:	db46      	blt.n	10000c62 <alarm_pool_add_alarm_at+0x102>
10000bd4:	f000 f982 	bl	10000edc <time_us_64>
10000bd8:	0006      	movs	r6, r0
10000bda:	1e0f      	subs	r7, r1, #0
10000bdc:	db55      	blt.n	10000c8a <alarm_pool_add_alarm_at+0x12a>
10000bde:	1936      	adds	r6, r6, r4
10000be0:	416f      	adcs	r7, r5
10000be2:	42b9      	cmp	r1, r7
10000be4:	d802      	bhi.n	10000bec <alarm_pool_add_alarm_at+0x8c>
10000be6:	d104      	bne.n	10000bf2 <alarm_pool_add_alarm_at+0x92>
10000be8:	42b0      	cmp	r0, r6
10000bea:	d902      	bls.n	10000bf2 <alarm_pool_add_alarm_at+0x92>
10000bec:	2601      	movs	r6, #1
10000bee:	4276      	negs	r6, r6
10000bf0:	17f7      	asrs	r7, r6, #31
10000bf2:	2f00      	cmp	r7, #0
10000bf4:	db4f      	blt.n	10000c96 <alarm_pool_add_alarm_at+0x136>
10000bf6:	4643      	mov	r3, r8
10000bf8:	685a      	ldr	r2, [r3, #4]
10000bfa:	f3ef 8410 	mrs	r4, PRIMASK
10000bfe:	b672      	cpsid	i
10000c00:	6813      	ldr	r3, [r2, #0]
10000c02:	4259      	negs	r1, r3
10000c04:	414b      	adcs	r3, r1
10000c06:	b2d9      	uxtb	r1, r3
10000c08:	9107      	str	r1, [sp, #28]
10000c0a:	2b00      	cmp	r3, #0
10000c0c:	d1f8      	bne.n	10000c00 <alarm_pool_add_alarm_at+0xa0>
10000c0e:	f3bf 8f5f 	dmb	sy
10000c12:	331f      	adds	r3, #31
10000c14:	aa02      	add	r2, sp, #8
10000c16:	4694      	mov	ip, r2
10000c18:	4463      	add	r3, ip
10000c1a:	9304      	str	r3, [sp, #16]
10000c1c:	2300      	movs	r3, #0
10000c1e:	9303      	str	r3, [sp, #12]
10000c20:	9302      	str	r3, [sp, #8]
10000c22:	464b      	mov	r3, r9
10000c24:	9301      	str	r3, [sp, #4]
10000c26:	4653      	mov	r3, sl
10000c28:	9300      	str	r3, [sp, #0]
10000c2a:	0032      	movs	r2, r6
10000c2c:	003b      	movs	r3, r7
10000c2e:	4640      	mov	r0, r8
10000c30:	f7ff fd16 	bl	10000660 <add_alarm_under_lock>
10000c34:	1e03      	subs	r3, r0, #0
10000c36:	d1ab      	bne.n	10000b90 <alarm_pool_add_alarm_at+0x30>
10000c38:	0002      	movs	r2, r0
10000c3a:	4641      	mov	r1, r8
10000c3c:	6849      	ldr	r1, [r1, #4]
10000c3e:	f3bf 8f5f 	dmb	sy
10000c42:	2500      	movs	r5, #0
10000c44:	600d      	str	r5, [r1, #0]
10000c46:	f384 8810 	msr	PRIMASK, r4
10000c4a:	2b00      	cmp	r3, #0
10000c4c:	d029      	beq.n	10000ca2 <alarm_pool_add_alarm_at+0x142>
10000c4e:	231f      	movs	r3, #31
10000c50:	a902      	add	r1, sp, #8
10000c52:	468c      	mov	ip, r1
10000c54:	4463      	add	r3, ip
10000c56:	781b      	ldrb	r3, [r3, #0]
10000c58:	2b00      	cmp	r3, #0
10000c5a:	d1ab      	bne.n	10000bb4 <alarm_pool_add_alarm_at+0x54>
10000c5c:	0212      	lsls	r2, r2, #8
10000c5e:	4310      	orrs	r0, r2
10000c60:	e7a9      	b.n	10000bb6 <alarm_pool_add_alarm_at+0x56>
10000c62:	0032      	movs	r2, r6
10000c64:	003b      	movs	r3, r7
10000c66:	1b36      	subs	r6, r6, r4
10000c68:	41af      	sbcs	r7, r5
10000c6a:	42bb      	cmp	r3, r7
10000c6c:	d802      	bhi.n	10000c74 <alarm_pool_add_alarm_at+0x114>
10000c6e:	d104      	bne.n	10000c7a <alarm_pool_add_alarm_at+0x11a>
10000c70:	42b2      	cmp	r2, r6
10000c72:	d902      	bls.n	10000c7a <alarm_pool_add_alarm_at+0x11a>
10000c74:	2601      	movs	r6, #1
10000c76:	4276      	negs	r6, r6
10000c78:	17f7      	asrs	r7, r6, #31
10000c7a:	2f00      	cmp	r7, #0
10000c7c:	dabb      	bge.n	10000bf6 <alarm_pool_add_alarm_at+0x96>
10000c7e:	4b11      	ldr	r3, [pc, #68]	; (10000cc4 <alarm_pool_add_alarm_at+0x164>)
10000c80:	4a11      	ldr	r2, [pc, #68]	; (10000cc8 <alarm_pool_add_alarm_at+0x168>)
10000c82:	213f      	movs	r1, #63	; 0x3f
10000c84:	4811      	ldr	r0, [pc, #68]	; (10000ccc <alarm_pool_add_alarm_at+0x16c>)
10000c86:	f000 fc5f 	bl	10001548 <__assert_func>
10000c8a:	4b0e      	ldr	r3, [pc, #56]	; (10000cc4 <alarm_pool_add_alarm_at+0x164>)
10000c8c:	4a0e      	ldr	r2, [pc, #56]	; (10000cc8 <alarm_pool_add_alarm_at+0x168>)
10000c8e:	213f      	movs	r1, #63	; 0x3f
10000c90:	480e      	ldr	r0, [pc, #56]	; (10000ccc <alarm_pool_add_alarm_at+0x16c>)
10000c92:	f000 fc59 	bl	10001548 <__assert_func>
10000c96:	4b0b      	ldr	r3, [pc, #44]	; (10000cc4 <alarm_pool_add_alarm_at+0x164>)
10000c98:	4a0b      	ldr	r2, [pc, #44]	; (10000cc8 <alarm_pool_add_alarm_at+0x168>)
10000c9a:	213f      	movs	r1, #63	; 0x3f
10000c9c:	480b      	ldr	r0, [pc, #44]	; (10000ccc <alarm_pool_add_alarm_at+0x16c>)
10000c9e:	f000 fc53 	bl	10001548 <__assert_func>
10000ca2:	2001      	movs	r0, #1
10000ca4:	4240      	negs	r0, r0
10000ca6:	b00b      	add	sp, #44	; 0x2c
10000ca8:	bcf0      	pop	{r4, r5, r6, r7}
10000caa:	46bb      	mov	fp, r7
10000cac:	46b2      	mov	sl, r6
10000cae:	46a9      	mov	r9, r5
10000cb0:	46a0      	mov	r8, r4
10000cb2:	bdf0      	pop	{r4, r5, r6, r7, pc}
10000cb4:	9807      	ldr	r0, [sp, #28]
10000cb6:	e7f6      	b.n	10000ca6 <alarm_pool_add_alarm_at+0x146>
10000cb8:	10004174 	.word	0x10004174
10000cbc:	1000441c 	.word	0x1000441c
10000cc0:	1000413c 	.word	0x1000413c
10000cc4:	10004268 	.word	0x10004268
10000cc8:	100043c4 	.word	0x100043c4
10000ccc:	10004284 	.word	0x10004284

10000cd0 <sleep_until>:
10000cd0:	b5f0      	push	{r4, r5, r6, r7, lr}
10000cd2:	b087      	sub	sp, #28
10000cd4:	0006      	movs	r6, r0
10000cd6:	000f      	movs	r7, r1
10000cd8:	f7ff fac5 	bl	10000266 <__get_current_exception>
10000cdc:	2800      	cmp	r0, #0
10000cde:	d11f      	bne.n	10000d20 <sleep_until+0x50>
10000ce0:	2406      	movs	r4, #6
10000ce2:	4264      	negs	r4, r4
10000ce4:	17e5      	asrs	r5, r4, #31
10000ce6:	19a4      	adds	r4, r4, r6
10000ce8:	417d      	adcs	r5, r7
10000cea:	42bd      	cmp	r5, r7
10000cec:	d802      	bhi.n	10000cf4 <sleep_until+0x24>
10000cee:	d103      	bne.n	10000cf8 <sleep_until+0x28>
10000cf0:	42b4      	cmp	r4, r6
10000cf2:	d901      	bls.n	10000cf8 <sleep_until+0x28>
10000cf4:	2400      	movs	r4, #0
10000cf6:	2500      	movs	r5, #0
10000cf8:	2d00      	cmp	r5, #0
10000cfa:	db14      	blt.n	10000d26 <sleep_until+0x56>
10000cfc:	9404      	str	r4, [sp, #16]
10000cfe:	9505      	str	r5, [sp, #20]
10000d00:	f000 f8ec 	bl	10000edc <time_us_64>
10000d04:	0002      	movs	r2, r0
10000d06:	1e0b      	subs	r3, r1, #0
10000d08:	db13      	blt.n	10000d32 <sleep_until+0x62>
10000d0a:	1aa4      	subs	r4, r4, r2
10000d0c:	419d      	sbcs	r5, r3
10000d0e:	2d00      	cmp	r5, #0
10000d10:	dc17      	bgt.n	10000d42 <sleep_until+0x72>
10000d12:	d014      	beq.n	10000d3e <sleep_until+0x6e>
10000d14:	0030      	movs	r0, r6
10000d16:	0039      	movs	r1, r7
10000d18:	f000 f8ec 	bl	10000ef4 <busy_wait_until>
10000d1c:	b007      	add	sp, #28
10000d1e:	bdf0      	pop	{r4, r5, r6, r7, pc}
10000d20:	4823      	ldr	r0, [pc, #140]	; (10000db0 <sleep_until+0xe0>)
10000d22:	f000 fcab 	bl	1000167c <panic>
10000d26:	4b23      	ldr	r3, [pc, #140]	; (10000db4 <sleep_until+0xe4>)
10000d28:	4a23      	ldr	r2, [pc, #140]	; (10000db8 <sleep_until+0xe8>)
10000d2a:	213f      	movs	r1, #63	; 0x3f
10000d2c:	4823      	ldr	r0, [pc, #140]	; (10000dbc <sleep_until+0xec>)
10000d2e:	f000 fc0b 	bl	10001548 <__assert_func>
10000d32:	4b20      	ldr	r3, [pc, #128]	; (10000db4 <sleep_until+0xe4>)
10000d34:	4a20      	ldr	r2, [pc, #128]	; (10000db8 <sleep_until+0xe8>)
10000d36:	213f      	movs	r1, #63	; 0x3f
10000d38:	4820      	ldr	r0, [pc, #128]	; (10000dbc <sleep_until+0xec>)
10000d3a:	f000 fc05 	bl	10001548 <__assert_func>
10000d3e:	2c00      	cmp	r4, #0
10000d40:	d0e8      	beq.n	10000d14 <sleep_until+0x44>
10000d42:	f7ff fef7 	bl	10000b34 <alarm_pool_get_default>
10000d46:	2300      	movs	r3, #0
10000d48:	9302      	str	r3, [sp, #8]
10000d4a:	9301      	str	r3, [sp, #4]
10000d4c:	4b1c      	ldr	r3, [pc, #112]	; (10000dc0 <sleep_until+0xf0>)
10000d4e:	9300      	str	r3, [sp, #0]
10000d50:	9a04      	ldr	r2, [sp, #16]
10000d52:	9b05      	ldr	r3, [sp, #20]
10000d54:	f7ff ff04 	bl	10000b60 <alarm_pool_add_alarm_at>
10000d58:	2800      	cmp	r0, #0
10000d5a:	da18      	bge.n	10000d8e <sleep_until+0xbe>
10000d5c:	e7da      	b.n	10000d14 <sleep_until+0x44>
10000d5e:	2300      	movs	r3, #0
10000d60:	e000      	b.n	10000d64 <sleep_until+0x94>
10000d62:	2300      	movs	r3, #0
10000d64:	2b00      	cmp	r3, #0
10000d66:	d1d5      	bne.n	10000d14 <sleep_until+0x44>
10000d68:	4b16      	ldr	r3, [pc, #88]	; (10000dc4 <sleep_until+0xf4>)
10000d6a:	681a      	ldr	r2, [r3, #0]
10000d6c:	f3ef 8110 	mrs	r1, PRIMASK
10000d70:	b672      	cpsid	i
10000d72:	6813      	ldr	r3, [r2, #0]
10000d74:	2b00      	cmp	r3, #0
10000d76:	d0fc      	beq.n	10000d72 <sleep_until+0xa2>
10000d78:	f3bf 8f5f 	dmb	sy
10000d7c:	4b11      	ldr	r3, [pc, #68]	; (10000dc4 <sleep_until+0xf4>)
10000d7e:	681b      	ldr	r3, [r3, #0]
10000d80:	f3bf 8f5f 	dmb	sy
10000d84:	2200      	movs	r2, #0
10000d86:	601a      	str	r2, [r3, #0]
10000d88:	f381 8810 	msr	PRIMASK, r1
10000d8c:	bf20      	wfe
10000d8e:	9904      	ldr	r1, [sp, #16]
10000d90:	9a05      	ldr	r2, [sp, #20]
10000d92:	4b0d      	ldr	r3, [pc, #52]	; (10000dc8 <sleep_until+0xf8>)
10000d94:	6a5b      	ldr	r3, [r3, #36]	; 0x24
10000d96:	429a      	cmp	r2, r3
10000d98:	d8e3      	bhi.n	10000d62 <sleep_until+0x92>
10000d9a:	480b      	ldr	r0, [pc, #44]	; (10000dc8 <sleep_until+0xf8>)
10000d9c:	6a80      	ldr	r0, [r0, #40]	; 0x28
10000d9e:	4288      	cmp	r0, r1
10000da0:	d203      	bcs.n	10000daa <sleep_until+0xda>
10000da2:	429a      	cmp	r2, r3
10000da4:	d0db      	beq.n	10000d5e <sleep_until+0x8e>
10000da6:	2301      	movs	r3, #1
10000da8:	e7dc      	b.n	10000d64 <sleep_until+0x94>
10000daa:	2301      	movs	r3, #1
10000dac:	e7da      	b.n	10000d64 <sleep_until+0x94>
10000dae:	46c0      	nop			; (mov r8, r8)
10000db0:	10004374 	.word	0x10004374
10000db4:	10004268 	.word	0x10004268
10000db8:	100043c4 	.word	0x100043c4
10000dbc:	10004284 	.word	0x10004284
10000dc0:	100004d1 	.word	0x100004d1
10000dc4:	20000620 	.word	0x20000620
10000dc8:	40054000 	.word	0x40054000

10000dcc <sleep_us>:
10000dcc:	b5f8      	push	{r3, r4, r5, r6, r7, lr}
10000dce:	0004      	movs	r4, r0
10000dd0:	000d      	movs	r5, r1
10000dd2:	f000 f883 	bl	10000edc <time_us_64>
10000dd6:	0002      	movs	r2, r0
10000dd8:	1e0b      	subs	r3, r1, #0
10000dda:	db10      	blt.n	10000dfe <sleep_us+0x32>
10000ddc:	0020      	movs	r0, r4
10000dde:	0029      	movs	r1, r5
10000de0:	1880      	adds	r0, r0, r2
10000de2:	4159      	adcs	r1, r3
10000de4:	428b      	cmp	r3, r1
10000de6:	d802      	bhi.n	10000dee <sleep_us+0x22>
10000de8:	d104      	bne.n	10000df4 <sleep_us+0x28>
10000dea:	4282      	cmp	r2, r0
10000dec:	d902      	bls.n	10000df4 <sleep_us+0x28>
10000dee:	2001      	movs	r0, #1
10000df0:	4240      	negs	r0, r0
10000df2:	17c1      	asrs	r1, r0, #31
10000df4:	2900      	cmp	r1, #0
10000df6:	db08      	blt.n	10000e0a <sleep_us+0x3e>
10000df8:	f7ff ff6a 	bl	10000cd0 <sleep_until>
10000dfc:	bdf8      	pop	{r3, r4, r5, r6, r7, pc}
10000dfe:	4b06      	ldr	r3, [pc, #24]	; (10000e18 <sleep_us+0x4c>)
10000e00:	4a06      	ldr	r2, [pc, #24]	; (10000e1c <sleep_us+0x50>)
10000e02:	213f      	movs	r1, #63	; 0x3f
10000e04:	4806      	ldr	r0, [pc, #24]	; (10000e20 <sleep_us+0x54>)
10000e06:	f000 fb9f 	bl	10001548 <__assert_func>
10000e0a:	4b03      	ldr	r3, [pc, #12]	; (10000e18 <sleep_us+0x4c>)
10000e0c:	4a03      	ldr	r2, [pc, #12]	; (10000e1c <sleep_us+0x50>)
10000e0e:	213f      	movs	r1, #63	; 0x3f
10000e10:	4803      	ldr	r0, [pc, #12]	; (10000e20 <sleep_us+0x54>)
10000e12:	f000 fb99 	bl	10001548 <__assert_func>
10000e16:	46c0      	nop			; (mov r8, r8)
10000e18:	10004268 	.word	0x10004268
10000e1c:	100043c4 	.word	0x100043c4
10000e20:	10004284 	.word	0x10004284

10000e24 <sleep_ms>:
10000e24:	b510      	push	{r4, lr}
10000e26:	22fa      	movs	r2, #250	; 0xfa
10000e28:	0092      	lsls	r2, r2, #2
10000e2a:	2300      	movs	r3, #0
10000e2c:	2100      	movs	r1, #0
10000e2e:	f002 ff27 	bl	10003c80 <__wrap___aeabi_lmul>
10000e32:	f7ff ffcb 	bl	10000dcc <sleep_us>
10000e36:	bd10      	pop	{r4, pc}

10000e38 <hardware_alarm_irq_handler>:
10000e38:	b570      	push	{r4, r5, r6, lr}
10000e3a:	f3ef 8305 	mrs	r3, IPSR
10000e3e:	203f      	movs	r0, #63	; 0x3f
10000e40:	4018      	ands	r0, r3
10000e42:	3810      	subs	r0, #16
10000e44:	f3ef 8c10 	mrs	ip, PRIMASK
10000e48:	b672      	cpsid	i
10000e4a:	4b19      	ldr	r3, [pc, #100]	; (10000eb0 <hardware_alarm_irq_handler+0x78>)
10000e4c:	681b      	ldr	r3, [r3, #0]
10000e4e:	2b00      	cmp	r3, #0
10000e50:	d0fb      	beq.n	10000e4a <hardware_alarm_irq_handler+0x12>
10000e52:	f3bf 8f5f 	dmb	sy
10000e56:	2301      	movs	r3, #1
10000e58:	0019      	movs	r1, r3
10000e5a:	4081      	lsls	r1, r0
10000e5c:	4a15      	ldr	r2, [pc, #84]	; (10000eb4 <hardware_alarm_irq_handler+0x7c>)
10000e5e:	6351      	str	r1, [r2, #52]	; 0x34
10000e60:	4a15      	ldr	r2, [pc, #84]	; (10000eb8 <hardware_alarm_irq_handler+0x80>)
10000e62:	7812      	ldrb	r2, [r2, #0]
10000e64:	0014      	movs	r4, r2
10000e66:	40c4      	lsrs	r4, r0
10000e68:	4223      	tst	r3, r4
10000e6a:	d014      	beq.n	10000e96 <hardware_alarm_irq_handler+0x5e>
10000e6c:	4b11      	ldr	r3, [pc, #68]	; (10000eb4 <hardware_alarm_irq_handler+0x7c>)
10000e6e:	6a5c      	ldr	r4, [r3, #36]	; 0x24
10000e70:	0083      	lsls	r3, r0, #2
10000e72:	4d12      	ldr	r5, [pc, #72]	; (10000ebc <hardware_alarm_irq_handler+0x84>)
10000e74:	595b      	ldr	r3, [r3, r5]
10000e76:	429c      	cmp	r4, r3
10000e78:	d306      	bcc.n	10000e88 <hardware_alarm_irq_handler+0x50>
10000e7a:	0083      	lsls	r3, r0, #2
10000e7c:	4c10      	ldr	r4, [pc, #64]	; (10000ec0 <hardware_alarm_irq_handler+0x88>)
10000e7e:	591b      	ldr	r3, [r3, r4]
10000e80:	438a      	bics	r2, r1
10000e82:	490d      	ldr	r1, [pc, #52]	; (10000eb8 <hardware_alarm_irq_handler+0x80>)
10000e84:	700a      	strb	r2, [r1, #0]
10000e86:	e007      	b.n	10000e98 <hardware_alarm_irq_handler+0x60>
10000e88:	4a0a      	ldr	r2, [pc, #40]	; (10000eb4 <hardware_alarm_irq_handler+0x7c>)
10000e8a:	1d03      	adds	r3, r0, #4
10000e8c:	009b      	lsls	r3, r3, #2
10000e8e:	5899      	ldr	r1, [r3, r2]
10000e90:	5099      	str	r1, [r3, r2]
10000e92:	2300      	movs	r3, #0
10000e94:	e000      	b.n	10000e98 <hardware_alarm_irq_handler+0x60>
10000e96:	2300      	movs	r3, #0
10000e98:	f3bf 8f5f 	dmb	sy
10000e9c:	4a04      	ldr	r2, [pc, #16]	; (10000eb0 <hardware_alarm_irq_handler+0x78>)
10000e9e:	2100      	movs	r1, #0
10000ea0:	6011      	str	r1, [r2, #0]
10000ea2:	f38c 8810 	msr	PRIMASK, ip
10000ea6:	2b00      	cmp	r3, #0
10000ea8:	d000      	beq.n	10000eac <hardware_alarm_irq_handler+0x74>
10000eaa:	4798      	blx	r3
10000eac:	bd70      	pop	{r4, r5, r6, pc}
10000eae:	46c0      	nop			; (mov r8, r8)
10000eb0:	d0000128 	.word	0xd0000128
10000eb4:	40054000 	.word	0x40054000
10000eb8:	20000636 	.word	0x20000636
10000ebc:	20000624 	.word	0x20000624
10000ec0:	2000038c 	.word	0x2000038c

10000ec4 <hardware_alarm_claim>:
10000ec4:	b510      	push	{r4, lr}
10000ec6:	0001      	movs	r1, r0
10000ec8:	4a02      	ldr	r2, [pc, #8]	; (10000ed4 <hardware_alarm_claim+0x10>)
10000eca:	4803      	ldr	r0, [pc, #12]	; (10000ed8 <hardware_alarm_claim+0x14>)
10000ecc:	f7ff fa9e 	bl	1000040c <hw_claim_or_assert>
10000ed0:	bd10      	pop	{r4, pc}
10000ed2:	46c0      	nop			; (mov r8, r8)
10000ed4:	10004488 	.word	0x10004488
10000ed8:	20000634 	.word	0x20000634

10000edc <time_us_64>:
10000edc:	4b04      	ldr	r3, [pc, #16]	; (10000ef0 <time_us_64+0x14>)
10000ede:	6a5b      	ldr	r3, [r3, #36]	; 0x24
10000ee0:	4a03      	ldr	r2, [pc, #12]	; (10000ef0 <time_us_64+0x14>)
10000ee2:	6a90      	ldr	r0, [r2, #40]	; 0x28
10000ee4:	0019      	movs	r1, r3
10000ee6:	6a53      	ldr	r3, [r2, #36]	; 0x24
10000ee8:	4299      	cmp	r1, r3
10000eea:	d1f9      	bne.n	10000ee0 <time_us_64+0x4>
10000eec:	4770      	bx	lr
10000eee:	46c0      	nop			; (mov r8, r8)
10000ef0:	40054000 	.word	0x40054000

10000ef4 <busy_wait_until>:
10000ef4:	4b08      	ldr	r3, [pc, #32]	; (10000f18 <busy_wait_until+0x24>)
10000ef6:	6a5b      	ldr	r3, [r3, #36]	; 0x24
10000ef8:	e001      	b.n	10000efe <busy_wait_until+0xa>
10000efa:	4b07      	ldr	r3, [pc, #28]	; (10000f18 <busy_wait_until+0x24>)
10000efc:	6a5b      	ldr	r3, [r3, #36]	; 0x24
10000efe:	428b      	cmp	r3, r1
10000f00:	d3fb      	bcc.n	10000efa <busy_wait_until+0x6>
10000f02:	e001      	b.n	10000f08 <busy_wait_until+0x14>
10000f04:	4b04      	ldr	r3, [pc, #16]	; (10000f18 <busy_wait_until+0x24>)
10000f06:	6a5b      	ldr	r3, [r3, #36]	; 0x24
10000f08:	428b      	cmp	r3, r1
10000f0a:	d103      	bne.n	10000f14 <busy_wait_until+0x20>
10000f0c:	4b02      	ldr	r3, [pc, #8]	; (10000f18 <busy_wait_until+0x24>)
10000f0e:	6a9b      	ldr	r3, [r3, #40]	; 0x28
10000f10:	4283      	cmp	r3, r0
10000f12:	d3f7      	bcc.n	10000f04 <busy_wait_until+0x10>
10000f14:	4770      	bx	lr
10000f16:	46c0      	nop			; (mov r8, r8)
10000f18:	40054000 	.word	0x40054000

10000f1c <hardware_alarm_set_callback>:
10000f1c:	b570      	push	{r4, r5, r6, lr}
10000f1e:	0004      	movs	r4, r0
10000f20:	000d      	movs	r5, r1
10000f22:	f3ef 8610 	mrs	r6, PRIMASK
10000f26:	b672      	cpsid	i
10000f28:	4b1b      	ldr	r3, [pc, #108]	; (10000f98 <hardware_alarm_set_callback+0x7c>)
10000f2a:	681b      	ldr	r3, [r3, #0]
10000f2c:	2b00      	cmp	r3, #0
10000f2e:	d0fb      	beq.n	10000f28 <hardware_alarm_set_callback+0xc>
10000f30:	f3bf 8f5f 	dmb	sy
10000f34:	2d00      	cmp	r5, #0
10000f36:	d01c      	beq.n	10000f72 <hardware_alarm_set_callback+0x56>
10000f38:	0020      	movs	r0, r4
10000f3a:	f000 fd2b 	bl	10001994 <irq_get_vtable_handler>
10000f3e:	4b17      	ldr	r3, [pc, #92]	; (10000f9c <hardware_alarm_set_callback+0x80>)
10000f40:	4283      	cmp	r3, r0
10000f42:	d00b      	beq.n	10000f5c <hardware_alarm_set_callback+0x40>
10000f44:	0019      	movs	r1, r3
10000f46:	0020      	movs	r0, r4
10000f48:	f000 fd2c 	bl	100019a4 <irq_set_exclusive_handler>
10000f4c:	2101      	movs	r1, #1
10000f4e:	0020      	movs	r0, r4
10000f50:	f000 fd18 	bl	10001984 <irq_set_enabled>
10000f54:	2301      	movs	r3, #1
10000f56:	40a3      	lsls	r3, r4
10000f58:	4a11      	ldr	r2, [pc, #68]	; (10000fa0 <hardware_alarm_set_callback+0x84>)
10000f5a:	6013      	str	r3, [r2, #0]
10000f5c:	00a4      	lsls	r4, r4, #2
10000f5e:	4b11      	ldr	r3, [pc, #68]	; (10000fa4 <hardware_alarm_set_callback+0x88>)
10000f60:	50e5      	str	r5, [r4, r3]
10000f62:	f3bf 8f5f 	dmb	sy
10000f66:	4b0c      	ldr	r3, [pc, #48]	; (10000f98 <hardware_alarm_set_callback+0x7c>)
10000f68:	2200      	movs	r2, #0
10000f6a:	601a      	str	r2, [r3, #0]
10000f6c:	f386 8810 	msr	PRIMASK, r6
10000f70:	bd70      	pop	{r4, r5, r6, pc}
10000f72:	00a2      	lsls	r2, r4, #2
10000f74:	4b0b      	ldr	r3, [pc, #44]	; (10000fa4 <hardware_alarm_set_callback+0x88>)
10000f76:	2100      	movs	r1, #0
10000f78:	50d1      	str	r1, [r2, r3]
10000f7a:	2201      	movs	r2, #1
10000f7c:	40a2      	lsls	r2, r4
10000f7e:	490a      	ldr	r1, [pc, #40]	; (10000fa8 <hardware_alarm_set_callback+0x8c>)
10000f80:	780b      	ldrb	r3, [r1, #0]
10000f82:	4393      	bics	r3, r2
10000f84:	700b      	strb	r3, [r1, #0]
10000f86:	4905      	ldr	r1, [pc, #20]	; (10000f9c <hardware_alarm_set_callback+0x80>)
10000f88:	0020      	movs	r0, r4
10000f8a:	f000 fd35 	bl	100019f8 <irq_remove_handler>
10000f8e:	2100      	movs	r1, #0
10000f90:	0020      	movs	r0, r4
10000f92:	f000 fcf7 	bl	10001984 <irq_set_enabled>
10000f96:	e7e4      	b.n	10000f62 <hardware_alarm_set_callback+0x46>
10000f98:	d0000128 	.word	0xd0000128
10000f9c:	10000e39 	.word	0x10000e39
10000fa0:	40056038 	.word	0x40056038
10000fa4:	2000038c 	.word	0x2000038c
10000fa8:	20000636 	.word	0x20000636

10000fac <hardware_alarm_set_target>:
10000fac:	b5f0      	push	{r4, r5, r6, r7, lr}
10000fae:	46de      	mov	lr, fp
10000fb0:	b500      	push	{lr}
10000fb2:	b084      	sub	sp, #16
10000fb4:	0004      	movs	r4, r0
10000fb6:	0015      	movs	r5, r2
10000fb8:	9201      	str	r2, [sp, #4]
10000fba:	001e      	movs	r6, r3
10000fbc:	9302      	str	r3, [sp, #8]
10000fbe:	f7ff ff8d 	bl	10000edc <time_us_64>
10000fc2:	9503      	str	r5, [sp, #12]
10000fc4:	428e      	cmp	r6, r1
10000fc6:	d802      	bhi.n	10000fce <hardware_alarm_set_target+0x22>
10000fc8:	d14e      	bne.n	10001068 <hardware_alarm_set_target+0xbc>
10000fca:	4285      	cmp	r5, r0
10000fcc:	d94c      	bls.n	10001068 <hardware_alarm_set_target+0xbc>
10000fce:	f3ef 8b10 	mrs	fp, PRIMASK
10000fd2:	b672      	cpsid	i
10000fd4:	4b27      	ldr	r3, [pc, #156]	; (10001074 <hardware_alarm_set_target+0xc8>)
10000fd6:	681b      	ldr	r3, [r3, #0]
10000fd8:	2b00      	cmp	r3, #0
10000fda:	d0fb      	beq.n	10000fd4 <hardware_alarm_set_target+0x28>
10000fdc:	f3bf 8f5f 	dmb	sy
10000fe0:	4a25      	ldr	r2, [pc, #148]	; (10001078 <hardware_alarm_set_target+0xcc>)
10000fe2:	7817      	ldrb	r7, [r2, #0]
10000fe4:	2501      	movs	r5, #1
10000fe6:	40a5      	lsls	r5, r4
10000fe8:	b2eb      	uxtb	r3, r5
10000fea:	433b      	orrs	r3, r7
10000fec:	7013      	strb	r3, [r2, #0]
10000fee:	4b23      	ldr	r3, [pc, #140]	; (1000107c <hardware_alarm_set_target+0xd0>)
10000ff0:	635d      	str	r5, [r3, #52]	; 0x34
10000ff2:	1d22      	adds	r2, r4, #4
10000ff4:	0092      	lsls	r2, r2, #2
10000ff6:	9901      	ldr	r1, [sp, #4]
10000ff8:	50d1      	str	r1, [r2, r3]
10000ffa:	00a2      	lsls	r2, r4, #2
10000ffc:	4920      	ldr	r1, [pc, #128]	; (10001080 <hardware_alarm_set_target+0xd4>)
10000ffe:	9802      	ldr	r0, [sp, #8]
10001000:	5050      	str	r0, [r2, r1]
10001002:	6a1b      	ldr	r3, [r3, #32]
10001004:	422b      	tst	r3, r5
10001006:	d112      	bne.n	1000102e <hardware_alarm_set_target+0x82>
10001008:	4b1c      	ldr	r3, [pc, #112]	; (1000107c <hardware_alarm_set_target+0xd0>)
1000100a:	6c1b      	ldr	r3, [r3, #64]	; 0x40
1000100c:	422b      	tst	r3, r5
1000100e:	d008      	beq.n	10001022 <hardware_alarm_set_target+0x76>
10001010:	2000      	movs	r0, #0
10001012:	f3bf 8f5f 	dmb	sy
10001016:	4b17      	ldr	r3, [pc, #92]	; (10001074 <hardware_alarm_set_target+0xc8>)
10001018:	2200      	movs	r2, #0
1000101a:	601a      	str	r2, [r3, #0]
1000101c:	f38b 8810 	msr	PRIMASK, fp
10001020:	e023      	b.n	1000106a <hardware_alarm_set_target+0xbe>
10001022:	4b18      	ldr	r3, [pc, #96]	; (10001084 <hardware_alarm_set_target+0xd8>)
10001024:	4a18      	ldr	r2, [pc, #96]	; (10001088 <hardware_alarm_set_target+0xdc>)
10001026:	21c1      	movs	r1, #193	; 0xc1
10001028:	4818      	ldr	r0, [pc, #96]	; (1000108c <hardware_alarm_set_target+0xe0>)
1000102a:	f000 fa8d 	bl	10001548 <__assert_func>
1000102e:	f7ff ff55 	bl	10000edc <time_us_64>
10001032:	428e      	cmp	r6, r1
10001034:	d814      	bhi.n	10001060 <hardware_alarm_set_target+0xb4>
10001036:	d102      	bne.n	1000103e <hardware_alarm_set_target+0x92>
10001038:	9b03      	ldr	r3, [sp, #12]
1000103a:	4283      	cmp	r3, r0
1000103c:	d810      	bhi.n	10001060 <hardware_alarm_set_target+0xb4>
1000103e:	4b0e      	ldr	r3, [pc, #56]	; (10001078 <hardware_alarm_set_target+0xcc>)
10001040:	781b      	ldrb	r3, [r3, #0]
10001042:	42bb      	cmp	r3, r7
10001044:	d00e      	beq.n	10001064 <hardware_alarm_set_target+0xb8>
10001046:	4b0d      	ldr	r3, [pc, #52]	; (1000107c <hardware_alarm_set_target+0xd0>)
10001048:	621d      	str	r5, [r3, #32]
1000104a:	635d      	str	r5, [r3, #52]	; 0x34
1000104c:	201f      	movs	r0, #31
1000104e:	4004      	ands	r4, r0
10001050:	2301      	movs	r3, #1
10001052:	40a3      	lsls	r3, r4
10001054:	4a0e      	ldr	r2, [pc, #56]	; (10001090 <hardware_alarm_set_target+0xe4>)
10001056:	6013      	str	r3, [r2, #0]
10001058:	4b07      	ldr	r3, [pc, #28]	; (10001078 <hardware_alarm_set_target+0xcc>)
1000105a:	701f      	strb	r7, [r3, #0]
1000105c:	381e      	subs	r0, #30
1000105e:	e7d8      	b.n	10001012 <hardware_alarm_set_target+0x66>
10001060:	2000      	movs	r0, #0
10001062:	e7d6      	b.n	10001012 <hardware_alarm_set_target+0x66>
10001064:	2001      	movs	r0, #1
10001066:	e7d4      	b.n	10001012 <hardware_alarm_set_target+0x66>
10001068:	2001      	movs	r0, #1
1000106a:	b004      	add	sp, #16
1000106c:	bc80      	pop	{r7}
1000106e:	46bb      	mov	fp, r7
10001070:	bdf0      	pop	{r4, r5, r6, r7, pc}
10001072:	46c0      	nop			; (mov r8, r8)
10001074:	d0000128 	.word	0xd0000128
10001078:	20000636 	.word	0x20000636
1000107c:	40054000 	.word	0x40054000
10001080:	20000624 	.word	0x20000624
10001084:	100044ac 	.word	0x100044ac
10001088:	10004514 	.word	0x10004514
1000108c:	100044d0 	.word	0x100044d0
10001090:	e000e280 	.word	0xe000e280

10001094 <hardware_alarm_cancel>:
10001094:	f3ef 8c10 	mrs	ip, PRIMASK
10001098:	b672      	cpsid	i
1000109a:	4b0b      	ldr	r3, [pc, #44]	; (100010c8 <hardware_alarm_cancel+0x34>)
1000109c:	681b      	ldr	r3, [r3, #0]
1000109e:	2b00      	cmp	r3, #0
100010a0:	d0fb      	beq.n	1000109a <hardware_alarm_cancel+0x6>
100010a2:	f3bf 8f5f 	dmb	sy
100010a6:	2301      	movs	r3, #1
100010a8:	4083      	lsls	r3, r0
100010aa:	4a08      	ldr	r2, [pc, #32]	; (100010cc <hardware_alarm_cancel+0x38>)
100010ac:	6213      	str	r3, [r2, #32]
100010ae:	4908      	ldr	r1, [pc, #32]	; (100010d0 <hardware_alarm_cancel+0x3c>)
100010b0:	780a      	ldrb	r2, [r1, #0]
100010b2:	439a      	bics	r2, r3
100010b4:	700a      	strb	r2, [r1, #0]
100010b6:	f3bf 8f5f 	dmb	sy
100010ba:	4b03      	ldr	r3, [pc, #12]	; (100010c8 <hardware_alarm_cancel+0x34>)
100010bc:	2200      	movs	r2, #0
100010be:	601a      	str	r2, [r3, #0]
100010c0:	f38c 8810 	msr	PRIMASK, ip
100010c4:	4770      	bx	lr
100010c6:	46c0      	nop			; (mov r8, r8)
100010c8:	d0000128 	.word	0xd0000128
100010cc:	40054000 	.word	0x40054000
100010d0:	20000636 	.word	0x20000636

100010d4 <lock_init>:
100010d4:	4b02      	ldr	r3, [pc, #8]	; (100010e0 <lock_init+0xc>)
100010d6:	469c      	mov	ip, r3
100010d8:	4461      	add	r1, ip
100010da:	0089      	lsls	r1, r1, #2
100010dc:	6001      	str	r1, [r0, #0]
100010de:	4770      	bx	lr
100010e0:	34000040 	.word	0x34000040

100010e4 <mutex_init>:
100010e4:	b510      	push	{r4, lr}
100010e6:	0004      	movs	r4, r0
100010e8:	f7ff f9c4 	bl	10000474 <next_striped_spin_lock_num>
100010ec:	0001      	movs	r1, r0
100010ee:	0020      	movs	r0, r4
100010f0:	f7ff fff0 	bl	100010d4 <lock_init>
100010f4:	23ff      	movs	r3, #255	; 0xff
100010f6:	7123      	strb	r3, [r4, #4]
100010f8:	f3bf 8f5f 	dmb	sy
100010fc:	bd10      	pop	{r4, pc}

100010fe <recursive_mutex_init>:
100010fe:	b510      	push	{r4, lr}
10001100:	0004      	movs	r4, r0
10001102:	f7ff f9b7 	bl	10000474 <next_striped_spin_lock_num>
10001106:	0001      	movs	r1, r0
10001108:	0020      	movs	r0, r4
1000110a:	f7ff ffe3 	bl	100010d4 <lock_init>
1000110e:	23ff      	movs	r3, #255	; 0xff
10001110:	7123      	strb	r3, [r4, #4]
10001112:	2300      	movs	r3, #0
10001114:	7163      	strb	r3, [r4, #5]
10001116:	f3bf 8f5f 	dmb	sy
1000111a:	bd10      	pop	{r4, pc}

1000111c <ph_add_child_node>:
1000111c:	b510      	push	{r4, lr}
1000111e:	2900      	cmp	r1, #0
10001120:	d01e      	beq.n	10001160 <ph_add_child_node+0x44>
10001122:	7b03      	ldrb	r3, [r0, #12]
10001124:	4299      	cmp	r1, r3
10001126:	d81b      	bhi.n	10001160 <ph_add_child_node+0x44>
10001128:	004b      	lsls	r3, r1, #1
1000112a:	185b      	adds	r3, r3, r1
1000112c:	3b03      	subs	r3, #3
1000112e:	6804      	ldr	r4, [r0, #0]
10001130:	46a4      	mov	ip, r4
10001132:	4463      	add	r3, ip
10001134:	2900      	cmp	r1, #0
10001136:	d019      	beq.n	1000116c <ph_add_child_node+0x50>
10001138:	2a00      	cmp	r2, #0
1000113a:	d01d      	beq.n	10001178 <ph_add_child_node+0x5c>
1000113c:	4291      	cmp	r1, r2
1000113e:	d021      	beq.n	10001184 <ph_add_child_node+0x68>
10001140:	2a00      	cmp	r2, #0
10001142:	d025      	beq.n	10001190 <ph_add_child_node+0x74>
10001144:	7b04      	ldrb	r4, [r0, #12]
10001146:	42a2      	cmp	r2, r4
10001148:	d822      	bhi.n	10001190 <ph_add_child_node+0x74>
1000114a:	6804      	ldr	r4, [r0, #0]
1000114c:	0050      	lsls	r0, r2, #1
1000114e:	1880      	adds	r0, r0, r2
10001150:	3803      	subs	r0, #3
10001152:	1820      	adds	r0, r4, r0
10001154:	7081      	strb	r1, [r0, #2]
10001156:	7819      	ldrb	r1, [r3, #0]
10001158:	2900      	cmp	r1, #0
1000115a:	d11f      	bne.n	1000119c <ph_add_child_node+0x80>
1000115c:	701a      	strb	r2, [r3, #0]
1000115e:	bd10      	pop	{r4, pc}
10001160:	4b10      	ldr	r3, [pc, #64]	; (100011a4 <ph_add_child_node+0x88>)
10001162:	4a11      	ldr	r2, [pc, #68]	; (100011a8 <ph_add_child_node+0x8c>)
10001164:	2169      	movs	r1, #105	; 0x69
10001166:	4811      	ldr	r0, [pc, #68]	; (100011ac <ph_add_child_node+0x90>)
10001168:	f000 f9ee 	bl	10001548 <__assert_func>
1000116c:	4b10      	ldr	r3, [pc, #64]	; (100011b0 <ph_add_child_node+0x94>)
1000116e:	4a11      	ldr	r2, [pc, #68]	; (100011b4 <ph_add_child_node+0x98>)
10001170:	3170      	adds	r1, #112	; 0x70
10001172:	480e      	ldr	r0, [pc, #56]	; (100011ac <ph_add_child_node+0x90>)
10001174:	f000 f9e8 	bl	10001548 <__assert_func>
10001178:	4b0f      	ldr	r3, [pc, #60]	; (100011b8 <ph_add_child_node+0x9c>)
1000117a:	4a0e      	ldr	r2, [pc, #56]	; (100011b4 <ph_add_child_node+0x98>)
1000117c:	2171      	movs	r1, #113	; 0x71
1000117e:	480b      	ldr	r0, [pc, #44]	; (100011ac <ph_add_child_node+0x90>)
10001180:	f000 f9e2 	bl	10001548 <__assert_func>
10001184:	4b0d      	ldr	r3, [pc, #52]	; (100011bc <ph_add_child_node+0xa0>)
10001186:	4a0b      	ldr	r2, [pc, #44]	; (100011b4 <ph_add_child_node+0x98>)
10001188:	2172      	movs	r1, #114	; 0x72
1000118a:	4808      	ldr	r0, [pc, #32]	; (100011ac <ph_add_child_node+0x90>)
1000118c:	f000 f9dc 	bl	10001548 <__assert_func>
10001190:	4b04      	ldr	r3, [pc, #16]	; (100011a4 <ph_add_child_node+0x88>)
10001192:	4a05      	ldr	r2, [pc, #20]	; (100011a8 <ph_add_child_node+0x8c>)
10001194:	2169      	movs	r1, #105	; 0x69
10001196:	4805      	ldr	r0, [pc, #20]	; (100011ac <ph_add_child_node+0x90>)
10001198:	f000 f9d6 	bl	10001548 <__assert_func>
1000119c:	7041      	strb	r1, [r0, #1]
1000119e:	701a      	strb	r2, [r3, #0]
100011a0:	e7dd      	b.n	1000115e <ph_add_child_node+0x42>
100011a2:	46c0      	nop			; (mov r8, r8)
100011a4:	100041a8 	.word	0x100041a8
100011a8:	100046bc 	.word	0x100046bc
100011ac:	100041c4 	.word	0x100041c4
100011b0:	10004210 	.word	0x10004210
100011b4:	100046a8 	.word	0x100046a8
100011b8:	1000421c 	.word	0x1000421c
100011bc:	10004228 	.word	0x10004228

100011c0 <ph_merge_nodes>:
100011c0:	b570      	push	{r4, r5, r6, lr}
100011c2:	0006      	movs	r6, r0
100011c4:	000d      	movs	r5, r1
100011c6:	0014      	movs	r4, r2
100011c8:	2900      	cmp	r1, #0
100011ca:	d014      	beq.n	100011f6 <ph_merge_nodes+0x36>
100011cc:	2a00      	cmp	r2, #0
100011ce:	d014      	beq.n	100011fa <ph_merge_nodes+0x3a>
100011d0:	6880      	ldr	r0, [r0, #8]
100011d2:	6873      	ldr	r3, [r6, #4]
100011d4:	4798      	blx	r3
100011d6:	2800      	cmp	r0, #0
100011d8:	d006      	beq.n	100011e8 <ph_merge_nodes+0x28>
100011da:	0022      	movs	r2, r4
100011dc:	0029      	movs	r1, r5
100011de:	0030      	movs	r0, r6
100011e0:	f7ff ff9c 	bl	1000111c <ph_add_child_node>
100011e4:	0028      	movs	r0, r5
100011e6:	e007      	b.n	100011f8 <ph_merge_nodes+0x38>
100011e8:	002a      	movs	r2, r5
100011ea:	0021      	movs	r1, r4
100011ec:	0030      	movs	r0, r6
100011ee:	f7ff ff95 	bl	1000111c <ph_add_child_node>
100011f2:	0020      	movs	r0, r4
100011f4:	e000      	b.n	100011f8 <ph_merge_nodes+0x38>
100011f6:	0010      	movs	r0, r2
100011f8:	bd70      	pop	{r4, r5, r6, pc}
100011fa:	0008      	movs	r0, r1
100011fc:	e7fc      	b.n	100011f8 <ph_merge_nodes+0x38>
	...

10001200 <ph_clear>:
10001200:	b510      	push	{r4, lr}
10001202:	2300      	movs	r3, #0
10001204:	7343      	strb	r3, [r0, #13]
10001206:	3301      	adds	r3, #1
10001208:	7383      	strb	r3, [r0, #14]
1000120a:	7b03      	ldrb	r3, [r0, #12]
1000120c:	73c3      	strb	r3, [r0, #15]
1000120e:	2301      	movs	r3, #1
10001210:	7b02      	ldrb	r2, [r0, #12]
10001212:	429a      	cmp	r2, r3
10001214:	d914      	bls.n	10001240 <ph_clear+0x40>
10001216:	2b00      	cmp	r3, #0
10001218:	d00c      	beq.n	10001234 <ph_clear+0x34>
1000121a:	7b02      	ldrb	r2, [r0, #12]
1000121c:	4293      	cmp	r3, r2
1000121e:	d809      	bhi.n	10001234 <ph_clear+0x34>
10001220:	005a      	lsls	r2, r3, #1
10001222:	18d2      	adds	r2, r2, r3
10001224:	3a03      	subs	r2, #3
10001226:	6801      	ldr	r1, [r0, #0]
10001228:	468c      	mov	ip, r1
1000122a:	4462      	add	r2, ip
1000122c:	3301      	adds	r3, #1
1000122e:	b2db      	uxtb	r3, r3
10001230:	7053      	strb	r3, [r2, #1]
10001232:	e7ed      	b.n	10001210 <ph_clear+0x10>
10001234:	4b0b      	ldr	r3, [pc, #44]	; (10001264 <ph_clear+0x64>)
10001236:	4a0c      	ldr	r2, [pc, #48]	; (10001268 <ph_clear+0x68>)
10001238:	2169      	movs	r1, #105	; 0x69
1000123a:	480c      	ldr	r0, [pc, #48]	; (1000126c <ph_clear+0x6c>)
1000123c:	f000 f984 	bl	10001548 <__assert_func>
10001240:	2a00      	cmp	r2, #0
10001242:	d009      	beq.n	10001258 <ph_clear+0x58>
10001244:	4292      	cmp	r2, r2
10001246:	d807      	bhi.n	10001258 <ph_clear+0x58>
10001248:	6801      	ldr	r1, [r0, #0]
1000124a:	0053      	lsls	r3, r2, #1
1000124c:	189a      	adds	r2, r3, r2
1000124e:	3a03      	subs	r2, #3
10001250:	188a      	adds	r2, r1, r2
10001252:	2300      	movs	r3, #0
10001254:	7053      	strb	r3, [r2, #1]
10001256:	bd10      	pop	{r4, pc}
10001258:	4b02      	ldr	r3, [pc, #8]	; (10001264 <ph_clear+0x64>)
1000125a:	4a03      	ldr	r2, [pc, #12]	; (10001268 <ph_clear+0x68>)
1000125c:	2169      	movs	r1, #105	; 0x69
1000125e:	4803      	ldr	r0, [pc, #12]	; (1000126c <ph_clear+0x6c>)
10001260:	f000 f972 	bl	10001548 <__assert_func>
10001264:	100041a8 	.word	0x100041a8
10001268:	100046bc 	.word	0x100046bc
1000126c:	100041c4 	.word	0x100041c4

10001270 <ph_post_alloc_init>:
10001270:	b510      	push	{r4, lr}
10001272:	7301      	strb	r1, [r0, #12]
10001274:	6042      	str	r2, [r0, #4]
10001276:	6083      	str	r3, [r0, #8]
10001278:	f7ff ffc2 	bl	10001200 <ph_clear>
1000127c:	bd10      	pop	{r4, pc}
	...

10001280 <ph_merge_two_pass>:
10001280:	b570      	push	{r4, r5, r6, lr}
10001282:	0004      	movs	r4, r0
10001284:	1e08      	subs	r0, r1, #0
10001286:	d100      	bne.n	1000128a <ph_merge_two_pass+0xa>
10001288:	bd70      	pop	{r4, r5, r6, pc}
1000128a:	2900      	cmp	r1, #0
1000128c:	d034      	beq.n	100012f8 <ph_merge_two_pass+0x78>
1000128e:	7b23      	ldrb	r3, [r4, #12]
10001290:	4299      	cmp	r1, r3
10001292:	d831      	bhi.n	100012f8 <ph_merge_two_pass+0x78>
10001294:	004b      	lsls	r3, r1, #1
10001296:	185b      	adds	r3, r3, r1
10001298:	3b03      	subs	r3, #3
1000129a:	6822      	ldr	r2, [r4, #0]
1000129c:	4694      	mov	ip, r2
1000129e:	4463      	add	r3, ip
100012a0:	785a      	ldrb	r2, [r3, #1]
100012a2:	2a00      	cmp	r2, #0
100012a4:	d0f0      	beq.n	10001288 <ph_merge_two_pass+0x8>
100012a6:	d02d      	beq.n	10001304 <ph_merge_two_pass+0x84>
100012a8:	7b23      	ldrb	r3, [r4, #12]
100012aa:	429a      	cmp	r2, r3
100012ac:	d82a      	bhi.n	10001304 <ph_merge_two_pass+0x84>
100012ae:	0053      	lsls	r3, r2, #1
100012b0:	189b      	adds	r3, r3, r2
100012b2:	3b03      	subs	r3, #3
100012b4:	6821      	ldr	r1, [r4, #0]
100012b6:	468c      	mov	ip, r1
100012b8:	4463      	add	r3, ip
100012ba:	785d      	ldrb	r5, [r3, #1]
100012bc:	2100      	movs	r1, #0
100012be:	7059      	strb	r1, [r3, #1]
100012c0:	2800      	cmp	r0, #0
100012c2:	d025      	beq.n	10001310 <ph_merge_two_pass+0x90>
100012c4:	7b23      	ldrb	r3, [r4, #12]
100012c6:	4298      	cmp	r0, r3
100012c8:	d822      	bhi.n	10001310 <ph_merge_two_pass+0x90>
100012ca:	0043      	lsls	r3, r0, #1
100012cc:	181b      	adds	r3, r3, r0
100012ce:	3b03      	subs	r3, #3
100012d0:	6821      	ldr	r1, [r4, #0]
100012d2:	468c      	mov	ip, r1
100012d4:	4463      	add	r3, ip
100012d6:	2100      	movs	r1, #0
100012d8:	7059      	strb	r1, [r3, #1]
100012da:	0001      	movs	r1, r0
100012dc:	0020      	movs	r0, r4
100012de:	f7ff ff6f 	bl	100011c0 <ph_merge_nodes>
100012e2:	0006      	movs	r6, r0
100012e4:	0029      	movs	r1, r5
100012e6:	0020      	movs	r0, r4
100012e8:	f7ff ffca 	bl	10001280 <ph_merge_two_pass>
100012ec:	0002      	movs	r2, r0
100012ee:	0031      	movs	r1, r6
100012f0:	0020      	movs	r0, r4
100012f2:	f7ff ff65 	bl	100011c0 <ph_merge_nodes>
100012f6:	e7c7      	b.n	10001288 <ph_merge_two_pass+0x8>
100012f8:	4b08      	ldr	r3, [pc, #32]	; (1000131c <ph_merge_two_pass+0x9c>)
100012fa:	4a09      	ldr	r2, [pc, #36]	; (10001320 <ph_merge_two_pass+0xa0>)
100012fc:	2169      	movs	r1, #105	; 0x69
100012fe:	4809      	ldr	r0, [pc, #36]	; (10001324 <ph_merge_two_pass+0xa4>)
10001300:	f000 f922 	bl	10001548 <__assert_func>
10001304:	4b05      	ldr	r3, [pc, #20]	; (1000131c <ph_merge_two_pass+0x9c>)
10001306:	4a06      	ldr	r2, [pc, #24]	; (10001320 <ph_merge_two_pass+0xa0>)
10001308:	2169      	movs	r1, #105	; 0x69
1000130a:	4806      	ldr	r0, [pc, #24]	; (10001324 <ph_merge_two_pass+0xa4>)
1000130c:	f000 f91c 	bl	10001548 <__assert_func>
10001310:	4b02      	ldr	r3, [pc, #8]	; (1000131c <ph_merge_two_pass+0x9c>)
10001312:	4a03      	ldr	r2, [pc, #12]	; (10001320 <ph_merge_two_pass+0xa0>)
10001314:	2169      	movs	r1, #105	; 0x69
10001316:	4803      	ldr	r0, [pc, #12]	; (10001324 <ph_merge_two_pass+0xa4>)
10001318:	f000 f916 	bl	10001548 <__assert_func>
1000131c:	100041a8 	.word	0x100041a8
10001320:	100046bc 	.word	0x100046bc
10001324:	100041c4 	.word	0x100041c4

10001328 <ph_remove_any_head>:
10001328:	b570      	push	{r4, r5, r6, lr}
1000132a:	0005      	movs	r5, r0
1000132c:	000c      	movs	r4, r1
1000132e:	0016      	movs	r6, r2
10001330:	2900      	cmp	r1, #0
10001332:	d028      	beq.n	10001386 <ph_remove_any_head+0x5e>
10001334:	d02d      	beq.n	10001392 <ph_remove_any_head+0x6a>
10001336:	7b03      	ldrb	r3, [r0, #12]
10001338:	4299      	cmp	r1, r3
1000133a:	d82a      	bhi.n	10001392 <ph_remove_any_head+0x6a>
1000133c:	004b      	lsls	r3, r1, #1
1000133e:	185b      	adds	r3, r3, r1
10001340:	3b03      	subs	r3, #3
10001342:	6802      	ldr	r2, [r0, #0]
10001344:	4694      	mov	ip, r2
10001346:	4463      	add	r3, ip
10001348:	785a      	ldrb	r2, [r3, #1]
1000134a:	2a00      	cmp	r2, #0
1000134c:	d127      	bne.n	1000139e <ph_remove_any_head+0x76>
1000134e:	789a      	ldrb	r2, [r3, #2]
10001350:	2a00      	cmp	r2, #0
10001352:	d12a      	bne.n	100013aa <ph_remove_any_head+0x82>
10001354:	7819      	ldrb	r1, [r3, #0]
10001356:	f7ff ff93 	bl	10001280 <ph_merge_two_pass>
1000135a:	0003      	movs	r3, r0
1000135c:	2e00      	cmp	r6, #0
1000135e:	d003      	beq.n	10001368 <ph_remove_any_head+0x40>
10001360:	7bea      	ldrb	r2, [r5, #15]
10001362:	2a00      	cmp	r2, #0
10001364:	d127      	bne.n	100013b6 <ph_remove_any_head+0x8e>
10001366:	73ec      	strb	r4, [r5, #15]
10001368:	2b00      	cmp	r3, #0
1000136a:	d137      	bne.n	100013dc <ph_remove_any_head+0xb4>
1000136c:	2c00      	cmp	r4, #0
1000136e:	d049      	beq.n	10001404 <ph_remove_any_head+0xdc>
10001370:	7b2b      	ldrb	r3, [r5, #12]
10001372:	429c      	cmp	r4, r3
10001374:	d846      	bhi.n	10001404 <ph_remove_any_head+0xdc>
10001376:	682b      	ldr	r3, [r5, #0]
10001378:	0061      	lsls	r1, r4, #1
1000137a:	190c      	adds	r4, r1, r4
1000137c:	3c03      	subs	r4, #3
1000137e:	191c      	adds	r4, r3, r4
10001380:	2300      	movs	r3, #0
10001382:	7063      	strb	r3, [r4, #1]
10001384:	bd70      	pop	{r4, r5, r6, pc}
10001386:	4b22      	ldr	r3, [pc, #136]	; (10001410 <ph_remove_any_head+0xe8>)
10001388:	4a22      	ldr	r2, [pc, #136]	; (10001414 <ph_remove_any_head+0xec>)
1000138a:	2138      	movs	r1, #56	; 0x38
1000138c:	4822      	ldr	r0, [pc, #136]	; (10001418 <ph_remove_any_head+0xf0>)
1000138e:	f000 f8db 	bl	10001548 <__assert_func>
10001392:	4b22      	ldr	r3, [pc, #136]	; (1000141c <ph_remove_any_head+0xf4>)
10001394:	4a22      	ldr	r2, [pc, #136]	; (10001420 <ph_remove_any_head+0xf8>)
10001396:	2169      	movs	r1, #105	; 0x69
10001398:	4822      	ldr	r0, [pc, #136]	; (10001424 <ph_remove_any_head+0xfc>)
1000139a:	f000 f8d5 	bl	10001548 <__assert_func>
1000139e:	4b22      	ldr	r3, [pc, #136]	; (10001428 <ph_remove_any_head+0x100>)
100013a0:	4a1c      	ldr	r2, [pc, #112]	; (10001414 <ph_remove_any_head+0xec>)
100013a2:	213a      	movs	r1, #58	; 0x3a
100013a4:	481c      	ldr	r0, [pc, #112]	; (10001418 <ph_remove_any_head+0xf0>)
100013a6:	f000 f8cf 	bl	10001548 <__assert_func>
100013aa:	4b20      	ldr	r3, [pc, #128]	; (1000142c <ph_remove_any_head+0x104>)
100013ac:	4a19      	ldr	r2, [pc, #100]	; (10001414 <ph_remove_any_head+0xec>)
100013ae:	213b      	movs	r1, #59	; 0x3b
100013b0:	4819      	ldr	r0, [pc, #100]	; (10001418 <ph_remove_any_head+0xf0>)
100013b2:	f000 f8c9 	bl	10001548 <__assert_func>
100013b6:	2a00      	cmp	r2, #0
100013b8:	d00a      	beq.n	100013d0 <ph_remove_any_head+0xa8>
100013ba:	7b29      	ldrb	r1, [r5, #12]
100013bc:	428a      	cmp	r2, r1
100013be:	d807      	bhi.n	100013d0 <ph_remove_any_head+0xa8>
100013c0:	0051      	lsls	r1, r2, #1
100013c2:	188a      	adds	r2, r1, r2
100013c4:	3a03      	subs	r2, #3
100013c6:	6829      	ldr	r1, [r5, #0]
100013c8:	468c      	mov	ip, r1
100013ca:	4462      	add	r2, ip
100013cc:	7054      	strb	r4, [r2, #1]
100013ce:	e7ca      	b.n	10001366 <ph_remove_any_head+0x3e>
100013d0:	4b12      	ldr	r3, [pc, #72]	; (1000141c <ph_remove_any_head+0xf4>)
100013d2:	4a13      	ldr	r2, [pc, #76]	; (10001420 <ph_remove_any_head+0xf8>)
100013d4:	2169      	movs	r1, #105	; 0x69
100013d6:	4813      	ldr	r0, [pc, #76]	; (10001424 <ph_remove_any_head+0xfc>)
100013d8:	f000 f8b6 	bl	10001548 <__assert_func>
100013dc:	2b00      	cmp	r3, #0
100013de:	d00b      	beq.n	100013f8 <ph_remove_any_head+0xd0>
100013e0:	7b2a      	ldrb	r2, [r5, #12]
100013e2:	4293      	cmp	r3, r2
100013e4:	d808      	bhi.n	100013f8 <ph_remove_any_head+0xd0>
100013e6:	0043      	lsls	r3, r0, #1
100013e8:	181b      	adds	r3, r3, r0
100013ea:	3b03      	subs	r3, #3
100013ec:	682a      	ldr	r2, [r5, #0]
100013ee:	4694      	mov	ip, r2
100013f0:	4463      	add	r3, ip
100013f2:	2200      	movs	r2, #0
100013f4:	709a      	strb	r2, [r3, #2]
100013f6:	e7b9      	b.n	1000136c <ph_remove_any_head+0x44>
100013f8:	4b08      	ldr	r3, [pc, #32]	; (1000141c <ph_remove_any_head+0xf4>)
100013fa:	4a09      	ldr	r2, [pc, #36]	; (10001420 <ph_remove_any_head+0xf8>)
100013fc:	2169      	movs	r1, #105	; 0x69
100013fe:	4809      	ldr	r0, [pc, #36]	; (10001424 <ph_remove_any_head+0xfc>)
10001400:	f000 f8a2 	bl	10001548 <__assert_func>
10001404:	4b05      	ldr	r3, [pc, #20]	; (1000141c <ph_remove_any_head+0xf4>)
10001406:	4a06      	ldr	r2, [pc, #24]	; (10001420 <ph_remove_any_head+0xf8>)
10001408:	2169      	movs	r1, #105	; 0x69
1000140a:	4806      	ldr	r0, [pc, #24]	; (10001424 <ph_remove_any_head+0xfc>)
1000140c:	f000 f89c 	bl	10001548 <__assert_func>
10001410:	100045c8 	.word	0x100045c8
10001414:	10004694 	.word	0x10004694
10001418:	100045d0 	.word	0x100045d0
1000141c:	100041a8 	.word	0x100041a8
10001420:	100046bc 	.word	0x100046bc
10001424:	100041c4 	.word	0x100041c4
10001428:	10004608 	.word	0x10004608
1000142c:	10004630 	.word	0x10004630

10001430 <ph_remove_head>:
10001430:	b570      	push	{r4, r5, r6, lr}
10001432:	0004      	movs	r4, r0
10001434:	000a      	movs	r2, r1
10001436:	7b45      	ldrb	r5, [r0, #13]
10001438:	0029      	movs	r1, r5
1000143a:	f7ff ff75 	bl	10001328 <ph_remove_any_head>
1000143e:	7360      	strb	r0, [r4, #13]
10001440:	0028      	movs	r0, r5
10001442:	bd70      	pop	{r4, r5, r6, pc}

10001444 <ph_remove_and_free_node>:
10001444:	b570      	push	{r4, r5, r6, lr}
10001446:	0004      	movs	r4, r0
10001448:	2900      	cmp	r1, #0
1000144a:	d067      	beq.n	1000151c <ph_remove_and_free_node+0xd8>
1000144c:	7b43      	ldrb	r3, [r0, #13]
1000144e:	428b      	cmp	r3, r1
10001450:	d00e      	beq.n	10001470 <ph_remove_and_free_node+0x2c>
10001452:	2900      	cmp	r1, #0
10001454:	d011      	beq.n	1000147a <ph_remove_and_free_node+0x36>
10001456:	7b03      	ldrb	r3, [r0, #12]
10001458:	4299      	cmp	r1, r3
1000145a:	d80e      	bhi.n	1000147a <ph_remove_and_free_node+0x36>
1000145c:	004b      	lsls	r3, r1, #1
1000145e:	185b      	adds	r3, r3, r1
10001460:	3b03      	subs	r3, #3
10001462:	6802      	ldr	r2, [r0, #0]
10001464:	18d0      	adds	r0, r2, r3
10001466:	7883      	ldrb	r3, [r0, #2]
10001468:	2b00      	cmp	r3, #0
1000146a:	d10c      	bne.n	10001486 <ph_remove_and_free_node+0x42>
1000146c:	2000      	movs	r0, #0
1000146e:	e056      	b.n	1000151e <ph_remove_and_free_node+0xda>
10001470:	2101      	movs	r1, #1
10001472:	f7ff ffdd 	bl	10001430 <ph_remove_head>
10001476:	2001      	movs	r0, #1
10001478:	e051      	b.n	1000151e <ph_remove_and_free_node+0xda>
1000147a:	4b29      	ldr	r3, [pc, #164]	; (10001520 <ph_remove_and_free_node+0xdc>)
1000147c:	4a29      	ldr	r2, [pc, #164]	; (10001524 <ph_remove_and_free_node+0xe0>)
1000147e:	2169      	movs	r1, #105	; 0x69
10001480:	4829      	ldr	r0, [pc, #164]	; (10001528 <ph_remove_and_free_node+0xe4>)
10001482:	f000 f861 	bl	10001548 <__assert_func>
10001486:	2b00      	cmp	r3, #0
10001488:	d020      	beq.n	100014cc <ph_remove_and_free_node+0x88>
1000148a:	7b22      	ldrb	r2, [r4, #12]
1000148c:	4293      	cmp	r3, r2
1000148e:	d81d      	bhi.n	100014cc <ph_remove_and_free_node+0x88>
10001490:	005a      	lsls	r2, r3, #1
10001492:	18d3      	adds	r3, r2, r3
10001494:	3b03      	subs	r3, #3
10001496:	6822      	ldr	r2, [r4, #0]
10001498:	18d2      	adds	r2, r2, r3
1000149a:	6825      	ldr	r5, [r4, #0]
1000149c:	5ceb      	ldrb	r3, [r5, r3]
1000149e:	428b      	cmp	r3, r1
100014a0:	d01a      	beq.n	100014d8 <ph_remove_and_free_node+0x94>
100014a2:	2b00      	cmp	r3, #0
100014a4:	d01b      	beq.n	100014de <ph_remove_and_free_node+0x9a>
100014a6:	7b22      	ldrb	r2, [r4, #12]
100014a8:	4293      	cmp	r3, r2
100014aa:	d818      	bhi.n	100014de <ph_remove_and_free_node+0x9a>
100014ac:	005a      	lsls	r2, r3, #1
100014ae:	18d3      	adds	r3, r2, r3
100014b0:	3b03      	subs	r3, #3
100014b2:	6822      	ldr	r2, [r4, #0]
100014b4:	18d2      	adds	r2, r2, r3
100014b6:	7853      	ldrb	r3, [r2, #1]
100014b8:	428b      	cmp	r3, r1
100014ba:	d016      	beq.n	100014ea <ph_remove_and_free_node+0xa6>
100014bc:	2b00      	cmp	r3, #0
100014be:	d1f0      	bne.n	100014a2 <ph_remove_and_free_node+0x5e>
100014c0:	4b1a      	ldr	r3, [pc, #104]	; (1000152c <ph_remove_and_free_node+0xe8>)
100014c2:	4a1b      	ldr	r2, [pc, #108]	; (10001530 <ph_remove_and_free_node+0xec>)
100014c4:	2167      	movs	r1, #103	; 0x67
100014c6:	481b      	ldr	r0, [pc, #108]	; (10001534 <ph_remove_and_free_node+0xf0>)
100014c8:	f000 f83e 	bl	10001548 <__assert_func>
100014cc:	4b14      	ldr	r3, [pc, #80]	; (10001520 <ph_remove_and_free_node+0xdc>)
100014ce:	4a15      	ldr	r2, [pc, #84]	; (10001524 <ph_remove_and_free_node+0xe0>)
100014d0:	2169      	movs	r1, #105	; 0x69
100014d2:	4815      	ldr	r0, [pc, #84]	; (10001528 <ph_remove_and_free_node+0xe4>)
100014d4:	f000 f838 	bl	10001548 <__assert_func>
100014d8:	7843      	ldrb	r3, [r0, #1]
100014da:	7013      	strb	r3, [r2, #0]
100014dc:	e007      	b.n	100014ee <ph_remove_and_free_node+0xaa>
100014de:	4b10      	ldr	r3, [pc, #64]	; (10001520 <ph_remove_and_free_node+0xdc>)
100014e0:	4a10      	ldr	r2, [pc, #64]	; (10001524 <ph_remove_and_free_node+0xe0>)
100014e2:	2169      	movs	r1, #105	; 0x69
100014e4:	4810      	ldr	r0, [pc, #64]	; (10001528 <ph_remove_and_free_node+0xe4>)
100014e6:	f000 f82f 	bl	10001548 <__assert_func>
100014ea:	7843      	ldrb	r3, [r0, #1]
100014ec:	7053      	strb	r3, [r2, #1]
100014ee:	2300      	movs	r3, #0
100014f0:	7083      	strb	r3, [r0, #2]
100014f2:	7043      	strb	r3, [r0, #1]
100014f4:	2201      	movs	r2, #1
100014f6:	0020      	movs	r0, r4
100014f8:	f7ff ff16 	bl	10001328 <ph_remove_any_head>
100014fc:	0002      	movs	r2, r0
100014fe:	7b61      	ldrb	r1, [r4, #13]
10001500:	4281      	cmp	r1, r0
10001502:	d005      	beq.n	10001510 <ph_remove_and_free_node+0xcc>
10001504:	0020      	movs	r0, r4
10001506:	f7ff fe5b 	bl	100011c0 <ph_merge_nodes>
1000150a:	7360      	strb	r0, [r4, #13]
1000150c:	2001      	movs	r0, #1
1000150e:	e006      	b.n	1000151e <ph_remove_and_free_node+0xda>
10001510:	4b09      	ldr	r3, [pc, #36]	; (10001538 <ph_remove_and_free_node+0xf4>)
10001512:	4a07      	ldr	r2, [pc, #28]	; (10001530 <ph_remove_and_free_node+0xec>)
10001514:	216d      	movs	r1, #109	; 0x6d
10001516:	4807      	ldr	r0, [pc, #28]	; (10001534 <ph_remove_and_free_node+0xf0>)
10001518:	f000 f816 	bl	10001548 <__assert_func>
1000151c:	2000      	movs	r0, #0
1000151e:	bd70      	pop	{r4, r5, r6, pc}
10001520:	100041a8 	.word	0x100041a8
10001524:	100046bc 	.word	0x100046bc
10001528:	100041c4 	.word	0x100041c4
1000152c:	10004654 	.word	0x10004654
10001530:	1000467c 	.word	0x1000467c
10001534:	100045d0 	.word	0x100045d0
10001538:	1000465c 	.word	0x1000465c

1000153c <_exit>:
1000153c:	be00      	bkpt	0x0000
1000153e:	e7fd      	b.n	1000153c <_exit>

10001540 <exit>:
10001540:	b510      	push	{r4, lr}
10001542:	f7ff fffb 	bl	1000153c <_exit>
	...

10001548 <__assert_func>:
10001548:	b510      	push	{r4, lr}
1000154a:	b082      	sub	sp, #8
1000154c:	000c      	movs	r4, r1
1000154e:	0019      	movs	r1, r3
10001550:	2a00      	cmp	r2, #0
10001552:	d00c      	beq.n	1000156e <__assert_func+0x26>
10001554:	4b08      	ldr	r3, [pc, #32]	; (10001578 <__assert_func+0x30>)
10001556:	2a00      	cmp	r2, #0
10001558:	d00b      	beq.n	10001572 <__assert_func+0x2a>
1000155a:	9201      	str	r2, [sp, #4]
1000155c:	9300      	str	r3, [sp, #0]
1000155e:	0023      	movs	r3, r4
10001560:	0002      	movs	r2, r0
10001562:	4806      	ldr	r0, [pc, #24]	; (1000157c <__assert_func+0x34>)
10001564:	f002 fd7a 	bl	1000405c <__wrap_printf>
10001568:	2001      	movs	r0, #1
1000156a:	f7ff ffe7 	bl	1000153c <_exit>
1000156e:	4b04      	ldr	r3, [pc, #16]	; (10001580 <__assert_func+0x38>)
10001570:	e7f1      	b.n	10001556 <__assert_func+0xe>
10001572:	4a03      	ldr	r2, [pc, #12]	; (10001580 <__assert_func+0x38>)
10001574:	e7f1      	b.n	1000155a <__assert_func+0x12>
10001576:	46c0      	nop			; (mov r8, r8)
10001578:	100046c8 	.word	0x100046c8
1000157c:	100046d8 	.word	0x100046d8
10001580:	100046d4 	.word	0x100046d4

10001584 <runtime_init>:
10001584:	b570      	push	{r4, r5, r6, lr}
10001586:	4b2b      	ldr	r3, [pc, #172]	; (10001634 <runtime_init+0xb0>)
10001588:	4a2b      	ldr	r2, [pc, #172]	; (10001638 <runtime_init+0xb4>)
1000158a:	601a      	str	r2, [r3, #0]
1000158c:	4b2b      	ldr	r3, [pc, #172]	; (1000163c <runtime_init+0xb8>)
1000158e:	4a2c      	ldr	r2, [pc, #176]	; (10001640 <runtime_init+0xbc>)
10001590:	601a      	str	r2, [r3, #0]
10001592:	4b2c      	ldr	r3, [pc, #176]	; (10001644 <runtime_init+0xc0>)
10001594:	689a      	ldr	r2, [r3, #8]
10001596:	4b2a      	ldr	r3, [pc, #168]	; (10001640 <runtime_init+0xbc>)
10001598:	4393      	bics	r3, r2
1000159a:	d1fa      	bne.n	10001592 <runtime_init+0xe>
1000159c:	4c2a      	ldr	r4, [pc, #168]	; (10001648 <runtime_init+0xc4>)
1000159e:	e001      	b.n	100015a4 <runtime_init+0x20>
100015a0:	cc08      	ldmia	r4!, {r3}
100015a2:	4798      	blx	r3
100015a4:	4b29      	ldr	r3, [pc, #164]	; (1000164c <runtime_init+0xc8>)
100015a6:	429c      	cmp	r4, r3
100015a8:	d3fa      	bcc.n	100015a0 <runtime_init+0x1c>
100015aa:	f000 f901 	bl	100017b0 <clocks_init>
100015ae:	4b23      	ldr	r3, [pc, #140]	; (1000163c <runtime_init+0xb8>)
100015b0:	4a27      	ldr	r2, [pc, #156]	; (10001650 <runtime_init+0xcc>)
100015b2:	601a      	str	r2, [r3, #0]
100015b4:	4b23      	ldr	r3, [pc, #140]	; (10001644 <runtime_init+0xc0>)
100015b6:	689b      	ldr	r3, [r3, #8]
100015b8:	43db      	mvns	r3, r3
100015ba:	01db      	lsls	r3, r3, #7
100015bc:	d1fa      	bne.n	100015b4 <runtime_init+0x30>
100015be:	4b25      	ldr	r3, [pc, #148]	; (10001654 <runtime_init+0xd0>)
100015c0:	2240      	movs	r2, #64	; 0x40
100015c2:	679a      	str	r2, [r3, #120]	; 0x78
100015c4:	675a      	str	r2, [r3, #116]	; 0x74
100015c6:	671a      	str	r2, [r3, #112]	; 0x70
100015c8:	66da      	str	r2, [r3, #108]	; 0x6c
100015ca:	4c23      	ldr	r4, [pc, #140]	; (10001658 <runtime_init+0xd4>)
100015cc:	e009      	b.n	100015e2 <runtime_init+0x5e>
100015ce:	4b23      	ldr	r3, [pc, #140]	; (1000165c <runtime_init+0xd8>)
100015d0:	4a23      	ldr	r2, [pc, #140]	; (10001660 <runtime_init+0xdc>)
100015d2:	2183      	movs	r1, #131	; 0x83
100015d4:	4823      	ldr	r0, [pc, #140]	; (10001664 <runtime_init+0xe0>)
100015d6:	f7ff ffb7 	bl	10001548 <__assert_func>
100015da:	0020      	movs	r0, r4
100015dc:	f7ff fd82 	bl	100010e4 <mutex_init>
100015e0:	3408      	adds	r4, #8
100015e2:	4b21      	ldr	r3, [pc, #132]	; (10001668 <runtime_init+0xe4>)
100015e4:	429c      	cmp	r4, r3
100015e6:	d209      	bcs.n	100015fc <runtime_init+0x78>
100015e8:	6823      	ldr	r3, [r4, #0]
100015ea:	2b00      	cmp	r3, #0
100015ec:	d0f5      	beq.n	100015da <runtime_init+0x56>
100015ee:	2b01      	cmp	r3, #1
100015f0:	d1ed      	bne.n	100015ce <runtime_init+0x4a>
100015f2:	0020      	movs	r0, r4
100015f4:	f7ff fd83 	bl	100010fe <recursive_mutex_init>
100015f8:	3408      	adds	r4, #8
100015fa:	e7f2      	b.n	100015e2 <runtime_init+0x5e>
100015fc:	4c1b      	ldr	r4, [pc, #108]	; (1000166c <runtime_init+0xe8>)
100015fe:	68a1      	ldr	r1, [r4, #8]
10001600:	4d1b      	ldr	r5, [pc, #108]	; (10001670 <runtime_init+0xec>)
10001602:	22c0      	movs	r2, #192	; 0xc0
10001604:	0028      	movs	r0, r5
10001606:	f002 fbfb 	bl	10003e00 <__wrap___aeabi_memcpy>
1000160a:	60a5      	str	r5, [r4, #8]
1000160c:	f7fe fe2b 	bl	10000266 <__get_current_exception>
10001610:	2800      	cmp	r0, #0
10001612:	d000      	beq.n	10001616 <runtime_init+0x92>
10001614:	be00      	bkpt	0x0000
10001616:	f7fe ff1d 	bl	10000454 <spin_locks_reset>
1000161a:	f000 fb3b 	bl	10001c94 <irq_init_priorities>
1000161e:	f7ff fa6d 	bl	10000afc <alarm_pool_init_default>
10001622:	4c14      	ldr	r4, [pc, #80]	; (10001674 <runtime_init+0xf0>)
10001624:	e001      	b.n	1000162a <runtime_init+0xa6>
10001626:	cc08      	ldmia	r4!, {r3}
10001628:	4798      	blx	r3
1000162a:	4b13      	ldr	r3, [pc, #76]	; (10001678 <runtime_init+0xf4>)
1000162c:	429c      	cmp	r4, r3
1000162e:	d3fa      	bcc.n	10001626 <runtime_init+0xa2>
10001630:	bd70      	pop	{r4, r5, r6, pc}
10001632:	46c0      	nop			; (mov r8, r8)
10001634:	4000e000 	.word	0x4000e000
10001638:	fefbcdbf 	.word	0xfefbcdbf
1000163c:	4000f000 	.word	0x4000f000
10001640:	003c7ffe 	.word	0x003c7ffe
10001644:	4000c000 	.word	0x4000c000
10001648:	20000258 	.word	0x20000258
1000164c:	20000268 	.word	0x20000268
10001650:	01ffffff 	.word	0x01ffffff
10001654:	4001f000 	.word	0x4001f000
10001658:	20000250 	.word	0x20000250
1000165c:	10004708 	.word	0x10004708
10001660:	10004780 	.word	0x10004780
10001664:	10004728 	.word	0x10004728
10001668:	20000258 	.word	0x20000258
1000166c:	e000ed00 	.word	0xe000ed00
10001670:	20000000 	.word	0x20000000
10001674:	20000268 	.word	0x20000268
10001678:	2000026c 	.word	0x2000026c

1000167c <panic>:
1000167c:	b40f      	push	{r0, r1, r2, r3}
1000167e:	b500      	push	{lr}
10001680:	b083      	sub	sp, #12
10001682:	4808      	ldr	r0, [pc, #32]	; (100016a4 <panic+0x28>)
10001684:	f002 fcb8 	bl	10003ff8 <__wrap_puts>
10001688:	9b04      	ldr	r3, [sp, #16]
1000168a:	2b00      	cmp	r3, #0
1000168c:	d007      	beq.n	1000169e <panic+0x22>
1000168e:	a905      	add	r1, sp, #20
10001690:	9101      	str	r1, [sp, #4]
10001692:	0018      	movs	r0, r3
10001694:	f002 fcc0 	bl	10004018 <__wrap_vprintf>
10001698:	4803      	ldr	r0, [pc, #12]	; (100016a8 <panic+0x2c>)
1000169a:	f002 fcad 	bl	10003ff8 <__wrap_puts>
1000169e:	2001      	movs	r0, #1
100016a0:	f7ff ff4c 	bl	1000153c <_exit>
100016a4:	1000476c 	.word	0x1000476c
100016a8:	1000477c 	.word	0x1000477c

100016ac <clock_configure>:
100016ac:	b5f8      	push	{r3, r4, r5, r6, r7, lr}
100016ae:	46de      	mov	lr, fp
100016b0:	4657      	mov	r7, sl
100016b2:	464e      	mov	r6, r9
100016b4:	4645      	mov	r5, r8
100016b6:	b5e0      	push	{r5, r6, r7, lr}
100016b8:	0005      	movs	r5, r0
100016ba:	000f      	movs	r7, r1
100016bc:	4692      	mov	sl, r2
100016be:	9a0a      	ldr	r2, [sp, #40]	; 0x28
100016c0:	4293      	cmp	r3, r2
100016c2:	d34e      	bcc.n	10001762 <clock_configure+0xb6>
100016c4:	0e1a      	lsrs	r2, r3, #24
100016c6:	4691      	mov	r9, r2
100016c8:	021e      	lsls	r6, r3, #8
100016ca:	9a0a      	ldr	r2, [sp, #40]	; 0x28
100016cc:	2300      	movs	r3, #0
100016ce:	0030      	movs	r0, r6
100016d0:	4649      	mov	r1, r9
100016d2:	f001 fcd3 	bl	1000307c <__wrap___aeabi_uldivmod>
100016d6:	4680      	mov	r8, r0
100016d8:	006c      	lsls	r4, r5, #1
100016da:	1964      	adds	r4, r4, r5
100016dc:	00a4      	lsls	r4, r4, #2
100016de:	4b2f      	ldr	r3, [pc, #188]	; (1000179c <clock_configure+0xf0>)
100016e0:	469c      	mov	ip, r3
100016e2:	4464      	add	r4, ip
100016e4:	6863      	ldr	r3, [r4, #4]
100016e6:	4283      	cmp	r3, r0
100016e8:	d200      	bcs.n	100016ec <clock_configure+0x40>
100016ea:	6060      	str	r0, [r4, #4]
100016ec:	1f2b      	subs	r3, r5, #4
100016ee:	b2db      	uxtb	r3, r3
100016f0:	469b      	mov	fp, r3
100016f2:	2b01      	cmp	r3, #1
100016f4:	d93b      	bls.n	1000176e <clock_configure+0xc2>
100016f6:	23c0      	movs	r3, #192	; 0xc0
100016f8:	019b      	lsls	r3, r3, #6
100016fa:	4323      	orrs	r3, r4
100016fc:	2280      	movs	r2, #128	; 0x80
100016fe:	0112      	lsls	r2, r2, #4
10001700:	601a      	str	r2, [r3, #0]
10001702:	00ab      	lsls	r3, r5, #2
10001704:	4a26      	ldr	r2, [pc, #152]	; (100017a0 <clock_configure+0xf4>)
10001706:	5899      	ldr	r1, [r3, r2]
10001708:	2900      	cmp	r1, #0
1000170a:	d005      	beq.n	10001718 <clock_configure+0x6c>
1000170c:	6950      	ldr	r0, [r2, #20]
1000170e:	f001 fc73 	bl	10002ff8 <__wrap___aeabi_uidiv>
10001712:	3001      	adds	r0, #1
10001714:	3801      	subs	r0, #1
10001716:	d1fd      	bne.n	10001714 <clock_configure+0x68>
10001718:	4653      	mov	r3, sl
1000171a:	015a      	lsls	r2, r3, #5
1000171c:	6823      	ldr	r3, [r4, #0]
1000171e:	405a      	eors	r2, r3
10001720:	23e0      	movs	r3, #224	; 0xe0
10001722:	401a      	ands	r2, r3
10001724:	2380      	movs	r3, #128	; 0x80
10001726:	015b      	lsls	r3, r3, #5
10001728:	4323      	orrs	r3, r4
1000172a:	601a      	str	r2, [r3, #0]
1000172c:	465a      	mov	r2, fp
1000172e:	2a01      	cmp	r2, #1
10001730:	d928      	bls.n	10001784 <clock_configure+0xd8>
10001732:	2380      	movs	r3, #128	; 0x80
10001734:	019b      	lsls	r3, r3, #6
10001736:	4323      	orrs	r3, r4
10001738:	2280      	movs	r2, #128	; 0x80
1000173a:	0112      	lsls	r2, r2, #4
1000173c:	601a      	str	r2, [r3, #0]
1000173e:	4643      	mov	r3, r8
10001740:	6063      	str	r3, [r4, #4]
10001742:	4642      	mov	r2, r8
10001744:	2300      	movs	r3, #0
10001746:	0030      	movs	r0, r6
10001748:	4649      	mov	r1, r9
1000174a:	f001 fc97 	bl	1000307c <__wrap___aeabi_uldivmod>
1000174e:	00ad      	lsls	r5, r5, #2
10001750:	4b13      	ldr	r3, [pc, #76]	; (100017a0 <clock_configure+0xf4>)
10001752:	5158      	str	r0, [r3, r5]
10001754:	2001      	movs	r0, #1
10001756:	bcf0      	pop	{r4, r5, r6, r7}
10001758:	46bb      	mov	fp, r7
1000175a:	46b2      	mov	sl, r6
1000175c:	46a9      	mov	r9, r5
1000175e:	46a0      	mov	r8, r4
10001760:	bdf8      	pop	{r3, r4, r5, r6, r7, pc}
10001762:	4b10      	ldr	r3, [pc, #64]	; (100017a4 <clock_configure+0xf8>)
10001764:	4a10      	ldr	r2, [pc, #64]	; (100017a8 <clock_configure+0xfc>)
10001766:	212d      	movs	r1, #45	; 0x2d
10001768:	4810      	ldr	r0, [pc, #64]	; (100017ac <clock_configure+0x100>)
1000176a:	f7ff feed 	bl	10001548 <__assert_func>
1000176e:	2f01      	cmp	r7, #1
10001770:	d1c1      	bne.n	100016f6 <clock_configure+0x4a>
10001772:	23c0      	movs	r3, #192	; 0xc0
10001774:	019b      	lsls	r3, r3, #6
10001776:	4323      	orrs	r3, r4
10001778:	2203      	movs	r2, #3
1000177a:	601a      	str	r2, [r3, #0]
1000177c:	68a3      	ldr	r3, [r4, #8]
1000177e:	07db      	lsls	r3, r3, #31
10001780:	d5fc      	bpl.n	1000177c <clock_configure+0xd0>
10001782:	e7c9      	b.n	10001718 <clock_configure+0x6c>
10001784:	6821      	ldr	r1, [r4, #0]
10001786:	4079      	eors	r1, r7
10001788:	2203      	movs	r2, #3
1000178a:	400a      	ands	r2, r1
1000178c:	601a      	str	r2, [r3, #0]
1000178e:	68a2      	ldr	r2, [r4, #8]
10001790:	2301      	movs	r3, #1
10001792:	40bb      	lsls	r3, r7
10001794:	4213      	tst	r3, r2
10001796:	d0fa      	beq.n	1000178e <clock_configure+0xe2>
10001798:	e7cb      	b.n	10001732 <clock_configure+0x86>
1000179a:	46c0      	nop			; (mov r8, r8)
1000179c:	40008000 	.word	0x40008000
100017a0:	2000039c 	.word	0x2000039c
100017a4:	10004790 	.word	0x10004790
100017a8:	100047e8 	.word	0x100047e8
100017ac:	100047a4 	.word	0x100047a4

100017b0 <clocks_init>:
100017b0:	b530      	push	{r4, r5, lr}
100017b2:	b083      	sub	sp, #12
100017b4:	200c      	movs	r0, #12
100017b6:	f000 fb07 	bl	10001dc8 <watchdog_start_tick>
100017ba:	f7fe fe41 	bl	10000440 <running_on_fpga>
100017be:	2800      	cmp	r0, #0
100017c0:	d00d      	beq.n	100017de <clocks_init+0x2e>
100017c2:	2300      	movs	r3, #0
100017c4:	e004      	b.n	100017d0 <clocks_init+0x20>
100017c6:	0099      	lsls	r1, r3, #2
100017c8:	4a2d      	ldr	r2, [pc, #180]	; (10001880 <clocks_init+0xd0>)
100017ca:	482e      	ldr	r0, [pc, #184]	; (10001884 <clocks_init+0xd4>)
100017cc:	5088      	str	r0, [r1, r2]
100017ce:	3301      	adds	r3, #1
100017d0:	2b09      	cmp	r3, #9
100017d2:	d9f8      	bls.n	100017c6 <clocks_init+0x16>
100017d4:	4b2a      	ldr	r3, [pc, #168]	; (10001880 <clocks_init+0xd0>)
100017d6:	4a2c      	ldr	r2, [pc, #176]	; (10001888 <clocks_init+0xd8>)
100017d8:	625a      	str	r2, [r3, #36]	; 0x24
100017da:	b003      	add	sp, #12
100017dc:	bd30      	pop	{r4, r5, pc}
100017de:	4b2b      	ldr	r3, [pc, #172]	; (1000188c <clocks_init+0xdc>)
100017e0:	2200      	movs	r2, #0
100017e2:	679a      	str	r2, [r3, #120]	; 0x78
100017e4:	f000 faf8 	bl	10001dd8 <xosc_init>
100017e8:	4b29      	ldr	r3, [pc, #164]	; (10001890 <clocks_init+0xe0>)
100017ea:	2201      	movs	r2, #1
100017ec:	601a      	str	r2, [r3, #0]
100017ee:	4b27      	ldr	r3, [pc, #156]	; (1000188c <clocks_init+0xdc>)
100017f0:	6c5b      	ldr	r3, [r3, #68]	; 0x44
100017f2:	2b01      	cmp	r3, #1
100017f4:	d1fb      	bne.n	100017ee <clocks_init+0x3e>
100017f6:	4b27      	ldr	r3, [pc, #156]	; (10001894 <clocks_init+0xe4>)
100017f8:	2203      	movs	r2, #3
100017fa:	601a      	str	r2, [r3, #0]
100017fc:	4b23      	ldr	r3, [pc, #140]	; (1000188c <clocks_init+0xdc>)
100017fe:	6b9b      	ldr	r3, [r3, #56]	; 0x38
10001800:	2b01      	cmp	r3, #1
10001802:	d1fb      	bne.n	100017fc <clocks_init+0x4c>
10001804:	2402      	movs	r4, #2
10001806:	9400      	str	r4, [sp, #0]
10001808:	3305      	adds	r3, #5
1000180a:	4a23      	ldr	r2, [pc, #140]	; (10001898 <clocks_init+0xe8>)
1000180c:	2101      	movs	r1, #1
1000180e:	4823      	ldr	r0, [pc, #140]	; (1000189c <clocks_init+0xec>)
10001810:	f000 fa4e 	bl	10001cb0 <pll_init>
10001814:	9400      	str	r4, [sp, #0]
10001816:	2305      	movs	r3, #5
10001818:	4a21      	ldr	r2, [pc, #132]	; (100018a0 <clocks_init+0xf0>)
1000181a:	2101      	movs	r1, #1
1000181c:	4821      	ldr	r0, [pc, #132]	; (100018a4 <clocks_init+0xf4>)
1000181e:	f000 fa47 	bl	10001cb0 <pll_init>
10001822:	4b21      	ldr	r3, [pc, #132]	; (100018a8 <clocks_init+0xf8>)
10001824:	9300      	str	r3, [sp, #0]
10001826:	2200      	movs	r2, #0
10001828:	2102      	movs	r1, #2
1000182a:	2004      	movs	r0, #4
1000182c:	f7ff ff3e 	bl	100016ac <clock_configure>
10001830:	4d1e      	ldr	r5, [pc, #120]	; (100018ac <clocks_init+0xfc>)
10001832:	9500      	str	r5, [sp, #0]
10001834:	002b      	movs	r3, r5
10001836:	2200      	movs	r2, #0
10001838:	2101      	movs	r1, #1
1000183a:	2005      	movs	r0, #5
1000183c:	f7ff ff36 	bl	100016ac <clock_configure>
10001840:	4c10      	ldr	r4, [pc, #64]	; (10001884 <clocks_init+0xd4>)
10001842:	9400      	str	r4, [sp, #0]
10001844:	0023      	movs	r3, r4
10001846:	2200      	movs	r2, #0
10001848:	2100      	movs	r1, #0
1000184a:	2007      	movs	r0, #7
1000184c:	f7ff ff2e 	bl	100016ac <clock_configure>
10001850:	9400      	str	r4, [sp, #0]
10001852:	0023      	movs	r3, r4
10001854:	2200      	movs	r2, #0
10001856:	2100      	movs	r1, #0
10001858:	2008      	movs	r0, #8
1000185a:	f7ff ff27 	bl	100016ac <clock_configure>
1000185e:	4b0a      	ldr	r3, [pc, #40]	; (10001888 <clocks_init+0xd8>)
10001860:	9300      	str	r3, [sp, #0]
10001862:	0023      	movs	r3, r4
10001864:	2200      	movs	r2, #0
10001866:	2100      	movs	r1, #0
10001868:	2009      	movs	r0, #9
1000186a:	f7ff ff1f 	bl	100016ac <clock_configure>
1000186e:	9500      	str	r5, [sp, #0]
10001870:	002b      	movs	r3, r5
10001872:	2200      	movs	r2, #0
10001874:	2100      	movs	r1, #0
10001876:	2006      	movs	r0, #6
10001878:	f7ff ff18 	bl	100016ac <clock_configure>
1000187c:	e7ad      	b.n	100017da <clocks_init+0x2a>
1000187e:	46c0      	nop			; (mov r8, r8)
10001880:	2000039c 	.word	0x2000039c
10001884:	02dc6c00 	.word	0x02dc6c00
10001888:	0000b71b 	.word	0x0000b71b
1000188c:	40008000 	.word	0x40008000
10001890:	4000b03c 	.word	0x4000b03c
10001894:	4000b030 	.word	0x4000b030
10001898:	59682f00 	.word	0x59682f00
1000189c:	40028000 	.word	0x40028000
100018a0:	1c9c3800 	.word	0x1c9c3800
100018a4:	4002c000 	.word	0x4002c000
100018a8:	00b71b00 	.word	0x00b71b00
100018ac:	07735940 	.word	0x07735940

100018b0 <set_raw_irq_handler_and_unlock>:
100018b0:	4b07      	ldr	r3, [pc, #28]	; (100018d0 <set_raw_irq_handler_and_unlock+0x20>)
100018b2:	689b      	ldr	r3, [r3, #8]
100018b4:	3010      	adds	r0, #16
100018b6:	0080      	lsls	r0, r0, #2
100018b8:	5019      	str	r1, [r3, r0]
100018ba:	f3bf 8f5f 	dmb	sy
100018be:	f3bf 8f5f 	dmb	sy
100018c2:	4b04      	ldr	r3, [pc, #16]	; (100018d4 <set_raw_irq_handler_and_unlock+0x24>)
100018c4:	2100      	movs	r1, #0
100018c6:	6019      	str	r1, [r3, #0]
100018c8:	f382 8810 	msr	PRIMASK, r2
100018cc:	4770      	bx	lr
100018ce:	46c0      	nop			; (mov r8, r8)
100018d0:	e000ed00 	.word	0xe000ed00
100018d4:	d0000124 	.word	0xd0000124

100018d8 <make_branch>:
100018d8:	b510      	push	{r4, lr}
100018da:	1a09      	subs	r1, r1, r0
100018dc:	3904      	subs	r1, #4
100018de:	0848      	lsrs	r0, r1, #1
100018e0:	0b09      	lsrs	r1, r1, #12
100018e2:	d105      	bne.n	100018f0 <make_branch+0x18>
100018e4:	0540      	lsls	r0, r0, #21
100018e6:	0d40      	lsrs	r0, r0, #21
100018e8:	4b04      	ldr	r3, [pc, #16]	; (100018fc <make_branch+0x24>)
100018ea:	4318      	orrs	r0, r3
100018ec:	b280      	uxth	r0, r0
100018ee:	bd10      	pop	{r4, pc}
100018f0:	4b03      	ldr	r3, [pc, #12]	; (10001900 <make_branch+0x28>)
100018f2:	4a04      	ldr	r2, [pc, #16]	; (10001904 <make_branch+0x2c>)
100018f4:	218b      	movs	r1, #139	; 0x8b
100018f6:	4804      	ldr	r0, [pc, #16]	; (10001908 <make_branch+0x30>)
100018f8:	f7ff fe26 	bl	10001548 <__assert_func>
100018fc:	ffffe000 	.word	0xffffe000
10001900:	100047f8 	.word	0x100047f8
10001904:	10004a04 	.word	0x10004a04
10001908:	10004808 	.word	0x10004808

1000190c <insert_branch_and_link>:
1000190c:	b510      	push	{r4, lr}
1000190e:	1a09      	subs	r1, r1, r0
10001910:	3904      	subs	r1, #4
10001912:	084c      	lsrs	r4, r1, #1
10001914:	0b09      	lsrs	r1, r1, #12
10001916:	d108      	bne.n	1000192a <insert_branch_and_link+0x1e>
10001918:	0549      	lsls	r1, r1, #21
1000191a:	0d49      	lsrs	r1, r1, #21
1000191c:	4a06      	ldr	r2, [pc, #24]	; (10001938 <insert_branch_and_link+0x2c>)
1000191e:	4311      	orrs	r1, r2
10001920:	8001      	strh	r1, [r0, #0]
10001922:	4b06      	ldr	r3, [pc, #24]	; (1000193c <insert_branch_and_link+0x30>)
10001924:	4323      	orrs	r3, r4
10001926:	8043      	strh	r3, [r0, #2]
10001928:	bd10      	pop	{r4, pc}
1000192a:	4b05      	ldr	r3, [pc, #20]	; (10001940 <insert_branch_and_link+0x34>)
1000192c:	4a05      	ldr	r2, [pc, #20]	; (10001944 <insert_branch_and_link+0x38>)
1000192e:	2193      	movs	r1, #147	; 0x93
10001930:	4805      	ldr	r0, [pc, #20]	; (10001948 <insert_branch_and_link+0x3c>)
10001932:	f7ff fe09 	bl	10001548 <__assert_func>
10001936:	46c0      	nop			; (mov r8, r8)
10001938:	fffff000 	.word	0xfffff000
1000193c:	fffff800 	.word	0xfffff800
10001940:	100047f8 	.word	0x100047f8
10001944:	100049d8 	.word	0x100049d8
10001948:	10004808 	.word	0x10004808

1000194c <irq_is_enabled>:
1000194c:	2301      	movs	r3, #1
1000194e:	4083      	lsls	r3, r0
10001950:	4a03      	ldr	r2, [pc, #12]	; (10001960 <irq_is_enabled+0x14>)
10001952:	6810      	ldr	r0, [r2, #0]
10001954:	4018      	ands	r0, r3
10001956:	1e43      	subs	r3, r0, #1
10001958:	4198      	sbcs	r0, r3
1000195a:	b2c0      	uxtb	r0, r0
1000195c:	4770      	bx	lr
1000195e:	46c0      	nop			; (mov r8, r8)
10001960:	e000e100 	.word	0xe000e100

10001964 <irq_set_mask_enabled>:
10001964:	2900      	cmp	r1, #0
10001966:	d004      	beq.n	10001972 <irq_set_mask_enabled+0xe>
10001968:	4b03      	ldr	r3, [pc, #12]	; (10001978 <irq_set_mask_enabled+0x14>)
1000196a:	6018      	str	r0, [r3, #0]
1000196c:	4b03      	ldr	r3, [pc, #12]	; (1000197c <irq_set_mask_enabled+0x18>)
1000196e:	6018      	str	r0, [r3, #0]
10001970:	4770      	bx	lr
10001972:	4b03      	ldr	r3, [pc, #12]	; (10001980 <irq_set_mask_enabled+0x1c>)
10001974:	6018      	str	r0, [r3, #0]
10001976:	e7fb      	b.n	10001970 <irq_set_mask_enabled+0xc>
10001978:	e000e280 	.word	0xe000e280
1000197c:	e000e100 	.word	0xe000e100
10001980:	e000e180 	.word	0xe000e180

10001984 <irq_set_enabled>:
10001984:	b510      	push	{r4, lr}
10001986:	2301      	movs	r3, #1
10001988:	4083      	lsls	r3, r0
1000198a:	0018      	movs	r0, r3
1000198c:	f7ff ffea 	bl	10001964 <irq_set_mask_enabled>
10001990:	bd10      	pop	{r4, pc}
	...

10001994 <irq_get_vtable_handler>:
10001994:	4b02      	ldr	r3, [pc, #8]	; (100019a0 <irq_get_vtable_handler+0xc>)
10001996:	689b      	ldr	r3, [r3, #8]
10001998:	3010      	adds	r0, #16
1000199a:	0080      	lsls	r0, r0, #2
1000199c:	58c0      	ldr	r0, [r0, r3]
1000199e:	4770      	bx	lr
100019a0:	e000ed00 	.word	0xe000ed00

100019a4 <irq_set_exclusive_handler>:
100019a4:	b570      	push	{r4, r5, r6, lr}
100019a6:	0004      	movs	r4, r0
100019a8:	000d      	movs	r5, r1
100019aa:	f3ef 8610 	mrs	r6, PRIMASK
100019ae:	b672      	cpsid	i
100019b0:	4b0c      	ldr	r3, [pc, #48]	; (100019e4 <irq_set_exclusive_handler+0x40>)
100019b2:	681b      	ldr	r3, [r3, #0]
100019b4:	2b00      	cmp	r3, #0
100019b6:	d0fb      	beq.n	100019b0 <irq_set_exclusive_handler+0xc>
100019b8:	f3bf 8f5f 	dmb	sy
100019bc:	0020      	movs	r0, r4
100019be:	f7ff ffe9 	bl	10001994 <irq_get_vtable_handler>
100019c2:	4b09      	ldr	r3, [pc, #36]	; (100019e8 <irq_set_exclusive_handler+0x44>)
100019c4:	4298      	cmp	r0, r3
100019c6:	d001      	beq.n	100019cc <irq_set_exclusive_handler+0x28>
100019c8:	42a8      	cmp	r0, r5
100019ca:	d105      	bne.n	100019d8 <irq_set_exclusive_handler+0x34>
100019cc:	0032      	movs	r2, r6
100019ce:	0029      	movs	r1, r5
100019d0:	0020      	movs	r0, r4
100019d2:	f7ff ff6d 	bl	100018b0 <set_raw_irq_handler_and_unlock>
100019d6:	bd70      	pop	{r4, r5, r6, pc}
100019d8:	4b04      	ldr	r3, [pc, #16]	; (100019ec <irq_set_exclusive_handler+0x48>)
100019da:	4a05      	ldr	r2, [pc, #20]	; (100019f0 <irq_set_exclusive_handler+0x4c>)
100019dc:	216e      	movs	r1, #110	; 0x6e
100019de:	4805      	ldr	r0, [pc, #20]	; (100019f4 <irq_set_exclusive_handler+0x50>)
100019e0:	f7ff fdb2 	bl	10001548 <__assert_func>
100019e4:	d0000124 	.word	0xd0000124
100019e8:	100001cd 	.word	0x100001cd
100019ec:	10004848 	.word	0x10004848
100019f0:	10004a20 	.word	0x10004a20
100019f4:	10004808 	.word	0x10004808

100019f8 <irq_remove_handler>:
100019f8:	b5f0      	push	{r4, r5, r6, r7, lr}
100019fa:	46ce      	mov	lr, r9
100019fc:	4647      	mov	r7, r8
100019fe:	b580      	push	{r7, lr}
10001a00:	b083      	sub	sp, #12
10001a02:	0006      	movs	r6, r0
10001a04:	000d      	movs	r5, r1
10001a06:	f3ef 8810 	mrs	r8, PRIMASK
10001a0a:	b672      	cpsid	i
10001a0c:	4b57      	ldr	r3, [pc, #348]	; (10001b6c <irq_remove_handler+0x174>)
10001a0e:	681b      	ldr	r3, [r3, #0]
10001a10:	2b00      	cmp	r3, #0
10001a12:	d0fb      	beq.n	10001a0c <irq_remove_handler+0x14>
10001a14:	f3bf 8f5f 	dmb	sy
10001a18:	4b55      	ldr	r3, [pc, #340]	; (10001b70 <irq_remove_handler+0x178>)
10001a1a:	689a      	ldr	r2, [r3, #8]
10001a1c:	0034      	movs	r4, r6
10001a1e:	3410      	adds	r4, #16
10001a20:	00a3      	lsls	r3, r4, #2
10001a22:	58d7      	ldr	r7, [r2, r3]
10001a24:	4b53      	ldr	r3, [pc, #332]	; (10001b74 <irq_remove_handler+0x17c>)
10001a26:	429f      	cmp	r7, r3
10001a28:	d007      	beq.n	10001a3a <irq_remove_handler+0x42>
10001a2a:	42af      	cmp	r7, r5
10001a2c:	d100      	bne.n	10001a30 <irq_remove_handler+0x38>
10001a2e:	e09b      	b.n	10001b68 <irq_remove_handler+0x170>
10001a30:	9701      	str	r7, [sp, #4]
10001a32:	4b51      	ldr	r3, [pc, #324]	; (10001b78 <irq_remove_handler+0x180>)
10001a34:	1afb      	subs	r3, r7, r3
10001a36:	2b2f      	cmp	r3, #47	; 0x2f
10001a38:	d909      	bls.n	10001a4e <irq_remove_handler+0x56>
10001a3a:	4642      	mov	r2, r8
10001a3c:	0039      	movs	r1, r7
10001a3e:	0030      	movs	r0, r6
10001a40:	f7ff ff36 	bl	100018b0 <set_raw_irq_handler_and_unlock>
10001a44:	b003      	add	sp, #12
10001a46:	bcc0      	pop	{r6, r7}
10001a48:	46b9      	mov	r9, r7
10001a4a:	46b0      	mov	r8, r6
10001a4c:	bdf0      	pop	{r4, r5, r6, r7, pc}
10001a4e:	0030      	movs	r0, r6
10001a50:	f7ff ff7c 	bl	1000194c <irq_is_enabled>
10001a54:	4681      	mov	r9, r0
10001a56:	2100      	movs	r1, #0
10001a58:	0030      	movs	r0, r6
10001a5a:	f7ff ff93 	bl	10001984 <irq_set_enabled>
10001a5e:	f3bf 8f5f 	dmb	sy
10001a62:	f7fe fc00 	bl	10000266 <__get_current_exception>
10001a66:	2800      	cmp	r0, #0
10001a68:	d001      	beq.n	10001a6e <irq_remove_handler+0x76>
10001a6a:	4284      	cmp	r4, r0
10001a6c:	d119      	bne.n	10001aa2 <irq_remove_handler+0xaa>
10001a6e:	2301      	movs	r3, #1
10001a70:	9c01      	ldr	r4, [sp, #4]
10001a72:	439c      	bics	r4, r3
10001a74:	4941      	ldr	r1, [pc, #260]	; (10001b7c <irq_remove_handler+0x184>)
10001a76:	0023      	movs	r3, r4
10001a78:	4a3f      	ldr	r2, [pc, #252]	; (10001b78 <irq_remove_handler+0x180>)
10001a7a:	1a9b      	subs	r3, r3, r2
10001a7c:	415b      	adcs	r3, r3
10001a7e:	4359      	muls	r1, r3
10001a80:	0d09      	lsrs	r1, r1, #20
10001a82:	b249      	sxtb	r1, r1
10001a84:	2200      	movs	r2, #0
10001a86:	68a3      	ldr	r3, [r4, #8]
10001a88:	42ab      	cmp	r3, r5
10001a8a:	d012      	beq.n	10001ab2 <irq_remove_handler+0xba>
10001a8c:	2206      	movs	r2, #6
10001a8e:	56a2      	ldrsb	r2, [r4, r2]
10001a90:	2a00      	cmp	r2, #0
10001a92:	db0d      	blt.n	10001ab0 <irq_remove_handler+0xb8>
10001a94:	0053      	lsls	r3, r2, #1
10001a96:	189b      	adds	r3, r3, r2
10001a98:	009b      	lsls	r3, r3, #2
10001a9a:	0022      	movs	r2, r4
10001a9c:	4c36      	ldr	r4, [pc, #216]	; (10001b78 <irq_remove_handler+0x180>)
10001a9e:	18e4      	adds	r4, r4, r3
10001aa0:	e7f1      	b.n	10001a86 <irq_remove_handler+0x8e>
10001aa2:	211e      	movs	r1, #30
10001aa4:	4b36      	ldr	r3, [pc, #216]	; (10001b80 <irq_remove_handler+0x188>)
10001aa6:	4a37      	ldr	r2, [pc, #220]	; (10001b84 <irq_remove_handler+0x18c>)
10001aa8:	31ff      	adds	r1, #255	; 0xff
10001aaa:	4837      	ldr	r0, [pc, #220]	; (10001b88 <irq_remove_handler+0x190>)
10001aac:	f7ff fd4c 	bl	10001548 <__assert_func>
10001ab0:	0022      	movs	r2, r4
10001ab2:	42ab      	cmp	r3, r5
10001ab4:	d151      	bne.n	10001b5a <irq_remove_handler+0x162>
10001ab6:	2506      	movs	r5, #6
10001ab8:	5765      	ldrsb	r5, [r4, r5]
10001aba:	2d00      	cmp	r5, #0
10001abc:	db39      	blt.n	10001b32 <irq_remove_handler+0x13a>
10001abe:	006b      	lsls	r3, r5, #1
10001ac0:	195b      	adds	r3, r3, r5
10001ac2:	009a      	lsls	r2, r3, #2
10001ac4:	4b2c      	ldr	r3, [pc, #176]	; (10001b78 <irq_remove_handler+0x180>)
10001ac6:	189b      	adds	r3, r3, r2
10001ac8:	689a      	ldr	r2, [r3, #8]
10001aca:	60a2      	str	r2, [r4, #8]
10001acc:	79da      	ldrb	r2, [r3, #7]
10001ace:	71e2      	strb	r2, [r4, #7]
10001ad0:	2206      	movs	r2, #6
10001ad2:	569a      	ldrsb	r2, [r3, r2]
10001ad4:	71a2      	strb	r2, [r4, #6]
10001ad6:	799b      	ldrb	r3, [r3, #6]
10001ad8:	b25b      	sxtb	r3, r3
10001ada:	2b00      	cmp	r3, #0
10001adc:	da10      	bge.n	10001b00 <irq_remove_handler+0x108>
10001ade:	20bd      	movs	r0, #189	; 0xbd
10001ae0:	0200      	lsls	r0, r0, #8
10001ae2:	80a0      	strh	r0, [r4, #4]
10001ae4:	006b      	lsls	r3, r5, #1
10001ae6:	195b      	adds	r3, r3, r5
10001ae8:	009b      	lsls	r3, r3, #2
10001aea:	4a23      	ldr	r2, [pc, #140]	; (10001b78 <irq_remove_handler+0x180>)
10001aec:	18d3      	adds	r3, r2, r3
10001aee:	4a27      	ldr	r2, [pc, #156]	; (10001b8c <irq_remove_handler+0x194>)
10001af0:	7811      	ldrb	r1, [r2, #0]
10001af2:	7199      	strb	r1, [r3, #6]
10001af4:	7015      	strb	r5, [r2, #0]
10001af6:	4649      	mov	r1, r9
10001af8:	0030      	movs	r0, r6
10001afa:	f7ff ff43 	bl	10001984 <irq_set_enabled>
10001afe:	e79c      	b.n	10001a3a <irq_remove_handler+0x42>
10001b00:	1d20      	adds	r0, r4, #4
10001b02:	006b      	lsls	r3, r5, #1
10001b04:	195b      	adds	r3, r3, r5
10001b06:	009b      	lsls	r3, r3, #2
10001b08:	4a1b      	ldr	r2, [pc, #108]	; (10001b78 <irq_remove_handler+0x180>)
10001b0a:	189b      	adds	r3, r3, r2
10001b0c:	1d1a      	adds	r2, r3, #4
10001b0e:	889b      	ldrh	r3, [r3, #4]
10001b10:	0ad9      	lsrs	r1, r3, #11
10001b12:	291c      	cmp	r1, #28
10001b14:	d107      	bne.n	10001b26 <irq_remove_handler+0x12e>
10001b16:	055b      	lsls	r3, r3, #21
10001b18:	155b      	asrs	r3, r3, #21
10001b1a:	3302      	adds	r3, #2
10001b1c:	0059      	lsls	r1, r3, #1
10001b1e:	1851      	adds	r1, r2, r1
10001b20:	f7ff feda 	bl	100018d8 <make_branch>
10001b24:	e7dd      	b.n	10001ae2 <irq_remove_handler+0xea>
10001b26:	4b1a      	ldr	r3, [pc, #104]	; (10001b90 <irq_remove_handler+0x198>)
10001b28:	4a1a      	ldr	r2, [pc, #104]	; (10001b94 <irq_remove_handler+0x19c>)
10001b2a:	2199      	movs	r1, #153	; 0x99
10001b2c:	4816      	ldr	r0, [pc, #88]	; (10001b88 <irq_remove_handler+0x190>)
10001b2e:	f7ff fd0b 	bl	10001548 <__assert_func>
10001b32:	2800      	cmp	r0, #0
10001b34:	d10c      	bne.n	10001b50 <irq_remove_handler+0x158>
10001b36:	2a00      	cmp	r2, #0
10001b38:	d008      	beq.n	10001b4c <irq_remove_handler+0x154>
10001b3a:	23ff      	movs	r3, #255	; 0xff
10001b3c:	7193      	strb	r3, [r2, #6]
10001b3e:	4b16      	ldr	r3, [pc, #88]	; (10001b98 <irq_remove_handler+0x1a0>)
10001b40:	8093      	strh	r3, [r2, #4]
10001b42:	4b12      	ldr	r3, [pc, #72]	; (10001b8c <irq_remove_handler+0x194>)
10001b44:	781a      	ldrb	r2, [r3, #0]
10001b46:	71a2      	strb	r2, [r4, #6]
10001b48:	7019      	strb	r1, [r3, #0]
10001b4a:	e7d4      	b.n	10001af6 <irq_remove_handler+0xfe>
10001b4c:	4f09      	ldr	r7, [pc, #36]	; (10001b74 <irq_remove_handler+0x17c>)
10001b4e:	e7f8      	b.n	10001b42 <irq_remove_handler+0x14a>
10001b50:	1d20      	adds	r0, r4, #4
10001b52:	4912      	ldr	r1, [pc, #72]	; (10001b9c <irq_remove_handler+0x1a4>)
10001b54:	f7ff feda 	bl	1000190c <insert_branch_and_link>
10001b58:	e7cd      	b.n	10001af6 <irq_remove_handler+0xfe>
10001b5a:	21a9      	movs	r1, #169	; 0xa9
10001b5c:	4b10      	ldr	r3, [pc, #64]	; (10001ba0 <irq_remove_handler+0x1a8>)
10001b5e:	4a09      	ldr	r2, [pc, #36]	; (10001b84 <irq_remove_handler+0x18c>)
10001b60:	0049      	lsls	r1, r1, #1
10001b62:	4809      	ldr	r0, [pc, #36]	; (10001b88 <irq_remove_handler+0x190>)
10001b64:	f7ff fcf0 	bl	10001548 <__assert_func>
10001b68:	4f02      	ldr	r7, [pc, #8]	; (10001b74 <irq_remove_handler+0x17c>)
10001b6a:	e766      	b.n	10001a3a <irq_remove_handler+0x42>
10001b6c:	d0000124 	.word	0xd0000124
10001b70:	e000ed00 	.word	0xe000ed00
10001b74:	100001cd 	.word	0x100001cd
10001b78:	200001dc 	.word	0x200001dc
10001b7c:	0000aaaa 	.word	0x0000aaaa
10001b80:	1000495c 	.word	0x1000495c
10001b84:	100049f0 	.word	0x100049f0
10001b88:	10004808 	.word	0x10004808
10001b8c:	20000635 	.word	0x20000635
10001b90:	10004944 	.word	0x10004944
10001b94:	10004a10 	.word	0x10004a10
10001b98:	ffffbd00 	.word	0xffffbd00
10001b9c:	20000216 	.word	0x20000216
10001ba0:	10004980 	.word	0x10004980

10001ba4 <irq_add_tail_to_free_list>:
10001ba4:	b570      	push	{r4, r5, r6, lr}
10001ba6:	0004      	movs	r4, r0
10001ba8:	2601      	movs	r6, #1
10001baa:	4306      	orrs	r6, r0
10001bac:	4b2d      	ldr	r3, [pc, #180]	; (10001c64 <irq_add_tail_to_free_list+0xc0>)
10001bae:	1af3      	subs	r3, r6, r3
10001bb0:	2b2f      	cmp	r3, #47	; 0x2f
10001bb2:	d828      	bhi.n	10001c06 <irq_add_tail_to_free_list+0x62>
10001bb4:	f7fe fb57 	bl	10000266 <__get_current_exception>
10001bb8:	2800      	cmp	r0, #0
10001bba:	d02b      	beq.n	10001c14 <irq_add_tail_to_free_list+0x70>
10001bbc:	f3ef 8c10 	mrs	ip, PRIMASK
10001bc0:	b672      	cpsid	i
10001bc2:	4b29      	ldr	r3, [pc, #164]	; (10001c68 <irq_add_tail_to_free_list+0xc4>)
10001bc4:	681b      	ldr	r3, [r3, #0]
10001bc6:	2b00      	cmp	r3, #0
10001bc8:	d0fb      	beq.n	10001bc2 <irq_add_tail_to_free_list+0x1e>
10001bca:	f3bf 8f5f 	dmb	sy
10001bce:	4d27      	ldr	r5, [pc, #156]	; (10001c6c <irq_add_tail_to_free_list+0xc8>)
10001bd0:	0022      	movs	r2, r4
10001bd2:	4924      	ldr	r1, [pc, #144]	; (10001c64 <irq_add_tail_to_free_list+0xc0>)
10001bd4:	1a52      	subs	r2, r2, r1
10001bd6:	4152      	adcs	r2, r2
10001bd8:	4355      	muls	r5, r2
10001bda:	0d2d      	lsrs	r5, r5, #20
10001bdc:	b26d      	sxtb	r5, r5
10001bde:	4b24      	ldr	r3, [pc, #144]	; (10001c70 <irq_add_tail_to_free_list+0xcc>)
10001be0:	689b      	ldr	r3, [r3, #8]
10001be2:	0080      	lsls	r0, r0, #2
10001be4:	581b      	ldr	r3, [r3, r0]
10001be6:	42b3      	cmp	r3, r6
10001be8:	d01b      	beq.n	10001c22 <irq_add_tail_to_free_list+0x7e>
10001bea:	2200      	movs	r2, #0
10001bec:	2a03      	cmp	r2, #3
10001bee:	d832      	bhi.n	10001c56 <irq_add_tail_to_free_list+0xb2>
10001bf0:	0053      	lsls	r3, r2, #1
10001bf2:	189b      	adds	r3, r3, r2
10001bf4:	009b      	lsls	r3, r3, #2
10001bf6:	491b      	ldr	r1, [pc, #108]	; (10001c64 <irq_add_tail_to_free_list+0xc0>)
10001bf8:	18cb      	adds	r3, r1, r3
10001bfa:	799b      	ldrb	r3, [r3, #6]
10001bfc:	b25b      	sxtb	r3, r3
10001bfe:	42ab      	cmp	r3, r5
10001c00:	d01f      	beq.n	10001c42 <irq_add_tail_to_free_list+0x9e>
10001c02:	3201      	adds	r2, #1
10001c04:	e7f2      	b.n	10001bec <irq_add_tail_to_free_list+0x48>
10001c06:	2178      	movs	r1, #120	; 0x78
10001c08:	4b1a      	ldr	r3, [pc, #104]	; (10001c74 <irq_add_tail_to_free_list+0xd0>)
10001c0a:	4a1b      	ldr	r2, [pc, #108]	; (10001c78 <irq_add_tail_to_free_list+0xd4>)
10001c0c:	31ff      	adds	r1, #255	; 0xff
10001c0e:	481b      	ldr	r0, [pc, #108]	; (10001c7c <irq_add_tail_to_free_list+0xd8>)
10001c10:	f7ff fc9a 	bl	10001548 <__assert_func>
10001c14:	21bd      	movs	r1, #189	; 0xbd
10001c16:	4b1a      	ldr	r3, [pc, #104]	; (10001c80 <irq_add_tail_to_free_list+0xdc>)
10001c18:	4a17      	ldr	r2, [pc, #92]	; (10001c78 <irq_add_tail_to_free_list+0xd4>)
10001c1a:	0049      	lsls	r1, r1, #1
10001c1c:	4817      	ldr	r0, [pc, #92]	; (10001c7c <irq_add_tail_to_free_list+0xd8>)
10001c1e:	f7ff fc93 	bl	10001548 <__assert_func>
10001c22:	4b13      	ldr	r3, [pc, #76]	; (10001c70 <irq_add_tail_to_free_list+0xcc>)
10001c24:	689b      	ldr	r3, [r3, #8]
10001c26:	4a17      	ldr	r2, [pc, #92]	; (10001c84 <irq_add_tail_to_free_list+0xe0>)
10001c28:	501a      	str	r2, [r3, r0]
10001c2a:	4b17      	ldr	r3, [pc, #92]	; (10001c88 <irq_add_tail_to_free_list+0xe4>)
10001c2c:	781a      	ldrb	r2, [r3, #0]
10001c2e:	71a2      	strb	r2, [r4, #6]
10001c30:	701d      	strb	r5, [r3, #0]
10001c32:	f3bf 8f5f 	dmb	sy
10001c36:	4b0c      	ldr	r3, [pc, #48]	; (10001c68 <irq_add_tail_to_free_list+0xc4>)
10001c38:	2200      	movs	r2, #0
10001c3a:	601a      	str	r2, [r3, #0]
10001c3c:	f38c 8810 	msr	PRIMASK, ip
10001c40:	bd70      	pop	{r4, r5, r6, pc}
10001c42:	0008      	movs	r0, r1
10001c44:	0053      	lsls	r3, r2, #1
10001c46:	1899      	adds	r1, r3, r2
10001c48:	0089      	lsls	r1, r1, #2
10001c4a:	1841      	adds	r1, r0, r1
10001c4c:	26ff      	movs	r6, #255	; 0xff
10001c4e:	718e      	strb	r6, [r1, #6]
10001c50:	4a0e      	ldr	r2, [pc, #56]	; (10001c8c <irq_add_tail_to_free_list+0xe8>)
10001c52:	808a      	strh	r2, [r1, #4]
10001c54:	e7e9      	b.n	10001c2a <irq_add_tail_to_free_list+0x86>
10001c56:	218c      	movs	r1, #140	; 0x8c
10001c58:	4b0d      	ldr	r3, [pc, #52]	; (10001c90 <irq_add_tail_to_free_list+0xec>)
10001c5a:	4a07      	ldr	r2, [pc, #28]	; (10001c78 <irq_add_tail_to_free_list+0xd4>)
10001c5c:	31ff      	adds	r1, #255	; 0xff
10001c5e:	4807      	ldr	r0, [pc, #28]	; (10001c7c <irq_add_tail_to_free_list+0xd8>)
10001c60:	f7ff fc72 	bl	10001548 <__assert_func>
10001c64:	200001dc 	.word	0x200001dc
10001c68:	d0000124 	.word	0xd0000124
10001c6c:	0000aaaa 	.word	0x0000aaaa
10001c70:	e000ed00 	.word	0xe000ed00
10001c74:	10004988 	.word	0x10004988
10001c78:	100049bc 	.word	0x100049bc
10001c7c:	10004808 	.word	0x10004808
10001c80:	100049b0 	.word	0x100049b0
10001c84:	100001cd 	.word	0x100001cd
10001c88:	20000635 	.word	0x20000635
10001c8c:	ffffbd00 	.word	0xffffbd00
10001c90:	10004654 	.word	0x10004654

10001c94 <irq_init_priorities>:
10001c94:	2200      	movs	r2, #0
10001c96:	4b04      	ldr	r3, [pc, #16]	; (10001ca8 <irq_init_priorities+0x14>)
10001c98:	e002      	b.n	10001ca0 <irq_init_priorities+0xc>
10001c9a:	4904      	ldr	r1, [pc, #16]	; (10001cac <irq_init_priorities+0x18>)
10001c9c:	c302      	stmia	r3!, {r1}
10001c9e:	3201      	adds	r2, #1
10001ca0:	2a07      	cmp	r2, #7
10001ca2:	d9fa      	bls.n	10001c9a <irq_init_priorities+0x6>
10001ca4:	4770      	bx	lr
10001ca6:	46c0      	nop			; (mov r8, r8)
10001ca8:	e000e400 	.word	0xe000e400
10001cac:	80808080 	.word	0x80808080

10001cb0 <pll_init>:
10001cb0:	b5f0      	push	{r4, r5, r6, r7, lr}
10001cb2:	46ce      	mov	lr, r9
10001cb4:	b500      	push	{lr}
10001cb6:	0004      	movs	r4, r0
10001cb8:	000e      	movs	r6, r1
10001cba:	4691      	mov	r9, r2
10001cbc:	001f      	movs	r7, r3
10001cbe:	200c      	movs	r0, #12
10001cc0:	f001 f99a 	bl	10002ff8 <__wrap___aeabi_uidiv>
10001cc4:	0005      	movs	r5, r0
10001cc6:	0143      	lsls	r3, r0, #5
10001cc8:	1a1b      	subs	r3, r3, r0
10001cca:	0199      	lsls	r1, r3, #6
10001ccc:	1ac9      	subs	r1, r1, r3
10001cce:	00c9      	lsls	r1, r1, #3
10001cd0:	1809      	adds	r1, r1, r0
10001cd2:	0189      	lsls	r1, r1, #6
10001cd4:	4648      	mov	r0, r9
10001cd6:	f001 f98f 	bl	10002ff8 <__wrap___aeabi_uidiv>
10001cda:	0002      	movs	r2, r0
10001cdc:	3a10      	subs	r2, #16
10001cde:	2398      	movs	r3, #152	; 0x98
10001ce0:	005b      	lsls	r3, r3, #1
10001ce2:	429a      	cmp	r2, r3
10001ce4:	d833      	bhi.n	10001d4e <pll_init+0x9e>
10001ce6:	1e7b      	subs	r3, r7, #1
10001ce8:	2b06      	cmp	r3, #6
10001cea:	d836      	bhi.n	10001d5a <pll_init+0xaa>
10001cec:	9b06      	ldr	r3, [sp, #24]
10001cee:	3b01      	subs	r3, #1
10001cf0:	2b06      	cmp	r3, #6
10001cf2:	d832      	bhi.n	10001d5a <pll_init+0xaa>
10001cf4:	9b06      	ldr	r3, [sp, #24]
10001cf6:	429f      	cmp	r7, r3
10001cf8:	d335      	bcc.n	10001d66 <pll_init+0xb6>
10001cfa:	464b      	mov	r3, r9
10001cfc:	091a      	lsrs	r2, r3, #4
10001cfe:	42aa      	cmp	r2, r5
10001d00:	d337      	bcc.n	10001d72 <pll_init+0xc2>
10001d02:	043f      	lsls	r7, r7, #16
10001d04:	9b06      	ldr	r3, [sp, #24]
10001d06:	031d      	lsls	r5, r3, #12
10001d08:	432f      	orrs	r7, r5
10001d0a:	6823      	ldr	r3, [r4, #0]
10001d0c:	2b00      	cmp	r3, #0
10001d0e:	db36      	blt.n	10001d7e <pll_init+0xce>
10001d10:	4b23      	ldr	r3, [pc, #140]	; (10001da0 <pll_init+0xf0>)
10001d12:	429c      	cmp	r4, r3
10001d14:	d041      	beq.n	10001d9a <pll_init+0xea>
10001d16:	2280      	movs	r2, #128	; 0x80
10001d18:	0152      	lsls	r2, r2, #5
10001d1a:	4b22      	ldr	r3, [pc, #136]	; (10001da4 <pll_init+0xf4>)
10001d1c:	601a      	str	r2, [r3, #0]
10001d1e:	4b22      	ldr	r3, [pc, #136]	; (10001da8 <pll_init+0xf8>)
10001d20:	601a      	str	r2, [r3, #0]
10001d22:	4b22      	ldr	r3, [pc, #136]	; (10001dac <pll_init+0xfc>)
10001d24:	689b      	ldr	r3, [r3, #8]
10001d26:	0011      	movs	r1, r2
10001d28:	4399      	bics	r1, r3
10001d2a:	d1fa      	bne.n	10001d22 <pll_init+0x72>
10001d2c:	6026      	str	r6, [r4, #0]
10001d2e:	60a0      	str	r0, [r4, #8]
10001d30:	1d23      	adds	r3, r4, #4
10001d32:	22c0      	movs	r2, #192	; 0xc0
10001d34:	0192      	lsls	r2, r2, #6
10001d36:	431a      	orrs	r2, r3
10001d38:	2321      	movs	r3, #33	; 0x21
10001d3a:	6013      	str	r3, [r2, #0]
10001d3c:	6823      	ldr	r3, [r4, #0]
10001d3e:	2b00      	cmp	r3, #0
10001d40:	dafc      	bge.n	10001d3c <pll_init+0x8c>
10001d42:	60e7      	str	r7, [r4, #12]
10001d44:	2308      	movs	r3, #8
10001d46:	6013      	str	r3, [r2, #0]
10001d48:	bc80      	pop	{r7}
10001d4a:	46b9      	mov	r9, r7
10001d4c:	bdf0      	pop	{r4, r5, r6, r7, pc}
10001d4e:	4b18      	ldr	r3, [pc, #96]	; (10001db0 <pll_init+0x100>)
10001d50:	4a18      	ldr	r2, [pc, #96]	; (10001db4 <pll_init+0x104>)
10001d52:	2116      	movs	r1, #22
10001d54:	4818      	ldr	r0, [pc, #96]	; (10001db8 <pll_init+0x108>)
10001d56:	f7ff fbf7 	bl	10001548 <__assert_func>
10001d5a:	4b18      	ldr	r3, [pc, #96]	; (10001dbc <pll_init+0x10c>)
10001d5c:	4a15      	ldr	r2, [pc, #84]	; (10001db4 <pll_init+0x104>)
10001d5e:	2119      	movs	r1, #25
10001d60:	4815      	ldr	r0, [pc, #84]	; (10001db8 <pll_init+0x108>)
10001d62:	f7ff fbf1 	bl	10001548 <__assert_func>
10001d66:	4b16      	ldr	r3, [pc, #88]	; (10001dc0 <pll_init+0x110>)
10001d68:	4a12      	ldr	r2, [pc, #72]	; (10001db4 <pll_init+0x104>)
10001d6a:	211f      	movs	r1, #31
10001d6c:	4812      	ldr	r0, [pc, #72]	; (10001db8 <pll_init+0x108>)
10001d6e:	f7ff fbeb 	bl	10001548 <__assert_func>
10001d72:	4b14      	ldr	r3, [pc, #80]	; (10001dc4 <pll_init+0x114>)
10001d74:	4a0f      	ldr	r2, [pc, #60]	; (10001db4 <pll_init+0x104>)
10001d76:	2122      	movs	r1, #34	; 0x22
10001d78:	480f      	ldr	r0, [pc, #60]	; (10001db8 <pll_init+0x108>)
10001d7a:	f7ff fbe5 	bl	10001548 <__assert_func>
10001d7e:	6822      	ldr	r2, [r4, #0]
10001d80:	233f      	movs	r3, #63	; 0x3f
10001d82:	4013      	ands	r3, r2
10001d84:	42b3      	cmp	r3, r6
10001d86:	d1c3      	bne.n	10001d10 <pll_init+0x60>
10001d88:	68a3      	ldr	r3, [r4, #8]
10001d8a:	051b      	lsls	r3, r3, #20
10001d8c:	0d1b      	lsrs	r3, r3, #20
10001d8e:	4283      	cmp	r3, r0
10001d90:	d1be      	bne.n	10001d10 <pll_init+0x60>
10001d92:	68e3      	ldr	r3, [r4, #12]
10001d94:	2f00      	cmp	r7, #0
10001d96:	d1bb      	bne.n	10001d10 <pll_init+0x60>
10001d98:	e7d6      	b.n	10001d48 <pll_init+0x98>
10001d9a:	2280      	movs	r2, #128	; 0x80
10001d9c:	0192      	lsls	r2, r2, #6
10001d9e:	e7bc      	b.n	10001d1a <pll_init+0x6a>
10001da0:	4002c000 	.word	0x4002c000
10001da4:	4000e000 	.word	0x4000e000
10001da8:	4000f000 	.word	0x4000f000
10001dac:	4000c000 	.word	0x4000c000
10001db0:	10004a3c 	.word	0x10004a3c
10001db4:	10004b18 	.word	0x10004b18
10001db8:	10004a58 	.word	0x10004a58
10001dbc:	10004a98 	.word	0x10004a98
10001dc0:	10004ae4 	.word	0x10004ae4
10001dc4:	10004afc 	.word	0x10004afc

10001dc8 <watchdog_start_tick>:
10001dc8:	2380      	movs	r3, #128	; 0x80
10001dca:	009b      	lsls	r3, r3, #2
10001dcc:	4303      	orrs	r3, r0
10001dce:	4a01      	ldr	r2, [pc, #4]	; (10001dd4 <watchdog_start_tick+0xc>)
10001dd0:	62d3      	str	r3, [r2, #44]	; 0x2c
10001dd2:	4770      	bx	lr
10001dd4:	40058000 	.word	0x40058000

10001dd8 <xosc_init>:
10001dd8:	4b06      	ldr	r3, [pc, #24]	; (10001df4 <xosc_init+0x1c>)
10001dda:	22aa      	movs	r2, #170	; 0xaa
10001ddc:	0112      	lsls	r2, r2, #4
10001dde:	601a      	str	r2, [r3, #0]
10001de0:	222f      	movs	r2, #47	; 0x2f
10001de2:	60da      	str	r2, [r3, #12]
10001de4:	4b04      	ldr	r3, [pc, #16]	; (10001df8 <xosc_init+0x20>)
10001de6:	4a05      	ldr	r2, [pc, #20]	; (10001dfc <xosc_init+0x24>)
10001de8:	601a      	str	r2, [r3, #0]
10001dea:	4b02      	ldr	r3, [pc, #8]	; (10001df4 <xosc_init+0x1c>)
10001dec:	685b      	ldr	r3, [r3, #4]
10001dee:	2b00      	cmp	r3, #0
10001df0:	dafb      	bge.n	10001dea <xosc_init+0x12>
10001df2:	4770      	bx	lr
10001df4:	40024000 	.word	0x40024000
10001df8:	40026000 	.word	0x40026000
10001dfc:	00fab000 	.word	0x00fab000

10001e00 <_out_null>:
10001e00:	4770      	bx	lr

10001e02 <_out_fct>:
10001e02:	b510      	push	{r4, lr}
10001e04:	2800      	cmp	r0, #0
10001e06:	d002      	beq.n	10001e0e <_out_fct+0xc>
10001e08:	680b      	ldr	r3, [r1, #0]
10001e0a:	6849      	ldr	r1, [r1, #4]
10001e0c:	4798      	blx	r3
10001e0e:	bd10      	pop	{r4, pc}

10001e10 <_atoi>:
10001e10:	0001      	movs	r1, r0
10001e12:	2000      	movs	r0, #0
10001e14:	e007      	b.n	10001e26 <_atoi+0x16>
10001e16:	0083      	lsls	r3, r0, #2
10001e18:	181b      	adds	r3, r3, r0
10001e1a:	005b      	lsls	r3, r3, #1
10001e1c:	1c50      	adds	r0, r2, #1
10001e1e:	6008      	str	r0, [r1, #0]
10001e20:	7810      	ldrb	r0, [r2, #0]
10001e22:	18c0      	adds	r0, r0, r3
10001e24:	3830      	subs	r0, #48	; 0x30
10001e26:	680a      	ldr	r2, [r1, #0]
10001e28:	7813      	ldrb	r3, [r2, #0]
10001e2a:	3b30      	subs	r3, #48	; 0x30
10001e2c:	b2db      	uxtb	r3, r3
10001e2e:	2b09      	cmp	r3, #9
10001e30:	d9f1      	bls.n	10001e16 <_atoi+0x6>
10001e32:	4770      	bx	lr

10001e34 <_out_rev>:
10001e34:	b5f0      	push	{r4, r5, r6, r7, lr}
10001e36:	46de      	mov	lr, fp
10001e38:	4657      	mov	r7, sl
10001e3a:	464e      	mov	r6, r9
10001e3c:	4645      	mov	r5, r8
10001e3e:	b5e0      	push	{r5, r6, r7, lr}
10001e40:	b083      	sub	sp, #12
10001e42:	4693      	mov	fp, r2
10001e44:	001f      	movs	r7, r3
10001e46:	9b0c      	ldr	r3, [sp, #48]	; 0x30
10001e48:	469a      	mov	sl, r3
10001e4a:	9c0d      	ldr	r4, [sp, #52]	; 0x34
10001e4c:	9b0e      	ldr	r3, [sp, #56]	; 0x38
10001e4e:	4699      	mov	r9, r3
10001e50:	9b0f      	ldr	r3, [sp, #60]	; 0x3c
10001e52:	079b      	lsls	r3, r3, #30
10001e54:	d003      	beq.n	10001e5e <_out_rev+0x2a>
10001e56:	46b8      	mov	r8, r7
10001e58:	000f      	movs	r7, r1
10001e5a:	0006      	movs	r6, r0
10001e5c:	e022      	b.n	10001ea4 <_out_rev+0x70>
10001e5e:	9201      	str	r2, [sp, #4]
10001e60:	46a3      	mov	fp, r4
10001e62:	4688      	mov	r8, r1
10001e64:	464e      	mov	r6, r9
10001e66:	46b9      	mov	r9, r7
10001e68:	0007      	movs	r7, r0
10001e6a:	42b4      	cmp	r4, r6
10001e6c:	d207      	bcs.n	10001e7e <_out_rev+0x4a>
10001e6e:	1c55      	adds	r5, r2, #1
10001e70:	464b      	mov	r3, r9
10001e72:	4641      	mov	r1, r8
10001e74:	2020      	movs	r0, #32
10001e76:	47b8      	blx	r7
10001e78:	3401      	adds	r4, #1
10001e7a:	002a      	movs	r2, r5
10001e7c:	e7f5      	b.n	10001e6a <_out_rev+0x36>
10001e7e:	003d      	movs	r5, r7
10001e80:	464f      	mov	r7, r9
10001e82:	465c      	mov	r4, fp
10001e84:	9b01      	ldr	r3, [sp, #4]
10001e86:	469b      	mov	fp, r3
10001e88:	46b1      	mov	r9, r6
10001e8a:	4646      	mov	r6, r8
10001e8c:	46b8      	mov	r8, r7
10001e8e:	0037      	movs	r7, r6
10001e90:	002e      	movs	r6, r5
10001e92:	e007      	b.n	10001ea4 <_out_rev+0x70>
10001e94:	3c01      	subs	r4, #1
10001e96:	1c55      	adds	r5, r2, #1
10001e98:	4653      	mov	r3, sl
10001e9a:	5d18      	ldrb	r0, [r3, r4]
10001e9c:	4643      	mov	r3, r8
10001e9e:	0039      	movs	r1, r7
10001ea0:	47b0      	blx	r6
10001ea2:	002a      	movs	r2, r5
10001ea4:	2c00      	cmp	r4, #0
10001ea6:	d1f5      	bne.n	10001e94 <_out_rev+0x60>
10001ea8:	0035      	movs	r5, r6
10001eaa:	003e      	movs	r6, r7
10001eac:	4647      	mov	r7, r8
10001eae:	9b0f      	ldr	r3, [sp, #60]	; 0x3c
10001eb0:	079b      	lsls	r3, r3, #30
10001eb2:	d407      	bmi.n	10001ec4 <_out_rev+0x90>
10001eb4:	0010      	movs	r0, r2
10001eb6:	b003      	add	sp, #12
10001eb8:	bcf0      	pop	{r4, r5, r6, r7}
10001eba:	46bb      	mov	fp, r7
10001ebc:	46b2      	mov	sl, r6
10001ebe:	46a9      	mov	r9, r5
10001ec0:	46a0      	mov	r8, r4
10001ec2:	bdf0      	pop	{r4, r5, r6, r7, pc}
10001ec4:	46b0      	mov	r8, r6
10001ec6:	464e      	mov	r6, r9
10001ec8:	46b9      	mov	r9, r7
10001eca:	002f      	movs	r7, r5
10001ecc:	465d      	mov	r5, fp
10001ece:	1b53      	subs	r3, r2, r5
10001ed0:	42b3      	cmp	r3, r6
10001ed2:	d2ef      	bcs.n	10001eb4 <_out_rev+0x80>
10001ed4:	1c54      	adds	r4, r2, #1
10001ed6:	464b      	mov	r3, r9
10001ed8:	4641      	mov	r1, r8
10001eda:	2020      	movs	r0, #32
10001edc:	47b8      	blx	r7
10001ede:	0022      	movs	r2, r4
10001ee0:	e7f5      	b.n	10001ece <_out_rev+0x9a>

10001ee2 <_ntoa_format>:
10001ee2:	b5f0      	push	{r4, r5, r6, r7, lr}
10001ee4:	46ce      	mov	lr, r9
10001ee6:	4647      	mov	r7, r8
10001ee8:	b580      	push	{r7, lr}
10001eea:	b085      	sub	sp, #20
10001eec:	4694      	mov	ip, r2
10001eee:	4698      	mov	r8, r3
10001ef0:	9d0c      	ldr	r5, [sp, #48]	; 0x30
10001ef2:	9c0d      	ldr	r4, [sp, #52]	; 0x34
10001ef4:	ab0e      	add	r3, sp, #56	; 0x38
10001ef6:	781b      	ldrb	r3, [r3, #0]
10001ef8:	4699      	mov	r9, r3
10001efa:	9a10      	ldr	r2, [sp, #64]	; 0x40
10001efc:	9b11      	ldr	r3, [sp, #68]	; 0x44
10001efe:	9e12      	ldr	r6, [sp, #72]	; 0x48
10001f00:	07b7      	lsls	r7, r6, #30
10001f02:	d41c      	bmi.n	10001f3e <_ntoa_format+0x5c>
10001f04:	2b00      	cmp	r3, #0
10001f06:	d00c      	beq.n	10001f22 <_ntoa_format+0x40>
10001f08:	07f7      	lsls	r7, r6, #31
10001f0a:	d50a      	bpl.n	10001f22 <_ntoa_format+0x40>
10001f0c:	464f      	mov	r7, r9
10001f0e:	2f00      	cmp	r7, #0
10001f10:	d102      	bne.n	10001f18 <_ntoa_format+0x36>
10001f12:	370c      	adds	r7, #12
10001f14:	4237      	tst	r7, r6
10001f16:	d004      	beq.n	10001f22 <_ntoa_format+0x40>
10001f18:	3b01      	subs	r3, #1
10001f1a:	e002      	b.n	10001f22 <_ntoa_format+0x40>
10001f1c:	2730      	movs	r7, #48	; 0x30
10001f1e:	552f      	strb	r7, [r5, r4]
10001f20:	3401      	adds	r4, #1
10001f22:	4294      	cmp	r4, r2
10001f24:	d201      	bcs.n	10001f2a <_ntoa_format+0x48>
10001f26:	2c1f      	cmp	r4, #31
10001f28:	d9f8      	bls.n	10001f1c <_ntoa_format+0x3a>
10001f2a:	07f7      	lsls	r7, r6, #31
10001f2c:	d507      	bpl.n	10001f3e <_ntoa_format+0x5c>
10001f2e:	429c      	cmp	r4, r3
10001f30:	d205      	bcs.n	10001f3e <_ntoa_format+0x5c>
10001f32:	2c1f      	cmp	r4, #31
10001f34:	d803      	bhi.n	10001f3e <_ntoa_format+0x5c>
10001f36:	2730      	movs	r7, #48	; 0x30
10001f38:	552f      	strb	r7, [r5, r4]
10001f3a:	3401      	adds	r4, #1
10001f3c:	e7f5      	b.n	10001f2a <_ntoa_format+0x48>
10001f3e:	06f7      	lsls	r7, r6, #27
10001f40:	d515      	bpl.n	10001f6e <_ntoa_format+0x8c>
10001f42:	0577      	lsls	r7, r6, #21
10001f44:	d405      	bmi.n	10001f52 <_ntoa_format+0x70>
10001f46:	2c00      	cmp	r4, #0
10001f48:	d003      	beq.n	10001f52 <_ntoa_format+0x70>
10001f4a:	4294      	cmp	r4, r2
10001f4c:	d024      	beq.n	10001f98 <_ntoa_format+0xb6>
10001f4e:	429c      	cmp	r4, r3
10001f50:	d022      	beq.n	10001f98 <_ntoa_format+0xb6>
10001f52:	9a0f      	ldr	r2, [sp, #60]	; 0x3c
10001f54:	2a10      	cmp	r2, #16
10001f56:	d02b      	beq.n	10001fb0 <_ntoa_format+0xce>
10001f58:	9a0f      	ldr	r2, [sp, #60]	; 0x3c
10001f5a:	2a10      	cmp	r2, #16
10001f5c:	d030      	beq.n	10001fc0 <_ntoa_format+0xde>
10001f5e:	9a0f      	ldr	r2, [sp, #60]	; 0x3c
10001f60:	2a02      	cmp	r2, #2
10001f62:	d035      	beq.n	10001fd0 <_ntoa_format+0xee>
10001f64:	2c1f      	cmp	r4, #31
10001f66:	d802      	bhi.n	10001f6e <_ntoa_format+0x8c>
10001f68:	2230      	movs	r2, #48	; 0x30
10001f6a:	552a      	strb	r2, [r5, r4]
10001f6c:	3401      	adds	r4, #1
10001f6e:	2c1f      	cmp	r4, #31
10001f70:	d805      	bhi.n	10001f7e <_ntoa_format+0x9c>
10001f72:	464a      	mov	r2, r9
10001f74:	2a00      	cmp	r2, #0
10001f76:	d031      	beq.n	10001fdc <_ntoa_format+0xfa>
10001f78:	222d      	movs	r2, #45	; 0x2d
10001f7a:	552a      	strb	r2, [r5, r4]
10001f7c:	3401      	adds	r4, #1
10001f7e:	9603      	str	r6, [sp, #12]
10001f80:	9302      	str	r3, [sp, #8]
10001f82:	9401      	str	r4, [sp, #4]
10001f84:	9500      	str	r5, [sp, #0]
10001f86:	4643      	mov	r3, r8
10001f88:	4662      	mov	r2, ip
10001f8a:	f7ff ff53 	bl	10001e34 <_out_rev>
10001f8e:	b005      	add	sp, #20
10001f90:	bcc0      	pop	{r6, r7}
10001f92:	46b9      	mov	r9, r7
10001f94:	46b0      	mov	r8, r6
10001f96:	bdf0      	pop	{r4, r5, r6, r7, pc}
10001f98:	1e62      	subs	r2, r4, #1
10001f9a:	2c01      	cmp	r4, #1
10001f9c:	d006      	beq.n	10001fac <_ntoa_format+0xca>
10001f9e:	9f0f      	ldr	r7, [sp, #60]	; 0x3c
10001fa0:	2f10      	cmp	r7, #16
10001fa2:	d001      	beq.n	10001fa8 <_ntoa_format+0xc6>
10001fa4:	0014      	movs	r4, r2
10001fa6:	e7d4      	b.n	10001f52 <_ntoa_format+0x70>
10001fa8:	3c02      	subs	r4, #2
10001faa:	e7d2      	b.n	10001f52 <_ntoa_format+0x70>
10001fac:	0014      	movs	r4, r2
10001fae:	e7d0      	b.n	10001f52 <_ntoa_format+0x70>
10001fb0:	06b2      	lsls	r2, r6, #26
10001fb2:	d4d1      	bmi.n	10001f58 <_ntoa_format+0x76>
10001fb4:	2c1f      	cmp	r4, #31
10001fb6:	d8cf      	bhi.n	10001f58 <_ntoa_format+0x76>
10001fb8:	2278      	movs	r2, #120	; 0x78
10001fba:	552a      	strb	r2, [r5, r4]
10001fbc:	3401      	adds	r4, #1
10001fbe:	e7d1      	b.n	10001f64 <_ntoa_format+0x82>
10001fc0:	06b2      	lsls	r2, r6, #26
10001fc2:	d5cc      	bpl.n	10001f5e <_ntoa_format+0x7c>
10001fc4:	2c1f      	cmp	r4, #31
10001fc6:	d8ca      	bhi.n	10001f5e <_ntoa_format+0x7c>
10001fc8:	2258      	movs	r2, #88	; 0x58
10001fca:	552a      	strb	r2, [r5, r4]
10001fcc:	3401      	adds	r4, #1
10001fce:	e7c9      	b.n	10001f64 <_ntoa_format+0x82>
10001fd0:	2c1f      	cmp	r4, #31
10001fd2:	d8c7      	bhi.n	10001f64 <_ntoa_format+0x82>
10001fd4:	3260      	adds	r2, #96	; 0x60
10001fd6:	552a      	strb	r2, [r5, r4]
10001fd8:	3401      	adds	r4, #1
10001fda:	e7c3      	b.n	10001f64 <_ntoa_format+0x82>
10001fdc:	0772      	lsls	r2, r6, #29
10001fde:	d503      	bpl.n	10001fe8 <_ntoa_format+0x106>
10001fe0:	222b      	movs	r2, #43	; 0x2b
10001fe2:	552a      	strb	r2, [r5, r4]
10001fe4:	3401      	adds	r4, #1
10001fe6:	e7ca      	b.n	10001f7e <_ntoa_format+0x9c>
10001fe8:	0732      	lsls	r2, r6, #28
10001fea:	d5c8      	bpl.n	10001f7e <_ntoa_format+0x9c>
10001fec:	2220      	movs	r2, #32
10001fee:	552a      	strb	r2, [r5, r4]
10001ff0:	3401      	adds	r4, #1
10001ff2:	e7c4      	b.n	10001f7e <_ntoa_format+0x9c>

10001ff4 <_ntoa_long>:
10001ff4:	b5f0      	push	{r4, r5, r6, r7, lr}
10001ff6:	46de      	mov	lr, fp
10001ff8:	4657      	mov	r7, sl
10001ffa:	464e      	mov	r6, r9
10001ffc:	4645      	mov	r5, r8
10001ffe:	b5e0      	push	{r5, r6, r7, lr}
10002000:	b093      	sub	sp, #76	; 0x4c
10002002:	4681      	mov	r9, r0
10002004:	468a      	mov	sl, r1
10002006:	9208      	str	r2, [sp, #32]
10002008:	9309      	str	r3, [sp, #36]	; 0x24
1000200a:	ab1c      	add	r3, sp, #112	; 0x70
1000200c:	cb10      	ldmia	r3!, {r4}
1000200e:	781b      	ldrb	r3, [r3, #0]
10002010:	469b      	mov	fp, r3
10002012:	9d1e      	ldr	r5, [sp, #120]	; 0x78
10002014:	9b21      	ldr	r3, [sp, #132]	; 0x84
10002016:	4698      	mov	r8, r3
10002018:	2c00      	cmp	r4, #0
1000201a:	d103      	bne.n	10002024 <_ntoa_long+0x30>
1000201c:	2310      	movs	r3, #16
1000201e:	4642      	mov	r2, r8
10002020:	439a      	bics	r2, r3
10002022:	4690      	mov	r8, r2
10002024:	2380      	movs	r3, #128	; 0x80
10002026:	00db      	lsls	r3, r3, #3
10002028:	4646      	mov	r6, r8
1000202a:	401e      	ands	r6, r3
1000202c:	4642      	mov	r2, r8
1000202e:	421a      	tst	r2, r3
10002030:	d012      	beq.n	10002058 <_ntoa_long+0x64>
10002032:	2c00      	cmp	r4, #0
10002034:	d022      	beq.n	1000207c <_ntoa_long+0x88>
10002036:	2600      	movs	r6, #0
10002038:	e00e      	b.n	10002058 <_ntoa_long+0x64>
1000203a:	3330      	adds	r3, #48	; 0x30
1000203c:	b2d9      	uxtb	r1, r3
1000203e:	1c77      	adds	r7, r6, #1
10002040:	ab0a      	add	r3, sp, #40	; 0x28
10002042:	5599      	strb	r1, [r3, r6]
10002044:	0029      	movs	r1, r5
10002046:	0020      	movs	r0, r4
10002048:	f000 ffd6 	bl	10002ff8 <__wrap___aeabi_uidiv>
1000204c:	42ac      	cmp	r4, r5
1000204e:	d316      	bcc.n	1000207e <_ntoa_long+0x8a>
10002050:	2f1f      	cmp	r7, #31
10002052:	d814      	bhi.n	1000207e <_ntoa_long+0x8a>
10002054:	003e      	movs	r6, r7
10002056:	0004      	movs	r4, r0
10002058:	0029      	movs	r1, r5
1000205a:	0020      	movs	r0, r4
1000205c:	f000 ffcc 	bl	10002ff8 <__wrap___aeabi_uidiv>
10002060:	b2cb      	uxtb	r3, r1
10002062:	2b09      	cmp	r3, #9
10002064:	d9e9      	bls.n	1000203a <_ntoa_long+0x46>
10002066:	4642      	mov	r2, r8
10002068:	0692      	lsls	r2, r2, #26
1000206a:	d505      	bpl.n	10002078 <_ntoa_long+0x84>
1000206c:	2141      	movs	r1, #65	; 0x41
1000206e:	18c9      	adds	r1, r1, r3
10002070:	b2c9      	uxtb	r1, r1
10002072:	390a      	subs	r1, #10
10002074:	b2c9      	uxtb	r1, r1
10002076:	e7e2      	b.n	1000203e <_ntoa_long+0x4a>
10002078:	2161      	movs	r1, #97	; 0x61
1000207a:	e7f8      	b.n	1000206e <_ntoa_long+0x7a>
1000207c:	0027      	movs	r7, r4
1000207e:	4643      	mov	r3, r8
10002080:	9306      	str	r3, [sp, #24]
10002082:	9b20      	ldr	r3, [sp, #128]	; 0x80
10002084:	9305      	str	r3, [sp, #20]
10002086:	9b1f      	ldr	r3, [sp, #124]	; 0x7c
10002088:	9304      	str	r3, [sp, #16]
1000208a:	9503      	str	r5, [sp, #12]
1000208c:	465b      	mov	r3, fp
1000208e:	9302      	str	r3, [sp, #8]
10002090:	9701      	str	r7, [sp, #4]
10002092:	ab0a      	add	r3, sp, #40	; 0x28
10002094:	9300      	str	r3, [sp, #0]
10002096:	9b09      	ldr	r3, [sp, #36]	; 0x24
10002098:	9a08      	ldr	r2, [sp, #32]
1000209a:	4651      	mov	r1, sl
1000209c:	4648      	mov	r0, r9
1000209e:	f7ff ff20 	bl	10001ee2 <_ntoa_format>
100020a2:	b013      	add	sp, #76	; 0x4c
100020a4:	bcf0      	pop	{r4, r5, r6, r7}
100020a6:	46bb      	mov	fp, r7
100020a8:	46b2      	mov	sl, r6
100020aa:	46a9      	mov	r9, r5
100020ac:	46a0      	mov	r8, r4
100020ae:	bdf0      	pop	{r4, r5, r6, r7, pc}

100020b0 <_ntoa_long_long>:
100020b0:	b5f0      	push	{r4, r5, r6, r7, lr}
100020b2:	46de      	mov	lr, fp
100020b4:	4657      	mov	r7, sl
100020b6:	464e      	mov	r6, r9
100020b8:	4645      	mov	r5, r8
100020ba:	b5e0      	push	{r5, r6, r7, lr}
100020bc:	b095      	sub	sp, #84	; 0x54
100020be:	9008      	str	r0, [sp, #32]
100020c0:	9109      	str	r1, [sp, #36]	; 0x24
100020c2:	920a      	str	r2, [sp, #40]	; 0x28
100020c4:	930b      	str	r3, [sp, #44]	; 0x2c
100020c6:	9e1e      	ldr	r6, [sp, #120]	; 0x78
100020c8:	9c1f      	ldr	r4, [sp, #124]	; 0x7c
100020ca:	ab20      	add	r3, sp, #128	; 0x80
100020cc:	781b      	ldrb	r3, [r3, #0]
100020ce:	469b      	mov	fp, r3
100020d0:	9b22      	ldr	r3, [sp, #136]	; 0x88
100020d2:	4699      	mov	r9, r3
100020d4:	9d23      	ldr	r5, [sp, #140]	; 0x8c
100020d6:	9b26      	ldr	r3, [sp, #152]	; 0x98
100020d8:	469a      	mov	sl, r3
100020da:	0033      	movs	r3, r6
100020dc:	4323      	orrs	r3, r4
100020de:	d103      	bne.n	100020e8 <_ntoa_long_long+0x38>
100020e0:	3310      	adds	r3, #16
100020e2:	4652      	mov	r2, sl
100020e4:	439a      	bics	r2, r3
100020e6:	4692      	mov	sl, r2
100020e8:	2380      	movs	r3, #128	; 0x80
100020ea:	00db      	lsls	r3, r3, #3
100020ec:	4657      	mov	r7, sl
100020ee:	401f      	ands	r7, r3
100020f0:	4652      	mov	r2, sl
100020f2:	421a      	tst	r2, r3
100020f4:	d019      	beq.n	1000212a <_ntoa_long_long+0x7a>
100020f6:	0033      	movs	r3, r6
100020f8:	4323      	orrs	r3, r4
100020fa:	d02d      	beq.n	10002158 <_ntoa_long_long+0xa8>
100020fc:	2700      	movs	r7, #0
100020fe:	e014      	b.n	1000212a <_ntoa_long_long+0x7a>
10002100:	3330      	adds	r3, #48	; 0x30
10002102:	b2da      	uxtb	r2, r3
10002104:	1c7b      	adds	r3, r7, #1
10002106:	4698      	mov	r8, r3
10002108:	ab0c      	add	r3, sp, #48	; 0x30
1000210a:	55da      	strb	r2, [r3, r7]
1000210c:	464a      	mov	r2, r9
1000210e:	002b      	movs	r3, r5
10002110:	0030      	movs	r0, r6
10002112:	0021      	movs	r1, r4
10002114:	f000 ffb2 	bl	1000307c <__wrap___aeabi_uldivmod>
10002118:	42a5      	cmp	r5, r4
1000211a:	d81f      	bhi.n	1000215c <_ntoa_long_long+0xac>
1000211c:	d019      	beq.n	10002152 <_ntoa_long_long+0xa2>
1000211e:	4643      	mov	r3, r8
10002120:	2b1f      	cmp	r3, #31
10002122:	d81b      	bhi.n	1000215c <_ntoa_long_long+0xac>
10002124:	4647      	mov	r7, r8
10002126:	0006      	movs	r6, r0
10002128:	000c      	movs	r4, r1
1000212a:	464a      	mov	r2, r9
1000212c:	002b      	movs	r3, r5
1000212e:	0030      	movs	r0, r6
10002130:	0021      	movs	r1, r4
10002132:	f000 ffa3 	bl	1000307c <__wrap___aeabi_uldivmod>
10002136:	b2d3      	uxtb	r3, r2
10002138:	2b09      	cmp	r3, #9
1000213a:	d9e1      	bls.n	10002100 <_ntoa_long_long+0x50>
1000213c:	4652      	mov	r2, sl
1000213e:	0692      	lsls	r2, r2, #26
10002140:	d505      	bpl.n	1000214e <_ntoa_long_long+0x9e>
10002142:	2241      	movs	r2, #65	; 0x41
10002144:	18d2      	adds	r2, r2, r3
10002146:	b2d2      	uxtb	r2, r2
10002148:	3a0a      	subs	r2, #10
1000214a:	b2d2      	uxtb	r2, r2
1000214c:	e7da      	b.n	10002104 <_ntoa_long_long+0x54>
1000214e:	2261      	movs	r2, #97	; 0x61
10002150:	e7f8      	b.n	10002144 <_ntoa_long_long+0x94>
10002152:	45b1      	cmp	r9, r6
10002154:	d9e3      	bls.n	1000211e <_ntoa_long_long+0x6e>
10002156:	e001      	b.n	1000215c <_ntoa_long_long+0xac>
10002158:	2300      	movs	r3, #0
1000215a:	4698      	mov	r8, r3
1000215c:	4653      	mov	r3, sl
1000215e:	9306      	str	r3, [sp, #24]
10002160:	9b25      	ldr	r3, [sp, #148]	; 0x94
10002162:	9305      	str	r3, [sp, #20]
10002164:	9b24      	ldr	r3, [sp, #144]	; 0x90
10002166:	9304      	str	r3, [sp, #16]
10002168:	464b      	mov	r3, r9
1000216a:	9303      	str	r3, [sp, #12]
1000216c:	465b      	mov	r3, fp
1000216e:	9302      	str	r3, [sp, #8]
10002170:	4643      	mov	r3, r8
10002172:	9301      	str	r3, [sp, #4]
10002174:	ab0c      	add	r3, sp, #48	; 0x30
10002176:	9300      	str	r3, [sp, #0]
10002178:	9b0b      	ldr	r3, [sp, #44]	; 0x2c
1000217a:	9a0a      	ldr	r2, [sp, #40]	; 0x28
1000217c:	9909      	ldr	r1, [sp, #36]	; 0x24
1000217e:	9808      	ldr	r0, [sp, #32]
10002180:	f7ff feaf 	bl	10001ee2 <_ntoa_format>
10002184:	b015      	add	sp, #84	; 0x54
10002186:	bcf0      	pop	{r4, r5, r6, r7}
10002188:	46bb      	mov	fp, r7
1000218a:	46b2      	mov	sl, r6
1000218c:	46a9      	mov	r9, r5
1000218e:	46a0      	mov	r8, r4
10002190:	bdf0      	pop	{r4, r5, r6, r7, pc}
	...

10002194 <_etoa>:
10002194:	b5f0      	push	{r4, r5, r6, r7, lr}
10002196:	46de      	mov	lr, fp
10002198:	4657      	mov	r7, sl
1000219a:	464e      	mov	r6, r9
1000219c:	4645      	mov	r5, r8
1000219e:	b5e0      	push	{r5, r6, r7, lr}
100021a0:	b091      	sub	sp, #68	; 0x44
100021a2:	4683      	mov	fp, r0
100021a4:	468a      	mov	sl, r1
100021a6:	920c      	str	r2, [sp, #48]	; 0x30
100021a8:	4698      	mov	r8, r3
100021aa:	9c1a      	ldr	r4, [sp, #104]	; 0x68
100021ac:	9408      	str	r4, [sp, #32]
100021ae:	9d1b      	ldr	r5, [sp, #108]	; 0x6c
100021b0:	9509      	str	r5, [sp, #36]	; 0x24
100021b2:	0022      	movs	r2, r4
100021b4:	002b      	movs	r3, r5
100021b6:	0020      	movs	r0, r4
100021b8:	0029      	movs	r1, r5
100021ba:	f001 f9ee 	bl	1000359a <__wrap___aeabi_dcmpun>
100021be:	2800      	cmp	r0, #0
100021c0:	d000      	beq.n	100021c4 <_etoa+0x30>
100021c2:	e0e5      	b.n	10002390 <_etoa+0x1fc>
100021c4:	2201      	movs	r2, #1
100021c6:	4252      	negs	r2, r2
100021c8:	4bd7      	ldr	r3, [pc, #860]	; (10002528 <_etoa+0x394>)
100021ca:	0020      	movs	r0, r4
100021cc:	0029      	movs	r1, r5
100021ce:	f001 f9df 	bl	10003590 <__wrap___aeabi_dcmpgt>
100021d2:	2800      	cmp	r0, #0
100021d4:	d000      	beq.n	100021d8 <_etoa+0x44>
100021d6:	e0db      	b.n	10002390 <_etoa+0x1fc>
100021d8:	2201      	movs	r2, #1
100021da:	4252      	negs	r2, r2
100021dc:	4bd3      	ldr	r3, [pc, #844]	; (1000252c <_etoa+0x398>)
100021de:	0020      	movs	r0, r4
100021e0:	0029      	movs	r1, r5
100021e2:	f001 f9bf 	bl	10003564 <__wrap___aeabi_dcmplt>
100021e6:	2800      	cmp	r0, #0
100021e8:	d000      	beq.n	100021ec <_etoa+0x58>
100021ea:	e0d1      	b.n	10002390 <_etoa+0x1fc>
100021ec:	2200      	movs	r2, #0
100021ee:	2300      	movs	r3, #0
100021f0:	9e08      	ldr	r6, [sp, #32]
100021f2:	0030      	movs	r0, r6
100021f4:	9d09      	ldr	r5, [sp, #36]	; 0x24
100021f6:	0029      	movs	r1, r5
100021f8:	f001 f9b4 	bl	10003564 <__wrap___aeabi_dcmplt>
100021fc:	2800      	cmp	r0, #0
100021fe:	d000      	beq.n	10002202 <_etoa+0x6e>
10002200:	e0dd      	b.n	100023be <_etoa+0x22a>
10002202:	9808      	ldr	r0, [sp, #32]
10002204:	9909      	ldr	r1, [sp, #36]	; 0x24
10002206:	9006      	str	r0, [sp, #24]
10002208:	9107      	str	r1, [sp, #28]
1000220a:	2380      	movs	r3, #128	; 0x80
1000220c:	00db      	lsls	r3, r3, #3
1000220e:	9a1e      	ldr	r2, [sp, #120]	; 0x78
10002210:	401a      	ands	r2, r3
10002212:	920d      	str	r2, [sp, #52]	; 0x34
10002214:	9a1e      	ldr	r2, [sp, #120]	; 0x78
10002216:	421a      	tst	r2, r3
10002218:	d101      	bne.n	1000221e <_etoa+0x8a>
1000221a:	2306      	movs	r3, #6
1000221c:	931c      	str	r3, [sp, #112]	; 0x70
1000221e:	9806      	ldr	r0, [sp, #24]
10002220:	9907      	ldr	r1, [sp, #28]
10002222:	0004      	movs	r4, r0
10002224:	000d      	movs	r5, r1
10002226:	000a      	movs	r2, r1
10002228:	0006      	movs	r6, r0
1000222a:	4302      	orrs	r2, r0
1000222c:	d100      	bne.n	10002230 <_etoa+0x9c>
1000222e:	e0d1      	b.n	100023d4 <_etoa+0x240>
10002230:	0d08      	lsrs	r0, r1, #20
10002232:	0540      	lsls	r0, r0, #21
10002234:	0d40      	lsrs	r0, r0, #21
10002236:	4cbe      	ldr	r4, [pc, #760]	; (10002530 <_etoa+0x39c>)
10002238:	46a4      	mov	ip, r4
1000223a:	4460      	add	r0, ip
1000223c:	030a      	lsls	r2, r1, #12
1000223e:	0b12      	lsrs	r2, r2, #12
10002240:	4bbc      	ldr	r3, [pc, #752]	; (10002534 <_etoa+0x3a0>)
10002242:	4313      	orrs	r3, r2
10002244:	001f      	movs	r7, r3
10002246:	f001 f9bb 	bl	100035c0 <__wrap___aeabi_i2d>
1000224a:	4abb      	ldr	r2, [pc, #748]	; (10002538 <_etoa+0x3a4>)
1000224c:	4bbb      	ldr	r3, [pc, #748]	; (1000253c <_etoa+0x3a8>)
1000224e:	f001 f946 	bl	100034de <__wrap___aeabi_dmul>
10002252:	4abb      	ldr	r2, [pc, #748]	; (10002540 <_etoa+0x3ac>)
10002254:	4bbb      	ldr	r3, [pc, #748]	; (10002544 <_etoa+0x3b0>)
10002256:	f001 f91b 	bl	10003490 <__wrap___aeabi_dadd>
1000225a:	0004      	movs	r4, r0
1000225c:	000d      	movs	r5, r1
1000225e:	2200      	movs	r2, #0
10002260:	4bb9      	ldr	r3, [pc, #740]	; (10002548 <_etoa+0x3b4>)
10002262:	0030      	movs	r0, r6
10002264:	0039      	movs	r1, r7
10002266:	f001 f90a 	bl	1000347e <__wrap___aeabi_dsub>
1000226a:	4ab8      	ldr	r2, [pc, #736]	; (1000254c <_etoa+0x3b8>)
1000226c:	4bb8      	ldr	r3, [pc, #736]	; (10002550 <_etoa+0x3bc>)
1000226e:	f001 f936 	bl	100034de <__wrap___aeabi_dmul>
10002272:	0002      	movs	r2, r0
10002274:	000b      	movs	r3, r1
10002276:	0020      	movs	r0, r4
10002278:	0029      	movs	r1, r5
1000227a:	f001 f909 	bl	10003490 <__wrap___aeabi_dadd>
1000227e:	f001 f9b7 	bl	100035f0 <__wrap___aeabi_d2iz>
10002282:	4681      	mov	r9, r0
10002284:	f001 f99c 	bl	100035c0 <__wrap___aeabi_i2d>
10002288:	0004      	movs	r4, r0
1000228a:	000d      	movs	r5, r1
1000228c:	4ab1      	ldr	r2, [pc, #708]	; (10002554 <_etoa+0x3c0>)
1000228e:	4bb2      	ldr	r3, [pc, #712]	; (10002558 <_etoa+0x3c4>)
10002290:	f001 f925 	bl	100034de <__wrap___aeabi_dmul>
10002294:	2200      	movs	r2, #0
10002296:	4bb1      	ldr	r3, [pc, #708]	; (1000255c <_etoa+0x3c8>)
10002298:	f001 f8fa 	bl	10003490 <__wrap___aeabi_dadd>
1000229c:	f001 f9a8 	bl	100035f0 <__wrap___aeabi_d2iz>
100022a0:	0006      	movs	r6, r0
100022a2:	4aaf      	ldr	r2, [pc, #700]	; (10002560 <_etoa+0x3cc>)
100022a4:	4baf      	ldr	r3, [pc, #700]	; (10002564 <_etoa+0x3d0>)
100022a6:	0020      	movs	r0, r4
100022a8:	0029      	movs	r1, r5
100022aa:	f001 f918 	bl	100034de <__wrap___aeabi_dmul>
100022ae:	0004      	movs	r4, r0
100022b0:	000d      	movs	r5, r1
100022b2:	0030      	movs	r0, r6
100022b4:	f001 f984 	bl	100035c0 <__wrap___aeabi_i2d>
100022b8:	4aab      	ldr	r2, [pc, #684]	; (10002568 <_etoa+0x3d4>)
100022ba:	4bac      	ldr	r3, [pc, #688]	; (1000256c <_etoa+0x3d8>)
100022bc:	f001 f90f 	bl	100034de <__wrap___aeabi_dmul>
100022c0:	0002      	movs	r2, r0
100022c2:	000b      	movs	r3, r1
100022c4:	0020      	movs	r0, r4
100022c6:	0029      	movs	r1, r5
100022c8:	f001 f8d9 	bl	1000347e <__wrap___aeabi_dsub>
100022cc:	0004      	movs	r4, r0
100022ce:	000d      	movs	r5, r1
100022d0:	0002      	movs	r2, r0
100022d2:	000b      	movs	r3, r1
100022d4:	f001 f903 	bl	100034de <__wrap___aeabi_dmul>
100022d8:	900a      	str	r0, [sp, #40]	; 0x28
100022da:	910b      	str	r1, [sp, #44]	; 0x2c
100022dc:	4ba4      	ldr	r3, [pc, #656]	; (10002570 <_etoa+0x3dc>)
100022de:	18f3      	adds	r3, r6, r3
100022e0:	2600      	movs	r6, #0
100022e2:	051f      	lsls	r7, r3, #20
100022e4:	0022      	movs	r2, r4
100022e6:	002b      	movs	r3, r5
100022e8:	0020      	movs	r0, r4
100022ea:	0029      	movs	r1, r5
100022ec:	f001 f8d0 	bl	10003490 <__wrap___aeabi_dadd>
100022f0:	900e      	str	r0, [sp, #56]	; 0x38
100022f2:	910f      	str	r1, [sp, #60]	; 0x3c
100022f4:	0022      	movs	r2, r4
100022f6:	002b      	movs	r3, r5
100022f8:	2000      	movs	r0, #0
100022fa:	2180      	movs	r1, #128	; 0x80
100022fc:	05c9      	lsls	r1, r1, #23
100022fe:	f001 f8be 	bl	1000347e <__wrap___aeabi_dsub>
10002302:	0004      	movs	r4, r0
10002304:	000d      	movs	r5, r1
10002306:	2200      	movs	r2, #0
10002308:	4b9a      	ldr	r3, [pc, #616]	; (10002574 <_etoa+0x3e0>)
1000230a:	980a      	ldr	r0, [sp, #40]	; 0x28
1000230c:	990b      	ldr	r1, [sp, #44]	; 0x2c
1000230e:	f001 f8c8 	bl	100034a2 <__wrap___aeabi_ddiv>
10002312:	2200      	movs	r2, #0
10002314:	4b98      	ldr	r3, [pc, #608]	; (10002578 <_etoa+0x3e4>)
10002316:	f001 f8bb 	bl	10003490 <__wrap___aeabi_dadd>
1000231a:	0002      	movs	r2, r0
1000231c:	000b      	movs	r3, r1
1000231e:	980a      	ldr	r0, [sp, #40]	; 0x28
10002320:	990b      	ldr	r1, [sp, #44]	; 0x2c
10002322:	f001 f8be 	bl	100034a2 <__wrap___aeabi_ddiv>
10002326:	2200      	movs	r2, #0
10002328:	4b94      	ldr	r3, [pc, #592]	; (1000257c <_etoa+0x3e8>)
1000232a:	f001 f8b1 	bl	10003490 <__wrap___aeabi_dadd>
1000232e:	0002      	movs	r2, r0
10002330:	000b      	movs	r3, r1
10002332:	980a      	ldr	r0, [sp, #40]	; 0x28
10002334:	990b      	ldr	r1, [sp, #44]	; 0x2c
10002336:	f001 f8b4 	bl	100034a2 <__wrap___aeabi_ddiv>
1000233a:	0002      	movs	r2, r0
1000233c:	000b      	movs	r3, r1
1000233e:	0020      	movs	r0, r4
10002340:	0029      	movs	r1, r5
10002342:	f001 f8a5 	bl	10003490 <__wrap___aeabi_dadd>
10002346:	0002      	movs	r2, r0
10002348:	000b      	movs	r3, r1
1000234a:	980e      	ldr	r0, [sp, #56]	; 0x38
1000234c:	990f      	ldr	r1, [sp, #60]	; 0x3c
1000234e:	f001 f8a8 	bl	100034a2 <__wrap___aeabi_ddiv>
10002352:	2200      	movs	r2, #0
10002354:	4b77      	ldr	r3, [pc, #476]	; (10002534 <_etoa+0x3a0>)
10002356:	f001 f89b 	bl	10003490 <__wrap___aeabi_dadd>
1000235a:	0032      	movs	r2, r6
1000235c:	003b      	movs	r3, r7
1000235e:	f001 f8be 	bl	100034de <__wrap___aeabi_dmul>
10002362:	0006      	movs	r6, r0
10002364:	000f      	movs	r7, r1
10002366:	0004      	movs	r4, r0
10002368:	000d      	movs	r5, r1
1000236a:	9a06      	ldr	r2, [sp, #24]
1000236c:	9b07      	ldr	r3, [sp, #28]
1000236e:	f001 f90f 	bl	10003590 <__wrap___aeabi_dcmpgt>
10002372:	2800      	cmp	r0, #0
10002374:	d030      	beq.n	100023d8 <_etoa+0x244>
10002376:	2301      	movs	r3, #1
10002378:	425b      	negs	r3, r3
1000237a:	469c      	mov	ip, r3
1000237c:	44e1      	add	r9, ip
1000237e:	2200      	movs	r2, #0
10002380:	4b7d      	ldr	r3, [pc, #500]	; (10002578 <_etoa+0x3e4>)
10002382:	0030      	movs	r0, r6
10002384:	0039      	movs	r1, r7
10002386:	f001 f88c 	bl	100034a2 <__wrap___aeabi_ddiv>
1000238a:	0004      	movs	r4, r0
1000238c:	000d      	movs	r5, r1
1000238e:	e023      	b.n	100023d8 <_etoa+0x244>
10002390:	9b1e      	ldr	r3, [sp, #120]	; 0x78
10002392:	9304      	str	r3, [sp, #16]
10002394:	9b1d      	ldr	r3, [sp, #116]	; 0x74
10002396:	9303      	str	r3, [sp, #12]
10002398:	9b1c      	ldr	r3, [sp, #112]	; 0x70
1000239a:	9302      	str	r3, [sp, #8]
1000239c:	9a08      	ldr	r2, [sp, #32]
1000239e:	9b09      	ldr	r3, [sp, #36]	; 0x24
100023a0:	9200      	str	r2, [sp, #0]
100023a2:	9301      	str	r3, [sp, #4]
100023a4:	4643      	mov	r3, r8
100023a6:	9a0c      	ldr	r2, [sp, #48]	; 0x30
100023a8:	4651      	mov	r1, sl
100023aa:	4658      	mov	r0, fp
100023ac:	f000 f8fc 	bl	100025a8 <_ftoa>
100023b0:	b011      	add	sp, #68	; 0x44
100023b2:	bcf0      	pop	{r4, r5, r6, r7}
100023b4:	46bb      	mov	fp, r7
100023b6:	46b2      	mov	sl, r6
100023b8:	46a9      	mov	r9, r5
100023ba:	46a0      	mov	r8, r4
100023bc:	bdf0      	pop	{r4, r5, r6, r7, pc}
100023be:	2300      	movs	r3, #0
100023c0:	2400      	movs	r4, #0
100023c2:	9306      	str	r3, [sp, #24]
100023c4:	9407      	str	r4, [sp, #28]
100023c6:	9606      	str	r6, [sp, #24]
100023c8:	2380      	movs	r3, #128	; 0x80
100023ca:	061b      	lsls	r3, r3, #24
100023cc:	469c      	mov	ip, r3
100023ce:	4465      	add	r5, ip
100023d0:	9507      	str	r5, [sp, #28]
100023d2:	e71a      	b.n	1000220a <_etoa+0x76>
100023d4:	2300      	movs	r3, #0
100023d6:	4699      	mov	r9, r3
100023d8:	464b      	mov	r3, r9
100023da:	3363      	adds	r3, #99	; 0x63
100023dc:	2bc6      	cmp	r3, #198	; 0xc6
100023de:	d81e      	bhi.n	1000241e <_etoa+0x28a>
100023e0:	2604      	movs	r6, #4
100023e2:	9b1e      	ldr	r3, [sp, #120]	; 0x78
100023e4:	051b      	lsls	r3, r3, #20
100023e6:	d526      	bpl.n	10002436 <_etoa+0x2a2>
100023e8:	002b      	movs	r3, r5
100023ea:	4323      	orrs	r3, r4
100023ec:	d00f      	beq.n	1000240e <_etoa+0x27a>
100023ee:	4a64      	ldr	r2, [pc, #400]	; (10002580 <_etoa+0x3ec>)
100023f0:	4b64      	ldr	r3, [pc, #400]	; (10002584 <_etoa+0x3f0>)
100023f2:	9806      	ldr	r0, [sp, #24]
100023f4:	9907      	ldr	r1, [sp, #28]
100023f6:	f001 f8c3 	bl	10003580 <__wrap___aeabi_dcmpge>
100023fa:	2800      	cmp	r0, #0
100023fc:	d079      	beq.n	100024f2 <_etoa+0x35e>
100023fe:	2200      	movs	r2, #0
10002400:	4b61      	ldr	r3, [pc, #388]	; (10002588 <_etoa+0x3f4>)
10002402:	9806      	ldr	r0, [sp, #24]
10002404:	9907      	ldr	r1, [sp, #28]
10002406:	f001 f8ad 	bl	10003564 <__wrap___aeabi_dcmplt>
1000240a:	2800      	cmp	r0, #0
1000240c:	d071      	beq.n	100024f2 <_etoa+0x35e>
1000240e:	9b1c      	ldr	r3, [sp, #112]	; 0x70
10002410:	454b      	cmp	r3, r9
10002412:	dd06      	ble.n	10002422 <_etoa+0x28e>
10002414:	464a      	mov	r2, r9
10002416:	1a98      	subs	r0, r3, r2
10002418:	1e43      	subs	r3, r0, #1
1000241a:	931c      	str	r3, [sp, #112]	; 0x70
1000241c:	e003      	b.n	10002426 <_etoa+0x292>
1000241e:	2605      	movs	r6, #5
10002420:	e7df      	b.n	100023e2 <_etoa+0x24e>
10002422:	2300      	movs	r3, #0
10002424:	931c      	str	r3, [sp, #112]	; 0x70
10002426:	2380      	movs	r3, #128	; 0x80
10002428:	00db      	lsls	r3, r3, #3
1000242a:	9a1e      	ldr	r2, [sp, #120]	; 0x78
1000242c:	431a      	orrs	r2, r3
1000242e:	921e      	str	r2, [sp, #120]	; 0x78
10002430:	2600      	movs	r6, #0
10002432:	2300      	movs	r3, #0
10002434:	4699      	mov	r9, r3
10002436:	9b1d      	ldr	r3, [sp, #116]	; 0x74
10002438:	429e      	cmp	r6, r3
1000243a:	d264      	bcs.n	10002506 <_etoa+0x372>
1000243c:	1b9f      	subs	r7, r3, r6
1000243e:	2302      	movs	r3, #2
10002440:	9a1e      	ldr	r2, [sp, #120]	; 0x78
10002442:	401a      	ands	r2, r3
10002444:	920a      	str	r2, [sp, #40]	; 0x28
10002446:	9a1e      	ldr	r2, [sp, #120]	; 0x78
10002448:	4213      	tst	r3, r2
1000244a:	d002      	beq.n	10002452 <_etoa+0x2be>
1000244c:	2e00      	cmp	r6, #0
1000244e:	d000      	beq.n	10002452 <_etoa+0x2be>
10002450:	2700      	movs	r7, #0
10002452:	464b      	mov	r3, r9
10002454:	2b00      	cmp	r3, #0
10002456:	d007      	beq.n	10002468 <_etoa+0x2d4>
10002458:	0022      	movs	r2, r4
1000245a:	002b      	movs	r3, r5
1000245c:	9806      	ldr	r0, [sp, #24]
1000245e:	9907      	ldr	r1, [sp, #28]
10002460:	f001 f81f 	bl	100034a2 <__wrap___aeabi_ddiv>
10002464:	9006      	str	r0, [sp, #24]
10002466:	9107      	str	r1, [sp, #28]
10002468:	2200      	movs	r2, #0
1000246a:	2300      	movs	r3, #0
1000246c:	9808      	ldr	r0, [sp, #32]
1000246e:	9909      	ldr	r1, [sp, #36]	; 0x24
10002470:	f001 f878 	bl	10003564 <__wrap___aeabi_dcmplt>
10002474:	2800      	cmp	r0, #0
10002476:	d148      	bne.n	1000250a <_etoa+0x376>
10002478:	4b44      	ldr	r3, [pc, #272]	; (1000258c <_etoa+0x3f8>)
1000247a:	9a1e      	ldr	r2, [sp, #120]	; 0x78
1000247c:	4013      	ands	r3, r2
1000247e:	9304      	str	r3, [sp, #16]
10002480:	9703      	str	r7, [sp, #12]
10002482:	9b1c      	ldr	r3, [sp, #112]	; 0x70
10002484:	9302      	str	r3, [sp, #8]
10002486:	9b06      	ldr	r3, [sp, #24]
10002488:	9c07      	ldr	r4, [sp, #28]
1000248a:	9300      	str	r3, [sp, #0]
1000248c:	9401      	str	r4, [sp, #4]
1000248e:	4643      	mov	r3, r8
10002490:	9a0c      	ldr	r2, [sp, #48]	; 0x30
10002492:	4651      	mov	r1, sl
10002494:	4658      	mov	r0, fp
10002496:	f000 f887 	bl	100025a8 <_ftoa>
1000249a:	2e00      	cmp	r6, #0
1000249c:	d100      	bne.n	100024a0 <_etoa+0x30c>
1000249e:	e787      	b.n	100023b0 <_etoa+0x21c>
100024a0:	9b1e      	ldr	r3, [sp, #120]	; 0x78
100024a2:	069b      	lsls	r3, r3, #26
100024a4:	d53d      	bpl.n	10002522 <_etoa+0x38e>
100024a6:	2545      	movs	r5, #69	; 0x45
100024a8:	1c44      	adds	r4, r0, #1
100024aa:	4643      	mov	r3, r8
100024ac:	0002      	movs	r2, r0
100024ae:	4651      	mov	r1, sl
100024b0:	0028      	movs	r0, r5
100024b2:	47d8      	blx	fp
100024b4:	464b      	mov	r3, r9
100024b6:	17da      	asrs	r2, r3, #31
100024b8:	189b      	adds	r3, r3, r2
100024ba:	4053      	eors	r3, r2
100024bc:	2205      	movs	r2, #5
100024be:	9205      	str	r2, [sp, #20]
100024c0:	3e01      	subs	r6, #1
100024c2:	9604      	str	r6, [sp, #16]
100024c4:	2200      	movs	r2, #0
100024c6:	9203      	str	r2, [sp, #12]
100024c8:	320a      	adds	r2, #10
100024ca:	9202      	str	r2, [sp, #8]
100024cc:	464a      	mov	r2, r9
100024ce:	0fd0      	lsrs	r0, r2, #31
100024d0:	9001      	str	r0, [sp, #4]
100024d2:	9300      	str	r3, [sp, #0]
100024d4:	4643      	mov	r3, r8
100024d6:	0022      	movs	r2, r4
100024d8:	4651      	mov	r1, sl
100024da:	4658      	mov	r0, fp
100024dc:	f7ff fd8a 	bl	10001ff4 <_ntoa_long>
100024e0:	9b0a      	ldr	r3, [sp, #40]	; 0x28
100024e2:	2b00      	cmp	r3, #0
100024e4:	d100      	bne.n	100024e8 <_etoa+0x354>
100024e6:	e763      	b.n	100023b0 <_etoa+0x21c>
100024e8:	0002      	movs	r2, r0
100024ea:	465f      	mov	r7, fp
100024ec:	9e0c      	ldr	r6, [sp, #48]	; 0x30
100024ee:	9d1d      	ldr	r5, [sp, #116]	; 0x74
100024f0:	e054      	b.n	1000259c <_etoa+0x408>
100024f2:	9b1c      	ldr	r3, [sp, #112]	; 0x70
100024f4:	2b00      	cmp	r3, #0
100024f6:	d09e      	beq.n	10002436 <_etoa+0x2a2>
100024f8:	9b0d      	ldr	r3, [sp, #52]	; 0x34
100024fa:	2b00      	cmp	r3, #0
100024fc:	d09b      	beq.n	10002436 <_etoa+0x2a2>
100024fe:	9b1c      	ldr	r3, [sp, #112]	; 0x70
10002500:	3b01      	subs	r3, #1
10002502:	931c      	str	r3, [sp, #112]	; 0x70
10002504:	e797      	b.n	10002436 <_etoa+0x2a2>
10002506:	2700      	movs	r7, #0
10002508:	e799      	b.n	1000243e <_etoa+0x2aa>
1000250a:	9c06      	ldr	r4, [sp, #24]
1000250c:	9d07      	ldr	r5, [sp, #28]
1000250e:	0022      	movs	r2, r4
10002510:	0029      	movs	r1, r5
10002512:	2080      	movs	r0, #128	; 0x80
10002514:	0600      	lsls	r0, r0, #24
10002516:	4684      	mov	ip, r0
10002518:	4461      	add	r1, ip
1000251a:	000b      	movs	r3, r1
1000251c:	9206      	str	r2, [sp, #24]
1000251e:	9307      	str	r3, [sp, #28]
10002520:	e7aa      	b.n	10002478 <_etoa+0x2e4>
10002522:	2565      	movs	r5, #101	; 0x65
10002524:	e7c0      	b.n	100024a8 <_etoa+0x314>
10002526:	46c0      	nop			; (mov r8, r8)
10002528:	7fefffff 	.word	0x7fefffff
1000252c:	ffefffff 	.word	0xffefffff
10002530:	fffffc01 	.word	0xfffffc01
10002534:	3ff00000 	.word	0x3ff00000
10002538:	509f79fb 	.word	0x509f79fb
1000253c:	3fd34413 	.word	0x3fd34413
10002540:	8b60c8b3 	.word	0x8b60c8b3
10002544:	3fc68a28 	.word	0x3fc68a28
10002548:	3ff80000 	.word	0x3ff80000
1000254c:	636f4361 	.word	0x636f4361
10002550:	3fd287a7 	.word	0x3fd287a7
10002554:	0979a371 	.word	0x0979a371
10002558:	400a934f 	.word	0x400a934f
1000255c:	3fe00000 	.word	0x3fe00000
10002560:	bbb55516 	.word	0xbbb55516
10002564:	40026bb1 	.word	0x40026bb1
10002568:	fefa39ef 	.word	0xfefa39ef
1000256c:	3fe62e42 	.word	0x3fe62e42
10002570:	000003ff 	.word	0x000003ff
10002574:	402c0000 	.word	0x402c0000
10002578:	40240000 	.word	0x40240000
1000257c:	40180000 	.word	0x40180000
10002580:	eb1c432d 	.word	0xeb1c432d
10002584:	3f1a36e2 	.word	0x3f1a36e2
10002588:	412e8480 	.word	0x412e8480
1000258c:	fffff7ff 	.word	0xfffff7ff
10002590:	1c54      	adds	r4, r2, #1
10002592:	4643      	mov	r3, r8
10002594:	4651      	mov	r1, sl
10002596:	2020      	movs	r0, #32
10002598:	47b8      	blx	r7
1000259a:	0022      	movs	r2, r4
1000259c:	1b93      	subs	r3, r2, r6
1000259e:	42ab      	cmp	r3, r5
100025a0:	d3f6      	bcc.n	10002590 <_etoa+0x3fc>
100025a2:	0010      	movs	r0, r2
100025a4:	e704      	b.n	100023b0 <_etoa+0x21c>
100025a6:	46c0      	nop			; (mov r8, r8)

100025a8 <_ftoa>:
100025a8:	b5f0      	push	{r4, r5, r6, r7, lr}
100025aa:	46de      	mov	lr, fp
100025ac:	4657      	mov	r7, sl
100025ae:	464e      	mov	r6, r9
100025b0:	4645      	mov	r5, r8
100025b2:	b5e0      	push	{r5, r6, r7, lr}
100025b4:	b095      	sub	sp, #84	; 0x54
100025b6:	9006      	str	r0, [sp, #24]
100025b8:	9107      	str	r1, [sp, #28]
100025ba:	4693      	mov	fp, r2
100025bc:	4699      	mov	r9, r3
100025be:	9f20      	ldr	r7, [sp, #128]	; 0x80
100025c0:	9a1e      	ldr	r2, [sp, #120]	; 0x78
100025c2:	9b1f      	ldr	r3, [sp, #124]	; 0x7c
100025c4:	0010      	movs	r0, r2
100025c6:	0019      	movs	r1, r3
100025c8:	f000 ffe7 	bl	1000359a <__wrap___aeabi_dcmpun>
100025cc:	2800      	cmp	r0, #0
100025ce:	d131      	bne.n	10002634 <_ftoa+0x8c>
100025d0:	2201      	movs	r2, #1
100025d2:	4252      	negs	r2, r2
100025d4:	4bbf      	ldr	r3, [pc, #764]	; (100028d4 <_ftoa+0x32c>)
100025d6:	981e      	ldr	r0, [sp, #120]	; 0x78
100025d8:	991f      	ldr	r1, [sp, #124]	; 0x7c
100025da:	f000 ffc3 	bl	10003564 <__wrap___aeabi_dcmplt>
100025de:	2800      	cmp	r0, #0
100025e0:	d137      	bne.n	10002652 <_ftoa+0xaa>
100025e2:	2201      	movs	r2, #1
100025e4:	4252      	negs	r2, r2
100025e6:	4bbc      	ldr	r3, [pc, #752]	; (100028d8 <_ftoa+0x330>)
100025e8:	981e      	ldr	r0, [sp, #120]	; 0x78
100025ea:	991f      	ldr	r1, [sp, #124]	; 0x7c
100025ec:	f000 ffd0 	bl	10003590 <__wrap___aeabi_dcmpgt>
100025f0:	2800      	cmp	r0, #0
100025f2:	d13d      	bne.n	10002670 <_ftoa+0xc8>
100025f4:	2200      	movs	r2, #0
100025f6:	4bb9      	ldr	r3, [pc, #740]	; (100028dc <_ftoa+0x334>)
100025f8:	981e      	ldr	r0, [sp, #120]	; 0x78
100025fa:	991f      	ldr	r1, [sp, #124]	; 0x7c
100025fc:	f000 ffc8 	bl	10003590 <__wrap___aeabi_dcmpgt>
10002600:	2800      	cmp	r0, #0
10002602:	d150      	bne.n	100026a6 <_ftoa+0xfe>
10002604:	2200      	movs	r2, #0
10002606:	4bb6      	ldr	r3, [pc, #728]	; (100028e0 <_ftoa+0x338>)
10002608:	981e      	ldr	r0, [sp, #120]	; 0x78
1000260a:	991f      	ldr	r1, [sp, #124]	; 0x7c
1000260c:	f000 ffaa 	bl	10003564 <__wrap___aeabi_dcmplt>
10002610:	2800      	cmp	r0, #0
10002612:	d148      	bne.n	100026a6 <_ftoa+0xfe>
10002614:	2200      	movs	r2, #0
10002616:	2300      	movs	r3, #0
10002618:	981e      	ldr	r0, [sp, #120]	; 0x78
1000261a:	991f      	ldr	r1, [sp, #124]	; 0x7c
1000261c:	f000 ffa2 	bl	10003564 <__wrap___aeabi_dcmplt>
10002620:	2800      	cmp	r0, #0
10002622:	d150      	bne.n	100026c6 <_ftoa+0x11e>
10002624:	2300      	movs	r3, #0
10002626:	4698      	mov	r8, r3
10002628:	9b22      	ldr	r3, [sp, #136]	; 0x88
1000262a:	055b      	lsls	r3, r3, #21
1000262c:	d400      	bmi.n	10002630 <_ftoa+0x88>
1000262e:	e0b6      	b.n	1000279e <_ftoa+0x1f6>
10002630:	2400      	movs	r4, #0
10002632:	e058      	b.n	100026e6 <_ftoa+0x13e>
10002634:	9b22      	ldr	r3, [sp, #136]	; 0x88
10002636:	9303      	str	r3, [sp, #12]
10002638:	9b21      	ldr	r3, [sp, #132]	; 0x84
1000263a:	9302      	str	r3, [sp, #8]
1000263c:	2303      	movs	r3, #3
1000263e:	9301      	str	r3, [sp, #4]
10002640:	4ba8      	ldr	r3, [pc, #672]	; (100028e4 <_ftoa+0x33c>)
10002642:	9300      	str	r3, [sp, #0]
10002644:	464b      	mov	r3, r9
10002646:	465a      	mov	r2, fp
10002648:	9907      	ldr	r1, [sp, #28]
1000264a:	9806      	ldr	r0, [sp, #24]
1000264c:	f7ff fbf2 	bl	10001e34 <_out_rev>
10002650:	e10e      	b.n	10002870 <_ftoa+0x2c8>
10002652:	9b22      	ldr	r3, [sp, #136]	; 0x88
10002654:	9303      	str	r3, [sp, #12]
10002656:	9b21      	ldr	r3, [sp, #132]	; 0x84
10002658:	9302      	str	r3, [sp, #8]
1000265a:	2304      	movs	r3, #4
1000265c:	9301      	str	r3, [sp, #4]
1000265e:	4ba2      	ldr	r3, [pc, #648]	; (100028e8 <_ftoa+0x340>)
10002660:	9300      	str	r3, [sp, #0]
10002662:	464b      	mov	r3, r9
10002664:	465a      	mov	r2, fp
10002666:	9907      	ldr	r1, [sp, #28]
10002668:	9806      	ldr	r0, [sp, #24]
1000266a:	f7ff fbe3 	bl	10001e34 <_out_rev>
1000266e:	e0ff      	b.n	10002870 <_ftoa+0x2c8>
10002670:	2304      	movs	r3, #4
10002672:	9a22      	ldr	r2, [sp, #136]	; 0x88
10002674:	401a      	ands	r2, r3
10002676:	9922      	ldr	r1, [sp, #136]	; 0x88
10002678:	420b      	tst	r3, r1
1000267a:	d010      	beq.n	1000269e <_ftoa+0xf6>
1000267c:	4b9b      	ldr	r3, [pc, #620]	; (100028ec <_ftoa+0x344>)
1000267e:	2a00      	cmp	r2, #0
10002680:	d00f      	beq.n	100026a2 <_ftoa+0xfa>
10002682:	2204      	movs	r2, #4
10002684:	9922      	ldr	r1, [sp, #136]	; 0x88
10002686:	9103      	str	r1, [sp, #12]
10002688:	9921      	ldr	r1, [sp, #132]	; 0x84
1000268a:	9102      	str	r1, [sp, #8]
1000268c:	9201      	str	r2, [sp, #4]
1000268e:	9300      	str	r3, [sp, #0]
10002690:	464b      	mov	r3, r9
10002692:	465a      	mov	r2, fp
10002694:	9907      	ldr	r1, [sp, #28]
10002696:	9806      	ldr	r0, [sp, #24]
10002698:	f7ff fbcc 	bl	10001e34 <_out_rev>
1000269c:	e0e8      	b.n	10002870 <_ftoa+0x2c8>
1000269e:	4b94      	ldr	r3, [pc, #592]	; (100028f0 <_ftoa+0x348>)
100026a0:	e7ed      	b.n	1000267e <_ftoa+0xd6>
100026a2:	2203      	movs	r2, #3
100026a4:	e7ee      	b.n	10002684 <_ftoa+0xdc>
100026a6:	9b22      	ldr	r3, [sp, #136]	; 0x88
100026a8:	9304      	str	r3, [sp, #16]
100026aa:	9b21      	ldr	r3, [sp, #132]	; 0x84
100026ac:	9303      	str	r3, [sp, #12]
100026ae:	9702      	str	r7, [sp, #8]
100026b0:	9b1e      	ldr	r3, [sp, #120]	; 0x78
100026b2:	9c1f      	ldr	r4, [sp, #124]	; 0x7c
100026b4:	9300      	str	r3, [sp, #0]
100026b6:	9401      	str	r4, [sp, #4]
100026b8:	464b      	mov	r3, r9
100026ba:	465a      	mov	r2, fp
100026bc:	9907      	ldr	r1, [sp, #28]
100026be:	9806      	ldr	r0, [sp, #24]
100026c0:	f7ff fd68 	bl	10002194 <_etoa>
100026c4:	e0d4      	b.n	10002870 <_ftoa+0x2c8>
100026c6:	9a1e      	ldr	r2, [sp, #120]	; 0x78
100026c8:	9b1f      	ldr	r3, [sp, #124]	; 0x7c
100026ca:	2000      	movs	r0, #0
100026cc:	2100      	movs	r1, #0
100026ce:	f000 fed6 	bl	1000347e <__wrap___aeabi_dsub>
100026d2:	901e      	str	r0, [sp, #120]	; 0x78
100026d4:	911f      	str	r1, [sp, #124]	; 0x7c
100026d6:	2301      	movs	r3, #1
100026d8:	4698      	mov	r8, r3
100026da:	e7a5      	b.n	10002628 <_ftoa+0x80>
100026dc:	ab0c      	add	r3, sp, #48	; 0x30
100026de:	2230      	movs	r2, #48	; 0x30
100026e0:	551a      	strb	r2, [r3, r4]
100026e2:	3f01      	subs	r7, #1
100026e4:	3401      	adds	r4, #1
100026e6:	2c1f      	cmp	r4, #31
100026e8:	d801      	bhi.n	100026ee <_ftoa+0x146>
100026ea:	2f09      	cmp	r7, #9
100026ec:	d8f6      	bhi.n	100026dc <_ftoa+0x134>
100026ee:	981e      	ldr	r0, [sp, #120]	; 0x78
100026f0:	991f      	ldr	r1, [sp, #124]	; 0x7c
100026f2:	f000 ff7d 	bl	100035f0 <__wrap___aeabi_d2iz>
100026f6:	0005      	movs	r5, r0
100026f8:	f000 ff62 	bl	100035c0 <__wrap___aeabi_i2d>
100026fc:	0002      	movs	r2, r0
100026fe:	000b      	movs	r3, r1
10002700:	981e      	ldr	r0, [sp, #120]	; 0x78
10002702:	991f      	ldr	r1, [sp, #124]	; 0x7c
10002704:	f000 febb 	bl	1000347e <__wrap___aeabi_dsub>
10002708:	00fa      	lsls	r2, r7, #3
1000270a:	4b7a      	ldr	r3, [pc, #488]	; (100028f4 <_ftoa+0x34c>)
1000270c:	189b      	adds	r3, r3, r2
1000270e:	681a      	ldr	r2, [r3, #0]
10002710:	685b      	ldr	r3, [r3, #4]
10002712:	920a      	str	r2, [sp, #40]	; 0x28
10002714:	930b      	str	r3, [sp, #44]	; 0x2c
10002716:	f000 fee2 	bl	100034de <__wrap___aeabi_dmul>
1000271a:	9008      	str	r0, [sp, #32]
1000271c:	9109      	str	r1, [sp, #36]	; 0x24
1000271e:	f000 ff8b 	bl	10003638 <__wrap___aeabi_d2uiz>
10002722:	0006      	movs	r6, r0
10002724:	f000 ff48 	bl	100035b8 <__wrap___aeabi_ui2d>
10002728:	0002      	movs	r2, r0
1000272a:	000b      	movs	r3, r1
1000272c:	9808      	ldr	r0, [sp, #32]
1000272e:	9909      	ldr	r1, [sp, #36]	; 0x24
10002730:	f000 fea5 	bl	1000347e <__wrap___aeabi_dsub>
10002734:	9008      	str	r0, [sp, #32]
10002736:	9109      	str	r1, [sp, #36]	; 0x24
10002738:	2200      	movs	r2, #0
1000273a:	4b6f      	ldr	r3, [pc, #444]	; (100028f8 <_ftoa+0x350>)
1000273c:	f000 ff28 	bl	10003590 <__wrap___aeabi_dcmpgt>
10002740:	2800      	cmp	r0, #0
10002742:	d02e      	beq.n	100027a2 <_ftoa+0x1fa>
10002744:	3601      	adds	r6, #1
10002746:	0030      	movs	r0, r6
10002748:	f000 ff36 	bl	100035b8 <__wrap___aeabi_ui2d>
1000274c:	0002      	movs	r2, r0
1000274e:	000b      	movs	r3, r1
10002750:	980a      	ldr	r0, [sp, #40]	; 0x28
10002752:	990b      	ldr	r1, [sp, #44]	; 0x2c
10002754:	f000 ff0c 	bl	10003570 <__wrap___aeabi_dcmple>
10002758:	2800      	cmp	r0, #0
1000275a:	d001      	beq.n	10002760 <_ftoa+0x1b8>
1000275c:	3501      	adds	r5, #1
1000275e:	2600      	movs	r6, #0
10002760:	2f00      	cmp	r7, #0
10002762:	d12c      	bne.n	100027be <_ftoa+0x216>
10002764:	0028      	movs	r0, r5
10002766:	f000 ff2b 	bl	100035c0 <__wrap___aeabi_i2d>
1000276a:	0002      	movs	r2, r0
1000276c:	000b      	movs	r3, r1
1000276e:	981e      	ldr	r0, [sp, #120]	; 0x78
10002770:	991f      	ldr	r1, [sp, #124]	; 0x7c
10002772:	f000 fe84 	bl	1000347e <__wrap___aeabi_dsub>
10002776:	0006      	movs	r6, r0
10002778:	000f      	movs	r7, r1
1000277a:	2200      	movs	r2, #0
1000277c:	4b5e      	ldr	r3, [pc, #376]	; (100028f8 <_ftoa+0x350>)
1000277e:	f000 fef1 	bl	10003564 <__wrap___aeabi_dcmplt>
10002782:	2800      	cmp	r0, #0
10002784:	d146      	bne.n	10002814 <_ftoa+0x26c>
10002786:	2200      	movs	r2, #0
10002788:	4b5b      	ldr	r3, [pc, #364]	; (100028f8 <_ftoa+0x350>)
1000278a:	0030      	movs	r0, r6
1000278c:	0039      	movs	r1, r7
1000278e:	f000 feff 	bl	10003590 <__wrap___aeabi_dcmpgt>
10002792:	2800      	cmp	r0, #0
10002794:	d13e      	bne.n	10002814 <_ftoa+0x26c>
10002796:	07eb      	lsls	r3, r5, #31
10002798:	d53c      	bpl.n	10002814 <_ftoa+0x26c>
1000279a:	3501      	adds	r5, #1
1000279c:	e03a      	b.n	10002814 <_ftoa+0x26c>
1000279e:	2706      	movs	r7, #6
100027a0:	e746      	b.n	10002630 <_ftoa+0x88>
100027a2:	2200      	movs	r2, #0
100027a4:	4b54      	ldr	r3, [pc, #336]	; (100028f8 <_ftoa+0x350>)
100027a6:	9808      	ldr	r0, [sp, #32]
100027a8:	9909      	ldr	r1, [sp, #36]	; 0x24
100027aa:	f000 fedb 	bl	10003564 <__wrap___aeabi_dcmplt>
100027ae:	2800      	cmp	r0, #0
100027b0:	d1d6      	bne.n	10002760 <_ftoa+0x1b8>
100027b2:	2e00      	cmp	r6, #0
100027b4:	d001      	beq.n	100027ba <_ftoa+0x212>
100027b6:	07f3      	lsls	r3, r6, #31
100027b8:	d5d2      	bpl.n	10002760 <_ftoa+0x1b8>
100027ba:	3601      	adds	r6, #1
100027bc:	e7d0      	b.n	10002760 <_ftoa+0x1b8>
100027be:	46aa      	mov	sl, r5
100027c0:	2c1f      	cmp	r4, #31
100027c2:	d811      	bhi.n	100027e8 <_ftoa+0x240>
100027c4:	3f01      	subs	r7, #1
100027c6:	210a      	movs	r1, #10
100027c8:	0030      	movs	r0, r6
100027ca:	f000 fc15 	bl	10002ff8 <__wrap___aeabi_uidiv>
100027ce:	1c65      	adds	r5, r4, #1
100027d0:	3130      	adds	r1, #48	; 0x30
100027d2:	ab0c      	add	r3, sp, #48	; 0x30
100027d4:	5519      	strb	r1, [r3, r4]
100027d6:	210a      	movs	r1, #10
100027d8:	0030      	movs	r0, r6
100027da:	f000 fc0d 	bl	10002ff8 <__wrap___aeabi_uidiv>
100027de:	2e09      	cmp	r6, #9
100027e0:	d90e      	bls.n	10002800 <_ftoa+0x258>
100027e2:	0006      	movs	r6, r0
100027e4:	002c      	movs	r4, r5
100027e6:	e7eb      	b.n	100027c0 <_ftoa+0x218>
100027e8:	4655      	mov	r5, sl
100027ea:	2c1f      	cmp	r4, #31
100027ec:	d80c      	bhi.n	10002808 <_ftoa+0x260>
100027ee:	1e7b      	subs	r3, r7, #1
100027f0:	2f00      	cmp	r7, #0
100027f2:	d009      	beq.n	10002808 <_ftoa+0x260>
100027f4:	aa0c      	add	r2, sp, #48	; 0x30
100027f6:	2130      	movs	r1, #48	; 0x30
100027f8:	5511      	strb	r1, [r2, r4]
100027fa:	001f      	movs	r7, r3
100027fc:	3401      	adds	r4, #1
100027fe:	e7f4      	b.n	100027ea <_ftoa+0x242>
10002800:	002b      	movs	r3, r5
10002802:	4655      	mov	r5, sl
10002804:	001c      	movs	r4, r3
10002806:	e7f0      	b.n	100027ea <_ftoa+0x242>
10002808:	2c1f      	cmp	r4, #31
1000280a:	d803      	bhi.n	10002814 <_ftoa+0x26c>
1000280c:	ab0c      	add	r3, sp, #48	; 0x30
1000280e:	222e      	movs	r2, #46	; 0x2e
10002810:	551a      	strb	r2, [r3, r4]
10002812:	3401      	adds	r4, #1
10002814:	2c1f      	cmp	r4, #31
10002816:	d810      	bhi.n	1000283a <_ftoa+0x292>
10002818:	210a      	movs	r1, #10
1000281a:	0028      	movs	r0, r5
1000281c:	f000 fbc4 	bl	10002fa8 <__wrap___aeabi_idiv>
10002820:	1c66      	adds	r6, r4, #1
10002822:	3130      	adds	r1, #48	; 0x30
10002824:	ab0c      	add	r3, sp, #48	; 0x30
10002826:	5519      	strb	r1, [r3, r4]
10002828:	210a      	movs	r1, #10
1000282a:	0028      	movs	r0, r5
1000282c:	f000 fbbc 	bl	10002fa8 <__wrap___aeabi_idiv>
10002830:	1e05      	subs	r5, r0, #0
10002832:	d001      	beq.n	10002838 <_ftoa+0x290>
10002834:	0034      	movs	r4, r6
10002836:	e7ed      	b.n	10002814 <_ftoa+0x26c>
10002838:	0034      	movs	r4, r6
1000283a:	2303      	movs	r3, #3
1000283c:	9a22      	ldr	r2, [sp, #136]	; 0x88
1000283e:	4013      	ands	r3, r2
10002840:	2b01      	cmp	r3, #1
10002842:	d01c      	beq.n	1000287e <_ftoa+0x2d6>
10002844:	2c1f      	cmp	r4, #31
10002846:	d806      	bhi.n	10002856 <_ftoa+0x2ae>
10002848:	4643      	mov	r3, r8
1000284a:	2b00      	cmp	r3, #0
1000284c:	d032      	beq.n	100028b4 <_ftoa+0x30c>
1000284e:	ab0c      	add	r3, sp, #48	; 0x30
10002850:	222d      	movs	r2, #45	; 0x2d
10002852:	551a      	strb	r2, [r3, r4]
10002854:	3401      	adds	r4, #1
10002856:	9b22      	ldr	r3, [sp, #136]	; 0x88
10002858:	9303      	str	r3, [sp, #12]
1000285a:	9b21      	ldr	r3, [sp, #132]	; 0x84
1000285c:	9302      	str	r3, [sp, #8]
1000285e:	9401      	str	r4, [sp, #4]
10002860:	ab0c      	add	r3, sp, #48	; 0x30
10002862:	9300      	str	r3, [sp, #0]
