Archive member included to satisfy reference by file (symbol)

/usr/local/Cellar/arm-none-eabi-gcc/10.3-2021.07/gcc/bin/../lib/gcc/arm-none-eabi/10.3.1/thumb/v6-m/nofp/libgcc.a(_dvmd_tls.o)
                              CMakeFiles/lab01.dir/Users/nehan/pico/pico-sdk/src/rp2_common/pico_divider/divider.S.obj (__aeabi_idiv0)
/usr/local/Cellar/arm-none-eabi-gcc/10.3-2021.07/gcc/bin/../lib/gcc/arm-none-eabi/10.3.1/../../../../arm-none-eabi/lib/thumb/v6-m/nofp/libg.a(lib_a-calloc.o)
                              CMakeFiles/lab01.dir/Users/nehan/pico/pico-sdk/src/rp2_common/pico_malloc/pico_malloc.c.obj (calloc)
/usr/local/Cellar/arm-none-eabi-gcc/10.3-2021.07/gcc/bin/../lib/gcc/arm-none-eabi/10.3.1/../../../../arm-none-eabi/lib/thumb/v6-m/nofp/libg.a(lib_a-callocr.o)
                              /usr/local/Cellar/arm-none-eabi-gcc/10.3-2021.07/gcc/bin/../lib/gcc/arm-none-eabi/10.3.1/../../../../arm-none-eabi/lib/thumb/v6-m/nofp/libg.a(lib_a-calloc.o) (_calloc_r)
/usr/local/Cellar/arm-none-eabi-gcc/10.3-2021.07/gcc/bin/../lib/gcc/arm-none-eabi/10.3.1/../../../../arm-none-eabi/lib/thumb/v6-m/nofp/libg.a(lib_a-errno.o)
                              /usr/local/Cellar/arm-none-eabi-gcc/10.3-2021.07/gcc/bin/../lib/gcc/arm-none-eabi/10.3.1/../../../../arm-none-eabi/lib/thumb/v6-m/nofp/libg.a(lib_a-callocr.o) (__errno)
/usr/local/Cellar/arm-none-eabi-gcc/10.3-2021.07/gcc/bin/../lib/gcc/arm-none-eabi/10.3.1/../../../../arm-none-eabi/lib/thumb/v6-m/nofp/libg.a(lib_a-impure.o)
                              /usr/local/Cellar/arm-none-eabi-gcc/10.3-2021.07/gcc/bin/../lib/gcc/arm-none-eabi/10.3.1/../../../../arm-none-eabi/lib/thumb/v6-m/nofp/libg.a(lib_a-calloc.o) (_impure_ptr)
/usr/local/Cellar/arm-none-eabi-gcc/10.3-2021.07/gcc/bin/../lib/gcc/arm-none-eabi/10.3.1/../../../../arm-none-eabi/lib/thumb/v6-m/nofp/libg.a(lib_a-init.o)
                              /usr/local/Cellar/arm-none-eabi-gcc/10.3-2021.07/gcc/bin/../lib/gcc/arm-none-eabi/10.3.1/../../../../arm-none-eabi/lib/thumb/v6-m/nofp/crt0.o (__libc_init_array)
/usr/local/Cellar/arm-none-eabi-gcc/10.3-2021.07/gcc/bin/../lib/gcc/arm-none-eabi/10.3.1/../../../../arm-none-eabi/lib/thumb/v6-m/nofp/libg.a(lib_a-malloc.o)
                              CMakeFiles/lab01.dir/Users/nehan/pico/pico-sdk/src/rp2_common/pico_malloc/pico_malloc.c.obj (malloc)
/usr/local/Cellar/arm-none-eabi-gcc/10.3-2021.07/gcc/bin/../lib/gcc/arm-none-eabi/10.3.1/../../../../arm-none-eabi/lib/thumb/v6-m/nofp/libg.a(lib_a-mallocr.o)
                              /usr/local/Cellar/arm-none-eabi-gcc/10.3-2021.07/gcc/bin/../lib/gcc/arm-none-eabi/10.3.1/../../../../arm-none-eabi/lib/thumb/v6-m/nofp/libg.a(lib_a-callocr.o) (_malloc_r)
/usr/local/Cellar/arm-none-eabi-gcc/10.3-2021.07/gcc/bin/../lib/gcc/arm-none-eabi/10.3.1/../../../../arm-none-eabi/lib/thumb/v6-m/nofp/libg.a(lib_a-mlock.o)
                              /usr/local/Cellar/arm-none-eabi-gcc/10.3-2021.07/gcc/bin/../lib/gcc/arm-none-eabi/10.3.1/../../../../arm-none-eabi/lib/thumb/v6-m/nofp/libg.a(lib_a-mallocr.o) (__malloc_lock)
/usr/local/Cellar/arm-none-eabi-gcc/10.3-2021.07/gcc/bin/../lib/gcc/arm-none-eabi/10.3.1/../../../../arm-none-eabi/lib/thumb/v6-m/nofp/libg.a(lib_a-sbrkr.o)
                              /usr/local/Cellar/arm-none-eabi-gcc/10.3-2021.07/gcc/bin/../lib/gcc/arm-none-eabi/10.3.1/../../../../arm-none-eabi/lib/thumb/v6-m/nofp/libg.a(lib_a-mallocr.o) (_sbrk_r)
/usr/local/Cellar/arm-none-eabi-gcc/10.3-2021.07/gcc/bin/../lib/gcc/arm-none-eabi/10.3.1/../../../../arm-none-eabi/lib/thumb/v6-m/nofp/libg.a(lib_a-strlen-stub.o)
                              CMakeFiles/lab01.dir/Users/nehan/pico/pico-sdk/src/rp2_common/pico_stdio/stdio.c.obj (strlen)
/usr/local/Cellar/arm-none-eabi-gcc/10.3-2021.07/gcc/bin/../lib/gcc/arm-none-eabi/10.3.1/../../../../arm-none-eabi/lib/thumb/v6-m/nofp/libg.a(lib_a-freer.o)
                              /usr/local/Cellar/arm-none-eabi-gcc/10.3-2021.07/gcc/bin/../lib/gcc/arm-none-eabi/10.3.1/../../../../arm-none-eabi/lib/thumb/v6-m/nofp/libg.a(lib_a-malloc.o) (_free_r)
/usr/local/Cellar/arm-none-eabi-gcc/10.3-2021.07/gcc/bin/../lib/gcc/arm-none-eabi/10.3.1/../../../../arm-none-eabi/lib/thumb/v6-m/nofp/libg.a(lib_a-lock.o)
                              /usr/local/Cellar/arm-none-eabi-gcc/10.3-2021.07/gcc/bin/../lib/gcc/arm-none-eabi/10.3.1/../../../../arm-none-eabi/lib/thumb/v6-m/nofp/libg.a(lib_a-mlock.o) (__retarget_lock_acquire_recursive)
/usr/local/Cellar/arm-none-eabi-gcc/10.3-2021.07/gcc/bin/../lib/gcc/arm-none-eabi/10.3.1/../../../../arm-none-eabi/lib/thumb/v6-m/nofp/libg.a(lib_a-reent.o)
                              /usr/local/Cellar/arm-none-eabi-gcc/10.3-2021.07/gcc/bin/../lib/gcc/arm-none-eabi/10.3.1/../../../../arm-none-eabi/lib/thumb/v6-m/nofp/libg.a(lib_a-sbrkr.o) (errno)

Discarded input sections

 .text          0x0000000000000000        0x0 /usr/local/Cellar/arm-none-eabi-gcc/10.3-2021.07/gcc/bin/../lib/gcc/arm-none-eabi/10.3.1/thumb/v6-m/nofp/crti.o
 .data          0x0000000000000000        0x0 /usr/local/Cellar/arm-none-eabi-gcc/10.3-2021.07/gcc/bin/../lib/gcc/arm-none-eabi/10.3.1/thumb/v6-m/nofp/crti.o
 .bss           0x0000000000000000        0x0 /usr/local/Cellar/arm-none-eabi-gcc/10.3-2021.07/gcc/bin/../lib/gcc/arm-none-eabi/10.3.1/thumb/v6-m/nofp/crti.o
 .data          0x0000000000000000        0x4 /usr/local/Cellar/arm-none-eabi-gcc/10.3-2021.07/gcc/bin/../lib/gcc/arm-none-eabi/10.3.1/thumb/v6-m/nofp/crtbegin.o
 .rodata        0x0000000000000000       0x24 /usr/local/Cellar/arm-none-eabi-gcc/10.3-2021.07/gcc/bin/../lib/gcc/arm-none-eabi/10.3.1/thumb/v6-m/nofp/crtbegin.o
 .fini_array    0x0000000000000000        0x4 /usr/local/Cellar/arm-none-eabi-gcc/10.3-2021.07/gcc/bin/../lib/gcc/arm-none-eabi/10.3.1/thumb/v6-m/nofp/crtbegin.o
 .text          0x0000000000000000       0x80 /usr/local/Cellar/arm-none-eabi-gcc/10.3-2021.07/gcc/bin/../lib/gcc/arm-none-eabi/10.3.1/../../../../arm-none-eabi/lib/thumb/v6-m/nofp/crt0.o
 .data          0x0000000000000000        0x0 /usr/local/Cellar/arm-none-eabi-gcc/10.3-2021.07/gcc/bin/../lib/gcc/arm-none-eabi/10.3.1/../../../../arm-none-eabi/lib/thumb/v6-m/nofp/crt0.o
 .bss           0x0000000000000000        0x0 /usr/local/Cellar/arm-none-eabi-gcc/10.3-2021.07/gcc/bin/../lib/gcc/arm-none-eabi/10.3.1/../../../../arm-none-eabi/lib/thumb/v6-m/nofp/crt0.o
 .ARM.extab     0x0000000000000000        0x0 /usr/local/Cellar/arm-none-eabi-gcc/10.3-2021.07/gcc/bin/../lib/gcc/arm-none-eabi/10.3.1/../../../../arm-none-eabi/lib/thumb/v6-m/nofp/crt0.o
 .ARM.exidx     0x0000000000000000       0x10 /usr/local/Cellar/arm-none-eabi-gcc/10.3-2021.07/gcc/bin/../lib/gcc/arm-none-eabi/10.3.1/../../../../arm-none-eabi/lib/thumb/v6-m/nofp/crt0.o
 .ARM.attributes
                0x0000000000000000       0x1b /usr/local/Cellar/arm-none-eabi-gcc/10.3-2021.07/gcc/bin/../lib/gcc/arm-none-eabi/10.3.1/../../../../arm-none-eabi/lib/thumb/v6-m/nofp/crt0.o
 .text          0x0000000000000000        0x0 CMakeFiles/lab01.dir/lab01.c.obj
 .data          0x0000000000000000        0x0 CMakeFiles/lab01.dir/lab01.c.obj
 .bss           0x0000000000000000        0x0 CMakeFiles/lab01.dir/lab01.c.obj
 .text          0x0000000000000000        0x0 CMakeFiles/lab01.dir/Users/nehan/pico/pico-sdk/src/rp2_common/pico_stdlib/stdlib.c.obj
 .data          0x0000000000000000        0x0 CMakeFiles/lab01.dir/Users/nehan/pico/pico-sdk/src/rp2_common/pico_stdlib/stdlib.c.obj
Memory Configuration

Name             Origin             Length             Attributes
FLASH            0x0000000010000000 0x0000000000200000 xr
RAM              0x0000000020000000 0x0000000000040000 xrw
SCRATCH_X        0x0000000020040000 0x0000000000001000 xrw
SCRATCH_Y        0x0000000020041000 0x0000000000001000 xrw
*default*        0x0000000000000000 0xffffffffffffffff

Linker script and memory map

LOAD /usr/local/Cellar/arm-none-eabi-gcc/10.3-2021.07/gcc/bin/../lib/gcc/arm-none-eabi/10.3.1/thumb/v6-m/nofp/crti.o
LOAD /usr/local/Cellar/arm-none-eabi-gcc/10.3-2021.07/gcc/bin/../lib/gcc/arm-none-eabi/10.3.1/thumb/v6-m/nofp/crtbegin.o
LOAD /usr/local/Cellar/arm-none-eabi-gcc/10.3-2021.07/gcc/bin/../lib/gcc/arm-none-eabi/10.3.1/../../../../arm-none-eabi/lib/thumb/v6-m/nofp/crt0.o

.flash_begin    0x0000000010000000        0x0
                0x0000000010000000                __flash_binary_start = .

.boot2          0x0000000010000000      0x100
                0x0000000010000000                __boot2_start__ = .
 *(.boot2)
 .boot2         0x0000000010000000      0x100 /var/folders/zy/ckc6q8vx4c9dg1fhvgwx2yhh0000gp/T//ccjGFMoh.o
                0x0000000010000100                __boot2_end__ = .
                0x0000000000000001                ASSERT (((__boot2_end__ - __boot2_start__) == 0x100), ERROR: Pico second stage bootloader must be 256 bytes in size)

.text           0x0000000010000100     0x3fd8
                0x0000000010000100                __logical_binary_start = .
 *(.vectors)
 .vectors       0x0000000010000100       0xd4 CMakeFiles/lab01.dir/Users/nehan/pico/pico-sdk/src/rp2_common/pico_standard_link/crt0.S.obj
                0x0000000010000100                __VECTOR_TABLE
                0x0000000010000100                __vectors
                0x00000000100001c0                __default_isrs_start
                0x00000000100001c0                isr_invalid
                0x00000000100001c2                isr_nmi
                0x00000000100001c4                isr_hardfault
                0x00000000100001c6                isr_svcall
                0x00000000100001c8                isr_pendsv
                0x00000000100001ca                isr_systick
                0x00000000100001cc                isr_irq28
                0x00000000100001cc                isr_irq19
                0x00000000100001cc                isr_irq0
                0x00000000100001cc                isr_irq6
                0x00000000100001cc                isr_irq22
                0x00000000100001cc                isr_irq17
                0x00000000100001cc                isr_irq14
                0x00000000100001cc                isr_irq2
                0x00000000100001cc                isr_irq10
                0x00000000100001cc                isr_irq8
                0x00000000100001cc                isr_irq24
                0x00000000100001cc                isr_irq1
                0x00000000100001cc                isr_irq7
                0x00000000100001cc                isr_irq21
                0x00000000100001cc                isr_irq20
                0x00000000100001cc                isr_irq15
                0x00000000100001cc                isr_irq25
                0x00000000100001cc                isr_irq4
                0x00000000100001cc                isr_irq16
                0x00000000100001cc                isr_irq29
                0x00000000100001cc                isr_irq26
                0x00000000100001cc                __default_isrs_end
                0x00000000100001cc                isr_irq3
                0x00000000100001cc                isr_irq9
                0x00000000100001cc                __unhandled_user_irq
                0x00000000100001cc                isr_irq13
                0x00000000100001cc                isr_irq27
                0x00000000100001cc                isr_irq31
                0x00000000100001cc                isr_irq5
                0x00000000100001cc                isr_irq11
                0x00000000100001cc                isr_irq23
                0x00000000100001cc                isr_irq18
                0x00000000100001cc                isr_irq30
                0x00000000100001cc                isr_irq12
                0x00000000100001d2                unhandled_user_irq_num_in_r0
 *(.binary_info_header)
 .binary_info_header
                0x00000000100001d4       0x14 CMakeFiles/lab01.dir/Users/nehan/pico/pico-sdk/src/rp2_common/pico_standard_link/crt0.S.obj
                0x00000000100001e8                __binary_info_header_end = .
 *(.reset)
 .reset         0x00000000100001e8       0xa8 CMakeFiles/lab01.dir/Users/nehan/pico/pico-sdk/src/rp2_common/pico_standard_link/crt0.S.obj
                0x00000000100001e8                _entry_point
                0x0000000010000266                __get_current_exception
 .reset         0x0000000010000290       0x30 CMakeFiles/lab01.dir/Users/nehan/pico/pico-sdk/src/rp2_common/pico_standard_link/binary_info.c.obj
 *(.init)
 .init          0x00000000100002c0        0x4 /usr/local/Cellar/arm-none-eabi-gcc/10.3-2021.07/gcc/bin/../lib/gcc/arm-none-eabi/10.3.1/thumb/v6-m/nofp/crti.o
                0x00000000100002c0                _init
 *(EXCLUDE_FILE(*libm.a: *libc.a:*lib_a-mem*.o *libgcc.a:) .text*)
 .text          0x00000000100002c4       0x48 /usr/local/Cellar/arm-none-eabi-gcc/10.3-2021.07/gcc/bin/../lib/gcc/arm-none-eabi/10.3.1/thumb/v6-m/nofp/crtbegin.o
 .text.function
                0x000000001000030c       0x1e CMakeFiles/lab01.dir/lab01.c.obj
                0x000000001000030c                function
 .text.main     0x000000001000032a       0x1e CMakeFiles/lab01.dir/lab01.c.obj
                0x000000001000032a                main
 .text.gpio_set_function
                0x0000000010000348       0x30 CMakeFiles/lab01.dir/Users/nehan/pico/pico-sdk/src/rp2_common/hardware_gpio/gpio.c.obj
                0x0000000010000348                gpio_set_function
 .text.gpio_init
                0x0000000010000378       0x16 CMakeFiles/lab01.dir/Users/nehan/pico/pico-sdk/src/rp2_common/hardware_gpio/gpio.c.obj
                0x0000000010000378                gpio_init
 *fill*         0x000000001000038e        0x2 
 .text.hw_claim_lock
                0x0000000010000390       0x18 CMakeFiles/lab01.dir/Users/nehan/pico/pico-sdk/src/rp2_common/hardware_claim/claim.c.obj
                0x0000000010000390                hw_claim_lock
 .text.hw_claim_unlock
                0x00000000100003a8       0x14 CMakeFiles/lab01.dir/Users/nehan/pico/pico-sdk/src/rp2_common/hardware_claim/claim.c.obj
                0x00000000100003a8                hw_claim_unlock
 .text.hw_claim_or_assert
                0x00000000100003bc       0x32 CMakeFiles/lab01.dir/Users/nehan/pico/pico-sdk/src/rp2_common/hardware_claim/claim.c.obj
                0x00000000100003bc                hw_claim_or_assert
 *fill*         0x00000000100003ee        0x2 
 .text.running_on_fpga
                0x00000000100003f0       0x14 CMakeFiles/lab01.dir/Users/nehan/pico/pico-sdk/src/rp2_common/pico_platform/platform.c.obj
                0x00000000100003f0                running_on_fpga
 .text.spin_locks_reset
                0x0000000010000404       0x20 CMakeFiles/lab01.dir/Users/nehan/pico/pico-sdk/src/rp2_common/hardware_sync/sync.c.obj
                0x0000000010000404                spin_locks_reset
 .text.next_striped_spin_lock_num
                0x0000000010000424       0x1c CMakeFiles/lab01.dir/Users/nehan/pico/pico-sdk/src/rp2_common/hardware_sync/sync.c.obj
                0x0000000010000424                next_striped_spin_lock_num
 .text.alarm_pool_post_alloc_init
                0x0000000010000440       0x40 CMakeFiles/lab01.dir/Users/nehan/pico/pico-sdk/src/common/pico_time/time.c.obj
 .text.sleep_until_callback
                0x0000000010000480       0x30 CMakeFiles/lab01.dir/Users/nehan/pico/pico-sdk/src/common/pico_time/time.c.obj
 .text.timer_pool_entry_comparator
                0x00000000100004b0       0x7c CMakeFiles/lab01.dir/Users/nehan/pico/pico-sdk/src/common/pico_time/time.c.obj
                0x00000000100004b0                timer_pool_entry_comparator
 .text.ph_add_child_node
                0x000000001000052c       0xa4 CMakeFiles/lab01.dir/Users/nehan/pico/pico-sdk/src/common/pico_time/time.c.obj
 .text.ph_merge_nodes
                0x00000000100005d0       0x3e CMakeFiles/lab01.dir/Users/nehan/pico/pico-sdk/src/common/pico_time/time.c.obj
 *fill*         0x000000001000060e        0x2 
 .text.add_alarm_under_lock
                0x0000000010000610      0x174 CMakeFiles/lab01.dir/Users/nehan/pico/pico-sdk/src/common/pico_time/time.c.obj
 .text.alarm_pool_alarm_callback
                0x0000000010000784      0x328 CMakeFiles/lab01.dir/Users/nehan/pico/pico-sdk/src/common/pico_time/time.c.obj
 .text.alarm_pool_init_default
                0x0000000010000aac       0x38 CMakeFiles/lab01.dir/Users/nehan/pico/pico-sdk/src/common/pico_time/time.c.obj
                0x0000000010000aac                alarm_pool_init_default
 .text.alarm_pool_get_default
                0x0000000010000ae4       0x2c CMakeFiles/lab01.dir/Users/nehan/pico/pico-sdk/src/common/pico_time/time.c.obj
                0x0000000010000ae4                alarm_pool_get_default
 .text.alarm_pool_add_alarm_at
                0x0000000010000b10      0x170 CMakeFiles/lab01.dir/Users/nehan/pico/pico-sdk/src/common/pico_time/time.c.obj
                0x0000000010000b10                alarm_pool_add_alarm_at
 .text.sleep_until
                0x0000000010000c80       0xfc CMakeFiles/lab01.dir/Users/nehan/pico/pico-sdk/src/common/pico_time/time.c.obj
                0x0000000010000c80                sleep_until
 .text.sleep_us
                0x0000000010000d7c       0x58 CMakeFiles/lab01.dir/Users/nehan/pico/pico-sdk/src/common/pico_time/time.c.obj
                0x0000000010000d7c                sleep_us
 .text.sleep_ms
                0x0000000010000dd4       0x14 CMakeFiles/lab01.dir/Users/nehan/pico/pico-sdk/src/common/pico_time/time.c.obj
                0x0000000010000dd4                sleep_ms
 .text.hardware_alarm_irq_handler
                0x0000000010000de8       0x8c CMakeFiles/lab01.dir/Users/nehan/pico/pico-sdk/src/rp2_common/hardware_timer/timer.c.obj
 .text.hardware_alarm_claim
                0x0000000010000e74       0x18 CMakeFiles/lab01.dir/Users/nehan/pico/pico-sdk/src/rp2_common/hardware_timer/timer.c.obj
                0x0000000010000e74                hardware_alarm_claim
 .text.time_us_64
                0x0000000010000e8c       0x18 CMakeFiles/lab01.dir/Users/nehan/pico/pico-sdk/src/rp2_common/hardware_timer/timer.c.obj
                0x0000000010000e8c                time_us_64
 .text.busy_wait_until
                0x0000000010000ea4       0x28 CMakeFiles/lab01.dir/Users/nehan/pico/pico-sdk/src/rp2_common/hardware_timer/timer.c.obj
                0x0000000010000ea4                busy_wait_until
 .text.hardware_alarm_set_callback
                0x0000000010000ecc       0x90 CMakeFiles/lab01.dir/Users/nehan/pico/pico-sdk/src/rp2_common/hardware_timer/timer.c.obj
                0x0000000010000ecc                hardware_alarm_set_callback
 .text.hardware_alarm_set_target
                0x0000000010000f5c       0xe8 CMakeFiles/lab01.dir/Users/nehan/pico/pico-sdk/src/rp2_common/hardware_timer/timer.c.obj
                0x0000000010000f5c                hardware_alarm_set_target
 .text.hardware_alarm_cancel
                0x0000000010001044       0x40 CMakeFiles/lab01.dir/Users/nehan/pico/pico-sdk/src/rp2_common/hardware_timer/timer.c.obj
                0x0000000010001044                hardware_alarm_cancel
 .text.lock_init
                0x0000000010001084       0x10 CMakeFiles/lab01.dir/Users/nehan/pico/pico-sdk/src/common/pico_sync/lock_core.c.obj
                0x0000000010001084                lock_init
 .text.mutex_init
                0x0000000010001094       0x1a CMakeFiles/lab01.dir/Users/nehan/pico/pico-sdk/src/common/pico_sync/mutex.c.obj
                0x0000000010001094                mutex_init
 .text.recursive_mutex_init
                0x00000000100010ae       0x1e CMakeFiles/lab01.dir/Users/nehan/pico/pico-sdk/src/common/pico_sync/mutex.c.obj
                0x00000000100010ae                recursive_mutex_init
 .text.ph_add_child_node
                0x00000000100010cc       0xa4 CMakeFiles/lab01.dir/Users/nehan/pico/pico-sdk/src/common/pico_util/pheap.c.obj
 .text.ph_merge_nodes
                0x0000000010001170       0x3e CMakeFiles/lab01.dir/Users/nehan/pico/pico-sdk/src/common/pico_util/pheap.c.obj
 *fill*         0x00000000100011ae        0x2 
 .text.ph_clear
                0x00000000100011b0       0x70 CMakeFiles/lab01.dir/Users/nehan/pico/pico-sdk/src/common/pico_util/pheap.c.obj
                0x00000000100011b0                ph_clear
 .text.ph_post_alloc_init
                0x0000000010001220        0xe CMakeFiles/lab01.dir/Users/nehan/pico/pico-sdk/src/common/pico_util/pheap.c.obj
                0x0000000010001220                ph_post_alloc_init
 *fill*         0x000000001000122e        0x2 
 .text.ph_merge_two_pass
                0x0000000010001230       0xa8 CMakeFiles/lab01.dir/Users/nehan/pico/pico-sdk/src/common/pico_util/pheap.c.obj
                0x0000000010001230                ph_merge_two_pass
 .text.ph_remove_any_head
                0x00000000100012d8      0x108 CMakeFiles/lab01.dir/Users/nehan/pico/pico-sdk/src/common/pico_util/pheap.c.obj
 .text.ph_remove_head
                0x00000000100013e0       0x14 CMakeFiles/lab01.dir/Users/nehan/pico/pico-sdk/src/common/pico_util/pheap.c.obj
                0x00000000100013e0                ph_remove_head
 .text.ph_remove_and_free_node
                0x00000000100013f4       0xf8 CMakeFiles/lab01.dir/Users/nehan/pico/pico-sdk/src/common/pico_util/pheap.c.obj
                0x00000000100013f4                ph_remove_and_free_node
 .text._exit    0x00000000100014ec        0x4 CMakeFiles/lab01.dir/Users/nehan/pico/pico-sdk/src/rp2_common/pico_runtime/runtime.c.obj
                0x00000000100014ec                _exit
 .text.exit     0x00000000100014f0        0x6 CMakeFiles/lab01.dir/Users/nehan/pico/pico-sdk/src/rp2_common/pico_runtime/runtime.c.obj
                0x00000000100014f0                exit
 *fill*         0x00000000100014f6        0x2 
 .text.__assert_func
                0x00000000100014f8       0x3c CMakeFiles/lab01.dir/Users/nehan/pico/pico-sdk/src/rp2_common/pico_runtime/runtime.c.obj
                0x00000000100014f8                __assert_func
 .text.runtime_init
                0x0000000010001534       0xf8 CMakeFiles/lab01.dir/Users/nehan/pico/pico-sdk/src/rp2_common/pico_runtime/runtime.c.obj
                0x0000000010001534                runtime_init
 .text.panic    0x000000001000162c       0x30 CMakeFiles/lab01.dir/Users/nehan/pico/pico-sdk/src/rp2_common/pico_runtime/runtime.c.obj
                0x000000001000162c                panic
 .text.clock_configure
                0x000000001000165c      0x104 CMakeFiles/lab01.dir/Users/nehan/pico/pico-sdk/src/rp2_common/hardware_clocks/clocks.c.obj
                0x000000001000165c                clock_configure
 .text.clocks_init
                0x0000000010001760      0x100 CMakeFiles/lab01.dir/Users/nehan/pico/pico-sdk/src/rp2_common/hardware_clocks/clocks.c.obj
                0x0000000010001760                clocks_init
 .text.set_raw_irq_handler_and_unlock
                0x0000000010001860       0x28 CMakeFiles/lab01.dir/Users/nehan/pico/pico-sdk/src/rp2_common/hardware_irq/irq.c.obj
 .text.make_branch
                0x0000000010001888       0x34 CMakeFiles/lab01.dir/Users/nehan/pico/pico-sdk/src/rp2_common/hardware_irq/irq.c.obj
 .text.insert_branch_and_link
                0x00000000100018bc       0x40 CMakeFiles/lab01.dir/Users/nehan/pico/pico-sdk/src/rp2_common/hardware_irq/irq.c.obj
 .text.irq_is_enabled
                0x00000000100018fc       0x18 CMakeFiles/lab01.dir/Users/nehan/pico/pico-sdk/src/rp2_common/hardware_irq/irq.c.obj
                0x00000000100018fc                irq_is_enabled
 .text.irq_set_mask_enabled
                0x0000000010001914       0x20 CMakeFiles/lab01.dir/Users/nehan/pico/pico-sdk/src/rp2_common/hardware_irq/irq.c.obj
                0x0000000010001914                irq_set_mask_enabled
 .text.irq_set_enabled
                0x0000000010001934        0xe CMakeFiles/lab01.dir/Users/nehan/pico/pico-sdk/src/rp2_common/hardware_irq/irq.c.obj
                0x0000000010001934                irq_set_enabled
 *fill*         0x0000000010001942        0x2 
 .text.irq_get_vtable_handler
                0x0000000010001944       0x10 CMakeFiles/lab01.dir/Users/nehan/pico/pico-sdk/src/rp2_common/hardware_irq/irq.c.obj
                0x0000000010001944                irq_get_vtable_handler
 .text.irq_set_exclusive_handler
                0x0000000010001954       0x54 CMakeFiles/lab01.dir/Users/nehan/pico/pico-sdk/src/rp2_common/hardware_irq/irq.c.obj
                0x0000000010001954                irq_set_exclusive_handler
 .text.irq_remove_handler
                0x00000000100019a8      0x1ac CMakeFiles/lab01.dir/Users/nehan/pico/pico-sdk/src/rp2_common/hardware_irq/irq.c.obj
                0x00000000100019a8                irq_remove_handler
 .text.irq_add_tail_to_free_list
                0x0000000010001b54       0xf0 CMakeFiles/lab01.dir/Users/nehan/pico/pico-sdk/src/rp2_common/hardware_irq/irq.c.obj
                0x0000000010001b54                irq_add_tail_to_free_list
 .text.irq_init_priorities
                0x0000000010001c44       0x1c CMakeFiles/lab01.dir/Users/nehan/pico/pico-sdk/src/rp2_common/hardware_irq/irq.c.obj
                0x0000000010001c44                irq_init_priorities
 .text.pll_init
                0x0000000010001c60      0x118 CMakeFiles/lab01.dir/Users/nehan/pico/pico-sdk/src/rp2_common/hardware_pll/pll.c.obj
                0x0000000010001c60                pll_init
 .text.watchdog_start_tick
                0x0000000010001d78       0x10 CMakeFiles/lab01.dir/Users/nehan/pico/pico-sdk/src/rp2_common/hardware_watchdog/watchdog.c.obj
                0x0000000010001d78                watchdog_start_tick
 .text.xosc_init
                0x0000000010001d88       0x28 CMakeFiles/lab01.dir/Users/nehan/pico/pico-sdk/src/rp2_common/hardware_xosc/xosc.c.obj
                0x0000000010001d88                xosc_init
 .text._out_null
                0x0000000010001db0        0x2 CMakeFiles/lab01.dir/Users/nehan/pico/pico-sdk/src/rp2_common/pico_printf/printf.c.obj
 .text._out_fct
                0x0000000010001db2        0xe CMakeFiles/lab01.dir/Users/nehan/pico/pico-sdk/src/rp2_common/pico_printf/printf.c.obj
 .text._atoi    0x0000000010001dc0       0x24 CMakeFiles/lab01.dir/Users/nehan/pico/pico-sdk/src/rp2_common/pico_printf/printf.c.obj
 .text._out_rev
                0x0000000010001de4       0xae CMakeFiles/lab01.dir/Users/nehan/pico/pico-sdk/src/rp2_common/pico_printf/printf.c.obj
 .text._ntoa_format
                0x0000000010001e92      0x112 CMakeFiles/lab01.dir/Users/nehan/pico/pico-sdk/src/rp2_common/pico_printf/printf.c.obj
 .text._ntoa_long
                0x0000000010001fa4       0xbc CMakeFiles/lab01.dir/Users/nehan/pico/pico-sdk/src/rp2_common/pico_printf/printf.c.obj
 .text._ntoa_long_long
                0x0000000010002060       0xe2 CMakeFiles/lab01.dir/Users/nehan/pico/pico-sdk/src/rp2_common/pico_printf/printf.c.obj
 *fill*         0x0000000010002142        0x2 
 .text._etoa    0x0000000010002144      0x414 CMakeFiles/lab01.dir/Users/nehan/pico/pico-sdk/src/rp2_common/pico_printf/printf.c.obj
 .text._ftoa    0x0000000010002558      0x354 CMakeFiles/lab01.dir/Users/nehan/pico/pico-sdk/src/rp2_common/pico_printf/printf.c.obj
 .text._vsnprintf
                0x00000000100028ac      0x624 CMakeFiles/lab01.dir/Users/nehan/pico/pico-sdk/src/rp2_common/pico_printf/printf.c.obj
 .text.vfctprintf
                0x0000000010002ed0       0x20 CMakeFiles/lab01.dir/Users/nehan/pico/pico-sdk/src/rp2_common/pico_printf/printf.c.obj
                0x0000000010002ed0                vfctprintf
 .text          0x0000000010002ef0       0x10 CMakeFiles/lab01.dir/Users/nehan/pico/pico-sdk/src/rp2_common/pico_bit_ops/bit_ops_aeabi.S.obj
 .text.rom_func_lookup
                0x0000000010002f00       0x10 CMakeFiles/lab01.dir/Users/nehan/pico/pico-sdk/src/rp2_common/pico_bootrom/bootrom.c.obj
                0x0000000010002f00                rom_func_lookup
 .text.rom_data_lookup
                0x0000000010002f10       0x10 CMakeFiles/lab01.dir/Users/nehan/pico/pico-sdk/src/rp2_common/pico_bootrom/bootrom.c.obj
                0x0000000010002f10                rom_data_lookup
 .text.rom_funcs_lookup
                0x0000000010002f20       0x36 CMakeFiles/lab01.dir/Users/nehan/pico/pico-sdk/src/rp2_common/pico_bootrom/bootrom.c.obj
                0x0000000010002f20                rom_funcs_lookup
 *fill*         0x0000000010002f56        0x2 
 .text.__wrap___aeabi_idiv
                0x0000000010002f58       0x50 CMakeFiles/lab01.dir/Users/nehan/pico/pico-sdk/src/rp2_common/pico_divider/divider.S.obj
                0x0000000010002f58                __wrap___aeabi_idivmod
                0x0000000010002f58                divmod_s32s32
                0x0000000010002f58                div_s32s32
                0x0000000010002f58                __wrap___aeabi_idiv
                0x0000000010002f60                divmod_s32s32_unsafe
                0x0000000010002f8c                divmod_s32s32_savestate
 .text.__wrap___aeabi_uidiv
                0x0000000010002fa8       0x4c CMakeFiles/lab01.dir/Users/nehan/pico/pico-sdk/src/rp2_common/pico_divider/divider.S.obj
                0x0000000010002fa8                __wrap___aeabi_uidiv
                0x0000000010002fa8                __wrap___aeabi_uidivmod
                0x0000000010002fa8                div_u32u32
                0x0000000010002fa8                divmod_u32u32
                0x0000000010002fb0                divmod_u32u32_unsafe
                0x0000000010002fd8                divmod_u32u32_savestate
 .text.__wrap___aeabi_ldiv
                0x0000000010002ff4      0x434 CMakeFiles/lab01.dir/Users/nehan/pico/pico-sdk/src/rp2_common/pico_divider/divider.S.obj
                0x0000000010002ff4                __wrap___aeabi_ldivmod
                0x0000000010002ff4                div_s64s64
                0x0000000010002ff4                divmod_s64s64
                0x000000001000302c                divmod_u64u64
                0x000000001000302c                div_u64u64
                0x000000001000302c                __wrap___aeabi_uldivmod
                0x000000001000303c                divmod_u64u64_savestate
                0x0000000010003064                divmod_s64s64_unsafe
                0x00000000100030ec                divmod_u64u64_unsafe
 .text.__wrap___aeabi_darithmetic
                0x0000000010003428       0x80 CMakeFiles/lab01.dir/Users/nehan/pico/pico-sdk/src/rp2_common/pico_double/double_aeabi.S.obj
                0x0000000010003428                __wrap___aeabi_drsub
                0x000000001000342e                __wrap___aeabi_dsub
                0x0000000010003440                __wrap___aeabi_dadd
                0x0000000010003452                __wrap___aeabi_ddiv
                0x000000001000348e                __wrap___aeabi_dmul
 .text.__wrap___aeabi_cdcmple
                0x00000000100034a8       0x6c CMakeFiles/lab01.dir/Users/nehan/pico/pico-sdk/src/rp2_common/pico_double/double_aeabi.S.obj
                0x00000000100034a8                __wrap___aeabi_cdrcmple
                0x00000000100034b8                __wrap___aeabi_cdcmple
                0x00000000100034b8                __wrap___aeabi_cdcmpeq
 .text.__wrap___aeabi_dcmplt
                0x0000000010003514        0xc CMakeFiles/lab01.dir/Users/nehan/pico/pico-sdk/src/rp2_common/pico_double/double_aeabi.S.obj
                0x0000000010003514                __wrap___aeabi_dcmplt
 .text.__wrap___aeabi_dcmple
                0x0000000010003520       0x10 CMakeFiles/lab01.dir/Users/nehan/pico/pico-sdk/src/rp2_common/pico_double/double_aeabi.S.obj
                0x0000000010003520                __wrap___aeabi_dcmple
 .text.__wrap___aeabi_dcmpge
                0x0000000010003530       0x10 CMakeFiles/lab01.dir/Users/nehan/pico/pico-sdk/src/rp2_common/pico_double/double_aeabi.S.obj
                0x0000000010003530                __wrap___aeabi_dcmpge
 .text.__wrap___aeabi_dcmpgt
                0x0000000010003540        0xa CMakeFiles/lab01.dir/Users/nehan/pico/pico-sdk/src/rp2_common/pico_double/double_aeabi.S.obj
                0x0000000010003540                __wrap___aeabi_dcmpgt
 .text.__wrap___aeabi_dcmpun
                0x000000001000354a       0x1c CMakeFiles/lab01.dir/Users/nehan/pico/pico-sdk/src/rp2_common/pico_double/double_aeabi.S.obj
                0x000000001000354a                __wrap___aeabi_dcmpun
 *fill*         0x0000000010003566        0x2 
 .text.__wrap___aeabi_i2d
                0x0000000010003568       0x38 CMakeFiles/lab01.dir/Users/nehan/pico/pico-sdk/src/rp2_common/pico_double/double_aeabi.S.obj
                0x0000000010003568                __wrap___aeabi_ui2d
                0x0000000010003570                __wrap___aeabi_i2d
 .text.__wrap___aeabi_d2iz
                0x00000000100035a0       0x48 CMakeFiles/lab01.dir/Users/nehan/pico/pico-sdk/src/rp2_common/pico_double/double_aeabi.S.obj
                0x00000000100035a0                __wrap___aeabi_d2iz
                0x00000000100035a0                double2int_z
 .text.__wrap___aeabi_d2uiz
                0x00000000100035e8       0x18 CMakeFiles/lab01.dir/Users/nehan/pico/pico-sdk/src/rp2_common/pico_double/double_aeabi.S.obj
                0x00000000100035e8                double2uint
                0x00000000100035e8                __wrap___aeabi_d2uiz
 .text.__aeabi_double_init
                0x0000000010003600       0xc8 CMakeFiles/lab01.dir/Users/nehan/pico/pico-sdk/src/rp2_common/pico_double/double_init_rom.c.obj
                0x0000000010003600                __aeabi_double_init
 .text.double_table_shim_on_use_helper
                0x00000000100036c8       0x34 CMakeFiles/lab01.dir/Users/nehan/pico/pico-sdk/src/rp2_common/pico_double/double_v1_rom_shim.S.obj
                0x00000000100036c8                double_table_shim_on_use_helper
 .text.__wrap___aeabi_dsub
                0x00000000100036fc       0x10 CMakeFiles/lab01.dir/Users/nehan/pico/pico-sdk/src/rp2_common/pico_double/double_v1_rom_shim.S.obj
                0x00000000100036fc                drsub_shim
                0x0000000010003702                dsub_shim
 .text.dadd_shim
                0x000000001000370c      0x15c CMakeFiles/lab01.dir/Users/nehan/pico/pico-sdk/src/rp2_common/pico_double/double_v1_rom_shim.S.obj
                0x000000001000370c                dadd_shim
 .text.dmul_shim
                0x0000000010003868      0x15c CMakeFiles/lab01.dir/Users/nehan/pico/pico-sdk/src/rp2_common/pico_double/double_v1_rom_shim.S.obj
                0x0000000010003868                dmul_shim
 .text.ddiv_shim
                0x00000000100039c4      0x1b0 CMakeFiles/lab01.dir/Users/nehan/pico/pico-sdk/src/rp2_common/pico_double/double_v1_rom_shim.S.obj
                0x00000000100039c4                ddiv_shim
 .text.double2uint_shim
                0x0000000010003b74        0xe CMakeFiles/lab01.dir/Users/nehan/pico/pico-sdk/src/rp2_common/pico_double/double_v1_rom_shim.S.obj
                0x0000000010003b74                double2uint_shim
                0x0000000010003b76                double2ufix_shim
 *fill*         0x0000000010003b82        0x2 
 .text.double2uint64_shim
                0x0000000010003b84       0x70 CMakeFiles/lab01.dir/Users/nehan/pico/pico-sdk/src/rp2_common/pico_double/double_v1_rom_shim.S.obj
                0x0000000010003b84                double2uint64_shim
                0x0000000010003b86                double2ufix64_shim
                0x0000000010003ba6                d2fix_a
 .text.dunpacks
                0x0000000010003bf4       0x3c CMakeFiles/lab01.dir/Users/nehan/pico/pico-sdk/src/rp2_common/pico_double/double_v1_rom_shim.S.obj
                0x0000000010003bf4                dunpacks
 .text.__aeabi_lmul
                0x0000000010003c30       0x32 CMakeFiles/lab01.dir/Users/nehan/pico/pico-sdk/src/rp2_common/pico_int64_ops/pico_int64_ops_aeabi.S.obj
                0x0000000010003c30                __wrap___aeabi_lmul
 *fill*         0x0000000010003c62        0x2 
 .text.__aeabi_float_init
                0x0000000010003c64       0xfc CMakeFiles/lab01.dir/Users/nehan/pico/pico-sdk/src/rp2_common/pico_float/float_init_rom.c.obj
                0x0000000010003c64                __aeabi_float_init
 .text.float_table_shim_on_use_helper
                0x0000000010003d60       0x34 CMakeFiles/lab01.dir/Users/nehan/pico/pico-sdk/src/rp2_common/pico_float/float_v1_rom_shim.S.obj
                0x0000000010003d60                float_table_shim_on_use_helper
 .text          0x0000000010003d94       0x10 CMakeFiles/lab01.dir/Users/nehan/pico/pico-sdk/src/rp2_common/pico_mem_ops/mem_ops_aeabi.S.obj
                0x0000000010003d94                __aeabi_mem_init
 .text.memset   0x0000000010003da4        0xc CMakeFiles/lab01.dir/Users/nehan/pico/pico-sdk/src/rp2_common/pico_mem_ops/mem_ops_aeabi.S.obj
                0x0000000010003da4                __wrap_memset
 .text.memcpy   0x0000000010003db0        0xc CMakeFiles/lab01.dir/Users/nehan/pico/pico-sdk/src/rp2_common/pico_mem_ops/mem_ops_aeabi.S.obj
                0x0000000010003db0                __wrap___aeabi_memcpy
                0x0000000010003db0                __wrap_memcpy
 .text.stdio_out_chars_no_crlf
                0x0000000010003dbc        0xe CMakeFiles/lab01.dir/Users/nehan/pico/pico-sdk/src/rp2_common/pico_stdio/stdio.c.obj
 *fill*         0x0000000010003dca        0x2 
 .text.stdio_out_chars_crlf
                0x0000000010003dcc       0x80 CMakeFiles/lab01.dir/Users/nehan/pico/pico-sdk/src/rp2_common/pico_stdio/stdio.c.obj
 .text.stdio_stack_buffer_flush
                0x0000000010003e4c       0x44 CMakeFiles/lab01.dir/Users/nehan/pico/pico-sdk/src/rp2_common/pico_stdio/stdio.c.obj
 .text.stdio_buffered_printer
                0x0000000010003e90       0x20 CMakeFiles/lab01.dir/Users/nehan/pico/pico-sdk/src/rp2_common/pico_stdio/stdio.c.obj
 .text.stdout_serialize_begin
                0x0000000010003eb0       0x30 CMakeFiles/lab01.dir/Users/nehan/pico/pico-sdk/src/rp2_common/pico_stdio/stdio.c.obj
                0x0000000010003eb0                stdout_serialize_begin
 .text.stdout_serialize_end
                0x0000000010003ee0       0x10 CMakeFiles/lab01.dir/Users/nehan/pico/pico-sdk/src/rp2_common/pico_stdio/stdio.c.obj
                0x0000000010003ee0                stdout_serialize_end
 .text.stdio_put_string
                0x0000000010003ef0       0x98 CMakeFiles/lab01.dir/Users/nehan/pico/pico-sdk/src/rp2_common/pico_stdio/stdio.c.obj
 .text.stdio_flush
                0x0000000010003f88       0x20 CMakeFiles/lab01.dir/Users/nehan/pico/pico-sdk/src/rp2_common/pico_stdio/stdio.c.obj
                0x0000000010003f88                stdio_flush
 .text.__wrap_puts
                0x0000000010003fa8       0x1e CMakeFiles/lab01.dir/Users/nehan/pico/pico-sdk/src/rp2_common/pico_stdio/stdio.c.obj
                0x0000000010003fa8                __wrap_puts
 *fill*         0x0000000010003fc6        0x2 
 .text.__wrap_vprintf
                0x0000000010003fc8       0x44 CMakeFiles/lab01.dir/Users/nehan/pico/pico-sdk/src/rp2_common/pico_stdio/stdio.c.obj
                0x0000000010003fc8                __wrap_vprintf
 .text.__wrap_printf
                0x000000001000400c       0x18 CMakeFiles/lab01.dir/Users/nehan/pico/pico-sdk/src/rp2_common/pico_stdio/stdio.c.obj
                0x000000001000400c                __wrap_printf
 .text.strlen   0x0000000010004024       0x5c /usr/local/Cellar/arm-none-eabi-gcc/10.3-2021.07/gcc/bin/../lib/gcc/arm-none-eabi/10.3.1/../../../../arm-none-eabi/lib/thumb/v6-m/nofp/libg.a(lib_a-strlen-stub.o)
                0x0000000010004024                strlen
 *(.fini)
 .fini          0x0000000010004080        0x4 /usr/local/Cellar/arm-none-eabi-gcc/10.3-2021.07/gcc/bin/../lib/gcc/arm-none-eabi/10.3.1/thumb/v6-m/nofp/crti.o
                0x0000000010004080                _fini
 *fill*         0x0000000010004084        0x4 
 .fini.__stub   0x0000000010004088       0x50 linker stubs
 *crtbegin.o(.ctors)
 *crtbegin?.o(.ctors)
 *(EXCLUDE_FILE(*crtend.o *crtend?.o) .ctors)
 *(SORT_BY_NAME(.ctors.*))
 *(.ctors)
 *crtbegin.o(.dtors)
 *crtbegin?.o(.dtors)
 *(EXCLUDE_FILE(*crtend.o *crtend?.o) .dtors)
 *(SORT_BY_NAME(.dtors.*))
 *(.dtors)
 *(.eh_frame*)
 .eh_frame      0x00000000100040d8        0x0 /usr/local/Cellar/arm-none-eabi-gcc/10.3-2021.07/gcc/bin/../lib/gcc/arm-none-eabi/10.3.1/thumb/v6-m/nofp/crtbegin.o
                0x00000000100040d8                . = ALIGN (0x4)

.glue_7         0x00000000100040d8        0x0
 .glue_7        0x00000000100040d8        0x0 linker stubs

.glue_7t        0x00000000100040d8        0x0
 .glue_7t       0x00000000100040d8        0x0 linker stubs

.vfp11_veneer   0x00000000100040d8        0x0
 .vfp11_veneer  0x00000000100040d8        0x0 linker stubs

.v4_bx          0x00000000100040d8        0x0
 .v4_bx         0x00000000100040d8        0x0 linker stubs

.iplt           0x00000000100040d8        0x0
 .iplt          0x00000000100040d8        0x0 /usr/local/Cellar/arm-none-eabi-gcc/10.3-2021.07/gcc/bin/../lib/gcc/arm-none-eabi/10.3.1/thumb/v6-m/nofp/crtbegin.o

.rodata         0x00000000100040d8      0xe3c
 *(EXCLUDE_FILE(*libm.a: *libc.a:*lib_a-mem*.o *libgcc.a:) .rodata*)
 .rodata.repeating_timer_callback.str1.4
                0x00000000100040d8       0x4b CMakeFiles/lab01.dir/Users/nehan/pico/pico-sdk/src/common/pico_time/time.c.obj
 *fill*         0x0000000010004123        0x1 
 .rodata.alarm_pool_dump_key.str1.4
                0x0000000010004124       0x33 CMakeFiles/lab01.dir/Users/nehan/pico/pico-sdk/src/common/pico_time/time.c.obj
 *fill*         0x0000000010004157        0x1 
 .rodata.ph_add_child_node.str1.4
                0x0000000010004158       0x96 CMakeFiles/lab01.dir/Users/nehan/pico/pico-sdk/src/common/pico_time/time.c.obj
 *fill*         0x00000000100041ee        0x2 
 .rodata.add_alarm_under_lock.str1.4
                0x00000000100041f0       0x28 CMakeFiles/lab01.dir/Users/nehan/pico/pico-sdk/src/common/pico_time/time.c.obj
                                         0x2b (size before relaxing)
 .rodata.alarm_pool_alarm_callback.str1.4
                0x0000000010004218       0xe6 CMakeFiles/lab01.dir/Users/nehan/pico/pico-sdk/src/common/pico_time/time.c.obj
 *fill*         0x00000000100042fe        0x2 
 .rodata.alarm_pool_get_default.str1.4
                0x0000000010004300       0x21 CMakeFiles/lab01.dir/Users/nehan/pico/pico-sdk/src/common/pico_time/time.c.obj
 *fill*         0x0000000010004321        0x3 
 .rodata.sleep_until.str1.4
                0x0000000010004324       0x4d CMakeFiles/lab01.dir/Users/nehan/pico/pico-sdk/src/common/pico_time/time.c.obj
 *fill*         0x0000000010004371        0x3 
 .rodata.__func__.10
                0x0000000010004374       0x15 CMakeFiles/lab01.dir/Users/nehan/pico/pico-sdk/src/common/pico_time/time.c.obj
 *fill*         0x0000000010004389        0x3 
 .rodata.__func__.11
                0x000000001000438c       0x1a CMakeFiles/lab01.dir/Users/nehan/pico/pico-sdk/src/common/pico_time/time.c.obj
 *fill*         0x00000000100043a6        0x2 
 .rodata.__func__.12
                0x00000000100043a8        0xa CMakeFiles/lab01.dir/Users/nehan/pico/pico-sdk/src/common/pico_time/time.c.obj
 *fill*         0x00000000100043b2        0x2 
 .rodata.__func__.3
                0x00000000100043b4       0x17 CMakeFiles/lab01.dir/Users/nehan/pico/pico-sdk/src/common/pico_time/time.c.obj
 *fill*         0x00000000100043cb        0x1 
 .rodata.__func__.4
                0x00000000100043cc       0x12 CMakeFiles/lab01.dir/Users/nehan/pico/pico-sdk/src/common/pico_time/time.c.obj
 *fill*         0x00000000100043de        0x2 
 .rodata.__func__.5
                0x00000000100043e0        0xd CMakeFiles/lab01.dir/Users/nehan/pico/pico-sdk/src/common/pico_time/time.c.obj
 *fill*         0x00000000100043ed        0x3 
 .rodata.__func__.6
                0x00000000100043f0       0x12 CMakeFiles/lab01.dir/Users/nehan/pico/pico-sdk/src/common/pico_time/time.c.obj
 *fill*         0x0000000010004402        0x2 
 .rodata.__func__.7
                0x0000000010004404        0xf CMakeFiles/lab01.dir/Users/nehan/pico/pico-sdk/src/common/pico_time/time.c.obj
 *fill*         0x0000000010004413        0x1 
 .rodata.__func__.8
                0x0000000010004414        0xc CMakeFiles/lab01.dir/Users/nehan/pico/pico-sdk/src/common/pico_time/time.c.obj
 .rodata.__func__.9
                0x0000000010004420       0x15 CMakeFiles/lab01.dir/Users/nehan/pico/pico-sdk/src/common/pico_time/time.c.obj
 *fill*         0x0000000010004435        0x3 
 .rodata.hardware_alarm_claim.str1.4
                0x0000000010004438       0x22 CMakeFiles/lab01.dir/Users/nehan/pico/pico-sdk/src/rp2_common/hardware_timer/timer.c.obj
 *fill*         0x000000001000445a        0x2 
 .rodata.hardware_alarm_set_target.str1.4
                0x000000001000445c       0x65 CMakeFiles/lab01.dir/Users/nehan/pico/pico-sdk/src/rp2_common/hardware_timer/timer.c.obj
 *fill*         0x00000000100044c1        0x3 
 .rodata.__func__.0
                0x00000000100044c4       0x1a CMakeFiles/lab01.dir/Users/nehan/pico/pico-sdk/src/rp2_common/hardware_timer/timer.c.obj
 *fill*         0x00000000100044de        0x2 
 .rodata.str1.4
                0x00000000100044e0       0x89 CMakeFiles/lab01.dir/Users/nehan/pico/pico-sdk/src/common/pico_sync/mutex.c.obj
                                         0xed (size before relaxing)
 *fill*         0x0000000010004569        0x3 
 .rodata.__func__.1
                0x000000001000456c        0xb CMakeFiles/lab01.dir/Users/nehan/pico/pico-sdk/src/common/pico_sync/mutex.c.obj
 .rodata.ph_add_child_node.str1.4
                0x0000000010004577       0x96 CMakeFiles/lab01.dir/Users/nehan/pico/pico-sdk/src/common/pico_util/pheap.c.obj
 *fill*         0x0000000010004577        0x1 
 .rodata.ph_remove_any_head.str1.4
                0x0000000010004578       0x8c CMakeFiles/lab01.dir/Users/nehan/pico/pico-sdk/src/common/pico_util/pheap.c.obj
 .rodata.ph_remove_and_free_node.str1.4
                0x0000000010004604       0x26 CMakeFiles/lab01.dir/Users/nehan/pico/pico-sdk/src/common/pico_util/pheap.c.obj
 *fill*         0x000000001000462a        0x2 
 .rodata.__func__.0
                0x000000001000462c       0x18 CMakeFiles/lab01.dir/Users/nehan/pico/pico-sdk/src/common/pico_util/pheap.c.obj
 .rodata.__func__.1
                0x0000000010004644       0x13 CMakeFiles/lab01.dir/Users/nehan/pico/pico-sdk/src/common/pico_util/pheap.c.obj
 *fill*         0x0000000010004657        0x1 
 .rodata.__func__.2
                0x0000000010004658       0x12 CMakeFiles/lab01.dir/Users/nehan/pico/pico-sdk/src/common/pico_util/pheap.c.obj
 *fill*         0x000000001000466a        0x2 
 .rodata.__func__.3
                0x000000001000466c        0xc CMakeFiles/lab01.dir/Users/nehan/pico/pico-sdk/src/common/pico_util/pheap.c.obj
 .rodata.__assert_func.str1.4
                0x0000000010004678       0x3f CMakeFiles/lab01.dir/Users/nehan/pico/pico-sdk/src/rp2_common/pico_runtime/runtime.c.obj
                                         0x43 (size before relaxing)
 *fill*         0x00000000100046b7        0x1 
 .rodata.runtime_init.str1.4
                0x00000000100046b8       0x61 CMakeFiles/lab01.dir/Users/nehan/pico/pico-sdk/src/rp2_common/pico_runtime/runtime.c.obj
 *fill*         0x0000000010004719        0x3 
 .rodata.panic.str1.4
                0x000000001000471c       0x12 CMakeFiles/lab01.dir/Users/nehan/pico/pico-sdk/src/rp2_common/pico_runtime/runtime.c.obj
 *fill*         0x000000001000472e        0x2 
 .rodata.__func__.1
                0x0000000010004730        0xd CMakeFiles/lab01.dir/Users/nehan/pico/pico-sdk/src/rp2_common/pico_runtime/runtime.c.obj
 *fill*         0x000000001000473d        0x3 
 .rodata.clock_configure.str1.4
                0x0000000010004740       0x57 CMakeFiles/lab01.dir/Users/nehan/pico/pico-sdk/src/rp2_common/hardware_clocks/clocks.c.obj
 *fill*         0x0000000010004797        0x1 
 .rodata.__func__.1
                0x0000000010004798       0x10 CMakeFiles/lab01.dir/Users/nehan/pico/pico-sdk/src/rp2_common/hardware_clocks/clocks.c.obj
 .rodata.make_branch.str1.4
                0x00000000100047a8       0x4d CMakeFiles/lab01.dir/Users/nehan/pico/pico-sdk/src/rp2_common/hardware_irq/irq.c.obj
 *fill*         0x00000000100047f5        0x3 
 .rodata.irq_set_exclusive_handler.str1.4
                0x00000000100047f8       0x36 CMakeFiles/lab01.dir/Users/nehan/pico/pico-sdk/src/rp2_common/hardware_irq/irq.c.obj
 *fill*         0x000000001000482e        0x2 
 .rodata.irq_add_shared_handler.str1.4
                0x0000000010004830       0xd9 CMakeFiles/lab01.dir/Users/nehan/pico/pico-sdk/src/rp2_common/hardware_irq/irq.c.obj
 *fill*         0x0000000010004909        0x3 
 .rodata.irq_remove_handler.str1.4
                0x000000001000490c       0x2a CMakeFiles/lab01.dir/Users/nehan/pico/pico-sdk/src/rp2_common/hardware_irq/irq.c.obj
 *fill*         0x0000000010004936        0x2 
 .rodata.irq_add_tail_to_free_list.str1.4
                0x0000000010004938       0x32 CMakeFiles/lab01.dir/Users/nehan/pico/pico-sdk/src/rp2_common/hardware_irq/irq.c.obj
                                         0x3a (size before relaxing)
 *fill*         0x000000001000496a        0x2 
 .rodata.__func__.0
                0x000000001000496c       0x1a CMakeFiles/lab01.dir/Users/nehan/pico/pico-sdk/src/rp2_common/hardware_irq/irq.c.obj
 *fill*         0x0000000010004986        0x2 
 .rodata.__func__.1
                0x0000000010004988       0x17 CMakeFiles/lab01.dir/Users/nehan/pico/pico-sdk/src/rp2_common/hardware_irq/irq.c.obj
 *fill*         0x000000001000499f        0x1 
 .rodata.__func__.2
                0x00000000100049a0       0x13 CMakeFiles/lab01.dir/Users/nehan/pico/pico-sdk/src/rp2_common/hardware_irq/irq.c.obj
 *fill*         0x00000000100049b3        0x1 
 .rodata.__func__.3
                0x00000000100049b4        0xc CMakeFiles/lab01.dir/Users/nehan/pico/pico-sdk/src/rp2_common/hardware_irq/irq.c.obj
 .rodata.__func__.4
                0x00000000100049c0        0xf CMakeFiles/lab01.dir/Users/nehan/pico/pico-sdk/src/rp2_common/hardware_irq/irq.c.obj
 *fill*         0x00000000100049cf        0x1 
 .rodata.__func__.6
                0x00000000100049d0       0x1a CMakeFiles/lab01.dir/Users/nehan/pico/pico-sdk/src/rp2_common/hardware_irq/irq.c.obj
 *fill*         0x00000000100049ea        0x2 
 .rodata.pll_init.str1.4
                0x00000000100049ec       0xdb CMakeFiles/lab01.dir/Users/nehan/pico/pico-sdk/src/rp2_common/hardware_pll/pll.c.obj
 *fill*         0x0000000010004ac7        0x1 
 .rodata.__func__.0
                0x0000000010004ac8        0x9 CMakeFiles/lab01.dir/Users/nehan/pico/pico-sdk/src/rp2_common/hardware_pll/pll.c.obj
 *fill*         0x0000000010004ad1        0x3 
 .rodata._ftoa.str1.4
                0x0000000010004ad4       0x15 CMakeFiles/lab01.dir/Users/nehan/pico/pico-sdk/src/rp2_common/pico_printf/printf.c.obj
 *fill*         0x0000000010004ae9        0x3 
 .rodata._vsnprintf
                0x0000000010004aec      0x1e0 CMakeFiles/lab01.dir/Users/nehan/pico/pico-sdk/src/rp2_common/pico_printf/printf.c.obj
 *fill*         0x0000000010004ccc        0x4 
 .rodata.pow10.0
                0x0000000010004cd0       0x50 CMakeFiles/lab01.dir/Users/nehan/pico/pico-sdk/src/rp2_common/pico_printf/printf.c.obj
 .rodata.__aeabi_double_init.str1.4
                0x0000000010004d20       0xa8 CMakeFiles/lab01.dir/Users/nehan/pico/pico-sdk/src/rp2_common/pico_double/double_init_rom.c.obj
 .rodata.__func__.0
                0x0000000010004dc8       0x14 CMakeFiles/lab01.dir/Users/nehan/pico/pico-sdk/src/rp2_common/pico_double/double_init_rom.c.obj
 .rodata.__aeabi_float_init.str1.4
                0x0000000010004ddc       0x7a CMakeFiles/lab01.dir/Users/nehan/pico/pico-sdk/src/rp2_common/pico_float/float_init_rom.c.obj
                                         0x7e (size before relaxing)
 *fill*         0x0000000010004e56        0x2 
 .rodata.__func__.0
                0x0000000010004e58       0x13 CMakeFiles/lab01.dir/Users/nehan/pico/pico-sdk/src/rp2_common/pico_float/float_init_rom.c.obj
 *fill*         0x0000000010004e6b        0x1 
 .rodata.str1.4
                0x0000000010004e6c       0x74 CMakeFiles/lab01.dir/Users/nehan/pico/pico-sdk/src/rp2_common/pico_standard_link/binary_info.c.obj
                                         0x7c (size before relaxing)
 .rodata.__bi_44
                0x0000000010004ee0        0xc CMakeFiles/lab01.dir/Users/nehan/pico/pico-sdk/src/rp2_common/pico_standard_link/binary_info.c.obj
 .rodata.__bi_69
                0x0000000010004eec        0xc CMakeFiles/lab01.dir/Users/nehan/pico/pico-sdk/src/rp2_common/pico_standard_link/binary_info.c.obj
 .rodata.__bi_75
                0x0000000010004ef8        0xc CMakeFiles/lab01.dir/Users/nehan/pico/pico-sdk/src/rp2_common/pico_standard_link/binary_info.c.obj
 .rodata.__bi_81
                0x0000000010004f04        0xc CMakeFiles/lab01.dir/Users/nehan/pico/pico-sdk/src/rp2_common/pico_standard_link/binary_info.c.obj
 .rodata.crlf_str.3
                0x0000000010004f10        0x2 CMakeFiles/lab01.dir/Users/nehan/pico/pico-sdk/src/rp2_common/pico_stdio/stdio.c.obj
                0x0000000010004f14                . = ALIGN (0x4)
 *fill*         0x0000000010004f12        0x2 
 *(SORT_BY_ALIGNMENT(SORT_BY_NAME(.flashdata*)))
                0x0000000010004f14                . = ALIGN (0x4)

.rel.dyn        0x0000000010004f14        0x0
 .rel.iplt      0x0000000010004f14        0x0 /usr/local/Cellar/arm-none-eabi-gcc/10.3-2021.07/gcc/bin/../lib/gcc/arm-none-eabi/10.3.1/thumb/v6-m/nofp/crtbegin.o

.ARM.extab
 *(.ARM.extab* .gnu.linkonce.armextab.*)
                0x0000000010004f14                __exidx_start = .

.ARM.exidx
 *(.ARM.exidx* .gnu.linkonce.armexidx.*)
                0x0000000010004f14                __exidx_end = .
                0x0000000010004f14                . = ALIGN (0x4)
                0x0000000010004f14                __binary_info_start = .

.binary_info    0x0000000010004f14       0x20
 *(.binary_info.keep.*)
 .binary_info.keep.__bi_ptr22
                0x0000000010004f14        0x4 CMakeFiles/lab01.dir/Users/nehan/pico/pico-sdk/src/rp2_common/pico_standard_link/binary_info.c.obj
 .binary_info.keep.__bi_ptr30
                0x0000000010004f18        0x4 CMakeFiles/lab01.dir/Users/nehan/pico/pico-sdk/src/rp2_common/pico_standard_link/binary_info.c.obj
 .binary_info.keep.__bi_ptr38
                0x0000000010004f1c        0x4 CMakeFiles/lab01.dir/Users/nehan/pico/pico-sdk/src/rp2_common/pico_standard_link/binary_info.c.obj
 .binary_info.keep.__bi_ptr44
                0x0000000010004f20        0x4 CMakeFiles/lab01.dir/Users/nehan/pico/pico-sdk/src/rp2_common/pico_standard_link/binary_info.c.obj
 .binary_info.keep.__bi_ptr50
                0x0000000010004f24        0x4 CMakeFiles/lab01.dir/Users/nehan/pico/pico-sdk/src/rp2_common/pico_standard_link/binary_info.c.obj
 .binary_info.keep.__bi_ptr69
                0x0000000010004f28        0x4 CMakeFiles/lab01.dir/Users/nehan/pico/pico-sdk/src/rp2_common/pico_standard_link/binary_info.c.obj
 .binary_info.keep.__bi_ptr75
                0x0000000010004f2c        0x4 CMakeFiles/lab01.dir/Users/nehan/pico/pico-sdk/src/rp2_common/pico_standard_link/binary_info.c.obj
 .binary_info.keep.__bi_ptr81
                0x0000000010004f30        0x4 CMakeFiles/lab01.dir/Users/nehan/pico/pico-sdk/src/rp2_common/pico_standard_link/binary_info.c.obj
 *(.binary_info.*)
                0x0000000010004f34                __binary_info_end = .
                0x0000000010004f34                . = ALIGN (0x4)
                0x0000000010004f34                __etext = .

.ram_vector_table
                0x0000000020000000       0xc0
 *(.ram_vector_table)
 .ram_vector_table
                0x0000000020000000       0xc0 CMakeFiles/lab01.dir/Users/nehan/pico/pico-sdk/src/rp2_common/pico_runtime/runtime.c.obj
                0x0000000020000000                ram_vector_table

.data           0x00000000200000c0      0x1ac load address 0x0000000010004f34
                0x00000000200000c0                __data_start__ = .
 *(vtable)
 *(.time_critical*)
 .time_critical.mutex_enter_blocking
                0x00000000200000c0       0x48 CMakeFiles/lab01.dir/Users/nehan/pico/pico-sdk/src/common/pico_sync/mutex.c.obj
                0x00000000200000c0                mutex_enter_blocking
 .time_critical.mutex_try_enter
                0x0000000020000108       0x46 CMakeFiles/lab01.dir/Users/nehan/pico/pico-sdk/src/common/pico_sync/mutex.c.obj
                0x0000000020000108                mutex_try_enter
 *fill*         0x000000002000014e        0x2 
 .time_critical.mutex_exit
                0x0000000020000150       0x4c CMakeFiles/lab01.dir/Users/nehan/pico/pico-sdk/src/common/pico_sync/mutex.c.obj
                0x0000000020000150                mutex_exit
 *(.text*)
 .text          0x000000002000019c        0x4 /usr/local/Cellar/arm-none-eabi-gcc/10.3-2021.07/gcc/bin/../lib/gcc/arm-none-eabi/10.3.1/thumb/v6-m/nofp/libgcc.a(_dvmd_tls.o)
                0x000000002000019c                __aeabi_ldiv0
                0x000000002000019c                __aeabi_idiv0
 .text.__stub   0x00000000200001a0       0x10 linker stubs
                0x00000000200001b0                . = ALIGN (0x4)
 *(.rodata*)
                0x00000000200001b0                . = ALIGN (0x4)
 *(.data*)
 .data.striped_spin_lock_num
                0x00000000200001b0        0x1 CMakeFiles/lab01.dir/Users/nehan/pico/pico-sdk/src/rp2_common/hardware_sync/sync.c.obj
 *fill*         0x00000000200001b1        0x3 
 .data.default_alarm_pool
                0x00000000200001b4       0x18 CMakeFiles/lab01.dir/Users/nehan/pico/pico-sdk/src/common/pico_time/time.c.obj
 .data.default_alarm_pool_heap
                0x00000000200001cc       0x10 CMakeFiles/lab01.dir/Users/nehan/pico/pico-sdk/src/common/pico_time/time.c.obj
 .data          0x00000000200001dc       0x48 CMakeFiles/lab01.dir/Users/nehan/pico/pico-sdk/src/rp2_common/hardware_irq/irq_handler_chain.S.obj
                0x00000000200001dc                irq_handler_chain_slots
                0x000000002000020c                irq_handler_chain_first_slot
                0x0000000020000216                irq_handler_chain_remove_tail
 *fill*         0x0000000020000224        0xc 
 .data.aeabi_bits_funcs
                0x0000000020000230       0x10 CMakeFiles/lab01.dir/Users/nehan/pico/pico-sdk/src/rp2_common/pico_bit_ops/bit_ops_aeabi.S.obj
                0x0000000020000230                aeabi_bits_funcs
                0x0000000020000240                aeabi_bits_funcs_end
 .data.aeabi_mem_funcs
                0x0000000020000240       0x10 CMakeFiles/lab01.dir/Users/nehan/pico/pico-sdk/src/rp2_common/pico_mem_ops/mem_ops_aeabi.S.obj
                0x0000000020000240                aeabi_mem_funcs
                0x0000000020000250                aeabi_mem_funcs_end
                0x0000000020000250                . = ALIGN (0x4)
 *(.after_data.*)
                0x0000000020000250                . = ALIGN (0x4)
                0x0000000020000250                PROVIDE (__mutex_array_start = .)
 *(SORT_BY_NAME(.mutex_array.*))
 *(.mutex_array)
 .mutex_array   0x0000000020000250        0x8 CMakeFiles/lab01.dir/Users/nehan/pico/pico-sdk/src/rp2_common/pico_stdio/stdio.c.obj
                0x0000000020000258                PROVIDE (__mutex_array_end = .)
                0x0000000020000258                . = ALIGN (0x4)
                0x0000000020000258                PROVIDE (__preinit_array_start = .)
 *(SORT_BY_NAME(.preinit_array.*))
 .preinit_array.00001
                0x0000000020000258        0x4 CMakeFiles/lab01.dir/Users/nehan/pico/pico-sdk/src/rp2_common/pico_mem_ops/mem_ops_aeabi.S.obj
 .preinit_array.00010
                0x000000002000025c        0x4 CMakeFiles/lab01.dir/Users/nehan/pico/pico-sdk/src/rp2_common/pico_bit_ops/bit_ops_aeabi.S.obj
 .preinit_array.00020
                0x0000000020000260        0x4 CMakeFiles/lab01.dir/Users/nehan/pico/pico-sdk/src/rp2_common/pico_double/double_aeabi.S.obj
 .preinit_array.00020
                0x0000000020000264        0x4 CMakeFiles/lab01.dir/Users/nehan/pico/pico-sdk/src/rp2_common/pico_float/float_aeabi.S.obj
 *(.preinit_array)
                0x0000000020000268                PROVIDE (__preinit_array_end = .)
                0x0000000020000268                . = ALIGN (0x4)
                0x0000000020000268                PROVIDE (__init_array_start = .)
 *(SORT_BY_NAME(.init_array.*))
 *(.init_array)
 .init_array    0x0000000020000268        0x4 /usr/local/Cellar/arm-none-eabi-gcc/10.3-2021.07/gcc/bin/../lib/gcc/arm-none-eabi/10.3.1/thumb/v6-m/nofp/crtbegin.o
                0x000000002000026c                PROVIDE (__init_array_end = .)
                0x000000002000026c                . = ALIGN (0x4)
                [!provide]                        PROVIDE (__fini_array_start = .)
 *(SORT_BY_NAME(.fini_array.*))
 *(.fini_array)
                [!provide]                        PROVIDE (__fini_array_end = .)
 *(.jcr)
                0x000000002000026c                . = ALIGN (0x4)
                0x000000002000026c                __data_end__ = .

.igot.plt       0x000000002000026c        0x0 load address 0x00000000100050e0
 .igot.plt      0x000000002000026c        0x0 /usr/local/Cellar/arm-none-eabi-gcc/10.3-2021.07/gcc/bin/../lib/gcc/arm-none-eabi/10.3.1/thumb/v6-m/nofp/crtbegin.o

.uninitialized_data
                0x000000002000026c        0x0 load address 0x00000000100050e0
                0x000000002000026c                . = ALIGN (0x4)
 *(.uninitialized_data*)

.scratch_x      0x0000000020040000        0x0 load address 0x00000000100050e0
                0x0000000020040000                __scratch_x_start__ = .
 *(.scratch_x.*)
                0x0000000020040000                . = ALIGN (0x4)
                0x0000000020040000                __scratch_x_end__ = .
                0x00000000100050e0                __scratch_x_source__ = LOADADDR (.scratch_x)

.scratch_y      0x0000000020041000        0x0 load address 0x00000000100050e0
                0x0000000020041000                __scratch_y_start__ = .
 *(.scratch_y.*)
                0x0000000020041000                . = ALIGN (0x4)
                0x0000000020041000                __scratch_y_end__ = .
                0x00000000100050e0                __scratch_y_source__ = LOADADDR (.scratch_y)

.bss            0x0000000020000270      0x3c8
                0x0000000020000270                . = ALIGN (0x4)
                0x0000000020000270                __bss_start__ = .
 *(SORT_BY_ALIGNMENT(SORT_BY_NAME(.bss*)))
 .bss.default_alarm_pool_entries
                0x0000000020000270      0x100 CMakeFiles/lab01.dir/Users/nehan/pico/pico-sdk/src/common/pico_time/time.c.obj
 .bss           0x0000000020000370       0x1c /usr/local/Cellar/arm-none-eabi-gcc/10.3-2021.07/gcc/bin/../lib/gcc/arm-none-eabi/10.3.1/thumb/v6-m/nofp/crtbegin.o
 .bss.alarm_callbacks
                0x000000002000038c       0x10 CMakeFiles/lab01.dir/Users/nehan/pico/pico-sdk/src/rp2_common/hardware_timer/timer.c.obj
 .bss.configured_freq
                0x000000002000039c       0x28 CMakeFiles/lab01.dir/Users/nehan/pico/pico-sdk/src/rp2_common/hardware_clocks/clocks.c.obj
 .bss.default_alarm_pool_entry_ids_high
                0x00000000200003c4       0x10 CMakeFiles/lab01.dir/Users/nehan/pico/pico-sdk/src/common/pico_time/time.c.obj
 .bss.default_alarm_pool_heap_nodes
                0x00000000200003d4       0x30 CMakeFiles/lab01.dir/Users/nehan/pico/pico-sdk/src/common/pico_time/time.c.obj
 .bss.drivers   0x0000000020000404        0x4 CMakeFiles/lab01.dir/Users/nehan/pico/pico-sdk/src/rp2_common/pico_stdio/stdio.c.obj
 .bss.filter    0x0000000020000408        0x4 CMakeFiles/lab01.dir/Users/nehan/pico/pico-sdk/src/rp2_common/pico_stdio/stdio.c.obj
 .bss.pools     0x000000002000040c       0x10 CMakeFiles/lab01.dir/Users/nehan/pico/pico-sdk/src/common/pico_time/time.c.obj
 .bss.sd_table  0x000000002000041c      0x100 CMakeFiles/lab01.dir/Users/nehan/pico/pico-sdk/src/rp2_common/pico_double/double_init_rom.c.obj
                0x000000002000041c                sd_table
 .bss.sf_clz_func
                0x000000002000051c        0x4 CMakeFiles/lab01.dir/Users/nehan/pico/pico-sdk/src/rp2_common/pico_double/double_init_rom.c.obj
                0x000000002000051c                sf_clz_func
 .bss.sf_table  0x0000000020000520      0x100 CMakeFiles/lab01.dir/Users/nehan/pico/pico-sdk/src/rp2_common/pico_float/float_init_rom.c.obj
                0x0000000020000520                sf_table
 .bss.sleep_notifier
                0x0000000020000620        0x4 CMakeFiles/lab01.dir/Users/nehan/pico/pico-sdk/src/common/pico_time/time.c.obj
 .bss.target_hi
                0x0000000020000624       0x10 CMakeFiles/lab01.dir/Users/nehan/pico/pico-sdk/src/rp2_common/hardware_timer/timer.c.obj
 .bss.claimed   0x0000000020000634        0x1 CMakeFiles/lab01.dir/Users/nehan/pico/pico-sdk/src/rp2_common/hardware_timer/timer.c.obj
 .bss.irq_hander_chain_free_slot_head
                0x0000000020000635        0x1 CMakeFiles/lab01.dir/Users/nehan/pico/pico-sdk/src/rp2_common/hardware_irq/irq.c.obj
 .bss.timer_callbacks_pending
                0x0000000020000636        0x1 CMakeFiles/lab01.dir/Users/nehan/pico/pico-sdk/src/rp2_common/hardware_timer/timer.c.obj
 *(COMMON)
                0x0000000020000638                . = ALIGN (0x4)
 *fill*         0x0000000020000637        0x1 
                0x0000000020000638                __bss_end__ = .

.heap           0x0000000020000638      0x800
                0x0000000020000638                __end__ = .
                0x0000000020000638                end = __end__
 *(.heap*)
 .heap          0x0000000020000638      0x800 CMakeFiles/lab01.dir/Users/nehan/pico/pico-sdk/src/rp2_common/pico_standard_link/crt0.S.obj
                0x0000000020000e38                __HeapLimit = .

.stack1_dummy   0x0000000020040000        0x0
 *(.stack1*)

.stack_dummy    0x0000000020041000      0x800
 *(.stack*)
 .stack         0x0000000020041000      0x800 CMakeFiles/lab01.dir/Users/nehan/pico/pico-sdk/src/rp2_common/pico_standard_link/crt0.S.obj

.flash_end      0x00000000100050e0        0x0
                0x00000000100050e0                __flash_binary_end = .
                0x0000000020040000                __StackLimit = (ORIGIN (RAM) + LENGTH (RAM))
                0x0000000020041000                __StackOneTop = (ORIGIN (SCRATCH_X) + LENGTH (SCRATCH_X))
                0x0000000020042000                __StackTop = (ORIGIN (SCRATCH_Y) + LENGTH (SCRATCH_Y))
                0x0000000020041000                __StackOneBottom = (__StackOneTop - SIZEOF (.stack1_dummy))
                0x0000000020041800                __StackBottom = (__StackTop - SIZEOF (.stack_dummy))
                0x0000000020042000                PROVIDE (__stack = __StackTop)
                0x0000000000000001                ASSERT ((__StackLimit >= __HeapLimit), region RAM overflowed)
                0x0000000000000001                ASSERT (((__binary_info_header_end - __logical_binary_start) <= 0x100), Binary info must be in first 256 bytes of the binary)
LOAD CMakeFiles/lab01.dir/lab01.c.obj
LOAD CMakeFiles/lab01.dir/Users/nehan/pico/pico-sdk/src/rp2_common/pico_stdlib/stdlib.c.obj
LOAD CMakeFiles/lab01.dir/Users/nehan/pico/pico-sdk/src/rp2_common/hardware_gpio/gpio.c.obj
LOAD CMakeFiles/lab01.dir/Users/nehan/pico/pico-sdk/src/rp2_common/hardware_claim/claim.c.obj
LOAD CMakeFiles/lab01.dir/Users/nehan/pico/pico-sdk/src/rp2_common/pico_platform/platform.c.obj
LOAD CMakeFiles/lab01.dir/Users/nehan/pico/pico-sdk/src/rp2_common/hardware_sync/sync.c.obj
LOAD CMakeFiles/lab01.dir/Users/nehan/pico/pico-sdk/src/rp2_common/hardware_uart/uart.c.obj
LOAD CMakeFiles/lab01.dir/Users/nehan/pico/pico-sdk/src/rp2_common/hardware_divider/divider.S.obj
LOAD CMakeFiles/lab01.dir/Users/nehan/pico/pico-sdk/src/common/pico_time/time.c.obj
LOAD CMakeFiles/lab01.dir/Users/nehan/pico/pico-sdk/src/common/pico_time/timeout_helper.c.obj
LOAD CMakeFiles/lab01.dir/Users/nehan/pico/pico-sdk/src/rp2_common/hardware_timer/timer.c.obj
LOAD CMakeFiles/lab01.dir/Users/nehan/pico/pico-sdk/src/common/pico_sync/sem.c.obj
LOAD CMakeFiles/lab01.dir/Users/nehan/pico/pico-sdk/src/common/pico_sync/lock_core.c.obj
LOAD CMakeFiles/lab01.dir/Users/nehan/pico/pico-sdk/src/common/pico_sync/mutex.c.obj
LOAD CMakeFiles/lab01.dir/Users/nehan/pico/pico-sdk/src/common/pico_sync/critical_section.c.obj
LOAD CMakeFiles/lab01.dir/Users/nehan/pico/pico-sdk/src/common/pico_util/datetime.c.obj
LOAD CMakeFiles/lab01.dir/Users/nehan/pico/pico-sdk/src/common/pico_util/pheap.c.obj
LOAD CMakeFiles/lab01.dir/Users/nehan/pico/pico-sdk/src/common/pico_util/queue.c.obj
LOAD CMakeFiles/lab01.dir/Users/nehan/pico/pico-sdk/src/rp2_common/pico_runtime/runtime.c.obj
LOAD CMakeFiles/lab01.dir/Users/nehan/pico/pico-sdk/src/rp2_common/hardware_clocks/clocks.c.obj
LOAD CMakeFiles/lab01.dir/Users/nehan/pico/pico-sdk/src/rp2_common/hardware_irq/irq.c.obj
LOAD CMakeFiles/lab01.dir/Users/nehan/pico/pico-sdk/src/rp2_common/hardware_irq/irq_handler_chain.S.obj
LOAD CMakeFiles/lab01.dir/Users/nehan/pico/pico-sdk/src/rp2_common/hardware_pll/pll.c.obj
LOAD CMakeFiles/lab01.dir/Users/nehan/pico/pico-sdk/src/rp2_common/hardware_vreg/vreg.c.obj
LOAD CMakeFiles/lab01.dir/Users/nehan/pico/pico-sdk/src/rp2_common/hardware_watchdog/watchdog.c.obj
LOAD CMakeFiles/lab01.dir/Users/nehan/pico/pico-sdk/src/rp2_common/hardware_xosc/xosc.c.obj
LOAD CMakeFiles/lab01.dir/Users/nehan/pico/pico-sdk/src/rp2_common/pico_printf/printf.c.obj
LOAD CMakeFiles/lab01.dir/Users/nehan/pico/pico-sdk/src/rp2_common/pico_bit_ops/bit_ops_aeabi.S.obj
LOAD CMakeFiles/lab01.dir/Users/nehan/pico/pico-sdk/src/rp2_common/pico_bootrom/bootrom.c.obj
LOAD CMakeFiles/lab01.dir/Users/nehan/pico/pico-sdk/src/rp2_common/pico_divider/divider.S.obj
LOAD CMakeFiles/lab01.dir/Users/nehan/pico/pico-sdk/src/rp2_common/pico_double/double_aeabi.S.obj
LOAD CMakeFiles/lab01.dir/Users/nehan/pico/pico-sdk/src/rp2_common/pico_double/double_init_rom.c.obj
LOAD CMakeFiles/lab01.dir/Users/nehan/pico/pico-sdk/src/rp2_common/pico_double/double_math.c.obj
LOAD CMakeFiles/lab01.dir/Users/nehan/pico/pico-sdk/src/rp2_common/pico_double/double_v1_rom_shim.S.obj
LOAD CMakeFiles/lab01.dir/Users/nehan/pico/pico-sdk/src/rp2_common/pico_int64_ops/pico_int64_ops_aeabi.S.obj
LOAD CMakeFiles/lab01.dir/Users/nehan/pico/pico-sdk/src/rp2_common/pico_float/float_aeabi.S.obj
LOAD CMakeFiles/lab01.dir/Users/nehan/pico/pico-sdk/src/rp2_common/pico_float/float_init_rom.c.obj
LOAD CMakeFiles/lab01.dir/Users/nehan/pico/pico-sdk/src/rp2_common/pico_float/float_math.c.obj
LOAD CMakeFiles/lab01.dir/Users/nehan/pico/pico-sdk/src/rp2_common/pico_float/float_v1_rom_shim.S.obj
LOAD CMakeFiles/lab01.dir/Users/nehan/pico/pico-sdk/src/rp2_common/pico_malloc/pico_malloc.c.obj
LOAD CMakeFiles/lab01.dir/Users/nehan/pico/pico-sdk/src/rp2_common/pico_mem_ops/mem_ops_aeabi.S.obj
LOAD CMakeFiles/lab01.dir/Users/nehan/pico/pico-sdk/src/rp2_common/pico_standard_link/crt0.S.obj
LOAD CMakeFiles/lab01.dir/Users/nehan/pico/pico-sdk/src/rp2_common/pico_standard_link/new_delete.cpp.obj
LOAD CMakeFiles/lab01.dir/Users/nehan/pico/pico-sdk/src/rp2_common/pico_standard_link/binary_info.c.obj
LOAD CMakeFiles/lab01.dir/Users/nehan/pico/pico-sdk/src/rp2_common/pico_stdio/stdio.c.obj
LOAD CMakeFiles/lab01.dir/Users/nehan/pico/pico-sdk/src/rp2_common/pico_stdio_uart/stdio_uart.c.obj
LOAD /var/folders/zy/ckc6q8vx4c9dg1fhvgwx2yhh0000gp/T//ccjGFMoh.o
LOAD /usr/local/Cellar/arm-none-eabi-gcc/10.3-2021.07/gcc/bin/../lib/gcc/arm-none-eabi/10.3.1/../../../../arm-none-eabi/lib/thumb/v6-m/nofp/libstdc++.a
LOAD /usr/local/Cellar/arm-none-eabi-gcc/10.3-2021.07/gcc/bin/../lib/gcc/arm-none-eabi/10.3.1/../../../../arm-none-eabi/lib/thumb/v6-m/nofp/libm.a
START GROUP
LOAD /usr/local/Cellar/arm-none-eabi-gcc/10.3-2021.07/gcc/bin/../lib/gcc/arm-none-eabi/10.3.1/thumb/v6-m/nofp/libgcc.a
LOAD /usr/local/Cellar/arm-none-eabi-gcc/10.3-2021.07/gcc/bin/../lib/gcc/arm-none-eabi/10.3.1/../../../../arm-none-eabi/lib/thumb/v6-m/nofp/libg.a
LOAD /usr/local/Cellar/arm-none-eabi-gcc/10.3-2021.07/gcc/bin/../lib/gcc/arm-none-eabi/10.3.1/../../../../arm-none-eabi/lib/thumb/v6-m/nofp/libc.a
END GROUP
START GROUP
LOAD /usr/local/Cellar/arm-none-eabi-gcc/10.3-2021.07/gcc/bin/../lib/gcc/arm-none-eabi/10.3.1/thumb/v6-m/nofp/libgcc.a
LOAD /usr/local/Cellar/arm-none-eabi-gcc/10.3-2021.07/gcc/bin/../lib/gcc/arm-none-eabi/10.3.1/../../../../arm-none-eabi/lib/thumb/v6-m/nofp/libc.a
LOAD /usr/local/Cellar/arm-none-eabi-gcc/10.3-2021.07/gcc/bin/../lib/gcc/arm-none-eabi/10.3.1/../../../../arm-none-eabi/lib/thumb/v6-m/nofp/libnosys.a
END GROUP
LOAD /usr/local/Cellar/arm-none-eabi-gcc/10.3-2021.07/gcc/bin/../lib/gcc/arm-none-eabi/10.3.1/thumb/v6-m/nofp/crtend.o
LOAD /usr/local/Cellar/arm-none-eabi-gcc/10.3-2021.07/gcc/bin/../lib/gcc/arm-none-eabi/10.3.1/thumb/v6-m/nofp/crtn.o
OUTPUT(lab01.elf elf32-littlearm)
LOAD linker stubs

.ARM.attributes
                0x0000000000000000       0x28
 .ARM.attributes
                0x0000000000000000       0x1e /usr/local/Cellar/arm-none-eabi-gcc/10.3-2021.07/gcc/bin/../lib/gcc/arm-none-eabi/10.3.1/thumb/v6-m/nofp/crti.o
 .ARM.attributes
                0x000000000000001e       0x2c /usr/local/Cellar/arm-none-eabi-gcc/10.3-2021.07/gcc/bin/../lib/gcc/arm-none-eabi/10.3.1/thumb/v6-m/nofp/crtbegin.o
 .ARM.attributes
                0x000000000000004a       0x2c CMakeFiles/lab01.dir/lab01.c.obj
 .ARM.attributes
                0x0000000000000076       0x2c CMakeFiles/lab01.dir/Users/nehan/pico/pico-sdk/src/rp2_common/hardware_gpio/gpio.c.obj
 .ARM.attributes
                0x00000000000000a2       0x2c CMakeFiles/lab01.dir/Users/nehan/pico/pico-sdk/src/rp2_common/hardware_claim/claim.c.obj
 .ARM.attributes
                0x00000000000000ce       0x2c CMakeFiles/lab01.dir/Users/nehan/pico/pico-sdk/src/rp2_common/pico_platform/platform.c.obj
 .ARM.attributes
                0x00000000000000fa       0x2c CMakeFiles/lab01.dir/Users/nehan/pico/pico-sdk/src/rp2_common/hardware_sync/sync.c.obj
 .ARM.attributes
                0x0000000000000126       0x2c CMakeFiles/lab01.dir/Users/nehan/pico/pico-sdk/src/common/pico_time/time.c.obj
 .ARM.attributes
                0x0000000000000152       0x2c CMakeFiles/lab01.dir/Users/nehan/pico/pico-sdk/src/rp2_common/hardware_timer/timer.c.obj
 .ARM.attributes
                0x000000000000017e       0x2c CMakeFiles/lab01.dir/Users/nehan/pico/pico-sdk/src/common/pico_sync/lock_core.c.obj
 .ARM.attributes
                0x00000000000001aa       0x2c CMakeFiles/lab01.dir/Users/nehan/pico/pico-sdk/src/common/pico_sync/mutex.c.obj
 .ARM.attributes
                0x00000000000001d6       0x2c CMakeFiles/lab01.dir/Users/nehan/pico/pico-sdk/src/common/pico_util/pheap.c.obj
 .ARM.attributes
                0x0000000000000202       0x2c CMakeFiles/lab01.dir/Users/nehan/pico/pico-sdk/src/rp2_common/pico_runtime/runtime.c.obj
 .ARM.attributes
                0x000000000000022e       0x2c CMakeFiles/lab01.dir/Users/nehan/pico/pico-sdk/src/rp2_common/hardware_clocks/clocks.c.obj
 .ARM.attributes
                0x000000000000025a       0x2c CMakeFiles/lab01.dir/Users/nehan/pico/pico-sdk/src/rp2_common/hardware_irq/irq.c.obj
 .ARM.attributes
                0x0000000000000286       0x22 CMakeFiles/lab01.dir/Users/nehan/pico/pico-sdk/src/rp2_common/hardware_irq/irq_handler_chain.S.obj
 .ARM.attributes
                0x00000000000002a8       0x2c CMakeFiles/lab01.dir/Users/nehan/pico/pico-sdk/src/rp2_common/hardware_pll/pll.c.obj
 .ARM.attributes
                0x00000000000002d4       0x2c CMakeFiles/lab01.dir/Users/nehan/pico/pico-sdk/src/rp2_common/hardware_watchdog/watchdog.c.obj
 .ARM.attributes
                0x0000000000000300       0x2c CMakeFiles/lab01.dir/Users/nehan/pico/pico-sdk/src/rp2_common/hardware_xosc/xosc.c.obj
 .ARM.attributes
                0x000000000000032c       0x2c CMakeFiles/lab01.dir/Users/nehan/pico/pico-sdk/src/rp2_common/pico_printf/printf.c.obj
 .ARM.attributes
                0x0000000000000358       0x22 CMakeFiles/lab01.dir/Users/nehan/pico/pico-sdk/src/rp2_common/pico_bit_ops/bit_ops_aeabi.S.obj
 .ARM.attributes
                0x000000000000037a       0x2c CMakeFiles/lab01.dir/Users/nehan/pico/pico-sdk/src/rp2_common/pico_bootrom/bootrom.c.obj
 .ARM.attributes
                0x00000000000003a6       0x22 CMakeFiles/lab01.dir/Users/nehan/pico/pico-sdk/src/rp2_common/pico_divider/divider.S.obj
 .ARM.attributes
                0x00000000000003c8       0x22 CMakeFiles/lab01.dir/Users/nehan/pico/pico-sdk/src/rp2_common/pico_double/double_aeabi.S.obj
 .ARM.attributes
                0x00000000000003ea       0x2c CMakeFiles/lab01.dir/Users/nehan/pico/pico-sdk/src/rp2_common/pico_double/double_init_rom.c.obj
 .ARM.attributes
                0x0000000000000416       0x22 CMakeFiles/lab01.dir/Users/nehan/pico/pico-sdk/src/rp2_common/pico_double/double_v1_rom_shim.S.obj
 .ARM.attributes
                0x0000000000000438       0x22 CMakeFiles/lab01.dir/Users/nehan/pico/pico-sdk/src/rp2_common/pico_int64_ops/pico_int64_ops_aeabi.S.obj
 .ARM.attributes
                0x000000000000045a       0x22 CMakeFiles/lab01.dir/Users/nehan/pico/pico-sdk/src/rp2_common/pico_float/float_aeabi.S.obj
 .ARM.attributes
                0x000000000000047c       0x2c CMakeFiles/lab01.dir/Users/nehan/pico/pico-sdk/src/rp2_common/pico_float/float_init_rom.c.obj
 .ARM.attributes
                0x00000000000004a8       0x22 CMakeFiles/lab01.dir/Users/nehan/pico/pico-sdk/src/rp2_common/pico_float/float_v1_rom_shim.S.obj
 .ARM.attributes
                0x00000000000004ca       0x22 CMakeFiles/lab01.dir/Users/nehan/pico/pico-sdk/src/rp2_common/pico_mem_ops/mem_ops_aeabi.S.obj
 .ARM.attributes
                0x00000000000004ec       0x22 CMakeFiles/lab01.dir/Users/nehan/pico/pico-sdk/src/rp2_common/pico_standard_link/crt0.S.obj
 .ARM.attributes
                0x000000000000050e       0x32 CMakeFiles/lab01.dir/Users/nehan/pico/pico-sdk/src/rp2_common/pico_standard_link/binary_info.c.obj
 .ARM.attributes
                0x0000000000000540       0x2c CMakeFiles/lab01.dir/Users/nehan/pico/pico-sdk/src/rp2_common/pico_stdio/stdio.c.obj
 .ARM.attributes
                0x000000000000056c       0x22 /var/folders/zy/ckc6q8vx4c9dg1fhvgwx2yhh0000gp/T//ccjGFMoh.o
 .ARM.attributes
                0x000000000000058e       0x1e /usr/local/Cellar/arm-none-eabi-gcc/10.3-2021.07/gcc/bin/../lib/gcc/arm-none-eabi/10.3.1/thumb/v6-m/nofp/libgcc.a(_dvmd_tls.o)
 .ARM.attributes
                0x00000000000005ac       0x2c /usr/local/Cellar/arm-none-eabi-gcc/10.3-2021.07/gcc/bin/../lib/gcc/arm-none-eabi/10.3.1/../../../../arm-none-eabi/lib/thumb/v6-m/nofp/libg.a(lib_a-strlen-stub.o)

.comment        0x0000000000000000       0x49
 .comment       0x0000000000000000       0x49 CMakeFiles/lab01.dir/lab01.c.obj
                                         0x4a (size before relaxing)
 .comment       0x0000000000000049       0x4a CMakeFiles/lab01.dir/Users/nehan/pico/pico-sdk/src/rp2_common/hardware_gpio/gpio.c.obj
 .comment       0x0000000000000049       0x4a CMakeFiles/lab01.dir/Users/nehan/pico/pico-sdk/src/rp2_common/hardware_claim/claim.c.obj
 .comment       0x0000000000000049       0x4a CMakeFiles/lab01.dir/Users/nehan/pico/pico-sdk/src/rp2_common/pico_platform/platform.c.obj
 .comment       0x0000000000000049       0x4a CMakeFiles/lab01.dir/Users/nehan/pico/pico-sdk/src/rp2_common/hardware_sync/sync.c.obj
 .comment       0x0000000000000049       0x4a CMakeFiles/lab01.dir/Users/nehan/pico/pico-sdk/src/common/pico_time/time.c.obj
 .comment       0x0000000000000049       0x4a CMakeFiles/lab01.dir/Users/nehan/pico/pico-sdk/src/rp2_common/hardware_timer/timer.c.obj
 .comment       0x0000000000000049       0x4a CMakeFiles/lab01.dir/Users/nehan/pico/pico-sdk/src/common/pico_sync/lock_core.c.obj
 .comment       0x0000000000000049       0x4a CMakeFiles/lab01.dir/Users/nehan/pico/pico-sdk/src/common/pico_sync/mutex.c.obj
 .comment       0x0000000000000049       0x4a CMakeFiles/lab01.dir/Users/nehan/pico/pico-sdk/src/common/pico_util/pheap.c.obj
 .comment       0x0000000000000049       0x4a CMakeFiles/lab01.dir/Users/nehan/pico/pico-sdk/src/rp2_common/pico_runtime/runtime.c.obj
 .comment       0x0000000000000049       0x4a CMakeFiles/lab01.dir/Users/nehan/pico/pico-sdk/src/rp2_common/hardware_clocks/clocks.c.obj
 .comment       0x0000000000000049       0x4a CMakeFiles/lab01.dir/Users/nehan/pico/pico-sdk/src/rp2_common/hardware_irq/irq.c.obj
 .comment       0x0000000000000049       0x4a CMakeFiles/lab01.dir/Users/nehan/pico/pico-sdk/src/rp2_common/hardware_pll/pll.c.obj
 .comment       0x0000000000000049       0x4a CMakeFiles/lab01.dir/Users/nehan/pico/pico-sdk/src/rp2_common/hardware_watchdog/watchdog.c.obj
 .comment       0x0000000000000049       0x4a CMakeFiles/lab01.dir/Users/nehan/pico/pico-sdk/src/rp2_common/hardware_xosc/xosc.c.obj
 .comment       0x0000000000000049       0x4a CMakeFiles/lab01.dir/Users/nehan/pico/pico-sdk/src/rp2_common/pico_printf/printf.c.obj
 .comment       0x0000000000000049       0x4a CMakeFiles/lab01.dir/Users/nehan/pico/pico-sdk/src/rp2_common/pico_bootrom/bootrom.c.obj
 .comment       0x0000000000000049       0x4a CMakeFiles/lab01.dir/Users/nehan/pico/pico-sdk/src/rp2_common/pico_double/double_init_rom.c.obj
 .comment       0x0000000000000049       0x4a CMakeFiles/lab01.dir/Users/nehan/pico/pico-sdk/src/rp2_common/pico_float/float_init_rom.c.obj
 .comment       0x0000000000000049       0x4a CMakeFiles/lab01.dir/Users/nehan/pico/pico-sdk/src/rp2_common/pico_standard_link/binary_info.c.obj
 .comment       0x0000000000000049       0x4a CMakeFiles/lab01.dir/Users/nehan/pico/pico-sdk/src/rp2_common/pico_stdio/stdio.c.obj

.debug_info     0x0000000000000000    0x12260
 .debug_info    0x0000000000000000      0x645 CMakeFiles/lab01.dir/lab01.c.obj
 .debug_info    0x0000000000000645     0x1491 CMakeFiles/lab01.dir/Users/nehan/pico/pico-sdk/src/rp2_common/hardware_gpio/gpio.c.obj
 .debug_info    0x0000000000001ad6      0x6bb CMakeFiles/lab01.dir/Users/nehan/pico/pico-sdk/src/rp2_common/hardware_claim/claim.c.obj
 .debug_info    0x0000000000002191      0x1e3 CMakeFiles/lab01.dir/Users/nehan/pico/pico-sdk/src/rp2_common/pico_platform/platform.c.obj
 .debug_info    0x0000000000002374      0x58e CMakeFiles/lab01.dir/Users/nehan/pico/pico-sdk/src/rp2_common/hardware_sync/sync.c.obj
 .debug_info    0x0000000000002902     0x3b3b CMakeFiles/lab01.dir/Users/nehan/pico/pico-sdk/src/common/pico_time/time.c.obj
 .debug_info    0x000000000000643d     0x1134 CMakeFiles/lab01.dir/Users/nehan/pico/pico-sdk/src/rp2_common/hardware_timer/timer.c.obj
 .debug_info    0x0000000000007571      0x1a4 CMakeFiles/lab01.dir/Users/nehan/pico/pico-sdk/src/common/pico_sync/lock_core.c.obj
 .debug_info    0x0000000000007715     0x2022 CMakeFiles/lab01.dir/Users/nehan/pico/pico-sdk/src/common/pico_sync/mutex.c.obj
 .debug_info    0x0000000000009737     0x120c CMakeFiles/lab01.dir/Users/nehan/pico/pico-sdk/src/common/pico_util/pheap.c.obj
 .debug_info    0x000000000000a943      0xa87 CMakeFiles/lab01.dir/Users/nehan/pico/pico-sdk/src/rp2_common/pico_runtime/runtime.c.obj
 .debug_info    0x000000000000b3ca      0xf6c CMakeFiles/lab01.dir/Users/nehan/pico/pico-sdk/src/rp2_common/hardware_clocks/clocks.c.obj
 .debug_info    0x000000000000c336     0x1968 CMakeFiles/lab01.dir/Users/nehan/pico/pico-sdk/src/rp2_common/hardware_irq/irq.c.obj
 .debug_info    0x000000000000dc9e      0x51b CMakeFiles/lab01.dir/Users/nehan/pico/pico-sdk/src/rp2_common/hardware_pll/pll.c.obj
 .debug_info    0x000000000000e1b9      0x4ee CMakeFiles/lab01.dir/Users/nehan/pico/pico-sdk/src/rp2_common/hardware_watchdog/watchdog.c.obj
 .debug_info    0x000000000000e6a7      0x1d8 CMakeFiles/lab01.dir/Users/nehan/pico/pico-sdk/src/rp2_common/hardware_xosc/xosc.c.obj
 .debug_info    0x000000000000e87f     0x1a5f CMakeFiles/lab01.dir/Users/nehan/pico/pico-sdk/src/rp2_common/pico_printf/printf.c.obj
 .debug_info    0x00000000000102de       0x22 CMakeFiles/lab01.dir/Users/nehan/pico/pico-sdk/src/rp2_common/pico_bit_ops/bit_ops_aeabi.S.obj
 .debug_info    0x0000000000010300      0x27c CMakeFiles/lab01.dir/Users/nehan/pico/pico-sdk/src/rp2_common/pico_bootrom/bootrom.c.obj
 .debug_info    0x000000000001057c       0x22 CMakeFiles/lab01.dir/Users/nehan/pico/pico-sdk/src/rp2_common/pico_divider/divider.S.obj
 .debug_info    0x000000000001059e       0x22 CMakeFiles/lab01.dir/Users/nehan/pico/pico-sdk/src/rp2_common/pico_double/double_aeabi.S.obj
 .debug_info    0x00000000000105c0      0x2d1 CMakeFiles/lab01.dir/Users/nehan/pico/pico-sdk/src/rp2_common/pico_double/double_init_rom.c.obj
 .debug_info    0x0000000000010891       0x22 CMakeFiles/lab01.dir/Users/nehan/pico/pico-sdk/src/rp2_common/pico_double/double_v1_rom_shim.S.obj
 .debug_info    0x00000000000108b3       0x26 CMakeFiles/lab01.dir/Users/nehan/pico/pico-sdk/src/rp2_common/pico_int64_ops/pico_int64_ops_aeabi.S.obj
 .debug_info    0x00000000000108d9       0x22 CMakeFiles/lab01.dir/Users/nehan/pico/pico-sdk/src/rp2_common/pico_float/float_aeabi.S.obj
 .debug_info    0x00000000000108fb      0x2eb CMakeFiles/lab01.dir/Users/nehan/pico/pico-sdk/src/rp2_common/pico_float/float_init_rom.c.obj
 .debug_info    0x0000000000010be6       0x22 CMakeFiles/lab01.dir/Users/nehan/pico/pico-sdk/src/rp2_common/pico_float/float_v1_rom_shim.S.obj
 .debug_info    0x0000000000010c08       0x22 CMakeFiles/lab01.dir/Users/nehan/pico/pico-sdk/src/rp2_common/pico_mem_ops/mem_ops_aeabi.S.obj
 .debug_info    0x0000000000010c2a       0x22 CMakeFiles/lab01.dir/Users/nehan/pico/pico-sdk/src/rp2_common/pico_standard_link/crt0.S.obj
 .debug_info    0x0000000000010c4c      0x327 CMakeFiles/lab01.dir/Users/nehan/pico/pico-sdk/src/rp2_common/pico_standard_link/binary_info.c.obj
 .debug_info    0x0000000000010f73     0x12ed CMakeFiles/lab01.dir/Users/nehan/pico/pico-sdk/src/rp2_common/pico_stdio/stdio.c.obj

.debug_abbrev   0x0000000000000000     0x391f
 .debug_abbrev  0x0000000000000000      0x1d7 CMakeFiles/lab01.dir/lab01.c.obj
 .debug_abbrev  0x00000000000001d7      0x2c4 CMakeFiles/lab01.dir/Users/nehan/pico/pico-sdk/src/rp2_common/hardware_gpio/gpio.c.obj
 .debug_abbrev  0x000000000000049b      0x2e9 CMakeFiles/lab01.dir/Users/nehan/pico/pico-sdk/src/rp2_common/hardware_claim/claim.c.obj
 .debug_abbrev  0x0000000000000784       0xeb CMakeFiles/lab01.dir/Users/nehan/pico/pico-sdk/src/rp2_common/pico_platform/platform.c.obj
 .debug_abbrev  0x000000000000086f      0x21b CMakeFiles/lab01.dir/Users/nehan/pico/pico-sdk/src/rp2_common/hardware_sync/sync.c.obj
 .debug_abbrev  0x0000000000000a8a      0x54d CMakeFiles/lab01.dir/Users/nehan/pico/pico-sdk/src/common/pico_time/time.c.obj
 .debug_abbrev  0x0000000000000fd7      0x3a2 CMakeFiles/lab01.dir/Users/nehan/pico/pico-sdk/src/rp2_common/hardware_timer/timer.c.obj
 .debug_abbrev  0x0000000000001379      0x116 CMakeFiles/lab01.dir/Users/nehan/pico/pico-sdk/src/common/pico_sync/lock_core.c.obj
 .debug_abbrev  0x000000000000148f      0x386 CMakeFiles/lab01.dir/Users/nehan/pico/pico-sdk/src/common/pico_sync/mutex.c.obj
 .debug_abbrev  0x0000000000001815      0x297 CMakeFiles/lab01.dir/Users/nehan/pico/pico-sdk/src/common/pico_util/pheap.c.obj
 .debug_abbrev  0x0000000000001aac      0x3aa CMakeFiles/lab01.dir/Users/nehan/pico/pico-sdk/src/rp2_common/pico_runtime/runtime.c.obj
 .debug_abbrev  0x0000000000001e56      0x3a5 CMakeFiles/lab01.dir/Users/nehan/pico/pico-sdk/src/rp2_common/hardware_clocks/clocks.c.obj
 .debug_abbrev  0x00000000000021fb      0x4cd CMakeFiles/lab01.dir/Users/nehan/pico/pico-sdk/src/rp2_common/hardware_irq/irq.c.obj
 .debug_abbrev  0x00000000000026c8      0x1ea CMakeFiles/lab01.dir/Users/nehan/pico/pico-sdk/src/rp2_common/hardware_pll/pll.c.obj
 .debug_abbrev  0x00000000000028b2      0x1a8 CMakeFiles/lab01.dir/Users/nehan/pico/pico-sdk/src/rp2_common/hardware_watchdog/watchdog.c.obj
 .debug_abbrev  0x0000000000002a5a      0x109 CMakeFiles/lab01.dir/Users/nehan/pico/pico-sdk/src/rp2_common/hardware_xosc/xosc.c.obj
 .debug_abbrev  0x0000000000002b63      0x384 CMakeFiles/lab01.dir/Users/nehan/pico/pico-sdk/src/rp2_common/pico_printf/printf.c.obj
 .debug_abbrev  0x0000000000002ee7       0x12 CMakeFiles/lab01.dir/Users/nehan/pico/pico-sdk/src/rp2_common/pico_bit_ops/bit_ops_aeabi.S.obj
 .debug_abbrev  0x0000000000002ef9      0x13b CMakeFiles/lab01.dir/Users/nehan/pico/pico-sdk/src/rp2_common/pico_bootrom/bootrom.c.obj
 .debug_abbrev  0x0000000000003034       0x12 CMakeFiles/lab01.dir/Users/nehan/pico/pico-sdk/src/rp2_common/pico_divider/divider.S.obj
 .debug_abbrev  0x0000000000003046       0x12 CMakeFiles/lab01.dir/Users/nehan/pico/pico-sdk/src/rp2_common/pico_double/double_aeabi.S.obj
 .debug_abbrev  0x0000000000003058      0x179 CMakeFiles/lab01.dir/Users/nehan/pico/pico-sdk/src/rp2_common/pico_double/double_init_rom.c.obj
 .debug_abbrev  0x00000000000031d1       0x12 CMakeFiles/lab01.dir/Users/nehan/pico/pico-sdk/src/rp2_common/pico_double/double_v1_rom_shim.S.obj
 .debug_abbrev  0x00000000000031e3       0x14 CMakeFiles/lab01.dir/Users/nehan/pico/pico-sdk/src/rp2_common/pico_int64_ops/pico_int64_ops_aeabi.S.obj
 .debug_abbrev  0x00000000000031f7       0x12 CMakeFiles/lab01.dir/Users/nehan/pico/pico-sdk/src/rp2_common/pico_float/float_aeabi.S.obj
 .debug_abbrev  0x0000000000003209      0x18c CMakeFiles/lab01.dir/Users/nehan/pico/pico-sdk/src/rp2_common/pico_float/float_init_rom.c.obj
 .debug_abbrev  0x0000000000003395       0x12 CMakeFiles/lab01.dir/Users/nehan/pico/pico-sdk/src/rp2_common/pico_float/float_v1_rom_shim.S.obj
 .debug_abbrev  0x00000000000033a7       0x12 CMakeFiles/lab01.dir/Users/nehan/pico/pico-sdk/src/rp2_common/pico_mem_ops/mem_ops_aeabi.S.obj
 .debug_abbrev  0x00000000000033b9       0x12 CMakeFiles/lab01.dir/Users/nehan/pico/pico-sdk/src/rp2_common/pico_standard_link/crt0.S.obj
 .debug_abbrev  0x00000000000033cb       0xad CMakeFiles/lab01.dir/Users/nehan/pico/pico-sdk/src/rp2_common/pico_standard_link/binary_info.c.obj
 .debug_abbrev  0x0000000000003478      0x4a7 CMakeFiles/lab01.dir/Users/nehan/pico/pico-sdk/src/rp2_common/pico_stdio/stdio.c.obj

.debug_loc      0x0000000000000000     0xcb92
 .debug_loc     0x0000000000000000      0x160 CMakeFiles/lab01.dir/lab01.c.obj
 .debug_loc     0x0000000000000160      0xede CMakeFiles/lab01.dir/Users/nehan/pico/pico-sdk/src/rp2_common/hardware_gpio/gpio.c.obj
 .debug_loc     0x000000000000103e      0x45f CMakeFiles/lab01.dir/Users/nehan/pico/pico-sdk/src/rp2_common/hardware_claim/claim.c.obj
 .debug_loc     0x000000000000149d       0xe9 CMakeFiles/lab01.dir/Users/nehan/pico/pico-sdk/src/rp2_common/pico_platform/platform.c.obj
 .debug_loc     0x0000000000001586      0x233 CMakeFiles/lab01.dir/Users/nehan/pico/pico-sdk/src/rp2_common/hardware_sync/sync.c.obj
 .debug_loc     0x00000000000017b9     0x2e2a CMakeFiles/lab01.dir/Users/nehan/pico/pico-sdk/src/common/pico_time/time.c.obj
 .debug_loc     0x00000000000045e3      0x952 CMakeFiles/lab01.dir/Users/nehan/pico/pico-sdk/src/rp2_common/hardware_timer/timer.c.obj
 .debug_loc     0x0000000000004f35       0x60 CMakeFiles/lab01.dir/Users/nehan/pico/pico-sdk/src/common/pico_sync/lock_core.c.obj
 .debug_loc     0x0000000000004f95     0x1469 CMakeFiles/lab01.dir/Users/nehan/pico/pico-sdk/src/common/pico_sync/mutex.c.obj
 .debug_loc     0x00000000000063fe     0x1439 CMakeFiles/lab01.dir/Users/nehan/pico/pico-sdk/src/common/pico_util/pheap.c.obj
 .debug_loc     0x0000000000007837      0x3f0 CMakeFiles/lab01.dir/Users/nehan/pico/pico-sdk/src/rp2_common/pico_runtime/runtime.c.obj
 .debug_loc     0x0000000000007c27      0x7eb CMakeFiles/lab01.dir/Users/nehan/pico/pico-sdk/src/rp2_common/hardware_clocks/clocks.c.obj
 .debug_loc     0x0000000000008412     0x1274 CMakeFiles/lab01.dir/Users/nehan/pico/pico-sdk/src/rp2_common/hardware_irq/irq.c.obj
 .debug_loc     0x0000000000009686      0x300 CMakeFiles/lab01.dir/Users/nehan/pico/pico-sdk/src/rp2_common/hardware_pll/pll.c.obj
 .debug_loc     0x0000000000009986      0x2ec CMakeFiles/lab01.dir/Users/nehan/pico/pico-sdk/src/rp2_common/hardware_watchdog/watchdog.c.obj
 .debug_loc     0x0000000000009c72       0x71 CMakeFiles/lab01.dir/Users/nehan/pico/pico-sdk/src/rp2_common/hardware_xosc/xosc.c.obj
 .debug_loc     0x0000000000009ce3     0x2095 CMakeFiles/lab01.dir/Users/nehan/pico/pico-sdk/src/rp2_common/pico_printf/printf.c.obj
 .debug_loc     0x000000000000bd78      0x1a1 CMakeFiles/lab01.dir/Users/nehan/pico/pico-sdk/src/rp2_common/pico_bootrom/bootrom.c.obj
 .debug_loc     0x000000000000bf19       0x59 CMakeFiles/lab01.dir/Users/nehan/pico/pico-sdk/src/rp2_common/pico_double/double_init_rom.c.obj
 .debug_loc     0x000000000000bf72       0x73 CMakeFiles/lab01.dir/Users/nehan/pico/pico-sdk/src/rp2_common/pico_float/float_init_rom.c.obj
 .debug_loc     0x000000000000bfe5      0xbad CMakeFiles/lab01.dir/Users/nehan/pico/pico-sdk/src/rp2_common/pico_stdio/stdio.c.obj

.debug_aranges  0x0000000000000000      0xce0
 .debug_aranges
                0x0000000000000000       0x28 CMakeFiles/lab01.dir/lab01.c.obj
 .debug_aranges
                0x0000000000000028       0xd8 CMakeFiles/lab01.dir/Users/nehan/pico/pico-sdk/src/rp2_common/hardware_gpio/gpio.c.obj
 .debug_aranges
                0x0000000000000100       0x48 CMakeFiles/lab01.dir/Users/nehan/pico/pico-sdk/src/rp2_common/hardware_claim/claim.c.obj
 .debug_aranges
                0x0000000000000148       0x28 CMakeFiles/lab01.dir/Users/nehan/pico/pico-sdk/src/rp2_common/pico_platform/platform.c.obj
 .debug_aranges
                0x0000000000000170       0x58 CMakeFiles/lab01.dir/Users/nehan/pico/pico-sdk/src/rp2_common/hardware_sync/sync.c.obj
 .debug_aranges
                0x00000000000001c8       0xd0 CMakeFiles/lab01.dir/Users/nehan/pico/pico-sdk/src/common/pico_time/time.c.obj
 .debug_aranges
                0x0000000000000298       0x78 CMakeFiles/lab01.dir/Users/nehan/pico/pico-sdk/src/rp2_common/hardware_timer/timer.c.obj
 .debug_aranges
                0x0000000000000310       0x20 CMakeFiles/lab01.dir/Users/nehan/pico/pico-sdk/src/common/pico_sync/lock_core.c.obj
 .debug_aranges
                0x0000000000000330       0x88 CMakeFiles/lab01.dir/Users/nehan/pico/pico-sdk/src/common/pico_sync/mutex.c.obj
 .debug_aranges
                0x00000000000003b8       0x78 CMakeFiles/lab01.dir/Users/nehan/pico/pico-sdk/src/common/pico_util/pheap.c.obj
 .debug_aranges
                0x0000000000000430       0x60 CMakeFiles/lab01.dir/Users/nehan/pico/pico-sdk/src/rp2_common/pico_runtime/runtime.c.obj
 .debug_aranges
                0x0000000000000490       0x70 CMakeFiles/lab01.dir/Users/nehan/pico/pico-sdk/src/rp2_common/hardware_clocks/clocks.c.obj
 .debug_aranges
                0x0000000000000500       0x98 CMakeFiles/lab01.dir/Users/nehan/pico/pico-sdk/src/rp2_common/hardware_irq/irq.c.obj
 .debug_aranges
                0x0000000000000598       0x28 CMakeFiles/lab01.dir/Users/nehan/pico/pico-sdk/src/rp2_common/hardware_pll/pll.c.obj
 .debug_aranges
                0x00000000000005c0       0x58 CMakeFiles/lab01.dir/Users/nehan/pico/pico-sdk/src/rp2_common/hardware_watchdog/watchdog.c.obj
 .debug_aranges
                0x0000000000000618       0x30 CMakeFiles/lab01.dir/Users/nehan/pico/pico-sdk/src/rp2_common/hardware_xosc/xosc.c.obj
 .debug_aranges
                0x0000000000000648       0x90 CMakeFiles/lab01.dir/Users/nehan/pico/pico-sdk/src/rp2_common/pico_printf/printf.c.obj
 .debug_aranges
                0x00000000000006d8       0x68 CMakeFiles/lab01.dir/Users/nehan/pico/pico-sdk/src/rp2_common/pico_bit_ops/bit_ops_aeabi.S.obj
 .debug_aranges
                0x0000000000000740       0x30 CMakeFiles/lab01.dir/Users/nehan/pico/pico-sdk/src/rp2_common/pico_bootrom/bootrom.c.obj
 .debug_aranges
                0x0000000000000770       0x40 CMakeFiles/lab01.dir/Users/nehan/pico/pico-sdk/src/rp2_common/pico_divider/divider.S.obj
 .debug_aranges
                0x00000000000007b0      0x140 CMakeFiles/lab01.dir/Users/nehan/pico/pico-sdk/src/rp2_common/pico_double/double_aeabi.S.obj
 .debug_aranges
                0x00000000000008f0       0x20 CMakeFiles/lab01.dir/Users/nehan/pico/pico-sdk/src/rp2_common/pico_double/double_init_rom.c.obj
 .debug_aranges
                0x0000000000000910       0xc8 CMakeFiles/lab01.dir/Users/nehan/pico/pico-sdk/src/rp2_common/pico_double/double_v1_rom_shim.S.obj
 .debug_aranges
                0x00000000000009d8       0x20 CMakeFiles/lab01.dir/Users/nehan/pico/pico-sdk/src/rp2_common/pico_int64_ops/pico_int64_ops_aeabi.S.obj
 .debug_aranges
                0x00000000000009f8      0x130 CMakeFiles/lab01.dir/Users/nehan/pico/pico-sdk/src/rp2_common/pico_float/float_aeabi.S.obj
 .debug_aranges
                0x0000000000000b28       0x20 CMakeFiles/lab01.dir/Users/nehan/pico/pico-sdk/src/rp2_common/pico_float/float_init_rom.c.obj
 .debug_aranges
                0x0000000000000b48       0x50 CMakeFiles/lab01.dir/Users/nehan/pico/pico-sdk/src/rp2_common/pico_float/float_v1_rom_shim.S.obj
 .debug_aranges
                0x0000000000000b98       0x38 CMakeFiles/lab01.dir/Users/nehan/pico/pico-sdk/src/rp2_common/pico_mem_ops/mem_ops_aeabi.S.obj
 .debug_aranges
                0x0000000000000bd0       0x28 CMakeFiles/lab01.dir/Users/nehan/pico/pico-sdk/src/rp2_common/pico_standard_link/crt0.S.obj
 .debug_aranges
                0x0000000000000bf8       0x18 CMakeFiles/lab01.dir/Users/nehan/pico/pico-sdk/src/rp2_common/pico_standard_link/binary_info.c.obj
 .debug_aranges
                0x0000000000000c10       0xd0 CMakeFiles/lab01.dir/Users/nehan/pico/pico-sdk/src/rp2_common/pico_stdio/stdio.c.obj

.debug_ranges   0x0000000000000000     0x2b88
 .debug_ranges  0x0000000000000000       0x18 CMakeFiles/lab01.dir/lab01.c.obj
 .debug_ranges  0x0000000000000018       0xe0 CMakeFiles/lab01.dir/Users/nehan/pico/pico-sdk/src/rp2_common/hardware_gpio/gpio.c.obj
 .debug_ranges  0x00000000000000f8       0xd8 CMakeFiles/lab01.dir/Users/nehan/pico/pico-sdk/src/rp2_common/hardware_claim/claim.c.obj
 .debug_ranges  0x00000000000001d0       0x18 CMakeFiles/lab01.dir/Users/nehan/pico/pico-sdk/src/rp2_common/pico_platform/platform.c.obj
 .debug_ranges  0x00000000000001e8       0xf0 CMakeFiles/lab01.dir/Users/nehan/pico/pico-sdk/src/rp2_common/hardware_sync/sync.c.obj
 .debug_ranges  0x00000000000002d8      0xba0 CMakeFiles/lab01.dir/Users/nehan/pico/pico-sdk/src/common/pico_time/time.c.obj
 .debug_ranges  0x0000000000000e78      0x320 CMakeFiles/lab01.dir/Users/nehan/pico/pico-sdk/src/rp2_common/hardware_timer/timer.c.obj
 .debug_ranges  0x0000000000001198       0x10 CMakeFiles/lab01.dir/Users/nehan/pico/pico-sdk/src/common/pico_sync/lock_core.c.obj
 .debug_ranges  0x00000000000011a8      0xab8 CMakeFiles/lab01.dir/Users/nehan/pico/pico-sdk/src/common/pico_sync/mutex.c.obj
 .debug_ranges  0x0000000000001c60      0x248 CMakeFiles/lab01.dir/Users/nehan/pico/pico-sdk/src/common/pico_util/pheap.c.obj
 .debug_ranges  0x0000000000001ea8       0x80 CMakeFiles/lab01.dir/Users/nehan/pico/pico-sdk/src/rp2_common/pico_runtime/runtime.c.obj
 .debug_ranges  0x0000000000001f28       0x60 CMakeFiles/lab01.dir/Users/nehan/pico/pico-sdk/src/rp2_common/hardware_clocks/clocks.c.obj
 .debug_ranges  0x0000000000001f88      0x3d0 CMakeFiles/lab01.dir/Users/nehan/pico/pico-sdk/src/rp2_common/hardware_irq/irq.c.obj
 .debug_ranges  0x0000000000002358       0x30 CMakeFiles/lab01.dir/Users/nehan/pico/pico-sdk/src/rp2_common/hardware_pll/pll.c.obj
 .debug_ranges  0x0000000000002388       0x48 CMakeFiles/lab01.dir/Users/nehan/pico/pico-sdk/src/rp2_common/hardware_watchdog/watchdog.c.obj
 .debug_ranges  0x00000000000023d0       0x20 CMakeFiles/lab01.dir/Users/nehan/pico/pico-sdk/src/rp2_common/hardware_xosc/xosc.c.obj
 .debug_ranges  0x00000000000023f0      0x108 CMakeFiles/lab01.dir/Users/nehan/pico/pico-sdk/src/rp2_common/pico_printf/printf.c.obj
 .debug_ranges  0x00000000000024f8       0x60 CMakeFiles/lab01.dir/Users/nehan/pico/pico-sdk/src/rp2_common/pico_bit_ops/bit_ops_aeabi.S.obj
 .debug_ranges  0x0000000000002558       0x38 CMakeFiles/lab01.dir/Users/nehan/pico/pico-sdk/src/rp2_common/pico_bootrom/bootrom.c.obj
 .debug_ranges  0x0000000000002590       0x38 CMakeFiles/lab01.dir/Users/nehan/pico/pico-sdk/src/rp2_common/pico_divider/divider.S.obj
 .debug_ranges  0x00000000000025c8      0x138 CMakeFiles/lab01.dir/Users/nehan/pico/pico-sdk/src/rp2_common/pico_double/double_aeabi.S.obj
 .debug_ranges  0x0000000000002700       0x30 CMakeFiles/lab01.dir/Users/nehan/pico/pico-sdk/src/rp2_common/pico_double/double_init_rom.c.obj
 .debug_ranges  0x0000000000002730       0xc0 CMakeFiles/lab01.dir/Users/nehan/pico/pico-sdk/src/rp2_common/pico_double/double_v1_rom_shim.S.obj
 .debug_ranges  0x00000000000027f0      0x128 CMakeFiles/lab01.dir/Users/nehan/pico/pico-sdk/src/rp2_common/pico_float/float_aeabi.S.obj
 .debug_ranges  0x0000000000002918       0x28 CMakeFiles/lab01.dir/Users/nehan/pico/pico-sdk/src/rp2_common/pico_float/float_init_rom.c.obj
 .debug_ranges  0x0000000000002940       0x48 CMakeFiles/lab01.dir/Users/nehan/pico/pico-sdk/src/rp2_common/pico_float/float_v1_rom_shim.S.obj
 .debug_ranges  0x0000000000002988       0x30 CMakeFiles/lab01.dir/Users/nehan/pico/pico-sdk/src/rp2_common/pico_mem_ops/mem_ops_aeabi.S.obj
 .debug_ranges  0x00000000000029b8       0x20 CMakeFiles/lab01.dir/Users/nehan/pico/pico-sdk/src/rp2_common/pico_standard_link/crt0.S.obj
 .debug_ranges  0x00000000000029d8      0x1b0 CMakeFiles/lab01.dir/Users/nehan/pico/pico-sdk/src/rp2_common/pico_stdio/stdio.c.obj

.debug_line     0x0000000000000000     0xc6d5
 .debug_line    0x0000000000000000      0x375 CMakeFiles/lab01.dir/lab01.c.obj
 .debug_line    0x0000000000000375      0x9ed CMakeFiles/lab01.dir/Users/nehan/pico/pico-sdk/src/rp2_common/hardware_gpio/gpio.c.obj
 .debug_line    0x0000000000000d62      0x497 CMakeFiles/lab01.dir/Users/nehan/pico/pico-sdk/src/rp2_common/hardware_claim/claim.c.obj
 .debug_line    0x00000000000011f9      0x2a6 CMakeFiles/lab01.dir/Users/nehan/pico/pico-sdk/src/rp2_common/pico_platform/platform.c.obj
 .debug_line    0x000000000000149f      0x493 CMakeFiles/lab01.dir/Users/nehan/pico/pico-sdk/src/rp2_common/hardware_sync/sync.c.obj
 .debug_line    0x0000000000001932     0x191d CMakeFiles/lab01.dir/Users/nehan/pico/pico-sdk/src/common/pico_time/time.c.obj
 .debug_line    0x000000000000324f      0xb07 CMakeFiles/lab01.dir/Users/nehan/pico/pico-sdk/src/rp2_common/hardware_timer/timer.c.obj
 .debug_line    0x0000000000003d56      0x236 CMakeFiles/lab01.dir/Users/nehan/pico/pico-sdk/src/common/pico_sync/lock_core.c.obj
 .debug_line    0x0000000000003f8c     0x1015 CMakeFiles/lab01.dir/Users/nehan/pico/pico-sdk/src/common/pico_sync/mutex.c.obj
 .debug_line    0x0000000000004fa1      0x8ba CMakeFiles/lab01.dir/Users/nehan/pico/pico-sdk/src/common/pico_util/pheap.c.obj
 .debug_line    0x000000000000585b      0x857 CMakeFiles/lab01.dir/Users/nehan/pico/pico-sdk/src/rp2_common/pico_runtime/runtime.c.obj
 .debug_line    0x00000000000060b2      0x9c8 CMakeFiles/lab01.dir/Users/nehan/pico/pico-sdk/src/rp2_common/hardware_clocks/clocks.c.obj
 .debug_line    0x0000000000006a7a      0xeb9 CMakeFiles/lab01.dir/Users/nehan/pico/pico-sdk/src/rp2_common/hardware_irq/irq.c.obj
 .debug_line    0x0000000000007933      0x56e CMakeFiles/lab01.dir/Users/nehan/pico/pico-sdk/src/rp2_common/hardware_pll/pll.c.obj
 .debug_line    0x0000000000007ea1      0x41f CMakeFiles/lab01.dir/Users/nehan/pico/pico-sdk/src/rp2_common/hardware_watchdog/watchdog.c.obj
 .debug_line    0x00000000000082c0      0x2c3 CMakeFiles/lab01.dir/Users/nehan/pico/pico-sdk/src/rp2_common/hardware_xosc/xosc.c.obj
 .debug_line    0x0000000000008583     0x1268 CMakeFiles/lab01.dir/Users/nehan/pico/pico-sdk/src/rp2_common/pico_printf/printf.c.obj
 .debug_line    0x00000000000097eb      0x147 CMakeFiles/lab01.dir/Users/nehan/pico/pico-sdk/src/rp2_common/pico_bit_ops/bit_ops_aeabi.S.obj
 .debug_line    0x0000000000009932      0x24b CMakeFiles/lab01.dir/Users/nehan/pico/pico-sdk/src/rp2_common/pico_bootrom/bootrom.c.obj
 .debug_line    0x0000000000009b7d      0x2d0 CMakeFiles/lab01.dir/Users/nehan/pico/pico-sdk/src/rp2_common/pico_divider/divider.S.obj
 .debug_line    0x0000000000009e4d      0x425 CMakeFiles/lab01.dir/Users/nehan/pico/pico-sdk/src/rp2_common/pico_double/double_aeabi.S.obj
 .debug_line    0x000000000000a272      0x370 CMakeFiles/lab01.dir/Users/nehan/pico/pico-sdk/src/rp2_common/pico_double/double_init_rom.c.obj
 .debug_line    0x000000000000a5e2      0x69b CMakeFiles/lab01.dir/Users/nehan/pico/pico-sdk/src/rp2_common/pico_double/double_v1_rom_shim.S.obj
 .debug_line    0x000000000000ac7d       0x97 CMakeFiles/lab01.dir/Users/nehan/pico/pico-sdk/src/rp2_common/pico_int64_ops/pico_int64_ops_aeabi.S.obj
 .debug_line    0x000000000000ad14      0x3db CMakeFiles/lab01.dir/Users/nehan/pico/pico-sdk/src/rp2_common/pico_float/float_aeabi.S.obj
 .debug_line    0x000000000000b0ef      0x362 CMakeFiles/lab01.dir/Users/nehan/pico/pico-sdk/src/rp2_common/pico_float/float_init_rom.c.obj
 .debug_line    0x000000000000b451      0x1c7 CMakeFiles/lab01.dir/Users/nehan/pico/pico-sdk/src/rp2_common/pico_float/float_v1_rom_shim.S.obj
 .debug_line    0x000000000000b618       0xc1 CMakeFiles/lab01.dir/Users/nehan/pico/pico-sdk/src/rp2_common/pico_mem_ops/mem_ops_aeabi.S.obj
 .debug_line    0x000000000000b6d9       0xd2 CMakeFiles/lab01.dir/Users/nehan/pico/pico-sdk/src/rp2_common/pico_standard_link/crt0.S.obj
 .debug_line    0x000000000000b7ab      0x1d5 CMakeFiles/lab01.dir/Users/nehan/pico/pico-sdk/src/rp2_common/pico_standard_link/binary_info.c.obj
 .debug_line    0x000000000000b980      0xd55 CMakeFiles/lab01.dir/Users/nehan/pico/pico-sdk/src/rp2_common/pico_stdio/stdio.c.obj

.debug_str      0x0000000000000000     0x2e80
 .debug_str     0x0000000000000000      0x398 CMakeFiles/lab01.dir/lab01.c.obj
                                        0x3fd (size before relaxing)
 .debug_str     0x0000000000000398      0x506 CMakeFiles/lab01.dir/Users/nehan/pico/pico-sdk/src/rp2_common/hardware_gpio/gpio.c.obj
                                        0x894 (size before relaxing)
 .debug_str     0x000000000000089e      0x1d4 CMakeFiles/lab01.dir/Users/nehan/pico/pico-sdk/src/rp2_common/hardware_claim/claim.c.obj
                                        0x375 (size before relaxing)
 .debug_str     0x0000000000000a72       0x81 CMakeFiles/lab01.dir/Users/nehan/pico/pico-sdk/src/rp2_common/pico_platform/platform.c.obj
                                        0x231 (size before relaxing)
 .debug_str     0x0000000000000af3       0xec CMakeFiles/lab01.dir/Users/nehan/pico/pico-sdk/src/rp2_common/hardware_sync/sync.c.obj
                                        0x35c (size before relaxing)
 .debug_str     0x0000000000000bdf      0x791 CMakeFiles/lab01.dir/Users/nehan/pico/pico-sdk/src/common/pico_time/time.c.obj
                                        0xba7 (size before relaxing)
 .debug_str     0x0000000000001370      0x182 CMakeFiles/lab01.dir/Users/nehan/pico/pico-sdk/src/rp2_common/hardware_timer/timer.c.obj
                                        0x6aa (size before relaxing)
 .debug_str     0x00000000000014f2       0x3c CMakeFiles/lab01.dir/Users/nehan/pico/pico-sdk/src/common/pico_sync/lock_core.c.obj
                                        0x212 (size before relaxing)
 .debug_str     0x000000000000152e      0x16e CMakeFiles/lab01.dir/Users/nehan/pico/pico-sdk/src/common/pico_sync/mutex.c.obj
                                        0x5d6 (size before relaxing)
 .debug_str     0x000000000000169c       0xec CMakeFiles/lab01.dir/Users/nehan/pico/pico-sdk/src/common/pico_util/pheap.c.obj
                                        0x3fb (size before relaxing)
 .debug_str     0x0000000000001788      0x2ba CMakeFiles/lab01.dir/Users/nehan/pico/pico-sdk/src/rp2_common/pico_runtime/runtime.c.obj
                                        0x614 (size before relaxing)
 .debug_str     0x0000000000001a42      0x27d CMakeFiles/lab01.dir/Users/nehan/pico/pico-sdk/src/rp2_common/hardware_clocks/clocks.c.obj
                                        0x688 (size before relaxing)
 .debug_str     0x0000000000001cbf      0x301 CMakeFiles/lab01.dir/Users/nehan/pico/pico-sdk/src/rp2_common/hardware_irq/irq.c.obj
                                        0x6f1 (size before relaxing)
 .debug_str     0x0000000000001fc0       0x8f CMakeFiles/lab01.dir/Users/nehan/pico/pico-sdk/src/rp2_common/hardware_pll/pll.c.obj
                                        0x2ec (size before relaxing)
 .debug_str     0x000000000000204f      0x126 CMakeFiles/lab01.dir/Users/nehan/pico/pico-sdk/src/rp2_common/hardware_watchdog/watchdog.c.obj
                                        0x333 (size before relaxing)
 .debug_str     0x0000000000002175       0x6b CMakeFiles/lab01.dir/Users/nehan/pico/pico-sdk/src/rp2_common/hardware_xosc/xosc.c.obj
                                        0x230 (size before relaxing)
 .debug_str     0x00000000000021e0      0x26d CMakeFiles/lab01.dir/Users/nehan/pico/pico-sdk/src/rp2_common/pico_printf/printf.c.obj
                                        0x491 (size before relaxing)
 .debug_str     0x000000000000244d       0x55 CMakeFiles/lab01.dir/Users/nehan/pico/pico-sdk/src/rp2_common/pico_bit_ops/bit_ops_aeabi.S.obj
                                         0x82 (size before relaxing)
 .debug_str     0x00000000000024a2       0xc4 CMakeFiles/lab01.dir/Users/nehan/pico/pico-sdk/src/rp2_common/pico_bootrom/bootrom.c.obj
                                        0x26b (size before relaxing)
 .debug_str     0x0000000000002566       0x41 CMakeFiles/lab01.dir/Users/nehan/pico/pico-sdk/src/rp2_common/pico_divider/divider.S.obj
                                         0x7c (size before relaxing)
 .debug_str     0x00000000000025a7       0x45 CMakeFiles/lab01.dir/Users/nehan/pico/pico-sdk/src/rp2_common/pico_double/double_aeabi.S.obj
                                         0x80 (size before relaxing)
 .debug_str     0x00000000000025ec       0x9d CMakeFiles/lab01.dir/Users/nehan/pico/pico-sdk/src/rp2_common/pico_double/double_init_rom.c.obj
                                        0x2aa (size before relaxing)
 .debug_str     0x0000000000002689       0x4b CMakeFiles/lab01.dir/Users/nehan/pico/pico-sdk/src/rp2_common/pico_double/double_v1_rom_shim.S.obj
                                         0x86 (size before relaxing)
 .debug_str     0x00000000000026d4       0x50 CMakeFiles/lab01.dir/Users/nehan/pico/pico-sdk/src/rp2_common/pico_int64_ops/pico_int64_ops_aeabi.S.obj
                                         0x8b (size before relaxing)
 .debug_str     0x0000000000002724       0x43 CMakeFiles/lab01.dir/Users/nehan/pico/pico-sdk/src/rp2_common/pico_float/float_aeabi.S.obj
                                         0x7e (size before relaxing)
 .debug_str     0x0000000000002767       0x81 CMakeFiles/lab01.dir/Users/nehan/pico/pico-sdk/src/rp2_common/pico_float/float_init_rom.c.obj
                                        0x2c6 (size before relaxing)
 .debug_str     0x00000000000027e8       0x49 CMakeFiles/lab01.dir/Users/nehan/pico/pico-sdk/src/rp2_common/pico_float/float_v1_rom_shim.S.obj
                                         0x84 (size before relaxing)
 .debug_str     0x0000000000002831       0x47 CMakeFiles/lab01.dir/Users/nehan/pico/pico-sdk/src/rp2_common/pico_mem_ops/mem_ops_aeabi.S.obj
                                         0x82 (size before relaxing)
 .debug_str     0x0000000000002878       0x44 CMakeFiles/lab01.dir/Users/nehan/pico/pico-sdk/src/rp2_common/pico_standard_link/crt0.S.obj
                                         0x7f (size before relaxing)
 .debug_str     0x00000000000028bc      0x27e CMakeFiles/lab01.dir/Users/nehan/pico/pico-sdk/src/rp2_common/pico_standard_link/binary_info.c.obj
                                        0x42d (size before relaxing)
 .debug_str     0x0000000000002b3a      0x346 CMakeFiles/lab01.dir/Users/nehan/pico/pico-sdk/src/rp2_common/pico_stdio/stdio.c.obj
                                        0x77a (size before relaxing)

.debug_frame    0x0000000000000000     0x14b4
 .debug_frame   0x0000000000000000       0x44 CMakeFiles/lab01.dir/lab01.c.obj
 .debug_frame   0x0000000000000044      0x1e8 CMakeFiles/lab01.dir/Users/nehan/pico/pico-sdk/src/rp2_common/hardware_gpio/gpio.c.obj
 .debug_frame   0x000000000000022c       0x9c CMakeFiles/lab01.dir/Users/nehan/pico/pico-sdk/src/rp2_common/hardware_claim/claim.c.obj
 .debug_frame   0x00000000000002c8       0x38 CMakeFiles/lab01.dir/Users/nehan/pico/pico-sdk/src/rp2_common/pico_platform/platform.c.obj
 .debug_frame   0x0000000000000300       0xc4 CMakeFiles/lab01.dir/Users/nehan/pico/pico-sdk/src/rp2_common/hardware_sync/sync.c.obj
 .debug_frame   0x00000000000003c4      0x294 CMakeFiles/lab01.dir/Users/nehan/pico/pico-sdk/src/common/pico_time/time.c.obj
 .debug_frame   0x0000000000000658      0x134 CMakeFiles/lab01.dir/Users/nehan/pico/pico-sdk/src/rp2_common/hardware_timer/timer.c.obj
 .debug_frame   0x000000000000078c       0x20 CMakeFiles/lab01.dir/Users/nehan/pico/pico-sdk/src/common/pico_sync/lock_core.c.obj
 .debug_frame   0x00000000000007ac      0x1a0 CMakeFiles/lab01.dir/Users/nehan/pico/pico-sdk/src/common/pico_sync/mutex.c.obj
 .debug_frame   0x000000000000094c      0x164 CMakeFiles/lab01.dir/Users/nehan/pico/pico-sdk/src/common/pico_util/pheap.c.obj
 .debug_frame   0x0000000000000ab0       0xdc CMakeFiles/lab01.dir/Users/nehan/pico/pico-sdk/src/rp2_common/pico_runtime/runtime.c.obj
 .debug_frame   0x0000000000000b8c      0x12c CMakeFiles/lab01.dir/Users/nehan/pico/pico-sdk/src/rp2_common/hardware_clocks/clocks.c.obj
 .debug_frame   0x0000000000000cb8      0x184 CMakeFiles/lab01.dir/Users/nehan/pico/pico-sdk/src/rp2_common/hardware_irq/irq.c.obj
 .debug_frame   0x0000000000000e3c       0x44 CMakeFiles/lab01.dir/Users/nehan/pico/pico-sdk/src/rp2_common/hardware_pll/pll.c.obj
 .debug_frame   0x0000000000000e80       0xa8 CMakeFiles/lab01.dir/Users/nehan/pico/pico-sdk/src/rp2_common/hardware_watchdog/watchdog.c.obj
 .debug_frame   0x0000000000000f28       0x40 CMakeFiles/lab01.dir/Users/nehan/pico/pico-sdk/src/rp2_common/hardware_xosc/xosc.c.obj
 .debug_frame   0x0000000000000f68      0x1f8 CMakeFiles/lab01.dir/Users/nehan/pico/pico-sdk/src/rp2_common/pico_printf/printf.c.obj
 .debug_frame   0x0000000000001160       0x64 CMakeFiles/lab01.dir/Users/nehan/pico/pico-sdk/src/rp2_common/pico_bootrom/bootrom.c.obj
 .debug_frame   0x00000000000011c4       0x2c CMakeFiles/lab01.dir/Users/nehan/pico/pico-sdk/src/rp2_common/pico_double/double_init_rom.c.obj
 .debug_frame   0x00000000000011f0       0x2c CMakeFiles/lab01.dir/Users/nehan/pico/pico-sdk/src/rp2_common/pico_float/float_init_rom.c.obj
 .debug_frame   0x000000000000121c      0x270 CMakeFiles/lab01.dir/Users/nehan/pico/pico-sdk/src/rp2_common/pico_stdio/stdio.c.obj
 .debug_frame   0x000000000000148c       0x28 /usr/local/Cellar/arm-none-eabi-gcc/10.3-2021.07/gcc/bin/../lib/gcc/arm-none-eabi/10.3.1/../../../../arm-none-eabi/lib/thumb/v6-m/nofp/libg.a(lib_a-strlen-stub.o)
