
/Users/nehan/pico/pico-apps/build/labs/lab01/lab01.elf:     file format elf32-littlearm

Sections:
Idx Name          Size      VMA       LMA       File off  Algn
  0 .boot2        00000100  10000000  10000000  00001000  2**0
                  CONTENTS, ALLOC, LOAD, READONLY, CODE
  1 .text         00003fd8  10000100  10000100  00001100  2**3
                  CONTENTS, ALLOC, LOAD, READONLY, CODE
  2 .rodata       00000e3c  100040d8  100040d8  000050d8  2**3
                  CONTENTS, ALLOC, LOAD, READONLY, DATA
  3 .binary_info  00000020  10004f14  10004f14  00005f14  2**2
                  CONTENTS, ALLOC, LOAD, DATA
  4 .ram_vector_table 000000c0  20000000  20000000  0000626c  2**2
                  CONTENTS
  5 .data         000001ac  200000c0  10004f34  000060c0  2**4
                  CONTENTS, ALLOC, LOAD, READONLY, CODE
  6 .uninitialized_data 00000000  2000026c  2000026c  0000632c  2**0
                  CONTENTS
  7 .scratch_x    00000000  20040000  20040000  0000632c  2**0
                  CONTENTS
  8 .scratch_y    00000000  20041000  20041000  0000632c  2**0
                  CONTENTS
  9 .bss          000003c8  20000270  20000270  00006270  2**3
                  ALLOC
 10 .heap         00000800  20000638  20000638  0000632c  2**2
                  CONTENTS, READONLY
 11 .stack_dummy  00000800  20041000  20041000  00006b40  2**5
                  CONTENTS, READONLY
 12 .ARM.attributes 00000028  00000000  00000000  00007340  2**0
                  CONTENTS, READONLY
 13 .comment      00000049  00000000  00000000  00007368  2**0
                  CONTENTS, READONLY
 14 .debug_info   00012260  00000000  00000000  000073b1  2**0
                  CONTENTS, READONLY, DEBUGGING, OCTETS
 15 .debug_abbrev 0000391f  00000000  00000000  00019611  2**0
                  CONTENTS, READONLY, DEBUGGING, OCTETS
 16 .debug_loc    0000cb92  00000000  00000000  0001cf30  2**0
                  CONTENTS, READONLY, DEBUGGING, OCTETS
 17 .debug_aranges 00000ce0  00000000  00000000  00029ac8  2**3
                  CONTENTS, READONLY, DEBUGGING, OCTETS
 18 .debug_ranges 00002b88  00000000  00000000  0002a7a8  2**3
                  CONTENTS, READONLY, DEBUGGING, OCTETS
 19 .debug_line   0000c6d5  00000000  00000000  0002d330  2**0
                  CONTENTS, READONLY, DEBUGGING, OCTETS
 20 .debug_str    00002e80  00000000  00000000  00039a05  2**0
                  CONTENTS, READONLY, DEBUGGING, OCTETS
 21 .debug_frame  000014b4  00000000  00000000  0003c888  2**2
                  CONTENTS, READONLY, DEBUGGING, OCTETS

/Users/nehan/pico/pico-apps/build/labs/lab01/lab01.elf:     file format elf32-littlearm


Disassembly of section .boot2:

10000000 <__boot2_start__>:
10000000:	4b32b500 	.word	0x4b32b500
10000004:	60582021 	.word	0x60582021
10000008:	21026898 	.word	0x21026898
1000000c:	60984388 	.word	0x60984388
10000010:	611860d8 	.word	0x611860d8
10000014:	4b2e6158 	.word	0x4b2e6158
10000018:	60992100 	.word	0x60992100
1000001c:	61592102 	.word	0x61592102
10000020:	22f02101 	.word	0x22f02101
10000024:	492b5099 	.word	0x492b5099
10000028:	21016019 	.word	0x21016019
1000002c:	20356099 	.word	0x20356099
10000030:	f844f000 	.word	0xf844f000
10000034:	42902202 	.word	0x42902202
10000038:	2106d014 	.word	0x2106d014
1000003c:	f0006619 	.word	0xf0006619
10000040:	6e19f834 	.word	0x6e19f834
10000044:	66192101 	.word	0x66192101
10000048:	66182000 	.word	0x66182000
1000004c:	f000661a 	.word	0xf000661a
10000050:	6e19f82c 	.word	0x6e19f82c
10000054:	6e196e19 	.word	0x6e196e19
10000058:	f0002005 	.word	0xf0002005
1000005c:	2101f82f 	.word	0x2101f82f
10000060:	d1f94208 	.word	0xd1f94208
10000064:	60992100 	.word	0x60992100
10000068:	6019491b 	.word	0x6019491b
1000006c:	60592100 	.word	0x60592100
10000070:	481b491a 	.word	0x481b491a
10000074:	21016001 	.word	0x21016001
10000078:	21eb6099 	.word	0x21eb6099
1000007c:	21a06619 	.word	0x21a06619
10000080:	f0006619 	.word	0xf0006619
10000084:	2100f812 	.word	0x2100f812
10000088:	49166099 	.word	0x49166099
1000008c:	60014814 	.word	0x60014814
10000090:	60992101 	.word	0x60992101
10000094:	2800bc01 	.word	0x2800bc01
10000098:	4700d000 	.word	0x4700d000
1000009c:	49134812 	.word	0x49134812
100000a0:	c8036008 	.word	0xc8036008
100000a4:	8808f380 	.word	0x8808f380
100000a8:	b5034708 	.word	0xb5034708
100000ac:	20046a99 	.word	0x20046a99
100000b0:	d0fb4201 	.word	0xd0fb4201
100000b4:	42012001 	.word	0x42012001
100000b8:	bd03d1f8 	.word	0xbd03d1f8
100000bc:	6618b502 	.word	0x6618b502
100000c0:	f7ff6618 	.word	0xf7ff6618
100000c4:	6e18fff2 	.word	0x6e18fff2
100000c8:	bd026e18 	.word	0xbd026e18
100000cc:	40020000 	.word	0x40020000
100000d0:	18000000 	.word	0x18000000
100000d4:	00070000 	.word	0x00070000
100000d8:	005f0300 	.word	0x005f0300
100000dc:	00002221 	.word	0x00002221
100000e0:	180000f4 	.word	0x180000f4
100000e4:	a0002022 	.word	0xa0002022
100000e8:	10000100 	.word	0x10000100
100000ec:	e000ed08 	.word	0xe000ed08
	...
100000fc:	7a4eb274 	.word	0x7a4eb274

Disassembly of section .text:

10000100 <__VECTOR_TABLE>:
10000100:	20042000 	.word	0x20042000
10000104:	100001f7 	.word	0x100001f7
10000108:	100001c3 	.word	0x100001c3
1000010c:	100001c5 	.word	0x100001c5
10000110:	100001c1 	.word	0x100001c1
10000114:	100001c1 	.word	0x100001c1
10000118:	100001c1 	.word	0x100001c1
1000011c:	100001c1 	.word	0x100001c1
10000120:	100001c1 	.word	0x100001c1
10000124:	100001c1 	.word	0x100001c1
10000128:	100001c1 	.word	0x100001c1
1000012c:	100001c7 	.word	0x100001c7
10000130:	100001c1 	.word	0x100001c1
10000134:	100001c1 	.word	0x100001c1
10000138:	100001c9 	.word	0x100001c9
1000013c:	100001cb 	.word	0x100001cb
10000140:	100001cd 	.word	0x100001cd
10000144:	100001cd 	.word	0x100001cd
10000148:	100001cd 	.word	0x100001cd
1000014c:	100001cd 	.word	0x100001cd
10000150:	100001cd 	.word	0x100001cd
10000154:	100001cd 	.word	0x100001cd
10000158:	100001cd 	.word	0x100001cd
1000015c:	100001cd 	.word	0x100001cd
10000160:	100001cd 	.word	0x100001cd
10000164:	100001cd 	.word	0x100001cd
10000168:	100001cd 	.word	0x100001cd
1000016c:	100001cd 	.word	0x100001cd
10000170:	100001cd 	.word	0x100001cd
10000174:	100001cd 	.word	0x100001cd
10000178:	100001cd 	.word	0x100001cd
1000017c:	100001cd 	.word	0x100001cd
10000180:	100001cd 	.word	0x100001cd
10000184:	100001cd 	.word	0x100001cd
10000188:	100001cd 	.word	0x100001cd
1000018c:	100001cd 	.word	0x100001cd
10000190:	100001cd 	.word	0x100001cd
10000194:	100001cd 	.word	0x100001cd
10000198:	100001cd 	.word	0x100001cd
1000019c:	100001cd 	.word	0x100001cd
100001a0:	100001cd 	.word	0x100001cd
100001a4:	100001cd 	.word	0x100001cd
100001a8:	100001cd 	.word	0x100001cd
100001ac:	100001cd 	.word	0x100001cd
100001b0:	100001cd 	.word	0x100001cd
100001b4:	100001cd 	.word	0x100001cd
100001b8:	100001cd 	.word	0x100001cd
100001bc:	100001cd 	.word	0x100001cd

100001c0 <isr_invalid>:
100001c0:	be00      	bkpt	0x0000

100001c2 <isr_nmi>:
100001c2:	be00      	bkpt	0x0000

100001c4 <isr_hardfault>:
100001c4:	be00      	bkpt	0x0000

100001c6 <isr_svcall>:
100001c6:	be00      	bkpt	0x0000

100001c8 <isr_pendsv>:
100001c8:	be00      	bkpt	0x0000

100001ca <isr_systick>:
100001ca:	be00      	bkpt	0x0000

100001cc <__unhandled_user_irq>:
100001cc:	f000 f84b 	bl	10000266 <__get_current_exception>
100001d0:	3810      	subs	r0, #16

100001d2 <unhandled_user_irq_num_in_r0>:
100001d2:	be00      	bkpt	0x0000

100001d4 <binary_info_header>:
100001d4:	7188ebf2 	.word	0x7188ebf2
100001d8:	10004f14 	.word	0x10004f14
100001dc:	10004f34 	.word	0x10004f34
100001e0:	10000234 	.word	0x10000234
100001e4:	e71aa390 	.word	0xe71aa390

100001e8 <_entry_point>:
100001e8:	2000      	movs	r0, #0
100001ea:	4921      	ldr	r1, [pc, #132]	; (10000270 <__get_current_exception+0xa>)
100001ec:	6008      	str	r0, [r1, #0]
100001ee:	c806      	ldmia	r0!, {r1, r2}
100001f0:	f381 8808 	msr	MSP, r1
100001f4:	4710      	bx	r2

100001f6 <_reset_handler>:
100001f6:	481f      	ldr	r0, [pc, #124]	; (10000274 <__get_current_exception+0xe>)
100001f8:	6800      	ldr	r0, [r0, #0]
100001fa:	2800      	cmp	r0, #0
100001fc:	d12f      	bne.n	1000025e <hold_non_core0_in_bootrom>
100001fe:	a40d      	add	r4, pc, #52	; (adr r4, 10000234 <data_cpy_table>)
10000200:	cc0e      	ldmia	r4!, {r1, r2, r3}
10000202:	2900      	cmp	r1, #0
10000204:	d002      	beq.n	1000020c <_reset_handler+0x16>
10000206:	f000 f812 	bl	1000022e <data_cpy>
1000020a:	e7f9      	b.n	10000200 <_reset_handler+0xa>
1000020c:	491a      	ldr	r1, [pc, #104]	; (10000278 <__get_current_exception+0x12>)
1000020e:	4a1b      	ldr	r2, [pc, #108]	; (1000027c <__get_current_exception+0x16>)
10000210:	2000      	movs	r0, #0
10000212:	e000      	b.n	10000216 <bss_fill_test>

10000214 <bss_fill_loop>:
10000214:	c101      	stmia	r1!, {r0}

10000216 <bss_fill_test>:
10000216:	4291      	cmp	r1, r2
10000218:	d1fc      	bne.n	10000214 <bss_fill_loop>

1000021a <platform_entry>:
1000021a:	4919      	ldr	r1, [pc, #100]	; (10000280 <__get_current_exception+0x1a>)
1000021c:	4788      	blx	r1
1000021e:	4919      	ldr	r1, [pc, #100]	; (10000284 <__get_current_exception+0x1e>)
10000220:	4788      	blx	r1
10000222:	4919      	ldr	r1, [pc, #100]	; (10000288 <__get_current_exception+0x22>)
10000224:	4788      	blx	r1
10000226:	be00      	bkpt	0x0000
10000228:	e7fd      	b.n	10000226 <platform_entry+0xc>

1000022a <data_cpy_loop>:
1000022a:	c901      	ldmia	r1!, {r0}
1000022c:	c201      	stmia	r2!, {r0}

1000022e <data_cpy>:
1000022e:	429a      	cmp	r2, r3
10000230:	d3fb      	bcc.n	1000022a <data_cpy_loop>
10000232:	4770      	bx	lr

10000234 <data_cpy_table>:
10000234:	10004f34 	.word	0x10004f34
10000238:	200000c0 	.word	0x200000c0
1000023c:	2000026c 	.word	0x2000026c
10000240:	100050e0 	.word	0x100050e0
10000244:	20040000 	.word	0x20040000
10000248:	20040000 	.word	0x20040000
1000024c:	100050e0 	.word	0x100050e0
10000250:	20041000 	.word	0x20041000
10000254:	20041000 	.word	0x20041000
10000258:	00000000 	.word	0x00000000
1000025c:	4770      	bx	lr

1000025e <hold_non_core0_in_bootrom>:
1000025e:	480b      	ldr	r0, [pc, #44]	; (1000028c <__get_current_exception+0x26>)
10000260:	f002 fe4e 	bl	10002f00 <rom_func_lookup>
10000264:	4700      	bx	r0

10000266 <__get_current_exception>:
10000266:	f3ef 8005 	mrs	r0, IPSR
1000026a:	b2c0      	uxtb	r0, r0
1000026c:	4770      	bx	lr
1000026e:	0000      	.short	0x0000
10000270:	e000ed08 	.word	0xe000ed08
10000274:	d0000000 	.word	0xd0000000
10000278:	20000270 	.word	0x20000270
1000027c:	20000638 	.word	0x20000638
10000280:	10001535 	.word	0x10001535
10000284:	1000032b 	.word	0x1000032b
10000288:	100014f1 	.word	0x100014f1
1000028c:	00005657 	.word	0x00005657

10000290 <__bi_50>:
10000290:	50520006 5360b3ab 10004ec4              ..RP..`S.N..

1000029c <__bi_38>:
1000029c:	50520006 02031c86 10004ebc              ..RP.....N..

100002a8 <__bi_30>:
100002a8:	50520006 9da22254 10004ed4              ..RPT"...N..

100002b4 <__bi_22>:
100002b4:	50520005 68f465de 100050e0              ..RP.e.h.P..

100002c0 <_init>:
100002c0:	b5f8      	push	{r3, r4, r5, r6, r7, lr}
100002c2:	46c0      	nop			; (mov r8, r8)

100002c4 <__do_global_dtors_aux>:
100002c4:	b510      	push	{r4, lr}
100002c6:	4c06      	ldr	r4, [pc, #24]	; (100002e0 <__do_global_dtors_aux+0x1c>)
100002c8:	7823      	ldrb	r3, [r4, #0]
100002ca:	2b00      	cmp	r3, #0
100002cc:	d107      	bne.n	100002de <__do_global_dtors_aux+0x1a>
100002ce:	4b05      	ldr	r3, [pc, #20]	; (100002e4 <__do_global_dtors_aux+0x20>)
100002d0:	2b00      	cmp	r3, #0
100002d2:	d002      	beq.n	100002da <__do_global_dtors_aux+0x16>
100002d4:	4804      	ldr	r0, [pc, #16]	; (100002e8 <__do_global_dtors_aux+0x24>)
100002d6:	e000      	b.n	100002da <__do_global_dtors_aux+0x16>
100002d8:	bf00      	nop
100002da:	2301      	movs	r3, #1
100002dc:	7023      	strb	r3, [r4, #0]
100002de:	bd10      	pop	{r4, pc}
100002e0:	20000370 	.word	0x20000370
100002e4:	00000000 	.word	0x00000000
100002e8:	100040d8 	.word	0x100040d8

100002ec <frame_dummy>:
100002ec:	4b04      	ldr	r3, [pc, #16]	; (10000300 <frame_dummy+0x14>)
100002ee:	b510      	push	{r4, lr}
100002f0:	2b00      	cmp	r3, #0
100002f2:	d003      	beq.n	100002fc <frame_dummy+0x10>
100002f4:	4903      	ldr	r1, [pc, #12]	; (10000304 <frame_dummy+0x18>)
100002f6:	4804      	ldr	r0, [pc, #16]	; (10000308 <frame_dummy+0x1c>)
100002f8:	e000      	b.n	100002fc <frame_dummy+0x10>
100002fa:	bf00      	nop
100002fc:	bd10      	pop	{r4, pc}
100002fe:	46c0      	nop			; (mov r8, r8)
10000300:	00000000 	.word	0x00000000
10000304:	20000374 	.word	0x20000374
10000308:	100040d8 	.word	0x100040d8

1000030c <function>:
1000030c:	b570      	push	{r4, r5, r6, lr}
1000030e:	000c      	movs	r4, r1
10000310:	2501      	movs	r5, #1
10000312:	4085      	lsls	r5, r0
10000314:	26d0      	movs	r6, #208	; 0xd0
10000316:	0636      	lsls	r6, r6, #24
10000318:	6175      	str	r5, [r6, #20]
1000031a:	0008      	movs	r0, r1
1000031c:	f000 fd5a 	bl	10000dd4 <sleep_ms>
10000320:	61b5      	str	r5, [r6, #24]
10000322:	0020      	movs	r0, r4
10000324:	f000 fd56 	bl	10000dd4 <sleep_ms>
10000328:	bd70      	pop	{r4, r5, r6, pc}

1000032a <main>:
1000032a:	b510      	push	{r4, lr}
1000032c:	2019      	movs	r0, #25
1000032e:	f000 f823 	bl	10000378 <gpio_init>
10000332:	23d0      	movs	r3, #208	; 0xd0
10000334:	061b      	lsls	r3, r3, #24
10000336:	2280      	movs	r2, #128	; 0x80
10000338:	0492      	lsls	r2, r2, #18
1000033a:	625a      	str	r2, [r3, #36]	; 0x24
1000033c:	21fa      	movs	r1, #250	; 0xfa
1000033e:	0049      	lsls	r1, r1, #1
10000340:	2019      	movs	r0, #25
10000342:	f7ff ffe3 	bl	1000030c <function>
10000346:	e7f9      	b.n	1000033c <main+0x12>

10000348 <gpio_set_function>:
10000348:	b510      	push	{r4, lr}
1000034a:	0083      	lsls	r3, r0, #2
1000034c:	4a08      	ldr	r2, [pc, #32]	; (10000370 <gpio_set_function+0x28>)
1000034e:	4694      	mov	ip, r2
10000350:	4463      	add	r3, ip
10000352:	681c      	ldr	r4, [r3, #0]
10000354:	2240      	movs	r2, #64	; 0x40
10000356:	4062      	eors	r2, r4
10000358:	24c0      	movs	r4, #192	; 0xc0
1000035a:	4014      	ands	r4, r2
1000035c:	2280      	movs	r2, #128	; 0x80
1000035e:	0152      	lsls	r2, r2, #5
10000360:	4313      	orrs	r3, r2
10000362:	601c      	str	r4, [r3, #0]
10000364:	00c0      	lsls	r0, r0, #3
10000366:	4b03      	ldr	r3, [pc, #12]	; (10000374 <gpio_set_function+0x2c>)
10000368:	469c      	mov	ip, r3
1000036a:	4460      	add	r0, ip
1000036c:	6041      	str	r1, [r0, #4]
1000036e:	bd10      	pop	{r4, pc}
10000370:	4001c004 	.word	0x4001c004
10000374:	40014000 	.word	0x40014000

10000378 <gpio_init>:
10000378:	b510      	push	{r4, lr}
1000037a:	2301      	movs	r3, #1
1000037c:	4083      	lsls	r3, r0
1000037e:	22d0      	movs	r2, #208	; 0xd0
10000380:	0612      	lsls	r2, r2, #24
10000382:	6293      	str	r3, [r2, #40]	; 0x28
10000384:	6193      	str	r3, [r2, #24]
10000386:	2105      	movs	r1, #5
10000388:	f7ff ffde 	bl	10000348 <gpio_set_function>
1000038c:	bd10      	pop	{r4, pc}
	...

10000390 <hw_claim_lock>:
10000390:	f3ef 8010 	mrs	r0, PRIMASK
10000394:	b672      	cpsid	i
10000396:	4b03      	ldr	r3, [pc, #12]	; (100003a4 <hw_claim_lock+0x14>)
10000398:	681b      	ldr	r3, [r3, #0]
1000039a:	2b00      	cmp	r3, #0
1000039c:	d0fb      	beq.n	10000396 <hw_claim_lock+0x6>
1000039e:	f3bf 8f5f 	dmb	sy
100003a2:	4770      	bx	lr
100003a4:	d000012c 	.word	0xd000012c

100003a8 <hw_claim_unlock>:
100003a8:	f3bf 8f5f 	dmb	sy
100003ac:	4b02      	ldr	r3, [pc, #8]	; (100003b8 <hw_claim_unlock+0x10>)
100003ae:	2200      	movs	r2, #0
100003b0:	601a      	str	r2, [r3, #0]
100003b2:	f380 8810 	msr	PRIMASK, r0
100003b6:	4770      	bx	lr
100003b8:	d000012c 	.word	0xd000012c

100003bc <hw_claim_or_assert>:
100003bc:	b5f8      	push	{r3, r4, r5, r6, r7, lr}
100003be:	0006      	movs	r6, r0
100003c0:	000c      	movs	r4, r1
100003c2:	0015      	movs	r5, r2
100003c4:	f7ff ffe4 	bl	10000390 <hw_claim_lock>
100003c8:	08e3      	lsrs	r3, r4, #3
100003ca:	18f7      	adds	r7, r6, r3
100003cc:	5cf1      	ldrb	r1, [r6, r3]
100003ce:	2207      	movs	r2, #7
100003d0:	4022      	ands	r2, r4
100003d2:	2301      	movs	r3, #1
100003d4:	4093      	lsls	r3, r2
100003d6:	420b      	tst	r3, r1
100003d8:	d105      	bne.n	100003e6 <hw_claim_or_assert+0x2a>
100003da:	b2db      	uxtb	r3, r3
100003dc:	430b      	orrs	r3, r1
100003de:	703b      	strb	r3, [r7, #0]
100003e0:	f7ff ffe2 	bl	100003a8 <hw_claim_unlock>
100003e4:	bdf8      	pop	{r3, r4, r5, r6, r7, pc}
100003e6:	0021      	movs	r1, r4
100003e8:	0028      	movs	r0, r5
100003ea:	f001 f91f 	bl	1000162c <panic>
	...

100003f0 <running_on_fpga>:
100003f0:	4b03      	ldr	r3, [pc, #12]	; (10000400 <running_on_fpga+0x10>)
100003f2:	681b      	ldr	r3, [r3, #0]
100003f4:	2002      	movs	r0, #2
100003f6:	4018      	ands	r0, r3
100003f8:	1e43      	subs	r3, r0, #1
100003fa:	4198      	sbcs	r0, r3
100003fc:	b2c0      	uxtb	r0, r0
100003fe:	4770      	bx	lr
10000400:	4006c000 	.word	0x4006c000

10000404 <spin_locks_reset>:
10000404:	2300      	movs	r3, #0
10000406:	e007      	b.n	10000418 <spin_locks_reset+0x14>
10000408:	4a05      	ldr	r2, [pc, #20]	; (10000420 <spin_locks_reset+0x1c>)
1000040a:	189a      	adds	r2, r3, r2
1000040c:	0092      	lsls	r2, r2, #2
1000040e:	f3bf 8f5f 	dmb	sy
10000412:	2100      	movs	r1, #0
10000414:	6011      	str	r1, [r2, #0]
10000416:	3301      	adds	r3, #1
10000418:	2b1f      	cmp	r3, #31
1000041a:	d9f5      	bls.n	10000408 <spin_locks_reset+0x4>
1000041c:	4770      	bx	lr
1000041e:	46c0      	nop			; (mov r8, r8)
10000420:	34000040 	.word	0x34000040

10000424 <next_striped_spin_lock_num>:
10000424:	4a05      	ldr	r2, [pc, #20]	; (1000043c <next_striped_spin_lock_num+0x18>)
10000426:	7810      	ldrb	r0, [r2, #0]
10000428:	1c43      	adds	r3, r0, #1
1000042a:	b2db      	uxtb	r3, r3
1000042c:	7013      	strb	r3, [r2, #0]
1000042e:	2b17      	cmp	r3, #23
10000430:	d902      	bls.n	10000438 <next_striped_spin_lock_num+0x14>
10000432:	0013      	movs	r3, r2
10000434:	2210      	movs	r2, #16
10000436:	701a      	strb	r2, [r3, #0]
10000438:	4770      	bx	lr
1000043a:	46c0      	nop			; (mov r8, r8)
1000043c:	200001b0 	.word	0x200001b0

10000440 <alarm_pool_post_alloc_init>:
10000440:	b570      	push	{r4, r5, r6, lr}
10000442:	0005      	movs	r5, r0
10000444:	000c      	movs	r4, r1
10000446:	0008      	movs	r0, r1
10000448:	f000 fd14 	bl	10000e74 <hardware_alarm_claim>
1000044c:	0020      	movs	r0, r4
1000044e:	f000 fdf9 	bl	10001044 <hardware_alarm_cancel>
10000452:	4908      	ldr	r1, [pc, #32]	; (10000474 <alarm_pool_post_alloc_init+0x34>)
10000454:	0020      	movs	r0, r4
10000456:	f000 fd39 	bl	10000ecc <hardware_alarm_set_callback>
1000045a:	f7ff ffe3 	bl	10000424 <next_striped_spin_lock_num>
1000045e:	4b06      	ldr	r3, [pc, #24]	; (10000478 <alarm_pool_post_alloc_init+0x38>)
10000460:	469c      	mov	ip, r3
10000462:	4460      	add	r0, ip
10000464:	0080      	lsls	r0, r0, #2
10000466:	6068      	str	r0, [r5, #4]
10000468:	752c      	strb	r4, [r5, #20]
1000046a:	00a4      	lsls	r4, r4, #2
1000046c:	4b03      	ldr	r3, [pc, #12]	; (1000047c <alarm_pool_post_alloc_init+0x3c>)
1000046e:	50e5      	str	r5, [r4, r3]
10000470:	bd70      	pop	{r4, r5, r6, pc}
10000472:	46c0      	nop			; (mov r8, r8)
10000474:	10000785 	.word	0x10000785
10000478:	34000040 	.word	0x34000040
1000047c:	2000040c 	.word	0x2000040c

10000480 <sleep_until_callback>:
10000480:	4b0a      	ldr	r3, [pc, #40]	; (100004ac <sleep_until_callback+0x2c>)
10000482:	681a      	ldr	r2, [r3, #0]
10000484:	f3ef 8110 	mrs	r1, PRIMASK
10000488:	b672      	cpsid	i
1000048a:	6813      	ldr	r3, [r2, #0]
1000048c:	2b00      	cmp	r3, #0
1000048e:	d0fc      	beq.n	1000048a <sleep_until_callback+0xa>
10000490:	f3bf 8f5f 	dmb	sy
10000494:	4b05      	ldr	r3, [pc, #20]	; (100004ac <sleep_until_callback+0x2c>)
10000496:	681b      	ldr	r3, [r3, #0]
10000498:	f3bf 8f5f 	dmb	sy
1000049c:	2200      	movs	r2, #0
1000049e:	601a      	str	r2, [r3, #0]
100004a0:	f381 8810 	msr	PRIMASK, r1
100004a4:	bf40      	sev
100004a6:	2000      	movs	r0, #0
100004a8:	2100      	movs	r1, #0
100004aa:	4770      	bx	lr
100004ac:	20000620 	.word	0x20000620

100004b0 <timer_pool_entry_comparator>:
100004b0:	b510      	push	{r4, lr}
100004b2:	2900      	cmp	r1, #0
100004b4:	d022      	beq.n	100004fc <timer_pool_entry_comparator+0x4c>
100004b6:	6803      	ldr	r3, [r0, #0]
100004b8:	7b1b      	ldrb	r3, [r3, #12]
100004ba:	4299      	cmp	r1, r3
100004bc:	d81e      	bhi.n	100004fc <timer_pool_entry_comparator+0x4c>
100004be:	4b17      	ldr	r3, [pc, #92]	; (1000051c <timer_pool_entry_comparator+0x6c>)
100004c0:	469c      	mov	ip, r3
100004c2:	4461      	add	r1, ip
100004c4:	0109      	lsls	r1, r1, #4
100004c6:	6883      	ldr	r3, [r0, #8]
100004c8:	469c      	mov	ip, r3
100004ca:	4461      	add	r1, ip
100004cc:	680c      	ldr	r4, [r1, #0]
100004ce:	6849      	ldr	r1, [r1, #4]
100004d0:	2a00      	cmp	r2, #0
100004d2:	d019      	beq.n	10000508 <timer_pool_entry_comparator+0x58>
100004d4:	6803      	ldr	r3, [r0, #0]
100004d6:	7b1b      	ldrb	r3, [r3, #12]
100004d8:	429a      	cmp	r2, r3
100004da:	d815      	bhi.n	10000508 <timer_pool_entry_comparator+0x58>
100004dc:	6883      	ldr	r3, [r0, #8]
100004de:	480f      	ldr	r0, [pc, #60]	; (1000051c <timer_pool_entry_comparator+0x6c>)
100004e0:	4684      	mov	ip, r0
100004e2:	4462      	add	r2, ip
100004e4:	0112      	lsls	r2, r2, #4
100004e6:	189a      	adds	r2, r3, r2
100004e8:	6810      	ldr	r0, [r2, #0]
100004ea:	6853      	ldr	r3, [r2, #4]
100004ec:	0002      	movs	r2, r0
100004ee:	2001      	movs	r0, #1
100004f0:	428b      	cmp	r3, r1
100004f2:	d801      	bhi.n	100004f8 <timer_pool_entry_comparator+0x48>
100004f4:	d00e      	beq.n	10000514 <timer_pool_entry_comparator+0x64>
100004f6:	2000      	movs	r0, #0
100004f8:	b2c0      	uxtb	r0, r0
100004fa:	bd10      	pop	{r4, pc}
100004fc:	4b08      	ldr	r3, [pc, #32]	; (10000520 <timer_pool_entry_comparator+0x70>)
100004fe:	4a09      	ldr	r2, [pc, #36]	; (10000524 <timer_pool_entry_comparator+0x74>)
10000500:	213b      	movs	r1, #59	; 0x3b
10000502:	4809      	ldr	r0, [pc, #36]	; (10000528 <timer_pool_entry_comparator+0x78>)
10000504:	f000 fff8 	bl	100014f8 <__assert_func>
10000508:	4b05      	ldr	r3, [pc, #20]	; (10000520 <timer_pool_entry_comparator+0x70>)
1000050a:	4a06      	ldr	r2, [pc, #24]	; (10000524 <timer_pool_entry_comparator+0x74>)
1000050c:	213b      	movs	r1, #59	; 0x3b
1000050e:	4806      	ldr	r0, [pc, #24]	; (10000528 <timer_pool_entry_comparator+0x78>)
10000510:	f000 fff2 	bl	100014f8 <__assert_func>
10000514:	42a2      	cmp	r2, r4
10000516:	d8ef      	bhi.n	100004f8 <timer_pool_entry_comparator+0x48>
10000518:	e7ed      	b.n	100004f6 <timer_pool_entry_comparator+0x46>
1000051a:	46c0      	nop			; (mov r8, r8)
1000051c:	0fffffff 	.word	0x0fffffff
10000520:	10004124 	.word	0x10004124
10000524:	100043a8 	.word	0x100043a8
10000528:	100040ec 	.word	0x100040ec

1000052c <ph_add_child_node>:
1000052c:	b510      	push	{r4, lr}
1000052e:	2900      	cmp	r1, #0
10000530:	d01e      	beq.n	10000570 <ph_add_child_node+0x44>
10000532:	7b03      	ldrb	r3, [r0, #12]
10000534:	4299      	cmp	r1, r3
10000536:	d81b      	bhi.n	10000570 <ph_add_child_node+0x44>
10000538:	004b      	lsls	r3, r1, #1
1000053a:	185b      	adds	r3, r3, r1
1000053c:	3b03      	subs	r3, #3
1000053e:	6804      	ldr	r4, [r0, #0]
10000540:	46a4      	mov	ip, r4
10000542:	4463      	add	r3, ip
10000544:	2900      	cmp	r1, #0
10000546:	d019      	beq.n	1000057c <ph_add_child_node+0x50>
10000548:	2a00      	cmp	r2, #0
1000054a:	d01d      	beq.n	10000588 <ph_add_child_node+0x5c>
1000054c:	4291      	cmp	r1, r2
1000054e:	d021      	beq.n	10000594 <ph_add_child_node+0x68>
10000550:	2a00      	cmp	r2, #0
10000552:	d025      	beq.n	100005a0 <ph_add_child_node+0x74>
10000554:	7b04      	ldrb	r4, [r0, #12]
10000556:	42a2      	cmp	r2, r4
10000558:	d822      	bhi.n	100005a0 <ph_add_child_node+0x74>
1000055a:	6804      	ldr	r4, [r0, #0]
1000055c:	0050      	lsls	r0, r2, #1
1000055e:	1880      	adds	r0, r0, r2
10000560:	3803      	subs	r0, #3
10000562:	1820      	adds	r0, r4, r0
10000564:	7081      	strb	r1, [r0, #2]
10000566:	7819      	ldrb	r1, [r3, #0]
10000568:	2900      	cmp	r1, #0
1000056a:	d11f      	bne.n	100005ac <ph_add_child_node+0x80>
1000056c:	701a      	strb	r2, [r3, #0]
1000056e:	bd10      	pop	{r4, pc}
10000570:	4b10      	ldr	r3, [pc, #64]	; (100005b4 <ph_add_child_node+0x88>)
10000572:	4a11      	ldr	r2, [pc, #68]	; (100005b8 <ph_add_child_node+0x8c>)
10000574:	2169      	movs	r1, #105	; 0x69
10000576:	4811      	ldr	r0, [pc, #68]	; (100005bc <ph_add_child_node+0x90>)
10000578:	f000 ffbe 	bl	100014f8 <__assert_func>
1000057c:	4b10      	ldr	r3, [pc, #64]	; (100005c0 <ph_add_child_node+0x94>)
1000057e:	4a11      	ldr	r2, [pc, #68]	; (100005c4 <ph_add_child_node+0x98>)
10000580:	3170      	adds	r1, #112	; 0x70
10000582:	480e      	ldr	r0, [pc, #56]	; (100005bc <ph_add_child_node+0x90>)
10000584:	f000 ffb8 	bl	100014f8 <__assert_func>
10000588:	4b0f      	ldr	r3, [pc, #60]	; (100005c8 <ph_add_child_node+0x9c>)
1000058a:	4a0e      	ldr	r2, [pc, #56]	; (100005c4 <ph_add_child_node+0x98>)
1000058c:	2171      	movs	r1, #113	; 0x71
1000058e:	480b      	ldr	r0, [pc, #44]	; (100005bc <ph_add_child_node+0x90>)
10000590:	f000 ffb2 	bl	100014f8 <__assert_func>
10000594:	4b0d      	ldr	r3, [pc, #52]	; (100005cc <ph_add_child_node+0xa0>)
10000596:	4a0b      	ldr	r2, [pc, #44]	; (100005c4 <ph_add_child_node+0x98>)
10000598:	2172      	movs	r1, #114	; 0x72
1000059a:	4808      	ldr	r0, [pc, #32]	; (100005bc <ph_add_child_node+0x90>)
1000059c:	f000 ffac 	bl	100014f8 <__assert_func>
100005a0:	4b04      	ldr	r3, [pc, #16]	; (100005b4 <ph_add_child_node+0x88>)
100005a2:	4a05      	ldr	r2, [pc, #20]	; (100005b8 <ph_add_child_node+0x8c>)
100005a4:	2169      	movs	r1, #105	; 0x69
100005a6:	4805      	ldr	r0, [pc, #20]	; (100005bc <ph_add_child_node+0x90>)
100005a8:	f000 ffa6 	bl	100014f8 <__assert_func>
100005ac:	7041      	strb	r1, [r0, #1]
100005ae:	701a      	strb	r2, [r3, #0]
100005b0:	e7dd      	b.n	1000056e <ph_add_child_node+0x42>
100005b2:	46c0      	nop			; (mov r8, r8)
100005b4:	10004158 	.word	0x10004158
100005b8:	10004414 	.word	0x10004414
100005bc:	10004174 	.word	0x10004174
100005c0:	100041c0 	.word	0x100041c0
100005c4:	100043f0 	.word	0x100043f0
100005c8:	100041cc 	.word	0x100041cc
100005cc:	100041d8 	.word	0x100041d8

100005d0 <ph_merge_nodes>:
100005d0:	b570      	push	{r4, r5, r6, lr}
100005d2:	0006      	movs	r6, r0
100005d4:	000d      	movs	r5, r1
100005d6:	0014      	movs	r4, r2
100005d8:	2900      	cmp	r1, #0
100005da:	d014      	beq.n	10000606 <ph_merge_nodes+0x36>
100005dc:	2a00      	cmp	r2, #0
100005de:	d014      	beq.n	1000060a <ph_merge_nodes+0x3a>
100005e0:	6880      	ldr	r0, [r0, #8]
100005e2:	6873      	ldr	r3, [r6, #4]
100005e4:	4798      	blx	r3
100005e6:	2800      	cmp	r0, #0
100005e8:	d006      	beq.n	100005f8 <ph_merge_nodes+0x28>
100005ea:	0022      	movs	r2, r4
100005ec:	0029      	movs	r1, r5
100005ee:	0030      	movs	r0, r6
100005f0:	f7ff ff9c 	bl	1000052c <ph_add_child_node>
100005f4:	0028      	movs	r0, r5
100005f6:	e007      	b.n	10000608 <ph_merge_nodes+0x38>
100005f8:	002a      	movs	r2, r5
100005fa:	0021      	movs	r1, r4
100005fc:	0030      	movs	r0, r6
100005fe:	f7ff ff95 	bl	1000052c <ph_add_child_node>
10000602:	0020      	movs	r0, r4
10000604:	e000      	b.n	10000608 <ph_merge_nodes+0x38>
10000606:	0010      	movs	r0, r2
10000608:	bd70      	pop	{r4, r5, r6, pc}
1000060a:	0008      	movs	r0, r1
1000060c:	e7fc      	b.n	10000608 <ph_merge_nodes+0x38>
	...

10000610 <add_alarm_under_lock>:
10000610:	b5f0      	push	{r4, r5, r6, r7, lr}
10000612:	b083      	sub	sp, #12
10000614:	0005      	movs	r5, r0
10000616:	9200      	str	r2, [sp, #0]
10000618:	9301      	str	r3, [sp, #4]
1000061a:	ab0a      	add	r3, sp, #40	; 0x28
1000061c:	781c      	ldrb	r4, [r3, #0]
1000061e:	ab0b      	add	r3, sp, #44	; 0x2c
10000620:	781f      	ldrb	r7, [r3, #0]
10000622:	2c00      	cmp	r4, #0
10000624:	d026      	beq.n	10000674 <add_alarm_under_lock+0x64>
10000626:	6803      	ldr	r3, [r0, #0]
10000628:	7b5a      	ldrb	r2, [r3, #13]
1000062a:	4294      	cmp	r4, r2
1000062c:	d107      	bne.n	1000063e <add_alarm_under_lock+0x2e>
1000062e:	2301      	movs	r3, #1
10000630:	2b00      	cmp	r3, #0
10000632:	d119      	bne.n	10000668 <add_alarm_under_lock+0x58>
10000634:	2c00      	cmp	r4, #0
10000636:	d13b      	bne.n	100006b0 <add_alarm_under_lock+0xa0>
10000638:	0020      	movs	r0, r4
1000063a:	b003      	add	sp, #12
1000063c:	bdf0      	pop	{r4, r5, r6, r7, pc}
1000063e:	2c00      	cmp	r4, #0
10000640:	d00c      	beq.n	1000065c <add_alarm_under_lock+0x4c>
10000642:	7b1a      	ldrb	r2, [r3, #12]
10000644:	4294      	cmp	r4, r2
10000646:	d809      	bhi.n	1000065c <add_alarm_under_lock+0x4c>
10000648:	681a      	ldr	r2, [r3, #0]
1000064a:	0063      	lsls	r3, r4, #1
1000064c:	191b      	adds	r3, r3, r4
1000064e:	3b03      	subs	r3, #3
10000650:	18d3      	adds	r3, r2, r3
10000652:	789b      	ldrb	r3, [r3, #2]
10000654:	2b00      	cmp	r3, #0
10000656:	d0eb      	beq.n	10000630 <add_alarm_under_lock+0x20>
10000658:	2301      	movs	r3, #1
1000065a:	e7e9      	b.n	10000630 <add_alarm_under_lock+0x20>
1000065c:	4b3e      	ldr	r3, [pc, #248]	; (10000758 <add_alarm_under_lock+0x148>)
1000065e:	4a3f      	ldr	r2, [pc, #252]	; (1000075c <add_alarm_under_lock+0x14c>)
10000660:	2169      	movs	r1, #105	; 0x69
10000662:	483f      	ldr	r0, [pc, #252]	; (10000760 <add_alarm_under_lock+0x150>)
10000664:	f000 ff48 	bl	100014f8 <__assert_func>
10000668:	4b3e      	ldr	r3, [pc, #248]	; (10000764 <add_alarm_under_lock+0x154>)
1000066a:	4a3f      	ldr	r2, [pc, #252]	; (10000768 <add_alarm_under_lock+0x158>)
1000066c:	2165      	movs	r1, #101	; 0x65
1000066e:	483f      	ldr	r0, [pc, #252]	; (1000076c <add_alarm_under_lock+0x15c>)
10000670:	f000 ff42 	bl	100014f8 <__assert_func>
10000674:	6803      	ldr	r3, [r0, #0]
10000676:	7b9c      	ldrb	r4, [r3, #14]
10000678:	2c00      	cmp	r4, #0
1000067a:	d0db      	beq.n	10000634 <add_alarm_under_lock+0x24>
1000067c:	d012      	beq.n	100006a4 <add_alarm_under_lock+0x94>
1000067e:	7b1a      	ldrb	r2, [r3, #12]
10000680:	4294      	cmp	r4, r2
10000682:	d80f      	bhi.n	100006a4 <add_alarm_under_lock+0x94>
10000684:	0062      	lsls	r2, r4, #1
10000686:	1912      	adds	r2, r2, r4
10000688:	3a03      	subs	r2, #3
1000068a:	6819      	ldr	r1, [r3, #0]
1000068c:	468c      	mov	ip, r1
1000068e:	4462      	add	r2, ip
10000690:	7851      	ldrb	r1, [r2, #1]
10000692:	7399      	strb	r1, [r3, #14]
10000694:	2900      	cmp	r1, #0
10000696:	d100      	bne.n	1000069a <add_alarm_under_lock+0x8a>
10000698:	73d9      	strb	r1, [r3, #15]
1000069a:	2300      	movs	r3, #0
1000069c:	7093      	strb	r3, [r2, #2]
1000069e:	7053      	strb	r3, [r2, #1]
100006a0:	7013      	strb	r3, [r2, #0]
100006a2:	e7c7      	b.n	10000634 <add_alarm_under_lock+0x24>
100006a4:	4b2c      	ldr	r3, [pc, #176]	; (10000758 <add_alarm_under_lock+0x148>)
100006a6:	4a2d      	ldr	r2, [pc, #180]	; (1000075c <add_alarm_under_lock+0x14c>)
100006a8:	2169      	movs	r1, #105	; 0x69
100006aa:	482d      	ldr	r0, [pc, #180]	; (10000760 <add_alarm_under_lock+0x150>)
100006ac:	f000 ff24 	bl	100014f8 <__assert_func>
100006b0:	2c00      	cmp	r4, #0
100006b2:	d03a      	beq.n	1000072a <add_alarm_under_lock+0x11a>
100006b4:	682b      	ldr	r3, [r5, #0]
100006b6:	7b1b      	ldrb	r3, [r3, #12]
100006b8:	429c      	cmp	r4, r3
100006ba:	d836      	bhi.n	1000072a <add_alarm_under_lock+0x11a>
100006bc:	4b2c      	ldr	r3, [pc, #176]	; (10000770 <add_alarm_under_lock+0x160>)
100006be:	18e3      	adds	r3, r4, r3
100006c0:	011b      	lsls	r3, r3, #4
100006c2:	68aa      	ldr	r2, [r5, #8]
100006c4:	4694      	mov	ip, r2
100006c6:	4463      	add	r3, ip
100006c8:	9a00      	ldr	r2, [sp, #0]
100006ca:	601a      	str	r2, [r3, #0]
100006cc:	9a01      	ldr	r2, [sp, #4]
100006ce:	605a      	str	r2, [r3, #4]
100006d0:	9a08      	ldr	r2, [sp, #32]
100006d2:	609a      	str	r2, [r3, #8]
100006d4:	9a09      	ldr	r2, [sp, #36]	; 0x24
100006d6:	60da      	str	r2, [r3, #12]
100006d8:	682e      	ldr	r6, [r5, #0]
100006da:	2c00      	cmp	r4, #0
100006dc:	d02b      	beq.n	10000736 <add_alarm_under_lock+0x126>
100006de:	d030      	beq.n	10000742 <add_alarm_under_lock+0x132>
100006e0:	7b33      	ldrb	r3, [r6, #12]
100006e2:	429c      	cmp	r4, r3
100006e4:	d82d      	bhi.n	10000742 <add_alarm_under_lock+0x132>
100006e6:	0063      	lsls	r3, r4, #1
100006e8:	191b      	adds	r3, r3, r4
100006ea:	3b03      	subs	r3, #3
100006ec:	6832      	ldr	r2, [r6, #0]
100006ee:	4694      	mov	ip, r2
100006f0:	4463      	add	r3, ip
100006f2:	2200      	movs	r2, #0
100006f4:	709a      	strb	r2, [r3, #2]
100006f6:	705a      	strb	r2, [r3, #1]
100006f8:	701a      	strb	r2, [r3, #0]
100006fa:	7b71      	ldrb	r1, [r6, #13]
100006fc:	0022      	movs	r2, r4
100006fe:	0030      	movs	r0, r6
10000700:	f7ff ff66 	bl	100005d0 <ph_merge_nodes>
10000704:	7370      	strb	r0, [r6, #13]
10000706:	4284      	cmp	r4, r0
10000708:	d000      	beq.n	1000070c <add_alarm_under_lock+0xfc>
1000070a:	e795      	b.n	10000638 <add_alarm_under_lock+0x28>
1000070c:	7d28      	ldrb	r0, [r5, #20]
1000070e:	9a00      	ldr	r2, [sp, #0]
10000710:	9b01      	ldr	r3, [sp, #4]
10000712:	f000 fc23 	bl	10000f5c <hardware_alarm_set_target>
10000716:	1e06      	subs	r6, r0, #0
10000718:	d001      	beq.n	1000071e <add_alarm_under_lock+0x10e>
1000071a:	2f00      	cmp	r7, #0
1000071c:	d017      	beq.n	1000074e <add_alarm_under_lock+0x13e>
1000071e:	9b0c      	ldr	r3, [sp, #48]	; 0x30
10000720:	2b00      	cmp	r3, #0
10000722:	d100      	bne.n	10000726 <add_alarm_under_lock+0x116>
10000724:	e788      	b.n	10000638 <add_alarm_under_lock+0x28>
10000726:	701e      	strb	r6, [r3, #0]
10000728:	e786      	b.n	10000638 <add_alarm_under_lock+0x28>
1000072a:	4b12      	ldr	r3, [pc, #72]	; (10000774 <add_alarm_under_lock+0x164>)
1000072c:	4a12      	ldr	r2, [pc, #72]	; (10000778 <add_alarm_under_lock+0x168>)
1000072e:	213b      	movs	r1, #59	; 0x3b
10000730:	480e      	ldr	r0, [pc, #56]	; (1000076c <add_alarm_under_lock+0x15c>)
10000732:	f000 fee1 	bl	100014f8 <__assert_func>
10000736:	4b11      	ldr	r3, [pc, #68]	; (1000077c <add_alarm_under_lock+0x16c>)
10000738:	4a11      	ldr	r2, [pc, #68]	; (10000780 <add_alarm_under_lock+0x170>)
1000073a:	21a6      	movs	r1, #166	; 0xa6
1000073c:	4808      	ldr	r0, [pc, #32]	; (10000760 <add_alarm_under_lock+0x150>)
1000073e:	f000 fedb 	bl	100014f8 <__assert_func>
10000742:	4b05      	ldr	r3, [pc, #20]	; (10000758 <add_alarm_under_lock+0x148>)
10000744:	4a05      	ldr	r2, [pc, #20]	; (1000075c <add_alarm_under_lock+0x14c>)
10000746:	2169      	movs	r1, #105	; 0x69
10000748:	4805      	ldr	r0, [pc, #20]	; (10000760 <add_alarm_under_lock+0x150>)
1000074a:	f000 fed5 	bl	100014f8 <__assert_func>
1000074e:	6828      	ldr	r0, [r5, #0]
10000750:	0021      	movs	r1, r4
10000752:	f000 fe4f 	bl	100013f4 <ph_remove_and_free_node>
10000756:	e7e2      	b.n	1000071e <add_alarm_under_lock+0x10e>
10000758:	10004158 	.word	0x10004158
1000075c:	10004414 	.word	0x10004414
10000760:	10004174 	.word	0x10004174
10000764:	100041f0 	.word	0x100041f0
10000768:	10004420 	.word	0x10004420
1000076c:	100040ec 	.word	0x100040ec
10000770:	0fffffff 	.word	0x0fffffff
10000774:	10004124 	.word	0x10004124
10000778:	100043a8 	.word	0x100043a8
1000077c:	100040e8 	.word	0x100040e8
10000780:	10004404 	.word	0x10004404

10000784 <alarm_pool_alarm_callback>:
10000784:	b5f0      	push	{r4, r5, r6, r7, lr}
10000786:	46de      	mov	lr, fp
10000788:	4657      	mov	r7, sl
1000078a:	464e      	mov	r6, r9
1000078c:	4645      	mov	r5, r8
1000078e:	b5e0      	push	{r5, r6, r7, lr}
10000790:	b08b      	sub	sp, #44	; 0x2c
10000792:	9009      	str	r0, [sp, #36]	; 0x24
10000794:	2300      	movs	r3, #0
10000796:	9308      	str	r3, [sp, #32]
10000798:	0082      	lsls	r2, r0, #2
1000079a:	4bb2      	ldr	r3, [pc, #712]	; (10000a64 <alarm_pool_alarm_callback+0x2e0>)
1000079c:	58d6      	ldr	r6, [r2, r3]
1000079e:	0037      	movs	r7, r6
100007a0:	e032      	b.n	10000808 <alarm_pool_alarm_callback+0x84>
100007a2:	4bb1      	ldr	r3, [pc, #708]	; (10000a68 <alarm_pool_alarm_callback+0x2e4>)
100007a4:	4ab1      	ldr	r2, [pc, #708]	; (10000a6c <alarm_pool_alarm_callback+0x2e8>)
100007a6:	213f      	movs	r1, #63	; 0x3f
100007a8:	48b1      	ldr	r0, [pc, #708]	; (10000a70 <alarm_pool_alarm_callback+0x2ec>)
100007aa:	f000 fea5 	bl	100014f8 <__assert_func>
100007ae:	4bb1      	ldr	r3, [pc, #708]	; (10000a74 <alarm_pool_alarm_callback+0x2f0>)
100007b0:	4ab1      	ldr	r2, [pc, #708]	; (10000a78 <alarm_pool_alarm_callback+0x2f4>)
100007b2:	213b      	movs	r1, #59	; 0x3b
100007b4:	48b1      	ldr	r0, [pc, #708]	; (10000a7c <alarm_pool_alarm_callback+0x2f8>)
100007b6:	f000 fe9f 	bl	100014f8 <__assert_func>
100007ba:	4bb1      	ldr	r3, [pc, #708]	; (10000a80 <alarm_pool_alarm_callback+0x2fc>)
100007bc:	4ab1      	ldr	r2, [pc, #708]	; (10000a84 <alarm_pool_alarm_callback+0x300>)
100007be:	218c      	movs	r1, #140	; 0x8c
100007c0:	48ae      	ldr	r0, [pc, #696]	; (10000a7c <alarm_pool_alarm_callback+0x2f8>)
100007c2:	f000 fe99 	bl	100014f8 <__assert_func>
100007c6:	4bb0      	ldr	r3, [pc, #704]	; (10000a88 <alarm_pool_alarm_callback+0x304>)
100007c8:	4aae      	ldr	r2, [pc, #696]	; (10000a84 <alarm_pool_alarm_callback+0x300>)
100007ca:	2190      	movs	r1, #144	; 0x90
100007cc:	48ab      	ldr	r0, [pc, #684]	; (10000a7c <alarm_pool_alarm_callback+0x2f8>)
100007ce:	f000 fe93 	bl	100014f8 <__assert_func>
100007d2:	4ba8      	ldr	r3, [pc, #672]	; (10000a74 <alarm_pool_alarm_callback+0x2f0>)
100007d4:	4aad      	ldr	r2, [pc, #692]	; (10000a8c <alarm_pool_alarm_callback+0x308>)
100007d6:	2140      	movs	r1, #64	; 0x40
100007d8:	48a8      	ldr	r0, [pc, #672]	; (10000a7c <alarm_pool_alarm_callback+0x2f8>)
100007da:	f000 fe8d 	bl	100014f8 <__assert_func>
100007de:	682a      	ldr	r2, [r5, #0]
100007e0:	686b      	ldr	r3, [r5, #4]
100007e2:	9809      	ldr	r0, [sp, #36]	; 0x24
100007e4:	f000 fbba 	bl	10000f5c <hardware_alarm_set_target>
100007e8:	2300      	movs	r3, #0
100007ea:	469a      	mov	sl, r3
100007ec:	4698      	mov	r8, r3
100007ee:	687b      	ldr	r3, [r7, #4]
100007f0:	f3bf 8f5f 	dmb	sy
100007f4:	2200      	movs	r2, #0
100007f6:	601a      	str	r2, [r3, #0]
100007f8:	f386 8810 	msr	PRIMASK, r6
100007fc:	4643      	mov	r3, r8
100007fe:	2b00      	cmp	r3, #0
10000800:	d151      	bne.n	100008a6 <alarm_pool_alarm_callback+0x122>
10000802:	2800      	cmp	r0, #0
10000804:	d100      	bne.n	10000808 <alarm_pool_alarm_callback+0x84>
10000806:	e126      	b.n	10000a56 <alarm_pool_alarm_callback+0x2d2>
10000808:	f000 fb40 	bl	10000e8c <time_us_64>
1000080c:	0002      	movs	r2, r0
1000080e:	1e0b      	subs	r3, r1, #0
10000810:	dbc7      	blt.n	100007a2 <alarm_pool_alarm_callback+0x1e>
10000812:	2000      	movs	r0, #0
10000814:	2100      	movs	r1, #0
10000816:	9006      	str	r0, [sp, #24]
10000818:	9107      	str	r1, [sp, #28]
1000081a:	6878      	ldr	r0, [r7, #4]
1000081c:	f3ef 8610 	mrs	r6, PRIMASK
10000820:	b672      	cpsid	i
10000822:	6801      	ldr	r1, [r0, #0]
10000824:	2900      	cmp	r1, #0
10000826:	d0fc      	beq.n	10000822 <alarm_pool_alarm_callback+0x9e>
10000828:	f3bf 8f5f 	dmb	sy
1000082c:	6839      	ldr	r1, [r7, #0]
1000082e:	4688      	mov	r8, r1
10000830:	7b4c      	ldrb	r4, [r1, #13]
10000832:	2c00      	cmp	r4, #0
10000834:	d032      	beq.n	1000089c <alarm_pool_alarm_callback+0x118>
10000836:	d0ba      	beq.n	100007ae <alarm_pool_alarm_callback+0x2a>
10000838:	7b09      	ldrb	r1, [r1, #12]
1000083a:	428c      	cmp	r4, r1
1000083c:	d8b7      	bhi.n	100007ae <alarm_pool_alarm_callback+0x2a>
1000083e:	4994      	ldr	r1, [pc, #592]	; (10000a90 <alarm_pool_alarm_callback+0x30c>)
10000840:	1865      	adds	r5, r4, r1
10000842:	012d      	lsls	r5, r5, #4
10000844:	68b9      	ldr	r1, [r7, #8]
10000846:	468c      	mov	ip, r1
10000848:	4465      	add	r5, ip
1000084a:	6828      	ldr	r0, [r5, #0]
1000084c:	6869      	ldr	r1, [r5, #4]
1000084e:	1a80      	subs	r0, r0, r2
10000850:	4199      	sbcs	r1, r3
10000852:	2900      	cmp	r1, #0
10000854:	dcc3      	bgt.n	100007de <alarm_pool_alarm_callback+0x5a>
10000856:	d101      	bne.n	1000085c <alarm_pool_alarm_callback+0xd8>
10000858:	2800      	cmp	r0, #0
1000085a:	d1c0      	bne.n	100007de <alarm_pool_alarm_callback+0x5a>
1000085c:	2100      	movs	r1, #0
1000085e:	4640      	mov	r0, r8
10000860:	f000 fdbe 	bl	100013e0 <ph_remove_head>
10000864:	42a0      	cmp	r0, r4
10000866:	d1a8      	bne.n	100007ba <alarm_pool_alarm_callback+0x36>
10000868:	682a      	ldr	r2, [r5, #0]
1000086a:	686b      	ldr	r3, [r5, #4]
1000086c:	9206      	str	r2, [sp, #24]
1000086e:	9307      	str	r3, [sp, #28]
10000870:	68ab      	ldr	r3, [r5, #8]
10000872:	4698      	mov	r8, r3
10000874:	68eb      	ldr	r3, [r5, #12]
10000876:	469a      	mov	sl, r3
10000878:	4643      	mov	r3, r8
1000087a:	2b00      	cmp	r3, #0
1000087c:	d0a3      	beq.n	100007c6 <alarm_pool_alarm_callback+0x42>
1000087e:	2c00      	cmp	r4, #0
10000880:	d0a7      	beq.n	100007d2 <alarm_pool_alarm_callback+0x4e>
10000882:	683b      	ldr	r3, [r7, #0]
10000884:	7b1b      	ldrb	r3, [r3, #12]
10000886:	429c      	cmp	r4, r3
10000888:	d8a3      	bhi.n	100007d2 <alarm_pool_alarm_callback+0x4e>
1000088a:	1e63      	subs	r3, r4, #1
1000088c:	68fa      	ldr	r2, [r7, #12]
1000088e:	5cd3      	ldrb	r3, [r2, r3]
10000890:	9308      	str	r3, [sp, #32]
10000892:	021b      	lsls	r3, r3, #8
10000894:	4318      	orrs	r0, r3
10000896:	6138      	str	r0, [r7, #16]
10000898:	2000      	movs	r0, #0
1000089a:	e7a8      	b.n	100007ee <alarm_pool_alarm_callback+0x6a>
1000089c:	2300      	movs	r3, #0
1000089e:	469a      	mov	sl, r3
100008a0:	4698      	mov	r8, r3
100008a2:	2000      	movs	r0, #0
100008a4:	e7a3      	b.n	100007ee <alarm_pool_alarm_callback+0x6a>
100008a6:	9b08      	ldr	r3, [sp, #32]
100008a8:	021b      	lsls	r3, r3, #8
100008aa:	4323      	orrs	r3, r4
100008ac:	4699      	mov	r9, r3
100008ae:	4651      	mov	r1, sl
100008b0:	0018      	movs	r0, r3
100008b2:	47c0      	blx	r8
100008b4:	0005      	movs	r5, r0
100008b6:	000e      	movs	r6, r1
100008b8:	687a      	ldr	r2, [r7, #4]
100008ba:	f3ef 8b10 	mrs	fp, PRIMASK
100008be:	b672      	cpsid	i
100008c0:	6813      	ldr	r3, [r2, #0]
100008c2:	4259      	negs	r1, r3
100008c4:	414b      	adcs	r3, r1
100008c6:	b2d9      	uxtb	r1, r3
100008c8:	2b00      	cmp	r3, #0
100008ca:	d1f9      	bne.n	100008c0 <alarm_pool_alarm_callback+0x13c>
100008cc:	f3bf 8f5f 	dmb	sy
100008d0:	2e00      	cmp	r6, #0
100008d2:	db26      	blt.n	10000922 <alarm_pool_alarm_callback+0x19e>
100008d4:	2e00      	cmp	r6, #0
100008d6:	dd52      	ble.n	1000097e <alarm_pool_alarm_callback+0x1fa>
100008d8:	693b      	ldr	r3, [r7, #16]
100008da:	2b00      	cmp	r3, #0
100008dc:	d053      	beq.n	10000986 <alarm_pool_alarm_callback+0x202>
100008de:	454b      	cmp	r3, r9
100008e0:	d172      	bne.n	100009c8 <alarm_pool_alarm_callback+0x244>
100008e2:	f000 fad3 	bl	10000e8c <time_us_64>
100008e6:	0002      	movs	r2, r0
100008e8:	1e0b      	subs	r3, r1, #0
100008ea:	db73      	blt.n	100009d4 <alarm_pool_alarm_callback+0x250>
100008ec:	0001      	movs	r1, r0
100008ee:	0018      	movs	r0, r3
100008f0:	1952      	adds	r2, r2, r5
100008f2:	4173      	adcs	r3, r6
100008f4:	4298      	cmp	r0, r3
100008f6:	d802      	bhi.n	100008fe <alarm_pool_alarm_callback+0x17a>
100008f8:	d104      	bne.n	10000904 <alarm_pool_alarm_callback+0x180>
100008fa:	4291      	cmp	r1, r2
100008fc:	d902      	bls.n	10000904 <alarm_pool_alarm_callback+0x180>
100008fe:	2201      	movs	r2, #1
10000900:	4252      	negs	r2, r2
10000902:	17d3      	asrs	r3, r2, #31
10000904:	2b00      	cmp	r3, #0
10000906:	db6b      	blt.n	100009e0 <alarm_pool_alarm_callback+0x25c>
10000908:	2100      	movs	r1, #0
1000090a:	9104      	str	r1, [sp, #16]
1000090c:	3101      	adds	r1, #1
1000090e:	9103      	str	r1, [sp, #12]
10000910:	9402      	str	r4, [sp, #8]
10000912:	4651      	mov	r1, sl
10000914:	9101      	str	r1, [sp, #4]
10000916:	4641      	mov	r1, r8
10000918:	9100      	str	r1, [sp, #0]
1000091a:	0038      	movs	r0, r7
1000091c:	f7ff fe78 	bl	10000610 <add_alarm_under_lock>
10000920:	e049      	b.n	100009b6 <alarm_pool_alarm_callback+0x232>
10000922:	693b      	ldr	r3, [r7, #16]
10000924:	2b00      	cmp	r3, #0
10000926:	d0d5      	beq.n	100008d4 <alarm_pool_alarm_callback+0x150>
10000928:	454b      	cmp	r3, r9
1000092a:	d11c      	bne.n	10000966 <alarm_pool_alarm_callback+0x1e2>
1000092c:	9a06      	ldr	r2, [sp, #24]
1000092e:	9b07      	ldr	r3, [sp, #28]
10000930:	0010      	movs	r0, r2
10000932:	0019      	movs	r1, r3
10000934:	1b52      	subs	r2, r2, r5
10000936:	41b3      	sbcs	r3, r6
10000938:	4299      	cmp	r1, r3
1000093a:	d802      	bhi.n	10000942 <alarm_pool_alarm_callback+0x1be>
1000093c:	d104      	bne.n	10000948 <alarm_pool_alarm_callback+0x1c4>
1000093e:	4290      	cmp	r0, r2
10000940:	d902      	bls.n	10000948 <alarm_pool_alarm_callback+0x1c4>
10000942:	2201      	movs	r2, #1
10000944:	4252      	negs	r2, r2
10000946:	17d3      	asrs	r3, r2, #31
10000948:	2b00      	cmp	r3, #0
1000094a:	db12      	blt.n	10000972 <alarm_pool_alarm_callback+0x1ee>
1000094c:	2100      	movs	r1, #0
1000094e:	9104      	str	r1, [sp, #16]
10000950:	3101      	adds	r1, #1
10000952:	9103      	str	r1, [sp, #12]
10000954:	9402      	str	r4, [sp, #8]
10000956:	4651      	mov	r1, sl
10000958:	9101      	str	r1, [sp, #4]
1000095a:	4641      	mov	r1, r8
1000095c:	9100      	str	r1, [sp, #0]
1000095e:	0038      	movs	r0, r7
10000960:	f7ff fe56 	bl	10000610 <add_alarm_under_lock>
10000964:	e027      	b.n	100009b6 <alarm_pool_alarm_callback+0x232>
10000966:	4b4b      	ldr	r3, [pc, #300]	; (10000a94 <alarm_pool_alarm_callback+0x310>)
10000968:	4a46      	ldr	r2, [pc, #280]	; (10000a84 <alarm_pool_alarm_callback+0x300>)
1000096a:	219f      	movs	r1, #159	; 0x9f
1000096c:	4843      	ldr	r0, [pc, #268]	; (10000a7c <alarm_pool_alarm_callback+0x2f8>)
1000096e:	f000 fdc3 	bl	100014f8 <__assert_func>
10000972:	4b3d      	ldr	r3, [pc, #244]	; (10000a68 <alarm_pool_alarm_callback+0x2e4>)
10000974:	4a3d      	ldr	r2, [pc, #244]	; (10000a6c <alarm_pool_alarm_callback+0x2e8>)
10000976:	213f      	movs	r1, #63	; 0x3f
10000978:	483d      	ldr	r0, [pc, #244]	; (10000a70 <alarm_pool_alarm_callback+0x2ec>)
1000097a:	f000 fdbd 	bl	100014f8 <__assert_func>
1000097e:	2e00      	cmp	r6, #0
10000980:	d101      	bne.n	10000986 <alarm_pool_alarm_callback+0x202>
10000982:	2d00      	cmp	r5, #0
10000984:	d1a8      	bne.n	100008d8 <alarm_pool_alarm_callback+0x154>
10000986:	683a      	ldr	r2, [r7, #0]
10000988:	2c00      	cmp	r4, #0
1000098a:	d045      	beq.n	10000a18 <alarm_pool_alarm_callback+0x294>
1000098c:	7b53      	ldrb	r3, [r2, #13]
1000098e:	429c      	cmp	r4, r3
10000990:	d12c      	bne.n	100009ec <alarm_pool_alarm_callback+0x268>
10000992:	2101      	movs	r1, #1
10000994:	2900      	cmp	r1, #0
10000996:	d13f      	bne.n	10000a18 <alarm_pool_alarm_callback+0x294>
10000998:	7bd3      	ldrb	r3, [r2, #15]
1000099a:	2b00      	cmp	r3, #0
1000099c:	d142      	bne.n	10000a24 <alarm_pool_alarm_callback+0x2a0>
1000099e:	73d4      	strb	r4, [r2, #15]
100009a0:	2c00      	cmp	r4, #0
100009a2:	d052      	beq.n	10000a4a <alarm_pool_alarm_callback+0x2c6>
100009a4:	683b      	ldr	r3, [r7, #0]
100009a6:	7b1b      	ldrb	r3, [r3, #12]
100009a8:	429c      	cmp	r4, r3
100009aa:	d84e      	bhi.n	10000a4a <alarm_pool_alarm_callback+0x2c6>
100009ac:	68fa      	ldr	r2, [r7, #12]
100009ae:	3c01      	subs	r4, #1
100009b0:	5d13      	ldrb	r3, [r2, r4]
100009b2:	3301      	adds	r3, #1
100009b4:	5513      	strb	r3, [r2, r4]
100009b6:	2300      	movs	r3, #0
100009b8:	613b      	str	r3, [r7, #16]
100009ba:	687a      	ldr	r2, [r7, #4]
100009bc:	f3bf 8f5f 	dmb	sy
100009c0:	6013      	str	r3, [r2, #0]
100009c2:	f38b 8810 	msr	PRIMASK, fp
100009c6:	e71f      	b.n	10000808 <alarm_pool_alarm_callback+0x84>
100009c8:	4b32      	ldr	r3, [pc, #200]	; (10000a94 <alarm_pool_alarm_callback+0x310>)
100009ca:	4a2e      	ldr	r2, [pc, #184]	; (10000a84 <alarm_pool_alarm_callback+0x300>)
100009cc:	21a2      	movs	r1, #162	; 0xa2
100009ce:	482b      	ldr	r0, [pc, #172]	; (10000a7c <alarm_pool_alarm_callback+0x2f8>)
100009d0:	f000 fd92 	bl	100014f8 <__assert_func>
100009d4:	4b24      	ldr	r3, [pc, #144]	; (10000a68 <alarm_pool_alarm_callback+0x2e4>)
100009d6:	4a25      	ldr	r2, [pc, #148]	; (10000a6c <alarm_pool_alarm_callback+0x2e8>)
100009d8:	213f      	movs	r1, #63	; 0x3f
100009da:	4825      	ldr	r0, [pc, #148]	; (10000a70 <alarm_pool_alarm_callback+0x2ec>)
100009dc:	f000 fd8c 	bl	100014f8 <__assert_func>
100009e0:	4b21      	ldr	r3, [pc, #132]	; (10000a68 <alarm_pool_alarm_callback+0x2e4>)
100009e2:	4a22      	ldr	r2, [pc, #136]	; (10000a6c <alarm_pool_alarm_callback+0x2e8>)
100009e4:	213f      	movs	r1, #63	; 0x3f
100009e6:	4822      	ldr	r0, [pc, #136]	; (10000a70 <alarm_pool_alarm_callback+0x2ec>)
100009e8:	f000 fd86 	bl	100014f8 <__assert_func>
100009ec:	2c00      	cmp	r4, #0
100009ee:	d00d      	beq.n	10000a0c <alarm_pool_alarm_callback+0x288>
100009f0:	7b13      	ldrb	r3, [r2, #12]
100009f2:	429c      	cmp	r4, r3
100009f4:	d80a      	bhi.n	10000a0c <alarm_pool_alarm_callback+0x288>
100009f6:	0063      	lsls	r3, r4, #1
100009f8:	191b      	adds	r3, r3, r4
100009fa:	3b03      	subs	r3, #3
100009fc:	6810      	ldr	r0, [r2, #0]
100009fe:	4684      	mov	ip, r0
10000a00:	4463      	add	r3, ip
10000a02:	789b      	ldrb	r3, [r3, #2]
10000a04:	2b00      	cmp	r3, #0
10000a06:	d0c5      	beq.n	10000994 <alarm_pool_alarm_callback+0x210>
10000a08:	2101      	movs	r1, #1
10000a0a:	e7c3      	b.n	10000994 <alarm_pool_alarm_callback+0x210>
10000a0c:	4b22      	ldr	r3, [pc, #136]	; (10000a98 <alarm_pool_alarm_callback+0x314>)
10000a0e:	4a23      	ldr	r2, [pc, #140]	; (10000a9c <alarm_pool_alarm_callback+0x318>)
10000a10:	2169      	movs	r1, #105	; 0x69
10000a12:	4823      	ldr	r0, [pc, #140]	; (10000aa0 <alarm_pool_alarm_callback+0x31c>)
10000a14:	f000 fd70 	bl	100014f8 <__assert_func>
10000a18:	4b22      	ldr	r3, [pc, #136]	; (10000aa4 <alarm_pool_alarm_callback+0x320>)
10000a1a:	4a23      	ldr	r2, [pc, #140]	; (10000aa8 <alarm_pool_alarm_callback+0x324>)
10000a1c:	21f7      	movs	r1, #247	; 0xf7
10000a1e:	4820      	ldr	r0, [pc, #128]	; (10000aa0 <alarm_pool_alarm_callback+0x31c>)
10000a20:	f000 fd6a 	bl	100014f8 <__assert_func>
10000a24:	2b00      	cmp	r3, #0
10000a26:	d00a      	beq.n	10000a3e <alarm_pool_alarm_callback+0x2ba>
10000a28:	7b11      	ldrb	r1, [r2, #12]
10000a2a:	428b      	cmp	r3, r1
10000a2c:	d807      	bhi.n	10000a3e <alarm_pool_alarm_callback+0x2ba>
10000a2e:	0059      	lsls	r1, r3, #1
10000a30:	18cb      	adds	r3, r1, r3
10000a32:	3b03      	subs	r3, #3
10000a34:	6811      	ldr	r1, [r2, #0]
10000a36:	468c      	mov	ip, r1
10000a38:	4463      	add	r3, ip
10000a3a:	705c      	strb	r4, [r3, #1]
10000a3c:	e7af      	b.n	1000099e <alarm_pool_alarm_callback+0x21a>
10000a3e:	4b16      	ldr	r3, [pc, #88]	; (10000a98 <alarm_pool_alarm_callback+0x314>)
10000a40:	4a16      	ldr	r2, [pc, #88]	; (10000a9c <alarm_pool_alarm_callback+0x318>)
10000a42:	2169      	movs	r1, #105	; 0x69
10000a44:	4816      	ldr	r0, [pc, #88]	; (10000aa0 <alarm_pool_alarm_callback+0x31c>)
10000a46:	f000 fd57 	bl	100014f8 <__assert_func>
10000a4a:	4b0a      	ldr	r3, [pc, #40]	; (10000a74 <alarm_pool_alarm_callback+0x2f0>)
10000a4c:	4a0f      	ldr	r2, [pc, #60]	; (10000a8c <alarm_pool_alarm_callback+0x308>)
10000a4e:	2140      	movs	r1, #64	; 0x40
10000a50:	480a      	ldr	r0, [pc, #40]	; (10000a7c <alarm_pool_alarm_callback+0x2f8>)
10000a52:	f000 fd51 	bl	100014f8 <__assert_func>
10000a56:	b00b      	add	sp, #44	; 0x2c
10000a58:	bcf0      	pop	{r4, r5, r6, r7}
10000a5a:	46bb      	mov	fp, r7
10000a5c:	46b2      	mov	sl, r6
10000a5e:	46a9      	mov	r9, r5
10000a60:	46a0      	mov	r8, r4
10000a62:	bdf0      	pop	{r4, r5, r6, r7, pc}
10000a64:	2000040c 	.word	0x2000040c
10000a68:	10004218 	.word	0x10004218
10000a6c:	10004374 	.word	0x10004374
10000a70:	10004234 	.word	0x10004234
10000a74:	10004124 	.word	0x10004124
10000a78:	100043a8 	.word	0x100043a8
10000a7c:	100040ec 	.word	0x100040ec
10000a80:	1000427c 	.word	0x1000427c
10000a84:	1000438c 	.word	0x1000438c
10000a88:	10004294 	.word	0x10004294
10000a8c:	100043cc 	.word	0x100043cc
10000a90:	0fffffff 	.word	0x0fffffff
10000a94:	100042a0 	.word	0x100042a0
10000a98:	10004158 	.word	0x10004158
10000a9c:	10004414 	.word	0x10004414
10000aa0:	10004174 	.word	0x10004174
10000aa4:	100042dc 	.word	0x100042dc
10000aa8:	100043e0 	.word	0x100043e0

10000aac <alarm_pool_init_default>:
10000aac:	b510      	push	{r4, lr}
10000aae:	4b0a      	ldr	r3, [pc, #40]	; (10000ad8 <alarm_pool_init_default+0x2c>)
10000ab0:	685b      	ldr	r3, [r3, #4]
10000ab2:	2b00      	cmp	r3, #0
10000ab4:	d004      	beq.n	10000ac0 <alarm_pool_init_default+0x14>
10000ab6:	210a      	movs	r1, #10
10000ab8:	4808      	ldr	r0, [pc, #32]	; (10000adc <alarm_pool_init_default+0x30>)
10000aba:	f000 fae3 	bl	10001084 <lock_init>
10000abe:	bd10      	pop	{r4, pc}
10000ac0:	4c05      	ldr	r4, [pc, #20]	; (10000ad8 <alarm_pool_init_default+0x2c>)
10000ac2:	0023      	movs	r3, r4
10000ac4:	4a06      	ldr	r2, [pc, #24]	; (10000ae0 <alarm_pool_init_default+0x34>)
10000ac6:	2110      	movs	r1, #16
10000ac8:	6820      	ldr	r0, [r4, #0]
10000aca:	f000 fba9 	bl	10001220 <ph_post_alloc_init>
10000ace:	2103      	movs	r1, #3
10000ad0:	0020      	movs	r0, r4
10000ad2:	f7ff fcb5 	bl	10000440 <alarm_pool_post_alloc_init>
10000ad6:	e7ee      	b.n	10000ab6 <alarm_pool_init_default+0xa>
10000ad8:	200001b4 	.word	0x200001b4
10000adc:	20000620 	.word	0x20000620
10000ae0:	100004b1 	.word	0x100004b1

10000ae4 <alarm_pool_get_default>:
10000ae4:	b510      	push	{r4, lr}
10000ae6:	4b06      	ldr	r3, [pc, #24]	; (10000b00 <alarm_pool_get_default+0x1c>)
10000ae8:	685b      	ldr	r3, [r3, #4]
10000aea:	2b00      	cmp	r3, #0
10000aec:	d001      	beq.n	10000af2 <alarm_pool_get_default+0xe>
10000aee:	4804      	ldr	r0, [pc, #16]	; (10000b00 <alarm_pool_get_default+0x1c>)
10000af0:	bd10      	pop	{r4, pc}
10000af2:	4b04      	ldr	r3, [pc, #16]	; (10000b04 <alarm_pool_get_default+0x20>)
10000af4:	4a04      	ldr	r2, [pc, #16]	; (10000b08 <alarm_pool_get_default+0x24>)
10000af6:	215c      	movs	r1, #92	; 0x5c
10000af8:	4804      	ldr	r0, [pc, #16]	; (10000b0c <alarm_pool_get_default+0x28>)
10000afa:	f000 fcfd 	bl	100014f8 <__assert_func>
10000afe:	46c0      	nop			; (mov r8, r8)
10000b00:	200001b4 	.word	0x200001b4
10000b04:	10004300 	.word	0x10004300
10000b08:	100043b4 	.word	0x100043b4
10000b0c:	100040ec 	.word	0x100040ec

10000b10 <alarm_pool_add_alarm_at>:
10000b10:	b5f0      	push	{r4, r5, r6, r7, lr}
10000b12:	46de      	mov	lr, fp
10000b14:	4657      	mov	r7, sl
10000b16:	464e      	mov	r6, r9
10000b18:	4645      	mov	r5, r8
10000b1a:	b5e0      	push	{r5, r6, r7, lr}
10000b1c:	b08b      	sub	sp, #44	; 0x2c
10000b1e:	4680      	mov	r8, r0
10000b20:	0016      	movs	r6, r2
10000b22:	001f      	movs	r7, r3
10000b24:	9b14      	ldr	r3, [sp, #80]	; 0x50
10000b26:	469a      	mov	sl, r3
10000b28:	9b15      	ldr	r3, [sp, #84]	; 0x54
10000b2a:	4699      	mov	r9, r3
10000b2c:	ab16      	add	r3, sp, #88	; 0x58
10000b2e:	781b      	ldrb	r3, [r3, #0]
10000b30:	469b      	mov	fp, r3
10000b32:	231f      	movs	r3, #31
10000b34:	aa02      	add	r2, sp, #8
10000b36:	4694      	mov	ip, r2
10000b38:	4463      	add	r3, ip
10000b3a:	2200      	movs	r2, #0
10000b3c:	701a      	strb	r2, [r3, #0]
10000b3e:	e032      	b.n	10000ba6 <alarm_pool_add_alarm_at+0x96>
10000b40:	2800      	cmp	r0, #0
10000b42:	d009      	beq.n	10000b58 <alarm_pool_add_alarm_at+0x48>
10000b44:	4642      	mov	r2, r8
10000b46:	6812      	ldr	r2, [r2, #0]
10000b48:	7b12      	ldrb	r2, [r2, #12]
10000b4a:	4290      	cmp	r0, r2
10000b4c:	d804      	bhi.n	10000b58 <alarm_pool_add_alarm_at+0x48>
10000b4e:	1e42      	subs	r2, r0, #1
10000b50:	4641      	mov	r1, r8
10000b52:	68c9      	ldr	r1, [r1, #12]
10000b54:	5c8a      	ldrb	r2, [r1, r2]
10000b56:	e048      	b.n	10000bea <alarm_pool_add_alarm_at+0xda>
10000b58:	4b43      	ldr	r3, [pc, #268]	; (10000c68 <alarm_pool_add_alarm_at+0x158>)
10000b5a:	4a44      	ldr	r2, [pc, #272]	; (10000c6c <alarm_pool_add_alarm_at+0x15c>)
10000b5c:	2140      	movs	r1, #64	; 0x40
10000b5e:	4844      	ldr	r0, [pc, #272]	; (10000c70 <alarm_pool_add_alarm_at+0x160>)
10000b60:	f000 fcca 	bl	100014f8 <__assert_func>
10000b64:	9807      	ldr	r0, [sp, #28]
10000b66:	2b00      	cmp	r3, #0
10000b68:	d075      	beq.n	10000c56 <alarm_pool_add_alarm_at+0x146>
10000b6a:	465b      	mov	r3, fp
10000b6c:	2b00      	cmp	r3, #0
10000b6e:	d072      	beq.n	10000c56 <alarm_pool_add_alarm_at+0x146>
10000b70:	4649      	mov	r1, r9
10000b72:	47d0      	blx	sl
10000b74:	0004      	movs	r4, r0
10000b76:	000d      	movs	r5, r1
10000b78:	0003      	movs	r3, r0
10000b7a:	430b      	orrs	r3, r1
10000b7c:	d100      	bne.n	10000b80 <alarm_pool_add_alarm_at+0x70>
10000b7e:	e071      	b.n	10000c64 <alarm_pool_add_alarm_at+0x154>
10000b80:	2900      	cmp	r1, #0
10000b82:	db46      	blt.n	10000c12 <alarm_pool_add_alarm_at+0x102>
10000b84:	f000 f982 	bl	10000e8c <time_us_64>
10000b88:	0006      	movs	r6, r0
10000b8a:	1e0f      	subs	r7, r1, #0
10000b8c:	db55      	blt.n	10000c3a <alarm_pool_add_alarm_at+0x12a>
10000b8e:	1936      	adds	r6, r6, r4
10000b90:	416f      	adcs	r7, r5
10000b92:	42b9      	cmp	r1, r7
10000b94:	d802      	bhi.n	10000b9c <alarm_pool_add_alarm_at+0x8c>
10000b96:	d104      	bne.n	10000ba2 <alarm_pool_add_alarm_at+0x92>
10000b98:	42b0      	cmp	r0, r6
10000b9a:	d902      	bls.n	10000ba2 <alarm_pool_add_alarm_at+0x92>
10000b9c:	2601      	movs	r6, #1
10000b9e:	4276      	negs	r6, r6
10000ba0:	17f7      	asrs	r7, r6, #31
10000ba2:	2f00      	cmp	r7, #0
10000ba4:	db4f      	blt.n	10000c46 <alarm_pool_add_alarm_at+0x136>
10000ba6:	4643      	mov	r3, r8
10000ba8:	685a      	ldr	r2, [r3, #4]
10000baa:	f3ef 8410 	mrs	r4, PRIMASK
10000bae:	b672      	cpsid	i
10000bb0:	6813      	ldr	r3, [r2, #0]
10000bb2:	4259      	negs	r1, r3
10000bb4:	414b      	adcs	r3, r1
10000bb6:	b2d9      	uxtb	r1, r3
10000bb8:	9107      	str	r1, [sp, #28]
10000bba:	2b00      	cmp	r3, #0
10000bbc:	d1f8      	bne.n	10000bb0 <alarm_pool_add_alarm_at+0xa0>
10000bbe:	f3bf 8f5f 	dmb	sy
10000bc2:	331f      	adds	r3, #31
10000bc4:	aa02      	add	r2, sp, #8
10000bc6:	4694      	mov	ip, r2
10000bc8:	4463      	add	r3, ip
10000bca:	9304      	str	r3, [sp, #16]
10000bcc:	2300      	movs	r3, #0
10000bce:	9303      	str	r3, [sp, #12]
10000bd0:	9302      	str	r3, [sp, #8]
10000bd2:	464b      	mov	r3, r9
10000bd4:	9301      	str	r3, [sp, #4]
10000bd6:	4653      	mov	r3, sl
10000bd8:	9300      	str	r3, [sp, #0]
10000bda:	0032      	movs	r2, r6
10000bdc:	003b      	movs	r3, r7
10000bde:	4640      	mov	r0, r8
10000be0:	f7ff fd16 	bl	10000610 <add_alarm_under_lock>
10000be4:	1e03      	subs	r3, r0, #0
10000be6:	d1ab      	bne.n	10000b40 <alarm_pool_add_alarm_at+0x30>
10000be8:	0002      	movs	r2, r0
10000bea:	4641      	mov	r1, r8
10000bec:	6849      	ldr	r1, [r1, #4]
10000bee:	f3bf 8f5f 	dmb	sy
10000bf2:	2500      	movs	r5, #0
10000bf4:	600d      	str	r5, [r1, #0]
10000bf6:	f384 8810 	msr	PRIMASK, r4
10000bfa:	2b00      	cmp	r3, #0
10000bfc:	d029      	beq.n	10000c52 <alarm_pool_add_alarm_at+0x142>
10000bfe:	231f      	movs	r3, #31
10000c00:	a902      	add	r1, sp, #8
10000c02:	468c      	mov	ip, r1
10000c04:	4463      	add	r3, ip
10000c06:	781b      	ldrb	r3, [r3, #0]
10000c08:	2b00      	cmp	r3, #0
10000c0a:	d1ab      	bne.n	10000b64 <alarm_pool_add_alarm_at+0x54>
10000c0c:	0212      	lsls	r2, r2, #8
10000c0e:	4310      	orrs	r0, r2
10000c10:	e7a9      	b.n	10000b66 <alarm_pool_add_alarm_at+0x56>
10000c12:	0032      	movs	r2, r6
10000c14:	003b      	movs	r3, r7
10000c16:	1b36      	subs	r6, r6, r4
10000c18:	41af      	sbcs	r7, r5
10000c1a:	42bb      	cmp	r3, r7
10000c1c:	d802      	bhi.n	10000c24 <alarm_pool_add_alarm_at+0x114>
10000c1e:	d104      	bne.n	10000c2a <alarm_pool_add_alarm_at+0x11a>
10000c20:	42b2      	cmp	r2, r6
10000c22:	d902      	bls.n	10000c2a <alarm_pool_add_alarm_at+0x11a>
10000c24:	2601      	movs	r6, #1
10000c26:	4276      	negs	r6, r6
10000c28:	17f7      	asrs	r7, r6, #31
10000c2a:	2f00      	cmp	r7, #0
10000c2c:	dabb      	bge.n	10000ba6 <alarm_pool_add_alarm_at+0x96>
10000c2e:	4b11      	ldr	r3, [pc, #68]	; (10000c74 <alarm_pool_add_alarm_at+0x164>)
10000c30:	4a11      	ldr	r2, [pc, #68]	; (10000c78 <alarm_pool_add_alarm_at+0x168>)
10000c32:	213f      	movs	r1, #63	; 0x3f
10000c34:	4811      	ldr	r0, [pc, #68]	; (10000c7c <alarm_pool_add_alarm_at+0x16c>)
10000c36:	f000 fc5f 	bl	100014f8 <__assert_func>
10000c3a:	4b0e      	ldr	r3, [pc, #56]	; (10000c74 <alarm_pool_add_alarm_at+0x164>)
10000c3c:	4a0e      	ldr	r2, [pc, #56]	; (10000c78 <alarm_pool_add_alarm_at+0x168>)
10000c3e:	213f      	movs	r1, #63	; 0x3f
10000c40:	480e      	ldr	r0, [pc, #56]	; (10000c7c <alarm_pool_add_alarm_at+0x16c>)
10000c42:	f000 fc59 	bl	100014f8 <__assert_func>
10000c46:	4b0b      	ldr	r3, [pc, #44]	; (10000c74 <alarm_pool_add_alarm_at+0x164>)
10000c48:	4a0b      	ldr	r2, [pc, #44]	; (10000c78 <alarm_pool_add_alarm_at+0x168>)
10000c4a:	213f      	movs	r1, #63	; 0x3f
10000c4c:	480b      	ldr	r0, [pc, #44]	; (10000c7c <alarm_pool_add_alarm_at+0x16c>)
10000c4e:	f000 fc53 	bl	100014f8 <__assert_func>
10000c52:	2001      	movs	r0, #1
10000c54:	4240      	negs	r0, r0
10000c56:	b00b      	add	sp, #44	; 0x2c
10000c58:	bcf0      	pop	{r4, r5, r6, r7}
10000c5a:	46bb      	mov	fp, r7
10000c5c:	46b2      	mov	sl, r6
10000c5e:	46a9      	mov	r9, r5
10000c60:	46a0      	mov	r8, r4
10000c62:	bdf0      	pop	{r4, r5, r6, r7, pc}
10000c64:	9807      	ldr	r0, [sp, #28]
10000c66:	e7f6      	b.n	10000c56 <alarm_pool_add_alarm_at+0x146>
10000c68:	10004124 	.word	0x10004124
10000c6c:	100043cc 	.word	0x100043cc
10000c70:	100040ec 	.word	0x100040ec
10000c74:	10004218 	.word	0x10004218
10000c78:	10004374 	.word	0x10004374
10000c7c:	10004234 	.word	0x10004234

10000c80 <sleep_until>:
10000c80:	b5f0      	push	{r4, r5, r6, r7, lr}
10000c82:	b087      	sub	sp, #28
10000c84:	0006      	movs	r6, r0
10000c86:	000f      	movs	r7, r1
10000c88:	f7ff faed 	bl	10000266 <__get_current_exception>
10000c8c:	2800      	cmp	r0, #0
10000c8e:	d11f      	bne.n	10000cd0 <sleep_until+0x50>
10000c90:	2406      	movs	r4, #6
10000c92:	4264      	negs	r4, r4
10000c94:	17e5      	asrs	r5, r4, #31
10000c96:	19a4      	adds	r4, r4, r6
10000c98:	417d      	adcs	r5, r7
10000c9a:	42bd      	cmp	r5, r7
10000c9c:	d802      	bhi.n	10000ca4 <sleep_until+0x24>
10000c9e:	d103      	bne.n	10000ca8 <sleep_until+0x28>
10000ca0:	42b4      	cmp	r4, r6
10000ca2:	d901      	bls.n	10000ca8 <sleep_until+0x28>
10000ca4:	2400      	movs	r4, #0
10000ca6:	2500      	movs	r5, #0
10000ca8:	2d00      	cmp	r5, #0
10000caa:	db14      	blt.n	10000cd6 <sleep_until+0x56>
10000cac:	9404      	str	r4, [sp, #16]
10000cae:	9505      	str	r5, [sp, #20]
10000cb0:	f000 f8ec 	bl	10000e8c <time_us_64>
10000cb4:	0002      	movs	r2, r0
10000cb6:	1e0b      	subs	r3, r1, #0
10000cb8:	db13      	blt.n	10000ce2 <sleep_until+0x62>
10000cba:	1aa4      	subs	r4, r4, r2
10000cbc:	419d      	sbcs	r5, r3
10000cbe:	2d00      	cmp	r5, #0
10000cc0:	dc17      	bgt.n	10000cf2 <sleep_until+0x72>
10000cc2:	d014      	beq.n	10000cee <sleep_until+0x6e>
10000cc4:	0030      	movs	r0, r6
10000cc6:	0039      	movs	r1, r7
10000cc8:	f000 f8ec 	bl	10000ea4 <busy_wait_until>
10000ccc:	b007      	add	sp, #28
10000cce:	bdf0      	pop	{r4, r5, r6, r7, pc}
10000cd0:	4823      	ldr	r0, [pc, #140]	; (10000d60 <sleep_until+0xe0>)
10000cd2:	f000 fcab 	bl	1000162c <panic>
10000cd6:	4b23      	ldr	r3, [pc, #140]	; (10000d64 <sleep_until+0xe4>)
10000cd8:	4a23      	ldr	r2, [pc, #140]	; (10000d68 <sleep_until+0xe8>)
10000cda:	213f      	movs	r1, #63	; 0x3f
10000cdc:	4823      	ldr	r0, [pc, #140]	; (10000d6c <sleep_until+0xec>)
10000cde:	f000 fc0b 	bl	100014f8 <__assert_func>
10000ce2:	4b20      	ldr	r3, [pc, #128]	; (10000d64 <sleep_until+0xe4>)
10000ce4:	4a20      	ldr	r2, [pc, #128]	; (10000d68 <sleep_until+0xe8>)
10000ce6:	213f      	movs	r1, #63	; 0x3f
10000ce8:	4820      	ldr	r0, [pc, #128]	; (10000d6c <sleep_until+0xec>)
10000cea:	f000 fc05 	bl	100014f8 <__assert_func>
10000cee:	2c00      	cmp	r4, #0
10000cf0:	d0e8      	beq.n	10000cc4 <sleep_until+0x44>
10000cf2:	f7ff fef7 	bl	10000ae4 <alarm_pool_get_default>
10000cf6:	2300      	movs	r3, #0
10000cf8:	9302      	str	r3, [sp, #8]
10000cfa:	9301      	str	r3, [sp, #4]
10000cfc:	4b1c      	ldr	r3, [pc, #112]	; (10000d70 <sleep_until+0xf0>)
10000cfe:	9300      	str	r3, [sp, #0]
10000d00:	9a04      	ldr	r2, [sp, #16]
10000d02:	9b05      	ldr	r3, [sp, #20]
10000d04:	f7ff ff04 	bl	10000b10 <alarm_pool_add_alarm_at>
10000d08:	2800      	cmp	r0, #0
10000d0a:	da18      	bge.n	10000d3e <sleep_until+0xbe>
10000d0c:	e7da      	b.n	10000cc4 <sleep_until+0x44>
10000d0e:	2300      	movs	r3, #0
10000d10:	e000      	b.n	10000d14 <sleep_until+0x94>
10000d12:	2300      	movs	r3, #0
10000d14:	2b00      	cmp	r3, #0
10000d16:	d1d5      	bne.n	10000cc4 <sleep_until+0x44>
10000d18:	4b16      	ldr	r3, [pc, #88]	; (10000d74 <sleep_until+0xf4>)
10000d1a:	681a      	ldr	r2, [r3, #0]
10000d1c:	f3ef 8110 	mrs	r1, PRIMASK
10000d20:	b672      	cpsid	i
10000d22:	6813      	ldr	r3, [r2, #0]
10000d24:	2b00      	cmp	r3, #0
10000d26:	d0fc      	beq.n	10000d22 <sleep_until+0xa2>
10000d28:	f3bf 8f5f 	dmb	sy
10000d2c:	4b11      	ldr	r3, [pc, #68]	; (10000d74 <sleep_until+0xf4>)
10000d2e:	681b      	ldr	r3, [r3, #0]
10000d30:	f3bf 8f5f 	dmb	sy
10000d34:	2200      	movs	r2, #0
10000d36:	601a      	str	r2, [r3, #0]
10000d38:	f381 8810 	msr	PRIMASK, r1
10000d3c:	bf20      	wfe
10000d3e:	9904      	ldr	r1, [sp, #16]
10000d40:	9a05      	ldr	r2, [sp, #20]
10000d42:	4b0d      	ldr	r3, [pc, #52]	; (10000d78 <sleep_until+0xf8>)
10000d44:	6a5b      	ldr	r3, [r3, #36]	; 0x24
10000d46:	429a      	cmp	r2, r3
10000d48:	d8e3      	bhi.n	10000d12 <sleep_until+0x92>
10000d4a:	480b      	ldr	r0, [pc, #44]	; (10000d78 <sleep_until+0xf8>)
10000d4c:	6a80      	ldr	r0, [r0, #40]	; 0x28
10000d4e:	4288      	cmp	r0, r1
10000d50:	d203      	bcs.n	10000d5a <sleep_until+0xda>
10000d52:	429a      	cmp	r2, r3
10000d54:	d0db      	beq.n	10000d0e <sleep_until+0x8e>
10000d56:	2301      	movs	r3, #1
10000d58:	e7dc      	b.n	10000d14 <sleep_until+0x94>
10000d5a:	2301      	movs	r3, #1
10000d5c:	e7da      	b.n	10000d14 <sleep_until+0x94>
10000d5e:	46c0      	nop			; (mov r8, r8)
10000d60:	10004324 	.word	0x10004324
10000d64:	10004218 	.word	0x10004218
10000d68:	10004374 	.word	0x10004374
10000d6c:	10004234 	.word	0x10004234
10000d70:	10000481 	.word	0x10000481
10000d74:	20000620 	.word	0x20000620
10000d78:	40054000 	.word	0x40054000

10000d7c <sleep_us>:
10000d7c:	b5f8      	push	{r3, r4, r5, r6, r7, lr}
10000d7e:	0004      	movs	r4, r0
10000d80:	000d      	movs	r5, r1
10000d82:	f000 f883 	bl	10000e8c <time_us_64>
10000d86:	0002      	movs	r2, r0
10000d88:	1e0b      	subs	r3, r1, #0
10000d8a:	db10      	blt.n	10000dae <sleep_us+0x32>
10000d8c:	0020      	movs	r0, r4
10000d8e:	0029      	movs	r1, r5
10000d90:	1880      	adds	r0, r0, r2
10000d92:	4159      	adcs	r1, r3
10000d94:	428b      	cmp	r3, r1
10000d96:	d802      	bhi.n	10000d9e <sleep_us+0x22>
10000d98:	d104      	bne.n	10000da4 <sleep_us+0x28>
10000d9a:	4282      	cmp	r2, r0
10000d9c:	d902      	bls.n	10000da4 <sleep_us+0x28>
10000d9e:	2001      	movs	r0, #1
10000da0:	4240      	negs	r0, r0
10000da2:	17c1      	asrs	r1, r0, #31
10000da4:	2900      	cmp	r1, #0
10000da6:	db08      	blt.n	10000dba <sleep_us+0x3e>
10000da8:	f7ff ff6a 	bl	10000c80 <sleep_until>
10000dac:	bdf8      	pop	{r3, r4, r5, r6, r7, pc}
10000dae:	4b06      	ldr	r3, [pc, #24]	; (10000dc8 <sleep_us+0x4c>)
10000db0:	4a06      	ldr	r2, [pc, #24]	; (10000dcc <sleep_us+0x50>)
10000db2:	213f      	movs	r1, #63	; 0x3f
10000db4:	4806      	ldr	r0, [pc, #24]	; (10000dd0 <sleep_us+0x54>)
10000db6:	f000 fb9f 	bl	100014f8 <__assert_func>
10000dba:	4b03      	ldr	r3, [pc, #12]	; (10000dc8 <sleep_us+0x4c>)
10000dbc:	4a03      	ldr	r2, [pc, #12]	; (10000dcc <sleep_us+0x50>)
10000dbe:	213f      	movs	r1, #63	; 0x3f
10000dc0:	4803      	ldr	r0, [pc, #12]	; (10000dd0 <sleep_us+0x54>)
10000dc2:	f000 fb99 	bl	100014f8 <__assert_func>
10000dc6:	46c0      	nop			; (mov r8, r8)
10000dc8:	10004218 	.word	0x10004218
10000dcc:	10004374 	.word	0x10004374
10000dd0:	10004234 	.word	0x10004234

10000dd4 <sleep_ms>:
10000dd4:	b510      	push	{r4, lr}
10000dd6:	22fa      	movs	r2, #250	; 0xfa
10000dd8:	0092      	lsls	r2, r2, #2
10000dda:	2300      	movs	r3, #0
10000ddc:	2100      	movs	r1, #0
10000dde:	f002 ff27 	bl	10003c30 <__wrap___aeabi_lmul>
10000de2:	f7ff ffcb 	bl	10000d7c <sleep_us>
10000de6:	bd10      	pop	{r4, pc}

10000de8 <hardware_alarm_irq_handler>:
10000de8:	b570      	push	{r4, r5, r6, lr}
10000dea:	f3ef 8305 	mrs	r3, IPSR
10000dee:	203f      	movs	r0, #63	; 0x3f
10000df0:	4018      	ands	r0, r3
10000df2:	3810      	subs	r0, #16
10000df4:	f3ef 8c10 	mrs	ip, PRIMASK
10000df8:	b672      	cpsid	i
10000dfa:	4b19      	ldr	r3, [pc, #100]	; (10000e60 <hardware_alarm_irq_handler+0x78>)
10000dfc:	681b      	ldr	r3, [r3, #0]
10000dfe:	2b00      	cmp	r3, #0
10000e00:	d0fb      	beq.n	10000dfa <hardware_alarm_irq_handler+0x12>
10000e02:	f3bf 8f5f 	dmb	sy
10000e06:	2301      	movs	r3, #1
10000e08:	0019      	movs	r1, r3
10000e0a:	4081      	lsls	r1, r0
10000e0c:	4a15      	ldr	r2, [pc, #84]	; (10000e64 <hardware_alarm_irq_handler+0x7c>)
10000e0e:	6351      	str	r1, [r2, #52]	; 0x34
10000e10:	4a15      	ldr	r2, [pc, #84]	; (10000e68 <hardware_alarm_irq_handler+0x80>)
10000e12:	7812      	ldrb	r2, [r2, #0]
10000e14:	0014      	movs	r4, r2
10000e16:	40c4      	lsrs	r4, r0
10000e18:	4223      	tst	r3, r4
10000e1a:	d014      	beq.n	10000e46 <hardware_alarm_irq_handler+0x5e>
10000e1c:	4b11      	ldr	r3, [pc, #68]	; (10000e64 <hardware_alarm_irq_handler+0x7c>)
10000e1e:	6a5c      	ldr	r4, [r3, #36]	; 0x24
10000e20:	0083      	lsls	r3, r0, #2
10000e22:	4d12      	ldr	r5, [pc, #72]	; (10000e6c <hardware_alarm_irq_handler+0x84>)
10000e24:	595b      	ldr	r3, [r3, r5]
10000e26:	429c      	cmp	r4, r3
10000e28:	d306      	bcc.n	10000e38 <hardware_alarm_irq_handler+0x50>
10000e2a:	0083      	lsls	r3, r0, #2
10000e2c:	4c10      	ldr	r4, [pc, #64]	; (10000e70 <hardware_alarm_irq_handler+0x88>)
10000e2e:	591b      	ldr	r3, [r3, r4]
10000e30:	438a      	bics	r2, r1
10000e32:	490d      	ldr	r1, [pc, #52]	; (10000e68 <hardware_alarm_irq_handler+0x80>)
10000e34:	700a      	strb	r2, [r1, #0]
10000e36:	e007      	b.n	10000e48 <hardware_alarm_irq_handler+0x60>
10000e38:	4a0a      	ldr	r2, [pc, #40]	; (10000e64 <hardware_alarm_irq_handler+0x7c>)
10000e3a:	1d03      	adds	r3, r0, #4
10000e3c:	009b      	lsls	r3, r3, #2
10000e3e:	5899      	ldr	r1, [r3, r2]
10000e40:	5099      	str	r1, [r3, r2]
10000e42:	2300      	movs	r3, #0
10000e44:	e000      	b.n	10000e48 <hardware_alarm_irq_handler+0x60>
10000e46:	2300      	movs	r3, #0
10000e48:	f3bf 8f5f 	dmb	sy
10000e4c:	4a04      	ldr	r2, [pc, #16]	; (10000e60 <hardware_alarm_irq_handler+0x78>)
10000e4e:	2100      	movs	r1, #0
10000e50:	6011      	str	r1, [r2, #0]
10000e52:	f38c 8810 	msr	PRIMASK, ip
10000e56:	2b00      	cmp	r3, #0
10000e58:	d000      	beq.n	10000e5c <hardware_alarm_irq_handler+0x74>
10000e5a:	4798      	blx	r3
10000e5c:	bd70      	pop	{r4, r5, r6, pc}
10000e5e:	46c0      	nop			; (mov r8, r8)
10000e60:	d0000128 	.word	0xd0000128
10000e64:	40054000 	.word	0x40054000
10000e68:	20000636 	.word	0x20000636
10000e6c:	20000624 	.word	0x20000624
10000e70:	2000038c 	.word	0x2000038c

10000e74 <hardware_alarm_claim>:
10000e74:	b510      	push	{r4, lr}
10000e76:	0001      	movs	r1, r0
10000e78:	4a02      	ldr	r2, [pc, #8]	; (10000e84 <hardware_alarm_claim+0x10>)
10000e7a:	4803      	ldr	r0, [pc, #12]	; (10000e88 <hardware_alarm_claim+0x14>)
10000e7c:	f7ff fa9e 	bl	100003bc <hw_claim_or_assert>
10000e80:	bd10      	pop	{r4, pc}
10000e82:	46c0      	nop			; (mov r8, r8)
10000e84:	10004438 	.word	0x10004438
10000e88:	20000634 	.word	0x20000634

10000e8c <time_us_64>:
10000e8c:	4b04      	ldr	r3, [pc, #16]	; (10000ea0 <time_us_64+0x14>)
10000e8e:	6a5b      	ldr	r3, [r3, #36]	; 0x24
10000e90:	4a03      	ldr	r2, [pc, #12]	; (10000ea0 <time_us_64+0x14>)
10000e92:	6a90      	ldr	r0, [r2, #40]	; 0x28
10000e94:	0019      	movs	r1, r3
10000e96:	6a53      	ldr	r3, [r2, #36]	; 0x24
10000e98:	4299      	cmp	r1, r3
10000e9a:	d1f9      	bne.n	10000e90 <time_us_64+0x4>
10000e9c:	4770      	bx	lr
10000e9e:	46c0      	nop			; (mov r8, r8)
10000ea0:	40054000 	.word	0x40054000

10000ea4 <busy_wait_until>:
10000ea4:	4b08      	ldr	r3, [pc, #32]	; (10000ec8 <busy_wait_until+0x24>)
10000ea6:	6a5b      	ldr	r3, [r3, #36]	; 0x24
10000ea8:	e001      	b.n	10000eae <busy_wait_until+0xa>
10000eaa:	4b07      	ldr	r3, [pc, #28]	; (10000ec8 <busy_wait_until+0x24>)
10000eac:	6a5b      	ldr	r3, [r3, #36]	; 0x24
10000eae:	428b      	cmp	r3, r1
10000eb0:	d3fb      	bcc.n	10000eaa <busy_wait_until+0x6>
10000eb2:	e001      	b.n	10000eb8 <busy_wait_until+0x14>
10000eb4:	4b04      	ldr	r3, [pc, #16]	; (10000ec8 <busy_wait_until+0x24>)
10000eb6:	6a5b      	ldr	r3, [r3, #36]	; 0x24
10000eb8:	428b      	cmp	r3, r1
10000eba:	d103      	bne.n	10000ec4 <busy_wait_until+0x20>
10000ebc:	4b02      	ldr	r3, [pc, #8]	; (10000ec8 <busy_wait_until+0x24>)
10000ebe:	6a9b      	ldr	r3, [r3, #40]	; 0x28
10000ec0:	4283      	cmp	r3, r0
10000ec2:	d3f7      	bcc.n	10000eb4 <busy_wait_until+0x10>
10000ec4:	4770      	bx	lr
10000ec6:	46c0      	nop			; (mov r8, r8)
10000ec8:	40054000 	.word	0x40054000

10000ecc <hardware_alarm_set_callback>:
10000ecc:	b570      	push	{r4, r5, r6, lr}
10000ece:	0004      	movs	r4, r0
10000ed0:	000d      	movs	r5, r1
10000ed2:	f3ef 8610 	mrs	r6, PRIMASK
10000ed6:	b672      	cpsid	i
10000ed8:	4b1b      	ldr	r3, [pc, #108]	; (10000f48 <hardware_alarm_set_callback+0x7c>)
10000eda:	681b      	ldr	r3, [r3, #0]
10000edc:	2b00      	cmp	r3, #0
10000ede:	d0fb      	beq.n	10000ed8 <hardware_alarm_set_callback+0xc>
10000ee0:	f3bf 8f5f 	dmb	sy
10000ee4:	2d00      	cmp	r5, #0
10000ee6:	d01c      	beq.n	10000f22 <hardware_alarm_set_callback+0x56>
10000ee8:	0020      	movs	r0, r4
10000eea:	f000 fd2b 	bl	10001944 <irq_get_vtable_handler>
10000eee:	4b17      	ldr	r3, [pc, #92]	; (10000f4c <hardware_alarm_set_callback+0x80>)
10000ef0:	4283      	cmp	r3, r0
10000ef2:	d00b      	beq.n	10000f0c <hardware_alarm_set_callback+0x40>
10000ef4:	0019      	movs	r1, r3
10000ef6:	0020      	movs	r0, r4
10000ef8:	f000 fd2c 	bl	10001954 <irq_set_exclusive_handler>
10000efc:	2101      	movs	r1, #1
10000efe:	0020      	movs	r0, r4
10000f00:	f000 fd18 	bl	10001934 <irq_set_enabled>
10000f04:	2301      	movs	r3, #1
10000f06:	40a3      	lsls	r3, r4
10000f08:	4a11      	ldr	r2, [pc, #68]	; (10000f50 <hardware_alarm_set_callback+0x84>)
10000f0a:	6013      	str	r3, [r2, #0]
10000f0c:	00a4      	lsls	r4, r4, #2
10000f0e:	4b11      	ldr	r3, [pc, #68]	; (10000f54 <hardware_alarm_set_callback+0x88>)
10000f10:	50e5      	str	r5, [r4, r3]
10000f12:	f3bf 8f5f 	dmb	sy
10000f16:	4b0c      	ldr	r3, [pc, #48]	; (10000f48 <hardware_alarm_set_callback+0x7c>)
10000f18:	2200      	movs	r2, #0
10000f1a:	601a      	str	r2, [r3, #0]
10000f1c:	f386 8810 	msr	PRIMASK, r6
10000f20:	bd70      	pop	{r4, r5, r6, pc}
10000f22:	00a2      	lsls	r2, r4, #2
10000f24:	4b0b      	ldr	r3, [pc, #44]	; (10000f54 <hardware_alarm_set_callback+0x88>)
10000f26:	2100      	movs	r1, #0
10000f28:	50d1      	str	r1, [r2, r3]
10000f2a:	2201      	movs	r2, #1
10000f2c:	40a2      	lsls	r2, r4
10000f2e:	490a      	ldr	r1, [pc, #40]	; (10000f58 <hardware_alarm_set_callback+0x8c>)
10000f30:	780b      	ldrb	r3, [r1, #0]
10000f32:	4393      	bics	r3, r2
10000f34:	700b      	strb	r3, [r1, #0]
10000f36:	4905      	ldr	r1, [pc, #20]	; (10000f4c <hardware_alarm_set_callback+0x80>)
10000f38:	0020      	movs	r0, r4
10000f3a:	f000 fd35 	bl	100019a8 <irq_remove_handler>
10000f3e:	2100      	movs	r1, #0
10000f40:	0020      	movs	r0, r4
10000f42:	f000 fcf7 	bl	10001934 <irq_set_enabled>
10000f46:	e7e4      	b.n	10000f12 <hardware_alarm_set_callback+0x46>
10000f48:	d0000128 	.word	0xd0000128
10000f4c:	10000de9 	.word	0x10000de9
10000f50:	40056038 	.word	0x40056038
10000f54:	2000038c 	.word	0x2000038c
10000f58:	20000636 	.word	0x20000636

10000f5c <hardware_alarm_set_target>:
10000f5c:	b5f0      	push	{r4, r5, r6, r7, lr}
10000f5e:	46de      	mov	lr, fp
10000f60:	b500      	push	{lr}
10000f62:	b084      	sub	sp, #16
10000f64:	0004      	movs	r4, r0
10000f66:	0015      	movs	r5, r2
10000f68:	9201      	str	r2, [sp, #4]
10000f6a:	001e      	movs	r6, r3
10000f6c:	9302      	str	r3, [sp, #8]
10000f6e:	f7ff ff8d 	bl	10000e8c <time_us_64>
10000f72:	9503      	str	r5, [sp, #12]
10000f74:	428e      	cmp	r6, r1
10000f76:	d802      	bhi.n	10000f7e <hardware_alarm_set_target+0x22>
10000f78:	d14e      	bne.n	10001018 <hardware_alarm_set_target+0xbc>
10000f7a:	4285      	cmp	r5, r0
10000f7c:	d94c      	bls.n	10001018 <hardware_alarm_set_target+0xbc>
10000f7e:	f3ef 8b10 	mrs	fp, PRIMASK
10000f82:	b672      	cpsid	i
10000f84:	4b27      	ldr	r3, [pc, #156]	; (10001024 <hardware_alarm_set_target+0xc8>)
10000f86:	681b      	ldr	r3, [r3, #0]
10000f88:	2b00      	cmp	r3, #0
10000f8a:	d0fb      	beq.n	10000f84 <hardware_alarm_set_target+0x28>
10000f8c:	f3bf 8f5f 	dmb	sy
10000f90:	4a25      	ldr	r2, [pc, #148]	; (10001028 <hardware_alarm_set_target+0xcc>)
10000f92:	7817      	ldrb	r7, [r2, #0]
10000f94:	2501      	movs	r5, #1
10000f96:	40a5      	lsls	r5, r4
10000f98:	b2eb      	uxtb	r3, r5
10000f9a:	433b      	orrs	r3, r7
10000f9c:	7013      	strb	r3, [r2, #0]
10000f9e:	4b23      	ldr	r3, [pc, #140]	; (1000102c <hardware_alarm_set_target+0xd0>)
10000fa0:	635d      	str	r5, [r3, #52]	; 0x34
10000fa2:	1d22      	adds	r2, r4, #4
10000fa4:	0092      	lsls	r2, r2, #2
10000fa6:	9901      	ldr	r1, [sp, #4]
10000fa8:	50d1      	str	r1, [r2, r3]
10000faa:	00a2      	lsls	r2, r4, #2
10000fac:	4920      	ldr	r1, [pc, #128]	; (10001030 <hardware_alarm_set_target+0xd4>)
10000fae:	9802      	ldr	r0, [sp, #8]
10000fb0:	5050      	str	r0, [r2, r1]
10000fb2:	6a1b      	ldr	r3, [r3, #32]
10000fb4:	422b      	tst	r3, r5
10000fb6:	d112      	bne.n	10000fde <hardware_alarm_set_target+0x82>
10000fb8:	4b1c      	ldr	r3, [pc, #112]	; (1000102c <hardware_alarm_set_target+0xd0>)
10000fba:	6c1b      	ldr	r3, [r3, #64]	; 0x40
10000fbc:	422b      	tst	r3, r5
10000fbe:	d008      	beq.n	10000fd2 <hardware_alarm_set_target+0x76>
10000fc0:	2000      	movs	r0, #0
10000fc2:	f3bf 8f5f 	dmb	sy
10000fc6:	4b17      	ldr	r3, [pc, #92]	; (10001024 <hardware_alarm_set_target+0xc8>)
10000fc8:	2200      	movs	r2, #0
10000fca:	601a      	str	r2, [r3, #0]
10000fcc:	f38b 8810 	msr	PRIMASK, fp
10000fd0:	e023      	b.n	1000101a <hardware_alarm_set_target+0xbe>
10000fd2:	4b18      	ldr	r3, [pc, #96]	; (10001034 <hardware_alarm_set_target+0xd8>)
10000fd4:	4a18      	ldr	r2, [pc, #96]	; (10001038 <hardware_alarm_set_target+0xdc>)
10000fd6:	21c1      	movs	r1, #193	; 0xc1
10000fd8:	4818      	ldr	r0, [pc, #96]	; (1000103c <hardware_alarm_set_target+0xe0>)
10000fda:	f000 fa8d 	bl	100014f8 <__assert_func>
10000fde:	f7ff ff55 	bl	10000e8c <time_us_64>
10000fe2:	428e      	cmp	r6, r1
10000fe4:	d814      	bhi.n	10001010 <hardware_alarm_set_target+0xb4>
10000fe6:	d102      	bne.n	10000fee <hardware_alarm_set_target+0x92>
10000fe8:	9b03      	ldr	r3, [sp, #12]
10000fea:	4283      	cmp	r3, r0
10000fec:	d810      	bhi.n	10001010 <hardware_alarm_set_target+0xb4>
10000fee:	4b0e      	ldr	r3, [pc, #56]	; (10001028 <hardware_alarm_set_target+0xcc>)
10000ff0:	781b      	ldrb	r3, [r3, #0]
10000ff2:	42bb      	cmp	r3, r7
10000ff4:	d00e      	beq.n	10001014 <hardware_alarm_set_target+0xb8>
10000ff6:	4b0d      	ldr	r3, [pc, #52]	; (1000102c <hardware_alarm_set_target+0xd0>)
10000ff8:	621d      	str	r5, [r3, #32]
10000ffa:	635d      	str	r5, [r3, #52]	; 0x34
10000ffc:	201f      	movs	r0, #31
10000ffe:	4004      	ands	r4, r0
10001000:	2301      	movs	r3, #1
10001002:	40a3      	lsls	r3, r4
10001004:	4a0e      	ldr	r2, [pc, #56]	; (10001040 <hardware_alarm_set_target+0xe4>)
10001006:	6013      	str	r3, [r2, #0]
10001008:	4b07      	ldr	r3, [pc, #28]	; (10001028 <hardware_alarm_set_target+0xcc>)
1000100a:	701f      	strb	r7, [r3, #0]
1000100c:	381e      	subs	r0, #30
1000100e:	e7d8      	b.n	10000fc2 <hardware_alarm_set_target+0x66>
10001010:	2000      	movs	r0, #0
10001012:	e7d6      	b.n	10000fc2 <hardware_alarm_set_target+0x66>
10001014:	2001      	movs	r0, #1
10001016:	e7d4      	b.n	10000fc2 <hardware_alarm_set_target+0x66>
10001018:	2001      	movs	r0, #1
1000101a:	b004      	add	sp, #16
1000101c:	bc80      	pop	{r7}
1000101e:	46bb      	mov	fp, r7
10001020:	bdf0      	pop	{r4, r5, r6, r7, pc}
10001022:	46c0      	nop			; (mov r8, r8)
10001024:	d0000128 	.word	0xd0000128
10001028:	20000636 	.word	0x20000636
1000102c:	40054000 	.word	0x40054000
10001030:	20000624 	.word	0x20000624
10001034:	1000445c 	.word	0x1000445c
10001038:	100044c4 	.word	0x100044c4
1000103c:	10004480 	.word	0x10004480
10001040:	e000e280 	.word	0xe000e280

10001044 <hardware_alarm_cancel>:
10001044:	f3ef 8c10 	mrs	ip, PRIMASK
10001048:	b672      	cpsid	i
1000104a:	4b0b      	ldr	r3, [pc, #44]	; (10001078 <hardware_alarm_cancel+0x34>)
1000104c:	681b      	ldr	r3, [r3, #0]
1000104e:	2b00      	cmp	r3, #0
10001050:	d0fb      	beq.n	1000104a <hardware_alarm_cancel+0x6>
10001052:	f3bf 8f5f 	dmb	sy
10001056:	2301      	movs	r3, #1
10001058:	4083      	lsls	r3, r0
1000105a:	4a08      	ldr	r2, [pc, #32]	; (1000107c <hardware_alarm_cancel+0x38>)
1000105c:	6213      	str	r3, [r2, #32]
1000105e:	4908      	ldr	r1, [pc, #32]	; (10001080 <hardware_alarm_cancel+0x3c>)
10001060:	780a      	ldrb	r2, [r1, #0]
10001062:	439a      	bics	r2, r3
10001064:	700a      	strb	r2, [r1, #0]
10001066:	f3bf 8f5f 	dmb	sy
1000106a:	4b03      	ldr	r3, [pc, #12]	; (10001078 <hardware_alarm_cancel+0x34>)
1000106c:	2200      	movs	r2, #0
1000106e:	601a      	str	r2, [r3, #0]
10001070:	f38c 8810 	msr	PRIMASK, ip
10001074:	4770      	bx	lr
10001076:	46c0      	nop			; (mov r8, r8)
10001078:	d0000128 	.word	0xd0000128
1000107c:	40054000 	.word	0x40054000
10001080:	20000636 	.word	0x20000636

10001084 <lock_init>:
10001084:	4b02      	ldr	r3, [pc, #8]	; (10001090 <lock_init+0xc>)
10001086:	469c      	mov	ip, r3
10001088:	4461      	add	r1, ip
1000108a:	0089      	lsls	r1, r1, #2
1000108c:	6001      	str	r1, [r0, #0]
1000108e:	4770      	bx	lr
10001090:	34000040 	.word	0x34000040

10001094 <mutex_init>:
10001094:	b510      	push	{r4, lr}
10001096:	0004      	movs	r4, r0
10001098:	f7ff f9c4 	bl	10000424 <next_striped_spin_lock_num>
1000109c:	0001      	movs	r1, r0
1000109e:	0020      	movs	r0, r4
100010a0:	f7ff fff0 	bl	10001084 <lock_init>
100010a4:	23ff      	movs	r3, #255	; 0xff
100010a6:	7123      	strb	r3, [r4, #4]
100010a8:	f3bf 8f5f 	dmb	sy
100010ac:	bd10      	pop	{r4, pc}

100010ae <recursive_mutex_init>:
100010ae:	b510      	push	{r4, lr}
100010b0:	0004      	movs	r4, r0
100010b2:	f7ff f9b7 	bl	10000424 <next_striped_spin_lock_num>
100010b6:	0001      	movs	r1, r0
100010b8:	0020      	movs	r0, r4
100010ba:	f7ff ffe3 	bl	10001084 <lock_init>
100010be:	23ff      	movs	r3, #255	; 0xff
100010c0:	7123      	strb	r3, [r4, #4]
100010c2:	2300      	movs	r3, #0
100010c4:	7163      	strb	r3, [r4, #5]
100010c6:	f3bf 8f5f 	dmb	sy
100010ca:	bd10      	pop	{r4, pc}

100010cc <ph_add_child_node>:
100010cc:	b510      	push	{r4, lr}
100010ce:	2900      	cmp	r1, #0
100010d0:	d01e      	beq.n	10001110 <ph_add_child_node+0x44>
100010d2:	7b03      	ldrb	r3, [r0, #12]
100010d4:	4299      	cmp	r1, r3
100010d6:	d81b      	bhi.n	10001110 <ph_add_child_node+0x44>
100010d8:	004b      	lsls	r3, r1, #1
100010da:	185b      	adds	r3, r3, r1
100010dc:	3b03      	subs	r3, #3
100010de:	6804      	ldr	r4, [r0, #0]
100010e0:	46a4      	mov	ip, r4
100010e2:	4463      	add	r3, ip
100010e4:	2900      	cmp	r1, #0
100010e6:	d019      	beq.n	1000111c <ph_add_child_node+0x50>
100010e8:	2a00      	cmp	r2, #0
100010ea:	d01d      	beq.n	10001128 <ph_add_child_node+0x5c>
100010ec:	4291      	cmp	r1, r2
100010ee:	d021      	beq.n	10001134 <ph_add_child_node+0x68>
100010f0:	2a00      	cmp	r2, #0
100010f2:	d025      	beq.n	10001140 <ph_add_child_node+0x74>
100010f4:	7b04      	ldrb	r4, [r0, #12]
100010f6:	42a2      	cmp	r2, r4
100010f8:	d822      	bhi.n	10001140 <ph_add_child_node+0x74>
100010fa:	6804      	ldr	r4, [r0, #0]
100010fc:	0050      	lsls	r0, r2, #1
100010fe:	1880      	adds	r0, r0, r2
10001100:	3803      	subs	r0, #3
10001102:	1820      	adds	r0, r4, r0
10001104:	7081      	strb	r1, [r0, #2]
10001106:	7819      	ldrb	r1, [r3, #0]
10001108:	2900      	cmp	r1, #0
1000110a:	d11f      	bne.n	1000114c <ph_add_child_node+0x80>
1000110c:	701a      	strb	r2, [r3, #0]
1000110e:	bd10      	pop	{r4, pc}
10001110:	4b10      	ldr	r3, [pc, #64]	; (10001154 <ph_add_child_node+0x88>)
10001112:	4a11      	ldr	r2, [pc, #68]	; (10001158 <ph_add_child_node+0x8c>)
10001114:	2169      	movs	r1, #105	; 0x69
10001116:	4811      	ldr	r0, [pc, #68]	; (1000115c <ph_add_child_node+0x90>)
10001118:	f000 f9ee 	bl	100014f8 <__assert_func>
1000111c:	4b10      	ldr	r3, [pc, #64]	; (10001160 <ph_add_child_node+0x94>)
1000111e:	4a11      	ldr	r2, [pc, #68]	; (10001164 <ph_add_child_node+0x98>)
10001120:	3170      	adds	r1, #112	; 0x70
10001122:	480e      	ldr	r0, [pc, #56]	; (1000115c <ph_add_child_node+0x90>)
10001124:	f000 f9e8 	bl	100014f8 <__assert_func>
10001128:	4b0f      	ldr	r3, [pc, #60]	; (10001168 <ph_add_child_node+0x9c>)
1000112a:	4a0e      	ldr	r2, [pc, #56]	; (10001164 <ph_add_child_node+0x98>)
1000112c:	2171      	movs	r1, #113	; 0x71
1000112e:	480b      	ldr	r0, [pc, #44]	; (1000115c <ph_add_child_node+0x90>)
10001130:	f000 f9e2 	bl	100014f8 <__assert_func>
10001134:	4b0d      	ldr	r3, [pc, #52]	; (1000116c <ph_add_child_node+0xa0>)
10001136:	4a0b      	ldr	r2, [pc, #44]	; (10001164 <ph_add_child_node+0x98>)
10001138:	2172      	movs	r1, #114	; 0x72
1000113a:	4808      	ldr	r0, [pc, #32]	; (1000115c <ph_add_child_node+0x90>)
1000113c:	f000 f9dc 	bl	100014f8 <__assert_func>
10001140:	4b04      	ldr	r3, [pc, #16]	; (10001154 <ph_add_child_node+0x88>)
10001142:	4a05      	ldr	r2, [pc, #20]	; (10001158 <ph_add_child_node+0x8c>)
10001144:	2169      	movs	r1, #105	; 0x69
10001146:	4805      	ldr	r0, [pc, #20]	; (1000115c <ph_add_child_node+0x90>)
10001148:	f000 f9d6 	bl	100014f8 <__assert_func>
1000114c:	7041      	strb	r1, [r0, #1]
1000114e:	701a      	strb	r2, [r3, #0]
10001150:	e7dd      	b.n	1000110e <ph_add_child_node+0x42>
10001152:	46c0      	nop			; (mov r8, r8)
10001154:	10004158 	.word	0x10004158
10001158:	1000466c 	.word	0x1000466c
1000115c:	10004174 	.word	0x10004174
10001160:	100041c0 	.word	0x100041c0
10001164:	10004658 	.word	0x10004658
10001168:	100041cc 	.word	0x100041cc
1000116c:	100041d8 	.word	0x100041d8

10001170 <ph_merge_nodes>:
10001170:	b570      	push	{r4, r5, r6, lr}
10001172:	0006      	movs	r6, r0
10001174:	000d      	movs	r5, r1
10001176:	0014      	movs	r4, r2
10001178:	2900      	cmp	r1, #0
1000117a:	d014      	beq.n	100011a6 <ph_merge_nodes+0x36>
1000117c:	2a00      	cmp	r2, #0
1000117e:	d014      	beq.n	100011aa <ph_merge_nodes+0x3a>
10001180:	6880      	ldr	r0, [r0, #8]
10001182:	6873      	ldr	r3, [r6, #4]
10001184:	4798      	blx	r3
10001186:	2800      	cmp	r0, #0
10001188:	d006      	beq.n	10001198 <ph_merge_nodes+0x28>
1000118a:	0022      	movs	r2, r4
1000118c:	0029      	movs	r1, r5
1000118e:	0030      	movs	r0, r6
10001190:	f7ff ff9c 	bl	100010cc <ph_add_child_node>
10001194:	0028      	movs	r0, r5
10001196:	e007      	b.n	100011a8 <ph_merge_nodes+0x38>
10001198:	002a      	movs	r2, r5
1000119a:	0021      	movs	r1, r4
1000119c:	0030      	movs	r0, r6
1000119e:	f7ff ff95 	bl	100010cc <ph_add_child_node>
100011a2:	0020      	movs	r0, r4
100011a4:	e000      	b.n	100011a8 <ph_merge_nodes+0x38>
100011a6:	0010      	movs	r0, r2
100011a8:	bd70      	pop	{r4, r5, r6, pc}
100011aa:	0008      	movs	r0, r1
100011ac:	e7fc      	b.n	100011a8 <ph_merge_nodes+0x38>
	...

100011b0 <ph_clear>:
100011b0:	b510      	push	{r4, lr}
100011b2:	2300      	movs	r3, #0
100011b4:	7343      	strb	r3, [r0, #13]
100011b6:	3301      	adds	r3, #1
100011b8:	7383      	strb	r3, [r0, #14]
100011ba:	7b03      	ldrb	r3, [r0, #12]
100011bc:	73c3      	strb	r3, [r0, #15]
100011be:	2301      	movs	r3, #1
100011c0:	7b02      	ldrb	r2, [r0, #12]
100011c2:	429a      	cmp	r2, r3
100011c4:	d914      	bls.n	100011f0 <ph_clear+0x40>
100011c6:	2b00      	cmp	r3, #0
100011c8:	d00c      	beq.n	100011e4 <ph_clear+0x34>
100011ca:	7b02      	ldrb	r2, [r0, #12]
100011cc:	4293      	cmp	r3, r2
100011ce:	d809      	bhi.n	100011e4 <ph_clear+0x34>
100011d0:	005a      	lsls	r2, r3, #1
100011d2:	18d2      	adds	r2, r2, r3
100011d4:	3a03      	subs	r2, #3
100011d6:	6801      	ldr	r1, [r0, #0]
100011d8:	468c      	mov	ip, r1
100011da:	4462      	add	r2, ip
100011dc:	3301      	adds	r3, #1
100011de:	b2db      	uxtb	r3, r3
100011e0:	7053      	strb	r3, [r2, #1]
100011e2:	e7ed      	b.n	100011c0 <ph_clear+0x10>
100011e4:	4b0b      	ldr	r3, [pc, #44]	; (10001214 <ph_clear+0x64>)
100011e6:	4a0c      	ldr	r2, [pc, #48]	; (10001218 <ph_clear+0x68>)
100011e8:	2169      	movs	r1, #105	; 0x69
100011ea:	480c      	ldr	r0, [pc, #48]	; (1000121c <ph_clear+0x6c>)
100011ec:	f000 f984 	bl	100014f8 <__assert_func>
100011f0:	2a00      	cmp	r2, #0
100011f2:	d009      	beq.n	10001208 <ph_clear+0x58>
100011f4:	4292      	cmp	r2, r2
100011f6:	d807      	bhi.n	10001208 <ph_clear+0x58>
100011f8:	6801      	ldr	r1, [r0, #0]
100011fa:	0053      	lsls	r3, r2, #1
100011fc:	189a      	adds	r2, r3, r2
100011fe:	3a03      	subs	r2, #3
10001200:	188a      	adds	r2, r1, r2
10001202:	2300      	movs	r3, #0
10001204:	7053      	strb	r3, [r2, #1]
10001206:	bd10      	pop	{r4, pc}
10001208:	4b02      	ldr	r3, [pc, #8]	; (10001214 <ph_clear+0x64>)
1000120a:	4a03      	ldr	r2, [pc, #12]	; (10001218 <ph_clear+0x68>)
1000120c:	2169      	movs	r1, #105	; 0x69
1000120e:	4803      	ldr	r0, [pc, #12]	; (1000121c <ph_clear+0x6c>)
10001210:	f000 f972 	bl	100014f8 <__assert_func>
10001214:	10004158 	.word	0x10004158
10001218:	1000466c 	.word	0x1000466c
1000121c:	10004174 	.word	0x10004174

10001220 <ph_post_alloc_init>:
10001220:	b510      	push	{r4, lr}
10001222:	7301      	strb	r1, [r0, #12]
10001224:	6042      	str	r2, [r0, #4]
10001226:	6083      	str	r3, [r0, #8]
10001228:	f7ff ffc2 	bl	100011b0 <ph_clear>
1000122c:	bd10      	pop	{r4, pc}
	...

10001230 <ph_merge_two_pass>:
10001230:	b570      	push	{r4, r5, r6, lr}
10001232:	0004      	movs	r4, r0
10001234:	1e08      	subs	r0, r1, #0
10001236:	d100      	bne.n	1000123a <ph_merge_two_pass+0xa>
10001238:	bd70      	pop	{r4, r5, r6, pc}
1000123a:	2900      	cmp	r1, #0
1000123c:	d034      	beq.n	100012a8 <ph_merge_two_pass+0x78>
1000123e:	7b23      	ldrb	r3, [r4, #12]
10001240:	4299      	cmp	r1, r3
10001242:	d831      	bhi.n	100012a8 <ph_merge_two_pass+0x78>
10001244:	004b      	lsls	r3, r1, #1
10001246:	185b      	adds	r3, r3, r1
10001248:	3b03      	subs	r3, #3
1000124a:	6822      	ldr	r2, [r4, #0]
1000124c:	4694      	mov	ip, r2
1000124e:	4463      	add	r3, ip
10001250:	785a      	ldrb	r2, [r3, #1]
10001252:	2a00      	cmp	r2, #0
10001254:	d0f0      	beq.n	10001238 <ph_merge_two_pass+0x8>
10001256:	d02d      	beq.n	100012b4 <ph_merge_two_pass+0x84>
10001258:	7b23      	ldrb	r3, [r4, #12]
1000125a:	429a      	cmp	r2, r3
1000125c:	d82a      	bhi.n	100012b4 <ph_merge_two_pass+0x84>
1000125e:	0053      	lsls	r3, r2, #1
10001260:	189b      	adds	r3, r3, r2
10001262:	3b03      	subs	r3, #3
10001264:	6821      	ldr	r1, [r4, #0]
10001266:	468c      	mov	ip, r1
10001268:	4463      	add	r3, ip
1000126a:	785d      	ldrb	r5, [r3, #1]
1000126c:	2100      	movs	r1, #0
1000126e:	7059      	strb	r1, [r3, #1]
10001270:	2800      	cmp	r0, #0
10001272:	d025      	beq.n	100012c0 <ph_merge_two_pass+0x90>
10001274:	7b23      	ldrb	r3, [r4, #12]
10001276:	4298      	cmp	r0, r3
10001278:	d822      	bhi.n	100012c0 <ph_merge_two_pass+0x90>
1000127a:	0043      	lsls	r3, r0, #1
1000127c:	181b      	adds	r3, r3, r0
1000127e:	3b03      	subs	r3, #3
10001280:	6821      	ldr	r1, [r4, #0]
10001282:	468c      	mov	ip, r1
10001284:	4463      	add	r3, ip
10001286:	2100      	movs	r1, #0
10001288:	7059      	strb	r1, [r3, #1]
1000128a:	0001      	movs	r1, r0
1000128c:	0020      	movs	r0, r4
1000128e:	f7ff ff6f 	bl	10001170 <ph_merge_nodes>
10001292:	0006      	movs	r6, r0
10001294:	0029      	movs	r1, r5
10001296:	0020      	movs	r0, r4
10001298:	f7ff ffca 	bl	10001230 <ph_merge_two_pass>
1000129c:	0002      	movs	r2, r0
1000129e:	0031      	movs	r1, r6
100012a0:	0020      	movs	r0, r4
100012a2:	f7ff ff65 	bl	10001170 <ph_merge_nodes>
100012a6:	e7c7      	b.n	10001238 <ph_merge_two_pass+0x8>
100012a8:	4b08      	ldr	r3, [pc, #32]	; (100012cc <ph_merge_two_pass+0x9c>)
100012aa:	4a09      	ldr	r2, [pc, #36]	; (100012d0 <ph_merge_two_pass+0xa0>)
100012ac:	2169      	movs	r1, #105	; 0x69
100012ae:	4809      	ldr	r0, [pc, #36]	; (100012d4 <ph_merge_two_pass+0xa4>)
100012b0:	f000 f922 	bl	100014f8 <__assert_func>
100012b4:	4b05      	ldr	r3, [pc, #20]	; (100012cc <ph_merge_two_pass+0x9c>)
100012b6:	4a06      	ldr	r2, [pc, #24]	; (100012d0 <ph_merge_two_pass+0xa0>)
100012b8:	2169      	movs	r1, #105	; 0x69
100012ba:	4806      	ldr	r0, [pc, #24]	; (100012d4 <ph_merge_two_pass+0xa4>)
100012bc:	f000 f91c 	bl	100014f8 <__assert_func>
100012c0:	4b02      	ldr	r3, [pc, #8]	; (100012cc <ph_merge_two_pass+0x9c>)
100012c2:	4a03      	ldr	r2, [pc, #12]	; (100012d0 <ph_merge_two_pass+0xa0>)
100012c4:	2169      	movs	r1, #105	; 0x69
100012c6:	4803      	ldr	r0, [pc, #12]	; (100012d4 <ph_merge_two_pass+0xa4>)
100012c8:	f000 f916 	bl	100014f8 <__assert_func>
100012cc:	10004158 	.word	0x10004158
100012d0:	1000466c 	.word	0x1000466c
100012d4:	10004174 	.word	0x10004174

100012d8 <ph_remove_any_head>:
100012d8:	b570      	push	{r4, r5, r6, lr}
100012da:	0005      	movs	r5, r0
100012dc:	000c      	movs	r4, r1
100012de:	0016      	movs	r6, r2
100012e0:	2900      	cmp	r1, #0
100012e2:	d028      	beq.n	10001336 <ph_remove_any_head+0x5e>
100012e4:	d02d      	beq.n	10001342 <ph_remove_any_head+0x6a>
100012e6:	7b03      	ldrb	r3, [r0, #12]
100012e8:	4299      	cmp	r1, r3
100012ea:	d82a      	bhi.n	10001342 <ph_remove_any_head+0x6a>
100012ec:	004b      	lsls	r3, r1, #1
100012ee:	185b      	adds	r3, r3, r1
100012f0:	3b03      	subs	r3, #3
100012f2:	6802      	ldr	r2, [r0, #0]
100012f4:	4694      	mov	ip, r2
100012f6:	4463      	add	r3, ip
100012f8:	785a      	ldrb	r2, [r3, #1]
100012fa:	2a00      	cmp	r2, #0
100012fc:	d127      	bne.n	1000134e <ph_remove_any_head+0x76>
100012fe:	789a      	ldrb	r2, [r3, #2]
10001300:	2a00      	cmp	r2, #0
10001302:	d12a      	bne.n	1000135a <ph_remove_any_head+0x82>
10001304:	7819      	ldrb	r1, [r3, #0]
10001306:	f7ff ff93 	bl	10001230 <ph_merge_two_pass>
1000130a:	0003      	movs	r3, r0
1000130c:	2e00      	cmp	r6, #0
1000130e:	d003      	beq.n	10001318 <ph_remove_any_head+0x40>
10001310:	7bea      	ldrb	r2, [r5, #15]
10001312:	2a00      	cmp	r2, #0
10001314:	d127      	bne.n	10001366 <ph_remove_any_head+0x8e>
10001316:	73ec      	strb	r4, [r5, #15]
10001318:	2b00      	cmp	r3, #0
1000131a:	d137      	bne.n	1000138c <ph_remove_any_head+0xb4>
1000131c:	2c00      	cmp	r4, #0
1000131e:	d049      	beq.n	100013b4 <ph_remove_any_head+0xdc>
10001320:	7b2b      	ldrb	r3, [r5, #12]
10001322:	429c      	cmp	r4, r3
10001324:	d846      	bhi.n	100013b4 <ph_remove_any_head+0xdc>
10001326:	682b      	ldr	r3, [r5, #0]
10001328:	0061      	lsls	r1, r4, #1
1000132a:	190c      	adds	r4, r1, r4
1000132c:	3c03      	subs	r4, #3
1000132e:	191c      	adds	r4, r3, r4
10001330:	2300      	movs	r3, #0
10001332:	7063      	strb	r3, [r4, #1]
10001334:	bd70      	pop	{r4, r5, r6, pc}
10001336:	4b22      	ldr	r3, [pc, #136]	; (100013c0 <ph_remove_any_head+0xe8>)
10001338:	4a22      	ldr	r2, [pc, #136]	; (100013c4 <ph_remove_any_head+0xec>)
1000133a:	2138      	movs	r1, #56	; 0x38
1000133c:	4822      	ldr	r0, [pc, #136]	; (100013c8 <ph_remove_any_head+0xf0>)
1000133e:	f000 f8db 	bl	100014f8 <__assert_func>
10001342:	4b22      	ldr	r3, [pc, #136]	; (100013cc <ph_remove_any_head+0xf4>)
10001344:	4a22      	ldr	r2, [pc, #136]	; (100013d0 <ph_remove_any_head+0xf8>)
10001346:	2169      	movs	r1, #105	; 0x69
10001348:	4822      	ldr	r0, [pc, #136]	; (100013d4 <ph_remove_any_head+0xfc>)
1000134a:	f000 f8d5 	bl	100014f8 <__assert_func>
1000134e:	4b22      	ldr	r3, [pc, #136]	; (100013d8 <ph_remove_any_head+0x100>)
10001350:	4a1c      	ldr	r2, [pc, #112]	; (100013c4 <ph_remove_any_head+0xec>)
10001352:	213a      	movs	r1, #58	; 0x3a
10001354:	481c      	ldr	r0, [pc, #112]	; (100013c8 <ph_remove_any_head+0xf0>)
10001356:	f000 f8cf 	bl	100014f8 <__assert_func>
1000135a:	4b20      	ldr	r3, [pc, #128]	; (100013dc <ph_remove_any_head+0x104>)
1000135c:	4a19      	ldr	r2, [pc, #100]	; (100013c4 <ph_remove_any_head+0xec>)
1000135e:	213b      	movs	r1, #59	; 0x3b
10001360:	4819      	ldr	r0, [pc, #100]	; (100013c8 <ph_remove_any_head+0xf0>)
10001362:	f000 f8c9 	bl	100014f8 <__assert_func>
10001366:	2a00      	cmp	r2, #0
10001368:	d00a      	beq.n	10001380 <ph_remove_any_head+0xa8>
1000136a:	7b29      	ldrb	r1, [r5, #12]
1000136c:	428a      	cmp	r2, r1
1000136e:	d807      	bhi.n	10001380 <ph_remove_any_head+0xa8>
10001370:	0051      	lsls	r1, r2, #1
10001372:	188a      	adds	r2, r1, r2
10001374:	3a03      	subs	r2, #3
10001376:	6829      	ldr	r1, [r5, #0]
10001378:	468c      	mov	ip, r1
1000137a:	4462      	add	r2, ip
1000137c:	7054      	strb	r4, [r2, #1]
1000137e:	e7ca      	b.n	10001316 <ph_remove_any_head+0x3e>
10001380:	4b12      	ldr	r3, [pc, #72]	; (100013cc <ph_remove_any_head+0xf4>)
10001382:	4a13      	ldr	r2, [pc, #76]	; (100013d0 <ph_remove_any_head+0xf8>)
10001384:	2169      	movs	r1, #105	; 0x69
10001386:	4813      	ldr	r0, [pc, #76]	; (100013d4 <ph_remove_any_head+0xfc>)
10001388:	f000 f8b6 	bl	100014f8 <__assert_func>
1000138c:	2b00      	cmp	r3, #0
1000138e:	d00b      	beq.n	100013a8 <ph_remove_any_head+0xd0>
10001390:	7b2a      	ldrb	r2, [r5, #12]
10001392:	4293      	cmp	r3, r2
10001394:	d808      	bhi.n	100013a8 <ph_remove_any_head+0xd0>
10001396:	0043      	lsls	r3, r0, #1
10001398:	181b      	adds	r3, r3, r0
1000139a:	3b03      	subs	r3, #3
1000139c:	682a      	ldr	r2, [r5, #0]
1000139e:	4694      	mov	ip, r2
100013a0:	4463      	add	r3, ip
100013a2:	2200      	movs	r2, #0
100013a4:	709a      	strb	r2, [r3, #2]
100013a6:	e7b9      	b.n	1000131c <ph_remove_any_head+0x44>
100013a8:	4b08      	ldr	r3, [pc, #32]	; (100013cc <ph_remove_any_head+0xf4>)
100013aa:	4a09      	ldr	r2, [pc, #36]	; (100013d0 <ph_remove_any_head+0xf8>)
100013ac:	2169      	movs	r1, #105	; 0x69
100013ae:	4809      	ldr	r0, [pc, #36]	; (100013d4 <ph_remove_any_head+0xfc>)
100013b0:	f000 f8a2 	bl	100014f8 <__assert_func>
100013b4:	4b05      	ldr	r3, [pc, #20]	; (100013cc <ph_remove_any_head+0xf4>)
100013b6:	4a06      	ldr	r2, [pc, #24]	; (100013d0 <ph_remove_any_head+0xf8>)
100013b8:	2169      	movs	r1, #105	; 0x69
100013ba:	4806      	ldr	r0, [pc, #24]	; (100013d4 <ph_remove_any_head+0xfc>)
100013bc:	f000 f89c 	bl	100014f8 <__assert_func>
100013c0:	10004578 	.word	0x10004578
100013c4:	10004644 	.word	0x10004644
100013c8:	10004580 	.word	0x10004580
100013cc:	10004158 	.word	0x10004158
100013d0:	1000466c 	.word	0x1000466c
100013d4:	10004174 	.word	0x10004174
100013d8:	100045b8 	.word	0x100045b8
100013dc:	100045e0 	.word	0x100045e0

100013e0 <ph_remove_head>:
100013e0:	b570      	push	{r4, r5, r6, lr}
100013e2:	0004      	movs	r4, r0
100013e4:	000a      	movs	r2, r1
100013e6:	7b45      	ldrb	r5, [r0, #13]
100013e8:	0029      	movs	r1, r5
100013ea:	f7ff ff75 	bl	100012d8 <ph_remove_any_head>
100013ee:	7360      	strb	r0, [r4, #13]
100013f0:	0028      	movs	r0, r5
100013f2:	bd70      	pop	{r4, r5, r6, pc}

100013f4 <ph_remove_and_free_node>:
100013f4:	b570      	push	{r4, r5, r6, lr}
100013f6:	0004      	movs	r4, r0
100013f8:	2900      	cmp	r1, #0
100013fa:	d067      	beq.n	100014cc <ph_remove_and_free_node+0xd8>
100013fc:	7b43      	ldrb	r3, [r0, #13]
100013fe:	428b      	cmp	r3, r1
10001400:	d00e      	beq.n	10001420 <ph_remove_and_free_node+0x2c>
10001402:	2900      	cmp	r1, #0
10001404:	d011      	beq.n	1000142a <ph_remove_and_free_node+0x36>
10001406:	7b03      	ldrb	r3, [r0, #12]
10001408:	4299      	cmp	r1, r3
1000140a:	d80e      	bhi.n	1000142a <ph_remove_and_free_node+0x36>
1000140c:	004b      	lsls	r3, r1, #1
1000140e:	185b      	adds	r3, r3, r1
10001410:	3b03      	subs	r3, #3
10001412:	6802      	ldr	r2, [r0, #0]
10001414:	18d0      	adds	r0, r2, r3
10001416:	7883      	ldrb	r3, [r0, #2]
10001418:	2b00      	cmp	r3, #0
1000141a:	d10c      	bne.n	10001436 <ph_remove_and_free_node+0x42>
1000141c:	2000      	movs	r0, #0
1000141e:	e056      	b.n	100014ce <ph_remove_and_free_node+0xda>
10001420:	2101      	movs	r1, #1
10001422:	f7ff ffdd 	bl	100013e0 <ph_remove_head>
10001426:	2001      	movs	r0, #1
10001428:	e051      	b.n	100014ce <ph_remove_and_free_node+0xda>
1000142a:	4b29      	ldr	r3, [pc, #164]	; (100014d0 <ph_remove_and_free_node+0xdc>)
1000142c:	4a29      	ldr	r2, [pc, #164]	; (100014d4 <ph_remove_and_free_node+0xe0>)
1000142e:	2169      	movs	r1, #105	; 0x69
10001430:	4829      	ldr	r0, [pc, #164]	; (100014d8 <ph_remove_and_free_node+0xe4>)
10001432:	f000 f861 	bl	100014f8 <__assert_func>
10001436:	2b00      	cmp	r3, #0
10001438:	d020      	beq.n	1000147c <ph_remove_and_free_node+0x88>
1000143a:	7b22      	ldrb	r2, [r4, #12]
1000143c:	4293      	cmp	r3, r2
1000143e:	d81d      	bhi.n	1000147c <ph_remove_and_free_node+0x88>
10001440:	005a      	lsls	r2, r3, #1
10001442:	18d3      	adds	r3, r2, r3
10001444:	3b03      	subs	r3, #3
10001446:	6822      	ldr	r2, [r4, #0]
10001448:	18d2      	adds	r2, r2, r3
1000144a:	6825      	ldr	r5, [r4, #0]
1000144c:	5ceb      	ldrb	r3, [r5, r3]
1000144e:	428b      	cmp	r3, r1
10001450:	d01a      	beq.n	10001488 <ph_remove_and_free_node+0x94>
10001452:	2b00      	cmp	r3, #0
10001454:	d01b      	beq.n	1000148e <ph_remove_and_free_node+0x9a>
10001456:	7b22      	ldrb	r2, [r4, #12]
10001458:	4293      	cmp	r3, r2
1000145a:	d818      	bhi.n	1000148e <ph_remove_and_free_node+0x9a>
1000145c:	005a      	lsls	r2, r3, #1
1000145e:	18d3      	adds	r3, r2, r3
10001460:	3b03      	subs	r3, #3
10001462:	6822      	ldr	r2, [r4, #0]
10001464:	18d2      	adds	r2, r2, r3
10001466:	7853      	ldrb	r3, [r2, #1]
10001468:	428b      	cmp	r3, r1
1000146a:	d016      	beq.n	1000149a <ph_remove_and_free_node+0xa6>
1000146c:	2b00      	cmp	r3, #0
1000146e:	d1f0      	bne.n	10001452 <ph_remove_and_free_node+0x5e>
10001470:	4b1a      	ldr	r3, [pc, #104]	; (100014dc <ph_remove_and_free_node+0xe8>)
10001472:	4a1b      	ldr	r2, [pc, #108]	; (100014e0 <ph_remove_and_free_node+0xec>)
10001474:	2167      	movs	r1, #103	; 0x67
10001476:	481b      	ldr	r0, [pc, #108]	; (100014e4 <ph_remove_and_free_node+0xf0>)
10001478:	f000 f83e 	bl	100014f8 <__assert_func>
1000147c:	4b14      	ldr	r3, [pc, #80]	; (100014d0 <ph_remove_and_free_node+0xdc>)
1000147e:	4a15      	ldr	r2, [pc, #84]	; (100014d4 <ph_remove_and_free_node+0xe0>)
10001480:	2169      	movs	r1, #105	; 0x69
10001482:	4815      	ldr	r0, [pc, #84]	; (100014d8 <ph_remove_and_free_node+0xe4>)
10001484:	f000 f838 	bl	100014f8 <__assert_func>
10001488:	7843      	ldrb	r3, [r0, #1]
1000148a:	7013      	strb	r3, [r2, #0]
1000148c:	e007      	b.n	1000149e <ph_remove_and_free_node+0xaa>
1000148e:	4b10      	ldr	r3, [pc, #64]	; (100014d0 <ph_remove_and_free_node+0xdc>)
10001490:	4a10      	ldr	r2, [pc, #64]	; (100014d4 <ph_remove_and_free_node+0xe0>)
10001492:	2169      	movs	r1, #105	; 0x69
10001494:	4810      	ldr	r0, [pc, #64]	; (100014d8 <ph_remove_and_free_node+0xe4>)
10001496:	f000 f82f 	bl	100014f8 <__assert_func>
1000149a:	7843      	ldrb	r3, [r0, #1]
1000149c:	7053      	strb	r3, [r2, #1]
1000149e:	2300      	movs	r3, #0
100014a0:	7083      	strb	r3, [r0, #2]
100014a2:	7043      	strb	r3, [r0, #1]
100014a4:	2201      	movs	r2, #1
100014a6:	0020      	movs	r0, r4
100014a8:	f7ff ff16 	bl	100012d8 <ph_remove_any_head>
100014ac:	0002      	movs	r2, r0
100014ae:	7b61      	ldrb	r1, [r4, #13]
100014b0:	4281      	cmp	r1, r0
100014b2:	d005      	beq.n	100014c0 <ph_remove_and_free_node+0xcc>
100014b4:	0020      	movs	r0, r4
100014b6:	f7ff fe5b 	bl	10001170 <ph_merge_nodes>
100014ba:	7360      	strb	r0, [r4, #13]
100014bc:	2001      	movs	r0, #1
100014be:	e006      	b.n	100014ce <ph_remove_and_free_node+0xda>
100014c0:	4b09      	ldr	r3, [pc, #36]	; (100014e8 <ph_remove_and_free_node+0xf4>)
100014c2:	4a07      	ldr	r2, [pc, #28]	; (100014e0 <ph_remove_and_free_node+0xec>)
100014c4:	216d      	movs	r1, #109	; 0x6d
100014c6:	4807      	ldr	r0, [pc, #28]	; (100014e4 <ph_remove_and_free_node+0xf0>)
100014c8:	f000 f816 	bl	100014f8 <__assert_func>
100014cc:	2000      	movs	r0, #0
100014ce:	bd70      	pop	{r4, r5, r6, pc}
100014d0:	10004158 	.word	0x10004158
100014d4:	1000466c 	.word	0x1000466c
100014d8:	10004174 	.word	0x10004174
100014dc:	10004604 	.word	0x10004604
100014e0:	1000462c 	.word	0x1000462c
100014e4:	10004580 	.word	0x10004580
100014e8:	1000460c 	.word	0x1000460c

100014ec <_exit>:
100014ec:	be00      	bkpt	0x0000
100014ee:	e7fd      	b.n	100014ec <_exit>

100014f0 <exit>:
100014f0:	b510      	push	{r4, lr}
100014f2:	f7ff fffb 	bl	100014ec <_exit>
	...

100014f8 <__assert_func>:
100014f8:	b510      	push	{r4, lr}
100014fa:	b082      	sub	sp, #8
100014fc:	000c      	movs	r4, r1
100014fe:	0019      	movs	r1, r3
10001500:	2a00      	cmp	r2, #0
10001502:	d00c      	beq.n	1000151e <__assert_func+0x26>
10001504:	4b08      	ldr	r3, [pc, #32]	; (10001528 <__assert_func+0x30>)
10001506:	2a00      	cmp	r2, #0
10001508:	d00b      	beq.n	10001522 <__assert_func+0x2a>
1000150a:	9201      	str	r2, [sp, #4]
1000150c:	9300      	str	r3, [sp, #0]
1000150e:	0023      	movs	r3, r4
10001510:	0002      	movs	r2, r0
10001512:	4806      	ldr	r0, [pc, #24]	; (1000152c <__assert_func+0x34>)
10001514:	f002 fd7a 	bl	1000400c <__wrap_printf>
10001518:	2001      	movs	r0, #1
1000151a:	f7ff ffe7 	bl	100014ec <_exit>
1000151e:	4b04      	ldr	r3, [pc, #16]	; (10001530 <__assert_func+0x38>)
10001520:	e7f1      	b.n	10001506 <__assert_func+0xe>
10001522:	4a03      	ldr	r2, [pc, #12]	; (10001530 <__assert_func+0x38>)
10001524:	e7f1      	b.n	1000150a <__assert_func+0x12>
10001526:	46c0      	nop			; (mov r8, r8)
10001528:	10004678 	.word	0x10004678
1000152c:	10004688 	.word	0x10004688
10001530:	10004684 	.word	0x10004684

10001534 <runtime_init>:
10001534:	b570      	push	{r4, r5, r6, lr}
10001536:	4b2b      	ldr	r3, [pc, #172]	; (100015e4 <runtime_init+0xb0>)
10001538:	4a2b      	ldr	r2, [pc, #172]	; (100015e8 <runtime_init+0xb4>)
1000153a:	601a      	str	r2, [r3, #0]
1000153c:	4b2b      	ldr	r3, [pc, #172]	; (100015ec <runtime_init+0xb8>)
1000153e:	4a2c      	ldr	r2, [pc, #176]	; (100015f0 <runtime_init+0xbc>)
10001540:	601a      	str	r2, [r3, #0]
10001542:	4b2c      	ldr	r3, [pc, #176]	; (100015f4 <runtime_init+0xc0>)
10001544:	689a      	ldr	r2, [r3, #8]
10001546:	4b2a      	ldr	r3, [pc, #168]	; (100015f0 <runtime_init+0xbc>)
10001548:	4393      	bics	r3, r2
1000154a:	d1fa      	bne.n	10001542 <runtime_init+0xe>
1000154c:	4c2a      	ldr	r4, [pc, #168]	; (100015f8 <runtime_init+0xc4>)
1000154e:	e001      	b.n	10001554 <runtime_init+0x20>
10001550:	cc08      	ldmia	r4!, {r3}
10001552:	4798      	blx	r3
10001554:	4b29      	ldr	r3, [pc, #164]	; (100015fc <runtime_init+0xc8>)
10001556:	429c      	cmp	r4, r3
10001558:	d3fa      	bcc.n	10001550 <runtime_init+0x1c>
1000155a:	f000 f901 	bl	10001760 <clocks_init>
1000155e:	4b23      	ldr	r3, [pc, #140]	; (100015ec <runtime_init+0xb8>)
10001560:	4a27      	ldr	r2, [pc, #156]	; (10001600 <runtime_init+0xcc>)
10001562:	601a      	str	r2, [r3, #0]
10001564:	4b23      	ldr	r3, [pc, #140]	; (100015f4 <runtime_init+0xc0>)
10001566:	689b      	ldr	r3, [r3, #8]
10001568:	43db      	mvns	r3, r3
1000156a:	01db      	lsls	r3, r3, #7
1000156c:	d1fa      	bne.n	10001564 <runtime_init+0x30>
1000156e:	4b25      	ldr	r3, [pc, #148]	; (10001604 <runtime_init+0xd0>)
10001570:	2240      	movs	r2, #64	; 0x40
10001572:	679a      	str	r2, [r3, #120]	; 0x78
10001574:	675a      	str	r2, [r3, #116]	; 0x74
10001576:	671a      	str	r2, [r3, #112]	; 0x70
10001578:	66da      	str	r2, [r3, #108]	; 0x6c
1000157a:	4c23      	ldr	r4, [pc, #140]	; (10001608 <runtime_init+0xd4>)
1000157c:	e009      	b.n	10001592 <runtime_init+0x5e>
1000157e:	4b23      	ldr	r3, [pc, #140]	; (1000160c <runtime_init+0xd8>)
10001580:	4a23      	ldr	r2, [pc, #140]	; (10001610 <runtime_init+0xdc>)
10001582:	2183      	movs	r1, #131	; 0x83
10001584:	4823      	ldr	r0, [pc, #140]	; (10001614 <runtime_init+0xe0>)
10001586:	f7ff ffb7 	bl	100014f8 <__assert_func>
1000158a:	0020      	movs	r0, r4
1000158c:	f7ff fd82 	bl	10001094 <mutex_init>
10001590:	3408      	adds	r4, #8
10001592:	4b21      	ldr	r3, [pc, #132]	; (10001618 <runtime_init+0xe4>)
10001594:	429c      	cmp	r4, r3
10001596:	d209      	bcs.n	100015ac <runtime_init+0x78>
10001598:	6823      	ldr	r3, [r4, #0]
1000159a:	2b00      	cmp	r3, #0
1000159c:	d0f5      	beq.n	1000158a <runtime_init+0x56>
1000159e:	2b01      	cmp	r3, #1
100015a0:	d1ed      	bne.n	1000157e <runtime_init+0x4a>
100015a2:	0020      	movs	r0, r4
100015a4:	f7ff fd83 	bl	100010ae <recursive_mutex_init>
100015a8:	3408      	adds	r4, #8
100015aa:	e7f2      	b.n	10001592 <runtime_init+0x5e>
100015ac:	4c1b      	ldr	r4, [pc, #108]	; (1000161c <runtime_init+0xe8>)
100015ae:	68a1      	ldr	r1, [r4, #8]
100015b0:	4d1b      	ldr	r5, [pc, #108]	; (10001620 <runtime_init+0xec>)
100015b2:	22c0      	movs	r2, #192	; 0xc0
100015b4:	0028      	movs	r0, r5
100015b6:	f002 fbfb 	bl	10003db0 <__wrap___aeabi_memcpy>
100015ba:	60a5      	str	r5, [r4, #8]
100015bc:	f7fe fe53 	bl	10000266 <__get_current_exception>
100015c0:	2800      	cmp	r0, #0
100015c2:	d000      	beq.n	100015c6 <runtime_init+0x92>
100015c4:	be00      	bkpt	0x0000
100015c6:	f7fe ff1d 	bl	10000404 <spin_locks_reset>
100015ca:	f000 fb3b 	bl	10001c44 <irq_init_priorities>
100015ce:	f7ff fa6d 	bl	10000aac <alarm_pool_init_default>
100015d2:	4c14      	ldr	r4, [pc, #80]	; (10001624 <runtime_init+0xf0>)
100015d4:	e001      	b.n	100015da <runtime_init+0xa6>
100015d6:	cc08      	ldmia	r4!, {r3}
100015d8:	4798      	blx	r3
100015da:	4b13      	ldr	r3, [pc, #76]	; (10001628 <runtime_init+0xf4>)
100015dc:	429c      	cmp	r4, r3
100015de:	d3fa      	bcc.n	100015d6 <runtime_init+0xa2>
100015e0:	bd70      	pop	{r4, r5, r6, pc}
100015e2:	46c0      	nop			; (mov r8, r8)
100015e4:	4000e000 	.word	0x4000e000
100015e8:	fefbcdbf 	.word	0xfefbcdbf
100015ec:	4000f000 	.word	0x4000f000
100015f0:	003c7ffe 	.word	0x003c7ffe
100015f4:	4000c000 	.word	0x4000c000
100015f8:	20000258 	.word	0x20000258
100015fc:	20000268 	.word	0x20000268
10001600:	01ffffff 	.word	0x01ffffff
10001604:	4001f000 	.word	0x4001f000
10001608:	20000250 	.word	0x20000250
1000160c:	100046b8 	.word	0x100046b8
10001610:	10004730 	.word	0x10004730
10001614:	100046d8 	.word	0x100046d8
10001618:	20000258 	.word	0x20000258
1000161c:	e000ed00 	.word	0xe000ed00
10001620:	20000000 	.word	0x20000000
10001624:	20000268 	.word	0x20000268
10001628:	2000026c 	.word	0x2000026c

1000162c <panic>:
1000162c:	b40f      	push	{r0, r1, r2, r3}
1000162e:	b500      	push	{lr}
10001630:	b083      	sub	sp, #12
10001632:	4808      	ldr	r0, [pc, #32]	; (10001654 <panic+0x28>)
10001634:	f002 fcb8 	bl	10003fa8 <__wrap_puts>
10001638:	9b04      	ldr	r3, [sp, #16]
1000163a:	2b00      	cmp	r3, #0
1000163c:	d007      	beq.n	1000164e <panic+0x22>
1000163e:	a905      	add	r1, sp, #20
10001640:	9101      	str	r1, [sp, #4]
10001642:	0018      	movs	r0, r3
10001644:	f002 fcc0 	bl	10003fc8 <__wrap_vprintf>
10001648:	4803      	ldr	r0, [pc, #12]	; (10001658 <panic+0x2c>)
1000164a:	f002 fcad 	bl	10003fa8 <__wrap_puts>
1000164e:	2001      	movs	r0, #1
10001650:	f7ff ff4c 	bl	100014ec <_exit>
10001654:	1000471c 	.word	0x1000471c
10001658:	1000472c 	.word	0x1000472c

1000165c <clock_configure>:
1000165c:	b5f8      	push	{r3, r4, r5, r6, r7, lr}
1000165e:	46de      	mov	lr, fp
10001660:	4657      	mov	r7, sl
10001662:	464e      	mov	r6, r9
10001664:	4645      	mov	r5, r8
10001666:	b5e0      	push	{r5, r6, r7, lr}
10001668:	0005      	movs	r5, r0
1000166a:	000f      	movs	r7, r1
1000166c:	4692      	mov	sl, r2
1000166e:	9a0a      	ldr	r2, [sp, #40]	; 0x28
10001670:	4293      	cmp	r3, r2
10001672:	d34e      	bcc.n	10001712 <clock_configure+0xb6>
10001674:	0e1a      	lsrs	r2, r3, #24
10001676:	4691      	mov	r9, r2
10001678:	021e      	lsls	r6, r3, #8
1000167a:	9a0a      	ldr	r2, [sp, #40]	; 0x28
1000167c:	2300      	movs	r3, #0
1000167e:	0030      	movs	r0, r6
10001680:	4649      	mov	r1, r9
10001682:	f001 fcd3 	bl	1000302c <__wrap___aeabi_uldivmod>
10001686:	4680      	mov	r8, r0
10001688:	006c      	lsls	r4, r5, #1
1000168a:	1964      	adds	r4, r4, r5
1000168c:	00a4      	lsls	r4, r4, #2
1000168e:	4b2f      	ldr	r3, [pc, #188]	; (1000174c <clock_configure+0xf0>)
10001690:	469c      	mov	ip, r3
10001692:	4464      	add	r4, ip
10001694:	6863      	ldr	r3, [r4, #4]
10001696:	4283      	cmp	r3, r0
10001698:	d200      	bcs.n	1000169c <clock_configure+0x40>
1000169a:	6060      	str	r0, [r4, #4]
1000169c:	1f2b      	subs	r3, r5, #4
1000169e:	b2db      	uxtb	r3, r3
100016a0:	469b      	mov	fp, r3
100016a2:	2b01      	cmp	r3, #1
100016a4:	d93b      	bls.n	1000171e <clock_configure+0xc2>
100016a6:	23c0      	movs	r3, #192	; 0xc0
100016a8:	019b      	lsls	r3, r3, #6
100016aa:	4323      	orrs	r3, r4
100016ac:	2280      	movs	r2, #128	; 0x80
100016ae:	0112      	lsls	r2, r2, #4
100016b0:	601a      	str	r2, [r3, #0]
100016b2:	00ab      	lsls	r3, r5, #2
100016b4:	4a26      	ldr	r2, [pc, #152]	; (10001750 <clock_configure+0xf4>)
100016b6:	5899      	ldr	r1, [r3, r2]
100016b8:	2900      	cmp	r1, #0
100016ba:	d005      	beq.n	100016c8 <clock_configure+0x6c>
100016bc:	6950      	ldr	r0, [r2, #20]
100016be:	f001 fc73 	bl	10002fa8 <__wrap___aeabi_uidiv>
100016c2:	3001      	adds	r0, #1
100016c4:	3801      	subs	r0, #1
100016c6:	d1fd      	bne.n	100016c4 <clock_configure+0x68>
100016c8:	4653      	mov	r3, sl
100016ca:	015a      	lsls	r2, r3, #5
100016cc:	6823      	ldr	r3, [r4, #0]
100016ce:	405a      	eors	r2, r3
100016d0:	23e0      	movs	r3, #224	; 0xe0
100016d2:	401a      	ands	r2, r3
100016d4:	2380      	movs	r3, #128	; 0x80
100016d6:	015b      	lsls	r3, r3, #5
100016d8:	4323      	orrs	r3, r4
100016da:	601a      	str	r2, [r3, #0]
100016dc:	465a      	mov	r2, fp
100016de:	2a01      	cmp	r2, #1
100016e0:	d928      	bls.n	10001734 <clock_configure+0xd8>
100016e2:	2380      	movs	r3, #128	; 0x80
100016e4:	019b      	lsls	r3, r3, #6
100016e6:	4323      	orrs	r3, r4
100016e8:	2280      	movs	r2, #128	; 0x80
100016ea:	0112      	lsls	r2, r2, #4
100016ec:	601a      	str	r2, [r3, #0]
100016ee:	4643      	mov	r3, r8
100016f0:	6063      	str	r3, [r4, #4]
100016f2:	4642      	mov	r2, r8
100016f4:	2300      	movs	r3, #0
100016f6:	0030      	movs	r0, r6
100016f8:	4649      	mov	r1, r9
100016fa:	f001 fc97 	bl	1000302c <__wrap___aeabi_uldivmod>
100016fe:	00ad      	lsls	r5, r5, #2
10001700:	4b13      	ldr	r3, [pc, #76]	; (10001750 <clock_configure+0xf4>)
10001702:	5158      	str	r0, [r3, r5]
10001704:	2001      	movs	r0, #1
10001706:	bcf0      	pop	{r4, r5, r6, r7}
10001708:	46bb      	mov	fp, r7
1000170a:	46b2      	mov	sl, r6
1000170c:	46a9      	mov	r9, r5
1000170e:	46a0      	mov	r8, r4
10001710:	bdf8      	pop	{r3, r4, r5, r6, r7, pc}
10001712:	4b10      	ldr	r3, [pc, #64]	; (10001754 <clock_configure+0xf8>)
10001714:	4a10      	ldr	r2, [pc, #64]	; (10001758 <clock_configure+0xfc>)
10001716:	212d      	movs	r1, #45	; 0x2d
10001718:	4810      	ldr	r0, [pc, #64]	; (1000175c <clock_configure+0x100>)
1000171a:	f7ff feed 	bl	100014f8 <__assert_func>
1000171e:	2f01      	cmp	r7, #1
10001720:	d1c1      	bne.n	100016a6 <clock_configure+0x4a>
10001722:	23c0      	movs	r3, #192	; 0xc0
10001724:	019b      	lsls	r3, r3, #6
10001726:	4323      	orrs	r3, r4
10001728:	2203      	movs	r2, #3
1000172a:	601a      	str	r2, [r3, #0]
1000172c:	68a3      	ldr	r3, [r4, #8]
1000172e:	07db      	lsls	r3, r3, #31
10001730:	d5fc      	bpl.n	1000172c <clock_configure+0xd0>
10001732:	e7c9      	b.n	100016c8 <clock_configure+0x6c>
10001734:	6821      	ldr	r1, [r4, #0]
10001736:	4079      	eors	r1, r7
10001738:	2203      	movs	r2, #3
1000173a:	400a      	ands	r2, r1
1000173c:	601a      	str	r2, [r3, #0]
1000173e:	68a2      	ldr	r2, [r4, #8]
10001740:	2301      	movs	r3, #1
10001742:	40bb      	lsls	r3, r7
10001744:	4213      	tst	r3, r2
10001746:	d0fa      	beq.n	1000173e <clock_configure+0xe2>
10001748:	e7cb      	b.n	100016e2 <clock_configure+0x86>
1000174a:	46c0      	nop			; (mov r8, r8)
1000174c:	40008000 	.word	0x40008000
10001750:	2000039c 	.word	0x2000039c
10001754:	10004740 	.word	0x10004740
10001758:	10004798 	.word	0x10004798
1000175c:	10004754 	.word	0x10004754

10001760 <clocks_init>:
10001760:	b530      	push	{r4, r5, lr}
10001762:	b083      	sub	sp, #12
10001764:	200c      	movs	r0, #12
10001766:	f000 fb07 	bl	10001d78 <watchdog_start_tick>
1000176a:	f7fe fe41 	bl	100003f0 <running_on_fpga>
1000176e:	2800      	cmp	r0, #0
10001770:	d00d      	beq.n	1000178e <clocks_init+0x2e>
10001772:	2300      	movs	r3, #0
10001774:	e004      	b.n	10001780 <clocks_init+0x20>
10001776:	0099      	lsls	r1, r3, #2
10001778:	4a2d      	ldr	r2, [pc, #180]	; (10001830 <clocks_init+0xd0>)
1000177a:	482e      	ldr	r0, [pc, #184]	; (10001834 <clocks_init+0xd4>)
1000177c:	5088      	str	r0, [r1, r2]
1000177e:	3301      	adds	r3, #1
10001780:	2b09      	cmp	r3, #9
10001782:	d9f8      	bls.n	10001776 <clocks_init+0x16>
10001784:	4b2a      	ldr	r3, [pc, #168]	; (10001830 <clocks_init+0xd0>)
10001786:	4a2c      	ldr	r2, [pc, #176]	; (10001838 <clocks_init+0xd8>)
10001788:	625a      	str	r2, [r3, #36]	; 0x24
1000178a:	b003      	add	sp, #12
1000178c:	bd30      	pop	{r4, r5, pc}
1000178e:	4b2b      	ldr	r3, [pc, #172]	; (1000183c <clocks_init+0xdc>)
10001790:	2200      	movs	r2, #0
10001792:	679a      	str	r2, [r3, #120]	; 0x78
10001794:	f000 faf8 	bl	10001d88 <xosc_init>
10001798:	4b29      	ldr	r3, [pc, #164]	; (10001840 <clocks_init+0xe0>)
1000179a:	2201      	movs	r2, #1
1000179c:	601a      	str	r2, [r3, #0]
1000179e:	4b27      	ldr	r3, [pc, #156]	; (1000183c <clocks_init+0xdc>)
100017a0:	6c5b      	ldr	r3, [r3, #68]	; 0x44
100017a2:	2b01      	cmp	r3, #1
100017a4:	d1fb      	bne.n	1000179e <clocks_init+0x3e>
100017a6:	4b27      	ldr	r3, [pc, #156]	; (10001844 <clocks_init+0xe4>)
100017a8:	2203      	movs	r2, #3
100017aa:	601a      	str	r2, [r3, #0]
100017ac:	4b23      	ldr	r3, [pc, #140]	; (1000183c <clocks_init+0xdc>)
100017ae:	6b9b      	ldr	r3, [r3, #56]	; 0x38
100017b0:	2b01      	cmp	r3, #1
100017b2:	d1fb      	bne.n	100017ac <clocks_init+0x4c>
100017b4:	2402      	movs	r4, #2
100017b6:	9400      	str	r4, [sp, #0]
100017b8:	3305      	adds	r3, #5
100017ba:	4a23      	ldr	r2, [pc, #140]	; (10001848 <clocks_init+0xe8>)
100017bc:	2101      	movs	r1, #1
100017be:	4823      	ldr	r0, [pc, #140]	; (1000184c <clocks_init+0xec>)
100017c0:	f000 fa4e 	bl	10001c60 <pll_init>
100017c4:	9400      	str	r4, [sp, #0]
100017c6:	2305      	movs	r3, #5
100017c8:	4a21      	ldr	r2, [pc, #132]	; (10001850 <clocks_init+0xf0>)
100017ca:	2101      	movs	r1, #1
100017cc:	4821      	ldr	r0, [pc, #132]	; (10001854 <clocks_init+0xf4>)
100017ce:	f000 fa47 	bl	10001c60 <pll_init>
100017d2:	4b21      	ldr	r3, [pc, #132]	; (10001858 <clocks_init+0xf8>)
100017d4:	9300      	str	r3, [sp, #0]
100017d6:	2200      	movs	r2, #0
100017d8:	2102      	movs	r1, #2
100017da:	2004      	movs	r0, #4
100017dc:	f7ff ff3e 	bl	1000165c <clock_configure>
100017e0:	4d1e      	ldr	r5, [pc, #120]	; (1000185c <clocks_init+0xfc>)
100017e2:	9500      	str	r5, [sp, #0]
100017e4:	002b      	movs	r3, r5
100017e6:	2200      	movs	r2, #0
100017e8:	2101      	movs	r1, #1
100017ea:	2005      	movs	r0, #5
100017ec:	f7ff ff36 	bl	1000165c <clock_configure>
100017f0:	4c10      	ldr	r4, [pc, #64]	; (10001834 <clocks_init+0xd4>)
100017f2:	9400      	str	r4, [sp, #0]
100017f4:	0023      	movs	r3, r4
100017f6:	2200      	movs	r2, #0
100017f8:	2100      	movs	r1, #0
100017fa:	2007      	movs	r0, #7
100017fc:	f7ff ff2e 	bl	1000165c <clock_configure>
10001800:	9400      	str	r4, [sp, #0]
10001802:	0023      	movs	r3, r4
10001804:	2200      	movs	r2, #0
10001806:	2100      	movs	r1, #0
10001808:	2008      	movs	r0, #8
1000180a:	f7ff ff27 	bl	1000165c <clock_configure>
1000180e:	4b0a      	ldr	r3, [pc, #40]	; (10001838 <clocks_init+0xd8>)
10001810:	9300      	str	r3, [sp, #0]
10001812:	0023      	movs	r3, r4
10001814:	2200      	movs	r2, #0
10001816:	2100      	movs	r1, #0
10001818:	2009      	movs	r0, #9
1000181a:	f7ff ff1f 	bl	1000165c <clock_configure>
1000181e:	9500      	str	r5, [sp, #0]
10001820:	002b      	movs	r3, r5
10001822:	2200      	movs	r2, #0
10001824:	2100      	movs	r1, #0
10001826:	2006      	movs	r0, #6
10001828:	f7ff ff18 	bl	1000165c <clock_configure>
1000182c:	e7ad      	b.n	1000178a <clocks_init+0x2a>
1000182e:	46c0      	nop			; (mov r8, r8)
10001830:	2000039c 	.word	0x2000039c
10001834:	02dc6c00 	.word	0x02dc6c00
10001838:	0000b71b 	.word	0x0000b71b
1000183c:	40008000 	.word	0x40008000
10001840:	4000b03c 	.word	0x4000b03c
10001844:	4000b030 	.word	0x4000b030
10001848:	59682f00 	.word	0x59682f00
1000184c:	40028000 	.word	0x40028000
10001850:	1c9c3800 	.word	0x1c9c3800
10001854:	4002c000 	.word	0x4002c000
10001858:	00b71b00 	.word	0x00b71b00
1000185c:	07735940 	.word	0x07735940

10001860 <set_raw_irq_handler_and_unlock>:
10001860:	4b07      	ldr	r3, [pc, #28]	; (10001880 <set_raw_irq_handler_and_unlock+0x20>)
10001862:	689b      	ldr	r3, [r3, #8]
10001864:	3010      	adds	r0, #16
10001866:	0080      	lsls	r0, r0, #2
10001868:	5019      	str	r1, [r3, r0]
1000186a:	f3bf 8f5f 	dmb	sy
1000186e:	f3bf 8f5f 	dmb	sy
10001872:	4b04      	ldr	r3, [pc, #16]	; (10001884 <set_raw_irq_handler_and_unlock+0x24>)
10001874:	2100      	movs	r1, #0
10001876:	6019      	str	r1, [r3, #0]
10001878:	f382 8810 	msr	PRIMASK, r2
1000187c:	4770      	bx	lr
1000187e:	46c0      	nop			; (mov r8, r8)
10001880:	e000ed00 	.word	0xe000ed00
10001884:	d0000124 	.word	0xd0000124

10001888 <make_branch>:
10001888:	b510      	push	{r4, lr}
1000188a:	1a09      	subs	r1, r1, r0
1000188c:	3904      	subs	r1, #4
1000188e:	0848      	lsrs	r0, r1, #1
10001890:	0b09      	lsrs	r1, r1, #12
10001892:	d105      	bne.n	100018a0 <make_branch+0x18>
10001894:	0540      	lsls	r0, r0, #21
10001896:	0d40      	lsrs	r0, r0, #21
10001898:	4b04      	ldr	r3, [pc, #16]	; (100018ac <make_branch+0x24>)
1000189a:	4318      	orrs	r0, r3
1000189c:	b280      	uxth	r0, r0
1000189e:	bd10      	pop	{r4, pc}
100018a0:	4b03      	ldr	r3, [pc, #12]	; (100018b0 <make_branch+0x28>)
100018a2:	4a04      	ldr	r2, [pc, #16]	; (100018b4 <make_branch+0x2c>)
100018a4:	218b      	movs	r1, #139	; 0x8b
100018a6:	4804      	ldr	r0, [pc, #16]	; (100018b8 <make_branch+0x30>)
100018a8:	f7ff fe26 	bl	100014f8 <__assert_func>
100018ac:	ffffe000 	.word	0xffffe000
100018b0:	100047a8 	.word	0x100047a8
100018b4:	100049b4 	.word	0x100049b4
100018b8:	100047b8 	.word	0x100047b8

100018bc <insert_branch_and_link>:
100018bc:	b510      	push	{r4, lr}
100018be:	1a09      	subs	r1, r1, r0
100018c0:	3904      	subs	r1, #4
100018c2:	084c      	lsrs	r4, r1, #1
100018c4:	0b09      	lsrs	r1, r1, #12
100018c6:	d108      	bne.n	100018da <insert_branch_and_link+0x1e>
100018c8:	0549      	lsls	r1, r1, #21
100018ca:	0d49      	lsrs	r1, r1, #21
100018cc:	4a06      	ldr	r2, [pc, #24]	; (100018e8 <insert_branch_and_link+0x2c>)
100018ce:	4311      	orrs	r1, r2
100018d0:	8001      	strh	r1, [r0, #0]
100018d2:	4b06      	ldr	r3, [pc, #24]	; (100018ec <insert_branch_and_link+0x30>)
100018d4:	4323      	orrs	r3, r4
100018d6:	8043      	strh	r3, [r0, #2]
100018d8:	bd10      	pop	{r4, pc}
100018da:	4b05      	ldr	r3, [pc, #20]	; (100018f0 <insert_branch_and_link+0x34>)
100018dc:	4a05      	ldr	r2, [pc, #20]	; (100018f4 <insert_branch_and_link+0x38>)
100018de:	2193      	movs	r1, #147	; 0x93
100018e0:	4805      	ldr	r0, [pc, #20]	; (100018f8 <insert_branch_and_link+0x3c>)
100018e2:	f7ff fe09 	bl	100014f8 <__assert_func>
100018e6:	46c0      	nop			; (mov r8, r8)
100018e8:	fffff000 	.word	0xfffff000
100018ec:	fffff800 	.word	0xfffff800
100018f0:	100047a8 	.word	0x100047a8
100018f4:	10004988 	.word	0x10004988
100018f8:	100047b8 	.word	0x100047b8

100018fc <irq_is_enabled>:
100018fc:	2301      	movs	r3, #1
100018fe:	4083      	lsls	r3, r0
10001900:	4a03      	ldr	r2, [pc, #12]	; (10001910 <irq_is_enabled+0x14>)
10001902:	6810      	ldr	r0, [r2, #0]
10001904:	4018      	ands	r0, r3
10001906:	1e43      	subs	r3, r0, #1
10001908:	4198      	sbcs	r0, r3
1000190a:	b2c0      	uxtb	r0, r0
1000190c:	4770      	bx	lr
1000190e:	46c0      	nop			; (mov r8, r8)
10001910:	e000e100 	.word	0xe000e100

10001914 <irq_set_mask_enabled>:
10001914:	2900      	cmp	r1, #0
10001916:	d004      	beq.n	10001922 <irq_set_mask_enabled+0xe>
10001918:	4b03      	ldr	r3, [pc, #12]	; (10001928 <irq_set_mask_enabled+0x14>)
1000191a:	6018      	str	r0, [r3, #0]
1000191c:	4b03      	ldr	r3, [pc, #12]	; (1000192c <irq_set_mask_enabled+0x18>)
1000191e:	6018      	str	r0, [r3, #0]
10001920:	4770      	bx	lr
10001922:	4b03      	ldr	r3, [pc, #12]	; (10001930 <irq_set_mask_enabled+0x1c>)
10001924:	6018      	str	r0, [r3, #0]
10001926:	e7fb      	b.n	10001920 <irq_set_mask_enabled+0xc>
10001928:	e000e280 	.word	0xe000e280
1000192c:	e000e100 	.word	0xe000e100
10001930:	e000e180 	.word	0xe000e180

10001934 <irq_set_enabled>:
10001934:	b510      	push	{r4, lr}
10001936:	2301      	movs	r3, #1
10001938:	4083      	lsls	r3, r0
1000193a:	0018      	movs	r0, r3
1000193c:	f7ff ffea 	bl	10001914 <irq_set_mask_enabled>
10001940:	bd10      	pop	{r4, pc}
	...

10001944 <irq_get_vtable_handler>:
10001944:	4b02      	ldr	r3, [pc, #8]	; (10001950 <irq_get_vtable_handler+0xc>)
10001946:	689b      	ldr	r3, [r3, #8]
10001948:	3010      	adds	r0, #16
1000194a:	0080      	lsls	r0, r0, #2
1000194c:	58c0      	ldr	r0, [r0, r3]
1000194e:	4770      	bx	lr
10001950:	e000ed00 	.word	0xe000ed00

10001954 <irq_set_exclusive_handler>:
10001954:	b570      	push	{r4, r5, r6, lr}
10001956:	0004      	movs	r4, r0
10001958:	000d      	movs	r5, r1
1000195a:	f3ef 8610 	mrs	r6, PRIMASK
1000195e:	b672      	cpsid	i
10001960:	4b0c      	ldr	r3, [pc, #48]	; (10001994 <irq_set_exclusive_handler+0x40>)
10001962:	681b      	ldr	r3, [r3, #0]
10001964:	2b00      	cmp	r3, #0
10001966:	d0fb      	beq.n	10001960 <irq_set_exclusive_handler+0xc>
10001968:	f3bf 8f5f 	dmb	sy
1000196c:	0020      	movs	r0, r4
1000196e:	f7ff ffe9 	bl	10001944 <irq_get_vtable_handler>
10001972:	4b09      	ldr	r3, [pc, #36]	; (10001998 <irq_set_exclusive_handler+0x44>)
10001974:	4298      	cmp	r0, r3
10001976:	d001      	beq.n	1000197c <irq_set_exclusive_handler+0x28>
10001978:	42a8      	cmp	r0, r5
1000197a:	d105      	bne.n	10001988 <irq_set_exclusive_handler+0x34>
1000197c:	0032      	movs	r2, r6
1000197e:	0029      	movs	r1, r5
10001980:	0020      	movs	r0, r4
10001982:	f7ff ff6d 	bl	10001860 <set_raw_irq_handler_and_unlock>
10001986:	bd70      	pop	{r4, r5, r6, pc}
10001988:	4b04      	ldr	r3, [pc, #16]	; (1000199c <irq_set_exclusive_handler+0x48>)
1000198a:	4a05      	ldr	r2, [pc, #20]	; (100019a0 <irq_set_exclusive_handler+0x4c>)
1000198c:	216e      	movs	r1, #110	; 0x6e
1000198e:	4805      	ldr	r0, [pc, #20]	; (100019a4 <irq_set_exclusive_handler+0x50>)
10001990:	f7ff fdb2 	bl	100014f8 <__assert_func>
10001994:	d0000124 	.word	0xd0000124
10001998:	100001cd 	.word	0x100001cd
1000199c:	100047f8 	.word	0x100047f8
100019a0:	100049d0 	.word	0x100049d0
100019a4:	100047b8 	.word	0x100047b8

100019a8 <irq_remove_handler>:
100019a8:	b5f0      	push	{r4, r5, r6, r7, lr}
100019aa:	46ce      	mov	lr, r9
100019ac:	4647      	mov	r7, r8
100019ae:	b580      	push	{r7, lr}
100019b0:	b083      	sub	sp, #12
100019b2:	0006      	movs	r6, r0
100019b4:	000d      	movs	r5, r1
100019b6:	f3ef 8810 	mrs	r8, PRIMASK
100019ba:	b672      	cpsid	i
100019bc:	4b57      	ldr	r3, [pc, #348]	; (10001b1c <irq_remove_handler+0x174>)
100019be:	681b      	ldr	r3, [r3, #0]
100019c0:	2b00      	cmp	r3, #0
100019c2:	d0fb      	beq.n	100019bc <irq_remove_handler+0x14>
100019c4:	f3bf 8f5f 	dmb	sy
100019c8:	4b55      	ldr	r3, [pc, #340]	; (10001b20 <irq_remove_handler+0x178>)
100019ca:	689a      	ldr	r2, [r3, #8]
100019cc:	0034      	movs	r4, r6
100019ce:	3410      	adds	r4, #16
100019d0:	00a3      	lsls	r3, r4, #2
100019d2:	58d7      	ldr	r7, [r2, r3]
100019d4:	4b53      	ldr	r3, [pc, #332]	; (10001b24 <irq_remove_handler+0x17c>)
100019d6:	429f      	cmp	r7, r3
100019d8:	d007      	beq.n	100019ea <irq_remove_handler+0x42>
100019da:	42af      	cmp	r7, r5
100019dc:	d100      	bne.n	100019e0 <irq_remove_handler+0x38>
100019de:	e09b      	b.n	10001b18 <irq_remove_handler+0x170>
100019e0:	9701      	str	r7, [sp, #4]
100019e2:	4b51      	ldr	r3, [pc, #324]	; (10001b28 <irq_remove_handler+0x180>)
100019e4:	1afb      	subs	r3, r7, r3
100019e6:	2b2f      	cmp	r3, #47	; 0x2f
100019e8:	d909      	bls.n	100019fe <irq_remove_handler+0x56>
100019ea:	4642      	mov	r2, r8
100019ec:	0039      	movs	r1, r7
100019ee:	0030      	movs	r0, r6
100019f0:	f7ff ff36 	bl	10001860 <set_raw_irq_handler_and_unlock>
100019f4:	b003      	add	sp, #12
100019f6:	bcc0      	pop	{r6, r7}
100019f8:	46b9      	mov	r9, r7
100019fa:	46b0      	mov	r8, r6
100019fc:	bdf0      	pop	{r4, r5, r6, r7, pc}
100019fe:	0030      	movs	r0, r6
10001a00:	f7ff ff7c 	bl	100018fc <irq_is_enabled>
10001a04:	4681      	mov	r9, r0
10001a06:	2100      	movs	r1, #0
10001a08:	0030      	movs	r0, r6
10001a0a:	f7ff ff93 	bl	10001934 <irq_set_enabled>
10001a0e:	f3bf 8f5f 	dmb	sy
10001a12:	f7fe fc28 	bl	10000266 <__get_current_exception>
10001a16:	2800      	cmp	r0, #0
10001a18:	d001      	beq.n	10001a1e <irq_remove_handler+0x76>
10001a1a:	4284      	cmp	r4, r0
10001a1c:	d119      	bne.n	10001a52 <irq_remove_handler+0xaa>
10001a1e:	2301      	movs	r3, #1
10001a20:	9c01      	ldr	r4, [sp, #4]
10001a22:	439c      	bics	r4, r3
10001a24:	4941      	ldr	r1, [pc, #260]	; (10001b2c <irq_remove_handler+0x184>)
10001a26:	0023      	movs	r3, r4
10001a28:	4a3f      	ldr	r2, [pc, #252]	; (10001b28 <irq_remove_handler+0x180>)
10001a2a:	1a9b      	subs	r3, r3, r2
10001a2c:	415b      	adcs	r3, r3
10001a2e:	4359      	muls	r1, r3
10001a30:	0d09      	lsrs	r1, r1, #20
10001a32:	b249      	sxtb	r1, r1
10001a34:	2200      	movs	r2, #0
10001a36:	68a3      	ldr	r3, [r4, #8]
10001a38:	42ab      	cmp	r3, r5
10001a3a:	d012      	beq.n	10001a62 <irq_remove_handler+0xba>
10001a3c:	2206      	movs	r2, #6
10001a3e:	56a2      	ldrsb	r2, [r4, r2]
10001a40:	2a00      	cmp	r2, #0
10001a42:	db0d      	blt.n	10001a60 <irq_remove_handler+0xb8>
10001a44:	0053      	lsls	r3, r2, #1
10001a46:	189b      	adds	r3, r3, r2
10001a48:	009b      	lsls	r3, r3, #2
10001a4a:	0022      	movs	r2, r4
10001a4c:	4c36      	ldr	r4, [pc, #216]	; (10001b28 <irq_remove_handler+0x180>)
10001a4e:	18e4      	adds	r4, r4, r3
10001a50:	e7f1      	b.n	10001a36 <irq_remove_handler+0x8e>
10001a52:	211e      	movs	r1, #30
10001a54:	4b36      	ldr	r3, [pc, #216]	; (10001b30 <irq_remove_handler+0x188>)
10001a56:	4a37      	ldr	r2, [pc, #220]	; (10001b34 <irq_remove_handler+0x18c>)
10001a58:	31ff      	adds	r1, #255	; 0xff
10001a5a:	4837      	ldr	r0, [pc, #220]	; (10001b38 <irq_remove_handler+0x190>)
10001a5c:	f7ff fd4c 	bl	100014f8 <__assert_func>
10001a60:	0022      	movs	r2, r4
10001a62:	42ab      	cmp	r3, r5
10001a64:	d151      	bne.n	10001b0a <irq_remove_handler+0x162>
10001a66:	2506      	movs	r5, #6
10001a68:	5765      	ldrsb	r5, [r4, r5]
10001a6a:	2d00      	cmp	r5, #0
10001a6c:	db39      	blt.n	10001ae2 <irq_remove_handler+0x13a>
10001a6e:	006b      	lsls	r3, r5, #1
10001a70:	195b      	adds	r3, r3, r5
10001a72:	009a      	lsls	r2, r3, #2
10001a74:	4b2c      	ldr	r3, [pc, #176]	; (10001b28 <irq_remove_handler+0x180>)
10001a76:	189b      	adds	r3, r3, r2
10001a78:	689a      	ldr	r2, [r3, #8]
10001a7a:	60a2      	str	r2, [r4, #8]
10001a7c:	79da      	ldrb	r2, [r3, #7]
10001a7e:	71e2      	strb	r2, [r4, #7]
10001a80:	2206      	movs	r2, #6
10001a82:	569a      	ldrsb	r2, [r3, r2]
10001a84:	71a2      	strb	r2, [r4, #6]
10001a86:	799b      	ldrb	r3, [r3, #6]
10001a88:	b25b      	sxtb	r3, r3
10001a8a:	2b00      	cmp	r3, #0
10001a8c:	da10      	bge.n	10001ab0 <irq_remove_handler+0x108>
10001a8e:	20bd      	movs	r0, #189	; 0xbd
10001a90:	0200      	lsls	r0, r0, #8
10001a92:	80a0      	strh	r0, [r4, #4]
10001a94:	006b      	lsls	r3, r5, #1
10001a96:	195b      	adds	r3, r3, r5
10001a98:	009b      	lsls	r3, r3, #2
10001a9a:	4a23      	ldr	r2, [pc, #140]	; (10001b28 <irq_remove_handler+0x180>)
10001a9c:	18d3      	adds	r3, r2, r3
10001a9e:	4a27      	ldr	r2, [pc, #156]	; (10001b3c <irq_remove_handler+0x194>)
10001aa0:	7811      	ldrb	r1, [r2, #0]
10001aa2:	7199      	strb	r1, [r3, #6]
10001aa4:	7015      	strb	r5, [r2, #0]
10001aa6:	4649      	mov	r1, r9
10001aa8:	0030      	movs	r0, r6
10001aaa:	f7ff ff43 	bl	10001934 <irq_set_enabled>
10001aae:	e79c      	b.n	100019ea <irq_remove_handler+0x42>
10001ab0:	1d20      	adds	r0, r4, #4
10001ab2:	006b      	lsls	r3, r5, #1
10001ab4:	195b      	adds	r3, r3, r5
10001ab6:	009b      	lsls	r3, r3, #2
10001ab8:	4a1b      	ldr	r2, [pc, #108]	; (10001b28 <irq_remove_handler+0x180>)
10001aba:	189b      	adds	r3, r3, r2
10001abc:	1d1a      	adds	r2, r3, #4
10001abe:	889b      	ldrh	r3, [r3, #4]
10001ac0:	0ad9      	lsrs	r1, r3, #11
10001ac2:	291c      	cmp	r1, #28
10001ac4:	d107      	bne.n	10001ad6 <irq_remove_handler+0x12e>
10001ac6:	055b      	lsls	r3, r3, #21
10001ac8:	155b      	asrs	r3, r3, #21
10001aca:	3302      	adds	r3, #2
10001acc:	0059      	lsls	r1, r3, #1
10001ace:	1851      	adds	r1, r2, r1
10001ad0:	f7ff feda 	bl	10001888 <make_branch>
10001ad4:	e7dd      	b.n	10001a92 <irq_remove_handler+0xea>
10001ad6:	4b1a      	ldr	r3, [pc, #104]	; (10001b40 <irq_remove_handler+0x198>)
10001ad8:	4a1a      	ldr	r2, [pc, #104]	; (10001b44 <irq_remove_handler+0x19c>)
10001ada:	2199      	movs	r1, #153	; 0x99
10001adc:	4816      	ldr	r0, [pc, #88]	; (10001b38 <irq_remove_handler+0x190>)
10001ade:	f7ff fd0b 	bl	100014f8 <__assert_func>
10001ae2:	2800      	cmp	r0, #0
10001ae4:	d10c      	bne.n	10001b00 <irq_remove_handler+0x158>
10001ae6:	2a00      	cmp	r2, #0
10001ae8:	d008      	beq.n	10001afc <irq_remove_handler+0x154>
10001aea:	23ff      	movs	r3, #255	; 0xff
10001aec:	7193      	strb	r3, [r2, #6]
10001aee:	4b16      	ldr	r3, [pc, #88]	; (10001b48 <irq_remove_handler+0x1a0>)
10001af0:	8093      	strh	r3, [r2, #4]
10001af2:	4b12      	ldr	r3, [pc, #72]	; (10001b3c <irq_remove_handler+0x194>)
10001af4:	781a      	ldrb	r2, [r3, #0]
10001af6:	71a2      	strb	r2, [r4, #6]
10001af8:	7019      	strb	r1, [r3, #0]
10001afa:	e7d4      	b.n	10001aa6 <irq_remove_handler+0xfe>
10001afc:	4f09      	ldr	r7, [pc, #36]	; (10001b24 <irq_remove_handler+0x17c>)
10001afe:	e7f8      	b.n	10001af2 <irq_remove_handler+0x14a>
10001b00:	1d20      	adds	r0, r4, #4
10001b02:	4912      	ldr	r1, [pc, #72]	; (10001b4c <irq_remove_handler+0x1a4>)
10001b04:	f7ff feda 	bl	100018bc <insert_branch_and_link>
10001b08:	e7cd      	b.n	10001aa6 <irq_remove_handler+0xfe>
10001b0a:	21a9      	movs	r1, #169	; 0xa9
10001b0c:	4b10      	ldr	r3, [pc, #64]	; (10001b50 <irq_remove_handler+0x1a8>)
10001b0e:	4a09      	ldr	r2, [pc, #36]	; (10001b34 <irq_remove_handler+0x18c>)
10001b10:	0049      	lsls	r1, r1, #1
10001b12:	4809      	ldr	r0, [pc, #36]	; (10001b38 <irq_remove_handler+0x190>)
10001b14:	f7ff fcf0 	bl	100014f8 <__assert_func>
10001b18:	4f02      	ldr	r7, [pc, #8]	; (10001b24 <irq_remove_handler+0x17c>)
10001b1a:	e766      	b.n	100019ea <irq_remove_handler+0x42>
10001b1c:	d0000124 	.word	0xd0000124
10001b20:	e000ed00 	.word	0xe000ed00
10001b24:	100001cd 	.word	0x100001cd
10001b28:	200001dc 	.word	0x200001dc
10001b2c:	0000aaaa 	.word	0x0000aaaa
10001b30:	1000490c 	.word	0x1000490c
10001b34:	100049a0 	.word	0x100049a0
10001b38:	100047b8 	.word	0x100047b8
10001b3c:	20000635 	.word	0x20000635
10001b40:	100048f4 	.word	0x100048f4
10001b44:	100049c0 	.word	0x100049c0
10001b48:	ffffbd00 	.word	0xffffbd00
10001b4c:	20000216 	.word	0x20000216
10001b50:	10004930 	.word	0x10004930

10001b54 <irq_add_tail_to_free_list>:
10001b54:	b570      	push	{r4, r5, r6, lr}
10001b56:	0004      	movs	r4, r0
10001b58:	2601      	movs	r6, #1
10001b5a:	4306      	orrs	r6, r0
10001b5c:	4b2d      	ldr	r3, [pc, #180]	; (10001c14 <irq_add_tail_to_free_list+0xc0>)
10001b5e:	1af3      	subs	r3, r6, r3
10001b60:	2b2f      	cmp	r3, #47	; 0x2f
10001b62:	d828      	bhi.n	10001bb6 <irq_add_tail_to_free_list+0x62>
10001b64:	f7fe fb7f 	bl	10000266 <__get_current_exception>
10001b68:	2800      	cmp	r0, #0
10001b6a:	d02b      	beq.n	10001bc4 <irq_add_tail_to_free_list+0x70>
10001b6c:	f3ef 8c10 	mrs	ip, PRIMASK
10001b70:	b672      	cpsid	i
10001b72:	4b29      	ldr	r3, [pc, #164]	; (10001c18 <irq_add_tail_to_free_list+0xc4>)
10001b74:	681b      	ldr	r3, [r3, #0]
10001b76:	2b00      	cmp	r3, #0
10001b78:	d0fb      	beq.n	10001b72 <irq_add_tail_to_free_list+0x1e>
10001b7a:	f3bf 8f5f 	dmb	sy
10001b7e:	4d27      	ldr	r5, [pc, #156]	; (10001c1c <irq_add_tail_to_free_list+0xc8>)
10001b80:	0022      	movs	r2, r4
10001b82:	4924      	ldr	r1, [pc, #144]	; (10001c14 <irq_add_tail_to_free_list+0xc0>)
10001b84:	1a52      	subs	r2, r2, r1
10001b86:	4152      	adcs	r2, r2
10001b88:	4355      	muls	r5, r2
10001b8a:	0d2d      	lsrs	r5, r5, #20
10001b8c:	b26d      	sxtb	r5, r5
10001b8e:	4b24      	ldr	r3, [pc, #144]	; (10001c20 <irq_add_tail_to_free_list+0xcc>)
10001b90:	689b      	ldr	r3, [r3, #8]
10001b92:	0080      	lsls	r0, r0, #2
10001b94:	581b      	ldr	r3, [r3, r0]
10001b96:	42b3      	cmp	r3, r6
10001b98:	d01b      	beq.n	10001bd2 <irq_add_tail_to_free_list+0x7e>
10001b9a:	2200      	movs	r2, #0
10001b9c:	2a03      	cmp	r2, #3
10001b9e:	d832      	bhi.n	10001c06 <irq_add_tail_to_free_list+0xb2>
10001ba0:	0053      	lsls	r3, r2, #1
10001ba2:	189b      	adds	r3, r3, r2
10001ba4:	009b      	lsls	r3, r3, #2
10001ba6:	491b      	ldr	r1, [pc, #108]	; (10001c14 <irq_add_tail_to_free_list+0xc0>)
10001ba8:	18cb      	adds	r3, r1, r3
10001baa:	799b      	ldrb	r3, [r3, #6]
10001bac:	b25b      	sxtb	r3, r3
10001bae:	42ab      	cmp	r3, r5
10001bb0:	d01f      	beq.n	10001bf2 <irq_add_tail_to_free_list+0x9e>
10001bb2:	3201      	adds	r2, #1
10001bb4:	e7f2      	b.n	10001b9c <irq_add_tail_to_free_list+0x48>
10001bb6:	2178      	movs	r1, #120	; 0x78
10001bb8:	4b1a      	ldr	r3, [pc, #104]	; (10001c24 <irq_add_tail_to_free_list+0xd0>)
10001bba:	4a1b      	ldr	r2, [pc, #108]	; (10001c28 <irq_add_tail_to_free_list+0xd4>)
10001bbc:	31ff      	adds	r1, #255	; 0xff
10001bbe:	481b      	ldr	r0, [pc, #108]	; (10001c2c <irq_add_tail_to_free_list+0xd8>)
10001bc0:	f7ff fc9a 	bl	100014f8 <__assert_func>
10001bc4:	21bd      	movs	r1, #189	; 0xbd
10001bc6:	4b1a      	ldr	r3, [pc, #104]	; (10001c30 <irq_add_tail_to_free_list+0xdc>)
10001bc8:	4a17      	ldr	r2, [pc, #92]	; (10001c28 <irq_add_tail_to_free_list+0xd4>)
10001bca:	0049      	lsls	r1, r1, #1
10001bcc:	4817      	ldr	r0, [pc, #92]	; (10001c2c <irq_add_tail_to_free_list+0xd8>)
10001bce:	f7ff fc93 	bl	100014f8 <__assert_func>
10001bd2:	4b13      	ldr	r3, [pc, #76]	; (10001c20 <irq_add_tail_to_free_list+0xcc>)
10001bd4:	689b      	ldr	r3, [r3, #8]
10001bd6:	4a17      	ldr	r2, [pc, #92]	; (10001c34 <irq_add_tail_to_free_list+0xe0>)
10001bd8:	501a      	str	r2, [r3, r0]
10001bda:	4b17      	ldr	r3, [pc, #92]	; (10001c38 <irq_add_tail_to_free_list+0xe4>)
10001bdc:	781a      	ldrb	r2, [r3, #0]
10001bde:	71a2      	strb	r2, [r4, #6]
10001be0:	701d      	strb	r5, [r3, #0]
10001be2:	f3bf 8f5f 	dmb	sy
10001be6:	4b0c      	ldr	r3, [pc, #48]	; (10001c18 <irq_add_tail_to_free_list+0xc4>)
10001be8:	2200      	movs	r2, #0
10001bea:	601a      	str	r2, [r3, #0]
10001bec:	f38c 8810 	msr	PRIMASK, ip
10001bf0:	bd70      	pop	{r4, r5, r6, pc}
10001bf2:	0008      	movs	r0, r1
10001bf4:	0053      	lsls	r3, r2, #1
10001bf6:	1899      	adds	r1, r3, r2
10001bf8:	0089      	lsls	r1, r1, #2
10001bfa:	1841      	adds	r1, r0, r1
10001bfc:	26ff      	movs	r6, #255	; 0xff
10001bfe:	718e      	strb	r6, [r1, #6]
10001c00:	4a0e      	ldr	r2, [pc, #56]	; (10001c3c <irq_add_tail_to_free_list+0xe8>)
10001c02:	808a      	strh	r2, [r1, #4]
10001c04:	e7e9      	b.n	10001bda <irq_add_tail_to_free_list+0x86>
10001c06:	218c      	movs	r1, #140	; 0x8c
10001c08:	4b0d      	ldr	r3, [pc, #52]	; (10001c40 <irq_add_tail_to_free_list+0xec>)
10001c0a:	4a07      	ldr	r2, [pc, #28]	; (10001c28 <irq_add_tail_to_free_list+0xd4>)
10001c0c:	31ff      	adds	r1, #255	; 0xff
10001c0e:	4807      	ldr	r0, [pc, #28]	; (10001c2c <irq_add_tail_to_free_list+0xd8>)
10001c10:	f7ff fc72 	bl	100014f8 <__assert_func>
10001c14:	200001dc 	.word	0x200001dc
10001c18:	d0000124 	.word	0xd0000124
10001c1c:	0000aaaa 	.word	0x0000aaaa
10001c20:	e000ed00 	.word	0xe000ed00
10001c24:	10004938 	.word	0x10004938
10001c28:	1000496c 	.word	0x1000496c
10001c2c:	100047b8 	.word	0x100047b8
10001c30:	10004960 	.word	0x10004960
10001c34:	100001cd 	.word	0x100001cd
10001c38:	20000635 	.word	0x20000635
10001c3c:	ffffbd00 	.word	0xffffbd00
10001c40:	10004604 	.word	0x10004604

10001c44 <irq_init_priorities>:
10001c44:	2200      	movs	r2, #0
10001c46:	4b04      	ldr	r3, [pc, #16]	; (10001c58 <irq_init_priorities+0x14>)
10001c48:	e002      	b.n	10001c50 <irq_init_priorities+0xc>
10001c4a:	4904      	ldr	r1, [pc, #16]	; (10001c5c <irq_init_priorities+0x18>)
10001c4c:	c302      	stmia	r3!, {r1}
10001c4e:	3201      	adds	r2, #1
10001c50:	2a07      	cmp	r2, #7
10001c52:	d9fa      	bls.n	10001c4a <irq_init_priorities+0x6>
10001c54:	4770      	bx	lr
10001c56:	46c0      	nop			; (mov r8, r8)
10001c58:	e000e400 	.word	0xe000e400
10001c5c:	80808080 	.word	0x80808080

10001c60 <pll_init>:
10001c60:	b5f0      	push	{r4, r5, r6, r7, lr}
10001c62:	46ce      	mov	lr, r9
10001c64:	b500      	push	{lr}
10001c66:	0004      	movs	r4, r0
10001c68:	000e      	movs	r6, r1
10001c6a:	4691      	mov	r9, r2
10001c6c:	001f      	movs	r7, r3
10001c6e:	200c      	movs	r0, #12
10001c70:	f001 f99a 	bl	10002fa8 <__wrap___aeabi_uidiv>
10001c74:	0005      	movs	r5, r0
10001c76:	0143      	lsls	r3, r0, #5
10001c78:	1a1b      	subs	r3, r3, r0
10001c7a:	0199      	lsls	r1, r3, #6
10001c7c:	1ac9      	subs	r1, r1, r3
10001c7e:	00c9      	lsls	r1, r1, #3
10001c80:	1809      	adds	r1, r1, r0
10001c82:	0189      	lsls	r1, r1, #6
10001c84:	4648      	mov	r0, r9
10001c86:	f001 f98f 	bl	10002fa8 <__wrap___aeabi_uidiv>
10001c8a:	0002      	movs	r2, r0
10001c8c:	3a10      	subs	r2, #16
10001c8e:	2398      	movs	r3, #152	; 0x98
10001c90:	005b      	lsls	r3, r3, #1
10001c92:	429a      	cmp	r2, r3
10001c94:	d833      	bhi.n	10001cfe <pll_init+0x9e>
10001c96:	1e7b      	subs	r3, r7, #1
10001c98:	2b06      	cmp	r3, #6
10001c9a:	d836      	bhi.n	10001d0a <pll_init+0xaa>
10001c9c:	9b06      	ldr	r3, [sp, #24]
10001c9e:	3b01      	subs	r3, #1
10001ca0:	2b06      	cmp	r3, #6
10001ca2:	d832      	bhi.n	10001d0a <pll_init+0xaa>
10001ca4:	9b06      	ldr	r3, [sp, #24]
10001ca6:	429f      	cmp	r7, r3
10001ca8:	d335      	bcc.n	10001d16 <pll_init+0xb6>
10001caa:	464b      	mov	r3, r9
10001cac:	091a      	lsrs	r2, r3, #4
10001cae:	42aa      	cmp	r2, r5
10001cb0:	d337      	bcc.n	10001d22 <pll_init+0xc2>
10001cb2:	043f      	lsls	r7, r7, #16
10001cb4:	9b06      	ldr	r3, [sp, #24]
10001cb6:	031d      	lsls	r5, r3, #12
10001cb8:	432f      	orrs	r7, r5
10001cba:	6823      	ldr	r3, [r4, #0]
10001cbc:	2b00      	cmp	r3, #0
10001cbe:	db36      	blt.n	10001d2e <pll_init+0xce>
10001cc0:	4b23      	ldr	r3, [pc, #140]	; (10001d50 <pll_init+0xf0>)
10001cc2:	429c      	cmp	r4, r3
10001cc4:	d041      	beq.n	10001d4a <pll_init+0xea>
10001cc6:	2280      	movs	r2, #128	; 0x80
10001cc8:	0152      	lsls	r2, r2, #5
10001cca:	4b22      	ldr	r3, [pc, #136]	; (10001d54 <pll_init+0xf4>)
10001ccc:	601a      	str	r2, [r3, #0]
10001cce:	4b22      	ldr	r3, [pc, #136]	; (10001d58 <pll_init+0xf8>)
10001cd0:	601a      	str	r2, [r3, #0]
10001cd2:	4b22      	ldr	r3, [pc, #136]	; (10001d5c <pll_init+0xfc>)
10001cd4:	689b      	ldr	r3, [r3, #8]
10001cd6:	0011      	movs	r1, r2
10001cd8:	4399      	bics	r1, r3
10001cda:	d1fa      	bne.n	10001cd2 <pll_init+0x72>
10001cdc:	6026      	str	r6, [r4, #0]
10001cde:	60a0      	str	r0, [r4, #8]
10001ce0:	1d23      	adds	r3, r4, #4
10001ce2:	22c0      	movs	r2, #192	; 0xc0
10001ce4:	0192      	lsls	r2, r2, #6
10001ce6:	431a      	orrs	r2, r3
10001ce8:	2321      	movs	r3, #33	; 0x21
10001cea:	6013      	str	r3, [r2, #0]
10001cec:	6823      	ldr	r3, [r4, #0]
10001cee:	2b00      	cmp	r3, #0
10001cf0:	dafc      	bge.n	10001cec <pll_init+0x8c>
10001cf2:	60e7      	str	r7, [r4, #12]
10001cf4:	2308      	movs	r3, #8
10001cf6:	6013      	str	r3, [r2, #0]
10001cf8:	bc80      	pop	{r7}
10001cfa:	46b9      	mov	r9, r7
10001cfc:	bdf0      	pop	{r4, r5, r6, r7, pc}
10001cfe:	4b18      	ldr	r3, [pc, #96]	; (10001d60 <pll_init+0x100>)
10001d00:	4a18      	ldr	r2, [pc, #96]	; (10001d64 <pll_init+0x104>)
10001d02:	2116      	movs	r1, #22
10001d04:	4818      	ldr	r0, [pc, #96]	; (10001d68 <pll_init+0x108>)
10001d06:	f7ff fbf7 	bl	100014f8 <__assert_func>
10001d0a:	4b18      	ldr	r3, [pc, #96]	; (10001d6c <pll_init+0x10c>)
10001d0c:	4a15      	ldr	r2, [pc, #84]	; (10001d64 <pll_init+0x104>)
10001d0e:	2119      	movs	r1, #25
10001d10:	4815      	ldr	r0, [pc, #84]	; (10001d68 <pll_init+0x108>)
10001d12:	f7ff fbf1 	bl	100014f8 <__assert_func>
10001d16:	4b16      	ldr	r3, [pc, #88]	; (10001d70 <pll_init+0x110>)
10001d18:	4a12      	ldr	r2, [pc, #72]	; (10001d64 <pll_init+0x104>)
10001d1a:	211f      	movs	r1, #31
10001d1c:	4812      	ldr	r0, [pc, #72]	; (10001d68 <pll_init+0x108>)
10001d1e:	f7ff fbeb 	bl	100014f8 <__assert_func>
10001d22:	4b14      	ldr	r3, [pc, #80]	; (10001d74 <pll_init+0x114>)
10001d24:	4a0f      	ldr	r2, [pc, #60]	; (10001d64 <pll_init+0x104>)
10001d26:	2122      	movs	r1, #34	; 0x22
10001d28:	480f      	ldr	r0, [pc, #60]	; (10001d68 <pll_init+0x108>)
10001d2a:	f7ff fbe5 	bl	100014f8 <__assert_func>
10001d2e:	6822      	ldr	r2, [r4, #0]
10001d30:	233f      	movs	r3, #63	; 0x3f
10001d32:	4013      	ands	r3, r2
10001d34:	42b3      	cmp	r3, r6
10001d36:	d1c3      	bne.n	10001cc0 <pll_init+0x60>
10001d38:	68a3      	ldr	r3, [r4, #8]
10001d3a:	051b      	lsls	r3, r3, #20
10001d3c:	0d1b      	lsrs	r3, r3, #20
10001d3e:	4283      	cmp	r3, r0
10001d40:	d1be      	bne.n	10001cc0 <pll_init+0x60>
10001d42:	68e3      	ldr	r3, [r4, #12]
10001d44:	2f00      	cmp	r7, #0
10001d46:	d1bb      	bne.n	10001cc0 <pll_init+0x60>
10001d48:	e7d6      	b.n	10001cf8 <pll_init+0x98>
10001d4a:	2280      	movs	r2, #128	; 0x80
10001d4c:	0192      	lsls	r2, r2, #6
10001d4e:	e7bc      	b.n	10001cca <pll_init+0x6a>
10001d50:	4002c000 	.word	0x4002c000
10001d54:	4000e000 	.word	0x4000e000
10001d58:	4000f000 	.word	0x4000f000
10001d5c:	4000c000 	.word	0x4000c000
10001d60:	100049ec 	.word	0x100049ec
10001d64:	10004ac8 	.word	0x10004ac8
10001d68:	10004a08 	.word	0x10004a08
10001d6c:	10004a48 	.word	0x10004a48
10001d70:	10004a94 	.word	0x10004a94
10001d74:	10004aac 	.word	0x10004aac

10001d78 <watchdog_start_tick>:
10001d78:	2380      	movs	r3, #128	; 0x80
10001d7a:	009b      	lsls	r3, r3, #2
10001d7c:	4303      	orrs	r3, r0
10001d7e:	4a01      	ldr	r2, [pc, #4]	; (10001d84 <watchdog_start_tick+0xc>)
10001d80:	62d3      	str	r3, [r2, #44]	; 0x2c
10001d82:	4770      	bx	lr
10001d84:	40058000 	.word	0x40058000

10001d88 <xosc_init>:
10001d88:	4b06      	ldr	r3, [pc, #24]	; (10001da4 <xosc_init+0x1c>)
10001d8a:	22aa      	movs	r2, #170	; 0xaa
10001d8c:	0112      	lsls	r2, r2, #4
10001d8e:	601a      	str	r2, [r3, #0]
10001d90:	222f      	movs	r2, #47	; 0x2f
10001d92:	60da      	str	r2, [r3, #12]
10001d94:	4b04      	ldr	r3, [pc, #16]	; (10001da8 <xosc_init+0x20>)
10001d96:	4a05      	ldr	r2, [pc, #20]	; (10001dac <xosc_init+0x24>)
10001d98:	601a      	str	r2, [r3, #0]
10001d9a:	4b02      	ldr	r3, [pc, #8]	; (10001da4 <xosc_init+0x1c>)
10001d9c:	685b      	ldr	r3, [r3, #4]
10001d9e:	2b00      	cmp	r3, #0
10001da0:	dafb      	bge.n	10001d9a <xosc_init+0x12>
10001da2:	4770      	bx	lr
10001da4:	40024000 	.word	0x40024000
10001da8:	40026000 	.word	0x40026000
10001dac:	00fab000 	.word	0x00fab000

10001db0 <_out_null>:
10001db0:	4770      	bx	lr

10001db2 <_out_fct>:
10001db2:	b510      	push	{r4, lr}
10001db4:	2800      	cmp	r0, #0
10001db6:	d002      	beq.n	10001dbe <_out_fct+0xc>
10001db8:	680b      	ldr	r3, [r1, #0]
10001dba:	6849      	ldr	r1, [r1, #4]
10001dbc:	4798      	blx	r3
10001dbe:	bd10      	pop	{r4, pc}

10001dc0 <_atoi>:
10001dc0:	0001      	movs	r1, r0
10001dc2:	2000      	movs	r0, #0
10001dc4:	e007      	b.n	10001dd6 <_atoi+0x16>
10001dc6:	0083      	lsls	r3, r0, #2
10001dc8:	181b      	adds	r3, r3, r0
10001dca:	005b      	lsls	r3, r3, #1
10001dcc:	1c50      	adds	r0, r2, #1
10001dce:	6008      	str	r0, [r1, #0]
10001dd0:	7810      	ldrb	r0, [r2, #0]
10001dd2:	18c0      	adds	r0, r0, r3
10001dd4:	3830      	subs	r0, #48	; 0x30
10001dd6:	680a      	ldr	r2, [r1, #0]
10001dd8:	7813      	ldrb	r3, [r2, #0]
10001dda:	3b30      	subs	r3, #48	; 0x30
10001ddc:	b2db      	uxtb	r3, r3
10001dde:	2b09      	cmp	r3, #9
10001de0:	d9f1      	bls.n	10001dc6 <_atoi+0x6>
10001de2:	4770      	bx	lr

10001de4 <_out_rev>:
10001de4:	b5f0      	push	{r4, r5, r6, r7, lr}
10001de6:	46de      	mov	lr, fp
10001de8:	4657      	mov	r7, sl
10001dea:	464e      	mov	r6, r9
10001dec:	4645      	mov	r5, r8
10001dee:	b5e0      	push	{r5, r6, r7, lr}
10001df0:	b083      	sub	sp, #12
10001df2:	4693      	mov	fp, r2
10001df4:	001f      	movs	r7, r3
10001df6:	9b0c      	ldr	r3, [sp, #48]	; 0x30
10001df8:	469a      	mov	sl, r3
10001dfa:	9c0d      	ldr	r4, [sp, #52]	; 0x34
10001dfc:	9b0e      	ldr	r3, [sp, #56]	; 0x38
10001dfe:	4699      	mov	r9, r3
10001e00:	9b0f      	ldr	r3, [sp, #60]	; 0x3c
10001e02:	079b      	lsls	r3, r3, #30
10001e04:	d003      	beq.n	10001e0e <_out_rev+0x2a>
10001e06:	46b8      	mov	r8, r7
10001e08:	000f      	movs	r7, r1
10001e0a:	0006      	movs	r6, r0
10001e0c:	e022      	b.n	10001e54 <_out_rev+0x70>
10001e0e:	9201      	str	r2, [sp, #4]
10001e10:	46a3      	mov	fp, r4
10001e12:	4688      	mov	r8, r1
10001e14:	464e      	mov	r6, r9
10001e16:	46b9      	mov	r9, r7
10001e18:	0007      	movs	r7, r0
10001e1a:	42b4      	cmp	r4, r6
10001e1c:	d207      	bcs.n	10001e2e <_out_rev+0x4a>
10001e1e:	1c55      	adds	r5, r2, #1
10001e20:	464b      	mov	r3, r9
10001e22:	4641      	mov	r1, r8
10001e24:	2020      	movs	r0, #32
10001e26:	47b8      	blx	r7
10001e28:	3401      	adds	r4, #1
10001e2a:	002a      	movs	r2, r5
10001e2c:	e7f5      	b.n	10001e1a <_out_rev+0x36>
10001e2e:	003d      	movs	r5, r7
10001e30:	464f      	mov	r7, r9
10001e32:	465c      	mov	r4, fp
10001e34:	9b01      	ldr	r3, [sp, #4]
10001e36:	469b      	mov	fp, r3
10001e38:	46b1      	mov	r9, r6
10001e3a:	4646      	mov	r6, r8
10001e3c:	46b8      	mov	r8, r7
10001e3e:	0037      	movs	r7, r6
10001e40:	002e      	movs	r6, r5
10001e42:	e007      	b.n	10001e54 <_out_rev+0x70>
10001e44:	3c01      	subs	r4, #1
10001e46:	1c55      	adds	r5, r2, #1
10001e48:	4653      	mov	r3, sl
10001e4a:	5d18      	ldrb	r0, [r3, r4]
10001e4c:	4643      	mov	r3, r8
10001e4e:	0039      	movs	r1, r7
10001e50:	47b0      	blx	r6
10001e52:	002a      	movs	r2, r5
10001e54:	2c00      	cmp	r4, #0
10001e56:	d1f5      	bne.n	10001e44 <_out_rev+0x60>
10001e58:	0035      	movs	r5, r6
10001e5a:	003e      	movs	r6, r7
10001e5c:	4647      	mov	r7, r8
10001e5e:	9b0f      	ldr	r3, [sp, #60]	; 0x3c
10001e60:	079b      	lsls	r3, r3, #30
10001e62:	d407      	bmi.n	10001e74 <_out_rev+0x90>
10001e64:	0010      	movs	r0, r2
10001e66:	b003      	add	sp, #12
10001e68:	bcf0      	pop	{r4, r5, r6, r7}
10001e6a:	46bb      	mov	fp, r7
10001e6c:	46b2      	mov	sl, r6
10001e6e:	46a9      	mov	r9, r5
10001e70:	46a0      	mov	r8, r4
10001e72:	bdf0      	pop	{r4, r5, r6, r7, pc}
10001e74:	46b0      	mov	r8, r6
10001e76:	464e      	mov	r6, r9
10001e78:	46b9      	mov	r9, r7
10001e7a:	002f      	movs	r7, r5
10001e7c:	465d      	mov	r5, fp
10001e7e:	1b53      	subs	r3, r2, r5
10001e80:	42b3      	cmp	r3, r6
10001e82:	d2ef      	bcs.n	10001e64 <_out_rev+0x80>
10001e84:	1c54      	adds	r4, r2, #1
10001e86:	464b      	mov	r3, r9
10001e88:	4641      	mov	r1, r8
10001e8a:	2020      	movs	r0, #32
10001e8c:	47b8      	blx	r7
10001e8e:	0022      	movs	r2, r4
10001e90:	e7f5      	b.n	10001e7e <_out_rev+0x9a>

10001e92 <_ntoa_format>:
10001e92:	b5f0      	push	{r4, r5, r6, r7, lr}
10001e94:	46ce      	mov	lr, r9
10001e96:	4647      	mov	r7, r8
10001e98:	b580      	push	{r7, lr}
10001e9a:	b085      	sub	sp, #20
10001e9c:	4694      	mov	ip, r2
10001e9e:	4698      	mov	r8, r3
10001ea0:	9d0c      	ldr	r5, [sp, #48]	; 0x30
10001ea2:	9c0d      	ldr	r4, [sp, #52]	; 0x34
10001ea4:	ab0e      	add	r3, sp, #56	; 0x38
10001ea6:	781b      	ldrb	r3, [r3, #0]
10001ea8:	4699      	mov	r9, r3
10001eaa:	9a10      	ldr	r2, [sp, #64]	; 0x40
10001eac:	9b11      	ldr	r3, [sp, #68]	; 0x44
10001eae:	9e12      	ldr	r6, [sp, #72]	; 0x48
10001eb0:	07b7      	lsls	r7, r6, #30
10001eb2:	d41c      	bmi.n	10001eee <_ntoa_format+0x5c>
10001eb4:	2b00      	cmp	r3, #0
10001eb6:	d00c      	beq.n	10001ed2 <_ntoa_format+0x40>
10001eb8:	07f7      	lsls	r7, r6, #31
10001eba:	d50a      	bpl.n	10001ed2 <_ntoa_format+0x40>
10001ebc:	464f      	mov	r7, r9
10001ebe:	2f00      	cmp	r7, #0
10001ec0:	d102      	bne.n	10001ec8 <_ntoa_format+0x36>
10001ec2:	370c      	adds	r7, #12
10001ec4:	4237      	tst	r7, r6
10001ec6:	d004      	beq.n	10001ed2 <_ntoa_format+0x40>
10001ec8:	3b01      	subs	r3, #1
10001eca:	e002      	b.n	10001ed2 <_ntoa_format+0x40>
10001ecc:	2730      	movs	r7, #48	; 0x30
10001ece:	552f      	strb	r7, [r5, r4]
10001ed0:	3401      	adds	r4, #1
10001ed2:	4294      	cmp	r4, r2
10001ed4:	d201      	bcs.n	10001eda <_ntoa_format+0x48>
10001ed6:	2c1f      	cmp	r4, #31
10001ed8:	d9f8      	bls.n	10001ecc <_ntoa_format+0x3a>
10001eda:	07f7      	lsls	r7, r6, #31
10001edc:	d507      	bpl.n	10001eee <_ntoa_format+0x5c>
10001ede:	429c      	cmp	r4, r3
10001ee0:	d205      	bcs.n	10001eee <_ntoa_format+0x5c>
10001ee2:	2c1f      	cmp	r4, #31
10001ee4:	d803      	bhi.n	10001eee <_ntoa_format+0x5c>
10001ee6:	2730      	movs	r7, #48	; 0x30
10001ee8:	552f      	strb	r7, [r5, r4]
10001eea:	3401      	adds	r4, #1
10001eec:	e7f5      	b.n	10001eda <_ntoa_format+0x48>
10001eee:	06f7      	lsls	r7, r6, #27
10001ef0:	d515      	bpl.n	10001f1e <_ntoa_format+0x8c>
10001ef2:	0577      	lsls	r7, r6, #21
10001ef4:	d405      	bmi.n	10001f02 <_ntoa_format+0x70>
10001ef6:	2c00      	cmp	r4, #0
10001ef8:	d003      	beq.n	10001f02 <_ntoa_format+0x70>
10001efa:	4294      	cmp	r4, r2
10001efc:	d024      	beq.n	10001f48 <_ntoa_format+0xb6>
10001efe:	429c      	cmp	r4, r3
10001f00:	d022      	beq.n	10001f48 <_ntoa_format+0xb6>
10001f02:	9a0f      	ldr	r2, [sp, #60]	; 0x3c
10001f04:	2a10      	cmp	r2, #16
10001f06:	d02b      	beq.n	10001f60 <_ntoa_format+0xce>
10001f08:	9a0f      	ldr	r2, [sp, #60]	; 0x3c
10001f0a:	2a10      	cmp	r2, #16
10001f0c:	d030      	beq.n	10001f70 <_ntoa_format+0xde>
10001f0e:	9a0f      	ldr	r2, [sp, #60]	; 0x3c
10001f10:	2a02      	cmp	r2, #2
10001f12:	d035      	beq.n	10001f80 <_ntoa_format+0xee>
10001f14:	2c1f      	cmp	r4, #31
10001f16:	d802      	bhi.n	10001f1e <_ntoa_format+0x8c>
10001f18:	2230      	movs	r2, #48	; 0x30
10001f1a:	552a      	strb	r2, [r5, r4]
10001f1c:	3401      	adds	r4, #1
10001f1e:	2c1f      	cmp	r4, #31
10001f20:	d805      	bhi.n	10001f2e <_ntoa_format+0x9c>
10001f22:	464a      	mov	r2, r9
10001f24:	2a00      	cmp	r2, #0
10001f26:	d031      	beq.n	10001f8c <_ntoa_format+0xfa>
10001f28:	222d      	movs	r2, #45	; 0x2d
10001f2a:	552a      	strb	r2, [r5, r4]
10001f2c:	3401      	adds	r4, #1
10001f2e:	9603      	str	r6, [sp, #12]
10001f30:	9302      	str	r3, [sp, #8]
10001f32:	9401      	str	r4, [sp, #4]
10001f34:	9500      	str	r5, [sp, #0]
10001f36:	4643      	mov	r3, r8
10001f38:	4662      	mov	r2, ip
10001f3a:	f7ff ff53 	bl	10001de4 <_out_rev>
10001f3e:	b005      	add	sp, #20
10001f40:	bcc0      	pop	{r6, r7}
10001f42:	46b9      	mov	r9, r7
10001f44:	46b0      	mov	r8, r6
10001f46:	bdf0      	pop	{r4, r5, r6, r7, pc}
10001f48:	1e62      	subs	r2, r4, #1
10001f4a:	2c01      	cmp	r4, #1
10001f4c:	d006      	beq.n	10001f5c <_ntoa_format+0xca>
10001f4e:	9f0f      	ldr	r7, [sp, #60]	; 0x3c
10001f50:	2f10      	cmp	r7, #16
10001f52:	d001      	beq.n	10001f58 <_ntoa_format+0xc6>
10001f54:	0014      	movs	r4, r2
10001f56:	e7d4      	b.n	10001f02 <_ntoa_format+0x70>
10001f58:	3c02      	subs	r4, #2
10001f5a:	e7d2      	b.n	10001f02 <_ntoa_format+0x70>
10001f5c:	0014      	movs	r4, r2
10001f5e:	e7d0      	b.n	10001f02 <_ntoa_format+0x70>
10001f60:	06b2      	lsls	r2, r6, #26
10001f62:	d4d1      	bmi.n	10001f08 <_ntoa_format+0x76>
10001f64:	2c1f      	cmp	r4, #31
10001f66:	d8cf      	bhi.n	10001f08 <_ntoa_format+0x76>
10001f68:	2278      	movs	r2, #120	; 0x78
10001f6a:	552a      	strb	r2, [r5, r4]
10001f6c:	3401      	adds	r4, #1
10001f6e:	e7d1      	b.n	10001f14 <_ntoa_format+0x82>
10001f70:	06b2      	lsls	r2, r6, #26
10001f72:	d5cc      	bpl.n	10001f0e <_ntoa_format+0x7c>
10001f74:	2c1f      	cmp	r4, #31
10001f76:	d8ca      	bhi.n	10001f0e <_ntoa_format+0x7c>
10001f78:	2258      	movs	r2, #88	; 0x58
10001f7a:	552a      	strb	r2, [r5, r4]
10001f7c:	3401      	adds	r4, #1
10001f7e:	e7c9      	b.n	10001f14 <_ntoa_format+0x82>
10001f80:	2c1f      	cmp	r4, #31
10001f82:	d8c7      	bhi.n	10001f14 <_ntoa_format+0x82>
10001f84:	3260      	adds	r2, #96	; 0x60
10001f86:	552a      	strb	r2, [r5, r4]
10001f88:	3401      	adds	r4, #1
10001f8a:	e7c3      	b.n	10001f14 <_ntoa_format+0x82>
10001f8c:	0772      	lsls	r2, r6, #29
10001f8e:	d503      	bpl.n	10001f98 <_ntoa_format+0x106>
10001f90:	222b      	movs	r2, #43	; 0x2b
10001f92:	552a      	strb	r2, [r5, r4]
10001f94:	3401      	adds	r4, #1
10001f96:	e7ca      	b.n	10001f2e <_ntoa_format+0x9c>
10001f98:	0732      	lsls	r2, r6, #28
10001f9a:	d5c8      	bpl.n	10001f2e <_ntoa_format+0x9c>
10001f9c:	2220      	movs	r2, #32
10001f9e:	552a      	strb	r2, [r5, r4]
10001fa0:	3401      	adds	r4, #1
10001fa2:	e7c4      	b.n	10001f2e <_ntoa_format+0x9c>

10001fa4 <_ntoa_long>:
10001fa4:	b5f0      	push	{r4, r5, r6, r7, lr}
10001fa6:	46de      	mov	lr, fp
10001fa8:	4657      	mov	r7, sl
10001faa:	464e      	mov	r6, r9
10001fac:	4645      	mov	r5, r8
10001fae:	b5e0      	push	{r5, r6, r7, lr}
10001fb0:	b093      	sub	sp, #76	; 0x4c
10001fb2:	4681      	mov	r9, r0
10001fb4:	468a      	mov	sl, r1
10001fb6:	9208      	str	r2, [sp, #32]
10001fb8:	9309      	str	r3, [sp, #36]	; 0x24
10001fba:	ab1c      	add	r3, sp, #112	; 0x70
10001fbc:	cb10      	ldmia	r3!, {r4}
10001fbe:	781b      	ldrb	r3, [r3, #0]
10001fc0:	469b      	mov	fp, r3
10001fc2:	9d1e      	ldr	r5, [sp, #120]	; 0x78
10001fc4:	9b21      	ldr	r3, [sp, #132]	; 0x84
10001fc6:	4698      	mov	r8, r3
10001fc8:	2c00      	cmp	r4, #0
10001fca:	d103      	bne.n	10001fd4 <_ntoa_long+0x30>
10001fcc:	2310      	movs	r3, #16
10001fce:	4642      	mov	r2, r8
10001fd0:	439a      	bics	r2, r3
10001fd2:	4690      	mov	r8, r2
10001fd4:	2380      	movs	r3, #128	; 0x80
10001fd6:	00db      	lsls	r3, r3, #3
10001fd8:	4646      	mov	r6, r8
10001fda:	401e      	ands	r6, r3
10001fdc:	4642      	mov	r2, r8
10001fde:	421a      	tst	r2, r3
10001fe0:	d012      	beq.n	10002008 <_ntoa_long+0x64>
10001fe2:	2c00      	cmp	r4, #0
10001fe4:	d022      	beq.n	1000202c <_ntoa_long+0x88>
10001fe6:	2600      	movs	r6, #0
10001fe8:	e00e      	b.n	10002008 <_ntoa_long+0x64>
10001fea:	3330      	adds	r3, #48	; 0x30
10001fec:	b2d9      	uxtb	r1, r3
10001fee:	1c77      	adds	r7, r6, #1
10001ff0:	ab0a      	add	r3, sp, #40	; 0x28
10001ff2:	5599      	strb	r1, [r3, r6]
10001ff4:	0029      	movs	r1, r5
10001ff6:	0020      	movs	r0, r4
10001ff8:	f000 ffd6 	bl	10002fa8 <__wrap___aeabi_uidiv>
10001ffc:	42ac      	cmp	r4, r5
10001ffe:	d316      	bcc.n	1000202e <_ntoa_long+0x8a>
10002000:	2f1f      	cmp	r7, #31
10002002:	d814      	bhi.n	1000202e <_ntoa_long+0x8a>
10002004:	003e      	movs	r6, r7
10002006:	0004      	movs	r4, r0
10002008:	0029      	movs	r1, r5
1000200a:	0020      	movs	r0, r4
1000200c:	f000 ffcc 	bl	10002fa8 <__wrap___aeabi_uidiv>
10002010:	b2cb      	uxtb	r3, r1
10002012:	2b09      	cmp	r3, #9
10002014:	d9e9      	bls.n	10001fea <_ntoa_long+0x46>
10002016:	4642      	mov	r2, r8
10002018:	0692      	lsls	r2, r2, #26
1000201a:	d505      	bpl.n	10002028 <_ntoa_long+0x84>
1000201c:	2141      	movs	r1, #65	; 0x41
1000201e:	18c9      	adds	r1, r1, r3
10002020:	b2c9      	uxtb	r1, r1
10002022:	390a      	subs	r1, #10
10002024:	b2c9      	uxtb	r1, r1
10002026:	e7e2      	b.n	10001fee <_ntoa_long+0x4a>
10002028:	2161      	movs	r1, #97	; 0x61
1000202a:	e7f8      	b.n	1000201e <_ntoa_long+0x7a>
1000202c:	0027      	movs	r7, r4
1000202e:	4643      	mov	r3, r8
10002030:	9306      	str	r3, [sp, #24]
10002032:	9b20      	ldr	r3, [sp, #128]	; 0x80
10002034:	9305      	str	r3, [sp, #20]
10002036:	9b1f      	ldr	r3, [sp, #124]	; 0x7c
10002038:	9304      	str	r3, [sp, #16]
1000203a:	9503      	str	r5, [sp, #12]
1000203c:	465b      	mov	r3, fp
1000203e:	9302      	str	r3, [sp, #8]
10002040:	9701      	str	r7, [sp, #4]
10002042:	ab0a      	add	r3, sp, #40	; 0x28
10002044:	9300      	str	r3, [sp, #0]
10002046:	9b09      	ldr	r3, [sp, #36]	; 0x24
10002048:	9a08      	ldr	r2, [sp, #32]
1000204a:	4651      	mov	r1, sl
1000204c:	4648      	mov	r0, r9
1000204e:	f7ff ff20 	bl	10001e92 <_ntoa_format>
10002052:	b013      	add	sp, #76	; 0x4c
10002054:	bcf0      	pop	{r4, r5, r6, r7}
10002056:	46bb      	mov	fp, r7
10002058:	46b2      	mov	sl, r6
1000205a:	46a9      	mov	r9, r5
1000205c:	46a0      	mov	r8, r4
1000205e:	bdf0      	pop	{r4, r5, r6, r7, pc}

10002060 <_ntoa_long_long>:
10002060:	b5f0      	push	{r4, r5, r6, r7, lr}
10002062:	46de      	mov	lr, fp
10002064:	4657      	mov	r7, sl
10002066:	464e      	mov	r6, r9
10002068:	4645      	mov	r5, r8
1000206a:	b5e0      	push	{r5, r6, r7, lr}
1000206c:	b095      	sub	sp, #84	; 0x54
1000206e:	9008      	str	r0, [sp, #32]
10002070:	9109      	str	r1, [sp, #36]	; 0x24
10002072:	920a      	str	r2, [sp, #40]	; 0x28
10002074:	930b      	str	r3, [sp, #44]	; 0x2c
10002076:	9e1e      	ldr	r6, [sp, #120]	; 0x78
10002078:	9c1f      	ldr	r4, [sp, #124]	; 0x7c
1000207a:	ab20      	add	r3, sp, #128	; 0x80
1000207c:	781b      	ldrb	r3, [r3, #0]
1000207e:	469b      	mov	fp, r3
10002080:	9b22      	ldr	r3, [sp, #136]	; 0x88
10002082:	4699      	mov	r9, r3
10002084:	9d23      	ldr	r5, [sp, #140]	; 0x8c
10002086:	9b26      	ldr	r3, [sp, #152]	; 0x98
10002088:	469a      	mov	sl, r3
1000208a:	0033      	movs	r3, r6
1000208c:	4323      	orrs	r3, r4
1000208e:	d103      	bne.n	10002098 <_ntoa_long_long+0x38>
10002090:	3310      	adds	r3, #16
10002092:	4652      	mov	r2, sl
10002094:	439a      	bics	r2, r3
10002096:	4692      	mov	sl, r2
10002098:	2380      	movs	r3, #128	; 0x80
1000209a:	00db      	lsls	r3, r3, #3
1000209c:	4657      	mov	r7, sl
1000209e:	401f      	ands	r7, r3
100020a0:	4652      	mov	r2, sl
100020a2:	421a      	tst	r2, r3
100020a4:	d019      	beq.n	100020da <_ntoa_long_long+0x7a>
100020a6:	0033      	movs	r3, r6
100020a8:	4323      	orrs	r3, r4
100020aa:	d02d      	beq.n	10002108 <_ntoa_long_long+0xa8>
100020ac:	2700      	movs	r7, #0
100020ae:	e014      	b.n	100020da <_ntoa_long_long+0x7a>
100020b0:	3330      	adds	r3, #48	; 0x30
100020b2:	b2da      	uxtb	r2, r3
100020b4:	1c7b      	adds	r3, r7, #1
100020b6:	4698      	mov	r8, r3
100020b8:	ab0c      	add	r3, sp, #48	; 0x30
100020ba:	55da      	strb	r2, [r3, r7]
100020bc:	464a      	mov	r2, r9
100020be:	002b      	movs	r3, r5
100020c0:	0030      	movs	r0, r6
100020c2:	0021      	movs	r1, r4
100020c4:	f000 ffb2 	bl	1000302c <__wrap___aeabi_uldivmod>
100020c8:	42a5      	cmp	r5, r4
100020ca:	d81f      	bhi.n	1000210c <_ntoa_long_long+0xac>
100020cc:	d019      	beq.n	10002102 <_ntoa_long_long+0xa2>
100020ce:	4643      	mov	r3, r8
100020d0:	2b1f      	cmp	r3, #31
100020d2:	d81b      	bhi.n	1000210c <_ntoa_long_long+0xac>
100020d4:	4647      	mov	r7, r8
100020d6:	0006      	movs	r6, r0
100020d8:	000c      	movs	r4, r1
100020da:	464a      	mov	r2, r9
100020dc:	002b      	movs	r3, r5
100020de:	0030      	movs	r0, r6
100020e0:	0021      	movs	r1, r4
100020e2:	f000 ffa3 	bl	1000302c <__wrap___aeabi_uldivmod>
100020e6:	b2d3      	uxtb	r3, r2
100020e8:	2b09      	cmp	r3, #9
100020ea:	d9e1      	bls.n	100020b0 <_ntoa_long_long+0x50>
100020ec:	4652      	mov	r2, sl
100020ee:	0692      	lsls	r2, r2, #26
100020f0:	d505      	bpl.n	100020fe <_ntoa_long_long+0x9e>
100020f2:	2241      	movs	r2, #65	; 0x41
100020f4:	18d2      	adds	r2, r2, r3
100020f6:	b2d2      	uxtb	r2, r2
100020f8:	3a0a      	subs	r2, #10
100020fa:	b2d2      	uxtb	r2, r2
100020fc:	e7da      	b.n	100020b4 <_ntoa_long_long+0x54>
100020fe:	2261      	movs	r2, #97	; 0x61
10002100:	e7f8      	b.n	100020f4 <_ntoa_long_long+0x94>
10002102:	45b1      	cmp	r9, r6
10002104:	d9e3      	bls.n	100020ce <_ntoa_long_long+0x6e>
10002106:	e001      	b.n	1000210c <_ntoa_long_long+0xac>
10002108:	2300      	movs	r3, #0
1000210a:	4698      	mov	r8, r3
1000210c:	4653      	mov	r3, sl
1000210e:	9306      	str	r3, [sp, #24]
10002110:	9b25      	ldr	r3, [sp, #148]	; 0x94
10002112:	9305      	str	r3, [sp, #20]
10002114:	9b24      	ldr	r3, [sp, #144]	; 0x90
10002116:	9304      	str	r3, [sp, #16]
10002118:	464b      	mov	r3, r9
1000211a:	9303      	str	r3, [sp, #12]
1000211c:	465b      	mov	r3, fp
1000211e:	9302      	str	r3, [sp, #8]
10002120:	4643      	mov	r3, r8
10002122:	9301      	str	r3, [sp, #4]
10002124:	ab0c      	add	r3, sp, #48	; 0x30
10002126:	9300      	str	r3, [sp, #0]
10002128:	9b0b      	ldr	r3, [sp, #44]	; 0x2c
1000212a:	9a0a      	ldr	r2, [sp, #40]	; 0x28
1000212c:	9909      	ldr	r1, [sp, #36]	; 0x24
1000212e:	9808      	ldr	r0, [sp, #32]
10002130:	f7ff feaf 	bl	10001e92 <_ntoa_format>
10002134:	b015      	add	sp, #84	; 0x54
10002136:	bcf0      	pop	{r4, r5, r6, r7}
10002138:	46bb      	mov	fp, r7
1000213a:	46b2      	mov	sl, r6
1000213c:	46a9      	mov	r9, r5
1000213e:	46a0      	mov	r8, r4
10002140:	bdf0      	pop	{r4, r5, r6, r7, pc}
	...

10002144 <_etoa>:
10002144:	b5f0      	push	{r4, r5, r6, r7, lr}
10002146:	46de      	mov	lr, fp
10002148:	4657      	mov	r7, sl
1000214a:	464e      	mov	r6, r9
1000214c:	4645      	mov	r5, r8
1000214e:	b5e0      	push	{r5, r6, r7, lr}
10002150:	b091      	sub	sp, #68	; 0x44
10002152:	4683      	mov	fp, r0
10002154:	468a      	mov	sl, r1
10002156:	920c      	str	r2, [sp, #48]	; 0x30
10002158:	4698      	mov	r8, r3
1000215a:	9c1a      	ldr	r4, [sp, #104]	; 0x68
1000215c:	9408      	str	r4, [sp, #32]
1000215e:	9d1b      	ldr	r5, [sp, #108]	; 0x6c
10002160:	9509      	str	r5, [sp, #36]	; 0x24
10002162:	0022      	movs	r2, r4
10002164:	002b      	movs	r3, r5
10002166:	0020      	movs	r0, r4
10002168:	0029      	movs	r1, r5
1000216a:	f001 f9ee 	bl	1000354a <__wrap___aeabi_dcmpun>
1000216e:	2800      	cmp	r0, #0
10002170:	d000      	beq.n	10002174 <_etoa+0x30>
10002172:	e0e5      	b.n	10002340 <_etoa+0x1fc>
10002174:	2201      	movs	r2, #1
10002176:	4252      	negs	r2, r2
10002178:	4bd7      	ldr	r3, [pc, #860]	; (100024d8 <_etoa+0x394>)
1000217a:	0020      	movs	r0, r4
1000217c:	0029      	movs	r1, r5
1000217e:	f001 f9df 	bl	10003540 <__wrap___aeabi_dcmpgt>
10002182:	2800      	cmp	r0, #0
10002184:	d000      	beq.n	10002188 <_etoa+0x44>
10002186:	e0db      	b.n	10002340 <_etoa+0x1fc>
10002188:	2201      	movs	r2, #1
1000218a:	4252      	negs	r2, r2
1000218c:	4bd3      	ldr	r3, [pc, #844]	; (100024dc <_etoa+0x398>)
1000218e:	0020      	movs	r0, r4
10002190:	0029      	movs	r1, r5
10002192:	f001 f9bf 	bl	10003514 <__wrap___aeabi_dcmplt>
10002196:	2800      	cmp	r0, #0
10002198:	d000      	beq.n	1000219c <_etoa+0x58>
1000219a:	e0d1      	b.n	10002340 <_etoa+0x1fc>
1000219c:	2200      	movs	r2, #0
1000219e:	2300      	movs	r3, #0
100021a0:	9e08      	ldr	r6, [sp, #32]
100021a2:	0030      	movs	r0, r6
100021a4:	9d09      	ldr	r5, [sp, #36]	; 0x24
100021a6:	0029      	movs	r1, r5
100021a8:	f001 f9b4 	bl	10003514 <__wrap___aeabi_dcmplt>
100021ac:	2800      	cmp	r0, #0
100021ae:	d000      	beq.n	100021b2 <_etoa+0x6e>
100021b0:	e0dd      	b.n	1000236e <_etoa+0x22a>
100021b2:	9808      	ldr	r0, [sp, #32]
100021b4:	9909      	ldr	r1, [sp, #36]	; 0x24
100021b6:	9006      	str	r0, [sp, #24]
100021b8:	9107      	str	r1, [sp, #28]
100021ba:	2380      	movs	r3, #128	; 0x80
100021bc:	00db      	lsls	r3, r3, #3
100021be:	9a1e      	ldr	r2, [sp, #120]	; 0x78
100021c0:	401a      	ands	r2, r3
100021c2:	920d      	str	r2, [sp, #52]	; 0x34
100021c4:	9a1e      	ldr	r2, [sp, #120]	; 0x78
100021c6:	421a      	tst	r2, r3
100021c8:	d101      	bne.n	100021ce <_etoa+0x8a>
100021ca:	2306      	movs	r3, #6
100021cc:	931c      	str	r3, [sp, #112]	; 0x70
100021ce:	9806      	ldr	r0, [sp, #24]
100021d0:	9907      	ldr	r1, [sp, #28]
100021d2:	0004      	movs	r4, r0
100021d4:	000d      	movs	r5, r1
100021d6:	000a      	movs	r2, r1
100021d8:	0006      	movs	r6, r0
100021da:	4302      	orrs	r2, r0
100021dc:	d100      	bne.n	100021e0 <_etoa+0x9c>
100021de:	e0d1      	b.n	10002384 <_etoa+0x240>
100021e0:	0d08      	lsrs	r0, r1, #20
100021e2:	0540      	lsls	r0, r0, #21
100021e4:	0d40      	lsrs	r0, r0, #21
100021e6:	4cbe      	ldr	r4, [pc, #760]	; (100024e0 <_etoa+0x39c>)
100021e8:	46a4      	mov	ip, r4
100021ea:	4460      	add	r0, ip
100021ec:	030a      	lsls	r2, r1, #12
100021ee:	0b12      	lsrs	r2, r2, #12
100021f0:	4bbc      	ldr	r3, [pc, #752]	; (100024e4 <_etoa+0x3a0>)
100021f2:	4313      	orrs	r3, r2
100021f4:	001f      	movs	r7, r3
100021f6:	f001 f9bb 	bl	10003570 <__wrap___aeabi_i2d>
100021fa:	4abb      	ldr	r2, [pc, #748]	; (100024e8 <_etoa+0x3a4>)
100021fc:	4bbb      	ldr	r3, [pc, #748]	; (100024ec <_etoa+0x3a8>)
100021fe:	f001 f946 	bl	1000348e <__wrap___aeabi_dmul>
10002202:	4abb      	ldr	r2, [pc, #748]	; (100024f0 <_etoa+0x3ac>)
10002204:	4bbb      	ldr	r3, [pc, #748]	; (100024f4 <_etoa+0x3b0>)
10002206:	f001 f91b 	bl	10003440 <__wrap___aeabi_dadd>
1000220a:	0004      	movs	r4, r0
1000220c:	000d      	movs	r5, r1
1000220e:	2200      	movs	r2, #0
10002210:	4bb9      	ldr	r3, [pc, #740]	; (100024f8 <_etoa+0x3b4>)
10002212:	0030      	movs	r0, r6
10002214:	0039      	movs	r1, r7
10002216:	f001 f90a 	bl	1000342e <__wrap___aeabi_dsub>
1000221a:	4ab8      	ldr	r2, [pc, #736]	; (100024fc <_etoa+0x3b8>)
1000221c:	4bb8      	ldr	r3, [pc, #736]	; (10002500 <_etoa+0x3bc>)
1000221e:	f001 f936 	bl	1000348e <__wrap___aeabi_dmul>
10002222:	0002      	movs	r2, r0
10002224:	000b      	movs	r3, r1
10002226:	0020      	movs	r0, r4
10002228:	0029      	movs	r1, r5
1000222a:	f001 f909 	bl	10003440 <__wrap___aeabi_dadd>
1000222e:	f001 f9b7 	bl	100035a0 <__wrap___aeabi_d2iz>
10002232:	4681      	mov	r9, r0
10002234:	f001 f99c 	bl	10003570 <__wrap___aeabi_i2d>
10002238:	0004      	movs	r4, r0
1000223a:	000d      	movs	r5, r1
1000223c:	4ab1      	ldr	r2, [pc, #708]	; (10002504 <_etoa+0x3c0>)
1000223e:	4bb2      	ldr	r3, [pc, #712]	; (10002508 <_etoa+0x3c4>)
10002240:	f001 f925 	bl	1000348e <__wrap___aeabi_dmul>
10002244:	2200      	movs	r2, #0
10002246:	4bb1      	ldr	r3, [pc, #708]	; (1000250c <_etoa+0x3c8>)
10002248:	f001 f8fa 	bl	10003440 <__wrap___aeabi_dadd>
1000224c:	f001 f9a8 	bl	100035a0 <__wrap___aeabi_d2iz>
10002250:	0006      	movs	r6, r0
10002252:	4aaf      	ldr	r2, [pc, #700]	; (10002510 <_etoa+0x3cc>)
10002254:	4baf      	ldr	r3, [pc, #700]	; (10002514 <_etoa+0x3d0>)
10002256:	0020      	movs	r0, r4
10002258:	0029      	movs	r1, r5
1000225a:	f001 f918 	bl	1000348e <__wrap___aeabi_dmul>
1000225e:	0004      	movs	r4, r0
10002260:	000d      	movs	r5, r1
10002262:	0030      	movs	r0, r6
10002264:	f001 f984 	bl	10003570 <__wrap___aeabi_i2d>
10002268:	4aab      	ldr	r2, [pc, #684]	; (10002518 <_etoa+0x3d4>)
1000226a:	4bac      	ldr	r3, [pc, #688]	; (1000251c <_etoa+0x3d8>)
1000226c:	f001 f90f 	bl	1000348e <__wrap___aeabi_dmul>
10002270:	0002      	movs	r2, r0
10002272:	000b      	movs	r3, r1
10002274:	0020      	movs	r0, r4
10002276:	0029      	movs	r1, r5
10002278:	f001 f8d9 	bl	1000342e <__wrap___aeabi_dsub>
1000227c:	0004      	movs	r4, r0
1000227e:	000d      	movs	r5, r1
10002280:	0002      	movs	r2, r0
10002282:	000b      	movs	r3, r1
10002284:	f001 f903 	bl	1000348e <__wrap___aeabi_dmul>
10002288:	900a      	str	r0, [sp, #40]	; 0x28
1000228a:	910b      	str	r1, [sp, #44]	; 0x2c
1000228c:	4ba4      	ldr	r3, [pc, #656]	; (10002520 <_etoa+0x3dc>)
1000228e:	18f3      	adds	r3, r6, r3
10002290:	2600      	movs	r6, #0
10002292:	051f      	lsls	r7, r3, #20
10002294:	0022      	movs	r2, r4
10002296:	002b      	movs	r3, r5
10002298:	0020      	movs	r0, r4
1000229a:	0029      	movs	r1, r5
1000229c:	f001 f8d0 	bl	10003440 <__wrap___aeabi_dadd>
100022a0:	900e      	str	r0, [sp, #56]	; 0x38
100022a2:	910f      	str	r1, [sp, #60]	; 0x3c
100022a4:	0022      	movs	r2, r4
100022a6:	002b      	movs	r3, r5
100022a8:	2000      	movs	r0, #0
100022aa:	2180      	movs	r1, #128	; 0x80
100022ac:	05c9      	lsls	r1, r1, #23
100022ae:	f001 f8be 	bl	1000342e <__wrap___aeabi_dsub>
100022b2:	0004      	movs	r4, r0
100022b4:	000d      	movs	r5, r1
100022b6:	2200      	movs	r2, #0
100022b8:	4b9a      	ldr	r3, [pc, #616]	; (10002524 <_etoa+0x3e0>)
100022ba:	980a      	ldr	r0, [sp, #40]	; 0x28
100022bc:	990b      	ldr	r1, [sp, #44]	; 0x2c
100022be:	f001 f8c8 	bl	10003452 <__wrap___aeabi_ddiv>
100022c2:	2200      	movs	r2, #0
100022c4:	4b98      	ldr	r3, [pc, #608]	; (10002528 <_etoa+0x3e4>)
100022c6:	f001 f8bb 	bl	10003440 <__wrap___aeabi_dadd>
100022ca:	0002      	movs	r2, r0
100022cc:	000b      	movs	r3, r1
100022ce:	980a      	ldr	r0, [sp, #40]	; 0x28
100022d0:	990b      	ldr	r1, [sp, #44]	; 0x2c
100022d2:	f001 f8be 	bl	10003452 <__wrap___aeabi_ddiv>
100022d6:	2200      	movs	r2, #0
100022d8:	4b94      	ldr	r3, [pc, #592]	; (1000252c <_etoa+0x3e8>)
100022da:	f001 f8b1 	bl	10003440 <__wrap___aeabi_dadd>
100022de:	0002      	movs	r2, r0
100022e0:	000b      	movs	r3, r1
100022e2:	980a      	ldr	r0, [sp, #40]	; 0x28
100022e4:	990b      	ldr	r1, [sp, #44]	; 0x2c
100022e6:	f001 f8b4 	bl	10003452 <__wrap___aeabi_ddiv>
100022ea:	0002      	movs	r2, r0
100022ec:	000b      	movs	r3, r1
100022ee:	0020      	movs	r0, r4
100022f0:	0029      	movs	r1, r5
100022f2:	f001 f8a5 	bl	10003440 <__wrap___aeabi_dadd>
100022f6:	0002      	movs	r2, r0
100022f8:	000b      	movs	r3, r1
100022fa:	980e      	ldr	r0, [sp, #56]	; 0x38
100022fc:	990f      	ldr	r1, [sp, #60]	; 0x3c
100022fe:	f001 f8a8 	bl	10003452 <__wrap___aeabi_ddiv>
10002302:	2200      	movs	r2, #0
10002304:	4b77      	ldr	r3, [pc, #476]	; (100024e4 <_etoa+0x3a0>)
10002306:	f001 f89b 	bl	10003440 <__wrap___aeabi_dadd>
1000230a:	0032      	movs	r2, r6
1000230c:	003b      	movs	r3, r7
1000230e:	f001 f8be 	bl	1000348e <__wrap___aeabi_dmul>
10002312:	0006      	movs	r6, r0
10002314:	000f      	movs	r7, r1
10002316:	0004      	movs	r4, r0
10002318:	000d      	movs	r5, r1
1000231a:	9a06      	ldr	r2, [sp, #24]
1000231c:	9b07      	ldr	r3, [sp, #28]
1000231e:	f001 f90f 	bl	10003540 <__wrap___aeabi_dcmpgt>
10002322:	2800      	cmp	r0, #0
10002324:	d030      	beq.n	10002388 <_etoa+0x244>
10002326:	2301      	movs	r3, #1
10002328:	425b      	negs	r3, r3
1000232a:	469c      	mov	ip, r3
1000232c:	44e1      	add	r9, ip
1000232e:	2200      	movs	r2, #0
10002330:	4b7d      	ldr	r3, [pc, #500]	; (10002528 <_etoa+0x3e4>)
10002332:	0030      	movs	r0, r6
10002334:	0039      	movs	r1, r7
10002336:	f001 f88c 	bl	10003452 <__wrap___aeabi_ddiv>
1000233a:	0004      	movs	r4, r0
1000233c:	000d      	movs	r5, r1
1000233e:	e023      	b.n	10002388 <_etoa+0x244>
10002340:	9b1e      	ldr	r3, [sp, #120]	; 0x78
10002342:	9304      	str	r3, [sp, #16]
10002344:	9b1d      	ldr	r3, [sp, #116]	; 0x74
10002346:	9303      	str	r3, [sp, #12]
10002348:	9b1c      	ldr	r3, [sp, #112]	; 0x70
1000234a:	9302      	str	r3, [sp, #8]
1000234c:	9a08      	ldr	r2, [sp, #32]
1000234e:	9b09      	ldr	r3, [sp, #36]	; 0x24
10002350:	9200      	str	r2, [sp, #0]
10002352:	9301      	str	r3, [sp, #4]
10002354:	4643      	mov	r3, r8
10002356:	9a0c      	ldr	r2, [sp, #48]	; 0x30
10002358:	4651      	mov	r1, sl
1000235a:	4658      	mov	r0, fp
1000235c:	f000 f8fc 	bl	10002558 <_ftoa>
10002360:	b011      	add	sp, #68	; 0x44
10002362:	bcf0      	pop	{r4, r5, r6, r7}
10002364:	46bb      	mov	fp, r7
10002366:	46b2      	mov	sl, r6
10002368:	46a9      	mov	r9, r5
1000236a:	46a0      	mov	r8, r4
1000236c:	bdf0      	pop	{r4, r5, r6, r7, pc}
1000236e:	2300      	movs	r3, #0
10002370:	2400      	movs	r4, #0
10002372:	9306      	str	r3, [sp, #24]
10002374:	9407      	str	r4, [sp, #28]
10002376:	9606      	str	r6, [sp, #24]
10002378:	2380      	movs	r3, #128	; 0x80
1000237a:	061b      	lsls	r3, r3, #24
1000237c:	469c      	mov	ip, r3
1000237e:	4465      	add	r5, ip
10002380:	9507      	str	r5, [sp, #28]
10002382:	e71a      	b.n	100021ba <_etoa+0x76>
10002384:	2300      	movs	r3, #0
10002386:	4699      	mov	r9, r3
10002388:	464b      	mov	r3, r9
1000238a:	3363      	adds	r3, #99	; 0x63
1000238c:	2bc6      	cmp	r3, #198	; 0xc6
1000238e:	d81e      	bhi.n	100023ce <_etoa+0x28a>
10002390:	2604      	movs	r6, #4
10002392:	9b1e      	ldr	r3, [sp, #120]	; 0x78
10002394:	051b      	lsls	r3, r3, #20
10002396:	d526      	bpl.n	100023e6 <_etoa+0x2a2>
10002398:	002b      	movs	r3, r5
1000239a:	4323      	orrs	r3, r4
1000239c:	d00f      	beq.n	100023be <_etoa+0x27a>
1000239e:	4a64      	ldr	r2, [pc, #400]	; (10002530 <_etoa+0x3ec>)
100023a0:	4b64      	ldr	r3, [pc, #400]	; (10002534 <_etoa+0x3f0>)
100023a2:	9806      	ldr	r0, [sp, #24]
100023a4:	9907      	ldr	r1, [sp, #28]
100023a6:	f001 f8c3 	bl	10003530 <__wrap___aeabi_dcmpge>
100023aa:	2800      	cmp	r0, #0
100023ac:	d079      	beq.n	100024a2 <_etoa+0x35e>
100023ae:	2200      	movs	r2, #0
100023b0:	4b61      	ldr	r3, [pc, #388]	; (10002538 <_etoa+0x3f4>)
100023b2:	9806      	ldr	r0, [sp, #24]
100023b4:	9907      	ldr	r1, [sp, #28]
100023b6:	f001 f8ad 	bl	10003514 <__wrap___aeabi_dcmplt>
100023ba:	2800      	cmp	r0, #0
100023bc:	d071      	beq.n	100024a2 <_etoa+0x35e>
100023be:	9b1c      	ldr	r3, [sp, #112]	; 0x70
100023c0:	454b      	cmp	r3, r9
100023c2:	dd06      	ble.n	100023d2 <_etoa+0x28e>
100023c4:	464a      	mov	r2, r9
100023c6:	1a98      	subs	r0, r3, r2
100023c8:	1e43      	subs	r3, r0, #1
100023ca:	931c      	str	r3, [sp, #112]	; 0x70
100023cc:	e003      	b.n	100023d6 <_etoa+0x292>
100023ce:	2605      	movs	r6, #5
100023d0:	e7df      	b.n	10002392 <_etoa+0x24e>
100023d2:	2300      	movs	r3, #0
100023d4:	931c      	str	r3, [sp, #112]	; 0x70
100023d6:	2380      	movs	r3, #128	; 0x80
100023d8:	00db      	lsls	r3, r3, #3
100023da:	9a1e      	ldr	r2, [sp, #120]	; 0x78
100023dc:	431a      	orrs	r2, r3
100023de:	921e      	str	r2, [sp, #120]	; 0x78
100023e0:	2600      	movs	r6, #0
100023e2:	2300      	movs	r3, #0
100023e4:	4699      	mov	r9, r3
100023e6:	9b1d      	ldr	r3, [sp, #116]	; 0x74
100023e8:	429e      	cmp	r6, r3
100023ea:	d264      	bcs.n	100024b6 <_etoa+0x372>
100023ec:	1b9f      	subs	r7, r3, r6
100023ee:	2302      	movs	r3, #2
100023f0:	9a1e      	ldr	r2, [sp, #120]	; 0x78
100023f2:	401a      	ands	r2, r3
100023f4:	920a      	str	r2, [sp, #40]	; 0x28
100023f6:	9a1e      	ldr	r2, [sp, #120]	; 0x78
100023f8:	4213      	tst	r3, r2
100023fa:	d002      	beq.n	10002402 <_etoa+0x2be>
100023fc:	2e00      	cmp	r6, #0
100023fe:	d000      	beq.n	10002402 <_etoa+0x2be>
10002400:	2700      	movs	r7, #0
10002402:	464b      	mov	r3, r9
10002404:	2b00      	cmp	r3, #0
10002406:	d007      	beq.n	10002418 <_etoa+0x2d4>
10002408:	0022      	movs	r2, r4
1000240a:	002b      	movs	r3, r5
1000240c:	9806      	ldr	r0, [sp, #24]
1000240e:	9907      	ldr	r1, [sp, #28]
10002410:	f001 f81f 	bl	10003452 <__wrap___aeabi_ddiv>
10002414:	9006      	str	r0, [sp, #24]
10002416:	9107      	str	r1, [sp, #28]
10002418:	2200      	movs	r2, #0
1000241a:	2300      	movs	r3, #0
1000241c:	9808      	ldr	r0, [sp, #32]
1000241e:	9909      	ldr	r1, [sp, #36]	; 0x24
10002420:	f001 f878 	bl	10003514 <__wrap___aeabi_dcmplt>
10002424:	2800      	cmp	r0, #0
10002426:	d148      	bne.n	100024ba <_etoa+0x376>
10002428:	4b44      	ldr	r3, [pc, #272]	; (1000253c <_etoa+0x3f8>)
1000242a:	9a1e      	ldr	r2, [sp, #120]	; 0x78
1000242c:	4013      	ands	r3, r2
1000242e:	9304      	str	r3, [sp, #16]
10002430:	9703      	str	r7, [sp, #12]
10002432:	9b1c      	ldr	r3, [sp, #112]	; 0x70
10002434:	9302      	str	r3, [sp, #8]
10002436:	9b06      	ldr	r3, [sp, #24]
10002438:	9c07      	ldr	r4, [sp, #28]
1000243a:	9300      	str	r3, [sp, #0]
1000243c:	9401      	str	r4, [sp, #4]
1000243e:	4643      	mov	r3, r8
10002440:	9a0c      	ldr	r2, [sp, #48]	; 0x30
10002442:	4651      	mov	r1, sl
10002444:	4658      	mov	r0, fp
10002446:	f000 f887 	bl	10002558 <_ftoa>
1000244a:	2e00      	cmp	r6, #0
1000244c:	d100      	bne.n	10002450 <_etoa+0x30c>
1000244e:	e787      	b.n	10002360 <_etoa+0x21c>
10002450:	9b1e      	ldr	r3, [sp, #120]	; 0x78
10002452:	069b      	lsls	r3, r3, #26
10002454:	d53d      	bpl.n	100024d2 <_etoa+0x38e>
10002456:	2545      	movs	r5, #69	; 0x45
10002458:	1c44      	adds	r4, r0, #1
1000245a:	4643      	mov	r3, r8
1000245c:	0002      	movs	r2, r0
1000245e:	4651      	mov	r1, sl
10002460:	0028      	movs	r0, r5
10002462:	47d8      	blx	fp
10002464:	464b      	mov	r3, r9
10002466:	17da      	asrs	r2, r3, #31
10002468:	189b      	adds	r3, r3, r2
1000246a:	4053      	eors	r3, r2
1000246c:	2205      	movs	r2, #5
1000246e:	9205      	str	r2, [sp, #20]
10002470:	3e01      	subs	r6, #1
10002472:	9604      	str	r6, [sp, #16]
10002474:	2200      	movs	r2, #0
10002476:	9203      	str	r2, [sp, #12]
10002478:	320a      	adds	r2, #10
1000247a:	9202      	str	r2, [sp, #8]
1000247c:	464a      	mov	r2, r9
1000247e:	0fd0      	lsrs	r0, r2, #31
10002480:	9001      	str	r0, [sp, #4]
10002482:	9300      	str	r3, [sp, #0]
10002484:	4643      	mov	r3, r8
10002486:	0022      	movs	r2, r4
10002488:	4651      	mov	r1, sl
1000248a:	4658      	mov	r0, fp
1000248c:	f7ff fd8a 	bl	10001fa4 <_ntoa_long>
10002490:	9b0a      	ldr	r3, [sp, #40]	; 0x28
10002492:	2b00      	cmp	r3, #0
10002494:	d100      	bne.n	10002498 <_etoa+0x354>
10002496:	e763      	b.n	10002360 <_etoa+0x21c>
10002498:	0002      	movs	r2, r0
1000249a:	465f      	mov	r7, fp
1000249c:	9e0c      	ldr	r6, [sp, #48]	; 0x30
1000249e:	9d1d      	ldr	r5, [sp, #116]	; 0x74
100024a0:	e054      	b.n	1000254c <_etoa+0x408>
100024a2:	9b1c      	ldr	r3, [sp, #112]	; 0x70
100024a4:	2b00      	cmp	r3, #0
100024a6:	d09e      	beq.n	100023e6 <_etoa+0x2a2>
100024a8:	9b0d      	ldr	r3, [sp, #52]	; 0x34
100024aa:	2b00      	cmp	r3, #0
100024ac:	d09b      	beq.n	100023e6 <_etoa+0x2a2>
100024ae:	9b1c      	ldr	r3, [sp, #112]	; 0x70
100024b0:	3b01      	subs	r3, #1
100024b2:	931c      	str	r3, [sp, #112]	; 0x70
100024b4:	e797      	b.n	100023e6 <_etoa+0x2a2>
100024b6:	2700      	movs	r7, #0
100024b8:	e799      	b.n	100023ee <_etoa+0x2aa>
100024ba:	9c06      	ldr	r4, [sp, #24]
100024bc:	9d07      	ldr	r5, [sp, #28]
100024be:	0022      	movs	r2, r4
100024c0:	0029      	movs	r1, r5
100024c2:	2080      	movs	r0, #128	; 0x80
100024c4:	0600      	lsls	r0, r0, #24
100024c6:	4684      	mov	ip, r0
100024c8:	4461      	add	r1, ip
100024ca:	000b      	movs	r3, r1
100024cc:	9206      	str	r2, [sp, #24]
100024ce:	9307      	str	r3, [sp, #28]
100024d0:	e7aa      	b.n	10002428 <_etoa+0x2e4>
100024d2:	2565      	movs	r5, #101	; 0x65
100024d4:	e7c0      	b.n	10002458 <_etoa+0x314>
100024d6:	46c0      	nop			; (mov r8, r8)
100024d8:	7fefffff 	.word	0x7fefffff
100024dc:	ffefffff 	.word	0xffefffff
100024e0:	fffffc01 	.word	0xfffffc01
100024e4:	3ff00000 	.word	0x3ff00000
100024e8:	509f79fb 	.word	0x509f79fb
100024ec:	3fd34413 	.word	0x3fd34413
100024f0:	8b60c8b3 	.word	0x8b60c8b3
100024f4:	3fc68a28 	.word	0x3fc68a28
100024f8:	3ff80000 	.word	0x3ff80000
100024fc:	636f4361 	.word	0x636f4361
10002500:	3fd287a7 	.word	0x3fd287a7
10002504:	0979a371 	.word	0x0979a371
10002508:	400a934f 	.word	0x400a934f
1000250c:	3fe00000 	.word	0x3fe00000
10002510:	bbb55516 	.word	0xbbb55516
10002514:	40026bb1 	.word	0x40026bb1
10002518:	fefa39ef 	.word	0xfefa39ef
1000251c:	3fe62e42 	.word	0x3fe62e42
10002520:	000003ff 	.word	0x000003ff
10002524:	402c0000 	.word	0x402c0000
10002528:	40240000 	.word	0x40240000
1000252c:	40180000 	.word	0x40180000
10002530:	eb1c432d 	.word	0xeb1c432d
10002534:	3f1a36e2 	.word	0x3f1a36e2
10002538:	412e8480 	.word	0x412e8480
1000253c:	fffff7ff 	.word	0xfffff7ff
10002540:	1c54      	adds	r4, r2, #1
10002542:	4643      	mov	r3, r8
10002544:	4651      	mov	r1, sl
10002546:	2020      	movs	r0, #32
10002548:	47b8      	blx	r7
1000254a:	0022      	movs	r2, r4
1000254c:	1b93      	subs	r3, r2, r6
1000254e:	42ab      	cmp	r3, r5
10002550:	d3f6      	bcc.n	10002540 <_etoa+0x3fc>
10002552:	0010      	movs	r0, r2
10002554:	e704      	b.n	10002360 <_etoa+0x21c>
10002556:	46c0      	nop			; (mov r8, r8)

10002558 <_ftoa>:
10002558:	b5f0      	push	{r4, r5, r6, r7, lr}
1000255a:	46de      	mov	lr, fp
1000255c:	4657      	mov	r7, sl
1000255e:	464e      	mov	r6, r9
10002560:	4645      	mov	r5, r8
10002562:	b5e0      	push	{r5, r6, r7, lr}
10002564:	b095      	sub	sp, #84	; 0x54
10002566:	9006      	str	r0, [sp, #24]
10002568:	9107      	str	r1, [sp, #28]
1000256a:	4693      	mov	fp, r2
1000256c:	4699      	mov	r9, r3
1000256e:	9f20      	ldr	r7, [sp, #128]	; 0x80
10002570:	9a1e      	ldr	r2, [sp, #120]	; 0x78
10002572:	9b1f      	ldr	r3, [sp, #124]	; 0x7c
10002574:	0010      	movs	r0, r2
10002576:	0019      	movs	r1, r3
10002578:	f000 ffe7 	bl	1000354a <__wrap___aeabi_dcmpun>
1000257c:	2800      	cmp	r0, #0
1000257e:	d131      	bne.n	100025e4 <_ftoa+0x8c>
10002580:	2201      	movs	r2, #1
10002582:	4252      	negs	r2, r2
10002584:	4bbf      	ldr	r3, [pc, #764]	; (10002884 <_ftoa+0x32c>)
10002586:	981e      	ldr	r0, [sp, #120]	; 0x78
10002588:	991f      	ldr	r1, [sp, #124]	; 0x7c
1000258a:	f000 ffc3 	bl	10003514 <__wrap___aeabi_dcmplt>
1000258e:	2800      	cmp	r0, #0
10002590:	d137      	bne.n	10002602 <_ftoa+0xaa>
10002592:	2201      	movs	r2, #1
10002594:	4252      	negs	r2, r2
10002596:	4bbc      	ldr	r3, [pc, #752]	; (10002888 <_ftoa+0x330>)
10002598:	981e      	ldr	r0, [sp, #120]	; 0x78
1000259a:	991f      	ldr	r1, [sp, #124]	; 0x7c
1000259c:	f000 ffd0 	bl	10003540 <__wrap___aeabi_dcmpgt>
100025a0:	2800      	cmp	r0, #0
100025a2:	d13d      	bne.n	10002620 <_ftoa+0xc8>
100025a4:	2200      	movs	r2, #0
100025a6:	4bb9      	ldr	r3, [pc, #740]	; (1000288c <_ftoa+0x334>)
100025a8:	981e      	ldr	r0, [sp, #120]	; 0x78
100025aa:	991f      	ldr	r1, [sp, #124]	; 0x7c
100025ac:	f000 ffc8 	bl	10003540 <__wrap___aeabi_dcmpgt>
100025b0:	2800      	cmp	r0, #0
100025b2:	d150      	bne.n	10002656 <_ftoa+0xfe>
100025b4:	2200      	movs	r2, #0
100025b6:	4bb6      	ldr	r3, [pc, #728]	; (10002890 <_ftoa+0x338>)
100025b8:	981e      	ldr	r0, [sp, #120]	; 0x78
100025ba:	991f      	ldr	r1, [sp, #124]	; 0x7c
100025bc:	f000 ffaa 	bl	10003514 <__wrap___aeabi_dcmplt>
100025c0:	2800      	cmp	r0, #0
100025c2:	d148      	bne.n	10002656 <_ftoa+0xfe>
100025c4:	2200      	movs	r2, #0
100025c6:	2300      	movs	r3, #0
100025c8:	981e      	ldr	r0, [sp, #120]	; 0x78
100025ca:	991f      	ldr	r1, [sp, #124]	; 0x7c
100025cc:	f000 ffa2 	bl	10003514 <__wrap___aeabi_dcmplt>
100025d0:	2800      	cmp	r0, #0
100025d2:	d150      	bne.n	10002676 <_ftoa+0x11e>
100025d4:	2300      	movs	r3, #0
100025d6:	4698      	mov	r8, r3
100025d8:	9b22      	ldr	r3, [sp, #136]	; 0x88
100025da:	055b      	lsls	r3, r3, #21
100025dc:	d400      	bmi.n	100025e0 <_ftoa+0x88>
100025de:	e0b6      	b.n	1000274e <_ftoa+0x1f6>
100025e0:	2400      	movs	r4, #0
100025e2:	e058      	b.n	10002696 <_ftoa+0x13e>
100025e4:	9b22      	ldr	r3, [sp, #136]	; 0x88
100025e6:	9303      	str	r3, [sp, #12]
100025e8:	9b21      	ldr	r3, [sp, #132]	; 0x84
100025ea:	9302      	str	r3, [sp, #8]
100025ec:	2303      	movs	r3, #3
100025ee:	9301      	str	r3, [sp, #4]
100025f0:	4ba8      	ldr	r3, [pc, #672]	; (10002894 <_ftoa+0x33c>)
100025f2:	9300      	str	r3, [sp, #0]
100025f4:	464b      	mov	r3, r9
100025f6:	465a      	mov	r2, fp
100025f8:	9907      	ldr	r1, [sp, #28]
100025fa:	9806      	ldr	r0, [sp, #24]
100025fc:	f7ff fbf2 	bl	10001de4 <_out_rev>
10002600:	e10e      	b.n	10002820 <_ftoa+0x2c8>
10002602:	9b22      	ldr	r3, [sp, #136]	; 0x88
10002604:	9303      	str	r3, [sp, #12]
10002606:	9b21      	ldr	r3, [sp, #132]	; 0x84
10002608:	9302      	str	r3, [sp, #8]
1000260a:	2304      	movs	r3, #4
1000260c:	9301      	str	r3, [sp, #4]
1000260e:	4ba2      	ldr	r3, [pc, #648]	; (10002898 <_ftoa+0x340>)
10002610:	9300      	str	r3, [sp, #0]
10002612:	464b      	mov	r3, r9
10002614:	465a      	mov	r2, fp
10002616:	9907      	ldr	r1, [sp, #28]
10002618:	9806      	ldr	r0, [sp, #24]
1000261a:	f7ff fbe3 	bl	10001de4 <_out_rev>
1000261e:	e0ff      	b.n	10002820 <_ftoa+0x2c8>
10002620:	2304      	movs	r3, #4
10002622:	9a22      	ldr	r2, [sp, #136]	; 0x88
10002624:	401a      	ands	r2, r3
10002626:	9922      	ldr	r1, [sp, #136]	; 0x88
10002628:	420b      	tst	r3, r1
1000262a:	d010      	beq.n	1000264e <_ftoa+0xf6>
1000262c:	4b9b      	ldr	r3, [pc, #620]	; (1000289c <_ftoa+0x344>)
1000262e:	2a00      	cmp	r2, #0
10002630:	d00f      	beq.n	10002652 <_ftoa+0xfa>
10002632:	2204      	movs	r2, #4
10002634:	9922      	ldr	r1, [sp, #136]	; 0x88
10002636:	9103      	str	r1, [sp, #12]
10002638:	9921      	ldr	r1, [sp, #132]	; 0x84
1000263a:	9102      	str	r1, [sp, #8]
1000263c:	9201      	str	r2, [sp, #4]
1000263e:	9300      	str	r3, [sp, #0]
10002640:	464b      	mov	r3, r9
10002642:	465a      	mov	r2, fp
10002644:	9907      	ldr	r1, [sp, #28]
10002646:	9806      	ldr	r0, [sp, #24]
10002648:	f7ff fbcc 	bl	10001de4 <_out_rev>
1000264c:	e0e8      	b.n	10002820 <_ftoa+0x2c8>
1000264e:	4b94      	ldr	r3, [pc, #592]	; (100028a0 <_ftoa+0x348>)
10002650:	e7ed      	b.n	1000262e <_ftoa+0xd6>
10002652:	2203      	movs	r2, #3
10002654:	e7ee      	b.n	10002634 <_ftoa+0xdc>
10002656:	9b22      	ldr	r3, [sp, #136]	; 0x88
10002658:	9304      	str	r3, [sp, #16]
1000265a:	9b21      	ldr	r3, [sp, #132]	; 0x84
1000265c:	9303      	str	r3, [sp, #12]
1000265e:	9702      	str	r7, [sp, #8]
10002660:	9b1e      	ldr	r3, [sp, #120]	; 0x78
10002662:	9c1f      	ldr	r4, [sp, #124]	; 0x7c
10002664:	9300      	str	r3, [sp, #0]
10002666:	9401      	str	r4, [sp, #4]
10002668:	464b      	mov	r3, r9
1000266a:	465a      	mov	r2, fp
1000266c:	9907      	ldr	r1, [sp, #28]
1000266e:	9806      	ldr	r0, [sp, #24]
10002670:	f7ff fd68 	bl	10002144 <_etoa>
10002674:	e0d4      	b.n	10002820 <_ftoa+0x2c8>
10002676:	9a1e      	ldr	r2, [sp, #120]	; 0x78
10002678:	9b1f      	ldr	r3, [sp, #124]	; 0x7c
1000267a:	2000      	movs	r0, #0
1000267c:	2100      	movs	r1, #0
1000267e:	f000 fed6 	bl	1000342e <__wrap___aeabi_dsub>
10002682:	901e      	str	r0, [sp, #120]	; 0x78
10002684:	911f      	str	r1, [sp, #124]	; 0x7c
10002686:	2301      	movs	r3, #1
10002688:	4698      	mov	r8, r3
1000268a:	e7a5      	b.n	100025d8 <_ftoa+0x80>
1000268c:	ab0c      	add	r3, sp, #48	; 0x30
1000268e:	2230      	movs	r2, #48	; 0x30
10002690:	551a      	strb	r2, [r3, r4]
10002692:	3f01      	subs	r7, #1
10002694:	3401      	adds	r4, #1
10002696:	2c1f      	cmp	r4, #31
10002698:	d801      	bhi.n	1000269e <_ftoa+0x146>
1000269a:	2f09      	cmp	r7, #9
1000269c:	d8f6      	bhi.n	1000268c <_ftoa+0x134>
1000269e:	981e      	ldr	r0, [sp, #120]	; 0x78
100026a0:	991f      	ldr	r1, [sp, #124]	; 0x7c
100026a2:	f000 ff7d 	bl	100035a0 <__wrap___aeabi_d2iz>
100026a6:	0005      	movs	r5, r0
100026a8:	f000 ff62 	bl	10003570 <__wrap___aeabi_i2d>
100026ac:	0002      	movs	r2, r0
100026ae:	000b      	movs	r3, r1
100026b0:	981e      	ldr	r0, [sp, #120]	; 0x78
100026b2:	991f      	ldr	r1, [sp, #124]	; 0x7c
100026b4:	f000 febb 	bl	1000342e <__wrap___aeabi_dsub>
100026b8:	00fa      	lsls	r2, r7, #3
100026ba:	4b7a      	ldr	r3, [pc, #488]	; (100028a4 <_ftoa+0x34c>)
100026bc:	189b      	adds	r3, r3, r2
100026be:	681a      	ldr	r2, [r3, #0]
100026c0:	685b      	ldr	r3, [r3, #4]
100026c2:	920a      	str	r2, [sp, #40]	; 0x28
100026c4:	930b      	str	r3, [sp, #44]	; 0x2c
100026c6:	f000 fee2 	bl	1000348e <__wrap___aeabi_dmul>
100026ca:	9008      	str	r0, [sp, #32]
100026cc:	9109      	str	r1, [sp, #36]	; 0x24
100026ce:	f000 ff8b 	bl	100035e8 <__wrap___aeabi_d2uiz>
100026d2:	0006      	movs	r6, r0
100026d4:	f000 ff48 	bl	10003568 <__wrap___aeabi_ui2d>
100026d8:	0002      	movs	r2, r0
100026da:	000b      	movs	r3, r1
100026dc:	9808      	ldr	r0, [sp, #32]
100026de:	9909      	ldr	r1, [sp, #36]	; 0x24
100026e0:	f000 fea5 	bl	1000342e <__wrap___aeabi_dsub>
100026e4:	9008      	str	r0, [sp, #32]
100026e6:	9109      	str	r1, [sp, #36]	; 0x24
100026e8:	2200      	movs	r2, #0
100026ea:	4b6f      	ldr	r3, [pc, #444]	; (100028a8 <_ftoa+0x350>)
100026ec:	f000 ff28 	bl	10003540 <__wrap___aeabi_dcmpgt>
100026f0:	2800      	cmp	r0, #0
100026f2:	d02e      	beq.n	10002752 <_ftoa+0x1fa>
100026f4:	3601      	adds	r6, #1
100026f6:	0030      	movs	r0, r6
100026f8:	f000 ff36 	bl	10003568 <__wrap___aeabi_ui2d>
100026fc:	0002      	movs	r2, r0
100026fe:	000b      	movs	r3, r1
10002700:	980a      	ldr	r0, [sp, #40]	; 0x28
10002702:	990b      	ldr	r1, [sp, #44]	; 0x2c
10002704:	f000 ff0c 	bl	10003520 <__wrap___aeabi_dcmple>
10002708:	2800      	cmp	r0, #0
1000270a:	d001      	beq.n	10002710 <_ftoa+0x1b8>
1000270c:	3501      	adds	r5, #1
1000270e:	2600      	movs	r6, #0
10002710:	2f00      	cmp	r7, #0
10002712:	d12c      	bne.n	1000276e <_ftoa+0x216>
10002714:	0028      	movs	r0, r5
10002716:	f000 ff2b 	bl	10003570 <__wrap___aeabi_i2d>
1000271a:	0002      	movs	r2, r0
1000271c:	000b      	movs	r3, r1
1000271e:	981e      	ldr	r0, [sp, #120]	; 0x78
10002720:	991f      	ldr	r1, [sp, #124]	; 0x7c
10002722:	f000 fe84 	bl	1000342e <__wrap___aeabi_dsub>
10002726:	0006      	movs	r6, r0
10002728:	000f      	movs	r7, r1
1000272a:	2200      	movs	r2, #0
1000272c:	4b5e      	ldr	r3, [pc, #376]	; (100028a8 <_ftoa+0x350>)
1000272e:	f000 fef1 	bl	10003514 <__wrap___aeabi_dcmplt>
10002732:	2800      	cmp	r0, #0
10002734:	d146      	bne.n	100027c4 <_ftoa+0x26c>
10002736:	2200      	movs	r2, #0
10002738:	4b5b      	ldr	r3, [pc, #364]	; (100028a8 <_ftoa+0x350>)
1000273a:	0030      	movs	r0, r6
1000273c:	0039      	movs	r1, r7
1000273e:	f000 feff 	bl	10003540 <__wrap___aeabi_dcmpgt>
10002742:	2800      	cmp	r0, #0
10002744:	d13e      	bne.n	100027c4 <_ftoa+0x26c>
10002746:	07eb      	lsls	r3, r5, #31
10002748:	d53c      	bpl.n	100027c4 <_ftoa+0x26c>
1000274a:	3501      	adds	r5, #1
1000274c:	e03a      	b.n	100027c4 <_ftoa+0x26c>
1000274e:	2706      	movs	r7, #6
10002750:	e746      	b.n	100025e0 <_ftoa+0x88>
10002752:	2200      	movs	r2, #0
10002754:	4b54      	ldr	r3, [pc, #336]	; (100028a8 <_ftoa+0x350>)
10002756:	9808      	ldr	r0, [sp, #32]
10002758:	9909      	ldr	r1, [sp, #36]	; 0x24
1000275a:	f000 fedb 	bl	10003514 <__wrap___aeabi_dcmplt>
1000275e:	2800      	cmp	r0, #0
10002760:	d1d6      	bne.n	10002710 <_ftoa+0x1b8>
10002762:	2e00      	cmp	r6, #0
10002764:	d001      	beq.n	1000276a <_ftoa+0x212>
10002766:	07f3      	lsls	r3, r6, #31
10002768:	d5d2      	bpl.n	10002710 <_ftoa+0x1b8>
1000276a:	3601      	adds	r6, #1
1000276c:	e7d0      	b.n	10002710 <_ftoa+0x1b8>
1000276e:	46aa      	mov	sl, r5
10002770:	2c1f      	cmp	r4, #31
10002772:	d811      	bhi.n	10002798 <_ftoa+0x240>
10002774:	3f01      	subs	r7, #1
10002776:	210a      	movs	r1, #10
10002778:	0030      	movs	r0, r6
1000277a:	f000 fc15 	bl	10002fa8 <__wrap___aeabi_uidiv>
1000277e:	1c65      	adds	r5, r4, #1
10002780:	3130      	adds	r1, #48	; 0x30
10002782:	ab0c      	add	r3, sp, #48	; 0x30
10002784:	5519      	strb	r1, [r3, r4]
10002786:	210a      	movs	r1, #10
10002788:	0030      	movs	r0, r6
1000278a:	f000 fc0d 	bl	10002fa8 <__wrap___aeabi_uidiv>
1000278e:	2e09      	cmp	r6, #9
10002790:	d90e      	bls.n	100027b0 <_ftoa+0x258>
10002792:	0006      	movs	r6, r0
10002794:	002c      	movs	r4, r5
10002796:	e7eb      	b.n	10002770 <_ftoa+0x218>
10002798:	4655      	mov	r5, sl
1000279a:	2c1f      	cmp	r4, #31
1000279c:	d80c      	bhi.n	100027b8 <_ftoa+0x260>
1000279e:	1e7b      	subs	r3, r7, #1
100027a0:	2f00      	cmp	r7, #0
100027a2:	d009      	beq.n	100027b8 <_ftoa+0x260>
100027a4:	aa0c      	add	r2, sp, #48	; 0x30
100027a6:	2130      	movs	r1, #48	; 0x30
100027a8:	5511      	strb	r1, [r2, r4]
100027aa:	001f      	movs	r7, r3
100027ac:	3401      	adds	r4, #1
100027ae:	e7f4      	b.n	1000279a <_ftoa+0x242>
100027b0:	002b      	movs	r3, r5
100027b2:	4655      	mov	r5, sl
100027b4:	001c      	movs	r4, r3
100027b6:	e7f0      	b.n	1000279a <_ftoa+0x242>
100027b8:	2c1f      	cmp	r4, #31
100027ba:	d803      	bhi.n	100027c4 <_ftoa+0x26c>
100027bc:	ab0c      	add	r3, sp, #48	; 0x30
100027be:	222e      	movs	r2, #46	; 0x2e
100027c0:	551a      	strb	r2, [r3, r4]
100027c2:	3401      	adds	r4, #1
100027c4:	2c1f      	cmp	r4, #31
100027c6:	d810      	bhi.n	100027ea <_ftoa+0x292>
100027c8:	210a      	movs	r1, #10
100027ca:	0028      	movs	r0, r5
100027cc:	f000 fbc4 	bl	10002f58 <__wrap___aeabi_idiv>
100027d0:	1c66      	adds	r6, r4, #1
100027d2:	3130      	adds	r1, #48	; 0x30
100027d4:	ab0c      	add	r3, sp, #48	; 0x30
100027d6:	5519      	strb	r1, [r3, r4]
100027d8:	210a      	movs	r1, #10
100027da:	0028      	movs	r0, r5
100027dc:	f000 fbbc 	bl	10002f58 <__wrap___aeabi_idiv>
100027e0:	1e05      	subs	r5, r0, #0
100027e2:	d001      	beq.n	100027e8 <_ftoa+0x290>
100027e4:	0034      	movs	r4, r6
100027e6:	e7ed      	b.n	100027c4 <_ftoa+0x26c>
100027e8:	0034      	movs	r4, r6
100027ea:	2303      	movs	r3, #3
100027ec:	9a22      	ldr	r2, [sp, #136]	; 0x88
100027ee:	4013      	ands	r3, r2
100027f0:	2b01      	cmp	r3, #1
100027f2:	d01c      	beq.n	1000282e <_ftoa+0x2d6>
100027f4:	2c1f      	cmp	r4, #31
100027f6:	d806      	bhi.n	10002806 <_ftoa+0x2ae>
100027f8:	4643      	mov	r3, r8
100027fa:	2b00      	cmp	r3, #0
100027fc:	d032      	beq.n	10002864 <_ftoa+0x30c>
100027fe:	ab0c      	add	r3, sp, #48	; 0x30
10002800:	222d      	movs	r2, #45	; 0x2d
10002802:	551a      	strb	r2, [r3, r4]
10002804:	3401      	adds	r4, #1
10002806:	9b22      	ldr	r3, [sp, #136]	; 0x88
10002808:	9303      	str	r3, [sp, #12]
1000280a:	9b21      	ldr	r3, [sp, #132]	; 0x84
1000280c:	9302      	str	r3, [sp, #8]
1000280e:	9401      	str	r4, [sp, #4]
10002810:	ab0c      	add	r3, sp, #48	; 0x30
10002812:	9300      	str	r3, [sp, #0]
10002814:	464b      	mov	r3, r9
10002816:	465a      	mov	r2, fp
10002818:	9907      	ldr	r1, [sp, #28]
1000281a:	9806      	ldr	r0, [sp, #24]
1000281c:	f7ff fae2 	bl	10001de4 <_out_rev>
10002820:	b015      	add	sp, #84	; 0x54
10002822:	bcf0      	pop	{r4, r5, r6, r7}
10002824:	46bb      	mov	fp, r7
10002826:	46b2      	mov	sl, r6
10002828:	46a9      	mov	r9, r5
1000282a:	46a0      	mov	r8, r4
1000282c:	bdf0      	pop	{r4, r5, r6, r7, pc}
1000282e:	9b21      	ldr	r3, [sp, #132]	; 0x84
10002830:	2b00      	cmp	r3, #0
10002832:	d013      	beq.n	1000285c <_ftoa+0x304>
10002834:	4643      	mov	r3, r8
10002836:	2b00      	cmp	r3, #0
10002838:	d102      	bne.n	10002840 <_ftoa+0x2e8>
1000283a:	330c      	adds	r3, #12
1000283c:	4213      	tst	r3, r2
1000283e:	d00f      	beq.n	10002860 <_ftoa+0x308>
10002840:	9b21      	ldr	r3, [sp, #132]	; 0x84
10002842:	3b01      	subs	r3, #1
10002844:	9321      	str	r3, [sp, #132]	; 0x84
10002846:	0019      	movs	r1, r3
10002848:	e003      	b.n	10002852 <_ftoa+0x2fa>
1000284a:	ab0c      	add	r3, sp, #48	; 0x30
1000284c:	2230      	movs	r2, #48	; 0x30
1000284e:	551a      	strb	r2, [r3, r4]
10002850:	3401      	adds	r4, #1
10002852:	428c      	cmp	r4, r1
10002854:	d2ce      	bcs.n	100027f4 <_ftoa+0x29c>
10002856:	2c1f      	cmp	r4, #31
10002858:	d9f7      	bls.n	1000284a <_ftoa+0x2f2>
1000285a:	e7cb      	b.n	100027f4 <_ftoa+0x29c>
1000285c:	9921      	ldr	r1, [sp, #132]	; 0x84
1000285e:	e7f8      	b.n	10002852 <_ftoa+0x2fa>
10002860:	9921      	ldr	r1, [sp, #132]	; 0x84
10002862:	e7f6      	b.n	10002852 <_ftoa+0x2fa>
